:2000000000802020B9800000AD800000AD800000000000000000000000000000000000008D
:20002000000000000000000000000000AD8000000000000000000000AD800000AD80000039
:20004000AD800000B1630000AD800000AD800000AD800000AD800000AD800000AD80000051
:2000600000000000AD800000AD8000000000000000000000AD80000035620000AD80000035
:20008000AD800000AD800000AD800000AD800000AD800000A5760000000000000000000064
:2000A000AD800000AD8000000000000000000000AD80000000000000AD800000AD8000005F
:2000C00010B59CB01B901A911B9807F08CF91B9815A9052204F066FC014614A801700078B0
:2000E000002802D1FFE700F062FE14A8007801280CD1FFE71598FE4905F018FC002805D0B5
:20010000FFE7FC4807F064F800F051FE14A8007802281CD1FFE71598F74905F007FC0028E5
:2001200015D0FFE7169813A904F0F6FA00280ED0FFE7139800280AD4FFE71398F74988426E
:2001400005DCFFE7139805F0CBF900F02FFE14A8007801280BD1FFE71598F14905F0E6FB7B
:20016000002804D0FFE707F013F900F01EFE14A80078012821D1FFE71598EA4905F0D6FBB3
:2001800000281AD0FFE7E84900200D90087004F03DFD0D98E5490870E5490870E54908703C
:2001A000E5490870E5490870E5490870E5490870E54807F00DF800F0F7FD14A8007801283D
:2001C0000CD1FFE71598E14905F0B0FB002805D0FFE71A9803F0B4FC00F0E5FD14A80078A7
:2001E00001280BD1FFE71598D94905F09FFB002804D0FFE705F086F800F0D4FD14A800786C
:2002000001280BD1FFE71598D24905F08FFB002804D0FFE704F05EFD00F0C3FD14A8007897
:2002200001280BD1FFE71598CB4905F07FFB002804D0FFE702F0F0FB00F0B2FD14A8007811
:20024000022842D1FFE71598C44905F06FFB00283BD0FFE7169813A904F05EFA002834D067
:20026000FFE71398002830D4FFE71398AB4988422BDCFFE7BA480078002826D1FFE713985B
:200280001090B848007800280CD0FFE7B64800681099884206D1FFE71098B449097806F0AA
:2002A00059FA10E006F08CFE03F0ECF9AF4908701098AD4A1060AB4A012010701098097865
:2002C00006F048FAFFE700F06AFD14A8007801281DD1FFE71598A14905F028FB002816D0BB
:2002E000FFE79F480078002811D1FFE706F068FE03F0C8F9002804D0FFE79D4806F068FF95
:2003000003E09C4806F064FFFFE700F047FD14A8007801281DD1FFE71598974905F006FBEF
:20032000002816D0FFE78E480078002811D1FFE701F078FE002806D0FFE7904806F048FF2B
:2003400002F06AFB03E08E4806F042FFFFE700F024FD14A80078012811D1FFE715988949BB
:2003600005F0E4FA00280AD0FFE77D480078002805D1FFE71A9806F021FB00F00DFD14A827
:20038000007802281ED1FFE715987F4905F0CEFA002817D0FFE716987C4905F0C7FA00286E
:2003A00010D0FFE76149012008706149002008701A9877490860774806F00AFF07F0F0FD76
:2003C00000F0E9FC14A8007802281CD1FFE715986D4905F0ABFA002815D0FFE716986E49C2
:2003E00005F0A4FA00280ED0FFE75049002008704F49012008701A9865490860674806F0AF
:20040000E7FE00F0C7FC14A80078022818D1FFE715985D4905F08AFA002811D0FFE71698AE
:200420005F4905F083FA00280AD0FFE73F49002008703F4908705B4806F0CAFE00F0A9FCA4
:2004400014A80078022863D1FFE71598564905F06DFA00285CD0FFE7169813A904F05CF98F
:20046000002809D0FFE71398002805D4FFE713982A49884204DDFFE74C4806F0A9FE45E0FE
:2004800029480078002810D0FFE713982649C96988420AD1FFE7464806F09AFE139804F0F3
:2004A00039FD444806F094FE2FE043480078002806D0FFE713984149C969884205D0FFE710
:2004C00013983F4906F0C6FB1EE03C480078012804D1FFE7394804F035FB14E037480078C4
:2004E00002280BD1FFE7354804F038F80AE0C046618800009B87000017880000314806F066
:2005000067FEFFE7FFE7FFE7FFE7FFE700F040FC14A80078042857D0CAE0C046FFFFFF7F19
:20052000A7880000A2880000B03320206F3520205235202003352020573520206E3520206D
:200540006D3520206A352020E0860000EF870000A9870000F5880000358800008988000083
:20056000633520205C352020A03420205B352020F4860000A18600004D880000EA86000008
:2005800075860000AC880000BE8700002C890000AC342020758500007F8800001485000078
:2005A00009890000568500008C8700002585000019890000268900005F3520206033202019
:2005C00084870000A28500001598FD4905F0AEF900286DD0FFE7169813A904F09DF80028F4
:2005E00066D0FFE7179812A904F096F800285FD0FFE7189811A904F08FF8002858D0FFE79B
:2006000013983B21C943884252DBFFE713983C284EDCFFE7129832284ADBFFE712981921D8
:200620000901884244DCFFE71198002840D4FFE71198E44988423BDCFFE711980F90E24806
:20064000007800280BD0FFE7E04800680F99884205D1FFE70F98DE4906F0B4FA27E0DD48DD
:20066000007805280AD0FFE7DA480078062818D1FFE7D9480078002813D1FFE71398D74928
:2006800008801A9812994018D54908600F98CF490860CD49012008700F98CD4906F092FA82
:2006A00004E00F98CF4906F08DFAFFE7FFE76EE314A80078032844D1FFE71598C04905F0F8
:2006C00035F900283DD0FFE7169813A904F024F8002836D0FFE7179812A904F01DF80028A8
:2006E0002FD0FFE713983B21C943884229DBFFE713983C2825DCFFE71298322821DBFFE772
:2007000012981921090188421BDCFFE7B148007805280AD0FFE7AF480078062811D1FFE781
:20072000AD48007800280CD1FFE71398AB4908801A9812994018AA490860AB4806F048FDFC
:2007400024E314A80078032838D1FFE71598A74905F0ECF8002831D0FFE7179813A903F061
:20076000DBFF00282AD0FFE71398002826D4FFE713989B218900884220DCFFE716989C49B5
:2007800005F0D4F800280ED1FFE71698994905F0CDF8002807D1FFE71698974905F0C6F83A
:2007A00000280BD0FFE79548002202701698007813A9895E1A9A03F041FFE6E214A8007833
:2007C000052855D1FFE715988D4905F0AFF800284ED0FFE71698864905F0A8F8002807D183
:2007E000FFE71698834905F0A1F8002840D0FFE7179813A903F090FF002839D0FFE7189839
:2008000012A903F089FF002832D0FFE7199811A903F082FF00282BD0FFE71398002827D4DC
:20082000FFE713989B218900884221DCFFE712987D21C90088421BDBFFE712987D2109012C
:20084000884215D8FFE71198002811D4FFE711985C4988420CDCFFE716980078002213A975
:20086000895E129A119B1A9C009404F005FC8BE214A80078052853D1FFE71598614905F0D6
:2008800055F800284CD0FFE71698594905F04EF8002807D1FFE71698564905F047F80028C7
:2008A0003ED0FFE7179813A903F036FF002837D0FFE7189812A903F02FFF002830D0FFE702
:2008C000199811A903F028FF002829D0FFE71398502825DBFFE713984B21C90088421FDCDE
:2008E000FFE7129880087D281AD3FFE712984649884215D8FFE71198002811D4FFE711984D
:20090000304988420CDCFFE716980078002213A9895E129A119B1A9C009404F0FFFB32E237
:2009200014A8007804282BD1FFE71598374904F0FDFF002824D0FFE7179813A903F0ECFE0E
:2009400000281DD0FFE7189812A903F0E5FE002816D0FFE71298002812D4FFE712981949BD
:2009600088420DDCFFE71698139900F0D5FD002806D0FFE712981699139A05F09DFD01E266
:2009800014A80078032845D1FFE715981F4904F0CDFF00283ED0FFE7179813A903F0BCFEF3
:2009A000002837D0FFE71698139900F0B5FD002830D0FFE7164806F00BFC02F02DF8E0E1E5
:2009C00093880000FFFFFF7F5A3520209434202023890000633520206B3520201A352020B6
:2009E000C0342020F1880000D6860000158900003F8900003D89000041890000B0332020D5
:200A00003E87000023870000983A0000CD8800001A87000014A80078042851D1FFE715988A
:200A2000E94904F083FF00284AD0FFE71698E34904F07CFF002807D1FFE71698E04904F0EC
:200A400075FF00283CD0FFE7179813A903F064FE002835D0FFE7189812A903F05DFE002854
:200A60002ED0FFE7139850282ADBFFE713984B21C900884224DCFFE7129880087D281FD32B
:200A8000FFE71298CF4988421AD8FFE7E24900200A90087016980178022003220B924C292F
:200AA0000C9001D00B980C900A9C0C9813A9095F129A1A9B01940124009402F0A9FA5FE198
:200AC00014A80078032849D1FFE71598BF4904F02DFF002807D1FFE71598BD4904F026FF30
:200AE00000283BD0FFE7169813A903F015FE002834D0FFE7179812A903F00EFE00282DD0CD
:200B0000FFE71398502829DBFFE713984B21C900884223DCFFE7129880087D281ED3FFE7A5
:200B20001298A849884219D8FFE71598A84904F0FDFE01460520042208920029099001D12C
:200B4000089809900998002413A9095F129A1A9B01940124009402F05BFA10E114A8007858
:200B6000042800D081E015989A4904F0DFFE00287BD0FFE7169813A903F0CEFD002874D0CA
:200B8000FFE7179812A903F0C7FD00286DD0FFE7189811A903F0C0FD002866D0FFE71398FA
:200BA000502862DBFFE71398E121490088425CDCFFE71298012858DBFFE712980A2854D8C8
:200BC000FFE71198002850D4FFE71198794988424BDCFFE711980E9089480078002817D073
:200BE000FFE7884800680E99884211D1FFE70E980590854801788548854A06920029079029
:200C000001D1069807900598079905F0FFFF2BE069480078002805D0FFE70E987D4905F025
:200C2000F5FF20E0002113A8405E12A909781A9A01F044FC0146744801700E99714A1160DE
:200C40006F4A012111700E99029101786F48704A03920029049001D103980490029804998A
:200C600005F0D4FFFFE7FFE788E014A80078032837D1FFE71598574904F058FE002830D06C
:200C8000FFE7169813A903F047FD002829D0FFE7179812A903F040FD002822D0FFE7139881
:200CA00050281EDBFFE71398E1214900884218DCFFE71298012814DBFFE712980A2810D8D7
:200CC000FFE7002113A8405E12A909781A9A01F0F5FB002804D1FFE7484806F079FAFFE721
:200CE0004BE014A80078032842D1FFE715983A4904F01CFE00283BD0FFE7169813A903F0BD
:200D00000BFD002834D0FFE7179812A903F004FD00282DD0FFE71398502829DBFFE7139898
:200D20004B21C900884223DCFFE7129880087D281ED3FFE712982349884219D8FFE71E4804
:200D40000078002814D1FFE7139825490880129824490860244901200870244900200870FD
:200D60002349087023490870234806F031FA03E01A4806F02DFAFFE7FFE7FFE7FFE7FFE73F
:200D8000FFE7FFE7FFE7FFE7FFE7FFE7FFE7FFE7FFE7FFE7FFE7FFE7FFE7FFE7FFE7FFE7F3
:200DA000FFE7FFE7FFE7FFE7FFE7FFE7FFE71CB010BDC046FFFFFF7F633520203F8900002E
:200DC0003D890000983A00006B880000C58800005C880000A2870000B1880000F283000080
:200DE000043520207C3420206E3520206D3520206F35202003352020FC8200007B830000ED
:200E00005E352020A83420205D35202023890000F188000075880000B0332020B0B5B2B005
:200E2000319006F0B5FC3090FC480078022815D0FFE7FA480078032810D0FFE7F748007877
:200E400004280BD0FFE7F5480078052806D0FFE7F2480078062801D0FFE729E33098F04963
:200E60000968884201D1FFE722E33098EC490860319800F081FD002801D0FFE718E3E748D5
:200E80000078022808D1FFE7E6480088E6490880E64900200880E1E2E0480078032808D146
:200EA000FFE7E14900200880DE480088DF490880D3E2DA480078052805D0FFE7D74800784E
:200EC000062800D041E2D74800882DA908803198D7490968401A2990D048007806280AD1E6
:200EE000FFE7D4480078042805D1FFE7D24800882DA9088010E02998D04988420BD8FFE733
:200F00000021C848415E29984843CD4905F00AFF2DA90880FFE7FFE707F0A6F801467F20FC
:200F20000140C848017000782AA902F077FDC64908802A98C5490870B8480078062800D0E9
:200F400093E0BC48007800284DD1FFE705F00EF90146BF4801800022805EBE49895E8842F3
:200F600006DAFFE7BC4900200870BC49087039E0B9480078072811D8FFE7B248007804F09B
:200F8000CFFD002805D0FFE7B3490878401C087003E0B14900200870FFE722E0A94800788C
:200FA00004F078FE00280BD0FFE7AC480078FF2805D0FFE7A9490878401C0870FFE703E081
:200FC000A64900200870FFE7A4480078022807D3FFE7319803F0F8FF319800F0CDFC67E2D8
:200FE000FFE7FFE740E09348007804283BD1FFE731989B490968401A28902898782812D31F
:20100000FFE79048007804F08BFD00280BD0FFE794480078FF2805D0FFE792490878401C48
:201020000870FFE703E08F4900200870FFE78D48007803280CD3FFE7319801F017FC0028E7
:2010400001D0FFE734E2774800882DA9088009E028984009192804D3FFE7834805F03AFF35
:2010600026E2FFE7FFE7FFE7FFE72AA80078002800D1AEE07448139000211691405E06F044
:20108000BFF8169927AA1492108078481590405E06F0B6F8169926AA108025AAA02010800E
:2010A0007348006823907348006822902DA8415EFF22A43201209142179001DC169817904D
:2010C00014981699159B139A179C21AD2C7012881B88D21A2BAB1A80405E042809DCFFE70D
:2010E000239903204843C117890F4018801023901BE0002127A8405E0A2815DBFFE721A821
:201100000078002809D0FFE7239905204843C117890F40188010129003E02398400012908A
:20112000FFE712982390FFE7FFE7002227A8805E26A9895E884204DAFFE7229840002290E1
:2011400005E02298C10F401840102290FFE721A80078002804D0FFE725A95A200880FFE707
:20116000239900231193DE48C05E4843229A2BA9C95E514340187D21C90005F0F5F9119A85
:2011800025A98A5E514209B205F00CFB24A9088021A80078002810D0FFE7002224A8805EFF
:2011A000D24910918A5E11460F390F3209B212B205F0F8FA1099088003E02498CB490880D9
:2011C000FFE7C7480088CD490880C6490020088065E0C4480088C449884205D8FFE7C149C0
:2011E00008880A300880FFE7BE480088C0084B2842D3FFE7AF480078062804D1FFE7BE4895
:2012000005F068FE08E003F001FDB94900200870B84805F0DDFFFFE74AE1C0466335202040
:20122000A434202036352020163520202E352020CC3420206B3520203C352020DB0500000C
:20124000DC0500006135202018352020623520200C352020083520205435202055352020E2
:20126000EC34202071352020E084000020352020C4342020BC3420209A48008864280DD3F1
:20128000FFE79A48002101802DA8405E652804DBFFE72DA964200880FFE7FFE7FFE700216A
:2012A0009748405E002816D0FFE7964800683199401A01280FDBFFE700228C480F90805EE7
:2012C0008F49895E40189F21C943A02205F06AFA0F99088005E08A49002008808949086046
:2012E000FFE72D9914392CA801800021405E002804D5FFE72CA900200880FFE77B480B9039
:2013000000220C92805E2CA98A5E514209B205F049FA0B9A0C9910802DA80E90405E525E51
:2013200080184B22D2000D9205F03CFA0B9B0C990D9A04460E98684D2C80405E5B5EC01A98
:2013400005F030FA6549088086E05B48008820A9088006F0FDF9099006F00AFA01460998EF
:20136000401A1F9006F0F4F90A9006F001FA01460A984018C10F401840101E901E990022B6
:201380004E48805E48434E4905F0EEF81D901F981D99401A1C9031984A490968401A1890ED
:2013A0001898494988420BD8FFE700214248415E18984843454905F0B5FC20A90880FFE768
:2013C000002120A8405EC20F801842081AA80280405E3D2804DBFFE71AA93C200880FFE73A
:2013E0003B480068199018983749884208D8FFE7199840000021374A05F09EFE1990FFE7E6
:2014000019991C9848437D21C90005F0ADF8002206921AA98A5E514209B205F0C3F90699D7
:201420001BAA0592108020A80890405E525E801A4B22D200079205F0B5F9059B0699079A1D
:2014400004460898244D2C80405E5B5EC01805F0A9F922490880FFE7FFE7FFE706F050F8DC
:201460002FA90191088006F05FF8014601982EAA02921180002203921749895E825E224808
:2014800002F09EF9039A01460298204B049319801249895E825E1E4802F092F9039A0346BF
:2014A00004981C490B80805E895E03F0DBFEFFE732B0B0BD633520203635202024352020BE
:2014C00010270000CC342020DB050000DC050000F434202088130000163520202E352020A3
:2014E000183520201E3520205FEA0000223520206F3520207F840000FE86000020352020EC
:201500001A352020C0342020403420200E352020543420202635202080B584B002900191E1
:201520000298F24904F002FA002811D0FFE70198002805D4FFE70198EA49884204DBFFE71C
:2015400003A900200870C8E10198E7490860BEE10298E74904F0EAF9002811D0FFE70198A5
:20156000002805D4FFE70198DE49884204DBFFE703A900200870B0E10198FC494860A5E154
:201580000298DC4904F0D2F9002811D0FFE70198002805D4FFE70198F649884204DBFFE7F7
:2015A00003A90020087098E10198EF4908608CE10298D14904F0BAF9002811D0FFE70198E5
:2015C000002805D4FFE70198EA49884204DBFFE703A90020087080E10198E349486073E163
:2015E0000298C64904F0A2F9002811D0FFE70198002805D4FFE70198DD49884204DBFFE7F6
:2016000003A90020087068E10198D84988605AE10298BB4904F08AF9002811D0FFE70198C3
:20162000002805D4FFE70198D149884204DBFFE703A90020087050E10198CB49886041E155
:201640000298B04904F072F9002812D0FFE70198002806D4FFE70198FF21C431884204DBD0
:20166000FFE703A90020087037E10198BF49888127E10298A44904F059F9002812D0FFE7B9
:201680000198002806D4FFE70198FF21C431884204DBFFE703A9002008701EE10198B249B5
:2016A00088810DE10298994904F040F9002811D0FFE70198002805D4FFE70198A8498842C7
:2016C00004DBFFE703A90020087006E10198A5490860F4E002988E4904F028F9002812D0C7
:2016E000FFE701984F21C943884204DBFFE70198512804DBFFE703A900200870EDE00198DF
:2017000096490880DAE00298824904F00FF9002811D0FFE70198002805D4FFE701988C496A
:20172000884204DBFFE703A900200870D5E0019889490860C1E00298774904F0F7F8002848
:2017400011D0FFE70198002805D4FFE701988049884204DBFFE703A900200870BDE00198D7
:201760007C490860A8E002986C4904F0DFF8002813D0FFE70198AF218900884205DBFFE727
:2017800001987149884204DBFFE703A900200870A3E001986D4908808DE00298604904F025
:2017A000C5F8002819D0FFE7019864280DDBFFE701984B218900884207DCFFE701980022A6
:2017C0006049895E884204DAFFE703A90020087083E001985A4908806CE00298514904F00C
:2017E000A5F8002817D0FFE7019850280BDBFFE70198FA2807DCFFE7019800225049895EBB
:20180000884204DDFFE703A90020087065E001984C4908804DE00298434904F087F800280A
:2018200012D0FFE70198322806DBFFE70198FF216031884204DBFFE703A9002008704CE0DD
:2018400001983E49088033E00298384904F06EF8002810D0FFE70198502804DBFFE70198FB
:20186000FB2804DBFFE703A90020087035E00198314908801BE002982D4904F057F8002816
:2018800010D0FFE70198322804DBFFE701988D2804DBFFE703A9002008701EE0019825496E
:2018A000088003E003A90020087016E0FFE7FFE7FFE7FFE7FFE7FFE7FFE7FFE7FFE7FFE787
:2018C000FFE7FFE7FFE7FFE7FFE7FFE7FFE706F01FFB03A901200870FFE703A8007804B0AC
:2018E00080BDC046B90B0000403420200589000001890000B9880000D9880000D588000016
:20190000C98800008488000052880000668800009D880000B787000004880000CC86000061
:2019200050870000088700006A860000358700002C8700003A3520203C35202042352020CB
:201940003E352020443520204D04000038352020214E0000BC342020C434202024352020AD
:2019600089130000F43420205434202040342020E9030000B90B000010B58CB00A90EB4869
:20198000007806280AD1FFE7E9480078002805D0FFE7E7480078042804D1FFE70BA90020F2
:2019A0000870BFE10A98E3490968401A0990E0480078012847D1FFE7EC490A88ED48028098
:2019C0000A88ED490A80F74A1388EC4C23801288EB4B1A800022805E895E03F043FC0998DA
:2019E00032282CD3FFE706F015FB002807D1FFE7ED4805F06FFA0BA90120087092E106F073
:201A00004BFAD749002004900880D4490880D2490120087005F0FEFDC749086005F00CFE65
:201A200001460498C54A1160C5490880D5490870BF49022008700A98BE490860FFE70BA9CA
:201A4000012008706EE106F0E5FA002807D1FFE7D34805F03FFA0BA90120087062E105F015
:201A6000D9FDB5490968401A069005F0E5FDB3490968401A05900698002804D5FFE70698DB
:201A800040420690FFE70598002804D5FFE7059840420590FFE7069805994018C10F40186E
:201AA0004008A749088006F0DFFA7F210840A5490870A5480078002820D1FFE7A148007884
:201AC00005F061FA00280BD1FFE7A2480078FF2805D0FFE79F490878401C0870FFE703E083
:201AE0009C4900200870FFE79A480078022804D3FFE7954901200870FFE721E000229048EA
:201B0000805E9249895ECA0F89184910884212DBFFE78C48007805F036FA00280BD0FFE75B
:201B20008B480078FF2805D0FFE789490878401C0870FFE703E0864900200870FFE7FFE756
:201B400005F03AFF014608A801800021405E002805D5FFE70898404208A90880FFE77E4831
:201B60000078002811D0FFE708987C490988401A00B205F045FB502807DCFFE70898774926
:201B800008800898764908800EE0089873490988401A00B205F034FB512804DBFFE76E49D6
:201BA00000200870FFE7FFE70A9862490968401A09900998C008AF2807D3FFE7774805F05C
:201BC00089F90BA901200870ACE00998DC2858D3FFE75F48007802281AD8FFE75E480078B5
:201BE000002808D1FFE700225548805E5749895E88420DDAFFE758480078002841D0FFE70C
:201C000000225748805E5749895E884239DBFFE74F4801780120002202920229039001D85C
:201C20000298039002980399564A1170404A042111700A993F4A116053490870534908801B
:201C4000534908804B4908804B4908804B4908804B49088005F0B4F906F05AF94D480078F8
:201C6000401CC0B24C4909788906090E884204DBFFE70A9800F0FAFDFFE70BA9012008708F
:201C800050E02B480078022823D1FFE70998DC281FD3FFE73048007800280CD0FFE70021AD
:201CA0002F48405E2F4909882F4A1288891A09B288420ADAFFE700212148405E23490988DC
:201CC000193909B2884204DBFFE7194903200870FFE717480078022805D1FFE7002124483B
:201CE000405E019004E000212048405E0190FFE7019807A90880079841421E480180079AB8
:201D00001D490A80079A52421C4B1A80079A1C4B1A800022805E895E03F0A4FA0BA90120AE
:201D20000870FFE70BA800780CB010BD633520206B352020EC342020F8342020FC3420209D
:201D40004635202061352020743520203A35202072352020733520207535202040352020EC
:201D6000483520203835202042352020443520203E3520200E35202026352020163520202D
:201D80002E3520207035202071352020203520201E352020693520206C352020F485000075
:201DA000598700003C352020B185000070B58EB00D9009A90020087094480078002801D1C4
:201DC000FFE721E10D9891498A68801A0C900D980969884200D2ECE00D9914318B480161D5
:201DE00040784C2804D1FFE705F08AFB069003E005F09AFB0690FFE706980BA9088083485E
:201E000040784C2805D1FFE700218248405E059004E000217E48405E0590FFE705980AA988
:201E2000088000210BA8405E05F0EAF977492422895E884208DDFFE700210BA8405E05F0E7
:201E4000DFF972498884FFE77048007801283BD1FFE70C988008AF2812D3FFE700210BA810
:201E6000405E05F0CDF90446E3176849C86A8A6A121958418A62C862888A401C8882FFE7B6
:201E800000210BA8405E05F0BBF96349884207DBFFE75E494822885C022318438854FFE7B2
:201EA00000210BA8405E05F0ABF9E121C900884209DBFFE7554A4823D15C01200143D154F7
:201EC00009A90870FFE773E0504A049290880B99411A08A80180918A491C91820021405ED5
:201EE00005F08EF904990446E317486B0A6B121958410A634863086AC968884216D1FFE747
:201F000000210BA8405E039040480421415E092048430A2104F028FB0146039809B2884213
:201F200004DBFFE70C9839490862FFE700210AA8405EFF21F031884205DBFFE73349088B15
:201F4000401C0883FFE70C983049CA68032151438908884218D3FFE72C490291C88A401CCB
:201F6000C88200230BA8C65EF517CA6B8C6BA4196A418C63CA63C45E6443486C0A6C121943
:201F800058410A644864FFE700210BA8405E05F037F9E1218900884209DBFFE71B4A482322
:201FA000D15C01200143D15409A90870FFE7FFE7FFE70C981549C968884205D2FFE709A823
:201FC0000078002820D0FFE710490091087807AA019210701148502206F05EF80099104A53
:201FE000012010700020087002F010FE01980078012804D1FFE7094802F0A4FD03E007489D
:2020000002F0ACFAFFE7FFE70EB070BDB0332020263520200E3520209209000060332020C2
:202020005F35202080B5B2B07F20800230902F9030980068884988422CD1FFE73098406877
:20204000022827D1FFE77F2080021A901A9904A8582206F021F80698582810D1FFE719982F
:20206000019004A804F016F901460198884206D1FFE704A800F064FE002804D1FFE731A9FE
:2020800000200870E3E004A802F0E6FE31A901200870DCE02F9800681B902F9840681C903F
:2020A0002F9880681D902F98C0681E902F9800691F902F98406920902F98806921902F9800
:2020C000C06922902F98006A23902F98406A24902F98806A25902F98C06A26902F98006BDD
:2020E00027902F98406B28902F98806B29902F98C06B2A902F98006C2B902F98406C2C90CB
:202100002F98806C2D902F98C06C2E901B985249884214D1FFE71C98012810D1FFE7279858
:2021200000901BA804F01EFE01460098884206D1FFE71BA801F01AFE002804D1FFE731A94D
:202140000020087083E01D98444A10601E9850601F984349086020984860219890602298FD
:202160008860239890812498888125983D49086026983D4908802898401C002817D0FFE75E
:202180001BA8818E0391C08E02900398374988420CDCFFE702983549884207DCFFE7039800
:2021A00033490860029833490860FFE7FFE72998AF21890088423ADBFFE729982E49884210
:2021C00035DCFFE72A98642831DBFFE72A984B21890088422BDCFFE72B98502827DBFFE737
:2021E0002B982A99884222DCFFE72C9832281EDBFFE72C98AF214900884218DCFFE72D9868
:20220000502814DBFFE72D98FA2810DCFFE729981A4908802A981A4908802B9819490880B2
:202220002C98194908802D9818490880FFE72E98322808DBFFE72E988C2804DCFFE72E986D
:2022400013490880FFE731A901200870FFE731A8007832B080BDC046314449504034202023
:2022600054342020F434202024352020204E0000C4342020BC3420204C04000038352020C2
:202280003E35202044352020423520203C3520203A352020B0B588B05A4A912085001560CF
:2022A0000024049454605520830093602D219181554A1560546093609181544A7D21C90091
:2022C0001160534A19211180524A53491160534A53491160534AE12189001180524AB921A3
:2022E0001180524A8C211180514BB4221A80514A118051490880FFF795FE07A9087002F076
:2023000085FC04984D4908704D4908704D4908604D4908604D4908604D4908604D4908608E
:202320004D4908804D4908804D4908704D4908704D4908704D4908704D4908704D4908601D
:202340004D4908804D4908804D4908804D4908804D4908704D4908704D4908804D490860CD
:202360004D4A012111704D49087006A90870FFE706A80078022826D8FFE706A8039000781B
:2023800003F07AFD039A05A90870059B107806210C46444348480355059B15780C466C43D2
:2023A00004196370059B15780C466C430419A37012785143411800208880FFE70698401C50
:2023C00006A90870D4E7364900200860354901200870354804F0FCFE07A801783348344A71
:2023E00001920029029001D101980290029804F0EFFE04F0CDFF00F00FFB2E4804F0E8FE0D
:2024000008B0B0BD4034202054342020F434202024352020C434202070170000BC3420202B
:20242000C4090000383520203E35202044352020423520203C3520203A3520206F352020BB
:2024400052352020CC3420209C342020AC342020983420208C342020303520200A35202015
:2024600003352020573520206E3520206D3520206A352020D8342020183520202035202006
:20248000223520201E35202062352020613520201A352020C03420206C35202069352020E3
:2024A00090342020673520209D8300005484000024840000CE8400006834202080B586B003
:2024C00004AB188003A80170029205F0A3FD00280FD0FFE705F0C2FD00280AD0FFE703A83C
:2024E0000078002805D0FFE703A800780B2804D3FFE705A90020087084E002F087FB03F05D
:2025000007FC42490620087004984149088002984049086003A8019001783F4848433F4907
:20252000086005F035F93E49086002983D4908603D48012101703D4A0020009010703C4A44
:202540001070029A3B4B1A60029A3B4B1A60039A3A4B1A703A4A10703A4A10703A4A10700B
:202560003A4A10703A4A10803A4A10803A4A11703A4908703A4908703A49087005F04AF802
:202580003949086005F058F801460098374A1160374908803749087005F03CF8364908602B
:2025A00005F04AF801460098344A116034490880344AE121490011803349088033490880AF
:2025C0003349088033490880334804F001FE009904A8405E02F09EFC304804F0F9FD01981B
:2025E000007802F097FC2E4804F0F2FD2D480078002803D1FFE705F0D3FCFFE705A901203D
:202600000870FFE705A8007806B080BD6335202036352020CC34202060EA0000C8342020FB
:20262000A4342020AC3420206F352020033520206B352020EC342020F03420206C35202081
:202640006935202054352020553520207135202048352020403520207535202074352020DE
:202660007335202072352020F8342020FC3420204635202070352020803420208434202023
:202680000C352020083520201835202020352020223520201E352020A884000043890000F8
:2026A000268900005235202080B58CB00B90DC2003F054FC002801D1FFE7B5E004F020FFD1
:2026C0000AA9088004F030FF09A9088057480078002803D1FFE70020079005E00B9854498D
:2026E0000968401A0790FFE707980890514804F06FFD089802F00EFC4F48059004F068FD41
:2027000003F0D4F804F064FD059804F061FD002106914A480090405E02F0FCFB059804F0C4
:2027200057FD069946480290405E02F0F3FB059804F04EFD06990AA80190405E02F0EAFBD5
:20274000059804F045FD069909A80390405E02F0E1FB059804F03CFD06993A48405E02F0DC
:20276000D9FB059804F034FD06993748405E02F0D1FB059804F02CFD00980199069A805EDF
:20278000895E401A02F0C6FB059804F021FD02980399069A805E895E401A02F0BBFB05985C
:2027A00004F016FD04F0D4FF049004F0E1FF01460498401A02F0AEFB059804F009FD0699D5
:2027C0002248405E02F0A6FB059804F001FD2048007802F09FFB059804F0FAFC1D480078FF
:2027E00002F098FB059804F0F3FC06991A48405E02F090FB059804F0EBFC1848007802F076
:2028000089FB059804F0E4FC1548007802F082FB059804F0DDFC06991248405E02F07AFB17
:20282000114804F0D5FCFFE70CB080BD63352020CC3420207A88000043890000163520202A
:202840002E3520200E352020263520201835202061352020623520204835202069352020E2
:202860006B352020463520202689000080B588B006904F48007800281AD0FFE700214D484E
:20288000405E322814DBFFE700214A48405E8C280EDCFFE700234849CA5E03205043454A75
:2028A000D25E8018801C820F801880080880FFE7424905910878401C0870414804F088FC1F
:2028C0000598007802F026FB3E48049004F080FC00213D48405E02F01DFB049804F078FCF4
:2028E00006983A490968401A02F014FB384804F06FFC05980078374909788906090E884286
:202900002FDBFFE702F082F93D490020029008703C4908703C4804F05BFC02992648405E37
:2029200002F0F8FA2A48039004F052FC374804F04FFC2248007802F0EDFA039804F048FC20
:2029400000F0A0FE002804D0FFE7324804F040FC03E02F4804F03CFCFFE707A901200870A8
:2029600022E01D4900200190087006981B49086004F050FE1A49086004F05EFE014601981F
:20298000184A116018490880184908701849087018490870184800881849088005F0B8FA78
:2029A000019807A90870FFE707A8007808B080BD70352020463520203A3520206935202027
:2029C0005F8600004389000048352020F0342020268900006C3520206B352020EC34202055
:2029E00080342020843420200C3520205435202055352020713520201835202020352020CF
:202A00006F352020523520200B840000DA8500003C8400006A84000080B584B0474804F083
:202A2000D7FB47480090006802F074FA454804F0CFFB0098406802F06DFA434804F0C8FBB7
:202A400042480290006802F065FA414804F0C0FB0298406802F05EFA3E4804F0B9FB009817
:202A6000806802F057FA3C4804F0B2FB0298806802F050FA394804F0ABFB00980C210191D6
:202A8000405E02F047FA364804F0A2FB01990298405E02F03FFA334804F09AFB3248006873
:202AA00002F038FA314804F093FB002103913048405E02F02FFA2F4804F08AFB2E48006843
:202AC00002F028FA2D4804F083FB2D48006802F021FA2C4804F07CFB03992B48405E02F093
:202AE00019FA2A4804F074FB03992948405E02F011FA284804F06CFB03992748405E02F0E0
:202B000009FA264804F064FB03992548405E02F001FA244804F05CFB03992348405E02F00F
:202B2000F9F9224804F054FB03992148405E02F0F1F9204804F04CFB04B080BDF28400006D
:202B4000403420202988000023880000543420203B8800001D88000047880000FD870000E2
:202B6000E8870000DA870000F4342020C58700002435202047870000C4342020118700009A
:202B8000BC3420203186000038352020808600003E3520208B86000044352020E7850000B2
:202BA00042352020968600003C352020B78600003A3520202689000080B594B01390FFE7F4
:202BC00003A8402100F022FC002805D0FFE7139903A8FDF775FAF3E7139801F0CFFB139853
:202BE00002F0E0FB1398FEF719F91398FFF7DEF84548007801280ED1FFE713984349096844
:202C0000401A00097D2806D3FFE701F0FFFF404804F0DEFAFFE73F48007800280ED0FFE7D9
:202C200013983D490968401A142807D3FFE7139839490860139801F01DFCFFE7324800787A
:202C4000022814D0FFE73048007803280FD0FFE72D48007804280AD0FFE72B4800780528AF
:202C600005D0FFE72848007806282AD1FFE713982A490968401A2A490968884221D3FFE731
:202C800024480090007802A90191087001F0BEFF0099244A002010700870234804F098FA4D
:202CA0000198007800280BD0FFE7204804F090FA1F48008802F02EF91E4804F089FAFFE769
:202CC000FFE718480078002818D0FFE713981A490968401A142811D3FFE7139816490860EF
:202CE00016480078002804D0FFE7139801F0CAF903E01398FFF7D8FCFFE7FFE7139802F0FC
:202D00004DFF14B080BDC046633520209C342020D98300000335202098342020CC34202058
:202D2000C83420206F3520203D860000498600003035202026890000AC34202052352020A6
:202D400080B59AB018901898C068069018980069079018984069089018988069099018985B
:202D6000C0690A901898006A0B901898406A0C901898806A0D901898C06A0E901898006B1B
:202D80000F9004A800F0F2FF002804D1FFE719A90020087085E01898416B0020002903902D
:202DA00079D4FFE71898416B0020404A9142039071DCFFE71898816B0020002903906AD48B
:202DC000FFE71898816B0020384A9142039062DCFFE71898C16B0020AF2292009142039080
:202DE00059DBFFE71898C16B0020314A9142039051DCFFE71898016C0020642903904ADB47
:202E0000FFE71898016C00204B2292009142039041DCFFE71898416C0020502903903ADB89
:202E2000FFE71898416C026C00209142039032DCFFE71898816C0020322903902BDBFFE7D0
:202E40001898816C0020AF2252009142039022DCFFE71898C16C0020502903901BDBFFE763
:202E60001898C16C0020FA29039014DCFFE71898016D0020322903900DDBFFE71898016DB1
:202E80000120002201928D29029001DB0198029002980390FFE703980121084019A90870BB
:202EA000FFE719A800781AB080BDC046204E00004C04000080B582B00190694600200870E9
:202EC0000198002801D1FFE792E04A4800785D2821D1FFE74848007800281CD0FFE76846F0
:202EE00005F00CF8002812D0FFE7009844490870009842490870404A01201070414B0022D8
:202F00001A700978019A11700199487070E03A4900200870FFE704F02FFB01463548017094
:202F2000007800281BD1FFE734490020087034490870314908703349042008703248008809
:202F40003249884205D8FFE72F490888401C0880FFE70199002008700199487048E025487E
:202F600000785D2811D0FFE724490020087021490978234A117020490870224A07211170B9
:202F8000019908700199487032E0684604F0B6FF002812D0FFE7009819490870009817490A
:202FA0000870154A01201070164B00221A700978019A1170019948701AE0104900200870B2
:202FC0000F4908700C4908700E49052008700E4800880E49884205D8FFE70B490888401C5E
:202FE0000880FFE701990020087001994870FFE702B080BD58352020593520206535202095
:203000006435202056352020063520205FEA000070B58AB00C4605460F980E9909AE3570A2
:2030200008AD2C800792069305AA117004A90391087001F0EBFD334900200290087032491A
:20304000087002F065FE09983049087008983049088006982F49086007982F49086004F07F
:2030600097FB0299024603982C4B1A60069A2C4B1A60069A2B4B1A60059A2B4B1A70049AF1
:203080002A4B1A702A4A11802A4A11802A4A11802A4A11802A4A11702A4A11702A4A11802E
:2030A0002A4A11600078002808D0FFE72849002008802849088028490870FFE7274804F089
:2030C00087F802F0F3FB04F083F82548019004F07FF8002108A8405E01F01CFF019804F0B1
:2030E00077F8079801F016FF1E4804F071F805A80078002803D0FFE704F052FFFFE70AB00E
:2031000070BDC0466E3520206D3520206335202036352020CC342020C8342020A4342020A0
:20312000AC342020983420206F352020033520201835202020352020223520201E352020BB
:2031400062352020613520201A352020C0342020303520200A352020573520201986000070
:20316000438900002689000080B584B0024603A8027002910078002828D1FFE744480078F0
:20318000002822D1FFE74348007800281DD1FFE741480078002818D1FFE745480078022808
:2031A00013D3FFE7424901910878401E08703D49002008703F4804F00BF80198007801F032
:2031C000A9FE3D4804F004F8FFE75EE003A80078012828D1FFE72E480078002822D1FFE795
:2031E0002C48007800281DD1FFE72B480078002818D1FFE72E480078092813D8FFE72C49A0
:2032000000910878401C0870264900200870294803F0DEFF0098007801F07CFE264803F0A5
:20322000D7FFFFE731E01A48007800280AD1FFE718480078002805D1FFE717480078002843
:2032400003D0FFE703F086F81FE01448007800280DD0FFE71149002008700E4901200870A4
:2032600002980F490860114803F0B2FF0CE00A490120087002980A4908600A4900200870DF
:20328000094803F0A5FFFFE7FFE704B080BDC046633520206D3520206A3520206E35202007
:2032A000D83420206935202053830000BB83000067352020848500002689000080B58EB0C9
:2032C00021200421039104F0DDFA0120029001034A480A9004F0C2FB2220052104F0D2FA6D
:2032E00002990A98490304F0B9FB02980399002207920192C30409930093430408930F2012
:20330000049003F087F90399079A089B0998019200900E20059003F07DF9049804F096FAB6
:20332000059804F093FA1F200221069104F0AAFA0699202004F0ECF9352004F0B3FB3620D9
:2033400004F0B0FB192004F0ADFB182004F0AAFB312004F0A7FB0799089A099B0091322078
:2033600003F048FA0799089A099B0091122003F041FA0799089A099B0091162003F03AFA6D
:203380000799089A099B0091232003F033FA0799089A099B0091242003F02CFA0799089A3D
:2033A000099B00911C2003F025FA0799089A099B00911D2003F01EFA102004F073FB112008
:2033C00004F070FB0A9803210C9109060B9104F0CCFC0A980B9904F041FB0C980102084857
:2033E0000D9004F0C2FC0D98064904F07FFB0D98054904F033FB0EB080BDC04600000A40BC
:2034000000200A40300040003003400080B588B0069005A801800698002805D0FFE705A800
:203420000088012804D8FFE707A9002008707BE0FFE73F4800883F490988884270D0FFE778
:203440003B48009002883C49895C04AA019211700088802103F08AFE009A014601981180F4
:2034600000780D2805D0FFE704A800780A2840D1FFE732480078002801D0FFE7D9E72F498E
:20348000012008702E480088002831D0FFE72C48018802A80180008805A90988884205DBED
:2034A000FFE70598401E02A90880FFE703A900200880FFE703A8008802A9098888420CDAB9
:2034C000FFE703A802881F48805C06998854FFE70398401C03A90880ECE7069902A802885C
:2034E000002088541649088007A9012008701BE015E0124900200870114800883E2809D895
:20350000FFE704980E490B880E4AD0540888401C088003E00A4900200880FFE7FFE788E736
:2035200007A900200870FFE707A8007808B080BD3435202032352020E032202060352020CA
:203540001C3520200034202080B58EB00CAB18700B910AA802700B9800280AD0FFE70AA8B7
:203560000078002805D0FFE703F0B6F9002804D1FFE70DA90020087079E004F019F93E4838
:2035800005900CA90122069202F0B4FE05983B4904F0B8FA0598069B002202920192022111
:2035A00007910091232102F001FA079802F0B6F8002804D1FFE70DA90020087057E00AA858
:2035C0000378002004900290042001900220009029482321012202F0E9F9049809A9087051
:2035E000FFE709A800780AA90978884230DAFFE723480890FFE7204804F060F900281AD01E
:20360000FFE71D4804F0BCFB8007002806D5FFE704F0CEF80DA90020087028E00898411E35
:203620000891002806D1FFE704F0C2F80DA9002008701CE0DFE7104804F0C0FB0B9909AAF0
:2036400012788854FFE70998401C09A90870C8E7012002F063F8002804D1FFE70DA9002021
:20366000087004E003F038F90DA90870FFE70DA800780EB080BDC04600200F408304000092
:203680008813000080B59EB03F48069002200790582008903D4A1068099050680A903C48B8
:2036A00001680B9141680C9191680D9181680E910C21525E0F92405E10903648006811905D
:2036C00000213548405E12903448006813903448006814903348405E15903348405E169080
:2036E0003248405E17903248405E18903148405E19903148405E1A9006A802F0CBFD1B90B7
:20370000EFF310801D901D98049072B62B48029003F0AAFC02987F218902039101225202AB
:2037200001F068F802980399402204F08BF9014605A80170007803280DD1FFE701204002F9
:2037400000907F2081021D4806AA162302F06EF805A90870FFE70498002802D1FFE762B670
:20376000FFE705A80078032804D0FFE71CA90020087004E0FEF756FC1CA90870FFE71CA8EA
:2037800000781EB080BDC046314449504034202054342020F434202024352020C4342020DD
:2037A000BC342020383520203E35202044352020423520203C3520203A35202000D00C408D
:2037C00010B58EB00C900BA801800AA90A800021405E002806DCFFE70C99002008610DA946
:2037E000088079E0002201920BA80390805E0AA9895E401A09900C980069099A0A21514313
:203800004018089008983749374A03F095FC08900C980168099848437D21C900029102F0D6
:20382000A3FE07900C984168089848432F4902F09BFE019B02990246039806920C9A0C244D
:20384000145F04949268C05E504302F08DFE014604984018079940180699401805900598D9
:20386000FF21F631884204DBFFE7099800280CDCFFE70598002804D5FFE70998002804D4B6
:20388000FFE708980C9908611DE00C98416800694843164902F068FE06900C980C21415E99
:2038A0000091816800220BA8805E48437D21C90002F05AFE014600984018079940180699D1
:2038C00040180590FFE705987D218A00002102F069FF0DA90880FFE700210DA8405E0EB07F
:2038E00010BDC046E05EF8FF20A1070040420F00B0B58EB004F0F8FA05903B4800680D90C1
:203900003A4800680C90059804F0E4FA0D98384A1168401A0B900C9836490B68C01A0A9013
:203920000D9810600C9808600B98C117324A02920023049303F0C8FE049B079106900698FD
:2039400007992E4A039204F0BBFA029A049B09900A98C11703F0B8FE039A049B07910690B0
:203960000698079904F0ACFA089009982449884203DBFFE723480990FFE70898204988427E
:2039800003DBFFE71F480890FFE700201E4B0093195E099D032214466C430919CC17A40F5F
:2039A00009198908198019490191085E089B5A438018C217920F80188008088004F094FAE5
:2039C00000990246019805920988114A118000881049088010490868401C0860059804F0D2
:2039E00079FA0EB0B0BDC046B4342020E0342020B8342020E4342020A0D90800102700006B
:203A0000C5090000C4090000123520202A352020143520202C352020E834202080B58AB0F0
:203A2000024608A8027007910021069105AA117004AA117003AA117002AA1170079A1170F0
:203A40000078002805D0FFE704F008FB002804D1FFE709A9002008806BE001A9002008704A
:203A6000FFE701A8007807283BD8FFE708A8007801A9097803F0CAFF00282CD0FFE701A855
:203A800001784A002D498A5E0699891806910599491C05AA11700078022804D8FFE704A9EA
:203AA00001200870FFE701A80078052804D3FFE703A901200870FFE701A80078032805D030
:203AC000FFE701A80078042804D1FFE702A901200870FFE7FFE7FFE70198401C01A90870EB
:203AE000BFE705A80078002814D0FFE705A8007804280FD8FFE702A8007800280ED1FFE7DC
:203B000004A80078002809D0FFE703A80078002804D0FFE709A9002008800AE00799012090
:203B20000870069805A9097802F01EFD09A90880FFE7002109A8405E0AB080BD36850000F1
:203B400080B588B00790354803F042FB079801F0E1F93348049003F03BFB01F0A7FE03F089
:203B600037FB049803F034FB002103912D48405E01F0D0F9049803F02BFB03992A48405E72
:203B800001F0C8F9049803F023FB03F0B9FC01F0C1F9049803F01CFB03F0C6FC01F0BAF974
:203BA000049803F015FB03992048405E01F0B2F9049803F00DFB03991D48405E01F0AAF95E
:203BC000049803F005FB1B4801781B481B4A05920029069001D105980690069803F0F8FAD4
:203BE000174803F0F5FA1748007801F093F9164803F0EEFA04F05AF901461448144A01921C
:203C00000029029001D101980290029803F0E0FA104803F0DDFA08B080BDC0467C87000065
:203C200043890000163520202E3520200E352020263520206E3520200B88000070880000FE
:203C40004685000067352020F68700008E880000DD8800002689000080B586B00590384896
:203C6000007800280AD0FFE705983649884201D8FFE762E0324900200870FFE73248007812
:203C8000002812D1FFE7384901200322FFF75CFC002803D1FFE702F06BFE4EE02A4901201F
:203CA00008702D490020087047E0262002A90C22FFF74AFC002803D1FFE702F059FE3CE0B5
:203CC00002A8083003F012FD01900199084604F037F800280ED1FFE701981C4902F082FA0B
:203CE000002807D1FFE70198194902F099FA002803D0FFE702F03CFE1FE0019801F052FD79
:203D00001449088014490020087014490120087013480068002805D1FFE70E4800881149F4
:203D20000880FFE70E480068401C002805D0FFE70B490868401C0860FFE706B080BDC046B1
:203D40007735202087130000763520200000D0C00000D0404E3520205335202066352020EC
:203D6000D4342020503520200035202082B00090009880684049884240DCFFE70098C0686A
:203D80003D4988423ADCFFE7009800693A49884234DCFFE700984069374988422EDCFFE718
:203DA000009880697D21C900884227DCFFE70098C0697D21C900884220DCFFE70098006A92
:203DC000E1214900884219DCFFE70098406AE1214900884212DCFFE70098806A274988420C
:203DE0000CDCFFE70098C06A4F21C943884205DBFFE70098C06A512804DBFFE701A900205D
:203E0000087034E000988068002828D4FFE70098C068002823D4FFE70098006900281ED4AC
:203E2000FFE700984069002819D4FFE700988069002814D4FFE70098C06900280FD4FFE737
:203E40000098006A00280AD4FFE70098406A002805D4FFE70098806A002804D5FFE701A938
:203E60000020087003E001A901200870FFE701A8007802B07047C046B80B000088130000B0
:203E8000F0B5394A8218394BC0183A4D4C790B79002C22D0466F202B02D00524E70100E053
:203EA000354F2E40002B00D188273E434667846F2C403C438467446B2D4E34404463846B3A
:203EC0003440846300244465846554688F26F643344054609468344094600C688979202BDA
:203EE00009D006467036002B15D1641E4460C46E2C40882715E0641E4460C46E2C401E4E4E
:203F00003443C466046F2C40344304671B4D01246707064607E00527FF0164084460C46EA3
:203F20002C403C43C46634682C403C433460C46A0F4D2C40C462046B2C4004630024C464A7
:203F40000465C46F8F25ED432C40C46714682C401460194302680A4B1340BD220A40D1186E
:203F6000891C0160F0BDC04684180000041800008888FDFF24493E0001040000FFFFFFCF48
:203F80004000FFCF80B588B006AB187005A801700492394803900498002804D1FFE707A976
:203FA0000020087064E002F0BDFC002807D1FFE733490620087007A90020087058E003F007
:203FC00007FC2E48029005A90122019202F092F9019B029806A90978002202F043FB01F04C
:203FE000F3FF002805D0FFE702F09CFC002804D1FFE707A9002008703AE006A801781F488F
:2040000001231A4602F02EFBFFE71C4803F064FC00281BD0FFE7194803F0BCFE80070028AE
:2040200006D5FFE703F0D4FB07A9002008701FE00398002806D1FFE703F0CAFB07A90020AE
:20404000087015E00398401E0390DEE70B4803F0BFFE0499087001F0B7FF002804D1FFE700
:2040600007A90020087003E007A901200870FFE707A8007808B080BD8813000000200F40C0
:204080005635202080B584B00390314803F0A0F8039830490968401A00F03CFF2E48019044
:2040A00003F096F8002102912C48405E00F032FF019803F08DF802992948405E00F02AFFC4
:2040C000019803F085F803F01BFA00F023FF019803F07EF803F028FA00F01CFF019803F00F
:2040E00077F802991F48405E00F014FF019803F06FF81D48007800F00DFF019803F068F8F6
:204100001A48007800F006FF019803F061F802991748405E00F0FEFE019803F059F815482D
:20412000007800F0F7FE019803F052F81248007800F0F0FE019803F04BF802990F48405E3D
:2041400000F0E8FE0E4803F043F804B080BDC046E9880000CC342020438900001635202006
:204160002E35202018352020613520206235202048352020693520206B352020463520202C
:2041800026890000B0B53A4A80184A6842600A78222A56D8930001A4E3589F4639420000CC
:2041A0004342000039420000434200004342000043420000434200004342000043420000E1
:2041C0004342000043420000434200004342000043420000434200004342000029420000D1
:2041E0004342000029420000434200004342000043420000434200004342000043420000B1
:20420000434200004342000043420000434200004342000043420000434200002942000090
:204220004342000029420000036803242407A343012464071B1903E0036803242407A343A1
:2042400003600B69C360CB68C46A0A4D25400A4C1C402B19C3620368084C1C400460097A2A
:20426000114302683F239A43194051180160B0BD041800008888FDFF777702007F00FFFF1C
:2042800080B58CB00AA9087009A90020087008A9087037480790FFE7364803F085FD4006DA
:2042A00000280BD5FFE70798411E0791002804D1FFE70BA90020087056E0EDE72D48049038
:2042C00003F0A4FD049802F08DFD049802F068FF0498294903F022FC049809A90122039218
:2042E00002F008F8039B04980AA90978002202F0E1F91F480790FFE70798411E07910028CE
:2043000024D0FFE71B48029003F04EFD014602980691194903F04AFC059006A8007840077B
:20432000002804D5FFE708A901200870FFE705A800880921C901084206D1FFE705A8007811
:204340008007002801D5FFE700E0D5E70948019003F05CFD019802F045FD019802F020FFB1
:2043600008980BA90870FFE70BA800780CB080BD204E000000200F408204000080B588B097
:204380000790079837490968884201D1FFE766E0079834490A68801A0590079808600598CD
:2043A0001A2803D3FFE719200590FFE706A900200870FFE706A80078022850D8FFE706A812
:2043C000017806224A43284989180491007801F053FD014603A8017000780499097888428C
:2043E00014D1FFE70498808805994018029002981E49884203D3FFE71D48019002E00298CD
:204400000190FFE701980499888006E0039804990870049900208880FFE7049880881928C1
:2044200004D3FFE7039804994870FFE70498807800280BD1FFE704984078002806D0FFE733
:2044400006A800780799FEF78FFEFFE7049948788870FFE70698401C06A90870AAE708B089
:2044600080BDC046903420206834202061EA000060EA000080B586B005902D48007800286F
:2044800006D0FFE72B480088C0084B2801D3FFE74CE028480190008814214143264840183C
:2044A000049003F02DF803A9088003F03DF802A90880059821490968401A0021204A02F072
:2044C0003BFE049908801F490888049A50801E480288049B9A80039A049BDA80029A049B9E
:2044E0001A811A4A1288049B5A81194A1288049B9A810988039A891A049AD181008802990E
:20450000401A0499088203F023F9009003F030F901460098401A0F490F4A02F043F90199AD
:20452000049A50820888401C0880FFE706B080BD033520203035202000002020CC34202021
:20454000FFFF0000163520202E3520200E352020263520200080FFFFFF7F000080B584B0AC
:204560000390A02001F0FAFC002801D1FFE759E02D4802F02DFE0398C06900F0CBFC2B4868
:20458000009002F025FE039841782948294A01924C29029001D001980290029802F018FE06
:2045A0000398808A00F0B6FC009802F011FE0398006B00F0AFFC009802F00AFE0398242108
:2045C000405E00F0A7FC009802F002FE0398C08A00F0A0FC009802F0FBFD0398806B00F0B7
:2045E00099FC009802F0F4FD0398006C00F092FC009802F0EDFD0398006A00F08BFC00989E
:2046000002F0E6FD0398008B00F084FC009802F0DFFD03984821405C00F07CFC064802F081
:20462000D7FDFFE704B080BD11890000438900002F890000388900002689000080B586B0D6
:2046400005AB187004A80180039228480078012803D0FFE700F0DAFAFFE7254900200870E6
:2046600024490870214A01211170234908802349088005A800784C2804D1FFE704981E4908
:20468000088010E005A80078522804D1FFE704981A49088006E0049817490880049817495B
:2046A0000880FFE7FFE703981549086003981549086000221048805E1049895E00F0D2FD8D
:2046C000114802F085FD03F0F1FB01460F48104A01920029029001D101980290029802F05F
:2046E00077FD0C4802F074FD06B080BD633520206E3520206D3520200E35202026352020E1
:20470000CC3420209C342020CD8500008E880000DD8800002689000089B007900691002046
:2047200005900121049103A90870079800782D2807D1FFE70020C04304900798401C079096
:2047400009E0079800782B2804D1FFE70798401C0790FFE7FFE7FFE7079801780020302976
:2047600002900DDBFFE7079801780120002200923A29019001DB0098019001980290FFE7E2
:204780000298C007002818D0FFE703A90120087005981749884204DBFFE708A900200870A8
:2047A00022E005980A214143079800784018303805900798401C0790CEE703A800780028AD
:2047C00005D0FFE707980078002804D0FFE708A90020087008E00599049848430699086028
:2047E00008A901200870FFE708A8007809B0704701C2EB0BF0B583B002920190304B314D42
:2048000000918C0A28680727384005262E60196889048A0F2860296839402E6018682960B2
:20482000002A214608D028490840511C02F07AFA0146204602F076FA0198204A8018019048
:204840002A683A402E601E4803682A602A683A402E6003682A60012293020298984207D0D1
:20486000530298420CD10098C30B0BD1019803E01F210C4001984030A24001689143016059
:2048800003B0F0BDFF290DD82B683B402E600C4C24682B60A3049B0F019800D12039CC08B8
:2048A000001DE9E71302FF339942E9D2FF23DB43C918CC0801980830DEE7C046D0110000BC
:2048C0001800C44100134040FF0F0000FCB40127FF07794002E0FCB40127FF070C024D0068
:2048E0002D0E03D1002C52D1FCBC70473C43FF2D50D0A408002900D56442020243001B0E60
:2049000004D1002A43D10800FCBC70473A43FF2B41D09208002800D552425E1B04D51700C1
:2049200022003C0076422B00192E06D527003741D2191C27F71B7F42BC40002A27D002D580
:204940005242012700E00027013B5200FCD51500802635400FD01500202635402C43803235
:2049600008D21500402635402C4304D101263602B24300E05B1C5200023308DDFF2B0BD20B
:20498000500ADB051843FF073843FCBC70470020FCBC70470800C70FFF07FF20C0053843C0
:2049A000FCBC704780B588B00790069105A8027004A900200870FFE7079801780020002942
:2049C00003900FD0FFE704A8017805A802780120002301939142029001DB01980290029855
:2049E0000390FFE70398C007002841D0FFE7FFE70798007802F0B6FC002804D0FFE707989B
:204A0000401C0790F4E707980078002801D1FFE72EE00798069A04A90B789B00D0500498FD
:204A2000401C0870FFE70798017800200029009008D0FFE70798007802F094FC4142484168
:204A40000090FFE70098C007002804D0FFE70798401C0790E7E707980078002807D0FFE743
:204A60000799002008700798401C0790FFE7A3E704A8007808B080BD80B582B001902C4877
:204A800002F0A6FB0198008800F044FA294802F09FFB01980221405E00F03CFA26480090B9
:204AA00002F096FB01980421405E00F033FA009802F08EFB01980621405E00F02BFA0098DC
:204AC00002F086FB01980821405E00F023FA009802F07EFB01980A21405E00F01BFA0098F4
:204AE00002F076FB01980C21405E00F013FA009802F06EFB01980E21405E00F00BFA00980C
:204B000002F066FB01981021405E00F003FA009802F05EFB01981221405E00F0FBF907486D
:204B200002F056FB064802F053FB02B080BDC0467A8800001188000043890000668500005D
:204B40002689000080B586B0059000200490642001F004FA002801D1FFE74BE00598808ACD
:204B6000002809D0FFE7059A906AD16A928A002303F0A6F90490FFE71F4802F029FB059815
:204B8000C06900F0C7F91D48019002F021FB059841781B481B4A02924C29039001D0029813
:204BA0000390039802F014FB05980221405E00F0B1F9019802F00CFB049800F0ABF9019873
:204BC00002F006FB0598808A00F0A4F9019802F0FFFA05982421405E00F09CF9019802F09A
:204BE000F7FA05984821405C00F094F9064802F0EFFAFFE706B080BDC1880000438900008E
:204C00002F890000388900002689000080B51A49002008801949088019490880194908806E
:204C20001949087019490860194908801949086019490870194908601949086019490870D4
:204C4000194908701949087019490880194908801949087019490870194908701949087064
:204C600019490880194908701949088003F050F902F0A6F980BDC0460E3520202635202058
:204C8000163520202E35202063352020C83420201A352020C03420206B352020EC342020CF
:204CA000F034202054352020553520207135202048352020403520207535202074352020D2
:204CC000733520207235202046352020703520200C35202080B584B0284802F079FA03F0B3
:204CE000A5F9002804D0FFE7274802F071FA0EE003F090F901462248224A02920029039091
:204D000001D102980390039802F062FAFFE703F07BF900F0FFF81D48019002F059FA03F049
:204D20006DF900F0F7F8019802F052FA03F060F900F0F0F8164802F04BFA03F071F900F051
:204D4000E9F8019802F044FA002002F0A7F900F0E1F8019802F03CFA012002F09FF900F0D2
:204D6000D9F8019802F034FA022002F097F900F0D1F8084802F02CFA04B080BD5788000014
:204D8000D18800009487000074870000438900002F8800002689000080B582B0FFE703F032
:204DA0006FF92849884205D8FFE701F079F903F0FFF8F4E7FFE7244802F00AFA01A908204B
:204DC0000870FFE701A80078772820D8FFE701A80078FFF755FA00280BD0FFE71C4802F032
:204DE000F7F901A8007800F095F81A4802F0F0F9FFE701F055F903F0DBF87D20000203F06B
:204E000045F9FFE70198401C01A90870DAE70F4802F0DEF901A900200870FFE701A800782D
:204E200063280ED8FFE701F03BF903F0C1F87D20000203F02BF9FFE70198401C01A9087097
:204E4000ECE7B8E76F1700000385000093850000AC8600003289000081B000900098C0684C
:204E6000204A1060009800695060009840691E4908600098806948600098C0699060009825
:204E8000006A88600098406A90810098806A88810098C06A154908600098006B1449088072
:204EA0000098406B134908600098806B124908600098C06B114908800098006C104908801B
:204EC0000098406C0F4908800098806C0E4908800098C06C0D4908800098006D0C490880C7
:204EE00001B070474034202054342020F434202024352020C4342020BC34202038352020B8
:204F00003E35202044352020423520203C3520203A35202080B58CB00B9007A900200870BA
:204F20000B9800280AD5FFE72D2001F0B7FE0B98C04306900698401C069002E00B98069007
:204F4000FFE7FFE706980A21049101F0EBFE084604993022104307AA0592137808AAD05414
:204F6000069801F0DFFE059906900798401C0870FFE706990020002903900DD0FFE707A84B
:204F800001780120002201920C29029001D30198029002980390FFE70398C0070028D1D1BD
:204FA000FFE7FFE707A8007800280AD0FFE70798411E07A80170017808A8405C01F06EFED6
:204FC000F0E70CB080BD704780B582B0019001F0CDF801461E4801800021415E0320484300
:204FE000052101F0C1FA4B218900E122920001F0D9FB6946088017480078002804D1FFE79F
:205000000098154908800DE000231349CA5E032050436A46D25E8018801C820F8018800803
:205020000880FFE70D490120087001980C49086001980C4908600C49002008700B490870AE
:205040000B4908700B49088002F062FF02B080BD0C35202069352020083520206B352020AA
:20506000EC342020F03420205435202055352020713520204835202010B586B0089C05ACE6
:20508000207004A801800392029320480078002814D0FFE705A80278029B1C48012101F01C
:2050A000B3FC002804D0FFE7184800F0FBFC04E00298194901F0CEFDFFE725E014480078BD
:2050C000002812D0FFE705A80278029B1148012101F09AFC002808D0FFE70E48019000F05D
:2050E000E1FC0198FFF72EFD0EE005A80078002204A9895E039A029B089C009401F008FAEB
:20510000024800F0CFFCFFE706B010BDB03320205F352020603320207588000010B586B05F
:20512000089C05AC207004A801800392029320480078002814D0FFE705A80278029B1C4839
:20514000022101F061FC002804D0FFE7184800F0A9FC04E00298194901F07CFDFFE725E0D2
:2051600014480078002812D0FFE705A80278029B1148022101F048FC002808D0FFE70E48BA
:20518000019000F08FFC0198FFF7E8F90EE005A80078002204A9895E039A029B089C009458
:2051A00000F048FF024800F07DFCFFE706B010BDB03320205F3520206033202075880000D5
:2051C000F0B58B4200D1824204D90B0002000021002040E0002B00D1002A0CD10B0002006D
:2051E00000210020002B00D1002A01D0C943C04300F037F82FE01C0015000B0002000CB43C
:20520000002126002F00FF19764102D2491C4029F9D100201E001700FF19764102D2401C89
:205220004028F9D10E1A21002800320002F0F0FA0C0005000CBC00200021A34200D1AA4201
:2052400001D3521BA341404149416D08E7073D436408761EF1D5059F002F01D03A607B605C
:20526000F0BD7047B0B58CB002460BA802800AAA0292118000210491405E9B218A000192A6
:205280001D49009101F03EFA0099019A049B0446029809AD2C80C05E01F034FA049908AA49
:2052A00010800998154A10800898154A1080099A07A803900280089A06AB05931A80405EB5
:2052C00000F062FD04990598405E00F099FD03980499405E01F0ABFF0146049801F0A8FE36
:2052E00004990598405E01F0A2FF0146012001F09FFE0CB0B0BDC04694FDFFFF103520200B
:205300002835202080B588B002F0AEFE014607A80290017000787F21084006A903910870D1
:205320001B4801F055FF02F099FE014619481A4A04920029059001D104980590059801F04B
:2053400047FF03980078FFF7E5FD1448019001F03FFF02F077FEFFF7DDFD019801F038FF08
:2053600002F076FEFFF7D6FD019801F031FF02F063FEFFF7CFFD019801F02AFF029800786A
:20538000FFF7C8FD064801F023FF08B080BDC0466C870000D18800009487000043890000C3
:2053A0002689000010B584B003901F480078002817D0FFE703981D490968401A00097D2864
:2053C0000FD3FFE71849002008701C49095E1C4A1268039B0124019400900420FDF718FE4A
:2053E0001FE01348007800281AD0FFE703980F490968401A00097D2812D3FFE70C49002037
:2054000008700C480178039A4B208000FDF756F8002804D1FFE7084801F0DAFEFFE7FFE7B5
:20542000FFE704B010BDC0466D352020D83420206A352020673520202A83000004352020F0
:205440007C34202080B586B0002005900490039002F016F901F046FC00F056FE01F06AFB47
:2054600001F0FCFC01F0ACF8FCF714FF02F0A8FD1520019001F01EFF019801F05DFF1748F8
:2054800002F0F4FB62B6FFF787FCFFE700F008FE02F0F6FD0499401A052806D3FFE702F004
:2054A000EFFD049002F0DAF8FFE702F0E9FD0399401A0A280AD3FFE702F0E2FD039002A8F1
:2054C000FDF7F8FC0398FEF7C7FBFFE702F0D8FDFDF772FB02F06CFDD8E7C046000087409D
:2054E00080B584B00390642000F038FD002801D1FFE72EE0184801F06BFE0398FFF70AFDC7
:20550000164801F065FE0220FFF704FD144801F05FFE02F0CBFC01461248134A01920029A3
:20552000029001D101980290029801F051FE0F4801F04EFE02F0B4FDFFF7ECFC0C4801F0A8
:2055400047FE02F0B5FDFFF7E5FC0A4801F040FEFFE704B080BDC046CC870000438900000E
:20556000F68700008E880000DD880000BB8400000D8600002689000080B584B01E491F487B
:20558000039002F0FDF903981D49FEF779FC03980023019319461A4601F042FC019B0398AE
:2055A000009319461A4602F049FB019A0398114602F0D8F9019A0398114602F0E9FC019B13
:2055C000039801210291009119461A4602F036FB0199029A039802F0C5F90199029A0398B6
:2055E00002F0D6FC039802F02FFC0398032102F035FC04B080BDC046208900000040084025
:205600006487000080B588B01A48019002F056FA1948029002F052FA1848039002F002FBEA
:205620001748049002F0FEFA1648059002F0CAFA1548069002F03EFB1448079002F052FB94
:20564000019802F017FA029802F014FA039802F0DDFA049802F0DAFA059802F08FFA069898
:2056600002F010FB079802F031FB102002F00EFD08B080BD00000A4000200A400040084012
:205680000000874000200F400020104000000840FCB40127FF0706004E4001D4002600E0CF
:2056A0003E00020243001B0E30D03A43FF2B30D00C024D002D0E29D03C43FF2D29D05B19EE
:2056C0004240504042404C4061404C4000B501F03DFC20BCAE464240504042404C4061400D
:2056E0004C4025001400002C01D46400013B803401D3013364087E3B08DDFF2B09D2BC437A
:20570000200ADB0518433043FCBC70470020FCBC7047FF20C0053043FCBC704780B586B082
:2057200004901E480390FFE70398411E039100282AD0FFE704990920C001019001431848A4
:2057400002F028FA0199029002A8008808420DD0FFE702990920C0010140114802F0D2F9EE
:2057600002F026F805A90020087013E002980499084208D0FFE70499094802F0C3F905A957
:205780000120087006E0CFE702F012F805A900200870FFE705A8007806B080BD88130000F9
:2057A00000200F4080B586B0049004981C49FFF76FFF039003981B4900F032FD002804D069
:2057C000FFE705A91848088025E00398C721090600F008FD002805D0FFE70120C00305A94C
:2057E000088018E003980090002100F00FFD01463F200006BF22120601920029029001D11C
:205800000198029000980299FFF765F801F0F4FB05A90880FFE7002105A8405E06B080BD7C
:205820004D3D0F4400FEFF46FF7F0000F0B585B004900120002B32D00D46194601402ED11C
:2058400016460A9801901120000204990F18154C029603930520786001263E6020684007A2
:2058600005D52068400702D520684007F6D404982946019AFEF7BEFF7E600B4878623D620D
:20588000029E3068386370687863049802F020FC039B9B1E03D0083608350128D8D105B0AC
:2058A000F0BDC046D0E30C40FF01000082B017480078401E0090052822D80098810001A05E
:2058C00040588746DD580000E3580000E9580000EF580000F5580000FB58000011480190E1
:2058E00011E00F4801900EE00C4801900BE00A48019008E00748019005E00548019002E0C1
:2059000009480190FFE7019802B0704763352020A28700005C880000C5880000D387000031
:20592000E1870000158900009888000085B003900291FFE70398017800200029019006D03C
:20594000FFE702980078411E88410190FFE70198C007002812D0FFE7039800780299097831
:20596000884204D0FFE704A90020087019E00398401C03900298401C0290DBE7039801787D
:2059800000200029009006D1FFE702980078414248410090FFE700980121084004A90870B6
:2059A000FFE704A8007805B070470000F0B589B01C4615460A46064610980F990E9B0896A3
:2059C000079206AA157005AD2C8004AC237003AB0093197002A90191087008980E4940188A
:2059E00007994900127811430C4A01F011FD009B019A08980A4940180599090424780919A1
:205A00001B7819431278114301221143054A01F0FFFC09B0F0BDC04610120000FF07000073
:205A2000141200000F00FF0F80B586B004A9087003A90520087000F075FF002807D1FFE700
:205A400017490620087005A90020087021E001F0BFFE1248029003A90122019200F04AFCCF
:205A6000019B029804A90978002200F0FBFD00F0ABFA002805D0FFE700F054FF002804D100
:205A8000FFE705A90020087003E005A901200870FFE705A8007806B080BDC04600200F403D
:205AA0005635202080B586B00590402000F056FA002801D1FFE724E0134801F089FB05982A
:205AC000C069FFF727FA114801F082FB059801780F48104A03920129049001D003980490A5
:205AE000049801F075FB059841780B480B4A01924C29029001D001980290029801F068FB27
:205B0000FFE706B080BDC046B58800004389000035890000298900000D890000FD88000012
:205B200080B586B0014604A80170007803A90191FDF774FF0146019802AA118000780028BC
:205B400020D0FFE7002102A8405E01F059FB0B2818DCFFE704A80078002101F057FF002800
:205B600010D1FFE704A80078012101F04FFF002808D1FFE704A80078062101F047FF002848
:205B800004D0FFE705A90020087003E005A901200870FFE705A8007806B080BD80B582B076
:205BA000019017480078002807D0FFE7019815490968401A072801D8FFE71EE001981149F7
:205BC0000860114800881149098888420EDAFFE70D4800900088142141430E484018FEF730
:205BE0004BFF00990888401C088006E0044900200870074801F0ECFAFFE702B080BDC04682
:205C0000573520208C3420200A352020303520200186000000002020F8B5451C0078002324
:205C2000082B32D02F78C2070CD16A780F241440E41C122C0BD102242E57F4B2002E08D404
:205C4000EE1C0EE06D1C4A1C0F7011461AE0AE1C08E02E1DED7800957F252C40009DED01FB
:205C60002C1912343D0112095219094DAA420ED0D243002C05D08D5C4F1C0D70641E3946CD
:205C8000F7E7354640085B1CCAE72846C5E7F8BDFF0F000080B588B0014607A802900170F8
:205CA00000780021049101F0B1FE0146029800910078012101F0AAFE009902460298891855
:205CC00001910078022101F0A1FE019902460298891803910078032101F098FE039902464F
:205CE00004988A1806A90A7009780329059009D3FFE707A80078062101F088FE4142484168
:205D00000590FFE705980121084008B080BD000080B582B002F0E8F801900F490020086062
:205D20000E4908600E4908600E4908600E4908800E4908800E4908600E4908800E490880EB
:205D40000E4908700E4908600E490860019802F0C1F802B080BDC046B0342020DC34202049
:205D6000B4342020E0342020143520202C352020E8342020123520202A352020683520201E
:205D8000B8342020E434202080B588B0014607A801800021405E01280DDBFFE7012005902F
:205DA00001061648069001F095FE05990698490601F0D1FF20E0002107A8405E00280DD5A0
:205DC000FFE70120039001060C48049001F0C3FF03990498490601F07DFE0CE001200190F6
:205DE00001060648029001F0B6FF01990298490601F0B1FFFFE7FFE708B080BD00000A40E7
:205E000080B588B0014607A801800021405E01280DDBFFE70120059041021648069001F00A
:205E200059FE05990698090201F095FF20E0002107A8405E00280DD5FFE7012003904102EA
:205E40000C48049001F087FF03990498090201F041FE0CE00120019041020648029001F0BE
:205E60007AFF01990298090201F075FFFFE7FFE708B080BD00200A4080B586B0014605A87B
:205E80000170007800280BD1FFE70120C1050291144801F033FF01460298049103901AE033
:205EA00005A8007801280BD1FFE70120010201910D4801F023FF014601980491039009E0C3
:205EC00008484021009101F019FF0146009804910390FFE7FFE70498039908404142484118
:205EE00006B080BD00200A4000000A4010B584B0089C079C069C03AC207002A8017001A816
:205F0000028068460380134900200870039A12490A70029A4A70019A4A80009A8A80089A67
:205F20008A60069ACA60089A0A618882C8820883079ACA61069A0A628884C862886248631E
:205F40000863C8638863486408644822885404B010BDC0465F352020B033202085B004A902
:205F600008801648008816490988884208DBFFE71248008812490988401A03A908800AE0EA
:205F80000F4801880D480088401A01218902401803A90880FFE703990A48411A02A8018057
:205FA000018804A802880120002300939142019001DA00980190019805B070474A3520201F
:205FC0004C352020FF03000080B584B017480290FFE7174801F0DEFE019001A80078800759
:205FE000002806D5FFE701F0F3FB03A90020087018E001A80078C007002801D1FFE70DE0E8
:206000000298002806D1FFE701F0E2FB03A90020087007E00298401E0290DAE703A90120F0
:206020000870FFE703A8007804B080BD8813000000200F4070B58EB0044612980DA8049044
:2060400004700CAC059421800B920A93134A002106911170017802200790032208924C29A4
:20606000099001D008980990069C05990998095F0B9A129B01940094FCF7CAFF0499059BC0
:206080000798069A09789B5E0B9C0A9D129E029601950094FFF72AFF0EB070BD52352020B6
:2060A00080B582B0FFE7144801881448028800209142019007D0FFE7114801F0EFFD01212F
:2060C00048400190FFE70198C007002811D0FFE70948009001880B48415C094801F024FEB4
:2060E000009800880121890201F040F800990880D9E702B080BDC0464C3520204A35202054
:2061000000201040E02E202080B586B00120059001071448019001F0C3FB059801061248FE
:20612000039001F0BDFB019805998903029101F07FFB039805990903049101F079FB01988A
:20614000029901F091FB0398049901F08DFB059801F084F8059801F0C3F8FFF7D9FD06B0A1
:2061600080BDC04600000A4000200A4080B584B001F050FA13490968401A039001F05CFA83
:2061800011490968401A02900398002804D5FFE7039840420390FFE70298002804D5FFE7AF
:2061A000029840420290FFE7039802994018C10F40184010019001980021044A00F0F2FAD0
:2061C00004B080BD8034202084342020FF7F000010B500F09DFE002801D0002010BD01200D
:2061E00010BDC04610B500F093FE002801DB002010BD012010BDC04610B500F089FE00283D
:2062000001DD002010BD012010BDC04610B500F043FE002801DA002010BD012010BDC046E5
:2062200010B500F039FE002801DC002010BD012010BD000080B582B0124801F07CFE0B2833
:206240001CD1FFE70F4801F013FE694608700E480088802100F08AFF014601A801800088FA
:206260000A490988884208D0FFE7009806490B88074AD05401980880FFE700E0FFE702B044
:2062800080BDC046002010403235202034352020E032202086B005900598049016200390E4
:2062A0001248029000200190FFE7019815281AD8FFE70198152803D1FFE70020009005E088
:2062C00004980199890040580090FFE700990298484002900299064848430290FFE701981F
:2062E000401C0190E1E7029806B07047C59D1C8193010001F0B581B0002A22D091235B014C
:20630000C3180F200402901E0090561E0020DF6927421BD00F5C1F60864210D0DF692742BC
:2063200011D00F187D781D60009D854207D0DD6925420AD0BD781D60C01C8242E7D11046C1
:2063400004E0002002E0401C00E0801C80B201B0F0BD000080B582B00C490020019008700A
:20636000FEF754FC01980A4908700A4908700A4908700A4908700A4908700A4908700A492A
:2063800008700A4800F024FF02B080BDB03320206F3520205235202003352020573520201F
:2063A0006E3520206D3520206A3520205486000080B584B0012001908103114801F066FB15
:2063C00001460198039101030E4801F05FFB02900398002807D0FFE70399094801F028FA92
:2063E00001F0F8FAFFE70298002807D0FFE70299044801F01DFA01F0FBFAFFE704B080BDA9
:2064000000000A4000200A4080B582B012491348019001F0ECF801980321490201F0D4F880
:20642000019801F087FB019801F0FAFC01981F2101F0D4FB01980021009101F04DF800991D
:20644000019801F035F8019801F08CFB019801F07DFB02B080BDC0466287000000200F4025
:2064600081B069460880FFE700216846405E0F49884206DBFFE700980E49401869460880FA
:20648000F2E7FFE700216846405E0949884207DCFFE70098E1210901401869460880F1E7E0
:2064A00000216846405E01B07047C04609070000F7F8FFFFF0F1FFFF80B584B00390029196
:2064C00001925020FFF74AFD002801D1FFE716E00C4800F07DFE0398FEF71CFD0A4800905C
:2064E00000F076FE029800F073FE009800F070FE0198FEF70FFD054800F06AFEFFE704B06E
:2065000080BDC046E58800004389000026890000B0B58AB00C4601460E9809A803900170BD
:2065200008A904910C8007920693007800220592895E0E9AFEF782F803990498059B084AFE
:206540001370084A13700978C25E0798069C0E9D0295019400900120FFF7C8FC0AB0B0BD98
:206560006F352020523520201CB5002922D04C08002900D5494242105440002800D5404242
:2065800000230A00904201D95200FBE790425B41904200D3801A914201D25208F6E719004B
:2065A000002C00D54042640000D549420200080011001CBD01000020FEF705FD1CBD0000AF
:2065C0000B49002008700B4908600B4908600B4908700B4908800B4908800B4A01211170DB
:2065E0000A4908700A490870487088707047C04666352020D43420208834202053352020B1
:206600004E3520205035202077352020763520200035202010B584B0079C069C0390029142
:20662000019200930299019801430098014306980143079A012003071A401143074A1143DF
:20664000039A9300064A9950079BC00603400398810088581843885004B010BD80000400F2
:206660000480424010B586B00192024601980592049103AA107002A80380059809494018D8
:206680000499490012781143074A00F0D5FE05980649401802990904C91D054A00F0CCFE47
:2066A00006B010BD10120000FF070000141200000700FF0F10B586B00192024601980592EE
:2066C000049103AA107002A803800598094940180499490012781143074A00F0C1FE059823
:2066E0000649401802990904C91D054A00F0B8FE06B010BD10120000FF070000141200009F
:206700000700FF0F84B00B46014602A8018001A90B806B461A800022805E895E884204DA5E
:20672000FFE7019803A908800FE0002202A8805E6946895E884204DDFFE7009803A908801A
:2067400003E0029803A90880FFE7002103A8405E04B0704780B584B0039002A80170402056
:20676000FFF7FCFB002801D1FFE713E00A4800F02FFD0398FEF7CEFB02A801780748084ACE
:2067800000920029019001D100980190019800F01FFDFFE704B080BDED88000041880000F8
:2067A000B087000085B0009101460098039102A9088001A8028003980022895E884204DABF
:2067C000FFE7029804A908800EE00398002201A9895E884204DDFFE7019804A9088003E086
:2067E000039804A90880FFE7002104A8405E05B07047000010B584B0069C039002910192B8
:20680000009302990198014300980143069A012003071A401143084A1143039A9300074AF1
:206820009950069BC00603400398810088581843885004B010BDC046810004000480424084
:2068400080B584B003900291019203980B49401802990B4A00F018FE03980A4940180199F9
:206860003F2200F011FE0399074A881889580122114000F009FE04B080BDC04610110000C7
:20688000FFFF00001411000004110000F8B5044605460C3500260F4F6088864217D22846B2
:2068A00008380168281F03682A68002A03D0184601F0F2FB08E00648874205D0481C0978F9
:2068C00089007A5819469047761C0C35E4E7F8BDF0890000E489000080B582B00F480090A0
:2068E000FFE70F4801F04CFA400600280DD5FFE70098411E0091002806D1FFE700F058FF3A
:2069000001A90020087004E0EBE701A901200870FFE701A8007802B080BDC04688130000A5
:2069200000200F4080B582B00F480090FFE70F4801F030FA400600280ED5FFE7009800284B
