:200000000080202019AA00000DAA00000DAA000000000000000000000000000000000000EF
:200020000000000000000000000000000DAA000000000000000000000DAA00000DAA00009B
:200040000DAA00008D8900000DAA00000DAA00000DAA0000657600000DAA00000DAA000065
:20006000000000000DAA00000DAA000000000000000000000DAA0000998600000DAA000085
:200080000DAA00000DAA00000DAA00000DAA00000DAA0000719E00000000000000000000BE
:2000A0000DAA00000DAA000000000000000000000DAA0000000000000DAA00000DAA0000AD
:2000C000B0B5F4B0739009F049FF7290FA480078022816D0FFE7F8480078032811D0FFE777
:2000E000FC48007804280CD0FFE7FA480078052807D0FFE7F7480078062802D0FFE700F025
:200100007EFF7298F4490968884202D1FFE700F076FF7298F049086009F0C2FD71A90880BD
:2001200009F0D2FD70A90880739801F0F3FE002802D0FFE700F063FFE6480078022809D18D
:20014000FFE7E6480088E6490880E6490020088000F02BFFDF480078032809D1FFE7E049A8
:2001600000200880DD480088DE49088000F01CFFD8480078052806D0FFE7D648007806282B
:2001800001D000F089FED54800886FA908807398D5490968401A6A90D44869904B20C000A4
:2001A00068A90880D2480178002001293C900DD1FFE7CA4800213A91415E0120C9293B90BE
:2001C00001DB3A983B903B983C90FFE73C980121084067A90870C6480178002001293990C1
:2001E0000DD1FFE7BB48017800200629399006D1FFE7C0480078414248413990FFE73998DE
:200200000121084066A90870B94801780020012938900ED1FFE7AF48017800200629389015
:2002200007D1FFE7B3480078801F414248413890FFE738980121084065A90870AC48017807
:200240000020012937900ED1FFE7A248017800200629379007D1FFE7A6480078001F414289
:2002600048413790FFE737990120014064AA117066A90978002936900DD1FFE765A80178BE
:2002800001200029369006D1FFE764A80078411E88413690FFE736980121084063A908707D
:2002A00062A95020088061A9088060A9142008808848007806280BD1FFE78E480078042832
:2002C00006D1FFE762A9A020088061A9088026E080480078062821D1FFE7864800780628BC
:2002E0001CD1FFE762A92D20088061A94120088060A90520088073987F490968401A0009FB
:2003000019280AD3FFE762A93C20088061A94B20088060A908200880FFE7FFE7FFE767A873
:20032000007800280ED0FFE76A480078062809D1FFE772480078002804D1FFE74B20C00001
:200340006990FFE76A48007801280ED1FFE761480078062809D1FFE766480078062804D16E
:20036000FFE768A9B420088014E06148007801280FD1FFE75748007806280AD1FFE75D487B
:200380000078002805D1FFE74B20C00068A90880FFE7FFE74F480078062819D1FFE75548C7
:2003A0000078042814D1FFE7554800886FA908804F48007801280AD1FFE700216FA8405E3A
:2003C000C92804DBFFE76FA9C8200880FFE729E040480078062813D1FFE7464800780628C4
:2003E0000ED1FFE7464801886FA801800021405E652804DBFFE76FA964200880FFE710E07E
:200400006A98699988420BD2FFE700213348415E6A984843699909F03DF86FA90880FFE7CD
:20042000FFE7FFE70AF0D0FA01467F2001403548017000786BA905F09BF9334908806B98FB
:200440003249087066A8007800282BD0FFE76BA80078002826D0FFE7002134912A48405E95
:2004600009F070FA349902465FA835900280405E800050305021A02208F084FC3499024658
:20048000359862AB1A80629A61AB1A80405EC10F4018401014301421282208F073FC60A9FD
:2004A0000880FFE70B480078062800D06DE111480078002802D0D1E0DD3A20205EA90820B5
:2004C000087008F087F81249088009480078012824D11FE0DD3A2020F0392020A23A202088
:2004E000783A20209A3A20201C3A2020DC050000573A2020E73A2020CC392020E53A2020A9
:20050000A83A2020DB3A20207C3A2020DC3A2020603A20205EA904200870FFE7FE480078F7
:20052000012833D1FFE70AF007FA00282ED0FFE709F06EFE01465DA801805CAA3392F74964
:20054000118000213291405E09F0FCF9329A3399895E88420BDBFFE7F1480078FF2805D0D8
:20056000FFE7EF490878401C0870FFE703E0EC4900200870FFE7EA480078032805D3FFE7FA
:20058000E84809F003F800F03AFD03E0E44900200870FFE70022E448805EE449895E884278
:2005A00006DAFFE7E24900200870E249087054E0DF4800785EA90978884211DAFFE7DE48F3
:2005C000007807F03BFC002805D0FFE7D8490878401C087003E0D64900200870FFE73BE082
:2005E000D548007807F021FD5BA908705AA902200870C948007801280AD1FFE7CE48007837
:2006000004F054FE5BA908705AA902200870FFE75BA8007800280BD0FFE7C6480078FF2884
:2006200005D0FFE7C3490878401C0870FFE703E0C04900200870FFE7BE4800785AA909784D
:20064000884208DBFFE7739804F082F9739801F061FC00F0D4FCFFE7FFE795E0B7480078BC
:20066000042800D08FE07398B5490968401A5990599878281ED3FFE7A7480078012807D182
:20068000FFE7AD48007806F09FFF002807D111E0A948007807F0D2FB00280BD0FFE7A9487B
:2006A0000078FF2805D0FFE7A6490878401C0870FFE703E0A34900200870FFE7A148007809
:2006C0002F90954801780320309002200129319001D0309831902F983199884247D3FFE760
:2006E0008D480078012835D1FFE797490120087096482C90008896490880964809F00AF9BC
:2007000095480078401C06F081FC94482D9009F001F900212E919248405E06F077FC2D98A3
:2007200009F0F8F82C982E99405E06F06FFC2D9809F0F0F88048007806F068FC2D9809F048
:20074000E9F82E998748405E06F060FC864809F0E1F8FFE7739802F093FD002802D0FFE73F
:2007600000F04DFC814800886FA908800AE059984009192805D3FFE77D4808F007FF00F079
:200780003EFCFFE7FFE7FFE7FFE76BA80078002800D1CAE257A9A020088054A90820088062
:2007A00074480068539074480068529000212A916FA8415EFF225432012091422B9001DC67
:2007C0002A982B902B9851A908706C480078002805D0FFE76A48008800280AD0FFE7002115
:2007E0006048405EC000674908606449012008700EE064490A68032050430023594AD25EDC
:20080000D2008018C217920F801880100860FFE75C48006800280AD4FFE75A480068001D5F
:20082000C117490F4018C00855A9088009E055480068001FC117490F4018C00855A90880FF
:20084000FFE70021279155A8405E09F07BF8279A58A9088055984C490988401A6CA928914D
:2008600008804A482990805E4000895E4018032108F094F928990246299802800088088043
:2008800066A80078002800D1C0E000216FA8405E012800DABAE00021259158A8425E0C2023
:2008A000504324906CA82690405E09F04BF82499259A03462698DB00C918509155A9895E48
:2008C000805E4843012804DBFFE7509850305090FFE75098FF21C431884204DBFFE7E12006
:2008E00040005090FFE750987D21C900081A4F90002223926FA8825E4F98504308F04EF91B
:2009000023994EAA10804DAA822010801748405EB52843DB3CE0C046573A2020FF7F000001
:20092000CA3A202051AF0000603A20205C3A2020C33A2020C43A2020DB3A2020E73A202092
:200940003C3A2020EE3A2020ED3A2020B23A2020683A202000B10000E53A20200FB5000030
:20096000B43A20207C3A2020F0B40000A23A2020EEAF0000143A20200C3A2020DA3A20208E
:20098000843A2020083A2020863A20207E3A2020FB48008846384DA90880FFE700224EA81A
:2009A000805E4DA9895E884204DAFFE74D984EA90880FFE700226FA8805E4EA9895E8842E5
:2009C00004DDFFE74E986FA90880FFE70021ED48405E002804DCFFE76F98EA49088014E04C
:2009E00000226FA82190805EE64922918A5E11460A39521D09B212B208F0C4F92199024626
:200A00002298028000880880FFE7FFE700211F916FA8415EFF22543201209142209001DC0F
:200A20001F9820901F99209851AA107058A8405E042808DCFFE75399092048430A2108F00D
:200A4000ADF853901AE0002158A8415E282048437D21C90040184C904C98CB49884204DB45
:200A6000FFE7E120C0004C90FFE753994C9848437D21C90008F092F85390FFE7C34800688D
:200A80005290002158A8405E0A2809DBFFE7529905204843C117890F4018801052900FE0F5
:200AA000002158A8405E022809DCFFE7529903204843C117890F401880105290FFE7FFE7E3
:200AC00051A8007800282ED0FFE7002158A8405E042812DCFFE757A92D200880002158A8E4
:200AE000415E05201D900A2003291E9001DB1D981E901E9854A9088014E0002158A8405E54
:200B00000A2807DBFFE757A97D20088054A91220088006E057A95A20088054A9082008806A
:200B2000FFE7FFE723E0002158A8405E042812DCFFE757A92D200880002158A8415E05206D
:200B40001B900A2003291C9001DB1B981C901C9854A908800AE0002158A8405E0A2804DBBA
:200B6000FFE754A912200880FFE7FFE7FFE763A80078002819D0FFE7002257A8805E62A9A2
:200B8000895E884204DDFFE7629857A90880FFE7002254A8805E60A9895E884204DDFFE7F8
:200BA000609854A90880FFE7FFE75399002255A8805E4843529B6CA9895E594340181A90F1
:200BC00071A8805E70A9895E411AE120400048437D21C900199107F0E1FF199902461A9863
:200BE000801A07F0DBFF4B904B98002803D4FFE74B98189003E04B9840421890FFE71898D6
:200C00004A9066A80078002853D0FFE700216FA8405E01284DDBFFE7002115916FA81790B1
:200C2000415E0C2048436421169107F0B7FF159A1699034617984993805E400107F0AEFF90
:200C400048904998132803DCFFE714204990FFE748984999884204DCFFE74998401C489081
:200C6000FFE74A984999884222DDFFE74A984999401A4790499914914898431A479A10462B
:200C80005843891807F08AFF01461498401846904B98002804D5FFE746984042139002E0C8
:200CA00046981390FFE713984B9046984A90FFE7FFE7002157A8405E012813DBFFE74A9826
:200CC000002257A9895E88420CDDFFE74B9A002157A8415E084650434A9A891807F05EFF14
:200CE0004B90FFE74B980022129257A98A5E514209B208F047F8129B014656A80180C05E8C
:200D0000D2491191CA5E54A9CB5ED11AD21809B212B208F037F8119A014612981180559932
:200D2000C94A1180C249088040E0C1480088C149884205D8FFE7BE4908880A300880FFE7F5
:200D4000BB48008868A90988884213DBFFE7AD480078062804D1FFE7BA4808F017FC08E07D
:200D600004F0C2F8B54900200870B54808F0D2FDFFE744E1AE480088642816D308E0C0467F
:200D8000A23A20207A3A2020090700000C3A2020A948002101806FA8405E652804DBFFE713
:200DA0006FA964200880FFE7FFE7FFE7A74800886DA908800021A648405E002816D0FFE7A7
:200DC000A44800687399401A01280FDBFFE700226DA81090805E9E49895E40189F21C943B9
:200DE000A02207F0CFFF1099088005E098490020088098490860FFE763A8007800280DD016
:200E0000FFE700226DA80F90805E61A98A5E514209B207F0B7FF0F990880FFE76F981438E2
:200E20006EA9088066A80078002804D0FFE761986EA90880FFE700216EA8405E002804D557
:200E4000FFE76EA900200880FFE700220C926DA80B90805E6EA98A5E514209B207F092FFE4
:200E60000B9A0C9910806FA80E90405E525E80184B22D2000D9207F085FF0B9B0C990D9AB2
:200E800004460E98684D2C80405E5B5EC01A07F079FF6649088086E05B48008845A9088023
:200EA00009F03CF8099009F049F801460998401A449009F033F80A9009F040F801460A9844
:200EC0004018C10F401840104390439900224F48805E48434E4907F061FE429044984299FB
:200EE000401A419073984B490968401A3D903D98494988420BD8FFE700214348415E3D9876
:200F00004843464908F0C6FA45A90880FFE7002145A8405EC20F801842083FA80280405E3D
:200F20003D2804DBFFE73FA93C200880FFE73C4800683E903D983849884208D8FFE73E985F
:200F400040000021374A08F051FC3E90FFE73E99419848437D21C90007F020FE0022069245
:200F60003FA98A5E514209B207F00CFF069940AA0592108045A80890405E525E801A4B22C7
:200F8000D200079207F0FEFE059B0699079A04460898254D2C80405E5B5EC01807F0F2FEF5
:200FA00022490880FFE7FFE7FFE708F079FE71A90191088008F088FE0146019870AA0292DD
:200FC0001180002203921849895E825E224804F0A1FA039A01460298204B04931980134933
:200FE000895E825E1E4804F095FA039A034604981C490B80805E895E06F058F9FFE774B0B9
:20100000B0BDC046DD3A2020A23A2020903A2020102700001C3A2020DB050000DC05000052
:20102000443A202088130000783A20209A3A2020843A20205FEA00007E3A2020EB3A2020AD
:201040007BAF00002AB20000863A2020883A2020803A2020103A202080392020703A202021
:2010600094392020923A202010B59CB01B901A911B9808F09CFD1B9815A9052205F07AFDA8
:20108000014614A801700078002802D1FFE700F00AFF14A8007801280CD1FFE71598FC4978
:2010A00006F094FD002805D0FFE7FA4808F032FC00F0F9FE14A8007802281CD1FFE7159899
:2010C000FC4906F083FD002815D0FFE7169813A905F034FB00280ED0FFE7139800280AD437
:2010E000FFE71398F449884205DCFFE7139806F005FB00F0D7FE14A8007801280BD1FFE70C
:201100001598EE4906F062FD002804D0FFE708F023FD00F0C6FE14A80078012821D1FFE7B3
:201120001598E74906F052FD00281AD0FFE7E54900200D90087003F0D7FE0D98E249087022
:20114000E2490870E2490870E2490870E2490870E2490870E2490870E24808F0DBFB00F0D5
:201160009FFE14A8007801280CD1FFE71598DE4906F02CFD002805D0FFE71A9804F08AFBB1
:2011800000F08DFE14A8007801280BD1FFE71598D64906F01BFD002804D0FFE706F026F9E4
:2011A00000F07CFE14A8007801280BD1FFE71598CF4906F00BFD002804D0FFE705F0A8FD67
:2011C00000F06BFE14A8007801280BD1FFE71598C84906F0FBFC002804D0FFE705F060FCB9
:2011E00000F05AFE14A80078022815D1FFE71598C04906F0EBFC00280ED0FFE71698BE4949
:2012000006F0E4FC002807D0FFE708F003F9BB4808F080FB00F03FFE14A8007802281CD131
:20122000FFE71598B64906F0D1FC002815D0FFE7B4480078002810D1FFE71698B24906F064
:20124000C5FC002809D0FFE708F0FAF9002007F0B3FA02F045FF00F01DFE14A80078022898
:201260001CD1FFE71598A64906F0B0FC002815D0FFE7A4480078002810D1FFE71698A3497D
:2012800006F0A4FC002809D0FFE708F0D9F9012007F092FA02F024FF00F0FBFD14A8007832
:2012A00001280BD1FFE71598994906F08FFC002804D0FFE702F014FF00F0EAFD14A8007841
:2012C000022842D1FFE71598924906F07FFC00283BD0FFE7169813A905F030FA002834D024
:2012E000FFE71398002830D4FFE71398724988422BDCFFE783480078002826D1FFE713983B
:2013000010908548007800280CD0FFE7834800681099884206D1FFE710988149097807F0B1
:2013200009FD10E008F08CF904F0C8FF7C49087010987A4A1060784A0120107010980978DA
:2013400007F0F8FCFFE700F0A2FD14A8007801281DD1FFE715986F4906F038FC002816D05F
:20136000FFE768480078002811D1FFE708F068F904F0A4FF002804D0FFE76A4808F0CAFA2F
:2013800003E0694808F0C6FAFFE700F07FFD14A8007801281DD1FFE71598644906F016FC1C
:2013A000002816D0FFE757480078002811D1FFE702F014F9002806D0FFE75D4808F0AAFA0E
:2013C00002F08EFE03E05B4808F0A4FAFFE700F05CFD14A80078012811D1FFE715985649D3
:2013E00006F0F4FB00280AD0FFE746480078002805D1FFE71A9807F0F7FD00F045FD14A8AB
:20140000007802281ED1FFE715984C4906F0DEFB002817D0FFE71698494906F0D7FB00281F
:2014200010D0FFE72849012008702849002008701A9844490860444808F06CFA09F042FA0D
:2014400000F021FD14A8007802281CD1FFE715983A4906F0BBFB002815D0FFE716983B494C
:2014600006F0B4FB00280ED0FFE71749002008701649012008701A9832490860344808F0E2
:2014800049FA00F0FFFC14A8007802286ED103E05BB4000042B300001598284906F096FBF5
:2014A000002863D0FFE716982A4906F08FFB00285CD051E002B40000FFFFFF7F24B40000BB
:2014C00056B40000F0382020EB3A2020BF3A2020BE3A2020C63A2020EA3A2020E93A2020BD
:2014E000E63A202048B200007AB30000ABB30000DAB40000C0B30000D8B3000000B00000CB
:201500002CB30000DD3A2020E4B3000050B30000C6B300002EB40000D43A2020EC392020ED
:20152000D33A20203EB200000AB2000065B4000066B20000BDB1000074B4000096B30000A2
:20154000FFB40000F839202092B000001AB4000022B000008EB40000FE4900200870FE491D
:201560000870FE4808F0D6F900F08BFC14A8007802285CD1FFE71598F94906F027FB0028CF
:2015800055D0FFE7169813A905F0D8F8002809D0FFE71398002805D4FFE71398F1498842E9
:2015A00004DDFFE7F04808F0B5F93EE0EF480078002810D0FFE71398EC49C96988420AD114
:2015C000FFE7EB4808F0A6F9139805F01FFDE94808F0A0F928E0E8480078002806D0FFE749
:2015E0001398E649C969884205D0FFE71398E44907F044FE17E0E1480078012804D1FFE7CD
:20160000DE4805F021FB0DE0DC480078022804D1FFE7DA4804F0B4FF03E0DA4808F07AF9EC
:20162000FFE7FFE7FFE7FFE7FFE700F029FC14A80078042800D085E01598D34906F0C6FA03
:2016400000287FD0FFE7169813A905F077F8002878D0FFE7179812A905F070F8002871D0D9
:20166000FFE7189811A905F069F800286AD0FFE713988121C943884264DBFFE713988228DF
:2016800060DCFFE7129832285CDBFFE7129819210901884256DCFFE71198002852D4FFE75A
:2016A0001198B04988424DDCFFE711980F90B748007800280BD0FFE7B54800680F99884230
:2016C00005D1FFE70F98B34907F090FD39E0B248007805280AD0FFE7AF48007806282AD117
:2016E000FFE7AE480078002825D1FFE7AC480078002808D0FFE70021AA48405E08F022F97C
:20170000052805DBFFE70F98A74907F06FFDCAE31398A64908801A9812994018A449086003
:201720000F989B4908609949012008700F98994907F05CFD04E00F989B4907F057FDFFE7C2
:20174000FFE79CE314A80078032851D1FFE715988D4906F03BFA00284AD0FFE7169813A97D
:2017600004F0ECFF002843D0FFE7179812A904F0E5FF00283CD0FFE713988121C9438842EA
:2017800036DBFFE71398822832DCFFE7129832282EDBFFE7129819210901884228DCFFE774
:2017A0007F480078002823D0FFE700217D48405E08F0C8F804281BDCFFE777480078052840
:2017C0000AD0FFE774480078062811D1FFE77348007800280CD1FFE71398744908801A985F
:2017E0001299401872490860724808F093F845E314A80078032838D1FFE715986E4906F0B6
:20180000E5F9002831D0FFE7179813A904F096FF00282AD0FFE71398002826D4FFE7139881
:201820009B218900884220DCFFE71698634906F0CDF900280ED1FFE71698614906F0C6F9A7
:20184000002807D1FFE716985E4906F0BFF900280BD0FFE74548002202701698007813A9B3
:20186000895E1A9A04F0FCFE07E314A80078052855D1FFE71598544906F0A8F900284ED061
:20188000FFE716984D4906F0A1F9002807D1FFE716984B4906F09AF9002840D0FFE7179810
:2018A00013A904F04BFF002839D0FFE7189812A904F044FF002832D0FFE7199811A904F006
:2018C0003DFF00282BD0FFE71398002827D4FFE713989B218900884221DCFFE712987D212A
:2018E000C90088421BDBFFE712987D210901884215DCFFE71198002811D4FFE711981949DF
:2019000088420CDCFFE716980078002213A9895E129A119B1A9C009405F0D2FBACE214A896
:201920000078052800D092E01598284906F04EF9002800D18BE01698204906F047F900288C
:2019400046D1FFE716981E4906F040F900287ED03EE0C046EB3A2020BF3A202054B000000A
:2019600014B30000FFFFFF7F11B00000F0382020CAB40000F0B40000D73A2020A038202070
:2019800004B3000074B0000033B40000D23A2020E0392020F6B40000DD3A2020E73A20207E
:2019A000DC3A20207C3A202092B40000803A2020103A202034B2000086B4000009B5000033
:2019C0000BB500000DB5000079B2000070B20000179813A904F0B2FE002838D0FFE7189863
:2019E00012A904F0ABFE002831D0FFE7199811A904F0A4FE00282AD0FFE71398502826DB53
:201A0000FFE713984B21C900884220DCFFE712987D21890088421ADBFFE71298FD49884224
:201A200015DCFFE71198002811D4FFE71198FA4988420CDCFFE716980078002213A9895EC4
:201A4000129A119B1A9C009405F08CFB13E214A8007804282BD1FFE71598F04906F0B6F8A7
:201A6000002824D0FFE7179813A904F067FE00281DD0FFE7189812A904F060FE002816D0DA
:201A8000FFE71298002812D4FFE71298E24988420DDCFFE71698139901F05CF9002806D0B6
:201AA000FFE712981699139A07F020F8E2E114A8007803281BD1FFE71598D84906F086F8F5
:201AC000002814D0FFE7179813A904F037FE00280DD0FFE71698139901F03CF9002806D017
:201AE000FFE7CF4807F016FF02F0FAFAC1E114A80078042852D1FFE71598F14906F066F8B1
:201B000000284BD0FFE71698EA4906F05FF8002807D1FFE71698E84906F058F800283DD02E
:201B2000FFE7179813A904F009FE002836D0FFE7189812A904F002FE00282FD0FFE713982E
:201B400050282BDBFFE713984B21C900884225DCFFE712987D21890088421FDBFFE712986B
:201B6000D64988421ADCFFE7E94900200A9008701698017803200B9002204C290C9001D053
:201B80000B980C900A9C0C9813A9095F129A1A9B01940124009402F019FE69E114A8007862
:201BA00003284AD1FFE71598C64906F00FF8002807D1FFE71598C44906F008F800283CD076
:201BC000FFE7169813A904F0B9FD002835D0FFE7179812A904F0B2FD00282ED0FFE7139834
:201BE00050282ADBFFE713984B21C900884224DCFFE712987D21890088421EDBFFE71298CE
:201C0000AE49884219DCFFE71598AF4905F0DEFF01460420089005200029099001D1089855
:201C200009900998002413A9095F129A1A9B01940124009402F0CAFD19E114A80078042860
:201C400000D081E01598A14905F0C0FF00287BD0FFE7169813A904F071FD002874D0FFE791
:201C6000179812A904F06AFD00286DD0FFE7189811A904F063FD002866D0FFE7139850282F
:201C800062DBFFE71398E121490088425CDCFFE71298012858DBFFE712980A2854DCFFE765
:201CA0001198002850D4FFE71198804988424BDCFFE711980E9090480078002817D0FFE774
:201CC0008E4800680E99884211D1FFE70E9805908B4801788B488C4A06920029079001D133
:201CE000069807900598079907F0A4FA2BE070480078002805D0FFE70E98844907F09AFAC1
:201D000020E0002113A8405E12A909781A9A01F00DFE01467A4801700E99784A1160764A49
:201D2000012111700E99029101787648764A03920029049001D1039804900298049907F04E
:201D400079FAFFE7FFE791E014A80078032837D1FFE715985D4905F039FF002830D0FFE7F8
:201D6000169813A904F0EAFC002829D0FFE7179812A904F0E3FC002822D0FFE713985028B8
:201D80001EDBFFE71398E1214900884218DCFFE71298012814DBFFE712980A2810DCFFE774
:201DA000002113A8405E12A909781A9A01F0BEFD002804D1FFE74F4807F0ACFDFFE754E0D9
:201DC00014A8007803284BD1FFE71598404905F0FDFE002844D0FFE7169813A904F0AEFC52
:201DE00000283DD0FFE7179812A904F0A7FC002836D0FFE71398502832DBFFE713984B2186
:201E0000C90088422CDCFFE712987D218900884226DB07E0983A0000FFFFFF7FB6B4000006
:201E2000AFB2000012982549884219DCFFE720480078002814D1FFE7139827490880129864
:201E4000264908602649012008702649002008702549087025490870254807F05BFD03E031
:201E60001C4807F057FDFFE7FFE7FFE7FFE7FFE7FFE7FFE7FFE7FFE7FFE7FFE7FFE7FFE705
:201E8000FFE7FFE7FFE7FFE7FFE7FFE7FFE7FFE7FFE7FFE7FFE7FFE7FFE7FFE7FFE7FFE7E2
:201EA000FFE7FFE7FFE71CB010BDC046FFFFFF7FDD3A202009B500000BB50000983A0000AE
:201EC00060B40000E6B400004CB4000088B30000BAB400004DAE0000583A2020BC392020A9
:201EE000EA3A2020E93A2020EB3A2020BE3A20208AAC00002CAD0000D63A2020F4392020B2
:201F0000D53A2020F6B4000092B4000079B40000F038202010B5AAB0289022A900200870B3
:201F200021A9087020A908701FA908801EA908701DA90870FB48007806280AD1FFE7FA4865
:201F40000078002805D0FFE7FC480078042805D1FFE729A90020087000F09CFE2898F8498D
:201F60000968401A2790F5480078012849D1FFE7F4490A88F44802800A88F4490A80F44ADD
:201F80001388F44C23801288F34B1A800022805E895E05F08BF9279832282DD3FFE708F0FA
:201FA000CBFC002808D1FFE7EC4807F0EFFA29A90120087000F06EFE08F0F8FBE84900205C
:201FC00018900880E7490880E7490120087007F019FFE649086007F027FF01461898E44A68
:201FE0001160E4490880E4490870D449022008702898D3490860FFE729A90120087000F0DA
:2020000049FE08F099FC002811D1FFE7DB480078012808D1FFE7DA4807F0B8FA29A90120BB
:20202000087000F037FED04900200870FFE707F0E9FECE490968401A249007F0F5FECC49F9
:202040000968401A23902498002804D5FFE7249840422490FFE72398002804D5FFE723982A
:2020600040422390FFE7249823994018C10F40184008C049088008F0A7FC7F210840C149E7
:202080000870BE48007801280ED1FFE7BD48007820A903F06DFB1FA908801F98BA49088029
:2020A0002098BA490870FFE7B9480078002820D1FFE7B448007807F087FA00280BD1FFE7B9
:2020C000B4480078FF2805D0FFE7B2490878401C0870FFE703E0AF4900200870FFE7AD4827
:2020E0000078022804D3FFE7A94901200870FFE72BE0A448007807F067FA21A908709F4820
:202100000078012801D1FFE7FFE700229948805EA149895ECA0F89184910884210DBFFE760
:2021200021A8007800280BD0FFE79C480078FF2805D0FFE799490878401C0870FFE703E038
:20214000964900200870FFE7FFE708F0F5FB00282AD0FFE708F05CF826A908808248007867
:20216000002811D0FFE726987E490988401A00B207F0E8FBC82807DCFFE7269879490880B3
:202180002698774908800EE0269876490988401A00B207F0D7FBC92804DBFFE772490020D7
:2021A0000870FFE7FFE7FFE7289865490968401A279072480078012800D0C1E328987849B5
:2021C0000968401A1C9068480078002808D1FFE7744807F0DBF929A90120087000F05AFD40
:2021E00000215F48405E07F0ADFB6F49884208DBFFE76E4807F0CAF929A90120087000F0C4
:2022000049FD00225B48805E63498A5E03215143884208DDFFE7664807F0B8F929A90120AB
:20222000087000F037FD1C98C009192808D3FFE7604807F0ABF929A90120087000F02AFDBE
:202240003E480078022805D0FFE73C480078032800D0B2E120A80078002819D0FFE7494849
:2022600000784006800F002812D0FFE700211FA8405E0A280CDBFFE700213948405EAF218C
:202280004900884204DBFFE74B4901200870FFE749480078002821D0FFE720A800780028E3
:2022A0001CD1FFE700212E48405EE1214900884214DBFFE741480078FF2805D0FFE73F49C1
:2022C0000878401C0870FFE73C480078022804D3FFE73B4901200870FFE709E038480078FD
:2022E000002804D1FFE7354900200870FFE7FFE727480078002800D18BE02F4800780028B7
:2023000000D186E02E480078002800D181E020A8007800287DD0FFE71A480078400700285A
:2023200077D003E0DD3A2020E73A202000211FA8405E0521C94388426BDC43E0E73A20206E
:202340003C3A2020B03A2020703A2020923A2020A83A2020783A20209A3A2020CBB0000004
:20236000B43A2020AC3A2020F23A2020483A20204C3A2020B23A2020ED3A2020573A2020B1
:2023800064B00000DB3A20207C3A2020DC3A2020F13A2020F03A2020A63A2020EF3A20202A
:2023A000403A202010AF00007F04000066AE0000E3AD0000C6AD0000CC3A2020CD3A20207D
:2023C000CE3A20200021FD48405EFD49884220DBFFE70021F948405EFA49884219DCFFE7D8
:2023E0000022F948805E8100F848825E0320504388420EDCFFE70022F348805EF3498A5E4C
:2024000003215143884204DCFFE71EA901200870FFE7EF480078002821D0FFE720A8007840
:2024200000281CD0FFE700211FA8405E07F08AFA0A2814DCFFE7E748007807F0C5F8002816
:202440000DD0FFE70022E048805E4100DF48805E884204DCFFE71EA901200870FFE7DC4851
:202460000078002821D0FFE720A8007800281CD0FFE700211FA8405E002816D4FFE7D54810
:20248000007805F0A1F800280FD0FFE70022CE48805E8100CD48825E03205043884204DC5D
:2024A000FFE71EA901200870FFE71EA8007800280BD0FFE7C8480078FF2805D0FFE7C64950
:2024C0000878401C0870FFE703E0C34900200870FFE7C1480078022804D3FFE722A9012001
:2024E0000870FFE700211691B448405E07F02AFA169A0146B948825E0120914217900FDAA5
:20250000FFE7B14800221492815EB048825E01209142159001DA1498159015981790FFE75E
:202520001799012001401DA801700078002843D0FFE722A8007800283ED1FFE7A84900204A
:2025400013900870A74A042111702899A64A1160A6490870A6490880A6490880A6490880DB
:20256000A6490880A6490880A6490880A649088007F066F808F04CF9A44807F0CBF9A4485A
:202580000078401C04F042FDA248129007F0C2F913998A48405E04F039FD129807F0BAF95C
:2025A00013998948405E04F031FD9B4807F0B2F929A9012008706DE3FFE78A480078052841
:2025C00000D0B0E007F06CFB07F0BCF91BA9088007F07AFB07F0B6F91AA9088087490020F8
:2025E0000880874908808749088087490880279827280CD8FFE781482D2101808049874A41
:202600000A800022805E895E04F050FE02E007F017F8FFE72798782817D3FFE700211BA826
:20262000405E0F2811DCFFE700211AA8405E0F280BDCFFE77A480078FF2805D0FFE7784990
:202640000878401C0870FFE703E0754900200870FFE773480078032858D3FFE720A8007872
:2026600000280DD0FFE75B4800786721084214D1FFE75848007806F0A7FF00280DD1FFE717
:2026800027984008E12804D3FFE7664806F07EFFFFE729A901200870FCE205F001FF07F031
:2026A0005DFC6149086061480078002809D0FFE75F4800685F4908615F4800685F49086167
:2026C00002E008F0A5F8FFE75D480021119101801F98474A108047480180474801801FA8F5
:2026E000405E07F02FF901461198564A11802899554A1160554908803A4906200870289824
:202700003949086029A901200870C3E227984008E12804D3FFE74E4806F038FFFFE729A977
:2027200001200870B6E22F480078062800D006E120A80078002807D0FFE700211FA8405EE9
:2027400007F000F9109002E042481090FFE7109819A9088020A80078002825D1FFE73B483E
:2027600000883D49884205D8FFE7384908880A300880FFE721490020088021490880214997
:2027800008802149088006F05BFF08F041F82F480088B42804D3FFE7304806F0F7FEFFE75D
:2027A00029A90120087075E228480022028019A8805E2449895E884259DA51E0B43A2020F4
:2027C000EE0200004C040000B23A2020A63A2020F13A2020DB3A2020CF3A2020A43A202046
:2027E000ED3A2020E73A20203C3A2020EE3A2020863A20207E3A2020843A2020703A202013
:20280000923A2020783A20209A3A202062B10000E53A20200FB50000F0B40000D3FF0000FA
:20282000C93A20207FAE0000F0392020CB3A2020D039202080392020D439202094392020DE
:20284000883A2020623A2020CC392020643A2020FFAD0000FF7F00005FEA00004EAD000009
:202860001998F14908802898F0490860FFE7F048007806F0A9FE002811D0FFE7002119A880
:20288000405E06280BDCFFE7EA480078FF2805D0FFE7E8490878401C0870FFE703E0E54997
:2028A00000200870FFE7E3480078052837D3FFE7FA4901200F900870F94807F02BF8F948C3
:2028C0000078401C04F0A2FBF7480D9007F022F800210E91D848405E04F098FB0D9807F005
:2028E00019F80E99F848405E04F090FB0D9807F011F8F648007804F089FB0D9807F00AF852
:202900000E991FA8405E04F081FBE84807F002F8289800F0B5FC0F9829A90870BAE127986E
:20292000E349884207D3FFE7E24806F02FFE29A901200870AEE129A900200870AAE1FFE7BF
:20294000E4480078032827D3FFE7DE48007800280CD0FFE70021E048405E7D218900884268
:2029600004DBFFE722A90120087014E0D548007800280FD1FFE70022D348805E8100D448FF
:20298000825E03205043884204DCFFE722A901200870FFE7FFE7FFE7C948007801280ED16A
:2029A000FFE7CE48017800200B90012001290C9001D80B980C900C9822A90870FFE7C04813
:2029C000007801287BD1FFE72798DC2877D3FFE722A80078002872D0FFE720A80078002837
:2029E0006DD0FFE7B948007806F0EEFD002866D0FFE7B9480088CD4905910880B2480088D7
:202A0000CB4906910880B1480078CA49079108701F98C9490A910880C849002009900870C1
:202A2000C7490880A44A052111702899A34A1160C4490880B5490860B5490870B549088053
:202A4000B5490880B5490880A9490880A9490880A9490880A949088006F0F2FD07F0D8FED0
:202A6000B94806F057FFAE480078401C04F0CEFAB648089006F04EFF05980999405E04F0D9
:202A8000C5FA089806F046FF06980999405E04F0BDFA089806F03EFF0798007804F0B6FA85
:202AA000089806F037FF09990A98405E04F0AEFAA74806F02FFF29A901200870EAE02798C5
:202AC000C008AF280CD3FFE77D480078012807D0FFE7954806F05AFD29A901200870D9E021
:202AE0002798DC285CD3FFE775480078012857D0FFE722A8007800281AD1FFE77148007827
:202B0000002808D1FFE700226F48805E7049895E88420DDAFFE76B480078002840D0FFE797
:202B200000226D48805E6E49895E884238DBFFE722987349087060490420087028985F49E4
:202B4000086070490020049008706F4908806F4908606F4908706F4908806F4908806F4960
:202B600008806349088063490880634908806349088006F065FD07F04BFE69480078401CE0
:202B8000C0B2684909788906090E884204DBFFE7289800F075FBFFE729A90120087079E092
:202BA00045480078022823D1FFE72798DC281FD3FFE74448007800280CD0FFE700214648D4
:202BC000405E47490988474A1288891A09B288420ADAFFE700213C48405E3D49098819396D
:202BE00009B2884204DBFFE7334903200870FFE731480078022805D1FFE700213B48405E75
:202C0000039004E000213848405E0390FFE7039825A908802A480078012824D1FFE7294835
:202C2000007800281FD009E0623A2020CC392020DB3A2020EE3A2020B43A2020002101915D
:202C40002548405E03F054FE019B014625A802900180C05E1C49C95E1D4AD25E02F030FFFF
:202C600002990880FFE72598414221480180259A20490A80259A52421F4B1A80259A1F4BEF
:202C80001A800022805E895E04F010FB29A901200870FFE729A800782AB010BDED3A20200C
:202CA00000B10000E53A20200FB50000F0B4000098080000A9AD0000E73A20203C3A20208F
:202CC000573A2020F23A2020B23A2020DB3A2020A63A2020EF3A2020B43A2020CF3A202036
:202CE000A43A2020AE3A2020B03A2020AA3A2020703A2020923A2020783A20209A3A202044
:202D0000ED3A2020EE3A2020863A2020083A2020DA3A20207E3A20207A3A2020843A202024
:202D2000E53A2020E83A20200DB100006A3A2020683A2020C83A2020663A2020C93A2020E9
:202D4000643A2020883A2020AFB000000FB50000F0B4000080B584B002900191694601206F
:202D600008700298FD4904F031FF002811D0FFE70198002805D4FFE70198F949884204DBE4
:202D8000FFE703A90020087024E20198F549086014E20298F44904F019FF002811D0FFE7FC
:202DA0000198002805D4FFE70198ED49884204DBFFE703A9002008700CE20198E949486090
:202DC000FBE10298E94904F001FF002811D0FFE70198002805D4FFE70198E149884204DB7C
:202DE000FFE703A900200870F4E10198FB490860E2E10298FB4904F0E9FE002811D0FFE724
:202E00000198002805D4FFE70198D549884204DBFFE703A900200870DCE10198EF49486072
:202E2000C9E10298F04904F0D1FE002811D0FFE70198002805D4FFE70198E949884204DB6F
:202E4000FFE703A900200870C4E10198C5498860B0E10298E54904F0B9FE002811D0FFE721
:202E60000198002805D4FFE70198DD49884204DBFFE703A900200870ACE10198D749886012
:202E800097E10298DA4904F0A1FE002812D0FFE70198002806D4FFE70198FF21C431884281
:202EA00004DBFFE703A90020087093E10198F34988817DE10298CF4904F088FE002812D023
:202EC000FFE70198002806D4FFE70198FF21C431884204DBFFE703A9002008707AE1019816
:202EE000E549888163E10298C34904F06FFE002811D0FFE70198002805D4FFE70198DC4923
:202F0000884204DBFFE703A90020087062E10198D84908604AE10298B84904F057FE002842
:202F200012D0FFE701984F21C943884204DBFFE70198512804DBFFE703A90020087049E1E0
:202F40000198CA49088030E10298AD4904F03EFE00281AD0FFE7BC48007801280AD1FFE70E
:202F600001982221C943884204DBFFE70198242804DBFFE703A9002008702BE10198BA4944
:202F800008806946002008700EE102989D4904F01DFE002826D0FFE70198002805D4FFE760
:202FA0000198A749884204DBFFE703A90020087010E10198AB490860A3480078012810D162
:202FC000FFE7A24900200880A1490870A1490880A1490880A1490988A14A11806946087014
:202FE000FFE7E0E00298884904F0F0FD002826D0FFE70198002805D4FFE70198904988421F
:2030000004DBFFE703A900200870E3E001988D4908608D480078012810D1FFE78B490020DC
:2030200008808B4908708B4908808B4908808B4909888B4A118069460870FFE7B2E0029800
:20304000724904F0C3FD002813D0FFE70198AF218900884205DBFFE701987749884204DB8C
:20306000FFE703A900200870B4E001987349088097E00298664904F0A9FD002819D0FFE764
:20308000019864280DDBFFE701984B218900884207DCFFE7019800226649895E884204DA23
:2030A000FFE703A90020087094E001986049088076E00298574904F089FD002817D0FFE7A9
:2030C000019850280BDBFFE70198FA2807DCFFE7019800225649895E884204DDFFE703A911
:2030E0000020087076E001985249088057E00298494904F06BFD002812D0FFE70198322884
:2031000006DBFFE70198FF216031884204DBFFE703A9002008705DE00198444908803DE0C3
:2031200002983E4904F052FD002810D0FFE70198502804DBFFE70198FB2804DBFFE703A93A
:203140000020087046E001983749088025E00298334904F03BFD00281AD009E0D6B4000044
:20316000B90B000080392020B2B40000E2B400000198322804DBFFE701988D2804DBFFE7CB
:2031800003A90020087025E001982649088003E003A9002008701DE0FFE7FFE7FFE7FFE79A
:2031A000FFE7FFE7FFE7FFE7FFE7FFE7FFE7FFE7FFE7FFE7FFE7FFE7FFE7FFE76846007855
:2031C000002803D0FFE707F023FBFFE703A901200870FFE703A8007804B080BD94392020C7
:2031E000E9030000AAB4000082B400009AB400003DB400006FB400001FB4000029B400003D
:20320000B2B30000A4B3000034B3000052B2000094B2000082B20000F4B10000CAB200006C
:20322000B8B20000A63A2020A83A2020AE3A2020AA3A2020B03A20204D040000A43A2020FD
:20324000214E00000C3A2020573A2020883A2020DA3A20207E3A20207A3A20207C3A202070
:20326000863A2020143A20206C3A2020903A202089130000443A2020943920208039202070
:2032800080B58AB00890A748008807A90880A6480078012832D1FFE70021A448405E01282C
:2032A0002CDBFFE7A148008807A90880A0480078002822D0FFE79F48007800281DD0FFE7BE
:2032C00000219D48405EAF218900884215DBFFE700219948405E994988420EDCFFE7002312
:2032E0009749CA5E03205043934AD25E8018801C820F801880080880FFE7FFE78C4800787E
:2033000000281AD0FFE7002107A8405E322814DBFFE7002107A8405E8C280EDCFFE7002303
:203320008849CA5E0320504307AAD25E8018801C820F801880080880FFE783490878401C02
:2033400008707948007801281DD1FFE77F4806F0E1FA7D48007803F059FE7D48059006F050
:20336000D9FA002106917648405E03F04FFE059806F0D0FA06997348405E03F047FE7548DC
:2033800006F0C8FAFFE7744806F0C4FA6E480490007803F03BFE6E48039006F0BBFA00211C
:2033A0006548405E03F032FE039806F0B3FA08986A490968401A03F029FE664806F0AAFAE1
:2033C00004980078664909788900C9B2884252DBFFE701F089FD78490020087077490870C0
:2033E00051480078012815D1FFE7754806F092FA002102915248405E03F008FE714806F0F4
:2034000089FA02994F48405E03F000FE514806F081FAFFE76C4806F07DFA00214948405E07
:2034200003F0F4FD4B48019006F074FA674806F071FA4548007803F0E9FD019806F06AFA3F
:2034400039480078012804D1FFE7634806F062FA0DE002F033FF002804D0FFE75D4806F004
:2034600059FA03E05A4806F055FAFFE7FFE709A90120087051E03B4900200090087008989B
:203480003949086006F0BEFC3849086006F0CCFC01460098364A116036490880364908701D
:2034A000364908703649087036480088364908801D480078012816D1FFE734490020088019
:2034C000334908603349087033490880334908803349087007F030FA002803D0FFE707F01F
:2034E00065F9FFE7FFE71048007801280ED1FFE72C480078002809D0FFE72B4800682B49C2
:2035000008612B4800682B49086102E007F080F9FFE709A900200870FFE709A800780AB03F
:2035200080BDC046B23A2020573A2020683A2020ED3A2020F23A2020B43A20204C04000018
:20354000A43A2020A63A2020E53A20206EB100000FB50000F0B40000D3B10000403A202009
:20356000E83A2020E73A20203C3A2020C0392020C4392020603A2020C33A2020C43A202007
:20358000EE3A20207C3A2020863A2020883A2020083A2020DA3A20207E3A20207A3A202009
:2035A000CA3A2020CB3A2020D039202080392020D439202094392020EB3A2020BF3A202048
:2035C0001AAE0000FFB1000098AE0000D9B00000E2AE000066AF000009AD000080B5E4B080
:2035E0007F2080026290619062980068BD49884246D1FFE762984068032841D1FFE77F2034
:2036000080024C904C9922A8A82207F0F5F92498A82810D1FFE74B98089022A805F09CF8CD
:2036200001460898884206D1FFE722A804F0C0FC002804D1FFE763A9002008704DE122A922
:2036400005911031B84807904822069207F0D4F90599069A07985831483007F0CDF90699FC
:2036600007984A9AAF4B1A80259BAD4A137012785143401803F06CFC63A9012008702CE176
:2036800062980068974988423BD1FFE762984068022836D1FFE77F208002219021990BA834
:2036A000582207F0A9F90D98582810D1FFE7209804900BA805F020F801460498884206D17B
:2036C000FFE70BA801F004FA002804D1FFE763A90020087001E10BA803F0DCFB9049002083
:2036E0000870904908809048039003F073FB039908464830482207F07FF963A90120087045
:20370000EBE0619800684D90619840684E90619880684F906198C06850906198006951901D
:203720006198406952906198806953906198C06954906198006A55906198406A5690619870
:20374000806A57906198C06A58906198006B59906198406B5A906198806B5B906198C06BBF
:203760005C906198006C5D906198406C5E906198806C5F906198C06C60904D98594988423E
:2037800014D1FFE74E98012810D1FFE7599802904DA805F05FFE01460298884206D1FFE756
:2037A0004DA802F003F9002804D1FFE763A90020087092E04F984C4A1060509850605198BF
:2037C0004A49086052984860539890605498886055989081569888815798454908605898E3
:2037E000444908805A98401C002817D0FFE74DA8818E0A91C08E09900A983F4988420CDC0F
:20380000FFE709983C49884207DCFFE70A983B49086009983A490860FFE7FFE75B98AF2160
:20382000890088423ADBFFE75B983649884235DCFFE75C98642831DBFFE75C984B218900AC
:2038400088422BDCFFE75D98502827DBFFE75D985C99884222DCFFE75E9832281EDBFFE795
:203860005E98AF214900884218DCFFE75F98502814DBFFE75F98FA2810DCFFE75B98224908
:2038800008805C98214908805D98214908805E98204908805F9820490880FFE760983228CC
:2038A00008DBFFE760988C2804DCFFE760981B490880FFE71A49002008701A4908801A48BB
:2038C000019003F087FA019908464830482207F093F863A901200870FFE763A8007864B075
:2038E00080BDC046314449508039202094392020443A2020903A2020204E0000143A2020AD
:203900000C3A20204C040000A43A2020AA3A2020B03A2020AE3A2020A83A2020A63A2020FB
:20392000573A20206C3A20209037202080B586B004AB188003A80170029206F0FDFF00284D
:203940000FD0FFE707F046F800280AD0FFE703A80078002805D0FFE703A800780B2804D352
:20396000FFE705A900200870BDE001F0BDFA04F099FB5F490620087004985E4908800298A3
:203980005D49086003A801785C4848435C49086006F0E4FA5B49086002985B4908605B498F
:2039A000012008705A49002008705A4908700299594A11600299594A11600399584A1170FB
:2039C000584908705849087058490870584908705849087058480078012808D1FFE706F074
:2039E000ABFF002803D0FFE706F0E0FEFFE7534900200190088052490880524A012111704B
:203A000051490870514908705149087006F0FAF95049086006F008FA014601984E4A1160A5
:203A20004E4908804E49087006F0ECF94D49086006F0FAF9014601984B4A11604B49088094
:203A40004B4AE121490011804A4908804A4908804A4908604A4908704A4908804A49088083
:203A60004A4908804A4908804A4908604A4908604A4908704A4908704A4908704A490870EE
:203A80004A4908704A4908704A4908704A4908804A4908804A4908704A4908804A4A4B4981
:203AA00011804B4908604B4908804B4805F032FF019904A8405E03F0A9FA484805F02AFF7C
:203AC00003A8007803F0A2FA454805F023FF45480078002803D1FFE706F0F4FEFFE705A92D
:203AE00001200870FFE705A8007806B080BDC046DD3A2020A23A20201C3A202060EA0000D6
:203B0000183A2020F0392020F8392020EB3A2020BE3A2020E73A20203C3A2020403A2020CB
:203B2000E83A2020E53A2020C33A2020C43A2020EE3A2020CA3A2020573A2020B43A20209E
:203B4000AC3A2020F23A2020F13A2020F03A2020EF3A2020483A20204C3A2020B23A2020E1
:203B6000ED3A2020C0392020C4392020603A20205C3A20207C3A2020863A2020083A202040
:203B8000DA3A20207E3A2020883A20207A3A2020843A2020D0392020D4392020CB3A20200A
:203BA000CC3A2020CD3A2020CE3A2020CF3A2020D03A2020C93A20206A3A2020683A202094
:203BC000C83A2020663A2020623A2020FF7F0000CC392020643A2020A4AF00000FB500002F
:203BE000F0B40000BF3A2020B0B588B0694AAF2041001160642050607320800090602020A0
:203C00009081654A7D20830013605160FF21B63191601A219181614AC1001160604A322181
:203C20001180604A604911606049000108606049E120800008805F49B92008805E498C200F
:203C400008805E4AB42111805D4908805D49622008805D490020049008705C4908805C484D
:203C6000039003F0B7F8039908464830482206F0C3FEFFF7B3FC07A9087001F035F9049804
:203C80005449087054490870544908605449086054490860544908605449086054490880BC
:203CA00054490880544908705449087054490870544908705449087054490860544908804C
:203CC0005449088054490860544908705449088054490880544908805449088054490870FC
:203CE000544908705449088054490860544A01211170544908705449087006A90870FFE70D
:203D000006A80078022826D8FFE706A80290007804F07CFA029A05A90870059B107806213C
:203D20000C4644434F480355059B15780C466C4304196370059B15780C466C430419A3703F
:203D400012785143411800208880FFE70698401C06A90870D4E73D49002008603C4901204E
:203D600008703C4805F0D6FD07A801783A483B4A00920029019001D100980190019805F07B
:203D8000C9FD05F0E9FE00F0ABF9354805F0C2FD08B0B0BD8039202094392020443A2020D3
:203DA000903A2020143A20205E1A00000C3A2020A43A2020AA3A2020B03A2020AE3A2020D9
:203DC000A83A2020A63A2020573A20206C3A202090372020EB3A2020BF3A20201C3A2020AF
:203DE000E8392020F8392020E4392020D83920209C3A20205E3A2020BE3A2020C63A2020DD
:203E0000EA3A2020E93A2020E63A2020283A20207C3A2020863A2020083A2020DA3A20200D
:203E20007E3A2020883A20207A3A2020843A2020DC3A2020DB3A2020803A2020103A202067
:203E4000E83A2020E53A2020CA3A2020DC392020E33A20206DAD000026AF0000CAAE000044
:203E6000DCAF0000A839202070B58EB00D9009A90020087094480078002801D1FFE721E116
:203E80000D9891498A68801A0C900D980969884200D2ECE00D9914318B48016140784C28B0
:203EA00004D1FFE705F0FCFE069003E005F00CFF0690FFE706980BA90880834840784C2892
:203EC00005D1FFE700218248405E059004E000217E48405E0590FFE705980AA9088000212B
:203EE0000BA8405E05F02EFD77492422895E884208DDFFE700210BA8405E05F023FD72498D
:203F00008884FFE77048007801283BD1FFE70C988008AF2812D3FFE700210BA8405E05F02F
:203F200011FD0446E3176849C86A8A6A121958418A62C862888A401C8882FFE700210BA84C
:203F4000405E05F0FFFC6349884207DBFFE75E494822885C022318438854FFE700210BA88A
:203F6000405E05F0EFFCE121C900884209DBFFE7554A4823D15C01200143D15409A9087079
:203F8000FFE773E0504A049290880B99411A08A80180918A491C91820021405E05F0D2FC5B
:203FA00004990446E317486B0A6B121958410A634863086AC968884216D1FFE700210BA80E
:203FC000405E039040480421415E092048430A2104F0E4FD0146039809B2884204DBFFE784
:203FE0000C9839490862FFE700210AA8405EFF21F031884205DBFFE73349088B401C088313
:20400000FFE70C983049CA68032151438908884218D3FFE72C490291C88A401CC882002364
:204020000BA8C65EF517CA6B8C6BA4196A418C63CA63C45E6443486C0A6C121958410A64C8
:204040004864FFE700210BA8405E05F07BFCE1218900884209DBFFE71B4A4823D15C0120B3
:204060000143D15409A90870FFE7FFE7FFE70C981549C968884205D2FFE709A800780028F0
:2040800020D0FFE710490091087807AA019210701148502206F0B0FC0099104A012010701B
:2040A0000020087000F020FF01980078012804D1FFE7094802F0C8FD03E0074802F060FADE
:2040C000FFE7FFE70EB070BDF0382020923A2020703A202092090000A0382020D73A2020C7
:2040E00080B584B0554805F015FC5548007802F08DFF544805F00EFC032002F087FF524851
:2041000005F008FC192002F081FF504805F002FC4F480090006802F079FF4E4805F0FAFBF7
:204120000098406802F072FF4B4805F0F3FB4B480290006802F06AFF494805F0EBFB029878
:20414000406802F063FF474805F0E4FB0098806802F05CFF444805F0DDFB0298806802F066
:2041600055FF424805F0D6FB00980C210191405E02F04CFF3E4805F0CDFB01990298405E54
:2041800002F044FF3B4805F0C5FB3B48006802F03DFF3A4805F0BEFB002103913848405E96
:2041A00002F034FF374805F0B5FB03993648405E02F02CFF354805F0ADFB3548006802F0F0
:2041C00025FF344805F0A6FB3348006802F01EFF324805F09FFB03993148405E02F016FFF4
:2041E000304805F097FB03992F48405E02F00EFF2E4805F08FFB03992D48405E02F006FF75
:204200002C4805F087FB03992B48405E02F0FEFE2A4805F07FFB03992948405E02F0F6FEA6
:20422000284805F077FB03992748405E02F0EEFE264805F06FFB04B080BDC0463CAF000071
:20424000573A2020C8B10000B2B10000FCB3000080392020D2B3000008B4000094392020BB
:2042600014B40000F6B30000F0B3000073B300008FB300003BB30000443A2020B9B30000AA
:20428000903A20208BB200006C3A20209DB20000143A2020A6B200000C3A202056B100002F
:2042A000A43A202015B20000AA3A202091B10000B03A2020E6B00000AE3A2020A7B1000073
:2042C000A83A2020FFB10000A63A2020F0B4000080B58CB00B90DC2004F040F8002801D11A
:2042E000FFE7B4E005F0DCFC0AA9088005F0ECFC09A9088057480078002803D1FFE700200C
:20430000079005E00B9854490968401A0790FFE707980890514805F0FDFA089802F076FED7
:204320004F48059005F0F6FA03F010FC05F0F2FA059805F0EFFA002106914A480090405E99
:2043400002F064FE059805F0E5FA069946480290405E02F05BFE059805F0DCFA06990AA837
:204360000190405E02F052FE059805F0D3FA069909A80390405E02F049FE059805F0CAFA5D
:2043800006993A48405E02F041FE059805F0C2FA06993748405E02F039FE059805F0BAFAB4
:2043A00000980199069A805E895E401A02F02EFE059805F0AFFA02980399069A805E895E18
:2043C000401A02F023FE059805F0A4FA05F0A6FD049005F0B3FD01460498401A02F016FE2C
:2043E000059805F097FA06992248405E02F00EFE059805F08FFA2048007802F007FE059866
:2044000005F088FA1D48007802F000FE059805F081FA04F05FFA02F0F9FD059805F07AFA10
:204420001748007802F0F2FD059805F073FA1548007802F0EBFD059805F06CFA0699124825
:20444000405E02F0E3FD114805F064FAFFE70CB080BDC046DD3A20201C3A202047B4000073
:204460000FB50000783A20209A3A2020703A2020923A20207C3A2020DB3A2020DC3A2020DB
:20448000E53A2020E73A2020B23A2020F0B4000080B588B007905E48007800280AD0FFE782
:2044A00007985C49884201D8FFE7AFE0584900200870FFE758480078002812D1FFE76049CF
:2044C0000120032200F054FE002803D1FFE704F065FD9BE050490120087056490020087038
:2044E00094E0262004A90C2200F042FE002810D1FFE74F49002008704C480078032805D8C4
:20450000FFE74A490878401C0870FFE704F046FD7CE004A8083005F0CFFC03900399084634
:2045200003F0B9F900280ED1FFE703983B4904F008FA002807D1FFE70398394904F01CFAC7
:20454000002808D0FFE73949002008703849087004F024FD5AE0039803F032FA02A9088026
:204560003048006800282FD0FFE702982E490988401A00B204F08EFA014601A801802B493F
:20458000097832224A43323269460A800022805E895E884209DCFFE7002201A8805E694648
:2045A000895E494288420EDAFFE720480021017002A8405E02F0BAFF002803D1FFE704F02E
:2045C000EDFC23E0FFE7FFE70298174908801749002008701649087016490870164901207B
:2045E000087010480068002805D1FFE70E48008812490880FFE70B480068401C002805D0E4
:20460000FFE708490868401C0860FFE708B080BDF43A202087130000F33A20200000D0C04F
:204620000000D040243A2020BA3A2020EC3A2020E23A2020C13A2020E03A2020BC3A20200B
:20464000543A202080B594B01390FFE703A8402100F0F0FC002805D0FFE7139903A8FCF775
:2046600003FDF3E7139801F033FD139802F00EFF1398FBF725FD1398FFF7F6FB4548007894
:2046800001280ED1FFE7139843490968401A00097D2806D3FFE700F027FC404805F03AF9FA
:2046A000FFE73F48007800280ED0FFE713983D490968401A142807D3FFE71398394908609C
:2046C000139801F075FEFFE732480078022814D0FFE73048007803280FD0FFE72D48007832
:2046E00004280AD0FFE72B480078052805D0FFE72848007806282AD1FFE713982A49096875
:20470000401A2A490968884221D3FFE724480090007802A90191087000F0E6FB0099244AB6
:20472000002010700870234805F0F4F80198007800280BD0FFE7204805F0ECF81F480088EB
:2047400002F064FC1E4805F0E5F8FFE7FFE718480078002818D0FFE713981A490968401A5C
:20476000142811D3FFE713981649086016480078002804D0FFE7139801F02EFC03E01398B5
:20478000FFF7A6FDFFE7FFE7139803F095FB14B080BDC046DD3A2020E839202034AE0000E5
:2047A000BE3A2020E43920201C3A2020183A2020EB3A20207AB1000086B100009C3A20205F
:2047C000F0B40000F8392020BF3A202070B588B00C4605460D980C9907AE357006AD2C808E
:2047E0000592049303AA117002A9087000F07CFB3A49002008703A49087003F053FC06F085
:204800009BF8002803D0FFE705F0D0FFFFE7079834490870069834490880049833490860C3
:2048200005983349086005F099FB3249086004983149086004983149086003983049087003
:2048400002983049087030490020019008802F4908802F4908602F4908702F4908802F49D3
:2048600008802F4908802F4908802F4908702F4908702F4908802F49086002A800780028A6
:2048800008D0FFE72C49002008802C4908802C490870FFE72B4805F03DF803F057F905F098
:2048A00039F82948009005F035F8002106A8405E02F0ACFB009805F02DF8059802F0A6FBBC
:2048C000224805F027F803A80078002803D0FFE705F0F8FFFFE708B070BDC046EA3A202035
:2048E000E93A2020DD3A2020A23A20201C3A2020183A2020F0392020F8392020E439202083
:20490000EB3A2020BE3A20207C3A2020863A2020083A2020DA3A20207E3A2020883A202034
:204920007A3A2020843A2020DC3A2020DB3A2020803A2020103A20209C3A20205E3A202068
:20494000C63A20203EB100000FB50000F0B4000080B586B0059003F03DFE01463B48018047
:204960000021415E03204843052104F017F94B218900E122920004F005FA04A90880344871
:204980000078002804D1FFE70498324908800DE000233049CA5E0320504304AAD25E801840
:2049A000801C820F801880080880FFE72A49012008700598294908600598294908602949D0
:2049C0000020039008702849087028490870284908702849087028490870284908702849C5
:2049E0000870284908702849087028490880284908802849087028490880284A2849118025
:204A0000284908602849088028480078012816D1FFE72748006927490191274A029204F013
:204A2000E5FE0199029A254B18602548006904F0DDFE24490860244901200870FFE72349A3
:204A40000020088005F0E4FE06B080BD603A2020E53A20205C3A2020E73A20203C3A2020BE
:204A6000403A2020C33A2020C43A2020EE3A2020CA3A2020CC3A2020CD3A2020CE3A202080
:204A8000CF3A2020D03A2020C93A20206A3A2020683A2020C83A2020663A2020623A20207C
:204AA000FF7F0000CC392020643A2020573A202080392020702FFCFF90D00300D039202045
:204AC00094392020D4392020CB3A2020B43A202080B59AB018901898C0680690189800695B
:204AE00007901898406908901898806909901898C0690A901898006A0B901898406A0C90DE
:204B00001898806A0D901898C06A0E901898006B0F9004A800F04AFF002804D1FFE719A9A2
:204B20000020087085E01898416B00200029039079D4FFE71898416B0020404A91420390A1
:204B400071DCFFE71898816B0020002903906AD4FFE71898816B0020384A9142039062DCA4
:204B6000FFE71898C16B0020AF2292009142039059DBFFE71898C16B0020314A9142039093
:204B800051DCFFE71898016C0020642903904ADBFFE71898016C00204B22920091420390F8
:204BA00041DCFFE71898416C0020502903903ADBFFE71898416C026C00209142039032DC0F
:204BC000FFE71898816C0020322903902BDBFFE71898816C0020AF2252009142039022DC14
:204BE000FFE71898C16C0020502903901BDBFFE71898C16C0020FA29039014DCFFE71898B1
:204C0000016D0020322903900DDBFFE71898016D0020019001208D29029001DB019802900B
:204C200002980390FFE703980121084019A90870FFE719A800781AB080BDC046204E000088
:204C40004C04000080B584B0024603A8027002910078002828D1FFE744480078002822D105
:204C6000FFE74348007800281DD1FFE741480078002818D1FFE745480078022813D3FFE75C
:204C8000424901910878401E08703D49002008703F4804F03FFE0198007802F0B7F93D4893
:204CA00004F038FEFFE75EE003A80078012828D1FFE72E480078002822D1FFE72C480078A0
:204CC00000281DD1FFE72B480078002818D1FFE72E480078092813D8FFE72C490091087880
:204CE000401C0870264900200870294804F012FE0098007802F08AF9264804F00BFEFFE78E
:204D000031E01A48007800280AD1FFE718480078002805D1FFE717480078002803D0FFE74B
:204D200003F0AAFD1FE01448007800280DD0FFE71149002008700E490120087002980F4947
:204D40000860114804F0E6FD0CE00A490120087002980A4908600A4900200870094804F05E
:204D6000D9FDFFE7FFE704B080BDC046DD3A2020E93A2020E63A2020EA3A2020283A20207A
:204D8000E53A2020E1AC00008BAD0000E33A202083B00000F0B4000080B58EB021200421E2
:204DA000039105F09BF90120029001034A480A9005F0BEFA2220052105F090F902990A9823
:204DC000490305F0B5FA02980399002207920192C30409930093430408930F20049003F0D1
:204DE00031FF0399079A089B0998019200900E20059003F027FF049805F054F9059805F093
:204E000051F91F200221069105F068F90699202005F064F8352005F0AFFA362005F0ACFAE5
:204E2000192005F0A9FA182005F0A6FA312005F0A3FA0799089A099B0091322003F0CAFF6C
:204E40000799089A099B0091122003F0C3FF0799089A099B0091162003F0BCFF0799089A57
:204E6000099B0091232003F0B5FF0799089A099B0091242003F0AEFF0799089A099B009141
:204E80001C2003F0A7FF0799089A099B00911D2003F0A0FF102005F06FFA112005F06CFADD
:204EA0000A9803210C9109060B9105F0E8FB0A980B9905F03DFA0C98010208480D9005F011
:204EC000DEFB0D98064905F07BFA0D98054905F02FFA0EB080BDC04600000A4000200A40D5
:204EE000300040003003400080B52A490020088029490880294908802949088029490870A7
:204F0000294908602949088029490860294908702949086029490860294908702949087071
:204F20002949087029490880294908802949087029490870294908702949087029490880F1
:204F4000294908702949088029490860294908602949087029490870294908702949087011
:204F600029490870294908702949087029490880294908802949087029490880294A2A49B5
:204F800011802A4908602A49088005F041FC04F057FB80BD703A2020923A2020783A20200D
:204FA0009A3A2020DD3A2020183A2020803A2020103A2020E73A20203C3A2020403A20209F
:204FC000C33A2020C43A2020EE3A2020B43A2020AC3A2020F23A2020F13A2020F03A202059
:204FE000EF3A2020B23A2020ED3A2020603A2020D0392020D4392020CB3A2020CC3A2020BA
:20500000CD3A2020CE3A2020CF3A2020D03A2020C93A20206A3A2020683A2020C83A202023
:20502000663A2020623A2020FF7F0000CC392020643A202080B588B0069005A80180069844
:20504000002805D0FFE705A80088012804D8FFE707A9002008707BE0FFE73F4800883F492D
:205060000988884270D0FFE73B48009002883C49895C04AA019211700088802104F0D0FBFE
:20508000009A01460198118000780D2805D0FFE704A800780A2840D1FFE732480078002836
:2050A00001D0FFE7D9E72F49012008702E480088002831D0FFE72C48018802A801800088AB
:2050C00005A90988884205DBFFE70598401E02A90880FFE703A900200880FFE703A8008880
:2050E00002A9098888420CDAFFE703A802881F48805C06998854FFE70398401C03A90880DA
:20510000ECE7069902A80288002088541649088007A9012008701BE015E0124900200870DA
:20512000114800883E2809D8FFE704980E490B880E4AD0540888401C088003E00A49002095
:205140000880FFE7FFE788E707A900200870FFE707A8007808B080BDA03A20209E3A202010
:2051600020382020D83A2020823A20204039202080B58EB00CAB18700B910AA802700B987B
:2051800000280AD0FFE70AA80078002805D0FFE703F0B8FE002804D1FFE70DA90020087040
:2051A00079E004F0EBFE3E4805900CA90122069203F032FB05983B4905F00EF90598069BB3
:2051C000002202920192022107910091232102F03DFD079802F0B0FB002804D1FFE70DA9F5
:2051E0000020087057E00AA80378002004900290042001900220009029482321012202F03C
:2052000025FD049809A90870FFE709A800780AA90978884230DAFFE723480890FFE7204858
:2052200004F078FF00281AD0FFE71D4805F03CFA8007002806D5FFE704F0A0FE0DA90020A3
:20524000087028E00898411E0891002806D1FFE704F094FE0DA9002008701CE0DFE7104863
:2052600005F036FA0B9909AA12788854FFE70998401C09A90870C8E7012002F05DFB0028FD
:2052800004D1FFE70DA90020087004E003F03AFE0DA90870FFE70DA800780EB080BDC046B4
:2052A00000200F40830400008813000080B594B0014613A80E90017000780021089104F0AD
:2052C000D1FF01460E98029100780121099104F0C9FF029902460E98891803910078022135
:2052E0000B9104F0BFFF039902460E9889180491007803210D9104F0B5FF049902460E9833
:20530000891805910078042104F0ACFF059902460E98891806910078052104F0A3FF069983
:2053200002460E98891807910078062104F09AFF079A089903460E98D21812AB10931A7015
:20534000007804F08FFF099902460E980A92007804F088FF0A9A0B9903460E98D2180C9275
:20536000007804F07FFF0C9A0D9903460E98D2180F92007804F076FF0F9902461098891863
:2053800011AA11700078032813D8FFE7134801780020002901901CD0FFE713A800780D2875
:2053A00007D0FFE713A8017800200729019010D1FFE711A8017800200329019009D3FFE783
:2053C00013A80078062104F04DFF414248410190FFE701980121084014B080BDE53A20204D
:2053E00080B596B049480F9005F002F80F9805F097F90F9804F08EF80F9804F05BFA0023B3
:20540000149300930120420410920E20194604F039FA109A149B00930F20194604F032FAFB
:205420003B4812900421119105F01FF912980821139105F01AF91199129805F02AF91298DE
:20544000139905F026F90520800105F0CFFA149815A90870FFE715A80078082817D8FFE726
:205460002B480C9004210D9104F056FFA0200E9005F0BCFA0C980D9905F00BF90E9805F02A
:20548000B5FAFFE71598401C15A90870E3E7204803900821049104F03FFFA02005F0A6FA2E
:2054A0000398049905F0F5F80520800105F09EFA0022079201920120C104059100914304FD
:2054C00008930F2009900421069103F093FB05980699079A089B019200900E200A9003F0CE
:2054E00089FB099804F0D0FD0A9804F0CDFD07480B9004F0D1FF0B9804F0AAFF102005F053
:2055000075FA03F09BFA16B080BDC04600200F4000200A4010B58EB00C900BA801800AA92C
:205520000A800021405E002806DCFFE70C99002008610DA9088079E0002201920BA8039072
:20554000805E0AA9895E401A09900C980069099A0A2151434018089008983749374A04F0EC
:2055600045F908900C980168099848437D21C900029103F013FB07900C9841680898484312
:205580002F4903F00BFB019B02990246039806920C9A0C24145F04949268C05E504303F069
:2055A000FDFA014604984018079940180699401805900598FF21F631884204DBFFE7099821
:2055C00000280CDCFFE70598002804D5FFE70998002804D4FFE708980C9908611DE00C987B
:2055E000416800694843164903F0D8FA06900C980C21415E0091816800220BA8805E48432C
:205600007D21C90003F0CAFA01460098401807994018069940180590FFE705987D218A0006
:20562000002103F0AFFB0DA90880FFE700210DA8405E0EB010BDC046E05EF8FF20A1070086
:2056400040420F00B0B58EB005F0CEF805903B4800680D903A4800680C90059805F0BAF874
:205660000D98384A1168401A0B900C9836490B68C01A0A900D9810600C9808600B98C117EF
:20568000324A02920023049304F004FC049B07910690069807992E4A039205F0C3F8029AE8
:2056A000049B09900A98C11704F0F4FB039A049B079106900698079905F0B4F808900998D3
:2056C0002449884203DBFFE723480990FFE708982049884203DBFFE71F480890FFE7002049
:2056E0001E4B0093195E099D032214466C430919CC17A40F09198908198019490191085E05
:20570000089B5A438018C217920F80188008088005F06AF800990246019805920988114A3B
:20572000118000881049088010490868401C0860059805F04FF80EB0B0BDC046003A20205E
:20574000303A2020043A2020343A2020A0D9080010270000C5090000C4090000743A202032
:20576000963A2020763A2020983A2020383A202080B58AB0024608A802700791002106913C
:2057800005AA117004AA117003AA117002AA1170079A11700078002805D0FFE705F01AF9CA
:2057A000002804D1FFE709A9002008806BE001A900200870FFE701A8007807283BD8FFE7F0
:2057C00008A8007801A9097804F04CFD00282CD0FFE701A801784A002D498A5E0699891825
:2057E00006910599491C05AA11700078022804D8FFE704A901200870FFE701A80078052801
:2058000004D3FFE703A901200870FFE701A80078032805D0FFE701A80078042804D1FFE791
:2058200002A901200870FFE7FFE7FFE70198401C01A90870BFE705A80078002814D0FFE79E
:2058400005A8007804280FD8FFE702A8007800280ED1FFE704A80078002809D0FFE703A865
:205860000078002804D0FFE709A9002008800AE0079901200870069805A9097803F08EF90A
:2058800009A90880FFE7002109A8405E0AB080BD34B0000080B588B00790354804F03AF8F6
:2058A000079801F0B3FB3348049004F033F802F04DF904F02FF8049804F02CF800210391C0
:2058C0002D48405E01F0A2FB049804F023F803992A48405E01F09AFB049804F01BF804F0B3
:2058E000DFF901F093FB049804F014F804F0ECF901F08CFB049804F00DF803992048405E2D
:2059000001F084FB049804F005F803991D48405E01F07CFB049803F0FDFF1B4801781B48B9
:205920001B4A05920029069001D105980690069803F0F0FF174803F0EDFF1748007801F021
:2059400065FB164803F0E6FF04F03AFF01461448144A01920029029001D10198029002989E
:2059600003F0D8FF104803F0D5FF08B080BDC046ECB200000FB50000783A20209A3A2020DB
:20598000703A2020923A2020EA3A2020CCB3000042B4000044B00000E33A202081B30000B3
:2059A00051B400008AB40000F0B4000082B00090009880684049884240DCFFE70098C068A9
:2059C0003D4988423ADCFFE7009800693A49884234DCFFE700984069374988422EDCFFE7BC
:2059E000009880697D21C900884227DCFFE70098C0697D21C900884220DCFFE70098006A36
:205A0000E1214900884219DCFFE70098406AE1214900884212DCFFE70098806A27498842AF
:205A20000CDCFFE70098C06A4F21C943884205DBFFE70098C06A512804DBFFE701A9002000
:205A4000087034E000988068002828D4FFE70098C068002823D4FFE70098006900281ED450
:205A6000FFE700984069002819D4FFE700988069002814D4FFE70098C06900280FD4FFE7DB
:205A80000098006A00280AD4FFE70098406A002805D4FFE70098806A002804D5FFE701A9DC
:205AA0000020087003E001A901200870FFE701A8007802B07047C046B80B00008813000054
:205AC00080B590B00EAB18800DA8069001800CA8028000210591425ED30FD21852100B92DC
:205AE000425E03205043820F801880100A903848405E50218C2203F045F90599024609A8F8
:205B00000280405E0A386421782203F03BF905990246069808AB1A80405E0B99884206DD1D
:205B2000FFE700210CA8405E002804DCFFE70E980FA9088047E000210DA8405E0A99884230
:205B400016DBFFE700220EA8805E08A9895E884205DAFFE700210EA8405E049004E0002183
:205B600008A8405E0490FFE704980FA908802AE00022029209A8805E039008A9895E411AAC
:205B80000DA8805E0B9A801A48430A99891A03F005F8029A01460398401A07A908800EA8AC
:205BA000805E895E884205DAFFE700210EA8405E019004E0002107A8405E0190FFE7019829
:205BC0000FA90880FFE700210FA8405E10B080BDB03A2020F0B5394A8218394BC0183A4D5D
:205BE0004C790B79002C22D0466F202B02D00524E70100E0354F2E40002B00D188273E435D
:205C00004667846F2C403C438467446B2D4E34404463846B3440846300244465846554680D
:205C20008F26F643344054609468344094600C688979202B09D006467036002B15D1641ECB
:205C40004460C46E2C40882715E0641E4460C46E2C401E4E3443C466046F2C4034430467CC
:205C60001B4D01246707064607E00527FF0164084460C46E2C403C43C46634682C403C43EC
:205C80003460C46A0F4D2C40C462046B2C4004630024C4640465C46F8F25ED432C40C467AF
:205CA00014682C401460194302680A4B1340BD220A40D118891C0160F0BDC04684180000B3
:205CC000041800008888FDFF24493E0001040000FFFFFFCF4000FFCF80B588B000200790EE
:205CE00006900590049003A9087004F015F803F071FB02F03DFC03F031FA03F0B7F802F084
:205D0000F7FA02F06FFEFDF76FFF04F0EBFD1520019003F09DFE019803F0F2FE2C4804F0BD
:205D20001BFC62B6FFE702F0EFFB04F059FE0699401A052806D3FFE704F052FE069004F074
:205D400085F8FFE703A80078002816D1FFE704F047FE2049884210D3FFE7FFF741FB03F06E
:205D600085F802F0C5FA04F03BFE059003A901200870194803F0CEFDFFE704F031FE049929
:205D8000401A0A2806D3FFE704F02AFE049003F0A9FDFFE703A80078002811D0FFE704F083
:205DA0001FFE0599401A0A280AD3FFE704F018FE059002A800F008FA0598FEF769FBFFE7C2
:205DC00004F00EFEFEF73EFC04F084FDABE7C0460000874070170000FAAE000080B588B024
:205DE00006AB187005A801700492394803900498002804D1FFE707A90020087064E003F0A4
:205E0000A7F8002807D1FFE733490620087007A90020087058E004F0C1F82E48029005A900
:205E20000122019202F0F8FC019B029806A90978002202F02FFF02F0C7FA002805D0FFE788
:205E400003F086F8002804D1FFE707A9002008703AE006A801781F4801231A4602F01AFF6F
:205E6000FFE71C4804F064F900281BD0FFE7194804F024FC8007002806D5FFE704F08EF82F
:205E800007A9002008701FE00398002806D1FFE704F084F807A90020087015E00398401E95
:205EA0000390DEE70B4804F01DFC0499087002F08BFA002804D1FFE707A90020087003E090
:205EC00007A901200870FFE707A8007808B080BD8813000000200F40C53A2020B0B53A4A45
:205EE00080184A6842600A78222A56D8930001A4E3589F46915F00009B5F0000915F000088
:205F00009B5F00009B5F00009B5F00009B5F00009B5F00009B5F00009B5F00009B5F0000B1
:205F20009B5F00009B5F00009B5F00009B5F00009B5F0000815F00009B5F0000815F0000C5
:205F40009B5F00009B5F00009B5F00009B5F00009B5F00009B5F00009B5F00009B5F000071
:205F60009B5F00009B5F00009B5F00009B5F00009B5F0000815F00009B5F0000815F000085
:205F8000036803242407A343012464071B1903E0036803242407A34303600B69C360CB68E7
:205FA000C46A0A4D25400A4C1C402B19C3620368084C1C400460097A114302683F239A43DD
:205FC000194051180160B0BD041800008888FDFF777702007F00FFFF80B584B00390304828
:205FE00003F098FC03982F490968401A01F00EF82D48019003F08EFC002102912B48405EFD
:2060000001F004F8019803F085FC02992848405E00F0FCFF019803F07DFC03F041FE00F0CB
:20602000F5FF019803F076FC03F04EFE00F0EEFF019803F06FFC02991E48405E00F0E6FFE7
:20604000019803F067FC1C48007800F0DFFF019803F060FC1948007800F0D8FF019803F093
:2060600059FC02F037FC00F0D1FF019803F052FC1348007800F0CAFF019803F04BFC114854
:20608000007800F0C3FF019803F044FC02990E48405E00F0BBFF0D4803F03CFC04B080BD60
:2060A000C2B400001C3A20200FB50000783A20209A3A20207C3A2020DB3A2020DC3A202069
:2060C000E53A2020E73A2020B23A2020F0B4000080B588B00790079837490968884201D100
:2060E000FFE766E0079834490A68801A05900798086005981A2803D3FFE719200590FFE761
:2061000006A900200870FFE706A80078022850D8FFE706A8017806224A4328498918049171
:20612000007802F073F8014603A80170007804990978884214D1FFE7049880880599401862
:20614000029002981E49884203D3FFE71D48019002E002980190FFE701980499888006E019
:20616000039804990870049900208880FFE704988088192804D3FFE7039804994870FFE74C
:206180000498807800280BD1FFE704984078002806D0FFE706A800780799FEF753FDFFE758
:2061A000049948788870FFE70698401C06A90870AAE708B080BDC046DC392020A839202081
:2061C00061EA000060EA000080B582B001906946002008700198002801D1FFE763E03348B4
:2061E00000785D281BD1FFE731480078002816D0FFE7684604F002FB00280CD0FFE76846B4
:20620000007803F083F82B4800780199087001990120487047E0264900200870FFE703F021
:206220008FFD014621480170007800280CD1FFE7042001F009FC1F480078019908701E48DD
:206240000078019948702EE0184800785D280CD0FFE7072001F0F8FB164800780199087054
:2062600015480078019948701DE0684604F0C6FA00280CD0FFE76846007803F047F80D4801
:206280000078019908700199012048700BE0052001F0DAFB0748007801990870064800788C
:2062A00001994870FFE702B080BDC046C73A2020D13A2020DF3A2020D93A202080B5B6B0DE
:2062C00036480290007848210491414334480390401800F07FFD02980399049A314B0A93F4
:2062E00003230B93A8230C9300780D900AA80590103004F081FB0399049A0598583048318C
:2063000004F07AFB059800222749895E329102F023FA3390EFF3108035903598089072B6A5
:206320002248069003F0E0F906987F21890207910122520200F070FA06980799402203F0CC
:20634000DFFF014609A80170007803280DD1FFE70120400200907F20810214480AAA2A231D
:2063600001F0B4FB09A90870FFE70898002802D1FFE762B6FFE709A80078032804D0FFE7E0
:2063800034A90020087004E0FDF728F934A90870FFE734A8007836B080BDC046573A202006
:2063A00090372020314449506C3A202000D00C4080B586B005902F480078002806D0FFE7F3
:2063C0002D480088C0084B2801D3FFE750E02A48019000881621414328484018049003F006
:2063E0005FFC03A9088003F06FFC02A90880059823490968401A0021224A03F0F7F904999C
:20640000088021490888049A508020480288049B9A80039A049BDA80029A049B1A811C4A0F
:206420001288049B5A811B4A1288049B9A810988039A891A049AD18100880299401A0499B4
:20644000088203F06BFD009003F078FD01460098401A1149114A02F095FC0499488202F095
:2064600039FA0199049A90820888401C0880FFE706B080BDBE3A20209C3A202000002020C4
:206480001C3A2020FFFF0000783A20209A3A2020703A2020923A20200080FFFFFF7F000070
:2064A00080B582B00190304803F034FA0198008800F0ACFD2D4803F02DFA01980221405EA8
:2064C00000F0A4FD2A48009003F024FA01980421405E00F09BFD009803F01CFA01980621D3
:2064E000405E00F093FD009803F014FA01980821405E00F08BFD009803F00CFA01980A21B8
:20650000405E00F083FD009803F004FA01980C21405E00F07BFD009803F0FCF901980E21D0
:20652000405E00F073FD009803F0F4F901981021405E00F06BFD009803F0ECF901981221E9
:20654000405E00F063FD0B4803F0E4F901981421405E00F05BFD084803F0DCF9074803F01C
:20656000D9F902B080BDC04647B40000EAB300000FB50000FCB2000057B30000F0B400009C
:2065800080B584B00390A02001F0E8FE002801D1FFE759E02D4803F0BDF90398C06900F07D
:2065A00035FD2B48009003F0B5F9039841782948294A01924C29029001D00198029002989D
:2065C00003F0A8F90398808A00F020FD009803F0A1F90398006B00F019FD009803F09AF926
:2065E00003982421405E00F011FD009803F092F90398C08A00F00AFD009803F08BF9039883
:20660000806B00F003FD009803F084F90398006C00F0FCFC009803F07DF90398006A00F0B2
:20662000F5FC009803F076F90398008B00F0EEFC009803F06FF903984821405C00F0E6FC0A
:20664000064803F067F9FFE704B080BDDEB400000FB5000002B50000F3B40000F0B400006A
:2066600080B586B005AB187004A80180039228480078012803D0FFE7FEF736FCFFE7254970
:206680000020087024490870214A01211170234908802349088005A800784C2804D1FFE733
:2066A00004981E49088010E005A80078522804D1FFE704981A49088006E004981749088014
:2066C000049817490880FFE7FFE703981549086003981549086000221048805E1049895E10
:2066E00000F0E4FD114803F015F904F069F801460F48104A01920029029001D101980290D7
:20670000029803F007F90C4803F004F906B080BDDD3A2020EA3A2020E93A2020703A2020AD
:20672000923A20201C3A2020E8392020F3B0000051B400008AB40000F0B4000089B00790FC
:206740000691002005900121049103A90870079800782D2807D1FFE70020C0430490079892
:20676000401C079009E0079800782B2804D1FFE70798401C0790FFE7FFE7FFE707980178BC
:206780000020302902900DDBFFE7079801780020009001203A29019001DB009801900198A5
:2067A0000290FFE70298C007002818D0FFE703A90120087005981749884204DBFFE708A988
:2067C0000020087022E005980A214143079800784018303805900798401C0790CEE703A875
:2067E0000078002805D0FFE707980078002804D0FFE708A90020087008E00599049848434F
:206800000699086008A901200870FFE708A8007809B0704701C2EB0BF0B583B002920190F3
:20682000304B314D00918C0A28680727384005262E60196889048A0F2860296839402E6082
:2068400018682960002A214608D028490840511C02F020FE0146204602F01CFE0198204AD4
:20686000801801902A683A402E601E4803682A602A683A402E6003682A6001229302029819
:20688000984207D0530298420CD10098C30B0BD1019803E01F210C4001984030A24001689D
:2068A0009143016003B0F0BDFF290DD82B683B402E600C4C24682B60A3049B0F019800D170
:2068C0002039CC08001DE9E71302FF339942E9D2FF23DB43C918CC0801980830DEE7C04630
:2068E000D01100001800C44100134040FF0F000080B58CB00AA905910880002103912F488B
:20690000405E50210291DC2202F03CFA0299039A09AB18802A48805E8C2202F033FA039A71
:2069200008A908804B21880007AB049318802548805EFA38C9001922520102F023FA0399CA
