:2000000000802020158F0000098F0000098F0000000000000000000000000000000000004C
:20002000000000000000000000000000098F00000000000000000000098F0000098F0000F8
:20004000098F0000056E0000098F0000098F0000098F0000315C0000098F0000098F000010
:2000600000000000098F0000098F00000000000000000000098F0000C96B0000098F0000EC
:20008000098F0000098F0000098F0000098F0000098F000065830000000000000000000080
:2000A000098F0000098F00000000000000000000098F000000000000098F0000098F000048
:2000C00010B59CB01B901A911B9807F0EAFF1B9815A9052204F060FF014614A8017000784F
:2000E000002802D1FFE700F00AFF14A8007801280CD1FFE71598FC4906F008F8002805D021
:20010000FFE7FA4807F080FE00F0F9FE14A8007802281CD1FFE71598FC4905F0F7FF002825
:2001200015D0FFE7169813A904F086FD00280ED0FFE7139800280AD4FFE71398F4498842DE
:2001400005DCFFE7139805F0BFFD00F0D7FE14A8007801280BD1FFE71598EE4905F0D6FFEA
:20016000002804D0FFE707F071FF00F0C6FE14A80078012821D1FFE71598E74905F0C6FFB6
:2001800000281AD0FFE7E54900200D90087005F037F80D98E2490870E2490870E249087052
:2001A000E2490870E2490870E2490870E2490870E24807F029FE00F09FFE14A80078012881
:2001C0000CD1FFE71598DE4905F0A0FF002805D0FFE71A9803F0DAFE00F08DFE14A80078E5
:2001E00001280BD1FFE71598D64905F08FFF002804D0FFE705F02EFC00F07CFE14A8007826
:2002000001280BD1FFE71598CF4905F07FFF002804D0FFE705F058F800F06BFE14A8007807
:2002200001280BD1FFE71598C84905F06FFF002804D0FFE704F046FE00F05AFE14A800781C
:20024000022815D1FFE71598C04905F05FFF00280ED0FFE71698BE4905F058FF002807D0B3
:20026000FFE707F017FBBB4807F0CEFD00F03FFE14A8007802281CD1FFE71598B64905F0CB
:2002800045FF002815D0FFE7B4480078002810D1FFE71698B24905F039FF002809D0FFE707
:2002A00007F048FC002006F01FFD02F0E3FB00F01DFE14A8007802281CD1FFE71598A64929
:2002C00005F024FF002815D0FFE7A4480078002810D1FFE71698A34905F018FF002809D019
:2002E000FFE707F027FC012006F0FEFC02F0C2FB00F0FBFD14A8007801280BD1FFE715988A
:20030000994905F003FF002804D0FFE702F0B2FB00F0EAFD14A80078022842D1FFE71598A8
:20032000924905F0F3FE00283BD0FFE7169813A904F082FC002834D0FFE71398002830D41E
:20034000FFE71398724988422BDCFFE783480078002826D1FFE7139810908548007800289A
:200360000CD0FFE7834800681099884206D1FFE710988149097806F019FF10E007F0DAFB9B
:2003800004F092FA7C49087010987A4A1060784A012010701098097806F008FFFFE700F065
:2003A000A2FD14A8007801281DD1FFE715986F4905F0ACFE002816D0FFE768480078002825
:2003C00011D1FFE707F0B6FB04F06EFA002804D0FFE76A4807F018FD03E0694807F014FD15
:2003E000FFE700F07FFD14A8007801281DD1FFE71598644905F08AFE002816D0FFE7574810
:200400000078002811D1FFE701F034FE002806D0FFE75D4807F0F8FC02F02CFB03E05B483E
:2004200007F0F2FCFFE700F05CFD14A80078012811D1FFE71598564905F068FE00280AD0DA
:20044000FFE746480078002805D1FFE71A9807F007F800F045FD14A8007802281ED1FFE7BF
:2004600015984C4905F052FE002817D0FFE71698494905F04BFE002810D0FFE72849012002
:2004800008702849002008701A9844490860444807F0BAFC08F08EFC00F021FD14A8007837
:2004A00002281CD1FFE715983A4905F02FFE002815D0FFE716983B4905F028FE00280ED0A7
:2004C000FFE71749002008701649012008701A9832490860344807F097FC00F0FFFC14A804
:2004E000007802286ED103E09F970000219700001598284905F00AFE002863D0FFE7169840
:200500002A4905F003FE00285CD051E06C970000FFFFFF7F9A970000DB9700004034202017
:2005200013362020F1352020F0352020F835202012362020113620200E362020D095000002
:200540001A970000F7960000309800007897000072970000D0930000A09600000536202069
:200560003C9700002897000054970000A9970000FD35202030352020FC352020C6950000DB
:2005800064950000AE970000EE9500009B950000EA970000DB960000759800003C352020BA
:2005A00052940000E5970000E1930000F8970000FE4900200870FE490870FE4807F024FCDB
:2005C00000F08BFC14A8007802285CD1FFE71598F94905F09BFD002855D0FFE7169813A91A
:2005E00004F02AFB002809D0FFE71398002805D4FFE71398F149884204DDFFE7F04807F0C4
:2006000003FC3EE0EF480078002810D0FFE71398EC49C96988420AD1FFE7EB4807F0F4FB6A
:20062000139804F0CFFFE94807F0EEFB28E0E8480078002806D0FFE71398E649C9698842D2
:2006400005D0FFE71398E44907F07AF817E0E1480078012804D1FFE7DE4804F06DFD0DE0B1
:20066000DC480078022804D1FFE7DA4804F006FA03E0DA4807F0C8FBFFE7FFE7FFE7FFE78C
:20068000FFE700F029FC14A80078042800D085E01598D34905F03AFD00287FD0FFE71698CA
:2006A00013A904F0C9FA002878D0FFE7179812A904F0C2FA002871D0FFE7189811A904F0AA
:2006C000BBFA00286AD0FFE713988121C943884264DBFFE71398822860DCFFE7129832285A
:2006E0005CDBFFE7129819210901884256DCFFE71198002852D4FFE71198B04988424DDC9B
:20070000FFE711980F90B748007800280BD0FFE7B54800680F99884205D1FFE70F98B34915
:2007200006F0C6FF39E0B248007805280AD0FFE7AF48007806282AD1FFE7AE480078002872
:2007400025D1FFE7AC480078002808D0FFE70021AA48405E07F070FB052805DBFFE70F98BE
:20076000A74906F0A5FFCAE31398A64908801A9812994018A44908600F989B490860994941
:20078000012008700F98994906F092FF04E00F989B4906F08DFFFFE7FFE79CE314A8007840
:2007A000032851D1FFE715988D4905F0AFFC00284AD0FFE7169813A904F03EFA002843D0EA
:2007C000FFE7179812A904F037FA00283CD0FFE713988121C943884236DBFFE7139882281B
:2007E00032DCFFE7129832282EDBFFE7129819210901884228DCFFE77F480078002823D016
:20080000FFE700217D48405E07F016FB04281BDCFFE77748007805280AD0FFE77448007805
:20082000062811D1FFE77348007800280CD1FFE71398744908801A981299401872490860DC
:20084000724807F0E1FA45E314A80078032838D1FFE715986E4905F059FC002831D0FFE7D9
:20086000179813A904F0E8F900282AD0FFE71398002826D4FFE713989B218900884220DCC7
:20088000FFE71698634905F041FC00280ED1FFE71698614905F03AFC002807D1FFE71698E2
:2008A0005E4905F033FC00280BD0FFE74548002202701698007813A9895E1A9A04F04EF9AB
:2008C00007E314A80078052855D1FFE71598544905F01CFC00284ED0FFE716984D4905F005
:2008E00015FC002807D1FFE716984B4905F00EFC002840D0FFE7179813A904F09DF9002885
:2009000039D0FFE7189812A904F096F9002832D0FFE7199811A904F08FF900282BD0FFE7FA
:200920001398002827D4FFE713989B218900884221DCFFE712987D21C90088421BDBFFE7AF
:2009400012987D210901884215DCFFE71198002811D4FFE71198194988420CDCFFE71698B7
:200960000078002213A9895E129A119B1A9C009404F0DAFEACE214A80078052800D092E09B
:200980001598284905F0C2FB002800D18BE01698204905F0BBFB002846D1FFE716981E4927
:2009A00005F0B4FB00287ED03EE0C04613362020F13520202494000078960000FFFFFF7FC8
:2009C000F293000040342020389800006398000000362020F033202090960000619400001F
:2009E000B8970000FB3520202435202069980000053620200F36202004362020AE35202001
:200A000018980000B235202050352020BC95000010980000829800007C9800007E980000FD
:200A20001D9600002F960000179813A904F004F9002838D0FFE7189812A904F0FDF8002850
:200A400031D0FFE7199811A904F0F6F800282AD0FFE71398502826DBFFE713984B21C90070
:200A6000884220DCFFE712987D21890088421ADBFFE71298FD49884215DCFFE711980028F2
:200A800011D4FFE71198FA4988420CDCFFE716980078002213A9895E129A119B1A9C00947A
:200AA00004F094FE13E214A8007804282BD1FFE71598F04905F02AFB002824D0FFE71798C8
:200AC00013A904F0B9F800281DD0FFE7189812A904F0B2F8002816D0FFE71298002812D405
:200AE000FFE71298E24988420DDCFFE71698139901F090F8002806D0FFE712981699139AE5
:200B000006F030FAE2E114A8007803281BD1FFE71598D84905F0FAFA002814D0FFE7179869
:200B200013A904F089F800280DD0FFE71698139901F070F8002806D0FFE7CF4807F064F997
:200B400001F098FFC1E114A80078042852D1FFE71598F14905F0DAFA00284BD0FFE716987B
:200B6000EA4905F0D3FA002807D1FFE71698E84905F0CCFA00283DD0FFE7179813A904F086
:200B80005BF8002836D0FFE7189812A904F054F800282FD0FFE7139850282BDBFFE713987C
:200BA0004B21C900884225DCFFE712987D21890088421FDBFFE71298D64988421ADCFFE765
:200BC000E94900200A90087016980178022003220B924C290C9001D00B980C900A9C0C983B
:200BE00013A9095F129A1A9B01940124009402F035FC69E114A8007803284AD1FFE71598A8
:200C0000C64905F083FA002807D1FFE71598C44905F07CFA00283CD0FFE7169813A904F0D0
:200C20000BF8002835D0FFE7179812A904F004F800282ED0FFE7139850282ADBFFE713987F
:200C40004B21C900884224DCFFE712987D21890088421EDBFFE71298AE49884219DCFFE7EF
:200C60001598AF4905F052FA01460520042208920029099001D1089809900998002413A914
:200C8000095F129A1A9B01940124009402F0E6FB19E114A80078042800D081E01598A14948
:200CA00005F034FA00287BD0FFE7169813A903F0C3FF002874D0FFE7179812A903F0BCFF2F
:200CC00000286DD0FFE7189811A903F0B5FF002866D0FFE71398502862DBFFE71398E12181
:200CE000490088425CDCFFE71298012858DBFFE712980A2854DCFFE71198002850D4FFE70A
:200D00001198804988424BDCFFE711980E9090480078002817D0FFE78E4800680E9988424F
:200D200011D1FFE70E9805908B4801788B488C4A06920029079001D106980790059807991F
:200D400006F0DAFC2BE070480078002805D0FFE70E98844906F0D0FC20E0002113A8405EFA
:200D600012A909781A9A01F08BFD01467A4801700E99784A1160764A012111700E99029119
:200D800001787648764A03920029049001D1039804900298049906F0AFFCFFE7FFE791E0F4
:200DA00014A80078032837D1FFE715985D4905F0ADF9002830D0FFE7169813A903F03CFF52
:200DC000002829D0FFE7179812A903F035FF002822D0FFE7139850281EDBFFE71398E121CC
:200DE0004900884218DCFFE71298012814DBFFE712980A2810DCFFE7002113A8405E12A97B
:200E000009781A9A01F03CFD002804D1FFE74F4806F0FAFFFFE754E014A8007803284BD175
:200E2000FFE71598404905F071F9002844D0FFE7169813A903F000FF00283DD0FFE71798EF
:200E400012A903F0F9FE002836D0FFE71398502832DBFFE713984B21C90088422CDCFFE72B
:200E600012987D218900884226DB07E0983A0000FFFFFF7F00980000029600001298254959
:200E8000884219DCFFE720480078002814D1FFE71398274908801298264908602649012026
:200EA00008702649002008702549087025490870254806F0A9FF03E01C4806F0A5FFFFE715
:200EC000FFE7FFE7FFE7FFE7FFE7FFE7FFE7FFE7FFE7FFE7FFE7FFE7FFE7FFE7FFE7FFE7B2
:200EE000FFE7FFE7FFE7FFE7FFE7FFE7FFE7FFE7FFE7FFE7FFE7FFE7FFE7FFE7FFE71CB0AC
:200F000010BDC046FFFFFF7F05362020829800007C980000983A0000C297000028980000EE
:200F2000E09700002F9700005C98000092920000983520200C3520201236202011362020BF
:200F400013362020F03520208391000002920000FF35202038352020FE3520206998000066
:200F600018980000C797000040342020B0B5BAB0399007F06DFA3890FB480078022815D027
:200F8000FFE7F9480078032810D0FFE7F648007804280BD0FFE7F4480078052806D0FFE781
:200FA000F1480078062801D0FFE7A8E33898EF490968884201D1FFE7A1E33898EB49086025
:200FC000399800F0D3FB002801D0FFE797E3E6480078022808D1FFE7E5480088E54908802F
:200FE000E5490020088060E3DF480078032808D1FFE7E04900200880DD480088DE49088022
:2010000052E3D9480078052805D0FFE7D6480078062800D0C0E2D648008835A90880399807
:20102000D6490968401A3090CF48007806280AD1FFE7D3480078042805D1FFE7D14800886C
:2010400035A9088010E03098CF4988420BD8FFE70021C748415E30984843CC4906F03AFC64
:2010600035A90880FFE7FFE707F026FF01467F200140C7480170007831A902F0F5FEC54936
:2010800008803198C4490870B7480078062800D093E0BB48007800284DD1FFE705F000FDF9
:2010A0000146BE4801800022805EBD49895E884206DAFFE7BB4900200870BB49087039E0B4
:2010C000B8480078072811D8FFE7B148007805F055F9002805D0FFE7B2490878401C0870B4
:2010E00003E0B04900200870FFE722E0A848007805F0FEF900280BD0FFE7AB480078FF28C5
:2011000005D0FFE7A8490878401C0870FFE703E0A54900200870FFE7A3480078022807D333
:20112000FFE7399804F0A8FA399800F01FFBE6E2FFE7FFE740E09248007804283BD1FFE763
:2011400039989A490968401A2F902F98782812D3FFE78F48007805F011F900280BD0FFE7E8
:2011600093480078FF2805D0FFE791490878401C0870FFE703E08E4900200870FFE78C481A
:20118000007803280CD3FFE7399801F013FF002801D0FFE7B3E27648008835A9088009E00A
:2011A0002F984009192804D3FFE7824806F04CFCA5E2FFE7FFE7FFE7FFE731A80078002881
:2011C00000D156E173481B9000211A91405E06F033FE1A992EAA1892108077481990405E45
:2011E00006F02AFE1A9902461B982DAB1A802CABA0221A8000882AAA108029AA0820108007
:201200006E48006828906E480068279035A8415EFF225432012091421C9001DC1A981C9025
:201220001A9A19991B981C9B26AC237000880988401A32A91791088062481690805E40008D
:20124000895E4018032105F0E5FE169A179B1A9904461898148012881A80405E022805DCD3
:20126000FFE72AA900200880289028E000212EA8405E042806DCFFE72898C10F401840108C
:2012800028901BE000212EA8405E0A2815DBFFE726A80078002809D0FFE728990520484360
:2012A000C117890F40188010159003E0289840001590FFE715982890FFE7FFE7FFE700228A
:2012C0002EA8805E2DA9895E884208DAFFE7279903204843C10F40184010279008E02799C6
:2012E00003204843C117890F401880102790FFE700212EA8405E022803DCFFE700202790F0
:20130000FFE726A8007800285ED0FFE700212EA8405E042812DCFFE72CA92D200880002105
:201320002EA8415E0A20052213920329149001DB13981490149829A9088014E000212EA856
:20134000405E0A2807DBFFE72CA97D20088029A91220088006E02CA95A20088029A90820B8
:201360000880FFE7FFE753E00536202034352020D4352020AC352020CC3520205C35202046
:201380000F362020DA352020DB050000DC05000003362020AE35202004362020A03520208D
:2013A0009C352020F5352020F63520207C35202016362020AC930000B83520205435202095
:2013C0004C352020B035202000212EA8405E042812DCFFE72CA92D20088000212EA8415E52
:2013E0000A20052211920329129001DB11981290129829A908800AE000212EA8405E0A284F
:2014000004DBFFE729A912200880FFE7FFE7FFE72899002310932AA8C05E4843279A32A92B
:20142000C95E514340187D21C90005F0F3FD109A2CA98A5E514209B205F0E0FE109B0146D3
:201440002BA80180C05EBD490F91CA5E29A9CB5ED11AD21809B212B205F0D0FE0F9A01464A
:2014600010981180B2490988B94A1180B149088038E0B0480088B049884205D8FFE7AD497D
:2014800008880A300880FFE7AA480088C0084B2813D3FFE79B480078062804D1FFE7AB485C
:2014A00006F0D2FA08E003F0ABFEA64900200870A54806F0A9FCFFE721E19E4800886428F5
:2014C0000FD3FFE79D48002101809D48018035A8405E652804DBFFE735A964200880FFE7BA
:2014E000FFE7FFE79548008833A9088000219948405E002816D0FFE7974800683999401A50
:2015000001280FDBFFE7002233A80E90805E9149895E40189F21C943A02205F06FFE0E99A9
:20152000088005E08B49002008808B490860FFE73599143934A801800021405E002804D568
:20154000FFE734A900200880FFE700220B9233A80A90805E34A98A5E514209B205F04EFED4
:201560000A9A0B99108035A80D90405E525E80184B22D2000C9205F041FE0A9B0B990C9A33
:2015800004460D98684D2C80405E5B5EC01A05F035FE6649088086E05B48008825A9088084
:2015A00006F036FF089006F043FF01460898401A249006F02DFF099006F03AFF0146099869
:2015C0004018C10F401840102390239900224F48805E48434E4905F01DFD229024982299DB
:2015E000401A219039984B490968401A1D901D98494988420BD8FFE700214348415E1D9829
:201600004843464906F066F925A90880FFE7002125A8405EC20F801842081FA80280405EF9
:201620003D2804DBFFE71FA93C200880FFE73C4800681E901D983849884208D8FFE71E98D8
:2016400040000021374A06F04BFB1E90FFE71E99219848437D21C90005F0DCFC00220592F0
:201660001FA98A5E514209B205F0C8FD059920AA0492108025A80790405E525E801A4B226B
:20168000D200069205F0BAFD049B0599069A04460798254D2C80405E5B5EC01805F0AEFD81
:2016A00022490880FFE7FFE7FFE706F073FD37A90091088006F082FD0146009836AA01925F
:2016C0001180002202921849895E825E234802F09DFA029A01460198214B03931980134934
:2016E000895E825E1F4802F091FA029A034603981D490B80805E895E04F00CF9FFE73AB040
:20170000B0BDC04605362020D4352020C2352020102700005C352020DB050000DC05000092
:201720008435202088130000AC352020CC352020AE352020B63520205FEA0000BA352020ED
:20174000B03520201336202035930000DA950000B8352020B235202050352020D034202047
:20176000A4352020E4342020C435202010B58CB00A9004A900200870ED48007806280AD129
:20178000FFE7F3480078002805D0FFE7F0480078042804D1FFE70BA900200870FBE10A986C
:2017A000EC490968401A0990FD480078012847D1FFE7E0490A88E04802800A88DF490A8003
:2017C000DF4A1388DF4C23801288DF4B1A800022805E895E04F09EF8099832282CD3FFE7C8
:2017E00007F022FB002807D1FFE7D84806F02CF90BA901200870CEE107F050FAF44900201A
:2018000003900880F1490880E7490120087006F073FDE649086006F081FD01460398E44AA1
:201820001160E4490880F3490870DD49022008700A98DC490860FFE70BA901200870AAE121
:2018400007F0F2FA002804D1FFE7D74900200870FFE706F051FDD5490968401A069006F06B
:201860005DFDD3490968401A05900698002804D5FFE7069840420690FFE70598002804D5D3
:20188000FFE7059840420590FFE7069805994018C10F40184008C749088007F00DFB7F218D
:2018A0000840C5490870C5480078002820D1FFE7C148007806F021F900280BD1FFE7C24851
:2018C0000078FF2805D0FFE7BF490878401C0870FFE703E0BC4900200870FFE7BA4800788C
:2018E000022804D3FFE7B54901200870FFE721E00022B048805EB249895ECA0F89184910D6
:20190000884212DBFFE7AC48007806F0F6F800280BD0FFE7AB480078FF2805D0FFE7A949B2
:201920000878401C0870FFE703E0A64900200870FFE7FFE707F078FA002835D0FFE706F0C5
:20194000E1FE014608A801800021405E002805D5FFE70898404208A90880FFE792480078F6
:20196000002811D0FFE7089898490988401A00B206F062FAC82807DCFFE70898934908804B
:201980000898934908800EE0089890490988401A00B206F051FAC92804DBFFE7824900205D
:2019A0000870FFE7FFE7FFE70A987E490968401A099084480078032827D3FFE77A480078A7
:2019C00000280CD0FFE700218148405E7D218900884204DBFFE704A90120087014E07248EB
:2019E000007800280FD1FFE700227248805E81007348825E03205043884204DCFFE704A9B8
:201A000001200870FFE7FFE7FFE70998C008AF2807D3FFE77E4806F017F80BA90120087063
:201A2000B9E00998DC2851D3FFE704A8007800281AD1FFE75C480078002808D1FFE700221C
:201A40005C48805E5E49895E88420DDAFFE75648007800283AD0FFE700225D48805E5D4966
:201A6000895E884232DBFFE70498624908704C49042008700A984B4908605F4900200290DA
:201A800008705E4908805E4908805E4908805549088055490880554908805549088006F0B3
:201AA00049F807F037F958480078401CC0B2574909788906090E884204DBFFE70A9801F0EF
:201AC00079FAFFE70BA90120087064E034480078022823D1FFE70998DC281FD3FFE732482D
:201AE000007800280CD0FFE700213948405E39490988394A1288891A09B288420ADAFFE722
:201B000000212C48405E2E490988193909B2884204DBFFE7224903200870FFE72048007822
:201B2000022819D1FFE700212D48405E019018E005362020E2352020A4352020C4352020CA
:201B4000DA352020AC352020CC352020709400000F3620207C35202000212048405E0190A2
:201B6000FFE7019807A90880079841421D480180079A1D490A80079A52421C4B1A80079A3E
:201B80001B4B1A800022805E895E03F0C3FE0BA901200870FFE70BA800780CB010BDC046BD
:201BA0000F3620207C3520201A362020883520208C352020E43520200336202019362020C0
:201BC000D83520201736202018362020DE352020E6352020D6352020E0352020E2352020F8
:201BE000DC352020A4352020C4352020AC352020CC3520201536202016362020B83520209C
:201C0000B0352020B63520200D362020103620209A94000080B584B0029001910298F249DB
:201C200004F074FA002811D0FFE70198002805D4FFE70198EA49884204DBFFE703A90020AC
:201C40000870C8E10198E7490860BEE10298E74904F05CFA002811D0FFE70198002805D4F6
:201C6000FFE70198DE49884204DBFFE703A900200870B0E10198FC494860A5E10298DC498F
:201C800004F044FA002811D0FFE70198002805D4FFE70198F649884204DBFFE703A9002070
:201CA000087098E10198EF4908608CE10298D14904F02CFA002811D0FFE70198002805D436
:201CC000FFE70198EA49884204DBFFE703A90020087080E10198E349486073E10298C649B4
:201CE00004F014FA002811D0FFE70198002805D4FFE70198DD49884204DBFFE703A9002059
:201D0000087068E10198D84988605AE10298BB4904F0FCF9002811D0FFE70198002805D415
:201D2000FFE70198D149884204DBFFE703A90020087050E10198CB49886041E10298B049BC
:201D400004F0E4F9002812D0FFE70198002806D4FFE70198FF21C431884204DBFFE703A958
:201D60000020087037E10198BF49888127E10298A44904F0CBF9002812D0FFE70198002811
:201D800006D4FFE70198FF21C431884204DBFFE703A9002008701EE10198B24988810DE178
:201DA0000298994904F0B2F9002811D0FFE70198002805D4FFE70198A849884204DBFFE780
:201DC00003A90020087006E10198A5490860F4E002988E4904F09AF9002812D0FFE7019894
:201DE0004F21C943884204DBFFE70198512804DBFFE703A900200870EDE0019896490880F0
:201E0000DAE00298824904F081F9002811D0FFE70198002805D4FFE701988C49884204DBAF
:201E2000FFE703A900200870D5E0019889490860C1E00298774904F069F9002811D0FFE7B0
:201E40000198002805D4FFE701988049884204DBFFE703A900200870BDE001987C4908606A
:201E6000A8E002986C4904F051F9002813D0FFE70198AF218900884205DBFFE70198714987
:201E8000884204DBFFE703A900200870A3E001986D4908808DE00298604904F037F9002819
:201EA00019D0FFE7019864280DDBFFE701984B218900884207DCFFE7019800226049895EF4
:201EC000884204DAFFE703A90020087083E001985A4908806CE00298514904F017F900285D
:201EE00017D0FFE7019850280BDBFFE70198FA2807DCFFE7019800225049895E884204DDCE
:201F0000FFE703A90020087065E001984C4908804DE00298434904F0F9F8002812D0FFE774
:201F20000198322806DBFFE70198FF216031884204DBFFE703A9002008704CE001983E497E
:201F4000088033E00298384904F0E0F8002810D0FFE70198502804DBFFE70198FB2804DBA0
:201F6000FFE703A90020087035E00198314908801BE002982D4904F0C9F8002810D0FFE7D9
:201F80000198322804DBFFE701988D2804DBFFE703A9002008701EE001982549088003E0C2
:201FA00003A90020087016E0FFE7FFE7FFE7FFE7FFE7FFE7FFE7FFE7FFE7FFE7FFE7FFE71F
:201FC000FFE7FFE7FFE7FFE7FFE706F0A3FE03A901200870FFE703A8007804B080BDC046A7
:201FE000B90B0000D034202020980000449800004898000024980000509800001C9800000D
:2020000090970000A4970000BD970000EF970000C6960000CD960000E49500005396000063
:202020000B960000859500004196000014960000D8352020DA352020E0352020DC35202022
:20204000E23520204D040000D6352020214E00004C35202054352020C235202089130000C1
:2020600084352020E4342020D0342020E9030000B90B000080B5E4B07F208002629061904E
:2020800062980068B949884243D1FFE76298406803283ED1FFE77F2080024C904C9922A8AA
:2020A000A82206F027FF2498A82810D1FFE74B98089022A804F0E8FD01460898884206D141
:2020C000FFE722A804F050FC002804D1FFE763A90020087046E122A905911031B34807902E
:2020E0004822069206F006FF0599069A07985831483006F0FFFE06990798259BAA4A13709D
:2021000012785143401803F0FFF963A90120087028E1629800689549884239D1FFE76298BC
:202120004068022834D1FFE77F208002219021990BA8582206F0DEFE0D98582810D1FFE76B
:20214000209804900BA804F06FFD01460498884206D1FFE70BA801F0C7F8002804D1FFE770
:2021600063A900200870FDE00BA803F06FF98E49002008708D48039003F008F9039908461B
:202180004830482206F0B6FE63A901200870E9E0619800684D90619840684E9061988068A7
:2021A0004F906198C06850906198006951906198406952906198806953906198C0695490AD
:2021C0006198006A55906198406A56906198806A57906198C06A58906198006B5990619813
:2021E000406B5A906198806B5B906198C06B5C906198006C5D906198406C5E906198806CA1
:202200005F906198C06C60904D985849884214D1FFE74E98012810D1FFE7599802904DA851
:2022200005F078FB01460298884206D1FFE74DA801F038FF002804D1FFE763A9002008702A
:2022400090E04F984A4A10605098506051984949086052984860539890605498886055987A
:202260009081569888815798434908605898434908805A98401C002817D0FFE74DA8818E28
:202280000A91C08E09900A983D4988420CDCFFE709983B49884207DCFFE70A9839490860B8
:2022A000099839490860FFE7FFE75B98AF21890088423ADBFFE75B983449884235DCFFE785
:2022C0005C98642831DBFFE75C984B21890088422BDCFFE75D98502827DBFFE75D985C99AD
:2022E000884222DCFFE75E9832281EDBFFE75E98AF214900884218DCFFE75F98502814DBF0
:20230000FFE75F98FA2810DCFFE75B98204908805C98204908805D981F4908805E981F49E0
:2023200008805F981E490880FFE76098322808DBFFE760988C2804DCFFE7609819490880DA
:20234000FFE71949002008701848019003F01EF8019908464830482206F0CCFD63A90120ED
:202360000870FFE763A8007864B080BD31444950D0342020E434202084352020C235202051
:20238000204E0000543520204C3520204C040000D6352020DC352020E2352020E0352020AD
:2023A000DA352020D835202097352020E032202070B58EB00D9009A9002008709448007885
:2023C000002801D1FFE721E10D9891498A68801A0C900D980969884200D2ECE00D9914310A
:2023E0008B48016140784C2804D1FFE705F0D2FE069003E005F0E2FE0690FFE706980BA9E0
:202400000880834840784C2805D1FFE700218248405E059004E000217E48405E0590FFE77F
:2024200005980AA9088000210BA8405E05F004FD77492422895E884208DDFFE700210BA806
:20244000405E05F0F9FC72498884FFE77048007801283BD1FFE70C988008AF2812D3FFE72E
:2024600000210BA8405E05F0E7FC0446E3176849C86A8A6A121958418A62C862888A401CAF
:202480008882FFE700210BA8405E05F0D5FC6349884207DBFFE75E494822885C0223184361
:2024A0008854FFE700210BA8405E05F0C5FCE121C900884209DBFFE7554A4823D15C01207B
:2024C0000143D15409A90870FFE773E0504A049290880B99411A08A80180918A491C918225
:2024E0000021405E05F0A8FC04990446E317486B0A6B121958410A634863086AC968884232
:2025000016D1FFE700210BA8405E039040480421415E092048430A2104F07CFD014603986F
:2025200009B2884204DBFFE70C9839490862FFE700210AA8405EFF21F031884205DBFFE799
:202540003349088B401C0883FFE70C983049CA68032151438908884218D3FFE72C49029164
:20256000C88A401CC88200230BA8C65EF517CA6B8C6BA4196A418C63CA63C45E6443486C30
:202580000A6C121958410A644864FFE700210BA8405E05F051FCE1218900884209DBFFE72E
:2025A0001B4A4823D15C01200143D15409A90870FFE7FFE7FFE70C981549C968884205D2E4
:2025C000FFE709A80078002820D0FFE710490091087807AA019210701148502206F08AFC79
:2025E0000099104A012010700020087002F008FE01980078012804D1FFE7094802F09CFDE6
:2026000003E0074802F03AFAFFE7FFE70EB070BD40342020C4352020A4352020920900000A
:20262000F033202000362020B0B588B0644AAF20410011606420506073208000906020207E
:202640009081604A7D20830013605160FF21B63191601A2191815C4AC10011605B4A322166
:2026600011805B4A5B4911605B49000108605B49E120800008805A49B920088059498C2003
:202680000880594AB42111805849088058496220088058490020049008705748039002F0E4
:2026A00075FE039908464830482206F023FCFFF7E1FC07A9087002F0A3FD04984F4908708D
:2026C0004F4908704F4908604F4908604F4908604F4908604F4908604F4908804F490880AA
:2026E0004F4908704F4908704F4908704F4908704F4908704F4908604F4908804F4908804A
:202700004F4908804F4908804F4908804F4908704F4908704F4908804F4908604F4A01215E
:2027200011704F49087006A90870FFE706A80078022826D8FFE706A80290007803F0CAFF53
:20274000029A05A90870059B107806210C4644434A480355059B15780C466C430419637087
:20276000059B15780C466C430419A37012785143411800208880FFE70698401C06A9087055
:20278000D4E7384900200860374901200870374805F03AFB07A801783548364A00920029D3
:2027A000019001D100980190019805F02DFB05F04DFC00F05FF9304805F026FB08B0B0BD9E
:2027C000D0342020E434202084352020C2352020543520205E1A00004C352020D6352020E0
:2027E000DC352020E2352020E0352020DA352020D835202097352020E03220201336202059
:20280000F13520205C3520202C3520203C352020283520201C352020CE3520209E352020AB
:20282000F0352020F835202012362020113620200E36202068352020AE352020B835202006
:20284000B0352020BA352020B63520200436202003362020B2352020503520201036202094
:202860000D362020203520200B362020249200000A930000C49200009A930000F83420207D
:2028800080B586B004AB188003A80170029206F0CBFA00280FD0FFE706F014FB00280AD027
:2028A000FFE703A80078002805D0FFE703A800780B2804D3FFE705A90020087086E002F07B
:2028C0009FFC03F053FE43490620087004984249088002984149086003A801900178404877
:2028E00048434049086005F0B3FD3F49086002983E4908603E48012101703E4A00200090ED
:2029000010703D4A1070029A3C4B1A60029A3C4B1A60039A3B4B1A703B4A10703B4A10703F
:202920003B4A10703B4A10703B4A10803B4A10803B4A11703B4908703B4908703B49087069
:2029400005F0DAFC3A49086005F0E8FC01460098384A1160384908803849087005F0CCFC57
:202960003749086005F0DAFC01460098354A116035490880354AE12149001180344908806F
:2029800034490880344908803449088034490880344805F039FA009904A8405E02F012FE9A
:2029A000314805F031FA0198007802F00BFE2F4805F02AFA2E480078002803D1FFE706F01C
:2029C000F9F9FFE705A901200870FFE705A8007806B080BD05362020D43520205C35202045
:2029E00060EA000058352020343520203C35202013362020F03520200F3620207C35202002
:202A000080352020103620200D362020F5352020F635202016362020E6352020DE352020A9
:202A20001A362020193620201836202017362020883520208C352020E4352020153620207A
:202A40001035202014352020A03520209C352020AE352020B8352020B0352020BA3520209E
:202A6000B6352020749300008098000063980000F135202080B584B04E4805F0C5F94E4863
:202A8000007802F09FFD4D4805F0BEF9032002F099FD4B4805F0B8F94A480090006802F08F
:202AA00091FD494805F0B0F90098406802F08AFD464805F0A9F946480290006802F082FD82
:202AC000444805F0A1F90298406802F07BFD424805F09AF90098806802F074FD3F4805F0BE
:202AE00093F90298806802F06DFD3D4805F08CF900980C210191405E02F064FD394805F0AF
:202B000083F901990298405E02F05CFD364805F07BF93648006802F055FD354805F074F92C
:202B2000002103913348405E02F04CFD324805F06BF93248006802F045FD314805F064F9D8
:202B40003048006802F03EFD2F4805F05DF903992E48405E02F036FD2D4805F055F903997D
:202B60002C48405E02F02EFD2B4805F04DF903992A48405E02F026FD294805F045F9039977
:202B80002848405E02F01EFD274805F03DF903992648405E02F016FD254805F035F90399A7
:202BA0002448405E02F00EFD234805F02DF904B080BDC04620930000973520206F950000CE
:202BC0004E970000D03420206697000042970000E43420207E9700008A9700006097000071
:202BE0000C970000E2960000FE96000084352020B8960000C23520205C96000054352020ED
:202C0000389600004C352020E6940000D63520207A950000DC35202090950000E235202084
:202C2000C1940000E035202043950000DA35202038950000D83520206398000080B58CB03D
:202C40000B90DC2003F0EEFD002801D1FFE7B5E005F0A0FA0AA9088005F0B0FA09A90880E7
:202C600057480078002803D1FFE70020079005E00B9854490968401A0790FFE70798089000
:202C8000514805F0C1F8089802F09CFC4F48059005F0BAF803F0FAF905F0B6F8059805F0D5
:202CA000B3F8002106914A480090405E02F08AFC059805F0A9F8069946480290405E02F0F7
:202CC00081FC059805F0A0F806990AA80190405E02F078FC059805F097F8069909A8039063
:202CE000405E02F06FFC059805F08EF806993A48405E02F067FC059805F086F8069937487F
:202D0000405E02F05FFC059805F07EF800980199069A805E895E401A02F054FC059805F0FB
:202D200073F802980399069A805E895E401A02F049FC059805F068F805F06AFB049005F027
:202D400077FB01460498401A02F03CFC059805F05BF806992248405E02F034FC059805F05A
:202D600053F82048007802F02DFC059805F04CF81D48007802F026FC059805F045F80699D8
:202D80001A48405E02F01EFC059805F03DF81848007802F017FC059805F036F815480078EE
:202DA00002F010FC059805F02FF806991248405E02F008FC114805F027F8FFE70CB080BD83
:202DC000053620205C352020B397000080980000AC352020CC352020A4352020C435202091
:202DE000AE3520200336202004362020E63520200D3620200F362020E43520206398000006
:202E000080B588B007905E48007800280AD0FFE707985C49884201D8FFE7AFE0584900208B
:202E20000870FFE758480078002812D1FFE760490120032200F0B2FD002803D1FFE704F0C7
:202E4000E9FA9BE050490120087056490020087094E0262004A90C2200F0A0FD002810D180
:202E6000FFE74F49002008704C480078032805D8FFE74A490878401C0870FFE704F0CAFABD
:202E80007CE004A8083005F091FA03900399084605F04EFE00280ED1FFE703983B4903F0B5
:202EA0003BFE002807D1FFE70398394903F052FE002808D0FFE7394900200870384908709A
:202EC00004F0A8FA5AE0039803F01AF802A908803048006800282FD0FFE702982E490988C0
:202EE000401A00B204F012F8014601A801802B49097832224A43323269460A800022805EE4
:202F0000895E884209DCFFE7002201A8805E6946895E494288420EDAFFE7204800210170D9
:202F200002A8405E02F036FE002803D1FFE704F071FA23E0FFE7FFE7029817490880174931
:202F400000200870164908701649087016490120087010480068002805D1FFE70E480088B1
:202F600012490880FFE70B480068401C002805D0FFE708490868401C0860FFE708B080BD2E
:202F80001C362020871300001B3620200000D0C00000D04064352020EC3520201436202010
:202FA0000A362020F335202008362020EE3520209435202080B588B006904F480078002805
:202FC0001AD0FFE700214D48405E322814DBFFE700214A48405E8C280EDCFFE70023484915
:202FE000CA5E03205043454AD25E8018801C820F801880080880FFE7424905910878401CE4
:203000000870414804F000FF0598007802F0DAFA3E48049004F0F8FE00213D48405E02F0A7
:20302000D1FA049804F0F0FE06983A490968401A02F0C8FA384804F0E7FE059800783749B9
:2030400009788906090E88422FDBFFE702F0D8F83D490020029008703C4908703C4804F0A8
:20306000D3FE02992648405E02F0ACFA2A48039004F0CAFE374804F0C7FE2248007802F073
:20308000A1FA039804F0C0FE01F00EFC002804D0FFE7324804F0B8FE03E02F4804F0B4FE47
:2030A000FFE707A90120087022E01D4900200190087006981B49086005F01EF91A4908600F
:2030C00005F02CF901460198184A11601849088018490870184908701849087018480088C7
:2030E0001849088005F016FE019807A90870FFE707A8007808B080BD15362020E435202037
:20310000D83520200D362020A695000080980000E6352020803520206398000010362020BB
:203120000F3620207C3520201035202014352020A0352020F5352020F63520201636202095
:20314000AE352020B835202013362020F135202079920000B4940000DC9200004A93000092
:2031600080B594B01390FFE703A8402100F078FB002805D0FFE7139903A8FCF7A1FFF3E737
:20318000139801F09BFA139802F0B4FC1398FDF7EDFE1398FFF70CF94548007801280ED174
:2031A000FFE7139843490968401A00097D2806D3FFE702F025F8404804F026FEFFE73F489E
:2031C000007800280ED0FFE713983D490968401A142807D3FFE7139839490860139801F062
:2031E000D9FBFFE732480078022814D0FFE73048007803280FD0FFE72D48007804280AD05C
:20320000FFE72B480078052805D0FFE72848007806282AD1FFE713982A490968401A2A49A2
:203220000968884221D3FFE724480090007802A90191087001F0E4FF0099244A00201070D5
:203240000870234804F0E0FD0198007800280BD0FFE7204804F0D8FD1F48008802F0B2F903
:203260001E4804F0D1FDFFE7FFE718480078002818D0FFE713981A490968401A142811D393
:20328000FFE713981649086016480078002804D0FFE7139801F014F903E01398FFF7CEFC27
:2032A000FFE7FFE7139803F0A7F814B080BDC046053620202C35202060920000F03520208B
:2032C000283520205C35202058352020133620201695000022950000CE352020639800008A
:2032E0003C352020F135202080B59AB018901898C068069018980069079018984069089081
:203300001898806909901898C0690A901898006A0B901898406A0C901898806A0D90189876
:20332000C06A0E901898006B0F9004A800F0BAFE002804D1FFE719A90020087085E0189865
:20334000416B00200029039079D4FFE71898416B0020404A9142039071DCFFE71898816B77
:203360000020002903906AD4FFE71898816B0020384A9142039062DCFFE71898C16B002089
:20338000AF2292009142039059DBFFE71898C16B0020314A9142039051DCFFE71898016C3D
:2033A0000020642903904ADBFFE71898016C00204B2292009142039041DCFFE71898416CC0
:2033C0000020502903903ADBFFE71898416C026C00209142039032DCFFE71898816C0020C4
:2033E000322903902BDBFFE71898816C0020AF2252009142039022DCFFE71898C16C0020CC
:20340000502903901BDBFFE71898C16C0020FA29039014DCFFE71898016D0020322903900F
:203420000DDBFFE71898016D0120002201928D29029001DB0198029002980390FFE70398CD
:203440000121084019A90870FFE719A800781AB080BDC046204E00004C04000070B58AB07F
:203460000C4605460F980E9909AE357008AD2C800792069305AA117004A90391087001F098
:20348000BFFE34490020029008703349087003F06DF80998314908700898314908800698A9
:2034A0003049086007983049086004F0D1FF0299024603982D4B1A60069A2D4B1A60069A45
:2034C0002C4B1A60059A2C4B1A70049A2B4B1A702B4A11802B4A11802B4A11802B4A1180A5
:2034E0002B4A11802B4A11702B4A11702B4A11802B4A11600078002808D0FFE729490020FE
:2035000008802949088029490870FFE7284804F07BFC02F0BBFD04F077FC2648019004F07A
:2035200073FC002108A8405E02F04CF8019804F06BFC079802F046F81F4804F065FC05A84B
:203540000078002803D0FFE705F034FCFFE70AB070BDC04612362020113620200536202090
:20356000D43520205C35202058352020343520203C3520202835202013362020F03520207F
:20358000AE352020B8352020B0352020BA352020B63520200436202003362020B235202042
:2035A00050352020CE3520209E352020F8352020F2940000809800006398000080B584B081
:2035C000024603A8027002910078002828D1FFE744480078002822D1FFE743480078002844
:2035E0001DD1FFE741480078002818D1FFE745480078022813D3FFE7424901910878401E09
:2036000008703D49002008703F4804F0FDFB0198007801F0D7FF3D4804F0F6FBFFE75EE03B
:2036200003A80078012828D1FFE72E480078002822D1FFE72C48007800281DD1FFE72B4815
:203640000078002818D1FFE72E480078092813D8FFE72C4900910878401C08702649002022
:203660000870294804F0D0FB0098007801F0AAFF264804F0C9FBFFE731E01A4800780028D9
:203680000AD1FFE718480078002805D1FFE717480078002803D0FFE703F086FB1FE0144826
:2036A000007800280DD0FFE71149002008700E490120087002980F490860114804F0A4FB7F
:2036C0000CE00A490120087002980A4908600A4900200870094804F097FBFFE7FFE704B07B
:2036E00080BDC04605362020113620200E36202012362020683520200D362020DA910000AE
:20370000429200000B362020349400006398000080B58EB021200421039104F059FF0120B7
:20372000029001034A480A9005F06EF82220052104F04EFF02990A98490305F065F802984E
:203740000399002207920192C30409930093430408930F20049003F0B1FC0399079A089B64
:203760000998019200900E20059003F0A7FC049804F012FF059804F00FFF1F2002210691F3
:2037800004F026FF0699202004F022FE352005F05FF8362005F05CF8192005F059F8182026
:2037A00005F056F8312005F053F80799089A099B0091322003F04AFD0799089A099B0091BB
:2037C000122003F043FD0799089A099B0091162003F03CFD0799089A099B0091232003F0FE
:2037E00035FD0799089A099B0091242003F02EFD0799089A099B00911C2003F027FD079954
:20380000089A099B00911D2003F020FD102005F01FF8112005F01CF80A9803210C9109069C
:203820000B9105F0A4F90A980B9904F0EDFF0C98010208480D9005F09AF90D98064905F02F
:203840002BF80D98054904F0DFFF0EB080BDC04600000A4000200A403000400030034000E8
:2038600080B588B0069005A801800698002805D0FFE705A80088012804D8FFE707A90020A6
:2038800008707BE0FFE73F4800883F490988884270D0FFE73B48009002883C49895C04AAA2
:2038A000019211700088802104F034FA009A01460198118000780D2805D0FFE704A8007812
:2038C0000A2840D1FFE732480078002801D0FFE7D9E72F49012008702E480088002831D0F6
:2038E000FFE72C48018802A80180008805A90988884205DBFFE70598401E02A90880FFE74F
:2039000003A900200880FFE703A8008802A9098888420CDAFFE703A802881F48805C069951
:203920008854FFE70398401C03A90880ECE7069902A80288002088541649088007A9012040
:2039400008701BE015E0124900200870114800883E2809D8FFE704980E490B880E4AD054FC
:203960000888401C088003E00A4900200880FFE7FFE788E707A900200870FFE707A8007865
:2039800008B080BDD2352020D03520207033202001362020B43520209034202080B58EB0AC
:2039A0000CAB18700B910AA802700B9800280AD0FFE70AA80078002805D0FFE703F0DEFCA3
:2039C000002804D1FFE70DA90020087079E004F04FFD3E4805900CA90122069203F0B4F9F2
:2039E00005983B4904F064FF0598069B002202920192022107910091232102F0C7FB0798E5
:203A000002F03AFA002804D1FFE70DA90020087057E00AA8037800200490029004200190F0
:203A20000220009029482321012202F0AFFB049809A90870FFE709A800780AA9097888428D
:203A400030DAFFE723480890FFE7204804F0DCFD00281AD0FFE71D4805F09EF880070028C1
:203A600006D5FFE704F004FD0DA90020087028E00898411E0891002806D1FFE704F0F8FCD5
:203A80000DA9002008701CE0DFE7104805F098F80B9909AA12788854FFE70998401C09A9E7
:203AA0000870C8E7012002F0E7F9002804D1FFE70DA90020087004E003F060FC0DA908705A
:203AC000FFE70DA800780EB080BDC04600200F40830400008813000080B596B049480F9096
:203AE00004F0F2FE0F9805F093F80F9803F052FF0F9804F059F9002314930093012042041F
:203B000010920E20194604F037F9109A149B00930F20194604F030F93B48129004211191CF
:203B200005F01BF812980821139105F016F81199129805F026F81298139905F022F8052012
:203B4000800105F0D1F9149815A90870FFE715A80078082817D8FFE72B480C9004210D9151
:203B600004F046FEA0200E9005F0BEF90C980D9905F007F80E9805F0B7F9FFE71598401C8B
:203B800015A90870E3E7204803900821049104F02FFEA02005F0A8F90398049904F0F1FFD9
:203BA0000520800105F0A0F90022079201920120C10405910091430408930F2009900421A7
:203BC000069103F053FA05980699079A089B019200900E200A9003F049FA099804F0CEFC0E
:203BE0000A9804F0CBFC07480B9004F0C1FE0B9804F09AFE102005F077F903F05BF916B0FA
:203C000080BDC04600200F4000200A4010B58EB00C900BA801800AA90A800021405E002891
:203C200006DCFFE70C99002008610DA9088079E0002201920BA80390805E0AA9895E401A2A
:203C400009900C980069099A0A2151434018089008983749374A04F043F808900C980168F7
:203C6000099848437D21C900029103F0D3F907900C984168089848432F4903F0CBF9019B85
:203C800002990246039806920C9A0C24145F04949268C05E504303F0BDF90146049840189E
:203CA000079940180699401805900598FF21F631884204DBFFE7099800280CDCFFE70598D9
:203CC000002804D5FFE70998002804D4FFE708980C9908611DE00C9841680069484316492B
:203CE00003F098F906900C980C21415E0091816800220BA8805E48437D21C90003F08AF9A5
:203D000001460098401807994018069940180590FFE705987D218A00002103F06FFA0DA90A
:203D20000880FFE700210DA8405E0EB010BDC046E05EF8FF20A1070040420F00B0B58EB0DF
:203D400004F0D4FF05903B4800680D903A4800680C90059804F0C0FF0D98384A1168401AAF
:203D60000B900C9836490B68C01A0A900D9810600C9808600B98C117324A02920023049338
:203D800004F002FB049B07910690069807992E4A039204F097FF029A049B09900A98C11742
:203DA00004F0F2FA039A049B079106900698079904F088FF089009982449884203DBFFE7CC
:203DC00023480990FFE708982049884203DBFFE71F480890FFE700201E4B0093195E099D44
:203DE000032214466C430919CC17A40F09198908198019490191085E089B5A438018C21786
:203E0000920F80188008088004F070FF00990246019805920988114A1180008810490880FF
:203E200010490868401C0860059804F055FF0EB0B0BDC04644352020703520204835202084
:203E400074352020A0D9080010270000C5090000C4090000A8352020C8352020AA352020AD
:203E6000CA3520207835202080B58AB0024608A8027007910021069105AA117004AA11708E
:203E800003AA117002AA1170079A11700078002805D0FFE705F016F8002804D1FFE709A9B2
:203EA000002008806BE001A900200870FFE701A8007807283BD8FFE708A8007801A909784B
:203EC00004F04AFC00282CD0FFE701A801784A002D498A5E0699891806910599491C05AA4B
:203EE00011700078022804D8FFE704A901200870FFE701A80078052804D3FFE703A90120D9
:203F00000870FFE701A80078032805D0FFE701A80078042804D1FFE702A901200870FFE70A
:203F2000FFE7FFE70198401C01A90870BFE705A80078002814D0FFE705A8007804280FD8A9
:203F4000FFE702A8007800280ED1FFE704A80078002809D0FFE703A80078002804D0FFE75C
:203F600009A9002008800AE0079901200870069805A9097803F04EF809A90880FFE700217D
:203F800009A8405E0AB080BD0494000080B588B00790354803F038FF079801F013FB33487F
:203FA000049003F031FF02F071F803F02DFF049803F02AFF002103912D48405E01F002FB62
:203FC000049803F021FF03992A48405E01F0FAFA049803F019FF04F0DDF801F0F3FA0498B7
:203FE00003F012FF04F0EAF801F0ECFA049803F00BFF03992048405E01F0E4FA049803F077
:2040000003FF03991D48405E01F0DCFA049803F0FBFE1B4801781B481B4A059200290690B6
:2040200001D105980690069803F0EEFE174803F0EBFE1748007801F0C5FA164803F0E4FE09
:2040400004F036FE01461448144A01920029029001D101980290029803F0D6FE104803F040
:20406000D3FE08B080BDC046A896000080980000AC352020CC352020A4352020C43520206A
:20408000123620203697000095970000149400000B362020D4960000D197000034980000D8
:2040A0006398000082B00090009880684049884240DCFFE70098C0683D4988423ADCFFE762
:2040C000009800693A49884234DCFFE700984069374988422EDCFFE7009880697D21C90039
:2040E000884227DCFFE70098C0697D21C900884220DCFFE70098006AE1214900884219DC2D
:20410000FFE70098406AE1214900884212DCFFE70098806A274988420CDCFFE70098C06A42
:204120004F21C943884205DBFFE70098C06A512804DBFFE701A90020087034E0009880689D
:20414000002828D4FFE70098C068002823D4FFE70098006900281ED4FFE700984069002826
:2041600019D4FFE700988069002814D4FFE70098C06900280FD4FFE70098006A00280AD43B
:20418000FFE70098406A002805D4FFE70098806A002804D5FFE701A90020087003E001A9D8
:2041A00001200870FFE701A8007802B07047C046B80B000088130000F0B5394A8218394B4C
:2041C000C0183A4D4C790B79002C22D0466F202B02D00524E70100E0354F2E40002B00D168
:2041E00088273E434667846F2C403C438467446B2D4E34404463846B3440846300244465BD
:20420000846554688F26F643344054609468344094600C688979202B09D006467036002BC8
:2042200015D1641E4460C46E2C40882715E0641E4460C46E2C401E4E3443C466046F2C4080
:20424000344304671B4D01246707064607E00527FF0164084460C46E2C403C43C46634682F
:204260002C403C433460C46A0F4D2C40C462046B2C4004630024C4640465C46F8F25ED4395
:204280002C40C46714682C401460194302680A4B1340BD220A40D118891C0160F0BDC046F2
:2042A00084180000041800008888FDFF24493E0001040000FFFFFFCF4000FFCF80B588B043
:2042C0000020079006900590049003A9087003F09DFF03F0BFFA02F0B1FB03F0A1F903F0EB
:2042E00001F802F069FA02F0B9FDFEF79DF904F071FD1520019003F025FE019803F07AFEFB
:204300002C4804F095FB62B6FFE702F063FB04F0E5FD0699401A052806D3FFE704F0DEFDCD
:20432000069004F00DF8FFE703A80078002816D1FFE704F0D3FD2049884210D3FFE7FFF73A
:20434000CBFB02F0CFFF02F037FA04F0C7FD059003A901200870194803F056FDFFE704F0A1
:20436000BDFD0499401A0A2806D3FFE704F0B6FD049003F031FDFFE703A80078002811D02D
:20438000FFE704F0ABFD0599401A0A280AD3FFE704F0A4FD059002A800F00CFA0598FEF752
:2043A0002FFDFFE704F09AFDFEF7DAFE04F00AFDABE7C0460000874070170000F49200002C
:2043C00080B588B006AB187005A801700492394803900498002804D1FFE707A900200870A8
:2043E00064E002F0F1FF002807D1FFE733490620087007A90020087058E004F049F82E486C
:20440000029005A90122019202F09EFC019B029806A90978002202F079FE02F039FA0028DC
:2044200005D0FFE702F0D0FF002804D1FFE707A9002008703AE006A801781F4801231A46A9
:2044400002F064FEFFE71C4804F0ECF800281BD0FFE7194804F0AAFB8007002806D5FFE783
:2044600004F016F807A9002008701FE00398002806D1FFE704F00CF807A90020087015E03E
:204480000398401E0390DEE70B4804F0A3FB0499087002F0FDF9002804D1FFE707A9002036
:2044A000087003E007A901200870FFE707A8007808B080BD8813000000200F40F7352020E0
:2044C00080B584B00390314803F09EFC039830490968401A01F076F82E48019003F094FC12
:2044E000002102912C48405E01F06CF8019803F08BFC02992948405E01F064F8019803F00B
:2045000083FC03F047FE01F05DF8019803F07CFC03F054FE01F056F8019803F075FC02997E
:204520001F48405E01F04EF8019803F06DFC1D48007801F047F8019803F066FC1A48007875
:2045400001F040F8019803F05FFC02991748405E01F038F8019803F057FC1548007801F0ED
:2045600031F8019803F050FC1248007801F02AF8019803F049FC02990F48405E01F022F8E9
:204580000E4803F041FC04B080BDC0462C9800005C35202080980000AC352020CC3520208F
:2045A000AE3520200336202004362020E63520200D3620200F362020E4352020639800002E
:2045C000B0B53A4A80184A6842600A78222A56D8930001A4E3589F46754600007F46000032
:2045E000754600007F4600007F4600007F4600007F4600007F4600007F4600007F4600009D
:204600007F4600007F4600007F4600007F4600007F4600007F460000654600007F4600008C
:20462000654600007F4600007F4600007F4600007F4600007F4600007F4600007F4600006C
:204640007F4600007F4600007F4600007F4600007F4600007F460000654600007F4600004C
:2046600065460000036803242407A343012464071B1903E0036803242407A34303600B69CB
:20468000C360CB68C46A0A4D25400A4C1C402B19C3620368084C1C400460097A11430268FF
:2046A0003F239A43194051180160B0BD041800008888FDFF777702007F00FFFF80B588B029
:2046C0000790079837490968884201D1FFE766E0079834490A68801A05900798086005988A
:2046E0001A2803D3FFE719200590FFE706A900200870FFE706A80078022850D8FFE706A8CF
:20470000017806224A43284989180491007801F0E1FF014603A801700078049909788842B8
:2047200014D1FFE70498808805994018029002981E49884203D3FFE71D48019002E0029889
:204740000190FFE701980499888006E0039804990870049900208880FFE70498808819287E
:2047600004D3FFE7039804994870FFE70498807800280BD1FFE704984078002806D0FFE7F0
:2047800006A800780799FEF719FFFFE7049948788870FFE70698401C06A90870AAE708B0BB
:2047A00080BDC04620352020F834202061EA000060EA000080B582B00190694600200870E1
:2047C0000198002801D1FFE763E0334800785D281BD1FFE731480078002816D0FFE7684640
:2047E00004F08EFA00280CD0FFE76846007802F0EFFF2B48007801990870019901204870DD
:2048000047E0264900200870FFE703F013FD014621480170007800280CD1FFE7042001F0E8
:20482000B3FB1F480078019908701E480078019948702EE0184800785D280CD0FFE7072055
:2048400001F0A2FB164800780199087015480078019948701DE0684604F052FA00280CD0CC
:20486000FFE76846007802F0B3FF0D480078019908700199012048700BE0052001F084FBB6
:2048800007480078019908700648007801994870FFE702B080BDC046F9352020FA3520206F
:2048A000073620200236202080B5B6B035480290007848210491414333480390401800F009
:2048C00065FD02980399049A304B0A9303230B93A8230C9300780D900AA80590103004F0CC
:2048E00009FB0399049A05985830483104F002FB05980021329102F0C7F93390EFF3108083
:2049000035903598089072B62148069003F066F906987F21890207910122520200F0FAF939
:2049200006980799402203F057FF014609A80170007803280DD1FFE70120400200907F202C
:20494000810213480AAA2A2301F060FB09A90870FFE70898002802D1FFE762B6FFE709A8EC
:204960000078032804D0FFE734A90020087004E0FDF780FB34A90870FFE734A8007836B09D
:2049800080BDC04697352020E03220203144495000D00C4080B586B005902D480078002837
:2049A00006D0FFE72B480088C0084B2801D3FFE74CE0284801900088142141432648401817
:2049C000049003F0E7FB03A9088003F0F7FB02A90880059821490968401A0021204A03F0D2
:2049E0007FF9049908801F490888049A50801E480288049B9A80039A049BDA80029A049B3A
:204A00001A811A4A1288049B5A81194A1288049B9A810988039A891A049AD18100880299E8
:204A2000401A0499088203F0F3FC009003F000FD01460098401A0F490F4A02F0DFFB019943
:204A4000049A50820888401C0880FFE706B080BDF0352020CE352020000020205C352020E0
:204A6000FFFF0000AC352020CC352020A4352020C43520200080FFFFFF7F000080B584B01F
:204A80000390A02001F0CEFE002801D1FFE759E02D4803F0B9F90398C06900F093FD2B481C
:204AA000009003F0B1F9039841782948294A01924C29029001D001980290029803F0A4F9D1
:204AC0000398808A00F07EFD009803F09DF90398006B00F077FD009803F096F90398242141
:204AE000405E00F06FFD009803F08EF90398C08A00F068FD009803F087F90398806B00F0EF
:204B000061FD009803F080F90398006C00F05AFD009803F079F90398006A00F053FD00980B
:204B200003F072F90398008B00F04CFD009803F06BF903984821405C00F044FD064803F0B7
:204B400063F9FFE704B080BD5898000080980000729800006F9800006398000080B586B0A3
:204B600005AB187004A80180039228480078012803D0FFE700F044FBFFE725490020087056
:204B800024490870214A01211170234908802349088005A800784C2804D1FFE704981E49E3
:204BA000088010E005A80078522804D1FFE704981A49088006E00498174908800498174936
:204BC0000880FFE7FFE703981549086003981549086000221048805E1049895E00F09AFE9F
:204BE000114803F011F904F063F801460F48104A01920029029001D101980290029803F040
:204C000003F90C4803F000F906B080BD053620201236202011362020A4352020C435202089
:204C20005C3520202C352020A7940000D1970000349800006398000089B007900691002011
:204C400005900121049103A90870079800782D2807D1FFE70020C04304900798401C079071
:204C600009E0079800782B2804D1FFE70798401C0790FFE7FFE7FFE7079801780020302951
:204C800002900DDBFFE7079801780120002200923A29019001DB0098019001980290FFE7BD
:204CA0000298C007002818D0FFE703A90120087005981749884204DBFFE708A90020087083
:204CC00022E005980A214143079800784018303805900798401C0790CEE703A80078002888
:204CE00005D0FFE707980078002804D0FFE708A90020087008E00599049848430699086003
:204D000008A901200870FFE708A8007809B0704701C2EB0BF0B583B002920190304B314D1C
:204D200000918C0A28680727384005262E60196889048A0F2860296839402E60186829608D
:204D4000002A214608D028490840511C02F0C2FD0146204602F0BEFD0198204A801801908D
:204D60002A683A402E601E4803682A602A683A402E6003682A60012293020298984207D0AC
:204D8000530298420CD10098C30B0BD1019803E01F210C4001984030A24001689143016034
:204DA00003B0F0BDFF290DD82B683B402E600C4C24682B60A3049B0F019800D12039CC0893
:204DC000001DE9E71302FF339942E9D2FF23DB43C918CC0801980830DEE7C046D011000097
:204DE0001800C44100134040FF0F0000FCB40127FF07794002E0FCB40127FF070C024D0043
:204E00002D0E03D1002C52D1FCBC70473C43FF2D50D0A408002900D56442020243001B0E3A
:204E200004D1002A43D10800FCBC70473A43FF2B41D09208002800D552425E1B04D517009C
:204E400022003C0076422B00192E06D527003741D2191C27F71B7F42BC40002A27D002D55B
:204E60005242012700E00027013B5200FCD51500802635400FD01500202635402C43803210
:204E800008D21500402635402C4304D101263602B24300E05B1C5200023308DDFF2B0BD2E6
:204EA000500ADB051843FF073843FCBC70470020FCBC70470800C70FFF07FF20C00538439B
:204EC000FCBC704780B586B003F0D8FF002804D1FFE7304802F098FF49E003F0B7FF05A9CA
:204EE0000091088003F0BEFF04A90191088003F0B3FF03A9029108801E4802F085FF009842
:204F0000008800F05FFB1C4802F07EFF0098008802F0C0FF00F056FB184802F075FF01987B
:204F2000008800F04FFB164802F06EFF0198008802F0B0FF00F046FB124802F065FF0298B5
:204F4000008800F03FFB104802F05EFF0298008802F0A0FF00F036FB0C4802F055FF03F097
:204F600087FF00F02FFB0A4802F04EFFFFE706B080BDC0468C94000080960000269600002F
:204F80002D9500004A9600004E950000F8950000AB920000BE93000080B588B007900691D6
:204FA00005A8027004A900200870FFE7079801780020002903900FD0FFE704A8017805A81C
:204FC00002780120002301939142029001DB0198029002980390FFE70398C007002841D065
:204FE000FFE7FFE70798007803F01AF8002804D0FFE70798401C0790F4E70798007800283B
:2050000001D1FFE72EE00798069A04A90B789B00D0500498401C0870FFE707980178002012
:205020000029009008D0FFE70798007802F0F8FF414248410090FFE70098C007002804D01C
:20504000FFE70798401C0790E7E707980078002807D0FFE70799002008700798401C079044
:20506000FFE7A3E704A8007808B080BD80B582B001902C4802F0C8FE0198008800F0A2FAD6
:20508000294802F0C1FE01980221405E00F09AFA2648009002F0B8FE01980421405E00F01E
:2050A00091FA009802F0B0FE01980621405E00F089FA009802F0A8FE01980821405E00F0DC
:2050C00081FA009802F0A0FE01980A21405E00F079FA009802F098FE01980C21405E00F0F4
:2050E00071FA009802F090FE01980E21405E00F069FA009802F088FE01981021405E00F00C
:2051000061FA009802F080FE01981221405E00F059FA074802F078FE064802F075FE02B063
:2051200080BDC046B39700008497000080980000439400006398000080B586B005900020BD
:205140000490642001F06EFB002801D1FFE74BE00598808A002809D0FFE7059A906AD16A70
:20516000928A002303F0AEFD0490FFE71F4802F04BFE0598C06900F025FA1D48019002F079
:2051800043FE059841781B481B4A02924C29039001D002980390039802F036FE0598022195
:2051A000405E00F00FFA019802F02EFE049800F009FA019802F028FE0598808A00F002FACE
:2051C000019802F021FE05982421405E00F0FAF9019802F019FE05984821405C00F0F2F9A3
:2051E000064802F011FEFFE706B080BD0C98000080980000729800006F98000063980000BF
:2052000080B51A490020088019490880194908801949088019490870194908601949088002
:205220001949086019490870194908601949086019490870194908701949087019490880BE
:2052400019490880194908701949087019490870194908701949088019490870194908804E
:2052600003F058FD02F066FC80BDC046A4352020C4352020AC352020CC3520200536202020
:2052800058352020B2352020503520200F3620207C35202080352020F5352020F635202015
:2052A00016362020E6352020DE3520201A362020193620201836202017362020E435202021
:2052C00015362020A035202080B584B0284802F09BFD03F0B5FD002804D0FFE7274802F0E3
:2052E00093FD0EE003F0A0FD01462248224A02920029039001D102980390039802F084FD26
:20530000FFE703F08BFD00F05DF91D48019002F07BFD03F07DFD00F055F9019802F074FDDF
:2053200003F070FD00F04EF9164802F06DFD03F081FD00F047F9019802F066FD002002F07B
:2053400067FC00F03FF9019802F05EFD012002F05FFC00F037F9019802F056FD022002F05C
:2053600057FC00F02FF9084802F04EFD04B080BDCC9700005498000013970000889600002D
:2053800080980000489700006398000081B00090224A106800990860506800994860204814
:2053A0000168009B99604168009BD9609168009B19618168009B59610C21525E009B9A61B4
:2053C000405E0099C861174800680099086200211548405E009A506214480068009A9062EB
:2053E00013480068009AD0621248405E009A10631148405E009A50631048405E009A906352
:205400000F48405E009AD0630E48405E009A10640D48405E0099486401B07047D0342020E4
:20542000E434202084352020C2352020543520204C352020D6352020DC352020E235202067
:20544000E0352020DA352020D835202081B000900098C068204A10600098006950600098B7
:2054600040691E4908600098806948600098C06990600098006A88600098406A9081009805
:20548000806A88810098C06A154908600098006B144908800098406B134908600098806B1F
:2054A000124908600098C06B114908800098006C104908800098406C0F4908800098806CF7
:2054C0000E4908800098C06C0D4908800098006D0C49088001B07047D0342020E434202065
:2054E00084352020C2352020543520204C352020D6352020DC352020E2352020E0352020AA
:20550000DA352020D835202081B0009000980068204A1060009840685060009880681E497D
:2055200008600098C06848600098006990600098406988600098806990810098C069888125
:205540000098006A154908600098406A144908800098806A134908600098C06A1249086091
:205560000098006B114908800098406B104908800098806B0F4908800098C06B0E4908801D
:205580000098006C0D4908800098406C0C49088001B07047D0342020E4342020843520200B
:2055A000C2352020543520204C352020D6352020DC352020E2352020E0352020DA35202093
:2055C000D835202080B58CB00B9007A9002008700B9800280AD5FFE72D2002F0D5F80B98EB
:2055E000C04306900698401C069002E00B980690FFE7FFE706980A21049102F06BF9084699
:2056000004993022104307AA0592137808AAD054069802F05FF9059906900798401C087010
:20562000FFE706990020002903900DD0FFE707A801780120002201920C29029001D3019814
:20564000029002980390FFE70398C0070028D1D1FFE7FFE707A8007800280AD0FFE70798FF
:20566000411E07A80170017808A8405C02F08CF8F0E70CB080BD704780B582B0019001F000
:205680000FFA01461E4801800021415E03204843052101F0BFFC4B218900E122920001F018
:2056A000ADFD6946088017480078002804D1FFE70098154908800DE000231349CA5E03201A
:2056C00050436A46D25E8018801C820F801880080880FFE70D490120087001980C490860BF
:2056E00001980C4908600C49002008700B4908700B4908700B49088003F00CFB02B080BD0A
:20570000A03520200D3620209C3520200F3620207C35202080352020F5352020F6352020A0
:2057200016362020E635202010B586B0089C05AC207004A801800392029320480078002843
:2057400014D0FFE705A80278029B1C48012101F0ADFE002804D0FFE7184800F0D1FD04E0B5
:205760000298194901F0ECFFFFE725E014480078002812D0FFE705A80278029B1148012163
:2057800001F094FE002808D0FFE70E48019000F0B7FD0198FFF7D0FC0EE005A80078002285
:2057A00004A9895E039A029B089C009401F006FC024800F0A5FDFFE706B010BD40342020F7
:2057C00000362020F0332020C797000010B586B0089C05AC207004A80180039202932048F3
:2057E0000078002814D0FFE705A80278029B1C48022101F05BFE002804D0FFE7184800F078
:205800007FFD04E00298194901F09AFFFFE725E014480078002812D0FFE705A80278029B2F
:205820001148022101F042FE002808D0FFE70E48019000F065FD0198FFF720F90EE005A859
:205840000078002204A9895E039A029B089C009401F054F8024800F053FDFFE706B010BD78
:205860004034202000362020F0332020C7970000F0B58B4200D1824204D90B00020000212B
:20588000002040E0002B00D1002A0CD10B00020000210020002B00D1002A01D0C943C04371
:2058A00000F037F82FE01C0015000B0002000CB4002126002F00FF19764102D2491C4029D5
:2058C000F9D100201E001700FF19764102D2401C4028F9D10E1A21002800320002F006FEDF
:2058E0000C0005000CBC00200021A34200D1AA4201D3521BA341404149416D08E7073D43D9
:205900006408761EF1D5059F002F01D03A607B60F0BD7047B0B58CB002460BA802800AAA72
:205920000292118000210491405E9B218A0001921D49009101F012FC0099019A049B044602
:20594000029809AD2C80C05E01F008FC049908AA10800998154A10800898154A1080099A97
:2059600007A803900280089A06AB05931A80405E00F038FE04990598405E00F06FFE03984A
:205980000499405E02F06FFA0146049802F00AF904990598405E02F066FA0146012002F015
:2059A00001F90CB0B0BDC04694FDFFFFA6352020C635202080B588B01E48009002F054FF31
:2059C0001D48019002F050FF1C48029003F00CF81B48039003F008F81A48049002F0D4FFFF
:2059E0001948059003F048F81848069002F0DCFE1748079003F058F8009802F011FF019850
:205A000002F00EFF029802F0E3FF039802F0E0FF049802F095FF059803F016F8069802F05D
:205A2000B7FE079803F034F8102003F05DFA08B080BDC04600000A4000200A400040084042
:205A40000000874000200F4000201040002000400000084080B588B003F02EFA014607A87A
:205A60000290017000787F21084006A9039108701B4802F0C9F903F019FA014619481A4ADF
:205A800004920029059001D104980590059802F0BBF903980078FFF795FD1448019002F0F2
:205AA000B3F903F0F7F9FFF78DFD019802F0ACF903F0F6F9FFF786FD019802F0A5F903F030
:205AC000E3F9FFF77FFD019802F09EF902980078FFF778FD064802F097F908B080BDC0460E
:205AE000989600005498000013970000809800006398000010B584B003901F48007800283C
:205B000017D0FFE703981D490968401A00097D280FD3FFE71849002008701C49095E1C4A4B
:205B20001268039B0124019400900420FDF796FC1FE01348007800281AD0FFE703980F499C
:205B40000968401A00097D2812D3FFE70C49002008700C480178039A4B208000FCF790FE3E
:205B6000002804D1FFE7084802F04EF9FFE7FFE7FFE704B010BDC04611362020683520201C
:205B80000E3620200B362020B1910000983520200C35202080B584B002A90880029822498F
:205BA0000988401A00B201F0B1F901A908801F48007800281CD0FFE7002101A8405E3228E0
:205BC00016DCFFE7002101A8405E3121C94388420EDBFFE702981449088014480078022811
:205BE00005D8FFE711490878401C0870FFE706E002980D4908800D4901200870FFE70B48C8
:205C00000078032807D3FFE708490020087003A90120087003E003A900200870FFE703A83B
:205C2000007804B080BDC046C03520200A36202080B582B01D4803F077F8092833D1FFE7F7
:205C40001A48002102F080F801A9088001981849088018480078002807D0FFE701A80088B5
:205C600015490988884204DAFFE7019812490880FFE710480078002807D0FFE701A800885F
:205C80000E490988884204DDFFE701980B490880FFE70B490868401C0860064901200870C0
:205CA00008490870FFE702B080BDC04600200040A235202009362020BE352020BC352020E6
:205CC00090352020F435202080B584B00390642000F0A8FD002801D1FFE72EE0184802F001
:205CE00093F80398FFF76EFC164802F08DF80220FFF768FC144802F087F802F0D9FF0146EF
:205D00001248134A01920029029001D101980290029802F079F80F4802F076F803F0EEF8F4
:205D2000FFF750FC0C4802F06FF803F0EFF8FFF749FC0A4802F068F8FFE704B080BDC046DE
:205D4000BF96000080980000D4960000D19700003498000087930000CE94000063980000C1
:205D600080B584B01E491F48039002F0AFFC03981D49FEF721FA03980023019319461A469A
:205D800001F026FE019B0398009319461A4602F037FE019A0398114602F08AFC019A039803
:205DA000114602F0FFFF019B039801210291009119461A4602F024FE0199029A039802F089
:205DC00077FC0199029A039802F0ECFF039802F03DFF0398032102F043FF04B080BDC046EF
:205DE000609800000040084070960000FCB40127FF0706004E4001D4002600E03E0002028E
:205E000043001B0E30D03A43FF2B30D00C024D002D0E29D03C43FF2D29D05B1942405040B6
:205E200042404C4061404C4000B501F049FE20BCAE464240504042404C4061404C402500F8
:205E40001400002C01D46400013B803401D3013364087E3B08DDFF2B09D2BC43200ADB05B9
:205E600018433043FCBC70470020FCBC7047FF20C0053043FCBC704780B586B004901E482B
:205E80000390FFE70398411E039100282AD0FFE704990920C00101900143184802F05CFDEC
:205EA0000199029002A8008808420DD0FFE702990920C0010140114802F0FAFC02F0D8FAAC
:205EC00005A90020087013E002980499084208D0FFE70499094802F0EBFC05A9012008703C
:205EE00006E0CFE702F0C4FA05A900200870FFE705A8007806B080BD8813000000200F4008
:205F000080B586B0049004981C49FFF76FFF039003981B4900F01EFE002804D0FFE705A9EF
:205F20001848088025E00398C721090600F0F4FD002805D0FFE70120C00305A9088018E00C
:205F400003980090002100F0FBFD01463F200006BF22120601920029029001D1019802901D
:205F600000980299FEF747FF01F000FE05A90880FFE7002105A8405E06B080BD4D3D0F446C
:205F800000FEFF46FF7F000081B0694608701749002008700098164908701648008816493C
:205FA000884205D8FFE713490888401C0880FFE712480078FF2805D0FFE710490878401CB5
:205FC0000870FFE70E480078002805D0FFE70B480078032808D3FFE70949002008700949BF
:205FE000087009490870FFE701B07047FA352020F73520209A3520205FEA0000F235202077
:20600000023620200736202006362020F0B585B004900120002B32D00D46194601402ED161
:2060200016460A9801901120000204990F18154C029603930520786001263E6020684007BA
:2060400005D52068400702D520684007F6D404982946019AFEF75EFE7E600B4878623D6286
:20606000029E3068386370687863049802F05EFF039B9B1E03D0083608350128D8D105B083
:20608000F0BDC046D0E30C40FF01000082B017480078401E0090052822D80098810001A076
:2060A00040588746BD600000C3600000C9600000CF600000D5600000DB6000001148019089
:2060C00011E00F4801900EE00C4801900BE00A48019008E00748019005E00548019002E0D9
:2060E00009480190FFE7019802B07047053620202F970000E09700002898000005970000C2
:20610000E996000010980000D697000085B003900291FFE70398017800200029019006D0E6
:20612000FFE702980078411E88410190FFE70198C007002812D0FFE7039800780299097849
:20614000884204D0FFE704A90020087019E00398401C03900298401C0290DBE70398017895
:2061600000200029009006D1FFE702980078414248410090FFE700980121084004A90870CE
:20618000FFE704A8007805B070470000F0B589B01C4615460A46064610980F990E9B0896BB
:2061A000079206AA157005AD2C8004AC237003AB0093197002A90191087008980E494018A2
:2061C00007994900127811430C4A01F07FFF009B019A08980A494018059909042478091949
:2061E0001B7819431278114301221143054A01F06DFF09B0F0BDC04610120000FF0700001B
:20620000141200000F00FF0F80B586B004A9087003A90520087001F0D7F8002807D1FFE7BC
:2062200017490620087005A90020087021E002F02FF91248029003A90122019200F084FD40
:20624000019B029804A90978002200F05FFF00F01FFB002805D0FFE701F0B6F8002804D1E1
:20626000FFE705A90020087003E005A901200870FFE705A8007806B080BDC04600200F4055
:20628000F735202080B598B017901798006804901798406805901798806806901798C068D3
:2062A0000790179800690890179840690990179880690A901798C0690B901798006A0C904C
:2062C0001798406A0D901798806A0E901798C06A0F901798006B10901798406B11901798B5
:2062E000806B12901798C06B13901798006C14901798406C159001A8FCF7F6FF18B080BD3F
:2063000080B586B00590402000F08CFA002801D1FFE724E0134801F077FD0598C069FFF747
:2063200051F9114801F070FD059801780F48104A03920129049001D003980490049801F0B5
:2063400063FD059841780B480B4A01924C29029001D001980290029801F056FDFFE706B0CF
:2063600080BDC046F497000080980000669800006C980000149800003C98000080B586B04A
:20638000014604A80170007803A90191FDF76CFD0146019802AA11800078002820D0FFE7F3
:2063A000002102A8405E01F047FD0B2818DCFFE704A80078002102F0CFF9002810D1FFE744
:2063C00004A80078012102F0C7F9002808D1FFE704A80078062102F0BFF9002804D0FFE707
:2063E00005A90020087003E005A901200870FFE705A8007806B080BD80B582B001901748D8
:206400000078002807D0FFE7019815490968401A072801D8FFE71EE00198114908601148BD
:2064200000881149098888420EDAFFE70D4800900088142141430E484018FEF717FE0099DA
:206440000888401C088006E0044900200870074801F0DAFCFFE702B080BDC046F83520209F
:206460001C3520209E352020CE352020FE94000000002020F8B5451C00780023082B32D085
:206480002F78C2070CD16A780F241440E41C122C0BD102242E57F4B2002E08D4EE1C0EE0D9
:2064A0006D1C4A1C0F7011461AE0AE1C08E02E1DED7800957F252C40009DED012C19123400
:2064C0003D0112095219094DAA420ED0D243002C05D08D5C4F1C0D70641E3946F7E7354697
:2064E00040085B1CCAE72846C5E7F8BDFF0F000080B588B0014607A8029001700078002150
:20650000049102F029F90146029800910078012102F022F900990246029889180191007893
:20652000022102F019F9019902460298891803910078032102F010F90399024604988A18CA
:2065400006A90A7009780329059009D3FFE707A80078062102F000F9414248410590FFE74E
:2065600005980121084008B080BD000080B582B002F0BCFB01900F49002008600E490860DF
:206580000E4908600E4908600E4908800E4908800E4908600E4908800E4908800E49087073
:2065A0000E4908600E490860019802F095FB02B080BDC046403520206C35202044352020FE
:2065C00070352020AA352020CA35202078352020A8352020C83520200C36202048352020F2
:2065E0007435202080B588B0014607A801800021405E01280DDBFFE70120059001061648FD
:20660000069002F03DF905990698490602F09BFA20E0002107A8405E00280DD5FFE701202B
:20662000039001060C48049002F08DFA03990498490602F025F90CE00120019001060648D5
:20664000029002F080FA01990298490602F07BFAFFE7FFE708B080BD00000A4080B588B0DA
:20666000014607A801800021405E01280DDBFFE70120059041021648069002F001F9059976
:206680000698090202F05FFA20E0002107A8405E00280DD5FFE70120039041020C480490C9
:2066A00002F051FA03990498090202F0E9F80CE00120019041020648029002F044FA0199FC
:2066C0000298090202F03FFAFFE7FFE708B080BD00200A4080B586B0014605A80170007877
:2066E00000280BD1FFE70120C1050291144802F0FDF901460298049103901AE005A80078CA
:2067000001280BD1FFE70120010201910D4802F0EDF9014601980491039009E00848402109
:20672000009102F0E3F90146009804910390FFE7FFE70498039908404142484106B080BDA8
:2067400000200A4000000A4010B584B0089C079C069C03AC207002A8017001A80280684670
:206760000380134900200870039A12490A70029A4A70019A4A80009A8A80089A8A60069AA5
:20678000CA60089A0A618882C8820883079ACA61069A0A628884C862886248630863C863AA
:2067A0008863486408644822885404B010BDC04600362020403420200E49002008700E4999
:2067C00008600E4908600E4908700E4908700E4908800E4908700E4908800E4908800E4A30
:2067E000012111700D4908700D490870487088707047C04608362020643520201835202009
:20680000F335202014362020C03520200A362020EC352020EE3520201C3620201B362020EA
:206820009435202085B004A908801648008816490988884208DBFFE71248008812490988AE
:20684000401A03A908800AE00F4801880D480088401A01218902401803A90880FFE70399EE
:206860000A48411A02A80180018804A802880120002300939142019001DA009801900198A9
:2068800005B07047E8352020EA352020FF03000080B584B017480290FFE7174802F086F9BE
:2068A000019001A800788007002806D5FFE701F0EFFD03A90020087018E001A80078C007B5
:2068C000002801D1FFE70DE00298002806D1FFE701F0DEFD03A90020087007E00298401E7D
:2068E0000290DAE703A901200870FFE703A8007804B080BD8813000000200F4070B58EB099
:20690000044612980DA8049004700CAC059421800B920A93134A0021069111700178022069
:206920000790032208924C29099001D008980990069C05990998095F0B9A129B0194009425
