:200000000080202039A500002DA500002DA50000000000000000000000000000000000009E
:200020000000000000000000000000002DA5000000000000000000002DA500002DA500004A
:200040002DA50000298400002DA500002DA500002DA50000857100002DA500002DA5000011
:20006000000000002DA500002DA5000000000000000000002DA50000918100002DA5000026
:200080002DA500002DA500002DA500002DA500002DA5000089990000000000000000000024
:2000A0002DA500002DA5000000000000000000002DA50000000000002DA500002DA5000026
:2000C00010B59CB01B901A911B9809F0FCFA1B9815A9052206F0DAFA014614A801700078C9
:2000E000002802D1FFE700F00AFF14A8007801280CD1FFE71598FC4907F0B2FA002805D074
:20010000FFE7FA4809F092F900F0F9FE14A8007802281CD1FFE71598FC4907F0A1FA00286F
:2001200015D0FFE7169813A906F000F900280ED0FFE7139800280AD4FFE71398F449884266
:2001400005DCFFE7139807F069F800F0D7FE14A8007801280BD1FFE71598EE4907F080FA9C
:20016000002804D0FFE709F083FA00F0C6FE14A80078012821D1FFE71598E74907F070FA00
:2001800000281AD0FFE7E54900200D90087004F061F90D98E2490870E2490870E249087028
:2001A000E2490870E2490870E2490870E2490870E24809F03BF900F09FFE14A80078012872
:2001C0000CD1FFE71598DE4907F04AFA002805D0FFE71A9805F0E0F900F08DFE14A800783B
:2001E00001280BD1FFE71598D64907F039FA002804D0FFE706F0D8FE00F07CFE14A80078D2
:2002000001280BD1FFE71598CF4907F029FA002804D0FFE706F008FB00F06BFE14A80078AC
:2002200001280BD1FFE71598C84907F019FA002804D0FFE706F0C0F900F05AFE14A80078FE
:20024000022815D1FFE71598C04907F009FA00280ED0FFE71698BE4907F002FA002807D065
:20026000FFE708F029FEBB4809F0E0F800F03FFE14A8007802281CD1FFE71598B64907F0A4
:20028000EFF9002815D0FFE7B4480078002810D1FFE71698B24907F0E3F9002809D0FFE7BD
:2002A00008F05AFF002008F003F803F021FE00F01DFE14A8007802281CD1FFE71598A649F0
:2002C00007F0CEF9002815D0FFE7A4480078002810D1FFE71698A34907F0C2F9002809D0CD
:2002E000FFE708F039FF012007F0E2FF03F000FE00F0FBFD14A8007801280BD1FFE715984A
:20030000994907F0ADF9002804D0FFE703F0F0FD00F0EAFD14A80078022842D1FFE71598C1
:20032000924907F09DF900283BD0FFE7169813A905F0FCFF002834D0FFE71398002830D4F9
:20034000FFE71398724988422BDCFFE783480078002826D1FFE7139810908548007800289A
:200360000CD0FFE7834800681099884206D1FFE710988149097808F02BFA10E008F0ECFE76
:2003800005F094FD7C49087010987A4A1060784A012010701098097808F01AFAFFE700F050
:2003A000A2FD14A8007801281DD1FFE715986F4907F056F9002816D0FFE76848007800287E
:2003C00011D1FFE708F0C8FE05F070FD002804D0FFE76A4809F02AF803E0694809F026F8DB
:2003E000FFE700F07FFD14A8007801281DD1FFE71598644907F034F9002816D0FFE7574869
:200400000078002811D1FFE702F08AFE002806D0FFE75D4809F00AF803F06AFD03E05B4896
:2004200009F004F8FFE700F05CFD14A80078012811D1FFE71598564907F012F900280AD023
:20044000FFE746480078002805D1FFE71A9808F019FB00F045FD14A8007802281ED1FFE7A9
:2004600015984C4907F0FCF8002817D0FFE71698494907F0F5F8002810D0FFE728490120B6
:2004800008702849002008701A9844490860444808F0CCFF09F0A0FF00F021FD14A800780B
:2004A00002281CD1FFE715983A4907F0D9F8002815D0FFE716983B4907F0D2F800280ED05B
:2004C000FFE71749002008701649012008701A9832490860344808F0A9FF00F0FFFC14A8EE
:2004E000007802286ED103E0A3AF00008AAE00001598284907F0B4F8002863D0FFE71698FE
:200500002A4907F0ADF800285CD051E04AAF0000FFFFFF7F6CAF00009EAF0000F038202002
:20052000023B2020D53A2020D43A2020DC3A2020013B2020003B2020FD3A202084AD0000AC
:20054000C2AE0000F3AE000022B0000008AF000026AF000045AB00006CAE0000F43A2020B4
:2005600032AF000098AE00000EAF000076AF0000EC3A2020043A2020EB3A20207AAD000002
:200580004FAD0000ADAF0000A2AD000002AD0000BCAF0000DEAE000047B00000103A20208D
:2005A000D6AB000062AF000067AB0000D6AF0000FE4900200870FE490870FE4808F036FF01
:2005C00000F08BFC14A8007802285CD1FFE71598F94907F045F8002855D0FFE7169813A973
:2005E00005F0A4FE002809D0FFE71398002805D4FFE71398F149884204DDFFE7F04808F045
:2006000015FF3EE0EF480078002810D0FFE71398EC49C96988420AD1FFE7EB4808F006FF3E
:20062000139806F07FFAE94808F000FF28E0E8480078002806D0FFE71398E649C96988420E
:2006400005D0FFE71398E44908F08CFB17E0E1480078012804D1FFE7DE4806F081F80DE08A
:20066000DC480078022804D1FFE7DA4805F080FD03E0DA4808F0DAFEFFE7FFE7FFE7FFE7F8
:20068000FFE700F029FC14A80078042800D085E01598D34906F0E4FF00287FD0FFE716981D
:2006A00013A905F043FE002878D0FFE7179812A905F03CFE002871D0FFE7189811A905F0AB
:2006C00035FE00286AD0FFE713988121C943884264DBFFE71398822860DCFFE712983228DC
:2006E0005CDBFFE7129819210901884256DCFFE71198002852D4FFE71198B04988424DDC9B
:20070000FFE711980F90B748007800280BD0FFE7B54800680F99884205D1FFE70F98B34915
:2007200008F0D8FA39E0B248007805280AD0FFE7AF48007806282AD1FFE7AE480078002863
:2007400025D1FFE7AC480078002808D0FFE70021AA48405E08F082FE052805DBFFE70F98A8
:20076000A74908F0B7FACAE31398A64908801A9812994018A44908600F989B490860994932
:20078000012008700F98994908F0A4FA04E00F989B4908F09FFAFFE7FFE79CE314A8007822
:2007A000032851D1FFE715988D4906F059FF00284AD0FFE7169813A905F0B8FD002843D0BE
:2007C000FFE7179812A905F0B1FD00283CD0FFE713988121C943884236DBFFE7139882289D
:2007E00032DCFFE7129832282EDBFFE7129819210901884228DCFFE77F480078002823D016
:20080000FFE700217D48405E08F028FE04281BDCFFE77748007805280AD0FFE774480078EF
:20082000062811D1FFE77348007800280CD1FFE71398744908801A981299401872490860DC
:20084000724808F0F3FD45E314A80078032838D1FFE715986E4906F003FF002831D0FFE715
:20086000179813A905F062FD00282AD0FFE71398002826D4FFE713989B218900884220DC48
:20088000FFE71698634906F0EBFE00280ED1FFE71698614906F0E4FE002807D1FFE7169888
:2008A0005E4906F0DDFE00280BD0FFE74548002202701698007813A9895E1A9A05F0C8FC80
:2008C00007E314A80078052855D1FFE71598544906F0C6FE00284ED0FFE716984D4906F057
:2008E000BFFE002807D1FFE716984B4906F0B8FE002840D0FFE7179813A905F017FD0028AD
:2009000039D0FFE7189812A905F010FD002832D0FFE7199811A905F009FD00282BD0FFE7FC
:200920001398002827D4FFE713989B218900884221DCFFE712987D21C90088421BDBFFE7AF
:2009400012987D210901884215DCFFE71198002811D4FFE71198194988420CDCFFE71698B7
:200960000078002213A9895E129A119B1A9C009406F084F9ACE214A80078052800D092E0F4
:200980001598284906F06CFE002800D18BE01698204906F065FE002846D1FFE716981E49CB
:2009A00006F05EFE00287ED03EE0C046023B2020D53A2020A8AB000054AE0000FFFFFF7FAE
:2009C00056AB0000F038202012B0000038B00000EF3A2020A038202044AE0000B8AB00002E
:2009E0007BAF0000EA3A2020F83920203EB00000F43A2020FE3A2020F33A2020923A2020AB
:200A0000DAAF0000963A2020243A202070AD0000CEAF00004FB0000051B0000053B0000002
:200A2000BFAD0000B6AD0000179813A905F07EFC002838D0FFE7189812A905F077FC0028FC
:200A400031D0FFE7199811A905F070FC00282AD0FFE71398502826DBFFE713984B21C900F1
:200A6000884220DCFFE712987D21890088421ADBFFE71298FD49884215DCFFE711980028F2
:200A800011D4FFE71198FA4988420CDCFFE716980078002213A9895E129A119B1A9C00947A
:200AA00006F03EF913E214A8007804282BD1FFE71598F04906F0D4FD002824D0FFE7179874
:200AC00013A905F033FC00281DD0FFE7189812A905F02CFC002816D0FFE71298002812D407
:200AE000FFE71298E24988420DDCFFE71698139901F0C2FE002806D0FFE712981699139AAD
:200B000007F042FDE2E114A8007803281BD1FFE71598D84906F0A4FD002814D0FFE71798A5
:200B200013A905F003FC00280DD0FFE71698139901F0A2FE002806D0FFE7CF4808F076FCCA
:200B400003F0D6F9C1E114A80078042852D1FFE71598F14906F084FD00284BD0FFE7169893
:200B6000EA4906F07DFD002807D1FFE71698E84906F076FD00283DD0FFE7179813A905F029
:200B8000D5FB002836D0FFE7189812A905F0CEFB00282FD0FFE7139850282BDBFFE7139881
:200BA0004B21C900884225DCFFE712987D21890088421FDBFFE71298D64988421ADCFFE765
:200BC000E94900200A90087016980178022003220B924C290C9001D00B980C900A9C0C983B
:200BE00013A9095F129A1A9B01940124009403F035FF69E114A8007803284AD1FFE71598A4
:200C0000C64906F02DFD002807D1FFE71598C44906F026FD00283CD0FFE7169813A905F073
:200C200085FB002835D0FFE7179812A905F07EFB00282ED0FFE7139850282ADBFFE7139884
:200C40004B21C900884224DCFFE712987D21890088421EDBFFE71298AE49884219DCFFE7EF
:200C60001598AF4906F0FCFC01460520042208920029099001D1089809900998002413A967
:200C8000095F129A1A9B01940124009403F0E6FE19E114A80078042800D081E01598A14944
:200CA00006F0DEFC00287BD0FFE7169813A905F03DFB002874D0FFE7179812A905F036FB92
:200CC00000286DD0FFE7189811A905F02FFB002866D0FFE71398502862DBFFE71398E12109
:200CE000490088425CDCFFE71298012858DBFFE712980A2854DCFFE71198002850D4FFE70A
:200D00001198804988424BDCFFE711980E9090480078002817D0FFE78E4800680E9988424F
:200D200011D1FFE70E9805908B4801788B488C4A06920029079001D106980790059807991F
:200D400007F0ECFF2BE070480078002805D0FFE70E98844907F0E2FF20E0002113A8405ECE
:200D600012A909781A9A02F083FB01467A4801700E99784A1160764A012111700E99029122
:200D800001787648764A03920029049001D1039804900298049907F0C1FFFFE7FFE791E0DE
:200DA00014A80078032837D1FFE715985D4906F057FC002830D0FFE7169813A905F0B6FA2D
:200DC000002829D0FFE7179812A905F0AFFA002822D0FFE7139850281EDBFFE71398E12155
:200DE0004900884218DCFFE71298012814DBFFE712980A2810DCFFE7002113A8405E12A97B
:200E000009781A9A02F034FB002804D1FFE74F4808F00CFBFFE754E014A8007803284BD16E
:200E2000FFE71598404906F01BFC002844D0FFE7169813A905F07AFA00283DD0FFE71798CA
:200E400012A905F073FA002836D0FFE71398502832DBFFE713984B21C90088422CDCFFE7B3
:200E600012987D218900884226DB07E0983A0000FFFFFF7F02B00000F5AD00001298254935
:200E8000884219DCFFE720480078002814D1FFE71398274908801298264908602649012026
:200EA00008702649002008702549087025490870254808F0BBFA03E01C4808F0B7FAFFE7F7
:200EC000FFE7FFE7FFE7FFE7FFE7FFE7FFE7FFE7FFE7FFE7FFE7FFE7FFE7FFE7FFE7FFE7B2
:200EE000FFE7FFE7FFE7FFE7FFE7FFE7FFE7FFE7FFE7FFE7FFE7FFE7FFE7FFE7FFE71CB0AC
:200F000010BDC046FFFFFF7FF43A20204FB0000051B00000983A0000A8AF00002EB000000D
:200F200094AF0000D0AE000006B000006DA900006C3A2020BC392020013B2020003B202012
:200F4000023B2020D43A2020AAA700004CA80000EE3A20200C3A2020ED3A20203EB000003E
:200F6000DAAF0000C1AF0000F038202010B5A4B022901CA9002008701BA908701AA9087071
:200F800019A9088018A9087017A90870FC48007806280AD1FFE7FB480078002805D0FFE74D
:200FA000FD480078042805D1FFE723A90020087000F00EFE2298F9490968401A2190F64876
:200FC0000078012849D1FFE7F5490A88F54802800A88F5490A80F54A1388F54C238012882F
:200FE000F44B1A800022805E895E05F03DFF219832282DD3FFE709F029FA002808D1FFE704
:20100000ED4808F033F823A90120087000F0E0FD09F056F9E949002012900880E8490880C9
:20102000E8490120087008F079FCE749086008F087FC01461298E54A1160E5490880E549F1
:201040000870D549022008702298D4490860FFE723A90120087000F0BBFD09F0F7F900281D
:2010600011D1FFE7DC480078012808D1FFE7DB4807F0FCFF23A90120087000F0A9FDD149FA
:2010800000200870FFE708F049FCCF490968401A1E9008F055FCCD490968401A1D901E9877
:2010A000002804D5FFE71E9840421E90FFE71D98002804D5FFE71D9840421D90FFE71E9861
:2010C0001D994018C10F40184008C149088009F005FA7F210840C2490870BF4800780128F5
:2010E0000ED1FFE7BE4800781AA904F0C3F919A908801998BB4908801A98BB490870FFE79F
:20110000BA480078002820D1FFE7B548007808F006F800280BD1FFE7B5480078FF2805D090
:20112000FFE7B3490878401C0870FFE703E0B04900200870FFE7AE480078022804D3FFE7E4
:20114000AA4901200870FFE72EE0A548007807F0E6FF1BA90870A0480078012804D1FFE74E
:201160001BA900200870FFE700229948805EA149895ECA0F89184910884210DBFFE71BA84A
:20118000007800280BD0FFE79B480078FF2805D0FFE799490878401C0870FFE703E09649D3
:2011A00000200870FFE7FFE709F050F900282AD0FFE708F0B9FD20A9088082480078002818
:2011C00011D0FFE720987E490988401A00B208F045F9C82807DCFFE7209879490880209883
:2011E000764908800EE0209875490988401A00B208F034F9C92804DBFFE772490020087079
:20120000FFE7FFE7FFE7229864490968401A219071480078012800D07AE3229877490968C7
:20122000401A169067480078002808D1FFE7744807F01CFF23A90120087000F0C9FC002197
:201240005E48405E6F49884208DBFFE76E4807F00DFF23A90120087000F0BAFC00225C4875
:20126000815E0520484363498A5E09215143884208DDFFE7654807F0F9FE23A901200870F8
:2012800000F0A6FC1698C009192808D3FFE7604807F0ECFE23A90120087000F099FC3E484A
:2012A0000078022805D0FFE73B480078032800D050E11AA80078002819D0FFE74848007871
:2012C0004006800F002812D0FFE7002119A8405E0A280CDBFFE700213848405E7D21890064
:2012E000884204DBFFE74B4901200870FFE749480078002820D0FFE71AA8007800281BD1F7
:20130000FFE700212D48405E4349884214DBFFE742480078FF2805D0FFE740490878401C3F
:201320000870FFE73D480078022804D3FFE73C4901200870FFE709E039480078002804D188
:20134000FFE7364900200870FFE7FFE727480078002800D18FE02F480078002800D18AE023
:201360002F480078002800D185E01AA80078002800D180E01A480078400700287BD003E016
:20138000F43A2020FE3A2020002119A8405E0521C94388426FDC45E0FE3A2020503A202039
:2013A000C63A2020883A2020A83A2020BE3A2020903A2020B03A20200FAC0000CA3A20205E
:2013C000C23A2020093B20205C3A2020603A2020C83A2020043B20206B3A202098AB0000B4
:2013E000F23A2020923A2020F33A2020083B2020073B2020BC3A2020063B2020543A20207E
:2014000030AA00007F04000086A9000003A90000E6A80000E43A20208A020000E53A2020BD
:20142000E63A20200021E748405EE749884222DBFFE70021E348405EE44988421BDCFFE7C3
:201440000022E348805E8100E248825E03205043884210DCFFE70022DD48815E05204843AE
:20146000DC498A5E09215143884204DCFFE718A901200870FFE718A8007800280BD0FFE7B0
:20148000D5480078FF2805D0FFE7D3490878401C0870FFE703E0D04900200870FFE7CE48EF
:2014A0000078032804D3FFE71CA901200870FFE7C44800221092815EC848825E01209142F5
:2014C000119001DA10981190119917A80170007800283ED0FFE71CA80078002839D1FFE785
:2014E000BF4903200870BF480078002830D1FFE7BC4901200870BC4807F098FFBB48007810
:20150000401C05F00FFBBA480E9007F08FFF00210F91AC48405E05F005FB0E9807F086FFE1
:201520000F99AB48405E05F0FDFA0E9807F07EFFB048007805F0F6FA0E9807F077FF0F995C
:2015400019A8405E05F0EEFAAB4807F06FFFFFE7FFE7FFE7A2480078052800D0B6E008F058
:201560002BF907F07BFF15A9088008F039F907F075FF14A90880A14900200880A0490880B3
:20158000A0490880A049088007F0E6FD2198782817D3FFE7002115A8405E0F2811DCFFE7E0
:2015A000002114A8405E0F280BDCFFE797480078FF2805D0FFE795490878401C0870FFE75B
:2015C00003E0924900200870FFE79048007803286FD3FFE71AA8007800280DD0FFE785483A
:2015E00000784007002814D1FFE78248007807F096FD00280DD1FFE721984008E12804D3A0
:20160000FFE7834807F032FDFFE723A901200870DEE206F08FFC08F02DFA7E4908607E4853
:201620000078002809D0FFE77C4800687C4908617C4800687C49086102E008F07DFEFFE75C
:201640007A4900200D9008707949087008F0F2F97849086008F0FEF90D99774A10607748C7
:201660000160774801602298764A10602298764A1060764801801998754A10807548018098
:201680007548018019A8405E07F0E8FE01460D98724A11802299724A1160724908805049D3
:2016A0000620087022987049086023A9012008708EE221984008E12804D3FFE76B4807F06B
:2016C000D5FCFFE723A90120087081E244480078062800D01BE11AA80078002807D0FFE76E
:2016E000002119A8405E07F0B9FE0C9002E060480C90FFE70C9813A908801AA800780028CA
:2017000025D1FFE7574800885A49884205D8FFE7544908880A300880FFE738490020088098
:2017200037490880374908803749088007F014FD08F002FE4B480088B42804D3FFE74E4847
:2017400007F094FCFFE723A90120087040E245480022028013A8805E4049895E884207DAB0
:20176000FFE713983D49088022983D490860FFE72048007807F0D3FC002819D0FFE700217E
:2017800013A8405E062813DCFFE700210D48405EAF21890088420BDBFFE738480078FF28CB
:2017A00005D0FFE735490878401C0870FFE703E0324900200870FFE73048007805285FD28C
:2017C00095E0C046CA3A2020EE0200004C040000C83A2020BC3A2020E73A2020BA3A2020FD
:2017E000FE3A2020E83A202051AC0000FC3A202055B00000F23A202038B00000883A202041
:20180000A83A2020903A2020B03A2020DF3A2020D1A90000083A2020E33A2020E83920205F
:2018200080392020EC39202094392020E03A2020E23A2020CC392020D0392020DC392020A4
:20184000E4392020D8392020E03920209E3A20209C3A2020943A20209A3A2020763A202041
:20186000D4392020783A2020503A20201FA90000FF7F00005FEA00006EA80000053B20203A
:20188000E94901200B900870F84807F0CFFDDC480078401C05F046F9DA48099007F0C6FD3E
:2018A00000210A91D448405E05F03CF9099807F0BDFD0A99CC48405E05F034F9099807F027
:2018C000B5FDCA48007805F02DF9099807F0AEFD0A9919A8405E05F025F9CB4807F0A6FDAC
:2018E000229801F053FA0B9823A9087070E12198DC49884207D3FFE7DB4807F0B7FB23A9B8
:201900000120087064E123A90020087060E1FFE7B8480078032827D3FFE7B2480078002841
:201920000CD0FFE70021B448405E7D218900884204DBFFE71CA90120087014E0A9480078B9
:2019400000280FD1FFE70022A748805E8100A848825E03205043884204DCFFE71CA901202D
:201960000870FFE7FFE7FFE79D480078012873D1FFE72198DC286FD3FFE71CA80078002844
:201980006AD0FFE71AA80078002865D0FFE718A80078002860D0FFE797480088A949039147
:2019A000088091480088A849049108808F480078A649059108701998A54908910880A54936
:2019C000002007900870A4490880834A052111702299824A1160A14908809649088096493F
:2019E00008808D4908808D4908808D4908808D49088007F0B1FB08F09FFC994807F016FDC6
:201A00007F480078401C05F08DF87E48069007F00DFD03980799405E05F084F8069807F075
:201A200005FD04980799405E05F07CF8069807F0FDFC0598007805F075F8069807F0F6FCD5
:201A400007990898405E05F06DF86F4807F0EEFC23A901200870BBE02198C008AF280CD37F
:201A6000FFE75F480078012807D0FFE7744807F0FDFA23A901200870AAE02198DC2856D3FC
:201A8000FFE757480078012851D0FFE71CA8007800281AD1FFE753480078002808D1FFE7EA
:201AA00000225148805E5249895E88420DDAFFE74C48007800283AD0FFE700224E48805EBA
:201AC0004E49895E884232DBFFE71C98564908704149042008702298404908605349002073
:201AE00002900870524908805249088052490880494908804949088049490880494908800B
:201B000007F02AFB08F018FC3D480078401CC0B24A4909788906090E884204DBFFE72298CF
:201B200001F034F9FFE723A90120087050E02A480078022823D1FFE72198DC281FD3FFE789
:201B40002848007800280CD0FFE700212A48405E2A4909882D4A1288891A09B288420ADA61
:201B6000FFE700212048405E21490988193909B2884204DBFFE7184903200870FFE7164881
:201B80000078022805D1FFE700212248405E019004E000211E48405E0190FFE701981FA94C
:201BA00008801F9841421C4801801F9A1B490A801F9A52421A4B1A801F9A1A4B1A800022B1
:201BC000805E895E05F050F923A901200870FFE723A8007824B010BDFE3A2020503A202091
:201BE0006B3A2020093B2020C83A2020F23A2020BC3A2020063B2020CA3A2020BA3A20209F
:201C0000FC3A202055B0000038B00000C43A2020C63A2020C03A2020883A2020A83A202085
:201C2000903A2020B03A2020043B2020053B20209C3A2020943A20209A3A2020FF3A2020C0
:201C40005EAC00007E3A20207C3A2020DE3A20207A3A2020DF3A2020783A20209E3A2020DD
:201C6000F3AB000098080000C9A8000044AC0000B0B5D2B0519007F0FDFE5090FB48007870
:201C8000022816D0FFE7F9480078032811D0FFE7FD48007804280CD0FFE7FB480078052810
:201CA00007D0FFE7F8480078062802D0FFE700F0ACFD5098F5490968884202D1FFE700F026
:201CC000A4FD5098F14908605198FFF74FF9002802D0FFE700F099FDEB480078022809D19D
:201CE000FFE7EB480088EB490880EB490020088000F059FDE4480078032809D1FFE7E549A8
:201D000000200880E2480088E349088000F04AFDDD480078052806D0FFE7DB48007806282F
:201D200001D000F0B7FCDA4800884DA908805198DA490968401A4890D9484790AF20400051
:201D400046A90880D74801780020012928900DD1FFE7CF4800212691415E0120C929279056
:201D600001DB2698279027982890FFE728980121084045A90870CB4801780020012925909A
:201D80000DD1FFE7C048017800200629259006D1FFE7C5480078414248412590FFE7259A52
:201DA0000120024044A90A7009780029249018D1FFE7BC4801780020012923900ED1FFE7ED
:201DC000B148017800200629239007D1FFE7B6480078801F414248412390FFE723982490A8
:201DE000FFE724980121084043A9087042A91420088041A9088040A90A200880A24800785D
:201E000006280CD1FFE7A8480078042807D1FFE742A91920088041A93220088026E09A4827
:201E20000078062821D1FFE79F48007806281CD1FFE742A92D20088041A94120088040A948
:201E400005200880519899490968401A000919280AD3FFE742A93C20088041A94B20088086
:201E600040A908200880FFE7FFE7FFE745A8007800280ED0FFE784480078062809D1FFE794
:201E80008B480078002804D1FFE77D2080004790FFE78448007801280ED1FFE77A480078CE
:201EA000062809D1FFE780480078062804D1FFE746A9B420088014E07A48007801280FD189
:201EC000FFE77148007806280AD1FFE776480078002805D1FFE7AF20400046A90880FFE776
:201EE000FFE769480078062819D1FFE76E480078042814D1FFE76F4800884DA90880694842
:201F0000007801280AD1FFE700214DA8405E652804DBFFE74DA964200880FFE729E05A48C6
:201F20000078062813D1FFE75F48007806280ED1FFE7604801884DA801800021405E65282C
:201F400004DBFFE74DA964200880FFE710E04898479988420BD2FFE700214D48415E489862
:201F60004843479906F0C8FF4DA90880FFE7FFE7FFE74C480078012819D1FFE74248007802
:201F8000062814D1FFE74848007800280FD1FFE74748007800280AD1FFE700214DA8405EAE
:201FA000792804DBFFE74DA978200880FFE708F095FA01467F2001403F480170007849A9AF
:201FC00003F058FA3D49088049983D49087044A80078002852D0FFE749A8007800284DD08D
:201FE000FFE7002121913548405E07F037FA219902463FA822900280254A12883EAB1A803C
:20200000405E14301421282206F00AFC21990246229842AB1A80429A41AB1A80405EC10F50
:20202000401840100A300A21102206F0F9FB21990246229840AB1A80405E05281DDBFFE78D
:20204000002120911248425E3FA8405E8000101A1030642106F0E4FB209A3EA908804DA8CD
:20206000805E895E884207DD02E0C046F43A20203E984DA90880FFE7FFE7FFE702480078CF
:2020800006281FD0EEE0C046F43A2020083A2020B83A2020903A2020B03A2020303A20204F
:2020A000DC0500006B3A2020FE3A2020D4392020FC3A2020BE3A2020F23A2020923A20206F
:2020C000F33A2020F4480078002800D088E005F0CBFFF2490880F2480078012833D1FFE738
:2020E00008F0B4F900282ED0FFE707F01DFE01463DA80180E12149003CAA1F9211800021DC
:202100001E91405E07F0AAF91E9A1F99895E88420BDBFFE7E3480078FF2805D0FFE7E1493C
:202120000878401C0870FFE703E0DE4900200870FFE7DC480078032804D3FFE7DA4806F041
:2021400095FF62E303E0D74900200870FFE70022D248805ED549895E884206DAFFE7D44959
:2021600000200870D349087039E0D1480078072811D8FFE7D048007805F0AAFB002805D064
:20218000FFE7CB490878401C087003E0C84900200870FFE722E0C848007805F090FC00284C
:2021A0000BD0FFE7C3480078FF2805D0FFE7C1490878401C0870FFE703E0BE490020087033
:2021C000FFE7BC480078022807D3FFE7519802F0CBFA5198FEF7CAFE17E3FFE7FFE740E087
:2021E000AD48007804283BD1FFE75198B3490968401A3B903B98782812D3FFE7AE4800782D
:2022000005F066FB00280BD0FFE7AD480078FF2805D0FFE7AA490878401C0870FFE703E020
:20222000A74900200870FFE7A548007803280CD3FFE7519800F0AAFD002801D0FFE7E4E2B6
:20224000A04800884DA9088009E03B984009192804D3FFE79C4806F009FFD6E2FFE7FFE727
:20226000FFE7FFE749A80078002800D16EE197481C9000211B91405E07F0F0F81B993AAA74
:202280001992108092481A90405E07F0E7F81B9902461C9839AB1A8038ABA0221A80008816
:2022A00036AA108035AA082010808A48006834908948006833904DA8415EFF2254320120C1
:2022C00091421D9001DC1B981D901B9A1A991C981D9B32AC237000880988401A4AA91891ED
:2022E00008807E481790805E4000895E4018032106F0A2F9179A189B1B9904461998148030
:2023000012881A80405E022805DCFFE736A90020088034902EE000213AA8405E042806DCF2
:20232000FFE73498C10F40184010349021E000213AA8405E0A281BDBFFE743A80078002874
:2023400015D1FFE732A80078002809D0FFE7349905204843C117890F40188010169003E01A
:20236000349840001690FFE716983490FFE7FFE7FFE7FFE700223AA8805E39A9895E884246
:2023800008DAFFE7339903204843C10F40184010339008E0339903204843C117890F401896
:2023A00080103390FFE700213AA8405E022803DCFFE700203390FFE732A8007800282ED013
:2023C000FFE700213AA8405E042812DCFFE738A92D20088000213AA8415E0A200522149227
:2023E0000329159001DB14981590159835A9088014E000213AA8405E0A2807DBFFE738A95C
:202400007D20088035A91220088006E038A95A20088035A908200880FFE7FFE723E00021B8
:202420003AA8405E042812DCFFE738A92D20088000213AA8415E0A20052212920329139000
:2024400001DB12981390139835A908800AE000213AA8405E0A2804DBFFE735A91220088028
:20246000FFE7FFE7FFE743A8007800283DD0FFE7002238A8805E42A9895E884204DDFFE7E9
:20248000429838A90880FFE7002235A8805E40A9895E884228DD23E0FE3A2020743A20202E
:2024A0006B3A2020E13A202086AA0000703A2020D93A2020DA3A2020F23A2020503A2020E5
:2024C000053B2020B83A20200FAB0000923A20209C3A2020283A2020203A2020943A202024
:2024E000409835A90880FFE7FFE734990023119336A8C05E4843339A4AA9C95E51434018E4
:202500007D21C90006F098F8119A38A98A5E514209B206F085F9119B014637A80180C05E27
:20252000CE491091CA5E35A9CB5ED11AD21809B212B206F075F9109A014611981180BF49C9
:202540000988C54A1180BE49088037E0BC480088BC49884205D8FFE7B94908880A30088032
:20256000FFE7B748008846A90988884213DBFFE7A7480078062804D1FFE7B64806F076FD19
:2025800008E001F067FFB14900200870B04806F04DFFFFE739E1AA48008864280DD3FFE764
:2025A000A948002101804DA8405E652804DBFFE74DA964200880FFE7FFE7FFE7A748008878
:2025C0004BA908800021A648405E002816D0FFE7A44800685199401A01280FDBFFE700222B
:2025E0004BA80F90805E9E49895E40189F21C943A02206F015F90F99088005E0984900209D
:20260000088098490860FFE743A8007800280DD0FFE700224BA80E90805E41A98A5E5142BF
:2026200009B206F0FDF80E990880FFE74D9914394CA801800021405E002804D5FFE74CA99C
:2026400000200880FFE700220B924BA80A90805E4CA98A5E514209B206F0E2F80A9A0B997F
:2026600010804DA80D90405E525E80184B22D2000C9206F0D5F80A9B0B990C9A04460D98D4
:202680006C4D2C80405E5B5EC01A06F0C9F86A49088086E05F48008831A9088007F0CAF901
:2026A000089007F0D7F901460898401A309007F0C1F9099007F0CEF9014609984018C10FA2
:2026C000401840102F902F9900225348805E4843524905F0B1FF2E9030982E99401A2D9001
:2026E00051984F490968401A299029984D4988420BD8FFE700214748415E299848434A49BD
:2027000006F0FAFB31A90880FFE7002131A8405EC20F801842082BA80280405E3D2804DB04
:20272000FFE72BA93C200880FFE7404800682A9029983C49884208D8FFE72A984000002172
:202740003B4A06F0DFFD2A90FFE72A992D9848437D21C90005F070FF002205922BA98A5E2F
:20276000514209B206F05CF805992CAA0492108031A80790405E525E801A4B22D2000692F8
:2027800006F04EF8049B0599069A04460798294D2C80405E5B5EC01806F042F826490880BF
:2027A000FFE7FFE7FFE704F017FA07F005F84FA90191088007F014F8014601984EAA0392EC
:2027C0001180002202921B49895E825E264802F023FD029A01460398244B19801649895E3B
:2027E000825E234802F018FD22490880519800F0B9FF002801D0FFE707E000221B48805EDA
:202800001C49895E04F030FBFFE752B0B0BDC046F43A2020B83A2020A63A202010270000FB
:20282000303A2020DB050000DC050000583A202088130000903A2020B03A2020923A202080
:202840009A3A20205FEA0000943A2020023B202071AA0000ACAD00009C3A20209E3A2020EE
:20286000963A2020243A202080392020883A202094392020A83A202080B584B002900191F3
:202880006946012008700298FD4904F0E9FE002811D0FFE70198002805D4FFE70198FD49E7
:2028A000884204DBFFE703A9002008701CE20198FB4908600CE20298FA4904F0D1FE00284C
:2028C00011D0FFE70198002805D4FFE70198F149884204DBFFE703A90020087004E201988C
:2028E000EF494860F3E10298EF4904F0B9FE002811D0FFE70198002805D4FFE70198E54971
:20290000884204DBFFE703A900200870ECE10198F7490860DAE10298F74904F0A1FE002886
:2029200011D0FFE70198002805D4FFE70198D949884204DBFFE703A900200870D4E1019874
:20294000EB494860C1E10298EC4904F089FE002811D0FFE70198002805D4FFE70198E54979
:20296000884204DBFFE703A900200870BCE10198CB498860A8E10298E14904F071FE00287A
:2029800011D0FFE70198002805D4FFE70198D949884204DBFFE703A900200870A4E1019844
:2029A000F84988608FE10298D64904F059FE002812D0FFE70198002806D4FFE70198FF2150
:2029C000C431884204DBFFE703A9002008708BE10198ED49888175E10298CB4904F040FEB5
:2029E000002812D0FFE70198002806D4FFE70198FF21C431884204DBFFE703A900200870E5
:202A000072E10198DF4988815BE10298BF4904F027FE002811D0FFE70198002805D4FFE733
:202A20000198D649884204DBFFE703A9002008705AE10198D249086042E10298B44904F006
:202A40000FFE002812D0FFE701984F21C943884204DBFFE70198512804DBFFE703A9002032
:202A6000087041E10198C449088028E10298A94904F0F6FD00281AD0FFE7B8480078012879
:202A80000AD1FFE701982221C943884204DBFFE70198242804DBFFE703A90020087023E10C
:202AA0000198B449088069460020087006E10298994904F0D5FD002822D0FFE701980028C7
:202AC00005D4FFE70198A349884204DBFFE703A90020087008E10198A54908609F480078A8
:202AE00001280CD1FFE79E49002008809D4908809D4909889D4A118069460870FFE7DCE035
:202B00000298864904F0ACFD002822D0FFE70198002805D4FFE701988E49884204DBFFE730
:202B200003A900200870DFE001988B4908608B48007801280CD1FFE789490020088089493A
:202B4000088089490988894A118069460870FFE7B2E00298724904F083FD002813D0FFE7CD
:202B60000198AF218900884205DBFFE701987749884204DBFFE703A900200870B4E001987A
:202B80007349088097E00298664904F069FD002819D0FFE7019864280DDBFFE701984B21E8
:202BA0008900884207DCFFE7019800226649895E884204DAFFE703A90020087094E00198C9
:202BC0006049088076E00298574904F049FD002817D0FFE7019850280BDBFFE70198FA286D
:202BE00007DCFFE7019800225649895E884204DDFFE703A90020087076E0019852490880E4
:202C000057E00298494904F02BFD002812D0FFE70198322806DBFFE70198FF216031884277
:202C200004DBFFE703A9002008705DE00198444908803DE002983E4904F012FD002810D057
:202C4000FFE70198502804DBFFE70198FB2804DBFFE703A90020087046E00198374908802C
:202C600025E00298334904F0FBFC002814D0FFE70198322806DBFFE701988D2806DB01E092
:202C80001EB0000003A9002008702DE001982A4908800BE0B90B000003A90020087023E08B
:202CA00080392020FEAF00002AB00000FFE7FFE7FFE7FFE7FFE7FFE7FFE7FFE7FFE7FFE798
:202CC000FFE7FFE7FFE7FFE7FFE7FFE7FFE7FFE768460078002803D0FFE707F02DFBFFE7B8
:202CE00003A901200870FFE703A8007804B080BD94392020E9030000F6AF0000CAAF00007E
:202D0000E2AF000085AF0000B7AF000067AF000071AF0000FAAE0000ECAE00007CAE0000E6
:202D20008EAD0000DAAD0000C8AD000039AD000010AE0000FEAD0000BC3A2020BE3A20209F
:202D4000C43A2020C03A2020C63A20204D040000BA3A2020214E0000203A20206B3A202048
:202D60009E3A2020943A2020923A20209C3A2020283A2020843A2020A63A202089130000AF
:202D8000583A2020943920208039202080B58CB00A90B048008809A90880AF4800780128FE
:202DA00032D1FFE70021AD48405E01282CDBFFE7AA48008809A90880A9480078002822D029
:202DC000FFE7A848007800281DD0FFE70021A648405EAF218900884215DBFFE70021A248F9
:202DE000405EA24988420EDCFFE70023A049CA5E032050439C4AD25E8018801C820F801853
:202E000080080880FFE7FFE79548007800281AD0FFE7002109A8405E322814DBFFE70021C9
:202E200009A8405E8C280EDCFFE700239149CA5E0320504309AAD25E8018801C820F8018A4
:202E400080080880FFE78C490878401C08708248007801281DD1FFE7884806F0E7FA86489F
:202E6000007803F05FFE8648079006F0DFFA002108917F48405E03F055FE079806F0D6FA8C
:202E800008997C48405E03F04DFE7E4806F0CEFAFFE77D4806F0CAFA77480690007803F048
:202EA00041FE7748059006F0C1FA00216E48405E03F038FE059806F0B9FA0A98734909681B
:202EC000401A03F02FFE6F4806F0B0FA069800786F4909788900C9B2884252DBFFE701F000
:202EE000B9FA864900200870854908705A480078012815D1FFE7834806F098FA002104915A
:202F00005B48405E03F00EFE7F4806F08FFA04995848405E03F006FE5A4806F087FAFFE75A
:202F20007A4806F083FA00215248405E03F0FAFD5448039006F07AFA754806F077FA4E48C6
:202F4000007803F0EFFD039806F070FA42480078012804D1FFE7714806F068FA0DE002F049
:202F6000A5FF002804D0FFE76B4806F05FFA03E0684806F05BFAFFE7FFE70BA901200870D2
:202F800064E044490020029008700A984249086006F0C4FC4149086006F0D2FC0146029854
:202FA0003F4A11603F4908803F4908703F4908703F4908703F4800883F4908802648007802
:202FC000012829D1FFE73D490020019008803C4908803C4908703C4908703C49087006F02F
:202FE00029FD3B49086006F035FD01460198394A116039490860394908600A983849086064
:203000000A983849086007F021FA002803D0FFE707F056F9FFE7FFE70F48007801280ED149
:20302000FFE731480078002809D0FFE72F4800682F4908612F4800682F49086102E007F079
:203040007BF9FFE70BA900200870FFE70BA800780CB080BDC83A20206B3A20207C3A2020A3
:20306000043B2020093B2020CA3A20204C040000BA3A2020BC3A2020FC3A2020B3AC00007A
:2030800055B0000038B0000018AD0000543A2020FF3A2020FE3A2020503A2020C0392020BC
:2030A000C4392020743A2020D93A2020DA3A2020053B2020923A20209C3A20209E3A202084
:2030C000943A2020E13A2020E03A2020E23A2020CC392020D0392020DC392020E439202091
:2030E000D8392020E0392020E33A2020E839202080392020EC39202094392020023B202080
:20310000D53A20203AA9000044AD00009FA900001DAC000002AA00009BAA000029A80000B9
:2031200080B5E4B07F2080026290619062980068BD49884246D1FFE762984068032841D1B4
:20314000FFE77F2080024C904C9922A8A82207F0E3F92498A82810D1FFE74B98089022A8A8
:2031600005F076F801460898884206D1FFE722A804F068FC002804D1FFE763A900200870D5
:203180004DE122A905911031B84807904822069207F0C2F90599069A07985831483007F03F
:2031A000BBF9069907984A9AAF4B1A80259BAD4A137012785143401803F056FC63A9012083
:2031C00008702CE162980068974988423BD1FFE762984068022836D1FFE77F2080022190E1
:2031E00021990BA8582207F097F90D98582810D1FFE7209804900BA804F0FAFF01460498A6
:20320000884206D1FFE70BA801F06EFB002804D1FFE763A90020087001E10BA803F0C6FB4A
:20322000904900200870904908809048039003F05DFB039908464830482207F06DF963A9D1
:2032400001200870EBE0619800684D90619840684E90619880684F906198C0685090619893
:20326000006951906198406952906198806953906198C06954906198006A55906198406ACA
:2032800056906198806A57906198C06A58906198006B59906198406B5A906198806B5B90C9
:2032A0006198C06B5C906198006C5D906198406C5E906198806C5F906198C06C60904D984B
:2032C0005949884214D1FFE74E98012810D1FFE7599802904DA805F02FFE0146029888429C
:2032E00006D1FFE74DA802F0E3F9002804D1FFE763A90020087092E04F984C4A1060509880
:20330000506051984A49086052984860539890605498886055989081569888815798454966
:2033200008605898444908805A98401C002817D0FFE74DA8818E0A91C08E09900A983F492D
:2033400088420CDCFFE709983C49884207DCFFE70A983B49086009983A490860FFE7FFE736
:203360005B98AF21890088423ADBFFE75B983649884235DCFFE75C98642831DBFFE75C98A3
:203380004B21890088422BDCFFE75D98502827DBFFE75D985C99884222DCFFE75E98322844
:2033A0001EDBFFE75E98AF214900884218DCFFE75F98502814DBFFE75F98FA2810DCFFE74C
:2033C0005B98224908805C98214908805D98214908805E98204908805F9820490880FFE785
:2033E0006098322808DBFFE760988C2804DCFFE760981B490880FFE71A49002008701A4918
:2034000008801A48019003F071FA019908464830482207F081F863A901200870FFE763A803
:20342000007864B080BDC046314449508039202094392020583A2020A63A2020204E000049
:20344000283A2020203A20204C040000BA3A2020C03A2020C63A2020C43A2020BE3A2020BC
:20346000BC3A20206B3A2020843A20209037202080B586B004AB188003A80170029206F0D4
:20348000E5FF00280FD0FFE707F02EF800280AD0FFE703A80078002805D0FFE703A800782D
:2034A0000B2804D3FFE705A900200870CFE000F0D1FF04F041FB684906200870049867499C
:2034C000088002986649086003A80178654848436549086006F0CEFA644908600298644927
:2034E0000860644901200870634900200870634908700299624A11600299624A11600399AA
:20350000614A1170614908706149087061490870614908706149087061480078012808D1B2
:20352000FFE706F093FF002803D0FFE706F0C8FEFFE75C490020019008805B4908805B4AEB
:20354000012111705A4908705A4908705A49087006F0E4F95949086006F0F2F901460198D9
:20356000574A1160574908805749087006F0D6F95649086006F0E4F901460198544A11606B
:2035800054490880544AE121490011805349088053490880534908805349088053490880D8
:2035A000534908705349087006F044FA5249086006F050FA01460198504A11605049086080
:2035C000504908600299504A116002994F4A11604F4908604F4908604F4908704F4908707F
:2035E0004F4908704F4908704F4908704F4908704F4908704F4908804F4908804F4908702B
:203600004F4908804F4A504911805049086050490880504805F00AFF019904A8405E03F038
:2036200081FA4D4805F002FF03A8007803F07AFA4A4805F0FBFE4A480078002803D1FFE78E
:2036400006F0CAFEFFE705A901200870FFE705A8007806B080BDC046F43A2020B83A2020DB
:20366000303A202060EA00002C3A2020083A2020103A2020023B2020D43A2020FE3A202061
:20368000503A2020543A2020FF3A2020FC3A2020D93A2020DA3A2020053B2020E13A202021
:2036A0006B3A2020CA3A2020C23A2020093B2020083B2020073B2020063B20205C3A2020C5
:2036C000603A2020C83A2020043B2020C0392020C4392020743A2020703A2020923A2020F5
:2036E0009C3A2020943A20209E3A20209A3A2020E03A2020E23A2020CC392020D039202036
:20370000DC392020E4392020D8392020E0392020E8392020EC392020E33A2020E43A2020CC
:20372000E53A2020E63A2020E73A2020E83A2020DF3A20207E3A20207C3A2020DE3A202068
:203740007A3A2020763A2020FF7F0000D4392020783A2020C4AA000055B0000038B000006D
:20376000D53A202080B588B006909548007801281AD1FFE793480078062815D1FFE7924881
:203780000078002805D0FFE78F48007806280BD1FFE700218D48405EC92809DBFFE78A486E
:2037A0000078062804D0FFE707A90020087002E100228748805E8749895E4018C10F401878
:2037C000400805A908808448007800286AD1FFE7002105A8405E282864DBFFE77F480068CE
:2037E00000280BD1FFE706987C49086006987C49086006F01FF97B490860FFE706F01AF920
:2038000078490968401A04900498002804D5FFE7049840420490FFE70498042807DBFFE7DD
:203820006D49012008706D490020086039E006986A490968401A642816D3FFE7069868491C
:203840000968401A32280FD3FFE7002166480290405E801C50218C2204F0E2FF02990880C9
:2038600006985F490860FFE700226048805E5E49895E884205DAFFE75B4800885B49088098
:20388000FFE7069855490968401A8008E12807D3FFE7574805F0EAFB07A9012008708AE0BE
:2038A000FFE70AE0002105A8405E272804DCFFE74A4900200860FFE7FFE74E48007800289A
:2038C0006AD1FFE7002105A8405E282864DBFFE74948006800280BD1FFE70698464908606E
:2038E00006984649086006F0B5F845490860FFE706F0B0F842490968401A0390039800286A
:2039000004D5FFE7039840420390FFE70398042807DBFFE7374901200870374900200860A2
:2039200039E0069834490968401A642816D3FFE7069832490968401A32280FD3FFE7002106
:2039400030480190405E801C32218C2204F068FF01990880069829490860FFE700222A48B4
:20396000805E2849895E884205DAFFE72548008825490880FFE706981F490968401A800858
:20398000E12807D3FFE7214805F070FB07A90120087010E0FFE70AE0002105A8405E2728D1
:2039A00004DCFFE7144900200860FFE7FFE707A900200870FFE707A8007808B080BDC04640
:2039C0006B3A2020F43A2020FE3A2020B83A2020903A2020B03A2020E03A2020DC39202007
:2039E000D8392020CC392020803A2020883A202033AB0000E23A2020E4392020E039202045
:203A0000D0392020823A2020A83A2020EAAA000070B58EB00D9009A900200870944800780D
:203A2000002801D1FFE721E10D9891498A68801A0C900D980969884200D2ECE00D99143193
:203A40008B48016140784C2804D1FFE705F0B4FE069003E005F0C4FE0690FFE706980BA9A5
:203A60000880834840784C2805D1FFE700218248405E059004E000217E48405E0590FFE709
:203A800005980AA9088000210BA8405E05F0E6FC77492422895E884208DDFFE700210BA8AF
:203AA000405E05F0DBFC72498884FFE77048007801283BD1FFE70C988008AF2812D3FFE7D6
:203AC00000210BA8405E05F0C9FC0446E3176849C86A8A6A121958418A62C862888A401C57
:203AE0008882FFE700210BA8405E05F0B7FC6349884207DBFFE75E494822885C0223184309
:203B00008854FFE700210BA8405E05F0A7FCE121C900884209DBFFE7554A4823D15C012022
:203B20000143D15409A90870FFE773E0504A049290880B99411A08A80180918A491C9182AE
:203B40000021405E05F08AFC04990446E317486B0A6B121958410A634863086AC9688842D9
:203B600016D1FFE700210BA8405E039040480421415E092048430A2104F05EFD0146039817
:203B800009B2884204DBFFE70C9839490862FFE700210AA8405EFF21F031884205DBFFE723
:203BA0003349088B401C0883FFE70C983049CA68032151438908884218D3FFE72C490291EE
:203BC000C88A401CC88200230BA8C65EF517CA6B8C6BA4196A418C63CA63C45E6443486CBA
:203BE0000A6C121958410A644864FFE700210BA8405E05F033FCE1218900884209DBFFE7D6
:203C00001B4A4823D15C01200143D15409A90870FFE7FFE7FFE70C981549C968884205D26D
:203C2000FFE709A80078002820D0FFE710490091087807AA019210701148502206F06CFC20
:203C40000099104A012010700020087000F002FC01980078012804D1FFE7094802F080FD95
:203C600003E0074802F084FAFFE7FFE70EB070BDF0382020A83A2020883A202092090000C4
:203C8000A0382020EF3A2020B0B588B0664AAF20410011606420506073208000906020205E
:203CA0009081624A7D20830013605160FF21B63191601A2191815E4AC10011605D4A3221EA
:203CC00011805D4A5D4911605D49000108605D49E120800008805C49B92008805B498C2081
:203CE00008805B4AB42111805A4908805A49622008805A49002004900870594908805948BF
:203D0000039002F0F3FD039908464830482206F003FCFFF705FA07A9087000F09BFB04982E
:203D2000514908705149087051490860514908605149086051490860514908605149088033
:203D40005149088051490870514908705149087051490870514908705149086051490880C3
:203D6000514908805149088051490880514908805149087051490870514908805149086073
:203D8000514A01211170514908705149087006A90870FFE706A80078022826D8FFE706A8D2
:203DA0000290007803F07CFF029A05A90870059B107806210C4644434C480355059B157888
:203DC0000C466C4304196370059B15780C466C430419A37012785143411800208880FFE70F
:203DE0000698401C06A90870D4E73A4900200860394901200870394805F018FB07A8017810
:203E00003748384A00920029019001D100980190019805F00BFB05F02BFC00F069F83248DF
:203E200005F004FB08B0B0BD8039202094392020583A2020A63A2020283A20205E1A000057
:203E4000203A2020BA3A2020C03A2020C63A2020C43A2020BE3A2020BC3A20206B3A202089
:203E6000843A202090372020023B2020D53A2020303A2020003A2020103A2020FC3920204E
:203E8000F0392020B23A2020723A2020D43A2020DC3A2020013B2020003B2020FD3A20208F
:203EA0003C3A2020923A20209C3A2020943A20209E3A20209A3A2020F33A2020F23A202017
:203EC000963A2020243A2020FF3A2020FC3A2020E13A2020F4392020FA3A20208DA80000D4
:203EE00046AA0000EAA9000021AB0000A839202080B584B0554805F099FA5548007802F0BD
:203F000011FE544805F092FA032002F00BFE524805F08CFA092002F005FE504805F086FA17
:203F20004F480090006802F0FDFD4E4805F07EFA0098406802F0F6FD4B4805F077FA4B4852
:203F40000290006802F0EEFD494805F06FFA0298406802F0E7FD474805F068FA009880681D
:203F600002F0E0FD444805F061FA0298806802F0D9FD424805F05AFA00980C210191405E84
:203F800002F0D0FD3E4805F051FA01990298405E02F0C8FD3B4805F049FA3B48006802F07B
:203FA000C1FD3A4805F042FA002103913848405E02F0B8FD374805F039FA03993648405EB7
:203FC00002F0B0FD354805F031FA3548006802F0A9FD344805F02AFA3348006802F0A2FD1F
:203FE000324805F023FA03993148405E02F09AFD304805F01BFA03992F48405E02F092FD45
:204000002E4805F013FA03992D48405E02F08AFD2C4805F00BFA03992B48405E02F082FD74
:204020002A4805F003FA03992948405E02F07AFD284805F0FBF903992748405E02F072FDA5
:20404000264805F0F3F904B080BDC0465CAA00006B3A20200DAD0000F7AC000044AF0000DF
:204060008039202020AF000050AF0000943920205CAF00003EAF000038AF0000B4AE00002B
:20408000D7AE000083AE0000583A202001AF0000A63A2020D1AD0000843A2020E3AD0000BC
:2040A000283A2020ECAD0000203A2020A7AC0000BA3A20205AAD0000C03A2020D6AC0000E1
:2040C000C63A20202AAC0000C43A2020ECAC0000BE3A202044AD0000BC3A202038B00000AD
:2040E00080B58CB00B90DC2003F082FE002801D1FFE7B4E005F060FB0AA9088005F070FBE6
:2041000009A9088057480078002803D1FFE70020079005E00B9854490968401A0790FFE748
:2041200007980890514805F081F9089802F0FAFC4F48059005F07AF903F052FA05F076F981
:20414000059805F073F9002106914A480090405E02F0E8FC059805F069F906994648029060
:20416000405E02F0DFFC059805F060F906990AA80190405E02F0D6FC059805F057F9069924
:2041800009A80390405E02F0CDFC059805F04EF906993A48405E02F0C5FC059805F046F966
:2041A00006993748405E02F0BDFC059805F03EF900980199069A805E895E401A02F0B2FC3E
:2041C000059805F033F902980399069A805E895E401A02F0A7FC059805F028F905F02AFCC9
:2041E000049005F037FC01460498401A02F09AFC059805F01BF906992248405E02F092FC71
:20420000059805F013F92048007802F08BFC059805F00CF91D48007802F084FC059805F02F
:2042200005F904F0D3F802F07DFC059805F0FEF81748007802F076FC059805F0F7F81548B5
:20424000007802F06FFC059805F0F0F806991248405E02F067FC114805F0E8F8FFE70CB053
:2042600080BDC046F43A2020303A20208AAF000055B00000903A2020B03A2020883A20206F
:20428000A83A2020923A2020F23A2020F33A2020FC3A2020FE3A2020C83A202038B00000FF
:2042A00080B588B007905E48007800280AD0FFE707985C49884201D8FFE7AFE058490020D7
:2042C0000870FFE758480078002812D1FFE760490120032200F068FE002803D1FFE704F05C
:2042E000ABFB9BE050490120087056490020087094E0262004A90C2200F056FE002810D152
:20430000FFE74F49002008704C480078032805D8FFE74A490878401C0870FFE704F08CFB45
:204320007CE004A8083005F053FB03900399084605F010FF00280ED1FFE703983B4903F07A
:20434000CFFE002807D1FFE70398394903F0E6FE002808D0FFE739490020087038490870BD
:2043600004F06AFB5AE0039803F074F802A908803048006800282FD0FFE702982E490988EE
:20438000401A00B204F0D4F8014601A801802B49097832224A43323269460A800022805E6D
:2043A000895E884209DCFFE7002201A8805E6946895E494288420EDAFFE720480021017025
:2043C00002A8405E02F090FE002803D1FFE704F033FB23E0FFE7FFE7029817490880174960
:2043E00000200870164908701649087016490120087010480068002805D1FFE70E480088FD
:2044000012490880FFE70B480068401C002805D0FFE708490868401C0860FFE708B080BD79
:204420000B3B2020871300000A3B20200000D0C00000D040383A2020D03A2020033B2020BD
:20444000F93A2020D73A2020F73A2020D23A2020683A202080B5324900200880314908809F
:204460003149088031490880314908703149086031490880314908603149087031490860AC
:2044800031490860314908703149087031490870314908803149088031490870314908707C
:2044A00031490870314908703149088031490870314908803149087031490870314908605C
:2044C0003149086031490860314908603149086031490860314908603149086031490870BC
:2044E00031490870314908703149087031490870314908703149087031490880314908800C
:204500003149087031490880314A32491180324908603249088005F00FFF04F01DFE80BDEB
:20452000883A2020A83A2020903A2020B03A2020F43A20202C3A2020963A2020243A202061
:20454000FE3A2020503A2020543A2020D93A2020DA3A2020053B2020CA3A2020C23A2020A4
:20456000093B2020083B2020073B2020063B2020C83A2020043B2020743A2020E03A202028
:20458000E23A2020CC392020D0392020DC392020E4392020D8392020E0392020E839202074
:2045A000EC392020E33A2020E43A2020E53A2020E63A2020E73A2020E83A2020DF3A202000
:2045C0007E3A20207C3A2020DE3A20207A3A2020763A2020FF7F0000D4392020783A2020F4
:2045E00080B594B01390FFE703A8402100F03EFC002805D0FFE7139903A8FBF761FDF3E71F
:20460000139801F05DFB139802F01EFD1398FDF72FFB1398FFF7FCF94548007801280ED182
:20462000FFE7139843490968401A00097D2806D3FFE7FFF70FFF404804F0F8FEFFE73F4842
:20464000007800280ED0FFE713983D490968401A142807D3FFE7139839490860139801F0CD
:204660009FFCFFE732480078022814D0FFE73048007803280FD0FFE72D48007804280AD000
:20468000FFE72B480078052805D0FFE72848007806282AD1FFE713982A490968401A2A490E
:2046A0000968884221D3FFE724480090007802A901910870FFF7CEFE0099244A0020107053
:2046C0000870234804F0B2FE0198007800280BD0FFE7204804F0AAFE1F48008802F022FA58
:2046E0001E4804F0A3FEFFE7FFE718480078002818D0FFE713981A490968401A142811D32C
:20470000FFE713981649086016480078002804D0FFE7139801F058FA03E01398FFF7E0FC3B
:20472000FFE7FFE7139803F011F914B080BDC046F43A2020003A202054A90000D43A2020CB
:20474000FC392020303A20202C3A2020023B2020BFAC0000CBAC0000B23A202038B0000021
:20476000103A2020D53A202080B586B0059003F07BFC01463B4801800021415E032048433D
:20478000052103F059FF4B218900E122920004F047F804A9088034480078002804D1FFE7DF
:2047A0000498324908800DE000233049CA5E0320504304AAD25E8018801C820F8018800830
:2047C0000880FFE72A49012008700598294908600598294908602949002003900870284963
:2047E000087028490870284908702849087028490870284908702849087028490870284971
:20480000087028490880284908802849087028490880284A28491180284908602849088006
:2048200028480078012816D1FFE72748006927490191274A029204F065FD0199029A254BBF
:2048400018602548006904F05DFD24490860244901200870FFE723490020088005F06CFD89
:2048600006B080BD743A2020FC3A2020703A2020FE3A2020503A2020543A2020D93A202094
:20488000DA3A2020053B2020E13A2020E43A2020E53A2020E63A2020E73A2020E83A202009
:2048A000DF3A20207E3A20207C3A2020DE3A20207A3A2020763A2020FF7F0000D4392020AA
:2048C000783A20206B3A202080392020702FFCFF90D00300E839202094392020EC39202038
:2048E000E33A2020CA3A202080B59AB018901898C0680690189800690790189840690890E1
:204900001898806909901898C0690A901898006A0B901898406A0C901898806A0D90189860
:20492000C06A0E901898006B0F9004A800F0C0FE002804D1FFE719A90020087085E0189849
:20494000416B00200029039079D4FFE71898416B0020404A9142039071DCFFE71898816B61
:204960000020002903906AD4FFE71898816B0020384A9142039062DCFFE71898C16B002073
:20498000AF2292009142039059DBFFE71898C16B0020314A9142039051DCFFE71898016C27
:2049A0000020642903904ADBFFE71898016C00204B2292009142039041DCFFE71898416CAA
:2049C0000020502903903ADBFFE71898416C026C00209142039032DCFFE71898816C0020AE
:2049E000322903902BDBFFE71898816C0020AF2252009142039022DCFFE71898C16C0020B6
:204A0000502903901BDBFFE71898C16C0020FA29039014DCFFE71898016D002032290390F9
:204A20000DDBFFE71898016D0120002201928D29029001DB0198029002980390FFE70398B7
:204A40000121084019A90870FFE719A800781AB080BDC046204E00004C04000070B588B06B
:204A60000C4605460D980C9907AE357006AD2C800592049303AA117002A90870FFF7EAFC3B
:204A80003749002008703749087003F055F805F0DDFC002803D0FFE705F012FCFFE707988F
:204AA0003149087006983149088004983049086005983049086004F0DDFF2F49086004981D
:204AC0002E49086004982E49086003982D49087002982D4908702D490020019008802C4947
:204AE00008802C4908802C4908802C4908802C4908702C4908702C4908802C49086002A8D9
:204B00000078002808D0FFE72949002008802949088029490870FFE7284804F087FC02F07A
:204B20005FFD04F083FC2648009004F07FFC002106A8405E01F0F6FF009804F077FC05984A
:204B400001F0F0FF1F4804F071FC03A80078002803D0FFE705F040FCFFE708B070BDC046A7
:204B6000013B2020003B2020F43A2020B83A2020303A20202C3A2020083A2020103A202042
:204B8000FC392020023B2020D43A2020923A20209C3A2020943A20209E3A20209A3A202079
:204BA000F33A2020F23A2020963A2020243A2020B23A2020723A2020DC3A20208FAC0000C5
:204BC00055B0000038B0000080B584B0024603A8027002910078002828D1FFE74448007804
:204BE000002822D1FFE74348007800281DD1FFE741480078002818D1FFE74548007802288E
:204C000013D3FFE7424901910878401E08703D49002008703F4804F009FC0198007801F0B5
:204C200081FF3D4804F002FCFFE75EE003A80078012828D1FFE72E480078002822D1FFE73F
:204C40002C48007800281DD1FFE72B480078002818D1FFE72E480078092813D8FFE72C4925
:204C600000910878401C0870264900200870294804F0DCFB0098007801F054FF264804F056
:204C8000D5FBFFE731E01A48007800280AD1FFE718480078002805D1FFE7174800780028CF
:204CA00003D0FFE703F064FB1FE01448007800280DD0FFE71149002008700E490120087049
:204CC00002980F490860114804F0B0FB0CE00A490120087002980A4908600A49002008706A
:204CE000094804F0A3FBFFE7FFE704B080BDC046F43A2020003B2020FD3A2020013B202032
:204D00003C3A2020FC3A202001A80000ABA80000FA3A2020C7AB000038B0000080B58EB02A
:204D200021200421039104F065FF0120029001034A480A9005F07AF82220052104F05AFF22
:204D400002990A98490305F071F802980399002207920192C30409930093430408930F20E1
:204D6000049003F0BDFC0399079A089B0998019200900E20059003F0B3FC049804F01EFF3D
:204D8000059804F01BFF1F200221069104F032FF0699202004F02EFE352005F06BF8362048
:204DA00005F068F8192005F065F8182005F062F8312005F05FF80799089A099B0091322026
:204DC00003F056FD0799089A099B0091122003F04FFD0799089A099B0091162003F048FDC0
:204DE0000799089A099B0091232003F041FD0799089A099B0091242003F03AFD0799089AA1
:204E0000099B00911C2003F033FD0799089A099B00911D2003F02CFD102005F02BF81120B5
:204E200005F028F80A9803210C9109060B9105F0B0F90A980B9904F0F9FF0C980102084888
:204E40000D9005F0A6F90D98064905F037F80D98054904F0EBFF0EB080BDC04600000A40ED
:204E600000200A40300040003003400080B588B0069005A801800698002805D0FFE705A886
:204E80000088012804D8FFE707A9002008707BE0FFE73F4800883F490988884270D0FFE7FE
:204EA0003B48009002883C49895C04AA019211700088802104F040FA009A014601981180C7
:204EC00000780D2805D0FFE704A800780A2840D1FFE732480078002801D0FFE7D9E72F4914
:204EE000012008702E480088002831D0FFE72C48018802A80180008805A90988884205DB73
:204F0000FFE70598401E02A90880FFE703A900200880FFE703A8008802A9098888420CDA3E
:204F2000FFE703A802881F48805C06998854FFE70398401C03A90880ECE7069902A80288E1
:204F4000002088541649088007A9012008701BE015E0124900200870114800883E2809D81A
:204F6000FFE704980E490B880E4AD0540888401C088003E00A4900200880FFE7FFE788E7BC
:204F800007A900200870FFE707A8007808B080BDB63A2020B43A202020382020F03A202067
:204FA000983A20204039202080B58EB00CAB18700B910AA802700B9800280AD0FFE70AA877
:204FC0000078002805D0FFE703F0EAFC002804D1FFE70DA90020087079E004F05BFD3E4841
:204FE00005900CA90122069203F092F905983B4904F070FF0598069B002202920192022100
:2050000007910091232102F06BFB079802F0DEF9002804D1FFE70DA90020087057E00AA849
:205020000378002004900290042001900220009029482321012202F053FB049809A908706A
:20504000FFE709A800780AA90978884230DAFFE723480890FFE7204804F0E8FD00281AD017
:20506000FFE71D4805F0AAF88007002806D5FFE704F010FD0DA90020087028E00898411E88
:205080000891002806D1FFE704F004FD0DA9002008701CE0DFE7104805F0A4F80B9909AA4D
:2050A00012788854FFE70998401C09A90870C8E7012002F08BF9002804D1FFE70DA900207E
:2050C000087004E003F06CFC0DA90870FFE70DA800780EB080BDC04600200F4083040000E1
:2050E0008813000080B596B049480F9004F0FEFE0F9805F09FF80F9803F05EFF0F9804F0B5
:2051000065F90023149300930120420410920E20194604F043F9109A149B00930F20194694
:2051200004F03CF93B4812900421119105F027F812980821139105F022F81199129805F077
:2051400032F81298139905F02EF80520800105F0DDF9149815A90870FFE715A80078082816
:2051600017D8FFE72B480C9004210D9104F052FEA0200E9005F0CAF90C980D9905F013F8E4
:205180000E9805F0C3F9FFE71598401C15A90870E3E7204803900821049104F03BFEA02023
:2051A00005F0B4F90398049904F0FDFF0520800105F0ACF90022079201920120C10405911B
:2051C0000091430408930F2009900421069103F05FFA05980699079A089B019200900E20BB
:2051E0000A9003F055FA099804F0DAFC0A9804F0D7FC07480B9004F0CDFE0B9804F0A6FE1B
:20520000102005F083F903F067F916B080BDC04600200F4000200A4010B58EB00C900BA866
:2052200001800AA90A800021405E002806DCFFE70C99002008610DA9088079E00022019287
:205240000BA80390805E0AA9895E401A09900C980069099A0A21514340180890089837491E
:20526000374A04F04FF808900C980168099848437D21C900029103F0DFF907900C984168F8
:20528000089848432F4903F0D7F9019B02990246039806920C9A0C24145F04949268C05EFD
:2052A000504303F0C9F9014604984018079940180699401805900598FF21F631884204DB5A
:2052C000FFE7099800280CDCFFE70598002804D5FFE70998002804D4FFE708980C99086198
:2052E0001DE00C98416800694843164903F0A4F906900C980C21415E0091816800220BA82C
:20530000805E48437D21C90003F096F901460098401807994018069940180590FFE70598FD
:205320007D218A00002103F07BFA0DA90880FFE700210DA8405E0EB010BDC046E05EF8FF5E
:2053400020A1070040420F00B0B58EB004F0E0FF05903B4800680D903A4800680C9005983E
:2053600004F0CCFF0D98384A1168401A0B900C9836490B68C01A0A900D9810600C980860AE
:205380000B98C117324A02920023049304F00EFB049B07910690069807992E4A039204F0BF
:2053A000A3FF029A049B09900A98C11704F0FEFA039A049B079106900698079904F094FFE2
:2053C000089009982449884203DBFFE723480990FFE708982049884203DBFFE71F48089019
:2053E000FFE700201E4B0093195E099D032214466C430919CC17A40F0919890819801949FA
:205400000191085E089B5A438018C217920F80188008088004F07CFF00990246019805921A
:205420000988114A118000881049088010490868401C0860059804F061FF0EB0B0BDC046D7
:20544000183A2020443A20201C3A2020483A2020A0D9080010270000C5090000C409000051
:205460008C3A2020AC3A20208E3A2020AE3A20204C3A202080B58AB0024608A80270079199
:205480000021069105AA117004AA117003AA117002AA1170079A11700078002805D0FFE71D
:2054A00005F022F8002804D1FFE709A9002008806BE001A900200870FFE701A800780728DD
:2054C0003BD8FFE708A8007801A9097804F056FC00282CD0FFE701A801784A002D498A5E66
:2054E0000699891806910599491C05AA11700078022804D8FFE704A901200870FFE701A869
:205500000078052804D3FFE703A901200870FFE701A80078032805D0FFE701A800780428AA
:2055200004D1FFE702A901200870FFE7FFE7FFE70198401C01A90870BFE705A800780028B0
:2055400014D0FFE705A8007804280FD8FFE702A8007800280ED1FFE704A80078002809D02F
:20556000FFE703A80078002804D0FFE709A9002008800AE0079901200870069805A90978F6
:2055800003F05AF809A90880FFE7002109A8405E0AB080BD78AB000080B588B0079035489B
:2055A00003F044FF079801F0BDFA3348049003F03DFF02F015F803F039FF049803F036FF42
:2055C000002103912D48405E01F0ACFA049803F02DFF03992A48405E01F0A4FA049803F0E7
:2055E00025FF04F0E9F801F09DFA049803F01EFF04F0F6F801F096FA049803F017FF0399DA
:205600002048405E01F08EFA049803F00FFF03991D48405E01F086FA049803F007FF1B4866
:2056200001781B481B4A05920029069001D105980690069803F0FAFE174803F0F7FE17489F
:20564000007801F06FFA164803F0F0FE04F042FE01461448144A01920029029001D101984B
:205660000290029803F0E2FE104803F0DFFE08B080BDC04634AE000055B00000903A202017
:20568000B03A2020883A2020A83A2020013B202014AF00008FAF000088AB0000FA3A202098
:2056A000C9AE000099AF0000D2AF000038B0000082B00090009880684049884240DCFFE72B
:2056C0000098C0683D4988423ADCFFE7009800693A49884234DCFFE70098406937498842EF
:2056E0002EDCFFE7009880697D21C900884227DCFFE70098C0697D21C900884220DCFFE74B
:205700000098006AE1214900884219DCFFE70098406AE1214900884212DCFFE70098806AEA
:20572000274988420CDCFFE70098C06A4F21C943884205DBFFE70098C06A512804DBFFE793
:2057400001A90020087034E000988068002828D4FFE70098C068002823D4FFE700980069A3
:2057600000281ED4FFE700984069002819D4FFE700988069002814D4FFE70098C06900288D
:205780000FD4FFE70098006A00280AD4FFE70098406A002805D4FFE70098806A002804D5A6
:2057A000FFE701A90020087003E001A901200870FFE701A8007802B07047C046B80B000062
:2057C00088130000F0B5394A8218394BC0183A4D4C790B79002C22D0466F202B02D0052427
:2057E000E70100E0354F2E40002B00D188273E434667846F2C403C438467446B2D4E3440AF
:205800004463846B3440846300244465846554688F26F643344054609468344094600C6837
:205820008979202B09D006467036002B15D1641E4460C46E2C40882715E0641E4460C46E7F
:205840002C401E4E3443C466046F2C40344304671B4D01246707064607E00527FF01640848
:205860004460C46E2C403C43C46634682C403C433460C46A0F4D2C40C462046B2C400463C4
:205880000024C4640465C46F8F25ED432C40C46714682C401460194302680A4B1340BD22FC
:2058A0000A40D118891C0160F0BDC04684180000041800008888FDFF24493E000104000088
:2058C000FFFFFFCF4000FFCF80B588B00020079006900590049003A9087003F0A9FF03F059
:2058E000CBFA02F08FFB03F0ADF903F00DF802F049FA02F0C5FDFEF7C7F904F07DFD152095
:20590000019003F031FE019803F086FE2C4804F0A1FB62B6FFE702F041FB04F0F1FD069913
:20592000401A052806D3FFE704F0EAFD069004F019F8FFE703A80078002816D1FFE704F0B9
:20594000DFFD2049884210D3FFE7FFF7CBFB02F0DBFF02F017FA04F0D3FD059003A90120BE
:205960000870194803F062FDFFE704F0C9FD0499401A0A2806D3FFE704F0C2FD049003F03A
:205980003DFDFFE703A80078002811D0FFE704F0B7FD0599401A0A280AD3FFE704F0B0FD9F
:2059A000059002A800F008FA0598FEF779FCFFE704F0A6FDFEF714FE04F016FDABE7C0468C
:2059C00000008740701700001AAA000080B588B006AB187005A801700492394803900498AB
:2059E000002804D1FFE707A90020087064E002F0FDFF002807D1FFE733490620087007A99A
:205A00000020087058E004F055F82E48029005A90122019202F07CFC019B029806A9097839
:205A2000002202F085FE02F019FA002805D0FFE702F0DCFF002804D1FFE707A900200870EF
:205A40003AE006A801781F4801231A4602F070FEFFE71C4804F0F8F800281BD0FFE7194832
:205A600004F0B6FB8007002806D5FFE704F022F807A9002008701FE00398002806D1FFE73C
:205A800004F018F807A90020087015E00398401E0390DEE70B4804F0AFFB0499087002F07C
:205AA000DDF9002804D1FFE707A90020087003E007A901200870FFE707A8007808B080BDB7
:205AC0008813000000200F40DB3A2020B0B53A4A80184A6842600A78222A56D8930001A45E
:205AE000E3589F46815B00008B5B0000815B00008B5B00008B5B00008B5B00008B5B000050
:205B00008B5B00008B5B00008B5B00008B5B00008B5B00008B5B00008B5B00008B5B000055
:205B20008B5B0000715B00008B5B0000715B00008B5B00008B5B00008B5B00008B5B000069
:205B40008B5B00008B5B00008B5B00008B5B00008B5B00008B5B00008B5B00008B5B000015
:205B60008B5B0000715B00008B5B0000715B0000036803242407A343012464071B1903E077
:205B8000036803242407A34303600B69C360CB68C46A0A4D25400A4C1C402B19C3620368C5
:205BA000084C1C400460097A114302683F239A43194051180160B0BD041800008888FDFF99
:205BC000777702007F00FFFF80B584B00390304803F02CFC03982F490968401A00F0A2FF5A
:205BE0002D48019003F022FC002102912B48405E00F098FF019803F019FC02992848405EF8
:205C000000F090FF019803F011FC03F0D5FD00F089FF019803F00AFC03F0E2FD00F082FF5A
:205C2000019803F003FC02991E48405E00F07AFF019803F0FBFB1C48007800F073FF019878
:205C400003F0F4FB1948007800F06CFF019803F0EDFB02F0BBFB00F065FF019803F0E6FB51
:205C60001348007800F05EFF019803F0DFFB1148007800F057FF019803F0D8FB02990E4837
:205C8000405E00F04FFF0D4803F0D0FB04B080BDEEAF0000303A202055B00000903A2020CE
:205CA000B03A2020923A2020F23A2020F33A2020FC3A2020FE3A2020C83A202038B00000BD
:205CC00080B588B00790079837490968884201D1FFE766E0079834490A68801A059007980C
:205CE000086005981A2803D3FFE719200590FFE706A900200870FFE706A80078022850D848
:205D0000FFE706A8017806224A43284989180491007801F0C5FF014603A801700078049975
:205D20000978884214D1FFE70498808805994018029002981E49884203D3FFE71D480190A4
:205D400002E002980190FFE701980499888006E0039804990870049900208880FFE7049835
:205D60008088192804D3FFE7039804994870FFE70498807800280BD1FFE70498407800284D
:205D800006D0FFE706A800780799FEF71DFFFFE7049948788870FFE70698401C06A908702E
:205DA000AAE708B080BDC046F4392020A839202061EA000060EA000080B582B0019069468D
:205DC000002008700198002801D1FFE763E0334800785D281BD1FFE731480078002816D026
:205DE000FFE7684604F09EFA00280CD0FFE76846007802F0FFFF2B480078019908700199EC
:205E00000120487047E0264900200870FFE703F023FD014621480170007800280CD1FFE7FE
:205E2000042001F05BFB1F480078019908701E480078019948702EE0184800785D280CD08F
:205E4000FFE7072001F04AFB164800780199087015480078019948701DE0684604F062FAF5
:205E600000280CD0FFE76846007802F0C3FF0D480078019908700199012048700BE00520FC
:205E800001F02CFB07480078019908700648007801994870FFE702B080BDC046DD3A2020C7
:205EA000E93A2020F63A2020F13A202080B5B6B036480290007848210491414334480390F0
:205EC000401800F013FD02980399049A314B0A9303230B93A8230C9300780D900AA80590F3
:205EE000103004F019FB0399049A05985830483104F012FB059800222749895E329102F0B6
:205F0000A7F93390EFF3108035903598089072B62248069003F074F906987F218902079199
:205F20000122520200F070FA06980799402203F065FF014609A80170007803280DD1FFE7C9
:205F40000120400200907F20810214480AAA2A2301F006FB09A90870FFE70898002802D132
:205F6000FFE762B6FFE709A80078032804D0FFE734A90020087004E0FDF7D2F834A90870C3
:205F8000FFE734A8007836B080BDC0466B3A20209037202031444950843A202000D00C408A
:205FA00080B586B005902F480078002806D0FFE72D480088C0084B2801D3FFE750E02A487A
:205FC000019000881621414328484018049003F0F3FB03A9088003F003FC02A908800598BA
:205FE00023490968401A0021224A03F08BF90499088021490888049A508020480288049B48
:206000009A80039A049BDA80029A049B1A811C4A1288049B5A811B4A1288049B9A81098836
:20602000039A891A049AD18100880299401A0499088203F0FFFC009003F00CFD0146009833
:20604000401A1149114A02F0EBFB0499488202F0BDF90199049A90820888401C0880FFE7A6
:2060600006B080BDD43A2020B23A202000002020303A2020FFFF0000903A2020B03A202097
:20608000883A2020A83A20200080FFFFFF7F000080B582B00190304803F0C8F9019800889B
:2060A00000F040FD2D4803F0C1F901980221405E00F038FD2A48009003F0B8F901980421AE
:2060C000405E00F02FFD009803F0B0F901980621405E00F027FD009803F0A8F90198082172
:2060E000405E00F01FFD009803F0A0F901980A21405E00F017FD009803F098F901980C218A
:20610000405E00F00FFD009803F090F901980E21405E00F007FD009803F088F901981021A1
:20612000405E00F0FFFC009803F080F901981221405E00F0F7FC0B4803F078F90198142100
:20614000405E00F0EFFC084803F070F9074803F06DF902B080BDC0468AAF00001AAF00007B
:2061600055B0000074AE0000BBAE000038B0000080B584B00390A02001F03AFE002801D1C8
:20618000FFE759E02D4803F051F90398C06900F0C9FC2B48009003F049F9039841782948B8
:2061A000294A01924C29029001D001980290029803F03CF90398808A00F0B4FC009803F044
:2061C00035F90398006B00F0ADFC009803F02EF903982421405E00F0A5FC009803F026F987
:2061E0000398C08A00F09EFC009803F01FF90398806B00F097FC009803F018F90398006CE1
:2062000000F090FC009803F011F90398006A00F089FC009803F00AF90398008B00F082FCD1
:20622000009803F003F903984821405C00F07AFC064803F0FBF8FFE704B080BD26B00000F0
:2062400055B000004AB000003BB0000038B0000080B586B005AB187004A801800392284897
:206260000078012803D0FFE7FEF7F4F8FFE725490020087024490870214A01211170234998
:2062800008802349088005A800784C2804D1FFE704981E49088010E005A80078522804D13F
:2062A000FFE704981A49088006E0049817490880049817490880FFE7FFE703981549086056
:2062C00003981549086000221048805E1049895E00F0CAFD114803F0A9F803F0FBFF0146ED
:2062E0000F48104A01920029029001D101980290029803F09BF80C4803F098F806B080BDB8
:20630000F43A2020013B2020003B2020883A2020A83A2020303A2020003A202037AC0000ED
:2063200099AF0000D2AF000038B0000089B007900691002005900121049103A90870079816
:2063400000782D2807D1FFE70020C04304900798401C079009E0079800782B2804D1FFE75B
:206360000798401C0790FFE7FFE7FFE7079801780020302902900DDBFFE7079801780120AF
:20638000002200923A29019001DB0098019001980290FFE70298C007002818D0FFE703A93C
:2063A0000120087005981749884204DBFFE708A90020087022E005980A214143079800780A
:2063C0004018303805900798401C0790CEE703A80078002805D0FFE707980078002804D008
:2063E000FFE708A90020087008E00599049848430699086008A901200870FFE708A8007862
:2064000009B0704701C2EB0BF0B583B002920190304B314D00918C0A2868072738400526D5
:206420002E60196889048A0F2860296839402E6018682960002A214608D028490840511C6F
:2064400002F05AFD0146204602F056FD0198204A801801902A683A402E601E4803682A60E0
:206460002A683A402E6003682A60012293020298984207D0530298420CD10098C30B0BD13C
:20648000019803E01F210C4001984030A24001689143016003B0F0BDFF290DD82B683B40F0
:2064A0002E600C4C24682B60A3049B0F019800D12039CC08001DE9E71302FF339942E9D22D
:2064C000FF23DB43C918CC0801980830DEE7C046D01100001800C44100134040FF0F00008C
:2064E000FCB40127FF07794002E0FCB40127FF070C024D002D0E03D1002C52D1FCBC70471D
:206500003C43FF2D50D0A408002900D56442020243001B0E04D1002A43D10800FCBC704766
:206520003A43FF2B41D09208002800D552425E1B04D5170022003C0076422B00192E06D5AC
:2065400027003741D2191C27F71B7F42BC40002A27D002D55242012700E00027013B520056
:20656000FCD51500802635400FD01500202635402C43803208D21500402635402C4304D13C
:2065800001263602B24300E05B1C5200023308DDFF2B0BD2500ADB051843FF073843FCBC0F
:2065A00070470020FCBC70470800C70FFF07FF20C0053843FCBC704780B586B003F070FF16
:2065C000002804D1FFE7304802F030FF49E003F04FFF05A90091088003F056FF04A9019187
:2065E000088003F04BFF03A9029108801E4802F01DFF0098008800F095FA1C4802F016FF91
:206600000098008802F058FF00F08CFA184802F00DFF0198008800F085FA164802F006FF58
:206620000198008802F048FF00F07CFA124802F0FDFE0298008800F075FA104802F0F6FE94
:206640000298008802F038FF00F06CFA0C4802F0EDFE03F01FFF00F065FA0A4802F0E6FEE0
:20666000FFE706B080BDC046E5AB00003CAE000007AE0000E1AC000019AE00002EAD0000DD
:2066800098AD0000B8A90000FDAA000080B588B00790069105A8027004A900200870FFE7C8
:2066A000079801780020002903900FD0FFE704A8017805A802780120002301939142029098
:2066C00001DB0198029002980390FFE70398C007002841D0FFE7FFE70798007802F0B2FF7F
:2066E000002804D0FFE70798401C0790F4E707980078002801D1FFE72EE00798069A04A95A
:206700000B789B00D0500498401C0870FFE70798017800200029009008D0FFE7079800781F
:2067200002F090FF414248410090FFE70098C007002804D0FFE70798401C0790E7E7079816
:206740000078002807D0FFE70799002008700798401C0790FFE7A3E704A8007808B080BD89
:2067600080B586B0059000200490642001F040FB002801D1FFE74BE00598808A002809D002
:20678000FFE7059A906AD16A928A002303F0ACFD0490FFE71F4802F049FE0598C06900F094
:2067A000C1F91D48019002F041FE059841781B481B4A02924C29039001D0029803900398A5
:2067C00002F034FE05980221405E00F0ABF9019802F02CFE049800F0A5F9019802F026FE15
:2067E0000598808A00F09EF9019802F01FFE05982421405E00F096F9019802F017FE059887
:206800004821405C00F08EF9064802F00FFEFFE706B080BDF2AF000055B000004AB0000036
:206820003BB0000038B0000080B584B0284802F0FDFD03F017FE002804D0FFE7274802F075
:20684000F5FD0EE003F002FE01462248224A02920029039001D102980390039802F0E6FD89
:20686000FFE703F0EDFD00F05DF91D48019002F0DDFD03F0DFFD00F055F9019802F0D6FDE2
:2068800003F0D2FD00F04EF9164802F0CFFD03F0E3FD00F047F9019802F0C8FD002002F07E
:2068A000C9FC00F03FF9019802F0C0FD012002F0C1FC00F037F9019802F0B8FD022002F05F
:2068C000B9FC00F02FF9084802F0B0FD04B080BD80AF00000EB0000091AE000064AE0000CD
:2068E00055B0000056AF000038B0000081B00090224A10680099086050680099486020489F
:206900000168009B99604168009BD9609168009B19618168009B59610C21525E009B9A613E
:20692000405E0099C861174800680099086200211548405E009A506214480068009A906275
