:2000000000802020DDA60000D1A60000D1A6000000000000000000000000000000000000AF
:20002000000000000000000000000000D1A600000000000000000000D1A60000D1A600005B
:20004000D1A6000051860000D1A60000D1A60000D1A6000029730000D1A60000D1A6000063
:2000600000000000D1A60000D1A600000000000000000000D1A600005D830000D1A60000C4
:20008000D1A60000D1A60000D1A60000D1A60000D1A60000359B000000000000000000003D
:2000A000D1A60000D1A600000000000000000000D1A6000000000000D1A60000D1A60000ED
:2000C00010B59CB01B901A911B9809F0D2FB1B9815A9052206F0B0FB014614A8017000781B
:2000E000002802D1FFE700F00AFF14A8007801280CD1FFE71598FC4907F0CAFB002805D05B
:20010000FFE7FA4809F068FA00F0F9FE14A8007802281CD1FFE71598FC4907F0B9FB00287F
:2001200015D0FFE7169813A906F06AF900280ED0FFE7139800280AD4FFE71398F4498842FC
:2001400005DCFFE7139807F03BF900F0D7FE14A8007801280BD1FFE71598EE4907F098FBB0
:20016000002804D0FFE709F059FB00F0C6FE14A80078012821D1FFE71598E74907F088FB10
:2001800000281AD0FFE7E54900200D90087004F00DFD0D98E2490870E2490870E249087078
:2001A000E2490870E2490870E2490870E2490870E24809F011FA00F09FFE14A8007801289B
:2001C0000CD1FFE71598DE4907F062FB002805D0FFE71A9805F0C0F900F08DFE14A8007842
:2001E00001280BD1FFE71598D64907F051FB002804D0FFE706F05CFF00F07CFE14A8007834
:2002000001280BD1FFE71598CF4907F041FB002804D0FFE706F0DEFB00F06BFE14A80078BD
:2002200001280BD1FFE71598C84907F031FB002804D0FFE706F096FA00F05AFE14A800780E
:20024000022815D1FFE71598C04907F021FB00280ED0FFE71698BE4907F01AFB002807D033
:20026000FFE708F039FFBB4809F0B6F900F03FFE14A8007802281CD1FFE71598B64907F0BC
:2002800007FB002815D0FFE7B4480078002810D1FFE71698B24907F0FBFA002809D0FFE78A
:2002A00009F030F8002008F0E9F803F087FD00F01DFE14A8007802281CD1FFE71598A649D5
:2002C00007F0E6FA002815D0FFE7A4480078002810D1FFE71698A34907F0DAFA002809D09B
:2002E000FFE709F00FF8012008F0C8F803F066FD00F0FBFD14A8007801280BD1FFE7159835
:20030000994907F0C5FA002804D0FFE703F056FD00F0EAFD14A80078022842D1FFE7159842
:20032000924907F0B5FA00283BD0FFE7169813A906F066F8002834D0FFE71398002830D47C
:20034000FFE71398724988422BDCFFE783480078002826D1FFE7139810908548007800289A
:200360000CD0FFE7834800681099884206D1FFE710988149097808F03FFB10E008F0C2FF8A
:2003800005F0FEFD7C49087010987A4A1060784A012010701098097808F02EFBFFE700F0D1
:2003A000A2FD14A8007801281DD1FFE715986F4907F06EFA002816D0FFE768480078002865
:2003C00011D1FFE708F09EFF05F0DAFD002804D0FFE76A4809F000F903E0694809F0FCF8ED
:2003E000FFE700F07FFD14A8007801281DD1FFE71598644907F04CFA002816D0FFE7574850
:200400000078002811D1FFE702F0CCFD002806D0FFE75D4809F0E0F803F0D0FC03E05B481A
:2004200009F0DAF8FFE700F05CFD14A80078012811D1FFE71598564907F02AFA00280AD034
:20044000FFE746480078002805D1FFE71A9808F02DFC00F045FD14A8007802281ED1FFE794
:2004600015984C4907F014FA002817D0FFE71698494907F00DFA002810D0FFE72849012082
:2004800008702849002008701A9844490860444809F0A2F80AF078F800F021FD14A8007869
:2004A00002281CD1FFE715983A4907F0F1F9002815D0FFE716983B4907F0EAF900280ED029
:2004C000FFE71749002008701649012008701A9832490860344809F07FF800F0FFFC14A81E
:2004E000007802286ED103E023B100000AB000001598284907F0CCF9002863D0FFE71698E1
:200500002A4907F0C5F900285CD051E0CAB00000FFFFFF7FECB000001EB10000F038202065
:20052000E43A2020B93A2020B83A2020C03A2020E33A2020E23A2020DF3A202010AF0000ED
:2005400042B0000073B00000A2B1000088B00000A0B00000C8AC0000F4AF0000D63A202044
:20056000ACB0000018B000008EB00000F6B00000CE3A2020EC392020CD3A202006AF0000CA
:20058000D2AE00002DB100002EAF000085AE00003CB100005EB00000C7B10000F839202009
:2005A0005AAD0000E2B00000EAAC000056B10000FE4900200870FE490870FE4809F00CF824
:2005C00000F08BFC14A8007802285CD1FFE71598F94907F05DF9002855D0FFE7169813A95A
:2005E00005F00EFF002809D0FFE71398002805D4FFE71398F149884204DDFFE7F04808F0DA
:20060000EBFF3EE0EF480078002810D0FFE71398EC49C96988420AD1FFE7EB4808F0DCFF92
:20062000139806F055FBE94808F0D6FF28E0E8480078002806D0FFE71398E649C969884261
:2006400005D0FFE71398E44908F07AFC17E0E1480078012804D1FFE7DE4806F057F90DE0C4
:20066000DC480078022804D1FFE7DA4805F0EAFD03E0DA4808F0B0FFFFE7FFE7FFE7FFE7B7
:20068000FFE700F029FC14A80078042800D085E01598D34907F0FCF800287FD0FFE716980B
:2006A00013A905F0ADFE002878D0FFE7179812A905F0A6FE002871D0FFE7189811A905F0D7
:2006C0009FFE00286AD0FFE713988121C943884264DBFFE71398822860DCFFE71298322872
:2006E0005CDBFFE7129819210901884256DCFFE71198002852D4FFE71198B04988424DDC9B
:20070000FFE711980F90B748007800280BD0FFE7B54800680F99884205D1FFE70F98B34915
:2007200008F0C6FB39E0B248007805280AD0FFE7AF48007806282AD1FFE7AE480078002874
:2007400025D1FFE7AC480078002808D0FFE70021AA48405E08F058FF052805DBFFE70F98D1
:20076000A74908F0A5FBCAE31398A64908801A9812994018A44908600F989B490860994943
:20078000012008700F98994908F092FB04E00F989B4908F08DFBFFE7FFE79CE314A8007844
:2007A000032851D1FFE715988D4907F071F800284AD0FFE7169813A905F022FE002843D041
:2007C000FFE7179812A905F01BFE00283CD0FFE713988121C943884236DBFFE71398822832
:2007E00032DCFFE7129832282EDBFFE7129819210901884228DCFFE77F480078002823D016
:20080000FFE700217D48405E08F0FEFE04281BDCFFE77748007805280AD0FFE77448007819
:20082000062811D1FFE77348007800280CD1FFE71398744908801A981299401872490860DC
:20084000724808F0C9FE45E314A80078032838D1FFE715986E4907F01BF8002831D0FFE72C
:20086000179813A905F0CCFD00282AD0FFE71398002826D4FFE713989B218900884220DCDE
:20088000FFE71698634907F003F800280ED1FFE71698614906F0FCFF002807D1FFE716985C
:2008A0005E4906F0F5FF00280BD0FFE74548002202701698007813A9895E1A9A05F032FDFC
:2008C00007E314A80078052855D1FFE71598544906F0DEFF00284ED0FFE716984D4906F03E
:2008E000D7FF002807D1FFE716984B4906F0D0FF002840D0FFE7179813A905F081FD002811
:2009000039D0FFE7189812A905F07AFD002832D0FFE7199811A905F073FD00282BD0FFE728
:200920001398002827D4FFE713989B218900884221DCFFE712987D21C90088421BDBFFE7AF
:2009400012987D210901884215DCFFE71198002811D4FFE71198194988420CDCFFE71698B7
:200960000078002213A9895E129A119B1A9C009406F008FAACE214A80078052800D092E06F
:200980001598284906F084FF002800D18BE01698204906F07DFF002846D1FFE716981E4999
:2009A00006F076FF00287ED03EE0C046E43A2020B93A20201CAD0000DCAF0000FFFFFF7FD1
:2009C000D9AC0000F038202092B10000B8B10000D13A2020A0382020CCAF00003CAD0000B7
:2009E000FBB00000CC3A2020E0392020BEB10000D63A2020E03A2020D53A2020763A202055
:200A00005AB100007A3A20200C3A2020FCAE00004EB10000D1B10000D3B10000D5B100001C
:200A200041AF000038AF0000179813A905F0E8FC002838D0FFE7189812A905F0E1FC002820
:200A400031D0FFE7199811A905F0DAFC00282AD0FFE71398502826DBFFE713984B21C90087
:200A6000884220DCFFE712987D21890088421ADBFFE71298FD49884215DCFFE711980028F2
:200A800011D4FFE71198FA4988420CDCFFE716980078002213A9895E129A119B1A9C00947A
:200AA00006F0C2F913E214A8007804282BD1FFE71598F04906F0ECFE002824D0FFE71798D7
:200AC00013A905F09DFC00281DD0FFE7189812A905F096FC002816D0FFE71298002812D433
:200AE000FFE71298E24988420DDCFFE71698139901F0CEFF002806D0FFE712981699139AA0
:200B000007F056FEE2E114A8007803281BD1FFE71598D84906F0BCFE002814D0FFE7179877
:200B200013A905F06DFC00280DD0FFE71698139901F0AEFF002806D0FFE7CF4808F04CFD7C
:200B400003F03CF9C1E114A80078042852D1FFE71598F14906F09CFE00284BD0FFE7169814
:200B6000EA4906F095FE002807D1FFE71698E84906F08EFE00283DD0FFE7179813A905F0F7
:200B80003FFC002836D0FFE7189812A905F038FC00282FD0FFE7139850282BDBFFE71398AB
:200BA0004B21C900884225DCFFE712987D21890088421FDBFFE71298D64988421ADCFFE765
:200BC000E94900200A9008701698017803200B9002204C290C9001D00B980C900A9C0C983F
:200BE00013A9095F129A1A9B01940124009403F0D5FD69E114A8007803284AD1FFE7159806
:200C0000C64906F045FE002807D1FFE71598C44906F03EFE00283CD0FFE7169813A905F041
:200C2000EFFB002835D0FFE7179812A905F0E8FB00282ED0FFE7139850282ADBFFE71398B0
:200C40004B21C900884224DCFFE712987D21890088421EDBFFE71298AE49884219DCFFE7EF
:200C60001598AF4906F014FE01460420089005200029099001D1089809900998002413A951
:200C8000095F129A1A9B01940124009403F086FD19E114A80078042800D081E01598A149A5
:200CA00006F0F6FD00287BD0FFE7169813A905F0A7FB002874D0FFE7179812A905F0A0FBA5
:200CC00000286DD0FFE7189811A905F099FB002866D0FFE71398502862DBFFE71398E1219F
:200CE000490088425CDCFFE71298012858DBFFE712980A2854DCFFE71198002850D4FFE70A
:200D00001198804988424BDCFFE711980E9090480078002817D0FFE78E4800680E9988424F
:200D200011D1FFE70E9805908B4801788B488C4A06920029079001D106980790059807991F
:200D400008F0DAF82BE070480078002805D0FFE70E98844908F0D0F820E0002113A8405EFE
:200D600012A909781A9A02F067FC01467A4801700E99784A1160764A012111700E9902913D
:200D800001787648764A03920029049001D1039804900298049908F0AFF8FFE7FFE791E0F6
:200DA00014A80078032837D1FFE715985D4906F06FFD002830D0FFE7169813A905F020FBA9
:200DC000002829D0FFE7179812A905F019FB002822D0FFE7139850281EDBFFE71398E121EA
:200DE0004900884218DCFFE71298012814DBFFE712980A2810DCFFE7002113A8405E12A97B
:200E000009781A9A02F018FC002804D1FFE74F4808F0E2FBFFE754E014A8007803284BD1B3
:200E2000FFE71598404906F033FD002844D0FFE7169813A905F0E4FA00283DD0FFE7179847
:200E400012A905F0DDFA002836D0FFE71398502832DBFFE713984B21C90088422CDCFFE749
:200E600012987D218900884226DB07E0983A0000FFFFFF7F7EB1000077AF00001298254934
:200E8000884219DCFFE720480078002814D1FFE71398274908801298264908602649012026
:200EA00008702649002008702549087025490870254808F091FB03E01C4808F08DFBFFE749
:200EC000FFE7FFE7FFE7FFE7FFE7FFE7FFE7FFE7FFE7FFE7FFE7FFE7FFE7FFE7FFE7FFE7B2
:200EE000FFE7FFE7FFE7FFE7FFE7FFE7FFE7FFE7FFE7FFE7FFE7FFE7FFE7FFE7FFE71CB0AC
:200F000010BDC046FFFFFF7FD63A2020D1B10000D3B10000983A000028B10000AEB1000022
:200F200014B1000050B0000082B1000015AB0000543A2020BC392020E33A2020E23A20203D
:200F4000E43A2020B83A202052A90000F4A90000D03A2020F4392020CF3A2020BEB10000FA
:200F60005AB1000041B10000F038202010B5AAB0289022A90020087021A9087020A908704F
:200F80001FA908801EA908701DA90870FB48007806280AD1FFE7FA480078002805D0FFE73D
:200FA000FC480078042805D1FFE729A90020087000F08CFE2898F8490968401A2790F548E9
:200FC0000078012849D1FFE7F4490A88F44802800A88F4490A80F44A1388F44C2380128834
:200FE000F34B1A800022805E895E05F0C1FF279832282DD3FFE709F001FB002808D1FFE7A2
:20100000EC4808F025F929A90120087000F05EFE09F02EFAE849002018900880E749088075
:20102000E7490120087008F04FFDE649086008F05DFD01461898E44A1160E4490880E44942
:201040000870D449022008702898D3490860FFE729A90120087000F039FE09F0CFFA0028BB
:2010600011D1FFE7DB480078012808D1FFE7DA4808F0EEF829A90120087000F027FED0498C
:2010800000200870FFE708F01FFDCE490968401A249008F02BFDCC490968401A23902498B9
:2010A000002804D5FFE7249840422490FFE72398002804D5FFE7239840422390FFE724983D
:2010C00023994018C10F40184008C049088009F0DDFA7F210840C1490870BE48007801281A
:2010E0000ED1FFE7BD48007820A904F0A3F91FA908801F98BA4908802098BA490870FFE7AA
:20110000B9480078002820D1FFE7B448007808F0BDF800280BD1FFE7B4480078FF2805D0DC
:20112000FFE7B2490878401C0870FFE703E0AF4900200870FFE7AD480078022804D3FFE7E7
:20114000A94901200870FFE72BE0A448007808F09DF821A908709F480078012801D1FFE7A0
:20116000FFE700229948805EA149895ECA0F89184910884210DBFFE721A8007800280BD025
:20118000FFE79C480078FF2805D0FFE799490878401C0870FFE703E0964900200870FFE7CF
:2011A000FFE709F02BFA00282AD0FFE708F092FE26A9088082480078002811D0FFE7269855
:2011C0007E490988401A00B208F01EFAC82807DCFFE72698794908802698774908800EE0E6
:2011E000269876490988401A00B208F00DFAC92804DBFFE7724900200870FFE7FFE7FFE71B
:20120000289865490968401A279072480078012800D0C1E3289878490968401A1C90684867
:201220000078002808D1FFE7744808F011F829A90120087000F04AFD00215F48405E08F092
:20124000E3F96F49884208DBFFE76E4808F000F829A90120087000F039FD00225B48805E8D
:2012600063498A5E03215143884208DDFFE7664807F0EEFF29A90120087000F027FD1C98C8
:20128000C009192808D3FFE7604807F0E1FF29A90120087000F01AFD3E480078022805D095
:2012A000FFE73C480078032800D0B2E120A80078002819D0FFE7494800784006800F002881
:2012C00012D0FFE700211FA8405E0A280CDBFFE700213948405EAF214900884204DBFFE7D9
:2012E0004B4901200870FFE749480078002821D0FFE720A8007800281CD1FFE700212E4801
:20130000405EE1214900884214DBFFE741480078FF2805D0FFE73F490878401C0870FFE7A0
:201320003C480078022804D3FFE73B4901200870FFE709E038480078002804D1FFE7354985
:2013400000200870FFE7FFE727480078002800D18BE02F480078002800D186E02E480078A2
:20136000002800D181E020A8007800287DD0FFE71A4800784007002877D003E0D63A2020B5
:20138000E03A202000211FA8405E0521C94388426BDC43E0E03A2020383A2020AA3A2020D7
:2013A0006C3A20208C3A2020A23A2020743A2020943A202093AD0000AE3A2020A63A2020A1
:2013C000EB3A2020443A2020483A2020AC3A2020E63A2020533A20202CAD0000D43A2020AE
:2013E000763A2020D53A2020EA3A2020E93A2020A03A2020E83A20203C3A2020D8AB000032
:201400007F0400002EAB0000ABAA00008EAA0000C63A2020C73A2020C83A20200021FD48BA
:20142000405EFD49884220DBFFE70021F948405EFA49884219DCFFE70022F948805E810073
:20144000F848825E0320504388420EDCFFE70022F348805EF3498A5E03215143884204DC5B
:20146000FFE71EA901200870FFE7EF480078002821D0FFE720A8007800281CD0FFE7002137
:201480001FA8405E08F0C0F80A2814DCFFE7E748007807F0FBFE00280DD0FFE70022E04863
:2014A000805E4100DF48805E884204DCFFE71EA901200870FFE7DC480078002821D0FFE797
:2014C00020A8007800281CD0FFE700211FA8405E002816D4FFE7D548007805F0D7FE0028CD
:2014E0000FD0FFE70022CE48805E8100CD48825E03205043884204DCFFE71EA901200870F5
:20150000FFE71EA8007800280BD0FFE7C8480078FF2805D0FFE7C6490878401C0870FFE70B
:2015200003E0C34900200870FFE7C1480078022804D3FFE722A901200870FFE700211691C4
:20154000B448405E08F060F8169A0146B948825E0120914217900FDAFFE7B148002214929E
:20156000815EB048825E01209142159001DA1498159015981790FFE71799012001401DA8DE
:2015800001700078002843D0FFE722A8007800283ED1FFE7A849002013900870A74A0421A0
:2015A00011702899A64A1160A6490870A6490880A6490880A6490880A6490880A6490880CE
:2015C000A6490880A649088007F09CFE08F082FFA44808F001F8A4480078401C05F078FB0E
:2015E000A248129007F0F8FF13998A48405E05F06FFB129807F0F0FF13998948405E05F056
:2016000067FB9B4807F0E8FF29A9012008705DE3FFE78A480078052800D0B0E008F0A2F9AC
:2016200007F0F2FF1BA9088008F0B0F907F0ECFF1AA9088087490020088087490880874908
:20164000088087490880279827280CD8FFE781482D2101808049874A0A800022805E895E2F
:2016600005F086FC02E007F04DFEFFE72798782817D3FFE700211BA8405E0F2811DCFFE72E
:2016800000211AA8405E0F280BDCFFE77A480078FF2805D0FFE778490878401C0870FFE7AE
:2016A00003E0754900200870FFE773480078032858D3FFE720A8007800280DD0FFE75B48CE
:2016C00000786721084214D1FFE75848007807F0DDFD00280DD1FFE727984008E12804D339
:2016E000FFE7664807F0B4FDFFE729A901200870ECE206F037FD08F093FA61490860614825
:201700000078002809D0FFE75F4800685F4908615F4800685F49086102E008F0DBFEFFE791
:201720005D480021119101801F98474A108047480180474801801FA8405E07F065FF0146C1
:201740001198564A11802899554A1160554908803A490620087028983949086029A90120FA
:201760000870B3E227984008E12804D3FFE74E4807F06EFDFFE729A901200870A6E22F4847
:201780000078062800D006E120A80078002807D0FFE700211FA8405E07F036FF109002E093
:2017A00042481090FFE7109819A9088020A80078002825D1FFE73B4800883D49884205D8AB
:2017C000FFE7384908880A300880FFE721490020088021490880214908802149088007F08B
:2017E00091FD08F077FE2F480088B42804D3FFE7304807F02DFDFFE729A90120087065E225
:2018000028480022028019A8805E2449895E884259DA51E0AE3A2020EE0200004C0400002B
:20182000AC3A2020A03A2020EA3A2020D43A2020C93A20209E3A2020E63A2020E03A2020A1
:20184000383A2020E73A2020803A2020783A20207E3A20206C3A20208C3A2020743A2020B7
:20186000943A20202AAE0000DE3A2020D7B10000B8B10000D3FF0000C33A202047AB000038
:20188000F0392020C53A2020D039202080392020D439202094392020823A20205E3A202030
:2018A000CC392020603A2020C7AA0000FF7F00005FEA000016AA00001998EB4908802898E4
:2018C000EA490860FFE7EA48007807F0DFFC002811D0FFE7002119A8405E06280BDCFFE7A1
:2018E000FC480078FF2805D0FFE7FA490878401C0870FFE703E0F74900200870FFE7F548EF
:201900000078052837D3FFE7F34901200F900870F24807F061FEF2480078401C05F0D8F95A
:20192000F0480D9007F058FE00210E91F948405E05F0CEF90D9807F04FFE0E99F148405EC3
:2019400005F0C6F90D9807F047FEEF48007805F0BFF90D9807F040FE0E991FA8405E05F0BB
:20196000B7F9E14807F038FE289801F0C3FC0F9829A90870AAE12798DC49884207D3FFE707
:20198000DB4807F065FC29A9012008709EE129A9002008709AE1FFE7DD480078032827D355
:2019A000FFE7D748007800280CD0FFE70021D948405E7D218900884204DBFFE722A901203E
:2019C000087014E0CE48007800280FD1FFE70022CC48805E8100CD48825E03205043884215
:2019E00004DCFFE722A901200870FFE7FFE7FFE7C248007801280ED1FFE7C74801780020F3
:201A00000B90012001290C9001D80B980C900C9822A90870FFE7B9480078012875D1FFE791
:201A20002798DC2871D3FFE722A8007800286CD0FFE720A80078002867D0FFE7B248007836
:201A400007F024FC002860D0FFE7B2480088C34905910880AB480088C14906910880AA48EF
:201A60000078C049079108701F98BF490A910880BE49002009900870BD4908809D4A052120
:201A8000117028999C4A1160BA490880AE490880AE490880A5490880A5490880A5490880C2
:201AA000A549088007F02EFC08F014FDB24807F093FDA7480078401C05F00AF9AF480890BB
:201AC00007F08AFD05980999405E05F001F9089807F082FD06980999405E05F0F9F8089842
:201AE00007F07AFD0798007805F0F2F8089807F073FD09990A98405E05F0EAF8A04807F0E3
:201B00006BFD29A901200870E0E02798C008AF280CD3FFE779480078012807D0FFE78E481A
:201B200007F096FB29A901200870CFE02798DC2856D3FFE771480078012851D0FFE722A806
:201B4000007800281AD1FFE76D480078002808D1FFE700226B48805E6C49895E88420DDA00
:201B6000FFE76748007800283AD0FFE700226948805E6A49895E884232DBFFE722986F49C6
:201B800008705C490420087028985B4908606C490020049008706B4908806B4908806B49B3
:201BA00008806249088062490880624908806249088007F0A7FB08F08DFC65480078401C36
:201BC000C0B2644909788906090E884204DBFFE7289801F08FFBFFE729A90120087075E04F
:201BE00044480078022823D1FFE72798DC281FD3FFE74348007800280CD0FFE700214548A7
:201C0000405E46490988464A1288891A09B288420ADAFFE700213B48405E3C490988193940
:201C200009B2884204DBFFE7324903200870FFE730480078022805D1FFE700213A48405E47
:201C4000039004E000213748405E0390FFE7039825A9088029480078012820D1FFE728480C
:201C6000007800281BD005E05E3A2020CC392020D43A2020002101912648405E04F09AFC40
:201C8000019B014625A802900180C05E1D49C95E1E4AD25E03F076FD02990880FFE7259812
:201CA000414222480180259A21490A80259A5242204B1A80259A204B1A800022805E895E00
:201CC00005F056F929A901200870FFE729A800782AB010BDE73A2020E63A2020C8AD000049
:201CE000DE3A2020D7B10000B8B100009808000071AA0000E03A2020383A2020533A202007
:201D0000EB3A2020AC3A2020D43A2020A03A2020E83A2020AE3A2020C93A20209E3A2020EB
:201D2000A83A2020AA3A2020A43A20206C3A20208C3A2020743A2020943A2020E63A2020F7
:201D4000E73A2020803A2020783A20207E3A2020DE3A2020E13A2020D5AD0000663A202029
:201D6000643A2020C23A2020623A2020C33A2020603A2020823A202077AD0000D7B10000AE
:201D8000B8B10000B0B5DEB05D9007F049FF5C90F6480078022816D0FFE7F4480078032844
:201DA00011D0FFE7FD48007804280CD0FFE7FB480078052807D0FFE7F8480078062802D054
:201DC000FFE700F02FFE5C98F5490968884202D1FFE700F027FE5C98F14908605D98FFF744
:201DE000C5F8002802D0FFE700F01CFEEB480078022809D1FFE7EB480088EB490880EB49FC
:201E00000020088000F0E4FDE4480078032809D1FFE7E54900200880E2480088E34908807E
:201E200000F0D5FDDD480078052806D0FFE7DB480078062801D000F042FDDA48008859A9E5
:201E400008805D98DA490968401A5490D94853904B20C00052A90880D7480178002001299F
:201E60002F900DD1FFE7CF4800212D91415E0120C9292E9001DB2D982E902E982F90FFE7AF
:201E80002F980121084051A90870CB480178002001292C900DD1FFE7C04801780020062979
:201EA0002C9006D1FFE7C5480078414248412C90FFE72C980121084050A90870BE48017858
:201EC000002001292B900ED1FFE7B4480178002006292B9007D1FFE7B8480078801F414261
:201EE00048412B90FFE72B98012108404FA90870B1480178002001292A900ED1FFE7A748F1
:201F00000178002006292A9007D1FFE7AB480078001F414248412A90FFE72A990120014026
:201F20004EAA117050A90978002929900DD1FFE74FA8017801200029299006D1FFE74EA8E2
:201F40000078411E88412990FFE72998012108404DA908704CA9502008804BA908804AA94D
:201F6000142008808D48007806280BD1FFE793480078042806D1FFE74CA9A02008804BA9FB
:201F8000088026E085480078062821D1FFE78B48007806281CD1FFE74CA92D2008804BA95E
:201FA000412008804AA9052008805D9884490968401A000919280AD3FFE74CA93C20088025
:201FC0004BA94B2008804AA908200880FFE7FFE7FFE751A8007800280ED0FFE76F48007839
:201FE000062809D1FFE777480078002804D1FFE74B2080005390FFE76F48007801280ED1EE
:20200000FFE766480078062809D1FFE76B480078062804D1FFE752A9B420088014E06648B9
:20202000007801280FD1FFE75C48007806280AD1FFE762480078002805D1FFE74B20C000FD
:2020400052A90880FFE7FFE754480078062819D1FFE75A480078042814D1FFE75A480088E4
:2020600059A908805448007801280AD1FFE7002159A8405EC92804DBFFE759A9C8200880F0
:20208000FFE729E045480078062813D1FFE74B48007806280ED1FFE74B48018859A80180B8
:2020A0000021405E652804DBFFE759A964200880FFE710E05498539988420BD2FFE70021A5
:2020C0003848415E54984843539907F045F859A90880FFE7FFE7FFE708F0D8FA01467F205E
:2020E00001403A480170007855A903F0A3F93849088055983749087050A80078002871D0E0
:20210000FFE755A8007800286CD0FFE7002127912F48405E07F078FA2799024649A8289012
:202120000280204A128848AB1A80405E800050305021A02206F088FC2799024628984CAB82
:202140001A804C9A4BAB1A80405EC10F4018401014301421282206F077FC27990246289865
:202160004AAB1A80405E0B283BDB01E0D63A2020002126910B48425E49A8405E4000101AF4
:202180001430822106F060FC269A48A9088059A8805E895E884223DD1EE0C046D63A2020E9
:2021A000F03920209C3A2020743A2020943A2020183A2020DC050000533A2020E03A20200A
:2021C000CC392020DE3A2020A23A2020D43A2020763A2020D53A2020489859A90880FFE769
:2021E000FFE7FFE7F5480078062800D047E1F4480078002800D0ADE047A90820087006F079
:202200004BF8F0490880F0480078012804D1FFE747A904200870FFE7EB480078012832D1DD
:20222000FFE708F0EBF900282DD0FFE707F052FE014646A8018045AA2592E449118000214F
:202240002491405E07F0E0F9249A2599895E88420BDBFFE7DE480078FF2805D0FFE7DC49BD
:202260000878401C0870FFE703E0D94900200870FFE7D7480078032804D3FFE7D54806F00F
:20228000E7FFCFE303E0D24900200870FFE70022CC48805ED049895E884206DAFFE7CF496E
:2022A00000200870CE49087053E0CC48007847A90978884211DAFFE7CA48007805F020FC91
:2022C000002805D0FFE7C5490878401C087003E0C24900200870FFE73AE0C248007805F0BC
:2022E00006FD44A9087043A902200870B648007801280AD1FFE7BB48007802F039FE44A9FF
:20230000087043A902200870FFE744A8007800280BD0FFE7B2480078FF2805D0FFE7B0493F
:202320000878401C0870FFE703E0AD4900200870FFE7AB48007843A90978884207DBFFE7A2
:202340005D9802F0B1F85D98FEF710FE6AE3FFE7FFE793E09A480078042800D08DE05D98B1
:20236000A1490968401A4290429878281ED3FFE795480078012807D1FFE79A48007804F0FB
:2023800085FF002807D111E09648007805F0B8FB00280BD0FFE795480078FF2805D0FFE7AA
:2023A00092490878401C0870FFE703E08F4900200870FFE78D48007821908348017803206A
:2023C000229002200129239001D02298239021982399884246D3FFE77B480078012835D166
:2023E000FFE783490120087082481E90008882490880824807F0F0F881480078401C04F005
:2024000067FC80481F9007F0E7F8002120917E48405E04F05DFC1F9807F0DEF81E98209996
:20242000405E04F055FC1F9807F0D6F86D48007804F04EFC1F9807F0CFF820997348405E4B
:2024400004F046FC724807F0C7F8FFE75D9800F051FF002801D0FFE7E4E26E48008859A9D6
:20246000088009E042984009192804D3FFE76A4806F0EEFED6E2FFE7FFE7FFE7FFE755A8E9
:202480000078002800D16CE160481C9000211B91405E07F0B9F81B9941AA199210805F4896
:2024A0001A90405E07F0B0F81B9902461C9840AB1A803FABA0221A8000883DAA10803CAAD5
:2024C00008201080564800683B90564800683A9059A8415EFF225432012091421D9001DCDE
:2024E0001B981D901B9A1A991C981D9B39AC237000880988401A56A9189108804A48179054
:20250000805E4000895E4018032106F0A9F9179A189B1B9904461998148012881A80405E29
:20252000042809DCFFE73B9903204843C117890F401880103B901BE0002141A8405E0A282A
:2025400015DBFFE739A80078002809D0FFE73B9905204843C117890F40188010169003E000
:202560003B9840001690FFE716983B90FFE7FFE7002241A8805E40A9895E884204DAFFE730
:202580003A9840003A9005E03A98C10F401840103A90FFE7002141A8405E022803DCFFE7E9
:2025A00000203A90FFE739A80078002866D0FFE7002141A8405E04284ADC37E0D63A20204D
:2025C000E03A20205C3A2020533A2020FF7F0000C43A202019AC0000583A2020BD3A202074
:2025E000BE3A2020D43A2020383A2020E73A2020E63A2020AC3A2020643A2020C8AD000069
:20260000DE3A2020D7B10000AE3A2020763A2020B8B100009C3A2020B6AC0000803A2020E7
:20262000103A2020083A2020783A20203FA92D200880002141A8415E052014900A20032917
:20264000159001DB1498159015983CA9088014E0002141A8405E0A2807DBFFE73FA97D2073
:2026600008803CA91220088006E03FA95A2008803CA908200880FFE7FFE723E0002141A8F5
:20268000405E042812DCFFE73FA92D200880002141A8415E052012900A200329139001DB9A
:2026A0001298139013983CA908800AE0002141A8405E0A2804DBFFE73CA912200880FFE7A7
:2026C000FFE7FFE74DA80078002819D0FFE700223FA8805E4CA9895E884204DDFFE74C9892
:2026E0003FA90880FFE700223CA8805E4AA9895E884204DDFFE74A983CA90880FFE7FFE71A
:202700003B99002311933DA8C05E48433A9A56A9C95E514340187D21C90006F0A1F8119A09
:202720003FA98A5E514209B206F08EF9119B01463EA80180C05ECF491091CA5E3CA9CB5E97
:20274000D11AD21809B212B206F07EF9109A014611981180BF490988C54A1180BE490880C5
:2027600037E0BD480088BD49884205D8FFE7BA4908880A300880FFE7B748008852A90988D4
:20278000884213DBFFE7A8480078062804D1FFE7B64806F05DFD08E002F008FAB149002006
:2027A0000870B14806F018FFFFE73BE1AA48008864280DD3FFE7AA480021018059A8405E9A
:2027C000652804DBFFE759A964200880FFE7FFE7FFE7A848008857A908800021A648405E3A
:2027E000002816D0FFE7A54800685D99401A01280FDBFFE7002257A80F90805E9E49895EDB
:2028000040189F21C943A02206F01EF90F99088005E099490020088098490860FFE74DA802
:20282000007800280DD0FFE7002257A80E90805E4BA98A5E514209B206F006F90E9908804A
:20284000FFE75998143858A9088050A80078002804D0FFE74B9858A90880FFE7002158A807
:20286000405E002804D5FFE758A900200880FFE700220B9257A80A90805E58A98A5E514292
:2028800009B206F0E1F80A9A0B99108059A80D90405E525E80184B22D2000C9206F0D4F8B3
:2028A0000A9B0B990C9A04460D98684D2C80405E5B5EC01A06F0C8F86549088086E05B48B3
:2028C000008838A9088007F08BF9089007F098F901460898401A379007F082F9099007F062
:2028E0008FF9014609984018C10F401840103690369900224E48805E48434E4905F0B0FFA7
:20290000359037983599401A34905D984A490968401A30903098494988420BD8FFE7002116
:202920004248415E30984843454906F015FC38A90880FFE7002138A8405EC20F80184208E5
:2029400032A80280405E3D2804DBFFE732A93C200880FFE73B4800683190309837498842F0
:2029600008D8FFE7319840000021374A06F0A0FD3190FFE73199349848437D21C90005F02F
:202980006FFF0022059232A98A5E514209B206F05BF8059933AA0492108038A80790405E00
:2029A000525E801A4B22D200069206F04DF8049B0599069A04460798244D2C80405E5B5E81
:2029C000C01806F041F822490880FFE7FFE7FFE706F0C8FF5BA90091088006F0D7FF01465E
:2029E00000985AAA01921180002202921749895E825E234802F0F0FB029A01460198214B0A
:202A0000039319801249895E825E1F4802F0E4FB029A034603981D490B80805E895E04F003
:202A2000A7FAFFE75EB0B0BDD63A20209C3A20208A3A202010270000183A2020DB05000081
:202A4000DC050000403A202088130000743A2020943A2020763A20207E3A20205FEA000013
:202A6000783A2020E43A202043AC0000F2AE0000803A2020823A20207A3A20200C3A202007
:202A8000803920206C3A2020943920208C3A202080B584B0029001916946012008700298D5
:202AA000FD4904F0F5FE002811D0FFE70198002805D4FFE70198FD49884204DBFFE703A960
:202AC000002008701CE20198FB4908600CE20298FA4904F0DDFE002811D0FFE701980028D1
:202AE00005D4FFE70198F149884204DBFFE703A90020087004E20198EF494860F3E10298A4
:202B0000EF4904F0C5FE002811D0FFE70198002805D4FFE70198E549884204DBFFE703A955
:202B200000200870ECE10198F7490860DAE10298F74904F0ADFE002811D0FFE7019800280B
:202B400005D4FFE70198D949884204DBFFE703A900200870D4E10198EB494860C1E10298C2
:202B6000EC4904F095FE002811D0FFE70198002805D4FFE70198E549884204DBFFE703A928
:202B800000200870BCE10198CB498860A8E10298E14904F07DFE002811D0FFE701980028FF
:202BA00005D4FFE70198D949884204DBFFE703A900200870A4E10198F84988608FE1029877
:202BC000D64904F065FE002812D0FFE70198002806D4FFE70198FF21C431884204DBFFE7D1
:202BE00003A9002008708BE10198ED49888175E10298CB4904F04CFE002812D0FFE7019882
:202C0000002806D4FFE70198FF21C431884204DBFFE703A90020087072E10198DF4988812E
:202C20005BE10298BF4904F033FE002811D0FFE70198002805D4FFE70198D649884204DBC1
:202C4000FFE703A9002008705AE10198D249086042E10298B44904F01BFE002812D0FFE73C
:202C600001984F21C943884204DBFFE70198512804DBFFE703A90020087041E10198C449CD
:202C8000088028E10298A94904F002FE00281AD0FFE7B848007801280AD1FFE701982221ED
:202CA000C943884204DBFFE70198242804DBFFE703A90020087023E10198B44908806946BA
:202CC0000020087006E10298994904F0E1FD002822D0FFE70198002805D4FFE70198A34922
:202CE000884204DBFFE703A90020087008E10198A54908609F48007801280CD1FFE79E49F7
:202D0000002008809D4908809D4909889D4A118069460870FFE7DCE00298864904F0B8FDD3
:202D2000002822D0FFE70198002805D4FFE701988E49884204DBFFE703A900200870DFE011
:202D400001988B4908608B48007801280CD1FFE78949002008808949088089490988894A5D
:202D6000118069460870FFE7B2E00298724904F08FFD002813D0FFE70198AF2189008842A1
:202D800005DBFFE701987749884204DBFFE703A900200870B4E001987349088097E00298BF
:202DA000664904F075FD002819D0FFE7019864280DDBFFE701984B218900884207DCFFE7F3
:202DC000019800226649895E884204DAFFE703A90020087094E001986049088076E00298A2
:202DE000574904F055FD002817D0FFE7019850280BDBFFE70198FA2807DCFFE701980022DC
:202E00005649895E884204DDFFE703A90020087076E001985249088057E00298494904F0EE
:202E200037FD002812D0FFE70198322806DBFFE70198FF216031884204DBFFE703A900200F
:202E400008705DE00198444908803DE002983E4904F01EFD002810D0FFE70198502804DBE4
:202E6000FFE70198FB2804DBFFE703A90020087046E001983749088025E00298334904F0D1
:202E800007FD002814D0FFE70198322806DBFFE701988D2806DB01E09EB1000003A9002057
:202EA00008702DE001982A4908800BE0B90B000003A90020087023E0803920207AB10000DF
:202EC000AAB10000FFE7FFE7FFE7FFE7FFE7FFE7FFE7FFE7FFE7FFE7FFE7FFE7FFE7FFE703
:202EE000FFE7FFE7FFE7FFE768460078002803D0FFE707F0EFFAFFE703A901200870FFE742
:202F000003A8007804B080BD94392020E903000072B100004AB1000062B1000005B10000BD
:202F200037B10000E7B00000F1B000007AB000006CB00000FCAF00001AAF00005CAF0000AC
:202F40004AAF0000BCAE000092AF000080AF0000A03A2020A23A2020A83A2020A43A202028
:202F6000AA3A20204D0400009E3A2020214E0000083A2020533A2020823A2020783A202018
:202F8000763A2020803A2020103A2020683A20208A3A202089130000403A20209439202074
:202FA0008039202080B5E4B07F2080026290619062980068BD49884246D1FFE7629840687A
:202FC000032841D1FFE77F2080024C904C9922A8A82207F073FB2498A82810D1FFE74B98BD
:202FE000089022A805F01AFA01460898884206D1FFE722A804F03EFE002804D1FFE763A90F
:20300000002008704DE122A905911031B84807904822069207F052FB0599069A0798583105
:20302000483007F04BFB069907984A9AAF4B1A80259BAD4A137012785143401803F0EAFD9B
:2030400063A9012008702CE162980068974988423BD1FFE762984068022836D1FFE77F2068
:203060008002219021990BA8582207F027FB0D98582810D1FFE7209804900BA805F09EF9A6
:2030800001460498884206D1FFE70BA801F0CCFA002804D1FFE763A90020087001E10BA840
:2030A00003F05AFD904900200870904908809048039003F0F1FC039908464830482207F0E6
:2030C000FDFA63A901200870EBE0619800684D90619840684E90619880684F906198C068EB
:2030E00050906198006951906198406952906198806953906198C06954906198006A559016
:203100006198406A56906198806A57906198C06A58906198006B59906198406B5A9061987D
:20312000806B5B906198C06B5C906198006C5D906198406C5E906198806C5F906198C06CCB
:2031400060904D985949884214D1FFE74E98012810D1FFE7599802904DA805F0DDFF0146FD
:203160000298884206D1FFE74DA802F081FA002804D1FFE763A90020087092E04F984C4A56
:2031800010605098506051984A49086052984860539890605498886055989081569888810D
:2031A0005798454908605898444908805A98401C002817D0FFE74DA8818E0A91C08E09905C
:2031C0000A983F4988420CDCFFE709983C49884207DCFFE70A983B49086009983A4908605A
:2031E000FFE7FFE75B98AF21890088423ADBFFE75B983649884235DCFFE75C98642831DB33
:20320000FFE75C984B21890088422BDCFFE75D98502827DBFFE75D985C99884222DCFFE73B
:203220005E9832281EDBFFE75E98AF214900884218DCFFE75F98502814DBFFE75F98FA284F
:2032400010DCFFE75B98224908805C98214908805D98214908805E98204908805F982049A2
:203260000880FFE76098322808DBFFE760988C2804DCFFE760981B490880FFE71A49002006
:2032800008701A4908801A48019003F005FC019908464830482207F011FA63A90120087073
:2032A000FFE763A8007864B080BDC046314449508039202094392020403A20208A3A20207C
:2032C000204E0000103A2020083A20204C0400009E3A2020A43A2020AA3A2020A83A2020A8
:2032E000A23A2020A03A2020533A2020683A20209037202080B58AB00890A448008807A9B7
:203300000880A3480078012832D1FFE70021A148405E01282CDBFFE79E48008807A908804C
:203320009D480078002822D0FFE79C48007800281DD0FFE700219A48405EAF218900884215
:2033400015DBFFE700219648405E964988420EDCFFE700239449CA5E03205043904AD25E99
:203360008018801C820F801880080880FFE7FFE78948007800281AD0FFE7002107A8405E65
:20338000322814DBFFE7002107A8405E8C280EDCFFE700238549CA5E0320504307AAD25E5C
:2033A0008018801C820F801880080880FFE780490878401C08707648007801281DD1FFE76A
:2033C0007C4806F009F97A48007803F081FC7A48059006F001F9002106917348405E03F03C
:2033E00077FC059806F0F8F806997048405E03F06FFC724806F0F0F8FFE7714806F0ECF873
:203400006B480490007803F063FC6B48039006F0E3F800216248405E03F05AFC039806F041
:20342000DBF8089867490968401A03F051FC634806F0D2F804980078634909788900C9B2AE
:20344000884252DBFFE701F0B1FB724900200870714908704E480078012815D1FFE76F48B3
:2034600006F0BAF8002102914F48405E03F030FC6B4806F0B1F802994C48405E03F028FC66
:203480004E4806F0A9F8FFE7664806F0A5F800214648405E03F01CFC4848019006F09CF8D5
:2034A000614806F099F84248007803F011FC019806F092F836480078012804D1FFE75D4842
:2034C00006F08AF80DE002F05BFD002804D0FFE7574806F081F803E0544806F07DF8FFE77D
:2034E000FFE709A9012008704BE0384900200090087008983649086006F0E6FA3549086084
:2035000006F0F4FA01460098334A1160334908803349087033490870334908703348008817
:20352000334908801A480078012810D1FFE7314900200880304908803049087007F05EF85C
:20354000002803D0FFE706F093FFFFE7FFE71048007801280ED1FFE729480078002809D08E
:20356000FFE72848006828490861284800682849086102E006F0AEFFFFE709A9002008704C
:20358000FFE709A800780AB080BDC046AC3A2020533A2020643A2020E63A2020EB3A202089
:2035A000AE3A20204C0400009E3A2020A03A2020DE3A202036AE0000D7B10000B8B1000034
:2035C0009BAE00003C3A2020E13A2020E03A2020383A2020C0392020C43920205C3A202039
:2035E000BD3A2020BE3A2020E73A2020763A2020803A2020823A2020783A2020C43A2020E5
:20360000C53A2020D039202080392020D439202094392020E43A2020B93A2020E2AA0000B2
:20362000C7AE000060AB0000A1AD0000AAAB00002EAC0000D1A9000080B586B004AB188061
:2036400003A80170029206F0D9FF00280FD0FFE707F022F800280AD0FFE703A800780028BB
:2036600005D0FFE703A800780B2804D3FFE705A900200870B7E001F099FA04F075FB5C4912
:203680000620087004985B49088002985A49086003A80178594848435949086006F0C0FA15
:2036A00058490860029858490860584901200870574900200870574908700299564A116028
:2036C0000299564A11600399554A1170554908705549087055490870554908705549087014
:2036E00055480078012808D1FFE706F087FF002803D0FFE706F0BCFEFFE750490020019090
:2037000008804F4908804F4A012111704E4908704E4908704E49087006F0D6F94D490860D5
:2037200006F0E4F9014601984B4A11604B4908804B49087006F0C8F94A49086006F0D6F931
:2037400001460198484A116048490880484AE12149001180474908804749088047490880B7
:20376000474908804749088047490860474908604749087047490870474908704749087009
:2037800047490870474908704749087047490880474908804749087047490880474A48499F
:2037A00011804849086048490880484805F014FF019904A8405E03F08BFA454805F00CFFE5
:2037C00003A8007803F084FA424805F005FF42480078002803D1FFE706F0D6FEFFE705A990
:2037E00001200870FFE705A8007806B080BDC046D63A20209C3A2020183A202060EA0000EA
:20380000143A2020F0392020F8392020E43A2020B83A2020E03A2020383A20203C3A2020EE
:20382000E13A2020DE3A2020BD3A2020BE3A2020E73A2020C43A2020533A2020AE3A2020D2
:20384000A63A2020EB3A2020EA3A2020E93A2020E83A2020443A2020483A2020AC3A202014
:20386000E63A2020C0392020C43920205C3A2020583A2020763A2020803A2020783A2020EE
:20388000823A20207E3A2020D0392020D4392020C53A2020C63A2020C73A2020C83A20209C
:2038A000C93A2020CA3A2020C33A2020663A2020643A2020C23A2020623A20205E3A202096
:2038C000FF7F0000CC392020603A20206CAC0000D7B10000B8B10000B93A202070B58EB0AC
:2038E0000D9009A90020087094480078002801D1FFE721E10D9891498A68801A0C900D985F
:203900000969884200D2ECE00D9914318B48016140784C2804D1FFE706F024F8069003E03B
:2039200006F034F80690FFE706980BA90880834840784C2805D1FFE700218248405E05903E
:2039400004E000217E48405E0590FFE705980AA9088000210BA8405E05F056FE77492422EA
:20396000895E884208DDFFE700210BA8405E05F04BFE72498884FFE77048007801283BD109
:20398000FFE70C988008AF2812D3FFE700210BA8405E05F039FE0446E3176849C86A8A6ABA
:2039A000121958418A62C862888A401C8882FFE700210BA8405E05F027FE6349884207DBEB
:2039C000FFE75E494822885C022318438854FFE700210BA8405E05F017FEE121C9008842B9
:2039E00009DBFFE7554A4823D15C01200143D15409A90870FFE773E0504A049290880B99ED
:203A0000411A08A80180918A491C91820021405E05F0FAFD04990446E317486B0A6B1219A8
:203A200058410A634863086AC968884216D1FFE700210BA8405E039040480421415E092021
:203A400048430A2104F00CFF0146039809B2884204DBFFE70C9839490862FFE700210AA83C
:203A6000405EFF21F031884205DBFFE73349088B401C0883FFE70C983049CA6803215143F4
:203A80008908884218D3FFE72C490291C88A401CC88200230BA8C65EF517CA6B8C6BA4190B
:203AA0006A418C63CA63C45E6443486C0A6C121958410A644864FFE700210BA8405E05F021
:203AC000A3FDE1218900884209DBFFE71B4A4823D15C01200143D15409A90870FFE7FFE7AA
:203AE000FFE70C981549C968884205D2FFE709A80078002820D0FFE710490091087807AAE4
:203B0000019210701148502206F0D8FD0099104A012010700020087001F048F8019800788E
:203B2000012804D1FFE7094802F0F0FE03E0074802F088FBFFE7FFE70EB070BDF0382020AA
:203B40008C3A20206C3A202092090000A0382020D13A2020B0B588B0664AAF2041001160AD
:203B60006420506073208000906020209081624A7D20830013605160FF21B63191601A219A
:203B800091815E4AC10011605D4A322111805D4A5D4911605D49000108605D49E1208000BA
:203BA00008805C49B92008805B498C2008805B4AB42111805A4908805A49622008805A4919
:203BC000002004900870594908805948039002F063FF039908464830482206F06FFDFFF7E3
:203BE000E1F907A9087000F0E1FF049851490870514908705149086051490860514908602D
:203C0000514908605149086051490880514908805149087051490870514908705149087014
:203C20005149087051490860514908805149088051490880514908805149088051490870B4
:203C4000514908705149088051490860514A01211170514908705149087006A90870FFE7BF
:203C600006A80078022826D8FFE706A80290007804F02EF9029A05A90870059B107806212C
:203C80000C4644434C480355059B15780C466C4304196370059B15780C466C430419A370E3
:203CA00012785143411800208880FFE70698401C06A90870D4E73A490020086039490120F5
:203CC0000870394805F088FC07A801783748384A00920029019001D100980190019805F074
:203CE0007BFC05F09BFD00F069F8324805F074FC08B0B0BD8039202094392020403A2020AB
:203D00008A3A2020103A20205E1A0000083A20209E3A2020A43A2020AA3A2020A83A20209F
:203D2000A23A2020A03A2020533A2020683A202090372020E43A2020B93A2020183A202074
:203D4000E8392020F8392020E4392020D8392020963A20205A3A2020B83A2020C03A202093
:203D6000E33A2020E23A2020DF3A2020243A2020763A2020803A2020783A2020823A2020BB
:203D80007E3A2020D53A2020D43A20207A3A20200C3A2020E13A2020DE3A2020C43A202023
:203DA000DC392020DC3A202035AA0000EEAB000092AB0000A4AC0000A839202080B584B0C9
:203DC000554805F009FC5548007802F081FF544805F002FC032002F07BFF524805F0FCFB21
:203DE000192002F075FF504805F0F6FB4F480090006802F06DFF4E4805F0EEFB0098406805
:203E000002F066FF4B4805F0E7FB4B480290006802F05EFF494805F0DFFB0298406802F071
:203E200057FF474805F0D8FB0098806802F050FF444805F0D1FB0298806802F049FF424881
:203E400005F0CAFB00980C210191405E02F040FF3E4805F0C1FB01990298405E02F038FF50
:203E60003B4805F0B9FB3B48006802F031FF3A4805F0B2FB002103913848405E02F028FFF9
:203E8000374805F0A9FB03993648405E02F020FF354805F0A1FB3548006802F019FF3448C8
:203EA00005F09AFB3348006802F012FF324805F093FB03993148405E02F00AFF304805F07A
:203EC0008BFB03992F48405E02F002FF2E4805F083FB03992D48405E02F0FAFE2C4805F0CD
:203EE0007BFB03992B48405E02F0F2FE2A4805F073FB03992948405E02F0EAFE284805F0FE
:203F00006BFB03992748405E02F0E2FE264805F063FB04B080BDC04604AC0000533A20208B
:203F200090AE00007AAE0000C4B00000803920209AB00000D0B0000094392020DCB000004B
:203F4000BEB00000B8B000003BB0000057B0000003B00000403A202081B000008A3A2020F7
:203F600053AF0000683A202065AF0000103A20206EAF0000083A20201EAE00009E3A20203C
:203F8000DDAE0000A43A202059AE0000AA3A2020AEAD0000A83A20206FAE0000A23A202097
:203FA000C7AE0000A03A2020B8B1000080B58CB00B90DC2004F034F8002801D1FFE7B4E06D
:203FC00005F0D0FC0AA9088005F0E0FC09A9088057480078002803D1FFE70020079005E045
:203FE0000B9854490968401A0790FFE707980890514805F0F1FA089802F06AFE4F48059063
:2040000005F0EAFA03F004FC05F0E6FA059805F0E3FA002106914A480090405E02F058FED0
:20402000059805F0D9FA069946480290405E02F04FFE059805F0D0FA06990AA80190405EA3
:2040400002F046FE059805F0C7FA069909A80390405E02F03DFE059805F0BEFA06993A48BE
:20406000405E02F035FE059805F0B6FA06993748405E02F02DFE059805F0AEFA00980199F6
:20408000069A805E895E401A02F022FE059805F0A3FA02980399069A805E895E401A02F039
:2040A00017FE059805F098FA05F09AFD049005F0A7FD01460498401A02F00AFE059805F045
:2040C0008BFA06992248405E02F002FE059805F083FA2048007802F0FBFD059805F07CFAE1
:2040E0001D48007802F0F4FD059805F075FA04F053FA02F0EDFD059805F06EFA1748007811
:2041000002F0E6FD059805F067FA1548007802F0DFFD059805F060FA06991248405E02F0BF
:20412000D7FD114805F058FAFFE70CB080BDC046D63A2020183A20200FB10000D7B10000FC
:20414000743A2020943A20206C3A20208C3A2020763A2020D43A2020D53A2020DE3A202092
:20416000E03A2020AC3A2020B8B1000080B588B007905E48007800280AD0FFE707985C4908
:20418000884201D8FFE7AFE0584900200870FFE758480078002812D1FFE7604901200322F0
:2041A00000F048FE002803D1FFE704F059FD9BE050490120087056490020087094E02620FF
:2041C00004A90C2200F036FE002810D1FFE74F49002008704C480078032805D8FFE74A4934
:2041E0000878401C0870FFE704F03AFD7CE004A8083005F0C3FC03900399084603F0ADF950
:2042000000280ED1FFE703983B4904F0FCF9002807D1FFE70398394904F010FA002808D0A8
:20422000FFE73949002008703849087004F018FD5AE0039803F026FA02A908803048006881
:2042400000282FD0FFE702982E490988401A00B204F082FA014601A801802B490978322279
:204260004A43323269460A800022805E895E884209DCFFE7002201A8805E6946895E4942CE
:2042800088420EDAFFE720480021017002A8405E02F0AEFF002803D1FFE704F0E1FC23E0EF
:2042A000FFE7FFE702981749088017490020087016490870164908701649012008701048BA
:2042C0000068002805D1FFE70E48008812490880FFE70B480068401C002805D0FFE70849A0
:2042E0000868401C0860FFE708B080BDED3A202087130000EC3A20200000D0C00000D040A8
:20430000203A2020B43A2020E53A2020DB3A2020BB3A2020D93A2020B63A2020503A20209F
:2043200080B594B01390FFE703A8402100F0E4FC002805D0FFE7139903A8FBF7C1FEF3E7DA
:20434000139801F027FD139802F002FF1398FDF719FD1398FFF7C2FA4548007801280ED1E0
:20436000FFE7139843490968401A00097D2806D3FFE700F01BFC404805F02EF9FFE73F48D0
:20438000007800280ED0FFE713983D490968401A142807D3FFE7139839490860139801F090
:2043A00069FEFFE732480078022814D0FFE73048007803280FD0FFE72D48007804280AD0F7
:2043C000FFE72B480078052805D0FFE72848007806282AD1FFE713982A490968401A2A49D1
:2043E0000968884221D3FFE724480090007802A90191087000F0DAFB0099244A0020107013
:204400000870234805F0E8F80198007800280BD0FFE7204805F0E0F81F48008802F058FC80
:204420001E4805F0D9F8FFE7FFE718480078002818D0FFE713981A490968401A142811D3BD
:20444000FFE713981649086016480078002804D0FFE7139801F022FC03E01398FFF7A6FD6B
:20446000FFE7FFE7139803F089FB14B080BDC046D63A2020E8392020FCAA0000B83A2020BE
:20448000E4392020183A2020143A2020E43A202042AE00004EAE0000963A2020B8B10000DC
:2044A000F8392020B93A202080B586B0059003F0F3FE01463B4801800021415E03204843BB
:2044C000052104F0CDF94B218900E122920004F0BBFA04A9088034480078002804D1FFE7BD
:2044E0000498324908800DE000233049CA5E0320504304AAD25E8018801C820F80188008F3
:204500000880FFE72A49012008700598294908600598294908602949002003900870284925
:20452000087028490870284908702849087028490870284908702849087028490870284933
:20454000087028490880284908802849087028490880284A284911802849086028490880C9
:2045600028480078012816D1FFE72748006927490191274A029204F09BFF0199029A254B4A
:2045800018602548006904F093FF24490860244901200870FFE723490020088005F09AFFE4
:2045A00006B080BD5C3A2020DE3A2020583A2020E03A2020383A20203C3A2020BD3A20200F
:2045C000BE3A2020E73A2020C43A2020C63A2020C73A2020C83A2020C93A2020CA3A2020BA
:2045E000C33A2020663A2020643A2020C23A2020623A20205E3A2020FF7F0000CC3920200D
:20460000603A2020533A202080392020702FFCFF90D00300D039202094392020D43920205A
:20462000C53A2020AE3A202080B59AB018901898C0680690189800690790189840690890DD
:204640001898806909901898C0690A901898006A0B901898406A0C901898806A0D90189823
:20466000C06A0E901898006B0F9004A801F000F8002804D1FFE719A90020087085E01898D1
:20468000416B00200029039079D4FFE71898416B0020404A9142039071DCFFE71898816B24
:2046A0000020002903906AD4FFE71898816B0020384A9142039062DCFFE71898C16B002036
:2046C000AF2292009142039059DBFFE71898C16B0020314A9142039051DCFFE71898016CEA
:2046E0000020642903904ADBFFE71898016C00204B2292009142039041DCFFE71898416C6D
:204700000020502903903ADBFFE71898416C026C00209142039032DCFFE71898816C002070
:20472000322903902BDBFFE71898816C0020AF2252009142039022DCFFE71898C16C002078
:20474000502903901BDBFFE71898C16C0020FA29039014DCFFE71898016D002032290390BC
:204760000DDBFFE71898016D0020019001208D29029001DB0198029002980390FFE703987E
:204780000121084019A90870FFE719A800781AB080BDC046204E00004C04000070B588B02E
:2047A0000C4605460D980C9907AE357006AD2C800592049303AA117002A9087000F0F6F9FB
:2047C0003749002008703749087003F0CDFA05F015FF002803D0FFE705F04AFEFFE7079863
:2047E0003149087006983149088004983049086005983049086005F013FA2F4908600498AE
:204800002E49086004982E49086003982D49087002982D4908702D490020019008802C4909
:2048200008802C4908802C4908802C4908802C4908702C4908702C4908802C49086002A89B
:204840000078002808D0FFE72949002008802949088029490870FFE7284804F0BDFE02F005
:20486000D7FF04F0B9FE2648009004F0B5FE002106A8405E02F02CFA009804F0ADFE0598B9
:2048800002F026FA1F4804F0A7FE03A80078002803D0FFE705F078FEFFE708B070BDC046C6
:2048A000E33A2020E23A2020D63A20209C3A2020183A2020143A2020F0392020F8392020DF
:2048C000E4392020E43A2020B83A2020763A2020803A2020783A2020823A20207E3A20201B
:2048E000D53A2020D43A20207A3A20200C3A2020963A20205A3A2020C03A202006AE0000CF
:20490000D7B10000B8B1000080B584B0024603A8027002910078002828D1FFE744480078C2
:20492000002822D1FFE74348007800281DD1FFE741480078002818D1FFE745480078022850
:2049400013D3FFE7424901910878401E08703D49002008703F4804F03FFE0198007802F03F
:20496000B7F93D4804F038FEFFE75EE003A80078012828D1FFE72E480078002822D1FFE79A
:204980002C48007800281DD1FFE72B480078002818D1FFE72E480078092813D8FFE72C49E8
:2049A00000910878401C0870264900200870294804F012FE0098007802F08AF9264804F0AF
:2049C0000BFEFFE731E01A48007800280AD1FFE718480078002805D1FFE717480078002859
:2049E00003D0FFE703F0AAFD1FE01448007800280DD0FFE71149002008700E4901200870C4
:204A000002980F490860114804F0E6FD0CE00A490120087002980A4908600A4900200870F4
:204A2000094804F0D9FDFFE7FFE704B080BDC046D63A2020E23A2020DF3A2020E33A202036
:204A4000243A2020DE3A2020A9A9000053AA0000DC3A20204BAD0000B8B1000080B58EB0E7
:204A600021200421039105F09BF90120029001034A480A9005F0BEFA2220052105F090F93D
:204A800002990A98490305F0B5FA02980399002207920192C30409930093430408930F205E
:204AA000049003F031FF0399079A089B0998019200900E20059003F027FF049805F054F9E1
:204AC000059805F051F91F200221069105F068F90699202005F064F8352005F0AFFA362032
:204AE00005F0ACFA192005F0A9FA182005F0A6FA312005F0A3FA0799089A099B00913220D1
:204B000003F0CAFF0799089A099B0091122003F0C3FF0799089A099B0091162003F0BCFF20
:204B20000799089A099B0091232003F0B5FF0799089A099B0091242003F0AEFF0799089A77
:204B4000099B00911C2003F0A7FF0799089A099B00911D2003F0A0FF102005F06FFA112046
:204B600005F06CFA0A9803210C9109060B9105F0E8FB0A980B9905F03DFA0C98010208488B
:204B80000D9005F0DEFB0D98064905F07BFA0D98054905F02FFA0EB080BDC04600000A40F0
:204BA00000200A40300040003003400080B52A49002008802949088029490880294908806A
:204BC0002949087029490860294908802949086029490870294908602949086029490870B5
:204BE000294908702949087029490880294908802949087029490870294908702949087045
:204C0000294908802949087029490880294908602949086029490870294908702949087044
:204C20002949087029490870294908702949087029490880294908802949087029490880F4
:204C4000294A2A4911802A4908602A49088005F041FC04F057FB80BD6C3A20208C3A202066
:204C6000743A2020943A2020D63A2020143A20207A3A20200C3A2020E03A2020383A2020D4
:204C80003C3A2020BD3A2020BE3A2020E73A2020AE3A2020A63A2020EB3A2020EA3A20207D
:204CA000E93A2020E83A2020AC3A2020E63A20205C3A2020D0392020D4392020C53A2020FE
:204CC000C63A2020C73A2020C83A2020C93A2020CA3A2020C33A2020663A2020643A20208F
:204CE000C23A2020623A20205E3A2020FF7F0000CC392020603A202080B588B0069005A877
:204D000001800698002805D0FFE705A80088012804D8FFE707A9002008707BE0FFE73F4861
:204D200000883F490988884270D0FFE73B48009002883C49895C04AA0192117000888021F0
:204D400004F0D0FB009A01460198118000780D2805D0FFE704A800780A2840D1FFE732485A
:204D60000078002801D0FFE7D9E72F49012008702E480088002831D0FFE72C48018802A857
:204D80000180008805A90988884205DBFFE70598401E02A90880FFE703A900200880FFE7ED
:204DA00003A8008802A9098888420CDAFFE703A802881F48805C06998854FFE70398401C1E
:204DC00003A90880ECE7069902A80288002088541649088007A9012008701BE015E0124982
:204DE00000200870114800883E2809D8FFE704980E490B880E4AD0540888401C088003E0B4
:204E00000A4900200880FFE7FFE788E707A900200870FFE707A8007808B080BD9A3A2020FE
:204E2000983A202020382020D23A20207C3A20204039202080B58EB00CAB18700B910AA8CD
:204E400002700B9800280AD0FFE70AA80078002805D0FFE703F0B8FE002804D1FFE70DA906
:204E60000020087079E004F0EBFE3E4805900CA90122069203F032FB05983B4905F00EF99C
:204E80000598069B002202920192022107910091232102F03DFD079802F0B0FB002804D196
:204EA000FFE70DA90020087057E00AA80378002004900290042001900220009029482321F8
:204EC000012202F025FD049809A90870FFE709A800780AA90978884230DAFFE723480890D5
:204EE000FFE7204804F078FF00281AD0FFE71D4805F03CFA8007002806D5FFE704F0A0FE6F
:204F00000DA90020087028E00898411E0891002806D1FFE704F094FE0DA9002008701CE0EE
:204F2000DFE7104805F036FA0B9909AA12788854FFE70998401C09A90870C8E7012002F0A2
:204F40005DFB002804D1FFE70DA90020087004E003F03AFE0DA90870FFE70DA800780EB0BA
:204F600080BDC04600200F40830400008813000080B594B0014613A80E900170007800213A
:204F8000089104F0D1FF01460E98029100780121099104F0C9FF029902460E988918039186
:204FA000007802210B9104F0BFFF039902460E9889180491007803210D9104F0B5FF0499C9
:204FC00002460E98891805910078042104F0ACFF059902460E98891806910078052104F01A
:204FE000A3FF069902460E98891807910078062104F09AFF079A089903460E98D21812AB45
:2050000010931A70007804F08FFF099902460E980A92007804F088FF0A9A0B9903460E9813
:20502000D2180C92007804F07FFF0C9A0D9903460E98D2180F92007804F076FF0F99024667
:205040001098891811AA11700078032813D8FFE7134801780020002901901CD0FFE713A81C
:2050600000780D2807D0FFE713A8017800200729019010D1FFE711A80178002003290190DB
:2050800009D3FFE713A80078062104F04DFF414248410190FFE701980121084014B080BD2D
:2050A000DE3A202080B596B049480F9005F002F80F9805F097F90F9804F08EF80F9804F016
:2050C0005BFA0023149300930120420410920E20194604F039FA109A149B00930F201946E7
:2050E00004F032FA3B4812900421119105F01FF912980821139105F01AF91199129805F0CF
:205100002AF91298139905F026F90520800105F0CFFA149815A90870FFE715A80078082871
:2051200017D8FFE72B480C9004210D9104F056FFA0200E9005F0BCFA0C980D9905F00BF933
:205140000E9805F0B5FAFFE71598401C15A90870E3E7204803900821049104F03FFFA0206B
:2051600005F0A6FA0398049905F0F5F80520800105F09EFA0022079201920120C104059183
:205180000091430408930F2009900421069103F093FB05980699079A089B019200900E20C6
:2051A0000A9003F089FB099804F0D0FD0A9804F0CDFD07480B9004F0D1FF0B9804F0AAFF2E
:2051C000102005F075FA03F09BFA16B080BDC04600200F4000200A4010B58EB00C900BA87F
:2051E00001800AA90A800021405E002806DCFFE70C99002008610DA9088079E000220192C8
:205200000BA80390805E0AA9895E401A09900C980069099A0A21514340180890089837495E
:20522000374A04F045F908900C980168099848437D21C900029103F013FB07900C9841680B
:20524000089848432F4903F00BFB019B02990246039806920C9A0C24145F04949268C05E07
:20526000504303F0FDFA014604984018079940180699401805900598FF21F631884204DB65
:20528000FFE7099800280CDCFFE70598002804D5FFE70998002804D4FFE708980C990861D8
:2052A0001DE00C98416800694843164903F0D8FA06900C980C21415E0091816800220BA837
:2052C000805E48437D21C90003F0CAFA01460098401807994018069940180590FFE7059809
:2052E0007D218A00002103F0AFFB0DA90880FFE700210DA8405E0EB010BDC046E05EF8FF6A
:2053000020A1070040420F00B0B58EB005F0CEF805903B4800680D903A4800680C90059896
:2053200005F0BAF80D98384A1168401A0B900C9836490B68C01A0A900D9810600C98086006
:205340000B98C117324A02920023049304F004FC049B07910690069807992E4A039205F007
:20536000C3F8029A049B09900A98C11704F0F4FB039A049B079106900698079905F0B4F8F8
:20538000089009982449884203DBFFE723480990FFE708982049884203DBFFE71F48089059
:2053A000FFE700201E4B0093195E099D032214466C430919CC17A40F09198908198019493A
:2053C0000191085E089B5A438018C217920F80188008088005F06AF8009902460198059273
:2053E0000988114A118000881049088010490868401C0860059805F04FF80EB0B0BDC04630
:20540000003A20202C3A2020043A2020303A2020A0D9080010270000C5090000C4090000F1
:20542000703A2020903A2020723A2020923A2020343A202080B58AB0024608A80270079161
:205440000021069105AA117004AA117003AA117002AA1170079A11700078002805D0FFE75D
:2054600005F01AF9002804D1FFE709A9002008806BE001A900200870FFE701A80078072824
:205480003BD8FFE708A8007801A9097804F04CFD00282CD0FFE701A801784A002D498A5EAF
:2054A0000699891806910599491C05AA11700078022804D8FFE704A901200870FFE701A8A9
:2054C0000078052804D3FFE703A901200870FFE701A80078032805D0FFE701A800780428EB
:2054E00004D1FFE702A901200870FFE7FFE7FFE70198401C01A90870BFE705A800780028F1
:2055000014D0FFE705A8007804280FD8FFE702A8007800280ED1FFE704A80078002809D06F
:20552000FFE703A80078002804D0FFE709A9002008800AE0079901200870069805A9097836
:2055400003F08EF909A90880FFE7002109A8405E0AB080BDFCAC000080B588B00790354821
:2055600004F03AF8079801F0B3FB3348049004F033F802F04DF904F02FF8049804F02CF892
:20558000002103912D48405E01F0A2FB049804F023F803992A48405E01F09AFB049804F048
:2055A0001BF804F0DFF901F093FB049804F014F804F0ECF901F08CFB049804F00DF803996F
:2055C0002048405E01F084FB049804F005F803991D48405E01F07CFB049803F0FDFF1B48D3
:2055E00001781B481B4A05920029069001D105980690069803F0F0FF174803F0EDFF1748F2
:20560000007801F065FB164803F0E6FF04F03AFF01461448144A01920029029001D10198A4
:205620000290029803F0D8FF104803F0D5FF08B080BDC046B4AF0000D7B10000743A202081
:20564000943A20206C3A20208C3A2020E33A202094B000000AB100000CAD0000DC3A2020E5
:2056600049B0000019B1000052B10000B8B1000082B00090009880684049884240DCFFE764
:205680000098C0683D4988423ADCFFE7009800693A49884234DCFFE700984069374988422F
:2056A0002EDCFFE7009880697D21C900884227DCFFE70098C0697D21C900884220DCFFE78B
:2056C0000098006AE1214900884219DCFFE70098406AE1214900884212DCFFE70098806A2B
:2056E000274988420CDCFFE70098C06A4F21C943884205DBFFE70098C06A512804DBFFE7D4
:2057000001A90020087034E000988068002828D4FFE70098C068002823D4FFE700980069E3
:2057200000281ED4FFE700984069002819D4FFE700988069002814D4FFE70098C0690028CD
:205740000FD4FFE70098006A00280AD4FFE70098406A002805D4FFE70098806A002804D5E6
:20576000FFE701A90020087003E001A901200870FFE701A8007802B07047C046B80B0000A2
:205780008813000080B590B00EAB18800DA8069001800CA8028000210591425ED30FD21883
:2057A00052100B92425E03205043820F801880100A903848405E50218C2203F045F9059935
:2057C000024609A80280405E0A386421782203F03BF905990246069808AB1A80405E0B9915
:2057E000884206DDFFE700210CA8405E002804DCFFE70E980FA9088047E000210DA8405E34
:205800000A99884216DBFFE700220EA8805E08A9895E884205DAFFE700210EA8405E04905E
:2058200004E0002108A8405E0490FFE704980FA908802AE00022029209A8805E039008A92C
:20584000895E411A0DA8805E0B9A801A48430A99891A03F005F8029A01460398401A07A9EB
:2058600008800EA8805E895E884205DAFFE700210EA8405E019004E0002107A8405E0190AD
:20588000FFE701980FA90880FFE700210FA8405E10B080BDAA3A2020F0B5394A8218394B86
:2058A000C0183A4D4C790B79002C22D0466F202B02D00524E70100E0354F2E40002B00D171
:2058C00088273E434667846F2C403C438467446B2D4E34404463846B3440846300244465C6
:2058E000846554688F26F643344054609468344094600C688979202B09D006467036002BD2
:2059000015D1641E4460C46E2C40882715E0641E4460C46E2C401E4E3443C466046F2C4089
:20592000344304671B4D01246707064607E00527FF0164084460C46E2C403C43C466346838
:205940002C403C433460C46A0F4D2C40C462046B2C4004630024C4640465C46F8F25ED439E
:205960002C40C46714682C401460194302680A4B1340BD220A40D118891C0160F0BDC046FB
:2059800084180000041800008888FDFF24493E0001040000FFFFFFCF4000FFCF80B588B04C
:2059A0000020079006900590049003A9087004F015F803F071FB02F03DFC03F031FA03F0B1
:2059C000B7F802F0F7FA02F06FFEFEF7C3F804F0EBFD1520019003F09DFE019803F0F2FE7A
:2059E0002C4804F01BFC62B6FFE702F0EFFB04F059FE0699401A052806D3FFE704F052FEDA
:205A0000069004F085F8FFE703A80078002816D1FFE704F047FE2049884210D3FFE7FFF756
:205A200041FB03F085F802F0C5FA04F03BFE059003A901200870194803F0CEFDFFE704F009
:205A400031FE0499401A0A2806D3FFE704F02AFE049003F0A9FDFFE703A80078002811D0D4
:205A6000FFE704F01FFE0599401A0A280AD3FFE704F018FE059002A800F008FA0598FEF775
:205A800075FBFFE704F00EFEFEF74AFC04F084FDABE7C0460000874070170000C2AB0000AD
:205AA00080B588B006AB187005A801700492394803900498002804D1FFE707A900200870B1
:205AC00064E003F0A7F8002807D1FFE733490620087007A90020087058E004F0C1F82E484D
:205AE000029005A90122019202F0F8FC019B029806A90978002202F02FFF02F0C7FA002847
:205B000005D0FFE703F086F8002804D1FFE707A9002008703AE006A801781F4801231A4602
:205B200002F01AFFFFE71C4804F064F900281BD0FFE7194804F024FC8007002806D5FFE7E1
:205B400004F08EF807A9002008701FE00398002806D1FFE704F084F807A90020087015E057
:205B60000398401E0390DEE70B4804F01DFC0499087002F08BFA002804D1FFE707A9002035
:205B8000087003E007A901200870FFE707A8007808B080BD8813000000200F40BF3A20201C
:205BA000B0B53A4A80184A6842600A78222A56D8930001A4E3589F46555C00005F5C000050
:205BC000555C00005F5C00005F5C00005F5C00005F5C00005F5C00005F5C00005F5C0000F7
:205BE0005F5C00005F5C00005F5C00005F5C00005F5C00005F5C0000455C00005F5C0000E7
:205C0000455C00005F5C00005F5C00005F5C00005F5C00005F5C00005F5C00005F5C0000C6
:205C20005F5C00005F5C00005F5C00005F5C00005F5C00005F5C0000455C00005F5C0000A6
:205C4000455C0000036803242407A343012464071B1903E0036803242407A34303600B69DF
:205C6000C360CB68C46A0A4D25400A4C1C402B19C3620368084C1C400460097A1143026809
:205C80003F239A43194051180160B0BD041800008888FDFF777702007F00FFFF80B584B037
:205CA0000390304803F098FC03982F490968401A01F00EF82D48019003F08EFC0021029146
:205CC0002B48405E01F004F8019803F085FC02992848405E00F0FCFF019803F07DFC03F02D
:205CE00041FE00F0F5FF019803F076FC03F04EFE00F0EEFF019803F06FFC02991E48405ED1
:205D000000F0E6FF019803F067FC1C48007800F0DFFF019803F060FC1948007800F0D8FF8D
:205D2000019803F059FC02F037FC00F0D1FF019803F052FC1348007800F0CAFF019803F0AB
:205D40004BFC1148007800F0C3FF019803F044FC02990E48405E00F0BBFF0D4803F03CFCF4
:205D600004B080BD8AB10000183A2020D7B10000743A2020943A2020763A2020D43A2020A3
:205D8000D53A2020DE3A2020E03A2020AC3A2020B8B1000080B588B00790079837490968DF
:205DA000884201D1FFE766E0079834490A68801A05900798086005981A2803D3FFE7192083
:205DC0000590FFE706A900200870FFE706A80078022850D8FFE706A8017806224A43284970
:205DE00089180491007802F073F8014603A80170007804990978884214D1FFE70498808866
:205E000005994018029002981E49884203D3FFE71D48019002E002980190FFE70198049954
:205E2000888006E0039804990870049900208880FFE704988088192804D3FFE7039804993F
:205E40004870FFE70498807800280BD1FFE704984078002806D0FFE706A800780799FEF733
:205E600053FDFFE7049948788870FFE70698401C06A90870AAE708B080BDC046DC392020AF
:205E8000A839202061EA000060EA000080B582B001906946002008700198002801D1FFE794
:205EA00063E0334800785D281BD1FFE731480078002816D0FFE7684604F002FB00280CD0CD
:205EC000FFE76846007803F083F82B4800780199087001990120487047E0264900200870AA
:205EE000FFE703F08FFD014621480170007800280CD1FFE7042001F009FC1F480078019926
:205F000008701E480078019948702EE0184800785D280CD0FFE7072001F0F8FB16480078CB
:205F20000199087015480078019948701DE0684604F0C6FA00280CD0FFE76846007803F0C6
:205F400047F80D480078019908700199012048700BE0052001F0DAFB074800780199087001
:205F60000648007801994870FFE702B080BDC046C13A2020CB3A2020D83A2020D33A20200F
:205F800080B5B6B036480290007848210491414334480390401800F07FFD02980399049AB5
:205FA000314B0A9303230B93A8230C9300780D900AA80590103004F081FB0399049A0598B7
:205FC0005830483104F07AFB059800222749895E329102F023FA3390EFF3108035903598A8
:205FE000089072B62248069003F0E0F906987F21890207910122520200F070FA06980799A5
:20600000402203F0DFFF014609A80170007803280DD1FFE70120400200907F20810214480C
:206020000AAA2A2301F0B4FB09A90870FFE70898002802D1FFE762B6FFE709A800780328DC
:2060400004D0FFE734A90020087004E0FCF7AAFF34A90870FFE734A8007836B080BDC046D9
:20606000533A20209037202031444950683A202000D00C4080B586B005902F480078002829
:2060800006D0FFE72D480088C0084B2801D3FFE750E02A4801900088162141432848401814
:2060A000049003F05FFC03A9088003F06FFC02A90880059823490968401A0021224A03F0E5
:2060C000F7F90499088021490888049A508020480288049B9A80039A049BDA80029A049BC7
:2060E0001A811C4A1288049B5A811B4A1288049B9A810988039A891A049AD18100880299EE
:20610000401A0499088203F06BFD009003F078FD01460098401A1149114A02F095FC04999D
:20612000488202F039FA0199049A90820888401C0880FFE706B080BDB83A2020963A202097
:2061400000002020183A2020FFFF0000743A2020943A20206C3A20208C3A20200080FFFF09
:20616000FF7F000080B582B00190304803F034FA0198008800F0ACFD2D4803F02DFA01982E
:206180000221405E00F0A4FD2A48009003F024FA01980421405E00F09BFD009803F01CFA15
:2061A00001980621405E00F093FD009803F014FA01980821405E00F08BFD009803F00CFAFF
:2061C00001980A21405E00F083FD009803F004FA01980C21405E00F07BFD009803F0FCF918
:2061E00001980E21405E00F073FD009803F0F4F901981021405E00F06BFD009803F0ECF931
:2062000001981221405E00F063FD0B4803F0E4F901981421405E00F05BFD084803F0DCF9D5
:20622000074803F0D9F902B080BDC0460FB10000B2B00000D7B10000C4AF00001FB0000069
:20624000B8B1000080B584B00390A02001F0E8FE002801D1FFE759E02D4803F0BDF9039870
:20626000C06900F035FD2B48009003F0B5F9039841782948294A01924C29029001D00198F3
:206280000290029803F0A8F90398808A00F020FD009803F0A1F90398006B00F019FD0098C3
:2062A00003F09AF903982421405E00F011FD009803F092F90398C08A00F00AFD009803F05F
:2062C0008BF90398806B00F003FD009803F084F90398006C00F0FCFC009803F07DF9039831
:2062E000006A00F0F5FC009803F076F90398008B00F0EEFC009803F06FF903984821405CC6
:2063000000F0E6FC064803F067F9FFE704B080BDA6B10000D7B10000CAB10000BBB100006D
:20632000B8B1000080B586B005AB187004A80180039228480078012803D0FFE7FEF736FC9E
:20634000FFE725490020087024490870214A01211170234908802349088005A800784C28DD
:2063600004D1FFE704981E49088010E005A80078522804D1FFE704981A49088006E0049884
:2063800017490880049817490880FFE7FFE703981549086003981549086000221048805EAB
:2063A0001049895E00F0E4FD114803F015F904F069F801460F48104A01920029029001D105
:2063C00001980290029803F007F90C4803F004F906B080BDD63A2020E33A2020E23A2020C5
:2063E0006C3A20208C3A2020183A2020E8392020BBAD000019B1000052B10000B8B1000020
:2064000089B007900691002005900121049103A90870079800782D2807D1FFE70020C04338
:2064200004900798401C079009E0079800782B2804D1FFE70798401C0790FFE7FFE7FFE7E4
:20644000079801780020302902900DDBFFE7079801780020009001203A29019001DB0098FA
:20646000019001980290FFE70298C007002818D0FFE703A90120087005981749884204DB38
:20648000FFE708A90020087022E005980A214143079800784018303805900798401C079081
:2064A000CEE703A80078002805D0FFE707980078002804D0FFE708A90020087008E0059959
:2064C000049848430699086008A901200870FFE708A8007809B0704701C2EB0BF0B583B035
:2064E00002920190304B314D00918C0A28680727384005262E60196889048A0F28602968A8
:2065000039402E6018682960002A214608D028490840511C02F020FE0146204602F01CFE13
:206520000198204A801801902A683A402E601E4803682A602A683A402E6003682A60012288
:2065400093020298984207D0530298420CD10098C30B0BD1019803E01F210C4001984030FC
:20656000A24001689143016003B0F0BDFF290DD82B683B402E600C4C24682B60A3049B0FD2
:20658000019800D12039CC08001DE9E71302FF339942E9D2FF23DB43C918CC0801980830D4
:2065A000DEE7C046D01100001800C44100134040FF0F000080B58CB00AA90591088000210E
:2065C00003912F48405E50210291DC2202F03CFA0299039A09AB18802A48805E8C2202F074
:2065E00033FA039A08A908804B21880007AB049318802548805EFA38C9001922520102F0FD
:2066000023FA03990246059806AB1A80405E02F0FBFF039A0499034605980380805E895E9F
:20662000884204DCFFE709980BA9088023E000220AA8805E06A9895E884204DBFFE7089873
:206640000BA9088017E0002308A8C15E019109A8C05E421A06A8C15E0AA8C05E081A504306
:2066600007AAD25E891A02F0FBF80146019840180BA90880FFE700210BA8405E0CB080BDEC
:20668000A43A2020AA3A20209E3A2020FCB40127FF07794002E0FCB40127FF070C024D00EE
:2066A0002D0E03D1002C52D1FCBC70473C43FF2D50D0A408002900D56442020243001B0E82
:2066C00004D1002A43D10800FCBC70473A43FF2B41D09208002800D552425E1B04D51700E4
:2066E00022003C0076422B00192E06D527003741D2191C27F71B7F42BC40002A27D002D5A3
:206700005242012700E00027013B5200FCD51500802635400FD01500202635402C43803257
:2067200008D21500402635402C4304D101263602B24300E05B1C5200023308DDFF2B0BD22D
:20674000500ADB051843FF073843FCBC70470020FCBC70470800C70FFF07FF20C0053843E2
:20676000FCBC704780B586B003F072FF002804D1FFE7304802F030FF49E003F051FF05A945
:206780000091088003F058FF04A90191088003F04DFF03A9029108801E4802F01DFF0098BD
:2067A000008800F095FA1C4802F016FF0098008802F058FF00F08CFA184802F00DFF019891
:2067C000008800F085FA164802F006FF0198008802F048FF00F07CFA124802F0FDFE0298CC
:2067E000008800F075FA104802F0F6FE0298008802F038FF00F06CFA0C4802F0EDFE03F0AF
:2068000021FF00F065FA0A4802F0E6FEFFE706B080BDC04669AD0000BCAF000089AF000049
:2068200064AE00009BAF0000B1AE000024AF000079AB000092AC000080B588B007900691CD
:2068400005A8027004A900200870FFE7079801780020002903900FD0FFE704A8017805A863
:2068600002780020019001209142029001DB0198029002980390FFE70398C007002841D0B2
:20688000FFE7FFE70798007802F0B2FF002804D0FFE70798401C0790F4E7079800780028E4
:2068A00001D1FFE72EE00798069A04A90B789B00D0500498401C0870FFE70798017800205A
:2068C0000029009008D0FFE70798007802F090FF414248410090FFE70098C007002804D0CC
:2068E000FFE70798401C0790E7E707980078002807D0FFE70799002008700798401C07908C
:20690000FFE7A3E704A8007808B080BD80B586B0059000200490642001F082FB002801D14E
:20692000FFE74BE00598808A002809D0FFE7059A906AD16A928A002303F0D6FD0490FFE765
