:200000000080202059A400004DA400004DA400000000000000000000000000000000000041
:200020000000000000000000000000004DA4000000000000000000004DA400004DA40000ED
:200040004DA40000498300004DA400004DA400004DA40000A57000004DA400004DA4000019
:20006000000000004DA400004DA4000000000000000000004DA40000B18000004DA400008B
:200080004DA400004DA400004DA400004DA400004DA40000A998000000000000000000006A
:2000A0004DA400004DA4000000000000000000004DA40000000000004DA400004DA400008B
:2000C00010B59CB01B901A911B9809F08CFA1B9815A9052206F06AFA014614A801700078A9
:2000E000002802D1FFE700F00AFF14A8007801280CD1FFE71598FC4907F042FA002805D0E4
:20010000FFE7FA4809F022F900F0F9FE14A8007802281CD1FFE71598FC4907F031FA00284F
:2001200015D0FFE7169813A906F090F800280ED0FFE7139800280AD4FFE71398F4498842D7
:2001400005DCFFE7139806F0F9FF00F0D7FE14A8007801280BD1FFE71598EE4907F010FA76
:20016000002804D0FFE709F013FA00F0C6FE14A80078012821D1FFE71598E74907F000FAE0
:2001800000281AD0FFE7E54900200D90087004F0C5F90D98E2490870E2490870E2490870C4
:2001A000E2490870E2490870E2490870E2490870E24809F0CBF800F09FFE14A800780128E3
:2001C0000CD1FFE71598DE4907F0DAF9002805D0FFE71A9805F070F900F08DFE14A800781C
:2001E00001280BD1FFE71598D64907F0C9F9002804D0FFE706F068FE00F07CFE14A80078B3
:2002000001280BD1FFE71598CF4907F0B9F9002804D0FFE706F098FA00F06BFE14A800788E
:2002200001280BD1FFE71598C84907F0A9F9002804D0FFE706F050F900F05AFE14A80078DF
:20024000022815D1FFE71598C04907F099F900280ED0FFE71698BE4907F092F9002807D047
:20026000FFE708F0B9FDBB4809F070F800F03FFE14A8007802281CD1FFE71598B64907F085
:200280007FF9002815D0FFE7B4480078002810D1FFE71698B24907F073F9002809D0FFE79D
:2002A00008F0EAFE002007F093FF03F0C1FD00F01DFE14A8007802281CD1FFE71598A6492C
:2002C00007F05EF9002815D0FFE7A4480078002810D1FFE71698A34907F052F9002809D0AD
:2002E000FFE708F0C9FE012007F072FF03F0A0FD00F0FBFD14A8007801280BD1FFE715988C
:20030000994907F03DF9002804D0FFE703F090FD00F0EAFD14A80078022842D1FFE7159891
:20032000924907F02DF900283BD0FFE7169813A905F08CFF002834D0FFE71398002830D4D9
:20034000FFE71398724988422BDCFFE783480078002826D1FFE7139810908548007800289A
:200360000CD0FFE7834800681099884206D1FFE710988149097808F0BBF910E008F07CFE57
:2003800005F024FD7C49087010987A4A1060784A012010701098097808F0AAF9FFE700F031
:2003A000A2FD14A8007801281DD1FFE715986F4907F0E6F8002816D0FFE7684800780028EF
:2003C00011D1FFE708F058FE05F000FD002804D0FFE76A4808F0BAFF03E0694808F0B6FF8F
:2003E000FFE700F07FFD14A8007801281DD1FFE71598644907F0C4F8002816D0FFE75748DA
:200400000078002811D1FFE702F032FE002806D0FFE75D4808F09AFF03F00AFD03E05B48B8
:2004200008F094FFFFE700F05CFD14A80078012811D1FFE71598564907F0A2F800280AD0FE
:20044000FFE746480078002805D1FFE71A9808F0A9FA00F045FD14A8007802281ED1FFE71A
:2004600015984C4907F08CF8002817D0FFE71698494907F085F8002810D0FFE72849012096
:2004800008702849002008701A9844490860444808F05CFF09F030FF00F021FD14A80078EB
:2004A00002281CD1FFE715983A4907F069F8002815D0FFE716983B4907F062F800280ED03B
:2004C000FFE71749002008701649012008701A9832490860344808F039FF00F0FFFC14A85E
:2004E000007802286ED103E04BAE000032AD00001598284907F044F8002863D0FFE7169820
:200500002A4907F03DF800285CD051E0F2AD0000FFFFFF7F14AE000046AE0000F03820207E
:20052000FF3A2020D33A2020D23A2020DA3A2020FE3A2020FD3A2020FA3A20202CAC00001A
:200540006AAD00009BAD0000CAAE0000B0AD0000C8AD0000FDA900001CAD0000F13A202018
:20056000D4AD000040AD0000B6AD000023AE0000E93A2020043A2020E83A202022AC0000C8
:20058000F7AB000055AE00004AAC0000B5AB000064AE000086AD0000EFAE0000103A2020F4
:2005A0007EAA00000AAE00001FAA00007EAE0000FE4900200870FE490870FE4808F0C6FEC6
:2005C00000F08BFC14A8007802285CD1FFE71598F94906F0D5FF002855D0FFE7169813A9DD
:2005E00005F034FE002809D0FFE71398002805D4FFE71398F149884204DDFFE7F04808F0B5
:20060000A5FE3EE0EF480078002810D0FFE71398EC49C96988420AD1FFE7EB4808F096FE20
:20062000139806F00FFAE94808F090FE28E0E8480078002806D0FFE71398E649C9698842EF
:2006400005D0FFE71398E44908F01CFB17E0E1480078012804D1FFE7DE4806F011F80DE06A
:20066000DC480078022804D1FFE7DA4805F010FD03E0DA4808F06AFEFFE7FFE7FFE7FFE7D8
:20068000FFE700F029FC14A80078042800D085E01598D34906F074FF00287FD0FFE716988D
:2006A00013A905F0D3FD002878D0FFE7179812A905F0CCFD002871D0FFE7189811A905F08D
:2006C000C5FD00286AD0FFE713988121C943884264DBFFE71398822860DCFFE7129832284D
:2006E0005CDBFFE7129819210901884256DCFFE71198002852D4FFE71198B04988424DDC9B
:20070000FFE711980F90B748007800280BD0FFE7B54800680F99884205D1FFE70F98B34915
:2007200008F068FA39E0B248007805280AD0FFE7AF48007806282AD1FFE7AE4800780028D3
:2007400025D1FFE7AC480078002808D0FFE70021AA48405E08F012FE052805DBFFE70F9818
:20076000A74908F047FACAE31398A64908801A9812994018A44908600F989B4908609949A2
:20078000012008700F98994908F034FA04E00F989B4908F02FFAFFE7FFE79CE314A8007802
:2007A000032851D1FFE715988D4906F0E9FE00284AD0FFE7169813A905F048FD002843D09F
:2007C000FFE7179812A905F041FD00283CD0FFE713988121C943884236DBFFE7139882280D
:2007E00032DCFFE7129832282EDBFFE7129819210901884228DCFFE77F480078002823D016
:20080000FFE700217D48405E08F0B8FD04281BDCFFE77748007805280AD0FFE77448007860
:20082000062811D1FFE77348007800280CD1FFE71398744908801A981299401872490860DC
:20084000724808F083FD45E314A80078032838D1FFE715986E4906F093FE002831D0FFE7F6
:20086000179813A905F0F2FC00282AD0FFE71398002826D4FFE713989B218900884220DCB9
:20088000FFE71698634906F07BFE00280ED1FFE71698614906F074FE002807D1FFE7169868
:2008A0005E4906F06DFE00280BD0FFE74548002202701698007813A9895E1A9A05F058FC60
:2008C00007E314A80078052855D1FFE71598544906F056FE00284ED0FFE716984D4906F0C7
:2008E0004FFE002807D1FFE716984B4906F048FE002840D0FFE7179813A905F0A7FC0028FE
:2009000039D0FFE7189812A905F0A0FC002832D0FFE7199811A905F099FC00282BD0FFE7DE
:200920001398002827D4FFE713989B218900884221DCFFE712987D21C90088421BDBFFE7AF
:2009400012987D210901884215DCFFE71198002811D4FFE71198194988420CDCFFE71698B7
:200960000078002213A9895E129A119B1A9C009406F014F9ACE214A80078052800D092E064
:200980001598284906F0FCFD002800D18BE01698204906F0F5FD002846D1FFE716981E49AD
:2009A00006F0EEFD00287ED03EE0C046FF3A2020D33A202050AA000004AD0000FFFFFF7FCF
:2009C0000EAA0000F0382020B6AE0000E0AE0000EC3A2020A0382020ECAC000060AA0000E5
:2009E00028AE0000E73A2020F8392020E6AE0000F13A2020FB3A2020F03A2020903A202067
:200A000082AE0000943A2020243A202018AC000076AE0000F5AE0000F7AE0000F9AE000023
:200A200067AC00005EAC0000179813A905F00EFC002838D0FFE7189812A905F007FC00288E
:200A400031D0FFE7199811A905F000FC00282AD0FFE71398502826DBFFE713984B21C90061
:200A6000884220DCFFE712987D21890088421ADBFFE71298FD49884215DCFFE711980028F2
:200A800011D4FFE71198FA4988420CDCFFE716980078002213A9895E129A119B1A9C00947A
:200AA00006F0CEF813E214A8007804282BD1FFE71598F04906F064FD002824D0FFE7179855
:200AC00013A905F0C3FB00281DD0FFE7189812A905F0BCFB002816D0FFE71298002812D4E9
:200AE000FFE71298E24988420DDCFFE71698139901F06AFE002806D0FFE712981699139A05
:200B000007F0D2FCE2E114A8007803281BD1FFE71598D84906F034FD002814D0FFE7179886
:200B200013A905F093FB00280DD0FFE71698139901F04AFE002806D0FFE7CF4808F006FC03
:200B400003F076F9C1E114A80078042852D1FFE71598F14906F014FD00284BD0FFE7169863
:200B6000EA4906F00DFD002807D1FFE71698E84906F006FD00283DD0FFE7179813A905F009
:200B800065FB002836D0FFE7189812A905F05EFB00282FD0FFE7139850282BDBFFE7139861
:200BA0004B21C900884225DCFFE712987D21890088421FDBFFE71298D64988421ADCFFE765
:200BC000E94900200A90087016980178022003220B924C290C9001D00B980C900A9C0C983B
:200BE00013A9095F129A1A9B01940124009403F0C5FE69E114A8007803284AD1FFE7159815
:200C0000C64906F0BDFC002807D1FFE71598C44906F0B6FC00283CD0FFE7169813A905F055
:200C200015FB002835D0FFE7179812A905F00EFB00282ED0FFE7139850282ADBFFE7139864
:200C40004B21C900884224DCFFE712987D21890088421EDBFFE71298AE49884219DCFFE7EF
:200C60001598AF4906F08CFC01460520042208920029099001D1089809900998002413A9D7
:200C8000095F129A1A9B01940124009403F076FE19E114A80078042800D081E01598A149B4
:200CA00006F06EFC00287BD0FFE7169813A905F0CDFA002874D0FFE7179812A905F0C6FAE4
:200CC00000286DD0FFE7189811A905F0BFFA002866D0FFE71398502862DBFFE71398E1217A
:200CE000490088425CDCFFE71298012858DBFFE712980A2854DCFFE71198002850D4FFE70A
:200D00001198804988424BDCFFE711980E9090480078002817D0FFE78E4800680E9988424F
:200D200011D1FFE70E9805908B4801788B488C4A06920029079001D106980790059807991F
:200D400007F07CFF2BE070480078002805D0FFE70E98844907F072FF20E0002113A8405EAE
:200D600012A909781A9A02F02BFB01467A4801700E99784A1160764A012111700E9902917A
:200D800001787648764A03920029049001D1039804900298049907F051FFFFE7FFE791E04E
:200DA00014A80078032837D1FFE715985D4906F0E7FB002830D0FFE7169813A905F046FA0E
:200DC000002829D0FFE7179812A905F03FFA002822D0FFE7139850281EDBFFE71398E121C5
:200DE0004900884218DCFFE71298012814DBFFE712980A2810DCFFE7002113A8405E12A97B
:200E000009781A9A02F0DCFA002804D1FFE74F4808F09CFAFFE754E014A8007803284BD138
:200E2000FFE71598404906F0ABFB002844D0FFE7169813A905F00AFA00283DD0FFE71798AB
:200E400012A905F003FA002836D0FFE71398502832DBFFE713984B21C90088422CDCFFE723
:200E600012987D218900884226DB07E0983A0000FFFFFF7FA6AE00009DAC000012982549EC
:200E8000884219DCFFE720480078002814D1FFE71398274908801298264908602649012026
:200EA00008702649002008702549087025490870254808F04BFA03E01C4808F047FAFFE7D7
:200EC000FFE7FFE7FFE7FFE7FFE7FFE7FFE7FFE7FFE7FFE7FFE7FFE7FFE7FFE7FFE7FFE7B2
:200EE000FFE7FFE7FFE7FFE7FFE7FFE7FFE7FFE7FFE7FFE7FFE7FFE7FFE7FFE7FFE71CB0AC
:200F000010BDC046FFFFFF7FF13A2020F5AE0000F7AE0000983A000050AE0000D6AE00007B
:200F20003CAE000078AD0000AAAE000052A800006C3A2020BC392020FE3A2020FD3A202046
:200F4000FF3A2020D23A2020CAA600006CA70000EB3A20200C3A2020EA3A2020E6AE000066
:200F600082AE000069AE0000F038202010B5AEB02C9026A90020087025A9087024A90870F1
:200F800023A9088022A9087021A90870F748007806280AD1FFE7F6480078002805D0FFE739
:200FA000F3480078042805D1FFE72DA90020087000F0E5FD2C98EF490968401A2B90EC48A0
:200FC0000078012849D1FFE7EB490A88EB4802800A88EB490A80EB4A1388EB4C2380128861
:200FE000EA4B1A800022805E895E05F0CDFE2B9832282DD3FFE709F0B9F9002808D1FFE7E6
:20100000E34807F0C3FF2DA90120087000F0B7FD09F0E6F8DF4900201C900880DE490880D7
:20102000DE490120087008F009FCDD49086008F017FC01461C98DB4A1160DB490880DB49F9
:201040000870CB49022008702C98CA490860FFE72DA90120087000F092FD09F087F90028B6
:2010600004D1FFE7CD4900200870FFE708F0E6FBCB490968401A289008F0F2FBC949096849
:20108000401A27902898002804D5FFE7289840422890FFE72798002804D5FFE727984042D1
:2010A0002790FFE7289827994018C10F40184008BD49088009F0A2F97F210840BC490870C4
:2010C000BC48007801280ED1FFE7B948007824A904F060F923A908802398B74908802498C0
:2010E000B6490870FFE7B6480078002820D1FFE7AF48007807F0A3FF00280BD1FFE7B14833
:201100000078FF2805D0FFE7AE490878401C0870FFE703E0AB4900200870FFE7A948007886
:20112000022804D3FFE7A64901200870FFE72EE09F48007807F083FF25A908709D480078D1
:20114000012804D1FFE725A900200870FFE700229548805E9C49895ECA0F89184910884219
:2011600010DBFFE725A8007800280BD0FFE797480078FF2805D0FFE794490878401C087006
:20118000FFE703E0914900200870FFE7FFE709F0EDF8002835D0FFE708F056FD01462AA8F3
:2011A00001800021405E002805D5FFE72A9840422AA90880FFE779480078002811D0FFE75A
:2011C0002A9875490988401A00B208F0D7F8C82807DCFFE72A98704908802A986D4908806F
:2011E0000EE02A986C490988401A00B208F0C6F8C92804DBFFE7694900200870FFE7FFE76B
:20120000FFE72C985B490968401A2B9069480078012800D055E32C986D490968401A2090AB
:201220005E48007800280FD0FFE700215948405E6849884208DBFFE7674807F0A7FE2DA9DE
:201240000120087000F09BFC2098C009192808D3FFE7624807F09AFE2DA90120087000F053
:201260008EFC43480078022805D0FFE740480078032800D07DE124A80078002827D0FFE75A
:20128000002123A8405E0A2821DBFFE743480078002808D0FFE700213E48405EFF21F4313D
:2012A000884210DCFFE73D48007800280FD1FFE700223D48805E4449895ECA0F89184910DB
:2012C000884204DBFFE7464901200870FFE744480078002825D0FFE724A80078002820D10D
:2012E000FFE72E480078002807D0FFE700212948405E3C49884210DCFFE7284800780028D4
:201300000FD1FFE700222848805E81002E48825E03205043884204DCFFE733490120087065
:20132000FFE727480078002800D195E024A80078002800D190E0002123A8405E002800DD36
:201340008AE016480078002869D0FFE711490020095E264A91421B905BDBFFE72248017838
:20136000012000291A9051D142E0C046F13A2020FB3A2020503A2020C43A2020863A202047
:20138000A63A2020BC3A20208E3A2020AE3A2020B7AA0000C83A2020C03A2020063B202069
:2013A0005C3A2020603A2020C63A2020013B2020EF3A20206B3A2020903A2020F03A2020FF
:2013C000053B2020043B2020BA3A2020033B2020543A20207F0400006BA80000E7A700006A
:2013E000E23A202089020000E33A2020EE020000FD4800211891415EFC4A01209142199028
:2014000001DC1898199019981A90FFE71A981B90FFE71B980121084022A908701BE0F4487B
:2014200001780120002917900FD1FFE7F14800221592815EF048825E01209142169001DA0E
:201440001598169016981790FFE717980121084022A90870FFE7FFE722A8007800280BD091
:20146000FFE7E6480078FF2805D0FFE7E3490878401C0870FFE703E0E04900200870FFE70E
:20148000DE480078032804D3FFE726A901200870FFE7DB48007800280AD0FFE70022D248B9
:2014A000815ED848825E01209142149019DAFFE7D34801780020002913900FD1FFE7CD4881
:2014C00000221192815ECC48825E01209142129001DA1198129012981390FFE71398149036
:2014E000FFE714990120014021A80170007800283ED0FFE726A80078002839D1FFE7C249C0
:2015000003200870C1480078002830D1FFE7BF4901200870BE4807F019FFBE480078401C10
:2015200005F090FABC480F9007F010FF00211091AD48405E05F086FA0F9807F007FF10996C
:20154000AC48405E05F07EFA0F9807F0FFFEB348007805F077FA0F9807F0F8FE109923A810
:20156000405E05F06FFAAE4807F0F0FEFFE7FFE7FFE7A5480078052800D0A0E008F0ACF864
:2015800007F0FCFE1FA9088008F0BAF807F0F6FE1EA90880A34900200880A3490880A34932
:2015A0000880A349088007F067FD2B98782817D3FFE700211FA8405E0F2811DCFFE70021F0
:2015C0001EA8405E0F280BDCFFE79A480078FF2805D0FFE797490878401C0870FFE703E06A
:2015E000944900200870FFE792480078032859D3FFE706F02FFC08F0CDF98F4908608F480B
:201600000078002809D0FFE78D4800688D4908618D4800688D49086102E008F01DFEFFE798
:201620008B4900200E9008708A49087008F092F98949086008F09EF901460E98874A1160DA
:2016400087490860874908602C99874A11602C99864A1160864908802399864A11808649CA
:2016600008808649088024A80078002807D0FFE7002123A8405E07F081FE0D9002E080481B
:201680000D90FFE70D987F4908802C987E4908605D49062008702C987C4908602DA90120B3
:2016A00008706CE22B984008E12804D3FFE7784807F06CFCFFE72DA9012008705FE2524844
:2016C0000078062800D0FBE024A80078002807D0FFE7002123A8405E07F050FE0C9002E043
:2016E00067480C90FFE70C981DA9088024A8007800280FD0FFE700221DA8805E6149895E40
:20170000884207DAFFE71D985E4908802C985E490860FFE724A80078002825D0FFE73F48CD
:20172000007807F08CFC00281ED0FFE700211DA8405E062818DCFFE731480078002808D039
:20174000FFE700212848405EAF21890088420BDBFFE750480078FF2805D0FFE74D4908787D
:20176000401C0870FFE703E04A4900200870FFE748480078052800D292E0474901200B90F6
:201780000870464807F0E2FD22480078401C05F059F92148099007F0D9FD00210A91124803
:2017A000405E05F04FF9099807F0D0FD0A99F948405E05F047F9099807F0C8FDF64800781F
:2017C00005F040F9099807F0C1FD0A9923A8405E05F038F9F84807F0B9FD2C9801F07EFA39
:2017E0000B982DA90870CAE1C83A20201F030000E33A2020C63A2020BA3A2020E43A2020BA
:20180000063B2020B83A2020FB3A2020E53A2020F9AA0000F93A2020FBAE0000EF3A202019
:20182000E0AE0000863A2020A63A20208E3A2020AE3A2020DD3A2020083A2020E13A202096
:20184000E839202080392020EC39202094392020DE3A2020E03A2020CC392020D03920207C
:20186000DC392020E4392020D8392020E03920209C3A20209A3A2020923A2020983A2020C4
:20188000FF7F0000763A2020D4392020503A202004A80000023B2020013B2020DFAA000095
:2018A0002B98DB49884207D3FFE7DA4807F06EFB2DA90120087062E12DA9002008705EE1D6
:2018C000FFE7B8480078032827D3FFE7B048007800280CD0FFE70021B348405E7D21890064
:2018E000884204DBFFE726A90120087014E0A848007800280FD1FFE70022A648805E810038
:20190000A748825E03205043884204DCFFE726A901200870FFE7FFE7FFE7A048007801280F
:2019200071D1FFE72B98DC286DD3FFE726A80078002868D0FFE724A80078002863D0FFE781
:2019400022A8007800285ED0FFE797480088A949039108808F480088A749049108808E4852
:201960000078A649059108702398A54908910880A449002007900870834A052111702C99D3
:20198000824A1160A049088096490880964908808D4908808D4908808D4908808D49088053
:2019A00007F06AFB08F058FC984807F0CFFC80480078401C05F046F87E48069007F0C6FCF9
:2019C00003980799405E05F03DF8069807F0BEFC04980799405E05F035F8069807F0B6FC72
:2019E0000598007805F02EF8069807F0AFFC07990898405E05F026F86F4807F0A7FC2DA95F
:201A000001200870BBE02B98C008AF280CD3FFE762480078012807D0FFE7754807F0B6FAFF
:201A20002DA901200870AAE02B98DC2856D3FFE75A480078012851D0FFE726A8007800281F
:201A40001AD1FFE752480078002808D1FFE700225048805E5249895E88420DDAFFE74C4877
:201A6000007800283AD0FFE700224F48805E4F49895E884232DBFFE72698574908704249A2
:201A8000042008702C984149086054490020029008705349088053490880534908804A492E
:201AA00008804A4908804A4908804A49088007F0E3FA08F0D1FB3E480078401CC0B24B4955
:201AC00009788906090E884204DBFFE72C9801F005F9FFE72DA90120087050E02A4800782E
:201AE000022823D1FFE72B98DC281FD3FFE72848007800280CD0FFE700212B48405E2B49CB
:201B000009882E4A1288891A09B288420ADAFFE700212048405E22490988193909B2884236
:201B200004DBFFE7184903200870FFE716480078022805D1FFE700212248405E019004E0A4
:201B400000211F48405E0190FFE7019829A90880299841421C480180299A1C490A80299A57
:201B600052421B4B1A80299A1A4B1A800022805E895E05F009F92DA901200870FFE72DA807
:201B800000782EB010BDC046FB3A2020503A2020063B2020C63A2020EF3A20206B3A2020CE
:201BA000BA3A2020033B2020C83A2020B83A2020F93A2020FBAE0000E0AE0000C23A202019
:201BC000C43A2020BE3A2020863A2020A63A20208E3A2020AE3A2020013B2020023B202046
:201BE0009A3A2020923A2020983A2020FC3A2020ECAA00007C3A20207A3A2020DC3A202067
:201C0000783A2020DD3A20209C3A2020A9AA000098080000CAA70000B0B5D2B0519007F042
:201C2000B9FE5090FC480078022816D0FFE7FE480078032811D0FFE7FB48007804280CD0E8
:201C4000FFE7F9480078052807D0FFE7F6480078062802D0FFE700F080FD5098F34909685D
:201C6000884202D1FFE700F078FD5098EF4908605198FFF77BF9002802D0FFE700F06DFD67
:201C8000E9480078022809D1FFE7E9480088E9490880E9490020088000F02DFDE2480078A8
:201CA000032809D1FFE7E34900200880E0480088E149088000F01EFDDB480078052806D05A
:201CC000FFE7D9480078062801D000F08BFCD84800884DA908805198D8490968401A48903C
:201CE000D74847904B20C00046A90880D54801780020012928900DD1FFE7CD480021269103
:201D0000415E0120C929279001DB2698279027982890FFE728980121084045A90870C9480B
:201D200001780020012925900DD1FFE7BE48017800200629259006D1FFE7C3480078414221
:201D400048412590FFE7259A0120024044A90A7009780029249018D1FFE7BA48017800200E
:201D6000012923900ED1FFE7AF48017800200629239007D1FFE7B4480078801F4142484172
:201D80002390FFE723982490FFE724980121084043A9087042A91920088041A9088040A9C4
:201DA0000A200880A048007806280CD1FFE7A6480078042807D1FFE742A91920088041A93A
:201DC0003220088026E098480078062821D1FFE79D48007806281CD1FFE742A92D200880A7
:201DE00041A94120088040A905200880519897490968401A000919280AD3FFE742A93C2092
:201E0000088041A94B20088040A908200880FFE7FFE7FFE745A8007800280ED0FFE78248F7
:201E20000078062809D1FFE789480078002804D1FFE77D20C0004790FFE78248007801288B
:201E40000FD1FFE77848007806280AD1FFE77E480078062805D1FFE74B20000146A908808A
:201E6000FFE771480078062819D1FFE776480078042814D1FFE7774800884DA908807148A2
:201E8000007801280AD1FFE700214DA8405E652804DBFFE74DA964200880FFE729E062483F
:201EA0000078062813D1FFE76748007806280ED1FFE7684801884DA801800021405E65289D
:201EC00004DBFFE74DA964200880FFE710E04898479988420BD2FFE700215548415E4898DB
:201EE0004843479906F098FF4DA90880FFE7FFE7FFE708F083FA01467F200140564801700F
:201F0000007849A903F046FA5449088049985449087044A80078002851D0FFE749A800780D
:201F200000284CD0FFE7002121914C48405E07F025FA219902463FA8229002803C4A12881F
:201F40003EAB1A80415E03204843193019214B2206F0F6FB21990246229842AB1A80429ABB
:201F600041AB1A80405EC10F401840100A300A210F2206F0E5FB21990246229840AB1A8018
:201F8000405E05281ADBFFE7002120912848425E3FA8405E8000101A1030502106F0D0FB18
:201FA000209A3EA908804DA8805E895E884204DDFFE73E984DA90880FFE7FFE7FFE71A4845
:201FC0000078062800D0F4E01F480078002800D0ADE005F0D9FF234908801A48007801288F
:201FE00058D1FFE708F0C2F9002853D0FFE707F02BFE01463DA801803CAA1F92FA211180DE
:2020000000211E91405E07F0B9F91E9A1F99895E884231DB02E0C046F13A20201248007857
:20202000FF2828D022E0C046F13A2020083A2020B63A20208E3A2020AE3A2020303A202082
:20204000DC0500006B3A2020FB3A2020D4392020F93A2020BC3A2020EF3A2020903A2020DC
:20206000F03A2020743A2020DF3A2020FC490878401C0870FFE703E0F94900200870FFE78D
:20208000F7480078032804D3FFE7F64806F07EFF63E303E0F24900200870FFE70022F248B2
:2020A000805EF249895E884206DAFFE7F04900200870F049087039E0ED480078072811D830
:2020C000FFE7ED48007805F093FB002805D0FFE7E7490878401C087003E0E54900200870DA
:2020E000FFE722E0E448007805F079FC00280BD0FFE7E0480078FF2805D0FFE7DD490878D9
:20210000401C0870FFE703E0DA4900200870FFE7D8480078022807D3FFE7519802F076FBB3
:202120005198FEF723FF18E3FFE7FFE740E0D348007804283BD1FFE75198D1490968401A39
:202140003B903B98782812D3FFE7CB48007805F04FFB00280BD0FFE7CA480078FF2805D03D
:20216000FFE7C8490878401C0870FFE703E0C54900200870FFE7C348007803280CD3FFE74C
:20218000519800F0ABFD002801D0FFE7E5E2BE4800884DA9088009E03B984009192804D3EF
:2021A000FFE7BA4806F0F2FED7E2FFE7FFE7FFE7FFE749A80078002800D14AE1B4481C90CB
:2021C00000211B91405E07F0D9F81B993AAA19921080B0481A90405E07F0D0F81B990246FE
:2021E0001C9839AB1A8038ABA0221A80008836AA108035AA08201080A74800683490A748D5
:20220000006833904DA8415EFF225432012091421D9001DC1B981D901B9A1A991C981D9BA6
:2022200032AC237000880988401A4AA9189108809B481790805E4000895E4018032106F095
:202240008BF9179A189B1B9904461998148012881A80405E022805DCFFE736A90020088009
:2022600034902EE000213AA8405E042806DCFFE73498C10F40184010349021E000213AA8EB
:20228000405E0A281BDBFFE743A80078002815D1FFE732A80078002809D0FFE73499052010
:2022A0004843C117890F40188010169003E0349840001690FFE716983490FFE7FFE7FFE7F6
:2022C000FFE700223AA8805E39A9895E884208DAFFE7339903204843C10F40184010339026
:2022E00008E0339903204843C117890F401880103390FFE700213AA8405E022803DCFFE7EB
:2023000000203390FFE732A8007800282ED0FFE700213AA8405E042812DCFFE738A92D20C7
:20232000088000213AA8415E0A20052214920329159001DB14981590159835A9088014E077
:2023400000213AA8405E0A2807DBFFE738A97D20088035A91220088006E038A95A2008807B
:2023600035A908200880FFE7FFE723E000213AA8405E042812DCFFE738A92D200880002188
:202380003AA8415E0A20052212920329139001DB12981390139835A908800AE000213AA8D1
:2023A000405E0A2804DBFFE735A912200880FFE7FFE7FFE743A80078002819D0FFE70022C2
:2023C00038A8805E42A9895E884204DDFFE7429838A90880FFE7002235A8805E40A9895E06
:2023E000884204DDFFE7409835A90880FFE7FFE734990023119336A8C05E4843339A4AA967
:20240000C95E514340187D21C90006F0A5F8119A38A98A5E514209B206F092F9119B014679
:2024200037A80180C05EDC491091CA5E35A9CB5ED11AD21809B212B206F082F9109A014673
:2024400011981180D1490988D84A1180D04908805CE0CF480088CF49884228D822E0C0467E
:20246000DF3A20203CA90000743A2020703A2020D73A2020D83A2020EF3A2020FB3A2020C5
:20248000503A2020023B2020B63A2020C7A90000903A20209A3A2020283A2020203A2020FB
:2024A000923A2020BA4908880A300880FFE7B848008846A90988884213DBFFE7A8480078C7
:2024C000062804D1FFE7B84806F060FD08E002F025F8B34900200870B24806F037FFFFE729
:2024E0003BE1AB48008864280FD3FFE7AA4800210180AA4801804DA8405E652804DBFFE705
:202500004DA964200880FFE7FFE7FFE7A24800884BA908800021A648405E002816D0FFE778
:20252000A44800685199401A01280FDBFFE700224BA80F90805E9E49895E40189F21C94386
:20254000A02206F0FDF80F99088005E098490020088098490860FFE743A8007800280DD099
:20256000FFE700224BA80E90805E41A98A5E514209B206F0E5F80E990880FFE74D991439A9
:202580004CA801800021405E002804D5FFE74CA900200880FFE700220B924BA80A90805E73
:2025A0004CA98A5E514209B206F0CAF80A9A0B9910804DA80D90405E525E80184B22D200A9
:2025C0000C9206F0BDF80A9B0B990C9A04460D986C4D2C80405E5B5EC01A06F0B1F86A49EC
:2025E000088086E05F48008831A9088007F0B2F9089007F0BFF901460898401A309007F07B
:20260000A9F9099007F0B6F9014609984018C10F401840102F902F9900225348805E484374
:20262000524905F099FF2E9030982E99401A2D9051984F490968401A299029984D498842E8
:202640000BD8FFE700214748415E299848434A4906F0E2FB31A90880FFE7002131A8405ED0
:20266000C20F801842082BA80280405E3D2804DBFFE72BA93C200880FFE7404800682A9042
:2026800029983C49884208D8FFE72A98400000213B4A06F0C7FD2A90FFE72A992D9848434F
:2026A0007D21C90005F058FF002205922BA98A5E514209B206F044F805992CAA04921080D8
:2026C00031A80790405E525E801A4B22D200069206F036F8049B0599069A04460798294D6B
:2026E0002C80405E5B5EC01806F02AF826490880FFE7FFE7FFE704F0FFF906F0EDFF4FA978
:202700000191088006F0FCFF014601984EAA03921180002202921B49895E825E264802F06F
:202720000BFD029A01460398244B19801649895E825E234802F000FD22490880519800F0BF
:20274000B1FF002801D0FFE707E000221B48805E1C49895E04F018FBFFE752B0B0BDC046F2
:20276000F13A2020B63A2020A43A202010270000303A2020DB050000DC050000583A20202C
:20278000881300008E3A2020AE3A2020903A2020983A20205FEA00009C3A2020923A2020E7
:2027A000FF3A202027A9000054AC00009A3A2020943A2020243A202080392020863A202017
:2027C00094392020A63A202080B584B0029001916946012008700298FD4904F0D1FE00282C
:2027E00011D0FFE70198002805D4FFE70198FD49884204DBFFE703A9002008701CE2019849
:20280000FB4908600CE20298FA4904F0B9FE002811D0FFE70198002805D4FFE70198F14954
:20282000884204DBFFE703A90020087004E20198EF494860F3E10298EF4904F0A1FE002805
:2028400011D0FFE70198002805D4FFE70198E549884204DBFFE703A900200870ECE1019831
:20286000F7490860DAE10298F74904F089FE002811D0FFE70198002805D4FFE70198D94976
:20288000884204DBFFE703A900200870D4E10198EB494860C1E10298EC4904F071FE00283F
:2028A00011D0FFE70198002805D4FFE70198E549884204DBFFE703A900200870BCE1019801
:2028C000CB498860A8E10298E14904F059FE002811D0FFE70198002805D4FFE70198D9493A
:2028E000884204DBFFE703A900200870A4E10198F84988608FE10298D64904F041FE00283A
:2029000012D0FFE70198002806D4FFE70198FF21C431884204DBFFE703A9002008708BE181
:202920000198ED49888175E10298CB4904F028FE002812D0FFE70198002806D4FFE7019897
:20294000FF21C431884204DBFFE703A90020087072E10198DF4988815BE10298BF4904F0A0
:202960000FFE002811D0FFE70198002805D4FFE70198D649884204DBFFE703A90020087050
:202980005AE10198D249086042E10298B44904F0F7FD002812D0FFE701984F21C94388426F
:2029A00004DBFFE70198512804DBFFE703A90020087041E10198C449088028E10298A94952
:2029C00004F0DEFD00281AD0FFE7B848007801280AD1FFE701982221C943884204DBFFE757
:2029E0000198242804DBFFE703A90020087023E10198B449088069460020087006E10298FF
:202A0000994904F0BDFD002822D0FFE70198002805D4FFE70198A349884204DBFFE703A9E6
:202A20000020087008E10198A54908609F48007801280CD1FFE79E49002008809D490880DE
:202A40009D4909889D4A118069460870FFE7DCE00298864904F094FD002822D0FFE7019837
:202A6000002805D4FFE701988E49884204DBFFE703A900200870DFE001988B4908608B48C5
:202A8000007801280CD1FFE78949002008808949088089490988894A118069460870FFE72A
:202AA000B2E00298724904F06BFD002813D0FFE70198AF218900884205DBFFE70198774907
:202AC000884204DBFFE703A900200870B4E001987349088097E00298664904F051FD002888
:202AE00019D0FFE7019864280DDBFFE701984B218900884207DCFFE7019800226649895EA2
:202B0000884204DAFFE703A90020087094E001986049088076E00298574904F031FD0028CB
:202B200017D0FFE7019850280BDBFFE70198FA2807DCFFE7019800225649895E884204DD7B
:202B4000FFE703A90020087076E001985249088057E00298494904F013FD002812D0FFE7E2
:202B60000198322806DBFFE70198FF216031884204DBFFE703A9002008705DE0019844491B
:202B800008803DE002983E4904F0FAFC002810D0FFE70198502804DBFFE70198FB2804DB26
:202BA000FFE703A90020087046E001983749088025E00298334904F0E3FC002814D0FFE744
:202BC0000198322806DBFFE701988D2806DB01E0C2AE000003A9002008702DE001982A495E
:202BE00008800BE0B90B000003A90020087023E080392020A2AE0000D2AE0000FFE7FFE7C2
:202C0000FFE7FFE7FFE7FFE7FFE7FFE7FFE7FFE7FFE7FFE7FFE7FFE7FFE7FFE7FFE7FFE754
:202C200068460078002803D0FFE707F015FBFFE703A901200870FFE703A8007804B080BD61
:202C400094392020E90300009AAE000072AE00008AAE000032AE00005FAE00000FAE000031
:202C600019AE0000A2AD000094AD000024AD000036AC000082AC000070AC0000E1AB000074
:202C8000B8AC0000A6AC0000BA3A2020BC3A2020C23A2020BE3A2020C43A20204D04000011
:202CA000B83A2020214E0000203A20206B3A20209C3A2020923A2020903A20209A3A2020B4
:202CC000283A2020823A2020A43A202089130000583A2020943920208039202080B58CB053
:202CE0000A90B048008809A90880AF480078012832D1FFE70021AD48405E01282CDBFFE735
:202D0000AA48008809A90880A9480078002822D0FFE7A848007800281DD0FFE70021A64824
:202D2000405EAF218900884215DBFFE70021A248405EA24988420EDCFFE70023A049CA5E9A
:202D4000032050439C4AD25E8018801C820F801880080880FFE7FFE79548007800281AD007
:202D6000FFE7002109A8405E322814DBFFE7002109A8405E8C280EDCFFE700239149CA5EB5
:202D80000320504309AAD25E8018801C820F801880080880FFE78C490878401C0870824854
:202DA000007801281DD1FFE7884806F0CFFA8648007803F047FE8648079006F0C7FA002154
:202DC00008917F48405E03F03DFE079806F0BEFA08997C48405E03F035FE7E4806F0B6FAE5
:202DE000FFE77D4806F0B2FA77480690007803F029FE7748059006F0A9FA00216E48405E3D
:202E000003F020FE059806F0A1FA0A9873490968401A03F017FE6F4806F098FA06980078ED
:202E20006F4909788900C9B2884252DBFFE701F075FB864900200870854908705A48007850
:202E4000012815D1FFE7834806F080FA002104915B48405E03F0F6FD7F4806F077FA04999A
:202E60005848405E03F0EEFD5A4806F06FFAFFE77A4806F06BFA00215248405E03F0E2FD07
:202E80005448039006F062FA754806F05FFA4E48007803F0D7FD039806F058FA42480078EB
:202EA000012804D1FFE7714806F050FA0DE002F08DFF002804D0FFE76B4806F047FA03E01B
:202EC000684806F043FAFFE7FFE70BA90120087064E044490020029008700A984249086066
:202EE00006F0ACFC4149086006F0BAFC014602983F4A11603F4908803F4908703F490870AB
:202F00003F4908703F4800883F49088026480078012829D1FFE73D490020019008803C495F
:202F200008803C4908703C4908703C49087006F011FD3B49086006F01DFD01460198394AAF
:202F4000116039490860394908600A98384908600A983849086007F009FA002803D0FFE73B
:202F600007F03EF9FFE7FFE70F48007801280ED1FFE731480078002809D0FFE72F480068E3
:202F80002F4908612F4800682F49086102E007F063F9FFE70BA900200870FFE70BA8007818
:202FA0000CB080BDC63A20206B3A20207A3A2020013B2020063B2020C83A20204C04000070
:202FC000B83A2020BA3A2020F93A202043AB0000FBAE0000E0AE000094AB0000543A2020E6
:202FE000FC3A2020FB3A2020503A2020C0392020C4392020743A2020D73A2020D83A202015
:20300000023B2020903A20209A3A20209C3A2020923A2020DF3A2020DE3A2020E03A2020E8
:20302000CC392020D0392020DC392020E4392020D8392020E0392020E13A2020E8392020EA
:2030400080392020EC39202094392020FF3A2020D33A20201FA80000ECAB00009DA800009C
:2030600006AB0000CEA8000051A9000049A7000080B5E4B07F208002629061906298006810
:20308000BD49884246D1FFE762984068032841D1FFE77F2080024C904C9922A8A82207F031
:2030A000CBF92498A82810D1FFE74B98089022A805F05EF801460898884206D1FFE722A831
:2030C00004F050FC002804D1FFE763A9002008704DE122A905911031B848079048220692C0
:2030E00007F0AAF90599069A07985831483007F0A3F9069907984A9AAF4B1A80259BAD4A58
:20310000137012785143401803F03EFC63A9012008702CE162980068974988423BD1FFE7D9
:2031200062984068022836D1FFE77F208002219021990BA8582207F07FF90D98582810D1A8
:20314000FFE7209804900BA804F0E2FF01460498884206D1FFE70BA801F09EFA002804D112
:20316000FFE763A90020087001E10BA803F0AEFB904900200870904908809048039003F064
:2031800045FB039908464830482207F055F963A901200870EBE0619800684D90619840688F
:2031A0004E90619880684F906198C0685090619800695190619840695290619880695390E4
:2031C0006198C06954906198006A55906198406A56906198806A57906198C06A589061984A
:2031E000006B59906198406B5A906198806B5B906198C06B5C906198006C5D906198406C17
:203200005E906198806C5F906198C06C60904D985949884214D1FFE74E98012810D1FFE7E5
:20322000599802904DA805F017FE01460298884206D1FFE74DA802F0CBF9002804D1FFE716
:2032400063A90020087092E04F984C4A10605098506051984A490860529848605398906082
:203260005498886055989081569888815798454908605898444908805A98401C002817D03E
:20328000FFE74DA8818E0A91C08E09900A983F4988420CDCFFE709983C49884207DCFFE747
:2032A0000A983B49086009983A490860FFE7FFE75B98AF21890088423ADBFFE75B983649A5
:2032C000884235DCFFE75C98642831DBFFE75C984B21890088422BDCFFE75D98502827DBAC
:2032E000FFE75D985C99884222DCFFE75E9832281EDBFFE75E98AF214900884218DCFFE76E
:203300005F98502814DBFFE75F98FA2810DCFFE75B98224908805C98214908805D98214953
:2033200008805E98204908805F9820490880FFE76098322808DBFFE760988C2804DCFFE7C3
:2033400060981B490880FFE71A49002008701A4908801A48019003F059FA01990846483024
:20336000482207F069F863A901200870FFE763A8007864B080BDC04631444950803920201F
:2033800094392020583A2020A43A2020204E0000283A2020203A20204C040000B83A202004
:2033A000BE3A2020C43A2020C23A2020BC3A2020BA3A20206B3A2020823A20209037202009
:2033C00080B586B004AB188003A80170029206F0CDFF00280FD0FFE707F016F800280AD0D5
:2033E000FFE703A80078002805D0FFE703A800780B2804D3FFE705A900200870CBE001F0EC
:203400008DF804F029FB66490620087004986549088002986449086003A8017863484843E7
:203420006349086006F0B6FA624908600298624908606249012008706149002008706149E2
:2034400008700299604A11600299604A116003995F4A11705F4908705F4908705F49087062
:203460005F4908705F4908705F480078012808D1FFE706F07BFF002803D0FFE706F0B0FE10
:20348000FFE75A4900200190088059490880594A01211170584908705849087058490870AF
:2034A00006F0CCF95749086006F0DAF901460198554A1160554908805549087006F0BEF9A7
:2034C0005449086006F0CCF901460198524A116052490880524AE121490011805149088082
:2034E00051490880514908805149088051490880514908705149087006F02CFA5049086003
:2035000006F038FA014601984E4A11604E4908604E49086002994E4A116002994D4A116055
:203520004D4908604D4908604D4908704D4908704D4908704D4908704D4908704D4908703B
:203540004D4908804D4908804D4908704D4908804D4A4E4911804E4908604E4805F0F6FEC6
:20356000019904A8405E03F06DFA4B4805F0EEFE03A8007803F066FA484805F0E7FE484829
:203580000078002803D1FFE706F0B6FEFFE705A901200870FFE705A8007806B080BDC046F6
:2035A000F13A2020B63A2020303A202060EA00002C3A2020083A2020103A2020FF3A202051
:2035C000D23A2020FB3A2020503A2020543A2020FC3A2020F93A2020D73A2020D83A202006
:2035E000023B2020DF3A20206B3A2020C83A2020C03A2020063B2020053B2020043B202014
:20360000033B20205C3A2020603A2020C63A2020013B2020C0392020C4392020743A20205C
:20362000703A2020903A20209A3A2020923A20209C3A2020983A2020DE3A2020E03A20209C
:20364000CC392020D0392020DC392020E4392020D8392020E0392020E8392020EC392020BA
:20366000E13A2020E23A2020E33A2020E43A2020E53A2020DD3A20207C3A20207A3A202038
:20368000DC3A2020783A2020763A2020FF7F0000D43920208FA90000FBAE0000E0AE0000B8
:2036A000D33A202080B588B006909548007801281AD1FFE793480078062815D1FFE7924844
:2036C0000078002805D0FFE78F48007806280BD1FFE700218D48405EC92809DBFFE78A482F
:2036E0000078062804D0FFE707A90020087002E100228748805E8749895E4018C10F401839
:20370000400805A908808448007800286AD1FFE7002105A8405E282864DBFFE77F4800688E
:2037200000280BD1FFE706987C49086006987C49086006F00FF97B490860FFE706F00AF900
:2037400078490968401A04900498002804D5FFE7049840420490FFE70498042807DBFFE79E
:203760006D49012008706D490020086039E006986A490968401A642816D3FFE706986849DD
:203780000968401A32280FD3FFE7002166480290405E801C50218C2204F0D2FF029908809A
:2037A00006985F490860FFE700226048805E5E49895E884205DAFFE75B4800885B49088059
:2037C000FFE7069855490968401A8008E12807D3FFE7574805F0DAFB07A9012008708AE08F
:2037E000FFE70AE0002105A8405E272804DCFFE74A4900200860FFE7FFE74E48007800285B
:203800006AD1FFE7002105A8405E282864DBFFE74948006800280BD1FFE70698464908602E
:2038200006984649086006F0A5F845490860FFE706F0A0F842490968401A0390039800284A
:2038400004D5FFE7039840420390FFE70398042807DBFFE737490120087037490020086063
:2038600039E0069834490968401A642816D3FFE7069832490968401A32280FD3FFE70021C7
:2038800030480190405E801C32218C2204F058FF01990880069829490860FFE700222A4885
:2038A000805E2849895E884205DAFFE72548008825490880FFE706981F490968401A800819
:2038C000E12807D3FFE7214805F060FB07A90120087010E0FFE70AE0002105A8405E2728A2
:2038E00004DCFFE7144900200860FFE7FFE707A900200870FFE707A8007808B080BDC04601
:203900006B3A2020F13A2020FB3A2020B63A20208E3A2020AE3A2020DE3A2020DC392020D5
:20392000D8392020CC3920207E3A2020863A2020EBA90000E03A2020E4392020E039202055
:20394000D0392020803A2020A63A20207CA9000070B58EB00D9009A9002008709448007841
:20396000002801D1FFE721E10D9891498A68801A0C900D980969884200D2ECE00D99143154
:203980008B48016140784C2804D1FFE705F0A4FE069003E005F0B4FE0690FFE706980BA986
:2039A0000880834840784C2805D1FFE700218248405E059004E000217E48405E0590FFE7CA
:2039C00005980AA9088000210BA8405E05F0D6FC77492422895E884208DDFFE700210BA880
:2039E000405E05F0CBFC72498884FFE77048007801283BD1FFE70C988008AF2812D3FFE7A7
:203A000000210BA8405E05F0B9FC0446E3176849C86A8A6A121958418A62C862888A401C27
:203A20008882FFE700210BA8405E05F0A7FC6349884207DBFFE75E494822885C02231843D9
:203A40008854FFE700210BA8405E05F097FCE121C900884209DBFFE7554A4823D15C0120F3
:203A60000143D15409A90870FFE773E0504A049290880B99411A08A80180918A491C91826F
:203A80000021405E05F07AFC04990446E317486B0A6B121958410A634863086AC9688842AA
:203AA00016D1FFE700210BA8405E039040480421415E092048430A2104F04EFD01460398E8
:203AC00009B2884204DBFFE70C9839490862FFE700210AA8405EFF21F031884205DBFFE7E4
:203AE0003349088B401C0883FFE70C983049CA68032151438908884218D3FFE72C490291AF
:203B0000C88A401CC88200230BA8C65EF517CA6B8C6BA4196A418C63CA63C45E6443486C7A
:203B20000A6C121958410A644864FFE700210BA8405E05F023FCE1218900884209DBFFE7A6
:203B40001B4A4823D15C01200143D15409A90870FFE7FFE7FFE70C981549C968884205D22E
:203B6000FFE709A80078002820D0FFE710490091087807AA019210701148502206F05CFCF1
:203B80000099104A012010700020087000F0C6FC01980078012804D1FFE7094802F070FDA2
:203BA00003E0074802F074FAFFE7FFE70EB070BDF0382020A63A2020863A20209209000099
:203BC000A0382020EC3A2020B0B588B0664AAF204100116064205060732080009060202022
:203BE0009081624A7D20830013605160FF21B63191601A2191815E4AC10011605D4A3221AB
:203C000011805D4A5D4911605D49000108605D49E120800008805C49B92008805B498C2041
:203C200008805B4AB42111805A4908805A49622008805A490020049008705949088059487F
:203C4000039002F0E3FD039908464830482206F0F3FBFFF70DFA07A9087000F05FFC049843
:203C60005149087051490870514908605149086051490860514908605149086051490880F4
:203C8000514908805149087051490870514908705149087051490870514908605149088084
:203CA000514908805149088051490880514908805149087051490870514908805149086034
:203CC000514A01211170514908705149087006A90870FFE706A80078022826D8FFE706A893
:203CE0000290007803F06CFF029A05A90870059B107806210C4644434C480355059B157859
:203D00000C466C4304196370059B15780C466C430419A37012785143411800208880FFE7CF
:203D20000698401C06A90870D4E73A4900200860394901200870394805F008FB07A80178E0
:203D40003748384A00920029019001D100980190019805F0FBFA05F01BFC00F069F83248C1
:203D600005F0F4FA08B0B0BD8039202094392020583A2020A43A2020283A20205E1A00002B
:203D8000203A2020B83A2020BE3A2020C43A2020C23A2020BC3A2020BA3A20206B3A202056
:203DA000823A202090372020FF3A2020D33A2020303A2020003A2020103A2020FC39202017
:203DC000F0392020B03A2020723A2020D23A2020DA3A2020FE3A2020FD3A2020FA3A202061
:203DE0003C3A2020903A20209A3A2020923A20209C3A2020983A2020F03A2020EF3A2020E8
:203E0000943A2020243A2020FC3A2020F93A2020DF3A2020F4392020F73A20208EA70000A1
:203E2000FCA80000B6A80000D9A90000A839202080B584B0554805F089FA5548007802F058
:203E400001FE544805F082FA032002F0FBFD524805F07CFA082002F0F5FD504805F076FA3B
:203E60004F480090006802F0EDFD4E4805F06EFA0098406802F0E6FD4B4805F067FA4B4853
:203E80000290006802F0DEFD494805F05FFA0298406802F0D7FD474805F058FA009880681E
:203EA00002F0D0FD444805F051FA0298806802F0C9FD424805F04AFA00980C210191405E85
:203EC00002F0C0FD3E4805F041FA01990298405E02F0B8FD3B4805F039FA3B48006802F07C
:203EE000B1FD3A4805F032FA002103913848405E02F0A8FD374805F029FA03993648405EB8
:203F000002F0A0FD354805F021FA3548006802F099FD344805F01AFA3348006802F092FD2F
:203F2000324805F013FA03993148405E02F08AFD304805F00BFA03992F48405E02F082FD45
:203F40002E4805F003FA03992D48405E02F07AFD2C4805F0FBF903992B48405E02F072FD76
:203F60002A4805F0F3F903992948405E02F06AFD284805F0EBF903992748405E02F062FDA7
:203F8000264805F0E3F904B080BDC04612A900006B3A2020C0AB0000AAAB0000ECAD0000F2
:203FA00080392020C2AD0000F8AD00009439202004AE0000E6AD0000E0AD000063AD000005
:203FC0007FAD00002BAD0000583A2020A9AD0000A43A202079AC0000823A20208BAC00003F
:203FE000283A202094AC0000203A20205BAB0000B83A202002AC0000BE3A20207EAB0000FE
:20400000C43A2020C5AA0000C23A20209FAB0000BC3A2020ECAB0000BA3A2020E0AE0000DE
:2040200080B58CB00B90DC2003F072FE002801D1FFE7B4E005F050FB0AA9088005F060FBD6
:2040400009A9088057480078002803D1FFE70020079005E00B9854490968401A0790FFE709
:2040600007980890514805F071F9089802F0EAFC4F48059005F06AF903F042FA05F066F992
:20408000059805F063F9002106914A480090405E02F0D8FC059805F059F906994648029051
:2040A000405E02F0CFFC059805F050F906990AA80190405E02F0C6FC059805F047F9069925
:2040C00009A80390405E02F0BDFC059805F03EF906993A48405E02F0B5FC059805F036F967
:2040E00006993748405E02F0ADFC059805F02EF900980199069A805E895E401A02F0A2FC2F
:20410000059805F023F902980399069A805E895E401A02F097FC059805F018F905F01AFCC9
:20412000049005F027FC01460498401A02F08AFC059805F00BF906992248405E02F082FC71
:20414000059805F003F92048007802F07BFC059805F0FCF81D48007802F074FC059805F031
:20416000F5F804F0C3F802F06DFC059805F0EEF81748007802F066FC059805F0E7F81548D7
:20418000007802F05FFC059805F0E0F806991248405E02F057FC114805F0D8F8FFE70CB054
:2041A00080BDC046F13A2020303A20201EAE0000FBAE00008E3A2020AE3A2020863A202002
:2041C000A63A2020903A2020EF3A2020F03A2020F93A2020FB3A2020C63A2020E0AE00002C
:2041E00080B588B007905E48007800280AD0FFE707985C49884201D8FFE7AFE05849002098
:204200000870FFE758480078002812D1FFE760490120032200F058FE002803D1FFE704F02C
:204220009BFB9BE050490120087056490020087094E0262004A90C2200F046FE002810D132
:20424000FFE74F49002008704C480078032805D8FFE74A490878401C0870FFE704F07CFB16
:204260007CE004A8083005F043FB03900399084605F000FF00280ED1FFE703983B4903F05B
:20428000BFFE002807D1FFE70398394903F0D6FE002808D0FFE7394900200870384908709E
:2042A00004F05AFB5AE0039803F064F802A908803048006800282FD0FFE702982E490988CF
:2042C000401A00B204F0C4F8014601A801802B49097832224A43323269460A800022805E3E
:2042E000895E884209DCFFE7002201A8805E6946895E494288420EDAFFE7204800210170E6
:2043000002A8405E02F080FE002803D1FFE704F023FB23E0FFE7FFE7029817490880174940
:2043200000200870164908701649087016490120087010480068002805D1FFE70E480088BD
:2043400012490880FFE70B480068401C002805D0FFE708490868401C0860FFE708B080BD3A
:20436000083B202087130000073B20200000D0C00000D040383A2020CE3A2020003B202089
:20438000F63A2020D53A2020F43A2020D03A2020683A202080B594B01390FFE703A84021B6
:2043A00000F0F4FC002805D0FFE7139903A8FBF787FEF3E7139801F013FC139802F0D4FD79
:2043C0001398FDF729FC1398FFF7C2FA4548007801280ED1FFE7139843490968401A0009BE
:2043E0007D2806D3FFE700F099F8404804F0AEFFFFE73F48007800280ED0FFE713983D49AD
:204400000968401A142807D3FFE7139839490860139801F055FDFFE732480078022814D06C
:20442000FFE73048007803280FD0FFE72D48007804280AD0FFE72B480078052805D0FFE70A
:204440002848007806282AD1FFE713982A490968401A2A490968884221D3FFE724480090F8
:20446000007802A90191087000F058F80099244A002010700870234804F068FF01980078D9
:2044800000280BD0FFE7204804F060FF1F48008802F0D8FA1E4804F059FFFFE7FFE71848E7
:2044A0000078002818D0FFE713981A490968401A142811D3FFE71398164908601648007867
:2044C000002804D0FFE7139801F00EFB03E01398FFF7A6FDFFE7FFE7139803F0C7F914B040
:2044E00080BDC046F13A2020003A202039A80000D23A2020FC392020303A20202C3A2020A2
:20450000FF3A202067AB000073AB0000B03A2020E0AE0000103A2020D33A202080B53049B5
:20452000002008802F4908802F4908802F4908802F4908702F4908602F4908802F49086023
:204540002F4908702F4908602F4908602F4908702F4908702F4908702F4908802F490880DB
:204560002F4908702F4908702F4908702F4908702F4908802F4908702F4908802F4908709B
:204580002F4908702F4908602F4908602F4908602F4908602F4908602F4908602F4908600B
:2045A0002F4908602F4908702F4908702F4908702F4908702F4908702F4908702F4908807B
:2045C0002F4908802F4908702F4908802F4A304911803049086005F03FFE04F04DFD80BDDA
:2045E000863A2020A63A20208E3A2020AE3A2020F13A20202C3A2020943A2020243A2020AE
:20460000FB3A2020503A2020543A2020D73A2020D83A2020023B2020C83A2020C03A2020F1
:20462000063B2020053B2020043B2020033B2020C63A2020013B2020743A2020DE3A20207A
:20464000E03A2020CC392020D0392020DC392020E4392020D8392020E0392020E8392020B5
:20466000EC392020E13A2020E23A2020E33A2020E43A2020E53A2020DD3A20207C3A2020B7
:204680007A3A2020DC3A2020783A2020763A2020FF7F0000D439202080B59AB0189018984C
:2046A000C06806901898006907901898406908901898806909901898C0690A901898006ADC
:2046C0000B901898406A0C901898806A0D901898C06A0E901898006B0F9004A800F078FFCD
:2046E000002804D1FFE719A90020087085E01898416B00200029039079D4FFE71898416B51
:204700000020404A9142039071DCFFE71898816B0020002903906AD4FFE71898816B0020FE
:20472000384A9142039062DCFFE71898C16B0020AF2292009142039059DBFFE71898C16BB2
:204740000020314A9142039051DCFFE71898016C0020642903904ADBFFE71898016C0020A0
:204760004B2292009142039041DCFFE71898416C0020502903903ADBFFE71898416C026C82
:2047800000209142039032DCFFE71898816C0020322903902BDBFFE71898816C0020AF227A
:2047A00052009142039022DCFFE71898C16C0020502903901BDBFFE71898C16C0020FA2958
:2047C000039014DCFFE71898016D0020322903900DDBFFE71898016D0120002201928D29CC
:2047E000029001DB0198029002980390FFE703980121084019A90870FFE719A800781AB0E5
:2048000080BDC046204E00004C04000080B586B0059003F0B9FB0146394801800021415EE7
:2048200003204843052103F097FE4B218900E122920003F085FF04A90880324800780028CC
:2048400004D1FFE70498304908800DE000232E49CA5E0320504304AAD25E8018801C820FF8
:20486000801880080880FFE728490120087005982749086005982749086027490020039093
:204880000870264908702649087026490870264908702649087026490870264908702649E0
:2048A000087026490880264908802649087026490880264A26491180264908602648007887
:2048C000012816D1FFE72548006925490191254A029204F0A7FC0199029A234B18602348EB
:2048E000006904F09FFC22490860224901200870FFE721490020088005F0AEFC06B080BD5F
:20490000743A2020F93A2020703A2020FB3A2020503A2020543A2020D73A2020D83A20209C
:20492000023B2020DF3A2020E23A2020E33A2020E43A2020E53A2020DD3A20207C3A2020DE
:204940007A3A2020DC3A2020783A2020763A2020FF7F0000D43920206B3A20208039202082
:20496000702FFCFF90D00300E839202094392020EC392020E13A2020C83A202070B588B06D
:204980000C4605460D980C9907AE357006AD2C800592049303AA117002A90870FFF7BEFD47
:2049A0003749002008703749087003F055F805F0DDFC002803D0FFE705F012FCFFE7079870
:2049C0003149087006983149088004983049086005983049086004F0DDFF2F4908600498FE
:2049E0002E49086004982E49086003982D49087002982D4908702D490020019008802C4928
:204A000008802C4908802C4908802C4908802C4908702C4908702C4908802C49086002A8B9
:204A20000078002808D0FFE72949002008802949088029490870FFE7284804F087FC02F05B
:204A40005FFD04F083FC2648009004F07FFC002106A8405E01F0F6FF009804F077FC05982B
:204A600001F0F0FF1F4804F071FC03A80078002803D0FFE705F040FCFFE708B070BDC04688
:204A8000FE3A2020FD3A2020F13A2020B63A2020303A20202C3A2020083A2020103A202030
:204AA000FC392020FF3A2020D23A2020903A20209A3A2020923A20209C3A2020983A20206A
:204AC000F03A2020EF3A2020943A2020243A2020B03A2020723A2020DA3A202037AB00000B
:204AE000FBAE0000E0AE000080B584B0024603A8027002910078002828D1FFE7444800789B
:204B0000002822D1FFE74348007800281DD1FFE741480078002818D1FFE74548007802286E
:204B200013D3FFE7424901910878401E08703D49002008703F4804F009FC0198007801F096
:204B400081FF3D4804F002FCFFE75EE003A80078012828D1FFE72E480078002822D1FFE720
:204B60002C48007800281DD1FFE72B480078002818D1FFE72E480078092813D8FFE72C4906
:204B800000910878401C0870264900200870294804F0DCFB0098007801F054FF264804F037
:204BA000D5FBFFE731E01A48007800280AD1FFE718480078002805D1FFE7174800780028B0
:204BC00003D0FFE703F064FB1FE01448007800280DD0FFE71149002008700E49012008702A
:204BE00002980F490860114804F0B0FB0CE00A490120087002980A4908600A49002008704B
:204C0000094804F0A3FBFFE7FFE704B080BDC046F13A2020FD3A2020FA3A2020FE3A202020
:204C20003C3A2020F93A202021A70000ACA70000F73A20206FAA0000E0AE000080B58EB0A5
:204C400021200421039104F065FF0120029001034A480A9005F07AF82220052104F05AFF03
:204C600002990A98490305F071F802980399002207920192C30409930093430408930F20C2
:204C8000049003F0BDFC0399079A089B0998019200900E20059003F0B3FC049804F01EFF1E
:204CA000059804F01BFF1F200221069104F032FF0699202004F02EFE352005F06BF8362029
:204CC00005F068F8192005F065F8182005F062F8312005F05FF80799089A099B0091322007
:204CE00003F056FD0799089A099B0091122003F04FFD0799089A099B0091162003F048FDA1
:204D00000799089A099B0091232003F041FD0799089A099B0091242003F03AFD0799089A81
:204D2000099B00911C2003F033FD0799089A099B00911D2003F02CFD102005F02BF8112096
:204D400005F028F80A9803210C9109060B9105F0B0F90A980B9904F0F9FF0C980102084869
:204D60000D9005F0A6F90D98064905F037F80D98054904F0EBFF0EB080BDC04600000A40CE
:204D800000200A40300040003003400080B588B0069005A801800698002805D0FFE705A867
:204DA0000088012804D8FFE707A9002008707BE0FFE73F4800883F490988884270D0FFE7DF
:204DC0003B48009002883C49895C04AA019211700088802104F040FA009A014601981180A8
:204DE00000780D2805D0FFE704A800780A2840D1FFE732480078002801D0FFE7D9E72F49F5
:204E0000012008702E480088002831D0FFE72C48018802A80180008805A90988884205DB53
:204E2000FFE70598401E02A90880FFE703A900200880FFE703A8008802A9098888420CDA1F
:204E4000FFE703A802881F48805C06998854FFE70398401C03A90880ECE7069902A80288C2
:204E6000002088541649088007A9012008701BE015E0124900200870114800883E2809D8FB
:204E8000FFE704980E490B880E4AD0540888401C088003E00A4900200880FFE7FFE788E79D
:204EA00007A900200870FFE707A8007808B080BDB43A2020B23A202020382020ED3A20204F
:204EC000963A20204039202080B58EB00CAB18700B910AA802700B9800280AD0FFE70AA85A
:204EE0000078002805D0FFE703F0EAFC002804D1FFE70DA90020087079E004F05BFD3E4822
:204F000005900CA90122069203F092F905983B4904F070FF0598069B0022029201920221E0
:204F200007910091232102F06BFB079802F0DEF9002804D1FFE70DA90020087057E00AA82A
:204F40000378002004900290042001900220009029482321012202F053FB049809A908704B
:204F6000FFE709A800780AA90978884230DAFFE723480890FFE7204804F0E8FD00281AD0F8
:204F8000FFE71D4805F0AAF88007002806D5FFE704F010FD0DA90020087028E00898411E69
:204FA0000891002806D1FFE704F004FD0DA9002008701CE0DFE7104805F0A4F80B9909AA2E
:204FC00012788854FFE70998401C09A90870C8E7012002F08BF9002804D1FFE70DA900205F
:204FE000087004E003F06CFC0DA90870FFE70DA800780EB080BDC04600200F4083040000C2
:205000008813000080B596B049480F9004F0FEFE0F9805F09FF80F9803F05EFF0F9804F095
:2050200065F90023149300930120420410920E20194604F043F9109A149B00930F20194675
:2050400004F03CF93B4812900421119105F027F812980821139105F022F81199129805F058
:2050600032F81298139905F02EF80520800105F0DDF9149815A90870FFE715A800780828F7
:2050800017D8FFE72B480C9004210D9104F052FEA0200E9005F0CAF90C980D9905F013F8C5
:2050A0000E9805F0C3F9FFE71598401C15A90870E3E7204803900821049104F03BFEA02004
:2050C00005F0B4F90398049904F0FDFF0520800105F0ACF90022079201920120C1040591FC
:2050E0000091430408930F2009900421069103F05FFA05980699079A089B019200900E209C
:205100000A9003F055FA099804F0DAFC0A9804F0D7FC07480B9004F0CDFE0B9804F0A6FEFB
:20512000102005F083F903F067F916B080BDC04600200F4000200A4010B58EB00C900BA847
:2051400001800AA90A800021405E002806DCFFE70C99002008610DA9088079E00022019268
:205160000BA80390805E0AA9895E401A09900C980069099A0A2151434018089008983749FF
:20518000374A04F04FF808900C980168099848437D21C900029103F0DFF907900C984168D9
:2051A000089848432F4903F0D7F9019B02990246039806920C9A0C24145F04949268C05EDE
:2051C000504303F0C9F9014604984018079940180699401805900598FF21F631884204DB3B
:2051E000FFE7099800280CDCFFE70598002804D5FFE70998002804D4FFE708980C99086179
:205200001DE00C98416800694843164903F0A4F906900C980C21415E0091816800220BA80C
:20522000805E48437D21C90003F096F901460098401807994018069940180590FFE70598DE
:205240007D218A00002103F07BFA0DA90880FFE700210DA8405E0EB010BDC046E05EF8FF3F
:2052600020A1070040420F00B0B58EB004F0E0FF05903B4800680D903A4800680C9005981F
:2052800004F0CCFF0D98384A1168401A0B900C9836490B68C01A0A900D9810600C9808608F
:2052A0000B98C117324A02920023049304F00EFB049B07910690069807992E4A039204F0A0
:2052C000A3FF029A049B09900A98C11704F0FEFA039A049B079106900698079904F094FFC3
:2052E000089009982449884203DBFFE723480990FFE708982049884203DBFFE71F480890FA
:20530000FFE700201E4B0093195E099D032214466C430919CC17A40F0919890819801949DA
:205320000191085E089B5A438018C217920F80188008088004F07CFF0099024601980592FB
:205340000988114A118000881049088010490868401C0860059804F061FF0EB0B0BDC046B8
:20536000183A2020443A20201C3A2020483A2020A0D9080010270000C5090000C409000032
:205380008A3A2020AA3A20208C3A2020AC3A20204C3A202080B58AB0024608A80270079182
:2053A0000021069105AA117004AA117003AA117002AA1170079A11700078002805D0FFE7FE
:2053C00005F022F8002804D1FFE709A9002008806BE001A900200870FFE701A800780728BE
:2053E0003BD8FFE708A8007801A9097804F056FC00282CD0FFE701A801784A002D498A5E47
:205400000699891806910599491C05AA11700078022804D8FFE704A901200870FFE701A849
:205420000078052804D3FFE703A901200870FFE701A80078032805D0FFE701A8007804288B
:2054400004D1FFE702A901200870FFE7FFE7FFE70198401C01A90870BFE705A80078002891
:2054600014D0FFE705A8007804280FD8FFE702A8007800280ED1FFE704A80078002809D010
:20548000FFE703A80078002804D0FFE709A9002008800AE0079901200870069805A90978D7
:2054A00003F05AF809A90880FFE7002109A8405E0AB080BD30AA000080B588B007903548C5
:2054C00003F044FF079801F0BDFA3348049003F03DFF02F015F803F039FF049803F036FF23
:2054E000002103912D48405E01F0ACFA049803F02DFF03992A48405E01F0A4FA049803F0C8
:2055000025FF04F0E9F801F09DFA049803F01EFF04F0F6F801F096FA049803F017FF0399BA
:205520002048405E01F08EFA049803F00FFF03991D48405E01F086FA049803F007FF1B4847
:2055400001781B481B4A05920029069001D105980690069803F0FAFE174803F0F7FE174880
:20556000007801F06FFA164803F0F0FE04F042FE01461448144A01920029029001D101982C
:205580000290029803F0E2FE104803F0DFFE08B080BDC046DCAC0000FBAE00008E3A2020B0
:2055A000AE3A2020863A2020A63A2020FE3A2020BCAD000037AE000040AA0000F73A202082
:2055C00071AD000041AE00007AAE0000E0AE000082B00090009880684049884240DCFFE771
:2055E0000098C0683D4988423ADCFFE7009800693A49884234DCFFE70098406937498842D0
:205600002EDCFFE7009880697D21C900884227DCFFE70098C0697D21C900884220DCFFE72B
:205620000098006AE1214900884219DCFFE70098406AE1214900884212DCFFE70098806ACB
:20564000274988420CDCFFE70098C06A4F21C943884205DBFFE70098C06A512804DBFFE774
:2056600001A90020087034E000988068002828D4FFE70098C068002823D4FFE70098006984
:2056800000281ED4FFE700984069002819D4FFE700988069002814D4FFE70098C06900286E
:2056A0000FD4FFE70098006A00280AD4FFE70098406A002805D4FFE70098806A002804D587
:2056C000FFE701A90020087003E001A901200870FFE701A8007802B07047C046B80B000043
:2056E00088130000F0B5394A8218394BC0183A4D4C790B79002C22D0466F202B02D0052408
:20570000E70100E0354F2E40002B00D188273E434667846F2C403C438467446B2D4E34408F
:205720004463846B3440846300244465846554688F26F643344054609468344094600C6818
:205740008979202B09D006467036002B15D1641E4460C46E2C40882715E0641E4460C46E60
:205760002C401E4E3443C466046F2C40344304671B4D01246707064607E00527FF01640829
:205780004460C46E2C403C43C46634682C403C433460C46A0F4D2C40C462046B2C400463A5
:2057A0000024C4640465C46F8F25ED432C40C46714682C401460194302680A4B1340BD22DD
:2057C0000A40D118891C0160F0BDC04684180000041800008888FDFF24493E000104000069
:2057E000FFFFFFCF4000FFCF80B588B00020079006900590049003A9087003F0A9FF03F03A
:20580000CBFA02F08FFB03F0ADF903F00DF802F049FA02F0C5FDFEF7D7F904F07DFD152065
:20582000019003F031FE019803F086FE2C4804F0A1FB62B6FFE702F041FB04F0F1FD0699F4
:20584000401A052806D3FFE704F0EAFD069004F019F8FFE703A80078002816D1FFE704F09A
:20586000DFFD2049884210D3FFE7FFF7CBFB02F0DBFF02F017FA04F0D3FD059003A901209F
:205880000870194803F062FDFFE704F0C9FD0499401A0A2806D3FFE704F0C2FD049003F01B
:2058A0003DFDFFE703A80078002811D0FFE704F0B7FD0599401A0A280AD3FFE704F0B0FD80
:2058C000059002A800F008FA0598FEF789FCFFE704F0A6FDFEF75EFD04F016FDABE7C04614
:2058E0000000874070170000E6A8000080B588B006AB187005A801700492394803900498C2
:20590000002804D1FFE707A90020087064E002F0FDFF002807D1FFE733490620087007A97A
:205920000020087058E004F055F82E48029005A90122019202F07CFC019B029806A909781A
:20594000002202F085FE02F019FA002805D0FFE702F0DCFF002804D1FFE707A900200870D0
:205960003AE006A801781F4801231A4602F070FEFFE71C4804F0F8F800281BD0FFE7194813
:2059800004F0B6FB8007002806D5FFE704F022F807A9002008701FE00398002806D1FFE71D
:2059A00004F018F807A90020087015E00398401E0390DEE70B4804F0AFFB0499087002F05D
:2059C000DDF9002804D1FFE707A90020087003E007A901200870FFE707A8007808B080BD98
:2059E0008813000000200F40D93A2020B0B53A4A80184A6842600A78222A56D8930001A441
:205A0000E3589F46A15A0000AB5A0000A15A0000AB5A0000AB5A0000AB5A0000AB5A000057
:205A2000AB5A0000AB5A0000AB5A0000AB5A0000AB5A0000AB5A0000AB5A0000AB5A00003E
:205A4000AB5A0000915A0000AB5A0000915A0000AB5A0000AB5A0000AB5A0000AB5A000052
:205A6000AB5A0000AB5A0000AB5A0000AB5A0000AB5A0000AB5A0000AB5A0000AB5A0000FE
:205A8000AB5A0000915A0000AB5A0000915A0000036803242407A343012464071B1903E0DC
:205AA000036803242407A34303600B69C360CB68C46A0A4D25400A4C1C402B19C3620368A6
:205AC000084C1C400460097A114302683F239A43194051180160B0BD041800008888FDFF7A
:205AE000777702007F00FFFF80B584B00390304803F02CFC03982F490968401A00F0A2FF3B
:205B00002D48019003F022FC002102912B48405E00F098FF019803F019FC02992848405ED8
:205B200000F090FF019803F011FC03F0D5FD00F089FF019803F00AFC03F0E2FD00F082FF3B
:205B4000019803F003FC02991E48405E00F07AFF019803F0FBFB1C48007800F073FF019859
:205B600003F0F4FB1948007800F06CFF019803F0EDFB02F0BBFB00F065FF019803F0E6FB32
:205B80001348007800F05EFF019803F0DFFB1148007800F057FF019803F0D8FB02990E4818
:205BA000405E00F04FFF0D4803F0D0FB04B080BDC6AE0000303A2020FBAE00008E3A202036
:205BC000AE3A2020903A2020EF3A2020F03A2020F93A2020FB3A2020C63A2020E0AE00000A
:205BE00080B588B00790079837490968884201D1FFE766E0079834490A68801A05900798ED
:205C0000086005981A2803D3FFE719200590FFE706A900200870FFE706A80078022850D828
:205C2000FFE706A8017806224A43284989180491007801F0C5FF014603A801700078049956
:205C40000978884214D1FFE70498808805994018029002981E49884203D3FFE71D48019085
:205C600002E002980190FFE701980499888006E0039804990870049900208880FFE7049816
:205C80008088192804D3FFE7039804994870FFE70498807800280BD1FFE70498407800282E
:205CA00006D0FFE706A800780799FEF71DFFFFE7049948788870FFE70698401C06A908700F
:205CC000AAE708B080BDC046F4392020A839202061EA000060EA000080B582B0019069466E
:205CE000002008700198002801D1FFE763E0334800785D281BD1FFE731480078002816D007
:205D0000FFE7684604F09EFA00280CD0FFE76846007802F0FFFF2B480078019908700199CC
:205D20000120487047E0264900200870FFE703F023FD014621480170007800280CD1FFE7DF
:205D4000042001F05BFB1F480078019908701E480078019948702EE0184800785D280CD070
:205D6000FFE7072001F04AFB164800780199087015480078019948701DE0684604F062FAD6
:205D800000280CD0FFE76846007802F0C3FF0D480078019908700199012048700BE00520DD
:205DA00001F02CFB07480078019908700648007801994870FFE702B080BDC046DB3A2020AA
:205DC000E63A2020F33A2020EE3A202080B5B6B036480290007848210491414334480390DA
:205DE000401800F013FD02980399049A314B0A9303230B93A8230C9300780D900AA80590D4
:205E0000103004F019FB0399049A05985830483104F012FB059800222749895E329102F096
:205E2000A7F93390EFF3108035903598089072B62248069003F074F906987F21890207917A
:205E40000122520200F070FA06980799402203F065FF014609A80170007803280DD1FFE7AA
:205E60000120400200907F20810214480AAA2A2301F006FB09A90870FFE70898002802D113
:205E8000FFE762B6FFE709A80078032804D0FFE734A90020087004E0FDF7EAF834A908708C
:205EA000FFE734A8007836B080BDC0466B3A20209037202031444950823A202000D00C406D
:205EC00080B586B005902F480078002806D0FFE72D480088C0084B2801D3FFE750E02A485B
:205EE000019000881621414328484018049003F0F3FB03A9088003F003FC02A9088005989B
:205F000023490968401A0021224A03F08BF90499088021490888049A508020480288049B28
:205F20009A80039A049BDA80029A049B1A811C4A1288049B5A811B4A1288049B9A81098817
:205F4000039A891A049AD18100880299401A0499088203F0FFFC009003F00CFD0146009814
:205F6000401A1149114A02F0EBFB0499488202F0BDF90199049A90820888401C0880FFE787
:205F800006B080BDD23A2020B03A202000002020303A2020FFFF00008E3A2020AE3A202080
:205FA000863A2020A63A20200080FFFFFF7F000080B582B00190304803F0C8F90198008880
:205FC00000F040FD2D4803F0C1F901980221405E00F038FD2A48009003F0B8F9019804218F
:205FE000405E00F02FFD009803F0B0F901980621405E00F027FD009803F0A8F90198082153
:20600000405E00F01FFD009803F0A0F901980A21405E00F017FD009803F098F901980C216A
:20602000405E00F00FFD009803F090F901980E21405E00F007FD009803F088F90198102182
:20604000405E00F0FFFC009803F080F901981221405E00F0F7FC0B4803F078F901981421E1
:20606000405E00F0EFFC084803F070F9074803F06DF902B080BDC0461EAE0000DAAD00000B
:20608000FBAE0000F4AC00004EAD0000E0AE000080B584B00390A02001F03AFE002801D14F
:2060A000FFE759E02D4803F051F90398C06900F0C9FC2B48009003F049F903984178294899
:2060C000294A01924C29029001D001980290029803F03CF90398808A00F0B4FC009803F025
:2060E00035F90398006B00F0ADFC009803F02EF903982421405E00F0A5FC009803F026F968
:206100000398C08A00F09EFC009803F01FF90398806B00F097FC009803F018F90398006CC1
:2061200000F090FC009803F011F90398006A00F089FC009803F00AF90398008B00F082FCB2
:20614000009803F003F903984821405C00F07AFC064803F0FBF8FFE704B080BDCEAE00002B
:20616000FBAE0000F2AE0000E3AE0000E0AE000080B586B005AB187004A8018003922848E2
:206180000078012803D0FFE7FEF7C8F9FFE725490020087024490870214A012111702349A4
:2061A00008802349088005A800784C2804D1FFE704981E49088010E005A80078522804D120
:2061C000FFE704981A49088006E0049817490880049817490880FFE7FFE703981549086037
:2061E00003981549086000221048805E1049895E00F0CAFD114803F0A9F803F0FBFF0146CE
:206200000F48104A01920029029001D101980290029803F09BF80C4803F098F806B080BD98
:20622000F13A2020FE3A2020FD3A2020863A2020A63A2020303A2020003A2020D2AA000044
:2062400041AE00007AAE0000E0AE000089B007900691002005900121049103A90870079803
:2062600000782D2807D1FFE70020C04304900798401C079009E0079800782B2804D1FFE73C
:206280000798401C0790FFE7FFE7FFE7079801780020302902900DDBFFE707980178012090
:2062A000002200923A29019001DB0098019001980290FFE70298C007002818D0FFE703A91D
:2062C0000120087005981749884204DBFFE708A90020087022E005980A21414307980078EB
:2062E0004018303805900798401C0790CEE703A80078002805D0FFE707980078002804D0E9
:20630000FFE708A90020087008E00599049848430699086008A901200870FFE708A8007842
:2063200009B0704701C2EB0BF0B583B002920190304B314D00918C0A2868072738400526B6
:206340002E60196889048A0F2860296839402E6018682960002A214608D028490840511C50
:2063600002F05AFD0146204602F056FD0198204A801801902A683A402E601E4803682A60C1
:206380002A683A402E6003682A60012293020298984207D0530298420CD10098C30B0BD11D
:2063A000019803E01F210C4001984030A24001689143016003B0F0BDFF290DD82B683B40D1
:2063C0002E600C4C24682B60A3049B0F019800D12039CC08001DE9E71302FF339942E9D20E
:2063E000FF23DB43C918CC0801980830DEE7C046D01100001800C44100134040FF0F00006D
:20640000FCB40127FF07794002E0FCB40127FF070C024D002D0E03D1002C52D1FCBC7047FD
:206420003C43FF2D50D0A408002900D56442020243001B0E04D1002A43D10800FCBC704747
:206440003A43FF2B41D09208002800D552425E1B04D5170022003C0076422B00192E06D58D
:2064600027003741D2191C27F71B7F42BC40002A27D002D55242012700E00027013B520037
:20648000FCD51500802635400FD01500202635402C43803208D21500402635402C4304D11D
:2064A00001263602B24300E05B1C5200023308DDFF2B0BD2500ADB051843FF073843FCBCF0
:2064C00070470020FCBC70470800C70FFF07FF20C0053843FCBC704780B586B003F070FFF7
:2064E000002804D1FFE7304802F030FF49E003F04FFF05A90091088003F056FF04A9019168
:20650000088003F04BFF03A9029108801E4802F01DFF0098008800F095FA1C4802F016FF71
:206520000098008802F058FF00F08CFA184802F00DFF0198008800F085FA164802F006FF39
:206540000198008802F048FF00F07CFA124802F0FDFE0298008800F075FA104802F0F6FE75
:206560000298008802F038FF00F06CFA0C4802F0EDFE03F01FFF00F065FA0A4802F0E6FEC1
:20658000FFE706B080BDC0469BAA0000E4AC0000AFAC000089AB0000C1AC0000D6AB0000CA
:2065A00040AC000084A80000B5A9000080B588B00790069105A8027004A900200870FFE780
:2065C000079801780020002903900FD0FFE704A8017805A802780120002301939142029079
:2065E00001DB0198029002980390FFE70398C007002841D0FFE7FFE70798007802F0B2FF60
:20660000002804D0FFE70798401C0790F4E707980078002801D1FFE72EE00798069A04A93A
:206620000B789B00D0500498401C0870FFE70798017800200029009008D0FFE70798007800
:2066400002F090FF414248410090FFE70098C007002804D0FFE70798401C0790E7E70798F7
:206660000078002807D0FFE70799002008700798401C0790FFE7A3E704A8007808B080BD6A
:2066800080B586B0059000200490642001F040FB002801D1FFE74BE00598808A002809D0E3
:2066A000FFE7059A906AD16A928A002303F0ACFD0490FFE71F4802F049FE0598C06900F075
:2066C000C1F91D48019002F041FE059841781B481B4A02924C29039001D002980390039886
:2066E00002F034FE05980221405E00F0ABF9019802F02CFE049800F0A5F9019802F026FEF6
:206700000598808A00F09EF9019802F01FFE05982421405E00F096F9019802F017FE059867
:206720004821405C00F08EF9064802F00FFEFFE706B080BD96AE0000FBAE0000F2AE00002A
:20674000E3AE0000E0AE000080B584B0284802F0FDFD03F017FE002804D0FFE7274802F00A
:20676000F5FD0EE003F002FE01462248224A02920029039001D102980390039802F0E6FD6A
:20678000FFE703F0EDFD00F05DF91D48019002F0DDFD03F0DFFD00F055F9019802F0D6FDC3
:2067A00003F0D2FD00F04EF9164802F0CFFD03F0E3FD00F047F9019802F0C8FD002002F05F
:2067C000C9FC00F03FF9019802F0C0FD012002F0C1FC00F037F9019802F0B8FD022002F040
:2067E000B9FC00F02FF9084802F0B0FD04B080BD2DAE0000B2AE000039AD000014AD00000A
:20680000FBAE0000FEAD0000E0AE000081B00090224A10680099086050680099486020488F
:206820000168009B99604168009BD9609168009B19618168009B59610C21525E009B9A611F
:20684000405E0099C861174800680099086200211548405E009A506214480068009A906256
:2068600013480068009AD0621248405E009A10631148405E009A50631048405E009A9063BD
:206880000F48405E009AD0630E48405E009A10640D48405E0099486401B07047803920209B
:2068A00094392020583A2020A43A2020283A2020203A2020B83A2020BE3A2020C43A2020F7
:2068C000C23A2020BC3A2020BA3A202081B000900098C068204A106000980069506000986E
:2068E00040691E4908600098806948600098C06990600098006A88600098406A9081009871
:20690000806A88810098C06A154908600098006B144908800098406B134908600098806B8A
:20692000124908600098C06B114908800098006C104908800098406C0F4908800098806C62
