:2000000000802020E9AC0000DDAC0000DDAC00000000000000000000000000000000000079
:20002000000000000000000000000000DDAC00000000000000000000DDAC0000DDAC000025
:20004000DDAC00005D8C0000DDAC0000DDAC0000DDAC000035790000DDAC0000DDAC0000D3
:2000600000000000DDAC0000DDAC00000000000000000000DDAC000069890000DDAC00006A
:20008000DDAC0000DDAC0000DDAC0000DDAC0000DDAC000041A100000000000000000000D1
:2000A000DDAC0000DDAC00000000000000000000DDAC000000000000DDAC0000DDAC000093
:2000C000B0B5FFB08DB08B900AF0B0F88A90FB480078022816D0FFE7F8480078032811D083
:2000E000FFE7FD48007804280CD0FFE7FA480078052807D0FFE7F8480078062802D0FFE72D
:2001000001F0E3F88A98F5490968884202D1FFE701F0DBF88A98F149086009F029FF89A9E4
:20012000088009F039FF88A908808B9802F05AF8002802D0FFE701F0C8F8E7480078022884
:2001400009D1FFE7E6480088E6490880E6490020088001F090F8E0480078032809D1FFE797
:20016000E04900200880DE480088DF49088001F081F8D9480078052806D0FFE7D6480078CE
:20018000062801D000F0EEFFD548008887A908808B98D6490968401A8290D54881904B206E
:2001A000C00080A90880D3480178002001294B900DD1FFE7CA4800214991415E0120C92992
:2001C0004A9001DB49984A904A984B90FFE74B98012108407FA90870C6480178002001294D
:2001E00048900DD1FFE7BC48017800200629489006D1FFE7C0480078414248414890FFE7B8
:200200004898012108407EA90870BA4801780020012947900ED1FFE7AF48017800200629D5
:20022000479007D1FFE7B4480078801F414248414790FFE74798012108407DA90870AD4871
:2002400001780020012946900ED1FFE7A248017800200629469007D1FFE7A7480078001F74
:20026000414248414690FFE74699012001407CAA11707EA90978002945900DD1FFE77DA83F
:20028000017801200029459006D1FFE77CA80078411E88414590FFE74598012108407BA91F
:2002A00008707AA95020088079A9088078A9142008808948007806280BD1FFE78E4800789D
:2002C000042806D1FFE77AA9A020088079A9088026E081480078062821D1FFE7864800788D
:2002E00006281CD1FFE77AA92D20088079A94120088078A9052008808B9880490968401A75
:20030000000919280AD3FFE77AA93C20088079A94B20088078A908200880FFE7FFE7FFE731
:200320007FA8007800280ED0FFE76B480078062809D1FFE772480078002804D1FFE74B2099
:20034000C0008190FFE76B48007801280ED1FFE761480078062809D1FFE767480078062869
:2003600004D1FFE780A9B420088014E06148007801280FD1FFE75848007806280AD1FFE732
:200380005D480078002805D1FFE74B20C00080A90880FFE7FFE750480078062819D1FFE7A6
:2003A00055480078042814D1FFE75648008887A908805048007801280AD1FFE7002187A809
:2003C000405EC92804DBFFE787A9C8200880FFE729E041480078062813D1FFE7464800783B
:2003E00006280ED1FFE74748018887A801800021405E652804DBFFE787A964200880FFE70F
:2004000010E08298819988420BD2FFE700213448415E82984843819909F0A4F987A90880E2
:20042000FFE7FFE7FFE70AF037FC01467F20014035480170007883A905F002FB334908802E
:200440008398334908707EA8007800282BD0FFE783A80078002826D0FFE7002143912B48D7
:20046000405E09F0D7FB4399024677A844900280405E800050305021A02208F0EBFD4399ED
:20048000024644987AAB1A807A9A79AB1A80405EC10F40184010143014211C2208F0DAFD0B
:2004A00078A90880FFE70C480078062800D06EE111480078002803D0D2E0C046E43A2020B2
:2004C00076A90820087008F0EDF91249088009480078012824D11FE0E43A2020F0392020EF
:2004E000A83A2020783A2020A03A20201C3A2020DC050000573A2020EE3A2020CC392020D9
:20050000EC3A2020AE3A2020E13A20207C3A2020E23A2020603A202076A904200870FFE725
:20052000FD480078012833D1FFE70AF06DFB00282ED0FFE709F0D4FF014675A8018074AAAE
:200540004292F649118000214191405E09F062FB419A4299895E88420BDBFFE7F04800782D
:20056000FF2805D0FFE7EE490878401C0870FFE703E0EB4900200870FFE7E94800780328BF
:2005800005D3FFE7E74809F069F900F09EFE03E0E34900200870FFE70022E348805EE349A3
:2005A000895E884206DAFFE7E14900200870E149087054E0DE48007876A90978884211DA39
:2005C000FFE7DD48007807F0A1FD002805D0FFE7D7490878401C087003E0D5490020087013
:2005E000FFE73BE0D448007807F087FE73A9087072A902200870C848007801280AD1FFE72F
:20060000CD48007804F0BAFF73A9087072A902200870FFE773A8007800280BD0FFE7C548E8
:200620000078FF2805D0FFE7C2490878401C0870FFE703E0BF4900200870FFE7BD48007835
:2006400072A90978884208DBFFE78B9804F0E8FA8B9801F0C7FD00F038FEFFE7FFE795E033
:20066000B6480078042800D08FE08B98B4490968401A7190719878281ED3FFE7A6480078C7
:20068000012807D1FFE7AC48007807F005F9002807D111E0A848007807F038FD00280BD08A
:2006A000FFE7A8480078FF2805D0FFE7A5490878401C0870FFE703E0A24900200870FFE796
:2006C000A04800783E909448017803203F9002200129409001D03F9840903E984099884298
:2006E00047D3FFE78C480078012835D1FFE796490120087095483B900088954908809548AE
:2007000009F070FA94480078401C06F0E7FD93483C9009F067FA00213D919148405E06F08F
:20072000DDFD3C9809F05EFA3B983D99405E06F0D5FD3C9809F056FA7F48007806F0CEFD8E
:200740003C9809F04FFA3D998648405E06F0C6FD854809F047FAFFE78B9802F0F9FE002867
:2007600002D0FFE700F0B1FD8048008887A908800AE071984009192805D3FFE77C4809F023
:200780006DF800F0A2FDFFE7FFE7FFE7FFE783A80078002800D1E4E36FA9A02008806CA9F5
:2007A00008200880734800686B90734800686A9072480178012000293A9006D0FFE7704893
:2007C0000088411E88413A90FFE73A990120014069AA379211700022389287A9895EFF2203
:2007E00054329142399001DC389839903798399968AA1170007800280AD0FFE7002159480B
:20080000405EC0005F4908605C49012008700EE05C490A68032050430023524AD25ED200B0
:200820008018C217920F801880100860FFE75548006800280AD4FFE752480068001DC11748
:20084000490F4018C0086DA9088009E04D480068001FC117490F4018C0086DA90880FFE7A9
:20086000002134916DA8405E09F0D4F9349A70A908806D9844490988401A84A935910880B2
:2008800042483690805E4000895E4018032108F0EDFA3599024636980280008808807EA80C
:2008A0000078002800D1CAE0002187A8405E012800DAC4E00021329170A8425E0C2050432D
:2008C000319084A83390405E09F0A4F93199329A03463398DB00C91867916DA9895E805EFB
:2008E0004843012804DBFFE7679850306790FFE76798FF21C431884204DBFFE7E12040003F
:200900006790FFE767997D20C000401A66907EA80078002840D03BE0573A2020FF7F00000D
:20092000D03A202021B20000603A20205C3A2020C93A2020CA3A2020E13A2020EE3A2020A0
:200940003C3A2020F53A2020F43A2020B83A2020683A2020D0B30000EC3A2020DFB7000071
:20096000BA3A20207C3A2020C0B70000A83A2020BEB20000143A20200C3A2020E03A2020D6
:20098000843A2020083A2020863A20207E3A20207D20C0006690FFE70021309187A8415EF6
:2009A000669848437D21C90008F060FA309965AA108064AA82201080EC48405EB52806DBBD
:2009C000FFE7EA480088463864A90880FFE7002265A8805E64A9895E884204DAFFE76498F3
:2009E00065A90880FFE7002287A8805E65A9895E884204DDFFE7659887A90880FFE700210A
:200A0000DB48405E002804DCFFE78798D849088014E0002287A82E90805ED5492F918A5EB8
:200A200011460A39521D09B212B208F013FB2E9902462F98028000880880FFE7FFE70021D3
:200A40002C9187A8415EFF225432012091422D9001DC2C982D902C992D9868AA107070A821
:200A6000405E042808DCFFE76B99092048430A2108F0FCF96B902DE0002170A8415E2820EA
:200A800048437D21C900401863906398B949884204DBFFE7E120C0006390FFE76B996398F4
:200AA00048437D21C90008F0E1F96B907EA8007800280ED0FFE7002170A8405E062808DC04
:200AC000FFE76B9946204843642108F0CFF96B90FFE7FFE7A84800686A90002170A8405E06
:200AE0000A2809DBFFE76A9905204843C117890F401880106A900FE0002170A8405E022805
:200B000009DCFFE76A9903204843C117890F401880106A90FFE7FFE77EA8007800282FD076
:200B2000FFE700212B919548405E09F073F82B9962AA1080924800686B9070A8405E042894
:200B400009DCFFE76B9903204843C117890F401880106B90FFE7002270A8805E62A9895ED5
:200B6000884205DAFFE78448006840006A9006E081480068C10F401840106A90FFE7FFE723
:200B800068A8007800282ED0FFE7002170A8405E042812DCFFE76FA92D200880002170A8C4
:200BA000415E052029900A2003292A9001DB29982A902A986CA9088014E0002170A8405E27
:200BC0000A2807DBFFE76FA97D2008806CA91220088006E06FA95A2008806CA9082008804A
:200BE000FFE7FFE723E0002170A8405E042812DCFFE76FA92D200880002170A8415E052065
:200C000027900A200329289001DB2798289028986CA908800AE0002170A8405E0A2804DB8D
:200C2000FFE76CA912200880FFE7FFE7FFE77BA80078002819D0FFE700226FA8805E7AA981
:200C4000895E884204DDFFE77A986FA90880FFE700226CA8805E78A9895E884204DDFFE7D7
:200C600078986CA90880FFE7FFE789988899401A61A9088060A90020088069A8007800286B
:200C800004D0FFE761983F4908800CE000233D49CA5E0320504361AAD25E8018820F801822
:200CA00080080880FFE77EA80078002876D0FFE709F0AAFF002871D0FFE709F011FC5FA94D
:200CC000088069A80078002805D1FFE72E48007800280AD1FFE75F982C4908802C490020BF
:200CE00008802949012008703AE05F9827490988411A5EA801800021405E1E49884206DB9C
:200D0000FFE75E98234940185EA90880FFE700215EA8405E2049884207DCFFE75E98E12105
:200D2000090140185EA90880FFE7002125915EA82690405E1321C943142208F08BF9259BF9
:200D4000269A10801249CC5E03206043D25E8018820F8018800808805F980C490880FFE73D
:200D60000B48008860A908801EE0C046A83A20207A3A2020090700000C3A2020863A202057
:200D8000143A20208C3A2020E33A2020883A20208E3A2020F0F1FFFFF7F8FFFFEE49002035
:200DA0000870EE490880FFE76B9A002124916DA8405E50436A9B84AA525E5A43801823902A
:200DC000E748415EE120400048437D21C900229108F04CF8229902462398801A08F046F895
:200DE000249A60A98A5E0621514340185D905D98002803D4FFE75D98219003E05D9840426A
:200E00002190FFE721985C907EA8007800286CD0FFE7002187A8405E012866DBFFE70C2044
:200E20005B9020205A90002170A8405E0A280EDBFFE700226DA8815E84A8805E48430028F2
:200E400005D4FFE714205B902D205A90FFE700211E9187A82090415E5B98484364211F9196
:200E600008F004F81E9A1F99034620985993825E5A98504307F0FAFF58905998132803DCD9
:200E8000FFE714205990FFE758985999884204DCFFE75998401C5890FFE75C98599988422C
:200EA00022DDFFE75C985999401A579059991D915898431A579A10465843891807F0D6FFEA
:200EC00001461D98401856905D98002804D5FFE7569840421C9002E056981C90FFE71C98CA
:200EE0005D9056985C90FFE7FFE700216FA8405E012813DBFFE75C9800226FA9895E8842AD
:200F00000CDDFFE75D9A00216FA8415E084650435C9A891807F0AAFF5D90FFE75D98002232
:200F20001B926FA98A5E514209B208F093F81B9B01466EA80180C05EF3491A91CA5E6CA95D
:200F4000CB5ED11AD21809B212B208F083F81A9A01461B9811806D99F04A1180E7490880D9
:200F600083E0E6480088E649884205D8FFE7E34908880A300880FFE77EA80078002847D05B
:200F8000FFE700211991D348415E2D204843642107F06CFF1999024655A80280405E4F2899
:200FA00004DCFFE755A950200880FFE7002287A8805E55A9895E884204DDFFE7559887A9CD
:200FC0000880FFE78798CF4908800021CE481390405E1490C9480188082015900420169097
:200FE0000720179003200B29189001D317981890169818991191129001D315981290149A85
:2010000011981299504307F031FF13990880FFE7BA48008880A90988884213DBFFE7AC48D2
:201020000078062804D1FFE7BB4808F017FC08E004F0C2F8B64900200870B64808F0D2FD4F
:20104000FFE742E1AD48008864280DD3FFE7AF480021018087A8405E652804DBFFE787A9D0
:2010600064200880FFE7FFE7FFE7A748008885A908800021AA48405E002816D0FFE7A948EF
:2010800000688B99401A01280FDBFFE7002285A81090805EA249895E40189F21C943A022EC
:2010A00007F0D8FF1099088005E09D49002008809C490860FFE77BA8007800280DD0FFE705
:2010C000002285A80F90805E79A98A5E514209B207F0C0FF0F990880FFE78798143886A986
:2010E00008807EA80078002804D0FFE7799886A90880FFE7002186A8405E002804D5FFE766
:2011000086A900200880FFE700220C9285A80B90805E86A98A5E514209B207F09BFF0B9A11
:201120000C99108087A80E90405E525E80184B22D2000D9207F08EFF0B9B0C990D9A044629
:201140000E986C4D2C80405E5B5EC01A07F082FF694908808DE0C046E33A20208E3A2020C9
:201160008C3A20205B48008854A9088009F03EF8099009F04BF801460998401A539009F097
:2011800035F80A9009F042F801460A984018C10F401840105290529900224F48805E4843AD
:2011A0004E4907F063FE519053985199401A50908B984B490968401A4C904C9849498842B2
:2011C0000BD8FFE700214348415E4C984843464908F0C8FA54A90880FFE7002154A8405E1D
:2011E000C20F801842084EA80280405E3D2804DBFFE74EA93C200880FFE73C4800684D9072
:201200004C983849884208D8FFE74D9840000021374A08F053FC4D90FFE74D9950984843AF
:201220007D21C90007F022FE002206924EA98A5E514209B207F00EFF06994FAA0592108086
:2012400054A80890405E525E801A4B22D200079207F000FF059B0699079A04460898254D08
:201260002C80405E5B5EC01807F0F4FE22490880FFE7FFE7FFE708F07BFE89A90191088048
:2012800008F08AFE0146019888AA02921180002203921849895E825E234804F0A3FA039A1F
:2012A00001460298214B049319801349895E825E1F4804F097FA039A034604981D490B802F
:2012C000805E895E06F05AF9FFE77FB00DB0B0BDE43A2020A83A2020963A202010270000FA
:2012E0001C3A2020DB050000DC050000443A202088130000783A2020A03A2020843A202034
:201300005FEA00007A3A20208A3A20207E3A2020F23A20204BB20000FAB40000863A20207D
:20132000803A2020103A202080392020703A202094392020983A202010B59CB01B901A91C0
:201340001B9808F09CFD1B9815A9052205F07AFD014614A801700078002802D1FFE700F088
:201360000AFF14A8007801280CD1FFE71598FC4906F094FD002805D0FFE7FA4808F032FC80
:2013800000F0F9FE14A8007802281CD1FFE71598FC4906F083FD002815D0FFE7169813A970
:2013A00005F034FB00280ED0FFE7139800280AD4FFE71398F449884205DCFFE7139806F06C
:2013C00005FB00F0D7FE14A8007801280BD1FFE71598EE4906F062FD002804D0FFE708F016
:2013E00023FD00F0C6FE14A80078012821D1FFE71598E74906F052FD00281AD0FFE7E5499C
:2014000000200D90087003F0D7FE0D98E2490870E2490870E2490870E2490870E2490870FB
:20142000E2490870E2490870E24808F0DBFB00F09FFE14A8007801280CD1FFE71598DE49ED
:2014400006F02CFD002805D0FFE71A9804F08AFB00F08DFE14A8007801280BD1FFE7159818
:20146000D64906F01BFD002804D0FFE706F026F900F07CFE14A8007801280BD1FFE7159812
:20148000CF4906F00BFD002804D0FFE705F0A8FD00F06BFE14A8007801280BD1FFE7159895
:2014A000C84906F0FBFC002804D0FFE705F060FC00F05AFE14A80078022815D1FFE71598DC
:2014C000C04906F0EBFC00280ED0FFE71698BE4906F0E4FC002807D0FFE708F003F9BB48D3
:2014E00008F080FB00F03FFE14A8007802281CD1FFE71598B64906F0D1FC002815D0FFE7B9
:20150000B4480078002810D1FFE71698B24906F0C5FC002809D0FFE708F0FAF9002007F01F
:20152000B3FA02F045FF00F01DFE14A8007802281CD1FFE71598A64906F0B0FC002815D041
:20154000FFE7A4480078002810D1FFE71698A34906F0A4FC002809D0FFE708F0D9F9012050
:2015600007F092FA02F024FF00F0FBFD14A8007801280BD1FFE71598994906F08FFC002894
:2015800004D0FFE702F014FF00F0EAFD14A80078022842D1FFE71598924906F07FFC00283D
:2015A0003BD0FFE7169813A905F030FA002834D0FFE71398002830D4FFE7139872498842B2
:2015C0002BDCFFE783480078002826D1FFE7139810908548007800280CD0FFE78348006829
:2015E0001099884206D1FFE710988149097807F009FD10E008F08CF904F0C8FF7C49087066
:2016000010987A4A1060784A012010701098097807F0F8FCFFE700F0A2FD14A800780128A5
:201620001DD1FFE715986F4906F038FC002816D0FFE768480078002811D1FFE708F068F9E2
:2016400004F0A4FF002804D0FFE76A4808F0CAFA03E0694808F0C6FAFFE700F07FFD14A849
:20166000007801281DD1FFE71598644906F016FC002816D0FFE757480078002811D1FFE798
:2016800002F014F9002806D0FFE75D4808F0AAFA02F08EFE03E05B4808F0A4FAFFE700F0B6
:2016A0005CFD14A80078012811D1FFE71598564906F0F4FB00280AD0FFE746480078002865
:2016C00005D1FFE71A9807F0F7FD00F045FD14A8007802281ED1FFE715984C4906F0DEFB3B
:2016E000002817D0FFE71698494906F0D7FB002810D0FFE7284901200870284900200870EC
:201700001A9844490860444808F06CFA09F042FA00F021FD14A8007802281CD1FFE7159817
:201720003A4906F0BBFB002815D0FFE716983B4906F0B4FB00280ED0FFE7174900200870CC
:201740001649012008701A9832490860344808F049FA00F0FFFC14A8007802286ED103E0DA
:201760002BB7000012B600001598284906F096FB002863D0FFE716982A4906F08FFB002810
:201780005CD051E0D2B60000FFFFFF7FF4B6000026B70000F0382020F23A2020C53A20204E
:2017A000C43A2020CC3A2020F13A2020F03A2020ED3A202018B500004AB600007BB600006B
:2017C000AAB7000090B60000A8B60000D0B20000FCB50000E43A2020B4B6000020B6000033
:2017E00096B60000FEB60000DA3A2020EC392020D93A20200EB50000DAB4000035B70000A0
:2018000036B500008DB4000044B7000066B60000CFB70000F839202062B30000EAB60000D9
:20182000F2B200005EB70000FE4900200870FE490870FE4808F0D6F900F08BFC14A8007899
:2018400002285CD1FFE71598F94906F027FB002855D0FFE7169813A905F0D8F8002809D0E1
:20186000FFE71398002805D4FFE71398F149884204DDFFE7F04808F0B5F93EE0EF480078CF
:20188000002810D0FFE71398EC49C96988420AD1FFE7EB4808F0A6F9139805F01FFDE94806
:2018A00008F0A0F928E0E8480078002806D0FFE71398E649C969884205D0FFE71398E4499A
:2018C00007F044FE17E0E1480078012804D1FFE7DE4805F021FB0DE0DC480078022804D194
:2018E000FFE7DA4804F0B4FF03E0DA4808F07AF9FFE7FFE7FFE7FFE7FFE700F029FC14A87A
:201900000078042800D085E01598D34906F0C6FA00287FD0FFE7169813A905F077F800281C
:2019200078D0FFE7179812A905F070F8002871D0FFE7189811A905F069F800286AD0FFE75B
:2019400013988121C943884264DBFFE71398822860DCFFE7129832285CDBFFE712981921C3
:201960000901884256DCFFE71198002852D4FFE71198B04988424DDCFFE711980F90B748DC
:20198000007800280BD0FFE7B54800680F99884205D1FFE70F98B34907F090FD39E0B24819
:2019A000007805280AD0FFE7AF48007806282AD1FFE7AE480078002825D1FFE7AC48007866
:2019C000002808D0FFE70021AA48405E08F022F9052805DBFFE70F98A74907F06FFDCAE3C3
:2019E0001398A64908801A9812994018A44908600F989B4908609949012008700F989949C4
:201A000007F05CFD04E00F989B4907F057FDFFE7FFE79CE314A80078032851D1FFE715985D
:201A20008D4906F03BFA00284AD0FFE7169813A904F0ECFF002843D0FFE7179812A904F0B5
:201A4000E5FF00283CD0FFE713988121C943884236DBFFE71398822832DCFFE71298322821
:201A60002EDBFFE7129819210901884228DCFFE77F480078002823D0FFE700217D48405E11
:201A800008F0C8F804281BDCFFE77748007805280AD0FFE774480078062811D1FFE773487C
:201AA000007800280CD1FFE71398744908801A981299401872490860724808F093F845E396
:201AC00014A80078032838D1FFE715986E4906F0E5F9002831D0FFE7179813A904F096FF7D
:201AE00000282AD0FFE71398002826D4FFE713989B218900884220DCFFE71698634906F03F
:201B0000CDF900280ED1FFE71698614906F0C6F9002807D1FFE716985E4906F0BFF90028F4
:201B20000BD0FFE74548002202701698007813A9895E1A9A04F0FCFE07E314A8007805280D
:201B400055D1FFE71598544906F0A8F900284ED0FFE716984D4906F0A1F9002807D1FFE7B2
:201B600016984B4906F09AF9002840D0FFE7179813A904F04BFF002839D0FFE7189812A951
:201B800004F044FF002832D0FFE7199811A904F03DFF00282BD0FFE71398002827D4FFE7A6
:201BA00013989B218900884221DCFFE712987D21C90088421BDBFFE712987D2109018842B5
:201BC00015DCFFE71198002811D4FFE71198194988420CDCFFE716980078002213A9895E04
:201BE000129A119B1A9C009405F0D2FBACE214A80078052800D092E01598284906F04EF9F5
:201C0000002800D18BE01698204906F047F9002846D1FFE716981E4906F040F900287ED034
:201C20003EE0C046F23A2020C53A202024B30000E4B50000FFFFFF7FE1B20000F0382020EE
:201C40009AB70000C0B70000DD3A2020A0382020D4B5000044B3000003B70000D83A2020C1
:201C6000E0392020C6B70000E43A2020EE3A2020E23A20207C3A202062B70000803A202063
:201C8000103A202004B5000056B70000D9B70000DBB70000DDB7000049B5000040B500004B
:201CA000179813A904F0B2FE002838D0FFE7189812A904F0ABFE002831D0FFE7199811A97D
:201CC00004F0A4FE00282AD0FFE71398502826DBFFE713984B21C900884220DCFFE7129826
:201CE0007D21890088421ADBFFE71298FD49884215DCFFE71198002811D4FFE71198FA49FF
:201D000088420CDCFFE716980078002213A9895E129A119B1A9C009405F08CFB13E214A871
:201D2000007804282BD1FFE71598F04906F0B6F8002824D0FFE7179813A904F067FE0028A5
:201D40001DD0FFE7189812A904F060FE002816D0FFE71298002812D4FFE71298E2498842C2
:201D60000DDCFFE71698139901F05CF9002806D0FFE712981699139A07F020F8E2E114A87C
:201D8000007803281BD1FFE71598D84906F086F8002814D0FFE7179813A904F037FE0028DE
:201DA0000DD0FFE71698139901F03CF9002806D0FFE7CF4807F016FF02F0FAFAC1E114A895
:201DC0000078042852D1FFE71598F14906F066F800284BD0FFE71698EA4906F05FF800289C
:201DE00007D1FFE71698E84906F058F800283DD0FFE7179813A904F009FE002836D0FFE76B
:201E0000189812A904F002FE00282FD0FFE7139850282BDBFFE713984B21C900884225DC9C
:201E2000FFE712987D21890088421FDBFFE71298D64988421ADCFFE7E94900200A9008706E
:201E40001698017803200B9002204C290C9001D00B980C900A9C0C9813A9095F129A1A9B8B
:201E600001940124009402F019FE69E114A8007803284AD1FFE71598C64906F00FF8002880
:201E800007D1FFE71598C44906F008F800283CD0FFE7169813A904F0B9FD002835D0FFE793
:201EA000179812A904F0B2FD00282ED0FFE7139850282ADBFFE713984B21C900884224DC51
:201EC000FFE712987D21890088421EDBFFE71298AE49884219DCFFE71598AF4905F0DEFFE5
:201EE00001460420089005200029099001D1089809900998002413A9095F129A1A9B01940E
:201F00000124009402F0CAFD19E114A80078042800D081E01598A14905F0C0FF00287BD006
:201F2000FFE7169813A904F071FD002874D0FFE7179812A904F06AFD00286DD0FFE71898DD
:201F400011A904F063FD002866D0FFE71398502862DBFFE71398E121490088425CDCFFE70B
:201F60001298012858DBFFE712980A2854DCFFE71198002850D4FFE71198804988424BDC45
:201F8000FFE711980E9090480078002817D0FFE78E4800680E99884211D1FFE70E9805901D
:201FA0008B4801788B488C4A06920029079001D1069807900598079907F0A4FA2BE0704838
:201FC0000078002805D0FFE70E98844907F09AFA20E0002113A8405E12A909781A9A01F04D
:201FE0000DFE01467A4801700E99784A1160764A012111700E99029101787648764A039259
:202000000029049001D1039804900298049907F079FAFFE7FFE791E014A80078032837D1BD
:20202000FFE715985D4905F039FF002830D0FFE7169813A904F0EAFC002829D0FFE7179832
:2020400012A904F0E3FC002822D0FFE7139850281EDBFFE71398E1214900884218DCFFE756
:202060001298012814DBFFE712980A2810DCFFE7002113A8405E12A909781A9A01F0BEFDF4
:20208000002804D1FFE74F4807F0ACFDFFE754E014A8007803284BD1FFE71598404905F080
:2020A000FDFE002844D0FFE7169813A904F0AEFC00283DD0FFE7179812A904F0A7FC0028B7
:2020C00036D0FFE71398502832DBFFE713984B21C90088422CDCFFE712987D2189008842CB
:2020E00026DB07E0983A0000FFFFFF7F86B700007FB5000012982549884219DCFFE7204814
:202100000078002814D1FFE713982749088012982649086026490120087026490020087021
:202120002549087025490870254807F05BFD03E01C4807F057FDFFE7FFE7FFE7FFE7FFE707
:20214000FFE7FFE7FFE7FFE7FFE7FFE7FFE7FFE7FFE7FFE7FFE7FFE7FFE7FFE7FFE7FFE71F
:20216000FFE7FFE7FFE7FFE7FFE7FFE7FFE7FFE7FFE7FFE7FFE71CB010BDC046FFFFFF7F62
:20218000E43A2020D9B70000DBB70000983A000030B70000B6B700001CB7000058B60000B8
:2021A0008AB700001DB10000583A2020BC392020F13A2020F03A2020F23A2020C43A20208A
:2021C0005AAF0000FCAF0000DC3A2020F4392020DB3A2020C6B7000062B7000049B700009D
:2021E000F038202010B5AAB0289022A90020087021A9087020A908701FA908801EA908702B
:202200001DA90870FB48007806280AD1FFE7FA480078002805D0FFE7FC480078042805D17B
:20222000FFE729A90020087000F09CFE2898F8490968401A2790F5480078012849D1FFE763
:20224000F4490A88F44802800A88F4490A80F44A1388F44C23801288F34B1A800022805E6A
:20226000895E05F08BF9279832282DD3FFE708F0CBFC002808D1FFE7EC4807F0EFFA29A973
:202280000120087000F06EFE08F0F8FBE849002018900880E7490880E7490120087007F065
:2022A00019FFE649086007F027FF01461898E44A1160E4490880E4490870D44902200870AB
:2022C0002898D3490860FFE729A90120087000F049FE08F099FC002811D1FFE7DB4800781A
:2022E000012808D1FFE7DA4807F0B8FA29A90120087000F037FED04900200870FFE707F00D
:20230000E9FECE490968401A249007F0F5FECC490968401A23902498002804D5FFE7249864
:2023200040422490FFE72398002804D5FFE7239840422390FFE7249823994018C10F401811
:202340004008C049088008F0A7FC7F210840C1490870BE48007801280ED1FFE7BD480078B6
:2023600020A903F06DFB1FA908801F98BA4908802098BA490870FFE7B9480078002820D1FC
:20238000FFE7B448007807F087FA00280BD1FFE7B4480078FF2805D0FFE7B2490878401C54
:2023A0000870FFE703E0AF4900200870FFE7AD480078022804D3FFE7A94901200870FFE7A1
:2023C0002BE0A448007807F067FA21A908709F480078012801D1FFE7FFE700229948805EED
:2023E000A149895ECA0F89184910884210DBFFE721A8007800280BD0FFE79C480078FF28F1
:2024000005D0FFE799490878401C0870FFE703E0964900200870FFE7FFE708F0F5FB0028AF
:202420002AD0FFE708F05CF826A9088082480078002811D0FFE726987E490988401A00B2C6
:2024400007F0E8FBC82807DCFFE72698794908802698774908800EE0269876490988401A85
:2024600000B207F0D7FBC92804DBFFE7724900200870FFE7FFE7FFE7289865490968401AED
:20248000279072480078012800D0C1E3289878490968401A1C9068480078002808D1FFE7AF
:2024A000744807F0DBF929A90120087000F05AFD00215F48405E07F0ADFB6F49884208DB79
:2024C000FFE76E4807F0CAF929A90120087000F049FD00225B48805E63498A5E0321514316
:2024E000884208DDFFE7664807F0B8F929A90120087000F037FD1C98C009192808D3FFE7E3
:20250000604807F0ABF929A90120087000F02AFD3E480078022805D0FFE73C4800780328EC
:2025200000D0B2E120A80078002819D0FFE7494800784006800F002812D0FFE700211FA84B
:20254000405E0A280CDBFFE700213948405EAF214900884204DBFFE74B4901200870FFE7E3
:2025600049480078002821D0FFE720A8007800281CD1FFE700212E48405EE12149008842CE
:2025800014DBFFE741480078FF2805D0FFE73F490878401C0870FFE73C480078022804D3C4
:2025A000FFE73B4901200870FFE709E038480078002804D1FFE7354900200870FFE7FFE78C
:2025C00027480078002800D18BE02F480078002800D186E02E480078002800D181E020A852
:2025E000007800287DD0FFE71A4800784007002877D003E0E43A2020EE3A202000211FA8E7
:20260000405E0521C94388426BDC43E0EE3A20203C3A2020B63A2020703A2020983A20206C
:20262000AE3A2020783A2020A03A20209BB30000BA3A2020B23A2020F93A2020483A202083
:202640004C3A2020B83A2020F43A2020573A202034B30000E13A20207C3A2020E23A2020AF
:20266000F83A2020F73A2020AC3A2020F63A2020403A2020E0B100007F04000036B100002C
:20268000B3B0000096B00000D23A2020D33A2020D43A20200021FD48405EFD49884220DB9B
:2026A000FFE70021F948405EFA49884219DCFFE70022F948805E8100F848825E03205043B4
:2026C00088420EDCFFE70022F348805EF3498A5E03215143884204DCFFE71EA90120087059
:2026E000FFE7EF480078002821D0FFE720A8007800281CD0FFE700211FA8405E07F08AFA0B
:202700000A2814DCFFE7E748007807F0C5F800280DD0FFE70022E048805E4100DF48805EFD
:20272000884204DCFFE71EA901200870FFE7DC480078002821D0FFE720A8007800281CD0D4
:20274000FFE700211FA8405E002816D4FFE7D548007805F0A1F800280FD0FFE70022CE48CD
:20276000805E8100CD48825E03205043884204DCFFE71EA901200870FFE71EA80078002813
:202780000BD0FFE7C8480078FF2805D0FFE7C6490878401C0870FFE703E0C349002008703E
:2027A000FFE7C1480078022804D3FFE722A901200870FFE700211691B448405E07F02AFA04
:2027C000169A0146B948825E0120914217900FDAFFE7B14800221492815EB048825E01201E
:2027E0009142159001DA1498159015981790FFE71799012001401DA801700078002843D000
:20280000FFE722A8007800283ED1FFE7A849002013900870A74A042111702899A64A11608E
:20282000A6490870A6490880A6490880A6490880A6490880A6490880A6490880A6490880F0
:2028400007F066F808F04CF9A44807F0CBF9A4480078401C04F042FDA248129007F0C2F90E
:2028600013998A48405E04F039FD129807F0BAF913998948405E04F031FD9B4807F0B2F9FC
:2028800029A9012008706DE3FFE78A480078052800D0B0E007F06CFB07F0BCF91BA908806A
:2028A00007F07AFB07F0B6F91AA9088087490020088087490880874908808749088027987C
:2028C00027280CD8FFE781482D2101808049874A0A800022805E895E04F050FE02E007F021
:2028E00017F8FFE72798782817D3FFE700211BA8405E0F2811DCFFE700211AA8405E0F2870
:202900000BDCFFE77A480078FF2805D0FFE778490878401C0870FFE703E07549002008709A
:20292000FFE773480078032858D3FFE720A8007800280DD0FFE75B4800786721084214D145
:20294000FFE75848007806F0A7FF00280DD1FFE727984008E12804D3FFE7664806F07EFF03
:20296000FFE729A901200870FCE205F001FF07F05DFC6149086061480078002809D0FFE7C9
:202980005F4800685F4908615F4800685F49086102E008F0A5F8FFE75D48002111910180B1
:2029A0001F98474A108047480180474801801FA8405E07F02FF901461198564A11802899B9
:2029C000554A1160554908803A490620087028983949086029A901200870C3E227984008DF
:2029E000E12804D3FFE74E4806F038FFFFE729A901200870B6E22F480078062800D006E191
:202A000020A80078002807D0FFE700211FA8405E07F000F9109002E042481090FFE71098E1
:202A200019A9088020A80078002825D1FFE73B4800883D49884205D8FFE7384908880A309F
:202A40000880FFE721490020088021490880214908802149088006F05BFF08F041F82F4828
:202A60000088B42804D3FFE7304806F0F7FEFFE729A90120087075E228480022028019A855
:202A8000805E2449895E884259DA51E0BA3A2020EE0200004C040000B83A2020AC3A20200A
:202AA000F83A2020E13A2020D53A2020AA3A2020F43A2020EE3A20203C3A2020F53A2020DB
:202AC000863A20207E3A2020843A2020703A2020983A2020783A2020A03A202032B4000012
:202AE000EC3A2020DFB70000C0B70000D3FF0000CF3A20204FB10000F0392020D13A202094
:202B0000D039202080392020D4392020943920208A3A2020623A2020CC392020643A202016
:202B2000CFB00000FF7F00005FEA00001EB000001998F14908802898F0490860FFE7F0488F
:202B4000007806F0A9FE002811D0FFE7002119A8405E06280BDCFFE7EA480078FF2805D050
:202B6000FFE7E8490878401C0870FFE703E0E54900200870FFE7E3480078052837D3FFE7B5
:202B8000FA4901200F900870F94807F02BF8F9480078401C04F0A2FBF7480D9007F022F8CC
:202BA00000210E91D848405E04F098FB0D9807F019F80E99F848405E04F090FB0D9807F0C3
:202BC00011F8F648007804F089FB0D9807F00AF80E991FA8405E04F081FBE84807F002F883
:202BE000289800F0B5FC0F9829A90870BAE12798E349884207D3FFE7E24806F02FFE29A954
:202C000001200870AEE129A900200870AAE1FFE7E4480078032827D3FFE7DE48007800283C
:202C20000CD0FFE70021E048405E7D218900884204DBFFE722A90120087014E0D548007848
:202C400000280FD1FFE70022D348805E8100D448825E03205043884204DCFFE722A90120BC
:202C60000870FFE7FFE7FFE7C948007801280ED1FFE7CE48017800200B90012001290C9082
:202C800001D80B980C900C9822A90870FFE7C048007801287BD1FFE72798DC2877D3FFE781
:202CA00022A80078002872D0FFE720A8007800286DD0FFE7B948007806F0EEFD002866D03F
:202CC000FFE7B9480088CD4905910880B2480088CB4906910880B1480078CA490791087008
:202CE0001F98C9490A910880C849002009900870C7490880A44A052111702899A34A11605A
:202D0000C4490880B5490860B5490870B5490880B5490880B5490880A9490880A9490880BC
:202D2000A9490880A949088006F0F2FD07F0D8FEB94806F057FFAE480078401C04F0CEFA1A
:202D4000B648089006F04EFF05980999405E04F0C5FA089806F046FF06980999405E04F05D
:202D6000BDFA089806F03EFF0798007804F0B6FA089806F037FF09990A98405E04F0AEFAC4
:202D8000A74806F02FFF29A901200870EAE02798C008AF280CD3FFE77D480078012807D08B
:202DA000FFE7954806F05AFD29A901200870D9E02798DC285CD3FFE775480078012857D082
:202DC000FFE722A8007800281AD1FFE771480078002808D1FFE700226F48805E7049895E63
:202DE00088420DDAFFE76B480078002840D0FFE700226D48805E6E49895E884238DBFFE7DD
:202E000022987349087060490420087028985F49086070490020049008706F4908806F49D2
:202E200008606F4908706F4908806F4908806F4908806349088063490880634908806349F2
:202E4000088006F065FD07F04BFE69480078401CC0B2684909788906090E884204DBFFE7F4
:202E6000289800F075FBFFE729A90120087079E045480078022823D1FFE72798DC281FD3CA
:202E8000FFE74448007800280CD0FFE700214648405E47490988474A1288891A09B288429D
:202EA0000ADAFFE700213C48405E3D490988193909B2884204DBFFE7334903200870FFE755
:202EC00031480078022805D1FFE700213B48405E039004E000213848405E0390FFE703980F
:202EE00025A908802A480078012824D1FFE72948007800281FD009E0623A2020CC39202084
:202F0000E13A2020F53A2020BA3A2020002101912548405E03F054FE019B014625A802906E
:202F20000180C05E1C49C95E1D4AD25E02F030FF02990880FFE72598414221480180259ABC
:202F400020490A80259A52421F4B1A80259A1F4B1A800022805E895E04F010FB29A901208B
:202F60000870FFE729A800782AB010BDF43A2020D0B30000EC3A2020DFB70000C0B700009F
:202F80009808000079B00000EE3A20203C3A2020573A2020F93A2020B83A2020E13A202079
:202FA000AC3A2020F63A2020BA3A2020D53A2020AA3A2020B43A2020B63A2020B03A20204C
:202FC000703A2020983A2020783A2020A03A2020F43A2020F53A2020863A2020083A20208A
:202FE000E03A20207E3A20207A3A2020843A2020EC3A2020EF3A2020DDB300006A3A20204A
:20300000683A2020CE3A2020663A2020CF3A2020643A20208A3A20207FB30000DFB70000B3
:20302000C0B7000080B584B0029001916946012008700298FD4904F031FF002811D0FFE751
:203040000198002805D4FFE70198F949884204DBFFE703A90020087024E20198F5490860FD
:2030600014E20298F44904F019FF002811D0FFE70198002805D4FFE70198ED49884204DB90
:20308000FFE703A9002008700CE20198E9494860FBE10298E94904F001FF002811D0FFE71A
:2030A0000198002805D4FFE70198E149884204DBFFE703A900200870F4E10198FB490860E0
:2030C000E2E10298FB4904F0E9FE002811D0FFE70198002805D4FFE70198D549884204DBA5
:2030E000FFE703A900200870DCE10198EF494860C9E10298F04904F0D1FE002811D0FFE741
:203100000198002805D4FFE70198E949884204DBFFE703A900200870C4E10198C54988605D
:20312000B0E10298E54904F0B9FE002811D0FFE70198002805D4FFE70198DD49884204DBB4
:20314000FFE703A900200870ACE10198D749886097E10298DA4904F0A1FE002812D0FFE75F
:203160000198002806D4FFE70198FF21C431884204DBFFE703A90020087093E10198F34904
:2031800088817DE10298CF4904F088FE002812D0FFE70198002806D4FFE70198FF21C4317D
:2031A000884204DBFFE703A9002008707AE10198E549888163E10298C34904F06FFE00289E
:2031C00011D0FFE70198002805D4FFE70198DC49884204DBFFE703A90020087062E101983B
:2031E000D84908604AE10298B84904F057FE002812D0FFE701984F21C943884204DBFFE7A3
:203200000198512804DBFFE703A90020087049E10198CA49088030E10298AD4904F03EFE64
:2032200000281AD0FFE7BC48007801280AD1FFE701982221C943884204DBFFE701982428D4
:2032400004DBFFE703A9002008702BE10198BA4908806946002008700EE102989D4904F08B
:203260001DFE002826D0FFE70198002805D4FFE70198A749884204DBFFE703A90020087053
:2032800010E10198AB490860A3480078012810D1FFE7A24900200880A1490870A14908808E
:2032A000A1490880A1490988A14A118069460870FFE7E0E00298884904F0F0FD002826D06E
:2032C000FFE70198002805D4FFE701989049884204DBFFE703A900200870E3E001988D4911
:2032E00008608D480078012810D1FFE78B49002008808B4908708B4908808B4908808B49D5
:2033000009888B4A118069460870FFE7B2E00298724904F0C3FD002813D0FFE70198AF21B4
:203320008900884205DBFFE701987749884204DBFFE703A900200870B4E0019873490880D7
:2033400097E00298664904F0A9FD002819D0FFE7019864280DDBFFE701984B2189008842D1
:2033600007DCFFE7019800226649895E884204DAFFE703A90020087094E001986049088023
:2033800076E00298574904F089FD002817D0FFE7019850280BDBFFE70198FA2807DCFFE7CD
:2033A000019800225649895E884204DDFFE703A90020087076E001985249088057E0029814
:2033C000494904F06BFD002812D0FFE70198322806DBFFE70198FF216031884204DBFFE77C
:2033E00003A9002008705DE00198444908803DE002983E4904F052FD002810D0FFE7019896
:20340000502804DBFFE70198FB2804DBFFE703A90020087046E001983749088025E0029844
:20342000334904F03BFD00281AD009E0A6B70000B90B00008039202082B70000B2B700002D
:203440000198322804DBFFE701988D2804DBFFE703A90020087025E001982649088003E0E5
:2034600003A9002008701DE0FFE7FFE7FFE7FFE7FFE7FFE7FFE7FFE7FFE7FFE7FFE7FFE743
:20348000FFE7FFE7FFE7FFE7FFE7FFE768460078002803D0FFE707F023FBFFE703A90120F9
:2034A0000870FFE703A8007804B080BD94392020E90300007AB7000052B700006AB7000046
:2034C0000DB700003FB70000EFB60000F9B6000082B6000074B6000004B6000022B50000EB
:2034E00064B5000052B50000C4B400009AB5000088B50000AC3A2020AE3A2020B43A20202C
:20350000B03A2020B63A20204D040000AA3A2020214E00000C3A2020573A20208A3A202012
:20352000E03A20207E3A20207A3A20207C3A2020863A2020143A20206C3A2020963A2020CB
:2035400089130000443A2020943920208039202080B58AB00890A748008807A90880A64867
:203560000078012832D1FFE70021A448405E01282CDBFFE7A148008807A90880A0480078F7
:20358000002822D0FFE79F48007800281DD0FFE700219D48405EAF218900884215DBFFE734
:2035A00000219948405E994988420EDCFFE700239749CA5E03205043934AD25E8018801CCD
:2035C000820F801880080880FFE7FFE78C48007800281AD0FFE7002107A8405E322814DBEB
:2035E000FFE7002107A8405E8C280EDCFFE700238849CA5E0320504307AAD25E8018801C0C
:20360000820F801880080880FFE783490878401C08707948007801281DD1FFE77F4806F078
:20362000E1FA7D48007803F059FE7D48059006F0D9FA002106917648405E03F04FFE059814
:2036400006F0D0FA06997348405E03F047FE754806F0C8FAFFE7744806F0C4FA6E48049065
:20366000007803F03BFE6E48039006F0BBFA00216548405E03F032FE039806F0B3FA089845
:203680006A490968401A03F029FE664806F0AAFA04980078664909788900C9B2884252DB0B
:2036A000FFE701F089FD7849002008707749087051480078012815D1FFE7754806F092FAD7
:2036C000002102915248405E03F008FE714806F089FA02994F48405E03F000FE514806F083
:2036E00081FAFFE76C4806F07DFA00214948405E03F0F4FD4B48019006F074FA674806F0E7
:2037000071FA4548007803F0E9FD019806F06AFA39480078012804D1FFE7634806F062FA93
:203720000DE002F033FF002804D0FFE75D4806F059FA03E05A4806F055FAFFE7FFE709A960
:203740000120087051E03B4900200090087008983949086006F0BEFC3849086006F0CCFC12
:2037600001460098364A116036490880364908703649087036490870364800883649088080
:203780001D480078012816D1FFE73449002008803349086033490870334908803349088051
:2037A0003349087007F030FA002803D0FFE707F065F9FFE7FFE71048007801280ED1FFE734
:2037C0002C480078002809D0FFE72B4800682B4908612B4800682B49086102E007F080F954
:2037E000FFE709A900200870FFE709A800780AB080BDC046B83A2020573A2020683A2020A8
:20380000F43A2020F93A2020BA3A20204C040000AA3A2020AC3A2020EC3A20203EB40000A1
:20382000DFB70000C0B70000A3B40000403A2020EF3A2020EE3A20203C3A2020C0392020AA
:20384000C4392020603A2020C93A2020CA3A2020F53A20207C3A2020863A20208A3A202061
:20386000083A2020E03A20207E3A20207A3A2020D03A2020D13A2020D039202080392020A9
:20388000D439202094392020F23A2020C53A2020EAB00000CFB4000068B10000A9B3000091
:2038A000B2B1000036B20000D9AF000080B5E4B07F2080026290619062980068BD49884236
:2038C00046D1FFE762984068032841D1FFE77F2080024C904C9922A8A82207F0F5F924980F
:2038E000A82810D1FFE74B98089022A805F09CF801460898884206D1FFE722A804F0C0FC7B
:20390000002804D1FFE763A9002008704DE122A905911031B84807904822069207F0D4F9F3
:203920000599069A07985831483007F0CDF9069907984A9AAF4B1A80259BAD4A1370127872
:203940005143401803F06CFC63A9012008702CE162980068974988423BD1FFE762984068CE
:20396000022836D1FFE77F208002219021990BA8582207F0A9F90D98582810D1FFE720983A
:2039800004900BA805F020F801460498884206D1FFE70BA801F004FA002804D1FFE763A9D8
:2039A0000020087001E10BA803F0DCFB904900200870904908809048039003F073FB0399D6
:2039C00008464830482207F07FF963A901200870EBE0619800684D90619840684E90619822
:2039E00080684F906198C06850906198006951906198406952906198806953906198C06951
:203A000054906198006A55906198406A56906198806A57906198C06A58906198006B5990CF
:203A20006198406B5A906198806B5B906198C06B5C906198006C5D906198406C5E9061983B
:203A4000806C5F906198C06C60904D985949884214D1FFE74E98012810D1FFE75998029001
:203A60004DA805F05FFE01460298884206D1FFE74DA802F003F9002804D1FFE763A90020A5
:203A8000087092E04F984C4A10605098506051984A49086052984860539890605498886092
:203AA00055989081569888815798454908605898444908805A98401C002817D0FFE74DA8EF
:203AC000818E0A91C08E09900A983F4988420CDCFFE709983C49884207DCFFE70A983B49B4
:203AE000086009983A490860FFE7FFE75B98AF21890088423ADBFFE75B983649884235DCA8
:203B0000FFE75C98642831DBFFE75C984B21890088422BDCFFE75D98502827DBFFE75D9863
:203B20005C99884222DCFFE75E9832281EDBFFE75E98AF214900884218DCFFE75F98502891
:203B400014DBFFE75F98FA2810DCFFE75B98224908805C98214908805D98214908805E98FC
:203B6000204908805F9820490880FFE76098322808DBFFE760988C2804DCFFE760981B499D
:203B80000880FFE71A49002008701A4908801A48019003F087FA019908464830482207F0A9
:203BA00093F863A901200870FFE763A8007864B080BDC04631444950803920209439202001
:203BC000443A2020963A2020204E0000143A20200C3A20204C040000AA3A2020B03A2020F7
:203BE000B63A2020B43A2020AE3A2020AC3A2020573A20206C3A20209037202080B586B0F0
:203C000004AB188003A80170029206F0FDFF00280FD0FFE707F046F800280AD0FFE703A806
:203C20000078002805D0FFE703A800780B2804D3FFE705A900200870BDE001F0BDFA04F097
:203C400099FB5F490620087004985E49088002985D49086003A801785C4848435C490860B7
:203C600006F0E4FA5B49086002985B4908605B49012008705A49002008705A490870029990
:203C8000594A11600299594A11600399584A1170584908705849087058490870584908703E
:203CA0005849087058480078012808D1FFE706F0ABFF002803D0FFE706F0E0FEFFE7534914
:203CC00000200190088052490880524A0121117051490870514908705149087006F0FAF92A
:203CE0005049086006F008FA014601984E4A11604E4908804E49087006F0ECF94D490860DB
:203D000006F0FAF9014601984B4A11604B4908804B4AE121490011804A4908804A49088011
:203D20004A4908604A4908704A4908804A4908804A4908804A4908804A4908604A4908601B
:203D40004A4908704A4908704A4908704A4908704A4908704A4908704A4908704A490880FB
:203D60004A4908804A4908704A4908804A4A4B4911804B4908604B4908804B4805F032FF78
:203D8000019904A8405E03F0A9FA484805F02AFF03A8007803F0A2FA454805F023FF454818
:203DA0000078002803D1FFE706F0F4FEFFE705A901200870FFE705A8007806B080BDC04690
:203DC000E43A2020A83A20201C3A202060EA0000183A2020F0392020F8392020F23A2020AB
:203DE000C43A2020EE3A20203C3A2020403A2020EF3A2020EC3A2020C93A2020CA3A202057
:203E0000F53A2020D03A2020573A2020BA3A2020B23A2020F93A2020F83A2020F73A202062
:203E2000F63A2020483A20204C3A2020B83A2020F43A2020C0392020C4392020603A20209A
:203E40005C3A20207C3A2020863A2020083A2020E03A20207E3A20208A3A20207A3A2020CA
:203E6000843A2020D0392020D4392020D13A2020D23A2020D33A2020D43A2020D53A20202D
:203E8000D63A2020CF3A20206A3A2020683A2020CE3A2020663A2020623A2020FF7F000041
:203EA000CC392020643A202074B20000DFB70000C0B70000C53A2020B0B588B0694AAF204E
:203EC000410011606420506073208000906020209081654A7D20830013605160FF21B631AE
:203EE00091601A219181614AC1001160604A32211180604A6049116060490001086060499A
:203F0000E120800008805F49B92008805E498C2008805E4AB42111805D4908805D49622050
:203F200008805D490020049008705C4908805C48039003F0B7F8039908464830482206F05F
:203F4000C3FEFFF7B3FC07A9087001F035F9049854490870544908705449086054490860E4
:203F60005449086054490860544908605449088054490880544908705449087054490870A9
:203F8000544908705449087054490860544908805449088054490860544908705449088069
:203FA00054490880544908805449088054490870544908705449088054490860544A01217E
:203FC0001170544908705449087006A90870FFE706A80078022826D8FFE706A8029000783D
:203FE00004F07CFA029A05A90870059B107806210C4644434F480355059B15780C466C4350
:2040000004196370059B15780C466C430419A37012785143411800208880FFE70698401CD3
:2040200006A90870D4E73D49002008603C49012008703C4805F0D6FD07A801783A483B4AF7
:2040400000920029019001D100980190019805F0C9FD05F0E9FE00F0ABF9354805F0C2FD24
:2040600008B0B0BD8039202094392020443A2020963A2020143A20205E1A00000C3A2020BB
:20408000AA3A2020B03A2020B63A2020B43A2020AE3A2020AC3A2020573A20206C3A20206F
:2040A00090372020F23A2020C53A20201C3A2020E8392020F8392020E4392020D839202038
:2040C000A23A20205E3A2020C43A2020CC3A2020F13A2020F03A2020ED3A2020283A20208A
:2040E0007C3A2020863A2020083A2020E03A20207E3A20208A3A20207A3A2020843A202000
:20410000E23A2020E13A2020803A2020103A2020EF3A2020EC3A2020D03A2020DC392020F6
:20412000EA3A20203DB00000F6B100009AB10000ACB20000A839202070B58EB00D9009A90B
:204140000020087094480078002801D1FFE721E10D9891498A68801A0C900D980969884209
:2041600000D2ECE00D9914318B48016140784C2804D1FFE705F0FCFE069003E005F00CFF32
:204180000690FFE706980BA90880834840784C2805D1FFE700218248405E059004E00021F3
:2041A0007E48405E0590FFE705980AA9088000210BA8405E05F02EFD77492422895E8842FF
:2041C00008DDFFE700210BA8405E05F023FD72498884FFE77048007801283BD1FFE70C98F1
:2041E0008008AF2812D3FFE700210BA8405E05F011FD0446E3176849C86A8A6A1219584141
:204200008A62C862888A401C8882FFE700210BA8405E05F0FFFC6349884207DBFFE75E49E3
:204220004822885C022318438854FFE700210BA8405E05F0EFFCE121C900884209DBFFE73D
:20424000554A4823D15C01200143D15409A90870FFE773E0504A049290880B99411A08A843
:204260000180918A491C91820021405E05F0D2FC04990446E317486B0A6B121958410A636E
:204280004863086AC968884216D1FFE700210BA8405E039040480421415E092048430A2109
:2042A00004F0E4FD0146039809B2884204DBFFE70C9839490862FFE700210AA8405EFF21F6
:2042C000F031884205DBFFE73349088B401C0883FFE70C983049CA680321514389088842EF
:2042E00018D3FFE72C490291C88A401CC88200230BA8C65EF517CA6B8C6BA4196A418C6364
:20430000CA63C45E6443486C0A6C121958410A644864FFE700210BA8405E05F07BFCE121D9
:204320008900884209DBFFE71B4A4823D15C01200143D15409A90870FFE7FFE7FFE70C9859
:204340001549C968884205D2FFE709A80078002820D0FFE710490091087807AA01921070F2
:204360001148502206F0B0FC0099104A012010700020087000F020FF01980078012804D186
:20438000FFE7094802F0C8FD03E0074802F060FAFFE7FFE70EB070BDF0382020983A202080
:2043A000703A202092090000A0382020DD3A202080B584B0554805F015FC5548007802F0F6
:2043C0008DFF544805F00EFC032002F087FF524805F008FC192002F081FF504805F002FC52
:2043E0004F480090006802F079FF4E4805F0FAFB0098406802F072FF4B4805F0F3FB4B4898
:204400000290006802F06AFF494805F0EBFB0298406802F063FF474805F0E4FB0098806862
:2044200002F05CFF444805F0DDFB0298806802F055FF424805F0D6FB00980C210191405EC9
:2044400002F04CFF3E4805F0CDFB01990298405E02F044FF3B4805F0C5FB3B48006802F0C0
:204460003DFF3A4805F0BEFB002103913848405E02F034FF374805F0B5FB03993648405EFC
:2044800002F02CFF354805F0ADFB3548006802F025FF344805F0A6FB3348006802F01EFFE6
:2044A000324805F09FFB03993148405E02F016FF304805F097FB03992F48405E02F00EFF8A
:2044C0002E4805F08FFB03992D48405E02F006FF2C4805F087FB03992B48405E02F0FEFEBB
:2044E0002A4805F07FFB03992948405E02F0F6FE284805F077FB03992748405E02F0EEFEEC
:20450000264805F06FFB04B080BDC0460CB20000573A202098B4000082B40000CCB6000044
:2045200080392020A2B60000D8B6000094392020E4B60000C6B60000C0B6000043B600000A
:204540005FB600000BB60000443A202089B60000963A20205BB500006C3A20206DB5000060
:20456000143A202076B500000C3A202026B40000AA3A2020E5B40000B03A202061B4000026
:20458000B63A2020B6B30000B43A202077B40000AE3A2020CFB40000AC3A2020C0B70000E1
:2045A00080B58CB00B90DC2004F040F8002801D1FFE7B4E005F0DCFC0AA9088005F0ECFC6E
:2045C00009A9088057480078002803D1FFE70020079005E00B9854490968401A0790FFE784
:2045E00007980890514805F0FDFA089802F076FE4F48059005F0F6FA03F010FC05F0F2FA08
:20460000059805F0EFFA002106914A480090405E02F064FE059805F0E5FA06994648029023
:20462000405E02F05BFE059805F0DCFA06990AA80190405E02F052FE059805F0D3FA069969
:2046400009A80390405E02F049FE059805F0CAFA06993A48405E02F041FE059805F0C2FAAB
:2046600006993748405E02F039FE059805F0BAFA00980199069A805E895E401A02F02EFE00
:20468000059805F0AFFA02980399069A805E895E401A02F023FE059805F0A4FA05F0A6FD0F
:2046A000049005F0B3FD01460498401A02F016FE059805F097FA06992248405E02F00EFEB6
:2046C000059805F08FFA2048007802F007FE059805F088FA1D48007802F000FE059805F075
:2046E00081FA04F05FFA02F0F9FD059805F07AFA1748007802F0F2FD059805F073FA1548F0
:20470000007802F0EBFD059805F06CFA06991248405E02F0E3FD114805F064FAFFE70CB098
:2047200080BDC046E43A20201C3A202017B70000DFB70000783A2020A03A2020703A2020E8
:20474000983A20207C3A2020E13A2020E23A2020EC3A2020EE3A2020B83A2020C0B7000023
:2047600080B588B007905E48007800280AD0FFE707985C49884201D8FFE7AFE05849002012
:204780000870FFE758480078002812D1FFE760490120032200F054FE002803D1FFE704F0AB
:2047A00065FD9BE050490120087056490020087094E0262004A90C2200F042FE002810D1E5
:2047C000FFE74F49002008704C480078032805D8FFE74A490878401C0870FFE704F046FDC5
:2047E0007CE004A8083005F0CFFC03900399084603F0B9F900280ED1FFE703983B4904F097
:2048000008FA002807D1FFE70398394904F01CFA002808D0FFE73949002008703849087090
:2048200004F024FD5AE0039803F032FA02A908803048006800282FD0FFE702982E490988AD
:20484000401A00B204F08EFA014601A801802B49097832224A43323269460A800022805EEC
:20486000895E884209DCFFE7002201A8805E6946895E494288420EDAFFE720480021017060
:2048800002A8405E02F0BAFF002803D1FFE704F0EDFC23E0FFE7FFE70298174908801749B5
:2048A00000200870164908701649087016490120087010480068002805D1FFE70E48008838
:2048C00012490880FFE70B480068401C002805D0FFE708490868401C0860FFE708B080BDB5
:2048E000FB3A202087130000FA3A20200000D0C00000D040243A2020C03A2020F33A202050
:20490000E93A2020C73A2020E73A2020C23A2020543A202080B594B01390FFE703A840217A
:2049200000F0F0FC002805D0FFE7139903A8FCF703FDF3E7139801F033FD139802F00EFF1E
:204940001398FBF7BDFB1398FFF7F6FB4548007801280ED1FFE7139843490968401A000972
:204960007D2806D3FFE700F027FC404805F03AF9FFE73F48007800280ED0FFE713983D490E
:204980000968401A142807D3FFE7139839490860139801F075FEFFE732480078022814D0C6
:2049A000FFE73048007803280FD0FFE72D48007804280AD0FFE72B480078052805D0FFE785
:2049C0002848007806282AD1FFE713982A490968401A2A490968884221D3FFE72448009073
:2049E000007802A90191087000F0E6FB0099244A002010700870234805F0F4F8019800783D
:204A000000280BD0FFE7204805F0ECF81F48008802F064FC1E4805F0E5F8FFE7FFE71848C7
:204A20000078002818D0FFE713981A490968401A142811D3FFE713981649086016480078E1
:204A4000002804D0FFE7139801F02EFC03E01398FFF7A6FDFFE7FFE7139803F095FB14B0C9
:204A600080BDC046E43A2020E839202004B10000C43A2020E43920201C3A2020183A2020BC
:204A8000F23A20204AB4000056B40000A23A2020C0B70000F8392020C53A202070B588B002
:204AA0000C4605460D980C9907AE357006AD2C800592049303AA117002A9087000F07CFB70
:204AC0003A49002008703A49087003F053FC06F09BF8002803D0FFE705F0D0FFFFE70798CB
:204AE0003449087006983449088004983349086005983349086005F099FB32490860049815
:204B00003149086004983149086003983049087002983049087030490020019008802F49F4
:204B200008802F4908602F4908702F4908802F4908802F4908802F4908802F4908702F49B5
:204B400008702F4908802F49086002A80078002808D0FFE72C49002008802C4908802C4966
:204B60000870FFE72B4805F03DF803F057F905F039F82948009005F035F8002106A8405E41
:204B800002F0ACFB009805F02DF8059802F0A6FB224805F027F803A80078002803D0FFE718
:204BA00005F0F8FFFFE708B070BDC046F13A2020F03A2020E43A2020A83A20201C3A20204D
:204BC000183A2020F0392020F8392020E4392020F23A2020C43A20207C3A2020863A20206C
:204BE000083A2020E03A20207E3A20208A3A20207A3A2020843A2020E23A2020E13A202034
:204C0000803A2020103A2020A23A20205E3A2020CC3A20200EB40000DFB70000C0B7000007
:204C200080B586B0059003F03DFE01463B4801800021415E03204843052104F017F94B21F7
:204C40008900E122920004F005FA04A9088034480078002804D1FFE70498324908800DE0AB
:204C600000233049CA5E0320504304AAD25E8018801C820F801880080880FFE72A490120F5
:204C80000870059829490860059829490860294900200390087028490870284908702849CE
:204CA00008702849087028490870284908702849087028490870284908702849088028499C
:204CC00008802849087028490880284A28491180284908602849088028480078012816D12C
:204CE000FFE72748006927490191274A029204F0E5FE0199029A254B18602548006904F030
:204D0000DDFE24490860244901200870FFE723490020088005F0E4FE06B080BD603A20203F
:204D2000EC3A20205C3A2020EE3A20203C3A2020403A2020C93A2020CA3A2020F53A202069
:204D4000D03A2020D23A2020D33A2020D43A2020D53A2020D63A2020CF3A20206A3A202056
:204D6000683A2020CE3A2020663A2020623A2020FF7F0000CC392020643A2020573A2020DB
:204D800080392020702FFCFF90D00300D039202094392020D4392020D13A2020BA3A2020FB
:204DA00080B59AB018901898C06806901898006907901898406908901898806909901898DB
:204DC000C0690A901898006A0B901898406A0C901898806A0D901898C06A0E901898006B9B
:204DE0000F9004A800F04AFF002804D1FFE719A90020087085E01898416B00200029039055
:204E000079D4FFE71898416B0020404A9142039071DCFFE71898816B0020002903906AD40A
:204E2000FFE71898816B0020384A9142039062DCFFE71898C16B0020AF22920091420390FF
:204E400059DBFFE71898C16B0020314A9142039051DCFFE71898016C0020642903904ADBC6
:204E6000FFE71898016C00204B2292009142039041DCFFE71898416C0020502903903ADB09
:204E8000FFE71898416C026C00209142039032DCFFE71898816C0020322903902BDBFFE750
:204EA0001898816C0020AF2252009142039022DCFFE71898C16C0020502903901BDBFFE7E3
:204EC0001898C16C0020FA29039014DCFFE71898016D0020322903900DDBFFE71898016D31
:204EE0000020019001208D29029001DB0198029002980390FFE703980121084019A908703F
:204F0000FFE719A800781AB080BDC046204E00004C04000080B584B0024603A80270029146
:204F20000078002828D1FFE744480078002822D1FFE74348007800281DD1FFE741480078ED
:204F4000002818D1FFE745480078022813D3FFE7424901910878401E08703D4900200870CE
:204F60003F4804F03FFE0198007802F0B7F93D4804F038FEFFE75EE003A80078012828D1AE
:204F8000FFE72E480078002822D1FFE72C48007800281DD1FFE72B480078002818D1FFE772
:204FA0002E480078092813D8FFE72C4900910878401C0870264900200870294804F012FE2B
:204FC0000098007802F08AF9264804F00BFEFFE731E01A48007800280AD1FFE7184800784F
:204FE000002805D1FFE717480078002803D0FFE703F0AAFD1FE01448007800280DD0FFE7BD
:205000001149002008700E490120087002980F490860114804F0E6FD0CE00A49012008704C
:2050200002980A4908600A4900200870094804F0D9FDFFE7FFE704B080BDC046E43A2020F4
:20504000F03A2020ED3A2020F13A2020283A2020EC3A2020B1AF00005BB00000EA3A20203D
:2050600053B30000C0B7000080B58EB021200421039105F09BF90120029001034A480A90DA
:2050800005F0BEFA2220052105F090F902990A98490305F0B5FA02980399002207920192CC
:2050A000C30409930093430408930F20049003F031FF0399079A089B0998019200900E2060
:2050C000059003F027FF049805F054F9059805F051F91F200221069105F068F9069920203A
:2050E00005F064F8352005F0AFFA362005F0ACFA192005F0A9FA182005F0A6FA312005F097
:20510000A3FA0799089A099B0091322003F0CAFF0799089A099B0091122003F0C3FF07996F
:20512000089A099B0091162003F0BCFF0799089A099B0091232003F0B5FF0799089A099B6D
:205140000091242003F0AEFF0799089A099B00911C2003F0A7FF0799089A099B00911D20DA
:2051600003F0A0FF102005F06FFA112005F06CFA0A9803210C9109060B9105F0E8FB0A98FB
:205180000B9905F03DFA0C98010208480D9005F0DEFB0D98064905F07BFA0D98054905F097
:2051A0002FFA0EB080BDC04600000A4000200A40300040003003400080B52A4900200880DE
:2051C00029490880294908802949088029490870294908602949088029490860294908705F
:2051E00029490860294908602949087029490870294908702949088029490880294908705F
:2052000029490870294908702949087029490880294908702949088029490860294908603E
:2052200029490870294908702949087029490870294908702949087029490870294908800E
:20524000294908802949087029490880294A2A4911802A4908602A49088005F041FC04F0FD
:2052600057FB80BD703A2020983A2020783A2020A03A2020E43A2020183A2020803A2020AD
:20528000103A2020EE3A20203C3A2020403A2020C93A2020CA3A2020F53A2020BA3A202082
:2052A000B23A2020F93A2020F83A2020F73A2020F63A2020B83A2020F43A2020603A202082
:2052C000D0392020D4392020D13A2020D23A2020D33A2020D43A2020D53A2020D63A202067
:2052E000CF3A20206A3A2020683A2020CE3A2020663A2020623A2020FF7F0000CC392020D8
:20530000643A202080B588B0069005A801800698002805D0FFE705A80088012804D8FFE7DD
:2053200007A9002008707BE0FFE73F4800883F490988884270D0FFE73B48009002883C49AA
:20534000895C04AA019211700088802104F0D0FB009A01460198118000780D2805D0FFE74B
:2053600004A800780A2840D1FFE732480078002801D0FFE7D9E72F49012008702E48008840
:20538000002831D0FFE72C48018802A80180008805A90988884205DBFFE70598401E02A9D9
:2053A0000880FFE703A900200880FFE703A8008802A9098888420CDAFFE703A802881F48A4
:2053C000805C06998854FFE70398401C03A90880ECE7069902A802880020885416490880DC
:2053E00007A9012008701BE015E0124900200870114800883E2809D8FFE704980E490B88ED
:205400000E4AD0540888401C088003E00A4900200880FFE7FFE788E707A900200870FFE755
:2054200007A8007808B080BDA63A2020A43A202020382020DE3A2020823A2020403920206D
:2054400080B58EB00CAB18700B910AA802700B9800280AD0FFE70AA80078002805D0FFE742
:2054600003F0B8FE002804D1FFE70DA90020087079E004F0EBFE3E4805900CA90122069291
:2054800003F032FB05983B4905F00EF90598069B002202920192022107910091232102F0C6
:2054A0003DFD079802F0B0FB002804D1FFE70DA90020087057E00AA803780020049002909B
:2054C000042001900220009029482321012202F025FD049809A90870FFE709A800780AA9F1
:2054E0000978884230DAFFE723480890FFE7204804F078FF00281AD0FFE71D4805F03CFA2D
:205500008007002806D5FFE704F0A0FE0DA90020087028E00898411E0891002806D1FFE7B6
:2055200004F094FE0DA9002008701CE0DFE7104805F036FA0B9909AA12788854FFE7099814
:20554000401C09A90870C8E7012002F05DFB002804D1FFE70DA90020087004E003F03AFE6B
:205560000DA90870FFE70DA800780EB080BDC04600200F40830400008813000080B594B0DF
:20558000014613A80E90017000780021089104F0D1FF01460E98029100780121099104F05C
:2055A000C9FF029902460E9889180391007802210B9104F0BFFF039902460E9889180491BC
:2055C000007803210D9104F0B5FF049902460E98891805910078042104F0ACFF0599024605
:2055E0000E98891806910078052104F0A3FF069902460E98891807910078062104F09AFFA7
:20560000079A089903460E98D21812AB10931A70007804F08FFF099902460E980A920078E7
:2056200004F088FF0A9A0B9903460E98D2180C92007804F07FFF0C9A0D9903460E98D21821
:205640000F92007804F076FF0F9902461098891811AA11700078032813D8FFE7134801780B
:205660000020002901901CD0FFE713A800780D2807D0FFE713A8017800200729019010D163
:20568000FFE711A8017800200329019009D3FFE713A80078062104F04DFF4142484101901C
:2056A000FFE701980121084014B080BDEC3A202080B596B049480F9005F002F80F9805F064
:2056C00097F90F9804F08EF80F9804F05BFA0023149300930120420410920E20194604F042
:2056E00039FA109A149B00930F20194604F032FA3B4812900421119105F01FF91298082111
:20570000139105F01AF91199129805F02AF91298139905F026F90520800105F0CFFA1498F7
:2057200015A90870FFE715A80078082817D8FFE72B480C9004210D9104F056FFA0200E909A
:2057400005F0BCFA0C980D9905F00BF90E9805F0B5FAFFE71598401C15A90870E3E72048BA
:2057600003900821049104F03FFFA02005F0A6FA0398049905F0F5F80520800105F09EFA04
:205780000022079201920120C10405910091430408930F2009900421069103F093FB05982A
:2057A0000699079A089B019200900E200A9003F089FB099804F0D0FD0A9804F0CDFD074893
:2057C0000B9004F0D1FF0B9804F0AAFF102005F075FA03F09BFA16B080BDC04600200F4096
:2057E00000200A4010B58EB00C900BA801800AA90A800021405E002806DCFFE70C990020BB
:2058000008610DA9088079E0002201920BA80390805E0AA9895E401A09900C980069099A72
:205820000A2151434018089008983749374A04F045F908900C980168099848437D21C900AE
:20584000029103F013FB07900C984168089848432F4903F00BFB019B029902460398069282
:205860000C9A0C24145F04949268C05E504303F0FDFA014604984018079940180699401888
:2058800005900598FF21F631884204DBFFE7099800280CDCFFE70598002804D5FFE7099844
:2058A000002804D4FFE708980C9908611DE00C98416800694843164903F0D8FA06900C98B8
:2058C0000C21415E0091816800220BA8805E48437D21C90003F0CAFA01460098401807994F
:2058E0004018069940180590FFE705987D218A00002103F0AFFB0DA90880FFE700210DA861
:20590000405E0EB010BDC046E05EF8FF20A1070040420F00B0B58EB005F0CEF805903B4854
:2059200000680D903A4800680C90059805F0BAF80D98384A1168401A0B900C9836490B686D
:20594000C01A0A900D9810600C9808600B98C117324A02920023049304F004FC049B079142
:205960000690069807992E4A039205F0C3F8029A049B09900A98C11704F0F4FB039A049B29
:20598000079106900698079905F0B4F8089009982449884203DBFFE723480990FFE708983C
:2059A0002049884203DBFFE71F480890FFE700201E4B0093195E099D032214466C43091982
:2059C000CC17A40F09198908198019490191085E089B5A438018C217920F80188008088091
:2059E00005F06AF800990246019805920988114A118000881049088010490868401C0860CC
:205A0000059805F04FF80EB0B0BDC046003A2020303A2020043A2020343A2020A0D90800AB
:205A200010270000C5090000C4090000743A20209C3A2020763A20209E3A2020383A2020D6
:205A400080B58AB0024608A8027007910021069105AA117004AA117003AA117002AA117063
:205A6000079A11700078002805D0FFE705F01AF9002804D1FFE709A9002008806BE001A96F
:205A800000200870FFE701A8007807283BD8FFE708A8007801A9097804F04CFD00282CD08B
:205AA000FFE701A801784A002D498A5E0699891806910599491C05AA11700078022804D8AE
:205AC000FFE704A901200870FFE701A80078052804D3FFE703A901200870FFE701A800785D
:205AE000032805D0FFE701A80078042804D1FFE702A901200870FFE7FFE7FFE70198401CCD
:205B000001A90870BFE705A80078002814D0FFE705A8007804280FD8FFE702A8007800283E
:205B20000ED1FFE704A80078002809D0FFE703A80078002804D0FFE709A9002008800AE04C
:205B4000079901200870069805A9097803F08EF909A90880FFE7002109A8405E0AB080BD3E
:205B600004B3000080B588B00790354804F03AF8079801F0B3FB3348049004F033F802F069
:205B80004DF904F02FF8049804F02CF8002103912D48405E01F0A2FB049804F023F8039953
:205BA0002A48405E01F09AFB049804F01BF804F0DFF901F093FB049804F014F804F0ECF9EC
:205BC00001F08CFB049804F00DF803992048405E01F084FB049804F005F803991D48405E7A
:205BE00001F07CFB049803F0FDFF1B4801781B481B4A05920029069001D105980690069815
:205C000003F0F0FF174803F0EDFF1748007801F065FB164803F0E6FF04F03AFF0146144836
:205C2000144A01920029029001D101980290029803F0D8FF104803F0D5FF08B080BDC0463D
:205C4000BCB50000DFB70000783A2020A03A2020703A2020983A2020F13A20209CB6000078
:205C600012B7000014B30000EA3A202051B6000021B700005AB70000C0B7000082B0009007
:205C8000009880684049884240DCFFE70098C0683D4988423ADCFFE7009800693A498842D5
:205CA00034DCFFE700984069374988422EDCFFE7009880697D21C900884227DCFFE7009840
:205CC000C0697D21C900884220DCFFE70098006AE1214900884219DCFFE70098406AE12152
:205CE0004900884212DCFFE70098806A274988420CDCFFE70098C06A4F21C943884205DB4B
:205D0000FFE70098C06A512804DBFFE701A90020087034E000988068002828D4FFE7009825
:205D2000C068002823D4FFE70098006900281ED4FFE700984069002819D4FFE70098806978
:205D4000002814D4FFE70098C06900280FD4FFE70098006A00280AD4FFE70098406A002843
:205D600005D4FFE70098806A002804D5FFE701A90020087003E001A901200870FFE701A804
:205D8000007802B07047C046B80B00008813000080B590B00EAB18800DA8069001800CA878
:205DA000028000210591425ED30FD21852100B92425E03205043820F801880100A90384816
:205DC000405E50218C2203F045F90599024609A80280405E0A386421782203F03BF90599F8
:205DE0000246069808AB1A80405E0B99884206DDFFE700210CA8405E002804DCFFE70E9894
:205E00000FA9088047E000210DA8405E0A99884216DBFFE700220EA8805E08A9895E88424B
:205E200005DAFFE700210EA8405E049004E0002108A8405E0490FFE704980FA908802AE0E1
:205E40000022029209A8805E039008A9895E411A0DA8805E0B9A801A48430A99891A03F0E1
:205E600005F8029A01460398401A07A908800EA8805E895E884205DAFFE700210EA8405E96
:205E8000019004E0002107A8405E0190FFE701980FA90880FFE700210FA8405E10B080BD76
:205EA000B63A2020F0B5394A8218394BC0183A4D4C790B79002C22D0466F202B02D00524AB
:205EC000E70100E0354F2E40002B00D188273E434667846F2C403C438467446B2D4E3440C8
:205EE0004463846B3440846300244465846554688F26F643344054609468344094600C6851
:205F00008979202B09D006467036002B15D1641E4460C46E2C40882715E0641E4460C46E98
:205F20002C401E4E3443C466046F2C40344304671B4D01246707064607E00527FF01640861
:205F40004460C46E2C403C43C46634682C403C433460C46A0F4D2C40C462046B2C400463DD
:205F60000024C4640465C46F8F25ED432C40C46714682C401460194302680A4B1340BD2215
:205F80000A40D118891C0160F0BDC04684180000041800008888FDFF24493E0001040000A1
:205FA000FFFFFFCF4000FFCF80B588B00020079006900590049003A9087004F015F803F00C
:205FC00071FB02F03DFC03F031FA03F0B7F802F0F7FA02F06FFEFDF76FFF04F0EBFD1520B5
:205FE000019003F09DFE019803F0F2FE2C4804F01BFC62B6FFE702F0EFFB04F059FE0699C3
:20600000401A052806D3FFE704F052FE069004F085F8FFE703A80078002816D1FFE704F0FD
:2060200047FE2049884210D3FFE7FFF741FB03F085F802F0C5FA04F03BFE059003A901203D
:206040000870194803F0CEFDFFE704F031FE0499401A0A2806D3FFE704F02AFE049003F015
:20606000A9FDFFE703A80078002811D0FFE704F01FFE0599401A0A280AD3FFE704F018FE7A
:20608000059002A800F008FA0598FEF769FBFFE704F00EFEFEF73EFC04F084FDABE7C046B7
:2060A0000000874070170000CAB1000080B588B006AB187005A8017004923948039004980D
:2060C000002804D1FFE707A90020087064E003F0A7F8002807D1FFE733490620087007A90F
:2060E0000020087058E004F0C1F82E48029005A90122019202F0F8FC019B029806A909786B
:20610000002202F02FFF02F0C7FA002805D0FFE703F086F8002804D1FFE707A9002008700B
:206120003AE006A801781F4801231A4602F01AFFFFE71C4804F064F900281BD0FFE7194833
:2061400004F024FC8007002806D5FFE704F08EF807A9002008701FE00398002806D1FFE77A
:2061600004F084F807A90020087015E00398401E0390DEE70B4804F01DFC0499087002F0BA
:206180008BFA002804D1FFE707A90020087003E007A901200870FFE707A8007808B080BD21
:2061A0008813000000200F40CB3A2020B0B53A4A80184A6842600A78222A56D8930001A487
:2061C000E3589F46616200006B620000616200006B6200006B6200006B6200006B62000018
:2061E0006B6200006B6200006B6200006B6200006B6200006B6200006B6200006B62000037
:206200006B620000516200006B620000516200006B6200006B6200006B6200006B6200004A
:206220006B6200006B6200006B6200006B6200006B6200006B6200006B6200006B620000F6
:206240006B620000516200006B62000051620000036803242407A343012464071B1903E0F4
:20626000036803242407A34303600B69C360CB68C46A0A4D25400A4C1C402B19C3620368DE
:20628000084C1C400460097A114302683F239A43194051180160B0BD041800008888FDFFB2
:2062A000777702007F00FFFF80B584B00390304803F098FC03982F490968401A01F00EF8A1
:2062C0002D48019003F08EFC002102912B48405E01F004F8019803F085FC02992848405ED3
:2062E00000F0FCFF019803F07DFC03F041FE00F0F5FF019803F076FC03F04EFE00F0EEFF7E
:20630000019803F06FFC02991E48405E00F0E6FF019803F067FC1C48007800F0DFFF0198E0
:2063200003F060FC1948007800F0D8FF019803F059FC02F037FC00F0D1FF019803F052FCCE
:206340001348007800F0CAFF019803F04BFC1148007800F0C3FF019803F044FC02990E489E
:20636000405E00F0BBFF0D4803F03CFC04B080BD92B700001C3A2020DFB70000783A2020FD
:20638000A03A20207C3A2020E13A2020E23A2020EC3A2020EE3A2020B83A2020C0B70000BF
:2063A00080B588B00790079837490968884201D1FFE766E0079834490A68801A0590079825
:2063C000086005981A2803D3FFE719200590FFE706A900200870FFE706A80078022850D861
:2063E000FFE706A8017806224A43284989180491007802F073F8014603A8017000780499E7
:206400000978884214D1FFE70498808805994018029002981E49884203D3FFE71D480190BD
:2064200002E002980190FFE701980499888006E0039804990870049900208880FFE704984E
:206440008088192804D3FFE7039804994870FFE70498807800280BD1FFE704984078002866
:2064600006D0FFE706A800780799FEF753FDFFE7049948788870FFE70698401C06A9087013
:20648000AAE708B080BDC046DC392020A839202061EA000060EA000080B582B001906946BE
:2064A000002008700198002801D1FFE763E0334800785D281BD1FFE731480078002816D03F
:2064C000FFE7684604F002FB00280CD0FFE76846007803F083F82B48007801990870019922
:2064E0000120487047E0264900200870FFE703F08FFD014621480170007800280CD1FFE7AC
:20650000042001F009FC1F480078019908701E480078019948702EE0184800785D280CD0F9
:20652000FFE7072001F0F8FB164800780199087015480078019948701DE0684604F0C6FAFC
:2065400000280CD0FFE76846007803F047F80D480078019908700199012048700BE0052097
:2065600001F0DAFB07480078019908700648007801994870FFE702B080BDC046CD3A202042
:20658000D73A2020E63A2020DF3A202080B5B6B0364802900078482104914143344803903D
:2065A000401800F07FFD02980399049A314B0A9303230B93A8230C9300780D900AA80590A0
:2065C000103004F081FB0399049A05985830483104F07AFB059800222749895E329102F0FF
:2065E00023FA3390EFF3108035903598089072B62248069003F0E0F906987F2189020791CA
:206600000122520200F070FA06980799402203F0DFFF014609A80170007803280DD1FFE768
:206620000120400200907F20810214480AAA2A2301F0B4FB09A90870FFE70898002802D19D
:20664000FFE762B6FFE709A80078032804D0FFE734A90020087004E0FDF728F934A9087085
:20666000FFE734A8007836B080BDC046573A202090372020314449506C3A202000D00C40CF
:2066800080B586B005902F480078002806D0FFE72D480088C0084B2801D3FFE750E02A4893
:2066A000019000881621414328484018049003F05FFC03A9088003F06FFC02A908800598FA
:2066C00023490968401A0021224A03F0F7F90499088021490888049A508020480288049BF5
:2066E0009A80039A049BDA80029A049B1A811C4A1288049B5A811B4A1288049B9A81098850
:20670000039A891A049AD18100880299401A0499088203F06BFD009003F078FD0146009873
:20672000401A1149114A02F095FC0499488202F039FA0199049A90820888401C0880FFE797
:2067400006B080BDC43A2020A23A2020000020201C3A2020FFFF0000783A2020A03A20200C
:20676000703A2020983A20200080FFFFFF7F000080B582B00190304803F034FA019800886F
:2067800000F0ACFD2D4803F02DFA01980221405E00F0A4FD2A48009003F024FA0198042115
:2067A000405E00F09BFD009803F01CFA01980621405E00F093FD009803F014FA01980821D9
:2067C000405E00F08BFD009803F00CFA01980A21405E00F083FD009803F004FA01980C21F1
:2067E000405E00F07BFD009803F0FCF901980E21405E00F073FD009803F0F4F9019810210B
:20680000405E00F06BFD009803F0ECF901981221405E00F063FD0B4803F0E4F90198142167
:20682000405E00F05BFD084803F0DCF9074803F0D9F902B080BDC04617B70000BAB6000013
:20684000DFB70000CCB5000027B60000C0B7000080B584B00390A02001F0E8FE002801D140
:20686000FFE759E02D4803F0BDF90398C06900F035FD2B48009003F0B5F90398417829488C
:20688000294A01924C29029001D001980290029803F0A8F90398808A00F020FD009803F084
:2068A000A1F90398006B00F019FD009803F09AF903982421405E00F011FD009803F092F982
:2068C0000398C08A00F00AFD009803F08BF90398806B00F003FD009803F084F90398006C48
:2068E00000F0FCFC009803F07DF90398006A00F0F5FC009803F076F90398008B00F0EEFCCF
:20690000009803F06FF903984821405C00F0E6FC064803F067F9FFE704B080BDAEB7000035
:20692000DFB70000D2B70000C3B70000C0B7000080B586B005AB187004A801800392284872
