:2000000000802020A593000099930000999300000000000000000000000000000000000090
:2000200000000000000000000000000099930000000000000000000099930000999300003C
:200040009993000095720000999300009993000099930000656000009993000099930000CC
:20006000000000009993000099930000000000000000000099930000FD6F00009993000064
:200080009993000099930000999300009993000099930000F5870000000000000000000008
:2000A000999300009993000000000000000000009993000000000000999300009993000064
:2000C00010B59CB01B901A911B9808F032FA1B9815A9052205F0D8F9014614A80170007898
:2000E000002802D1FFE700F00AFF14A8007801280CD1FFE71598FC4906F022FA002805D005
:20010000FFE7FA4808F0C8F800F0F9FE14A8007802281CD1FFE71598FC4906F011FA0028CC
:2001200015D0FFE7169813A904F0FEFF00280ED0FFE7139800280AD4FFE71398F449884264
:2001400005DCFFE7139805F0D9FF00F0D7FE14A8007801280BD1FFE71598EE4906F0F0F9B9
:20016000002804D0FFE708F0B9F900F0C6FE14A80078012821D1FFE71598E74906F0E0F95E
:2001800000281AD0FFE7E54900200D90087005F0E5F90D98E2490870E2490870E2490870A3
:2001A000E2490870E2490870E2490870E2490870E24808F071F800F09FFE14A8007801283E
:2001C0000CD1FFE71598DE4906F0BAF9002805D0FFE71A9804F0E2F800F08DFE14A80078CD
:2001E00001280BD1FFE71598D64906F0A9F9002804D0FFE705F048FE00F07CFE14A80078F5
:2002000001280BD1FFE71598CF4906F099F9002804D0FFE705F06EFA00F06BFE14A80078DA
:2002200001280BD1FFE71598C84906F089F9002804D0FFE705F0BEF800F05AFE14A8007894
:20024000022815D1FFE71598C04906F079F900280ED0FFE71698BE4906F072F9002807D089
:20026000FFE707F05FFDBB4808F016F800F03FFE14A8007802281CD1FFE71598B64906F03C
:200280005FF9002815D0FFE7B4480078002810D1FFE71698B24906F053F9002809D0FFE7DE
:2002A00007F090FE002006F039FF02F0B5FE00F01DFE14A8007802281CD1FFE71598A649EE
:2002C00006F03EF9002815D0FFE7A4480078002810D1FFE71698A34906F032F9002809D0EF
:2002E000FFE707F06FFE012006F018FF02F094FE00F0FBFD14A8007801280BD1FFE715984E
:20030000994906F01DF9002804D0FFE702F084FE00F0EAFD14A80078022842D1FFE71598BE
:20032000924906F00DF900283BD0FFE7169813A904F0FAFE002834D0FFE71398002830D48E
:20034000FFE71398724988422BDCFFE783480078002826D1FFE7139810908548007800289A
:200360000CD0FFE7834800681099884206D1FFE710988149097807F061F910E007F022FE0D
:2003800004F00EFD7C49087010987A4A1060784A012010701098097807F050F9FFE700F0A3
:2003A000A2FD14A8007801281DD1FFE715986F4906F0C6F8002816D0FFE768480078002810
:2003C00011D1FFE707F0FEFD04F0EAFC002804D0FFE76A4807F060FF03E0694807F05CFFB9
:2003E000FFE700F07FFD14A8007801281DD1FFE71598644906F0A4F8002816D0FFE75748FB
:200400000078002811D1FFE701F0F6FF002806D0FFE75D4807F040FF02F0FEFD03E05B485C
:2004200007F03AFFFFE700F05CFD14A80078012811D1FFE71598564906F082F800280AD07A
:20044000FFE746480078002805D1FFE71A9807F04FFA00F045FD14A8007802281ED1FFE775
:2004600015984C4906F06CF8002817D0FFE71698494906F065F8002810D0FFE728490120D8
:2004800008702849002008701A9844490860444807F002FF08F0D6FE00F021FD14A80078A2
:2004A00002281CD1FFE715983A4906F049F8002815D0FFE716983B4906F042F800280ED07D
:2004C000FFE71749002008701649012008701A9832490860344807F0DFFE00F0FFFC14A8BA
:2004E000007802286ED103E08A9C0000C99B00001598284906F024F8002863D0FFE716988F
:200500002A4906F01DF800285CD051E0F79B0000FFFFFF7F859C0000539C0000F038202052
:20052000C63A2020A33A2020A23A2020AA3A2020C53A2020C43A2020C13A20207A9A000052
:20054000989B0000919B0000079D0000279C0000E59B000085980000289B0000B83A202043
:20056000339C0000839B0000FD9B0000499C0000B03A2020E0392020AF3A2020709A00005B
:20058000D8990000949C0000989A0000469A00006C9C0000D79B0000219D0000EC3920200B
:2005A000F6980000809C000074980000E79C0000FE4900200870FE490870FE4807F06CFEBD
:2005C00000F08BFC14A8007802285CD1FFE71598F94905F0B5FF002855D0FFE7169813A9FE
:2005E00004F0A2FD002809D0FFE71398002805D4FFE71398F149884204DDFFE7F04807F04A
:200600004BFE3EE0EF480078002810D0FFE71398EC49C96988420AD1FFE7EB4807F03CFED5
:20062000139805F041FAE94807F036FE28E0E8480078002806D0FFE71398E649C969884219
:2006400005D0FFE71398E44907F0C2FA17E0E1480078012804D1FFE7DE4804F0E7FF0DE0EB
:20066000DC480078022804D1FFE7DA4804F07EFC03E0DA4807F010FEFFE7FFE7FFE7FFE7C7
:20068000FFE700F029FC14A80078042800D085E01598D34905F054FF00287FD0FFE71698AE
:2006A00013A904F041FD002878D0FFE7179812A904F03AFD002871D0FFE7189811A904F0B4
:2006C00033FD00286AD0FFE713988121C943884264DBFFE71398822860DCFFE712983228DF
:2006E0005CDBFFE7129819210901884256DCFFE71198002852D4FFE71198B04988424DDC9B
:20070000FFE711980F90B748007800280BD0FFE7B54800680F99884205D1FFE70F98B34915
:2007200007F00EFA39E0B248007805280AD0FFE7AF48007806282AD1FFE7AE48007800282E
:2007400025D1FFE7AC480078002808D0FFE70021AA48405E07F0B8FD052805DBFFE70F9874
:20076000A74907F0EDF9CAE31398A64908801A9812994018A44908600F989B4908609949FE
:20078000012008700F98994907F0DAF904E00F989B4907F0D5F9FFE7FFE79CE314A80078BA
:2007A000032851D1FFE715988D4905F0C9FE00284AD0FFE7169813A904F0B6FC002843D054
:2007C000FFE7179812A904F0AFFC00283CD0FFE713988121C943884236DBFFE713988228A1
:2007E00032DCFFE7129832282EDBFFE7129819210901884228DCFFE77F480078002823D016
:20080000FFE700217D48405E07F05EFD04281BDCFFE77748007805280AD0FFE774480078BB
:20082000062811D1FFE77348007800280CD1FFE71398744908801A981299401872490860DC
:20084000724807F029FD45E314A80078032838D1FFE715986E4905F073FE002831D0FFE772
:20086000179813A904F060FC00282AD0FFE71398002826D4FFE713989B218900884220DC4C
:20088000FFE71698634905F05BFE00280ED1FFE71698614905F054FE002807D1FFE71698AA
:2008A0005E4905F04DFE00280BD0FFE74548002202701698007813A9895E1A9A04F0C6FB15
:2008C00007E314A80078052855D1FFE71598544905F036FE00284ED0FFE716984D4905F0E9
:2008E0002FFE002807D1FFE716984B4905F028FE002840D0FFE7179813A904F015FC0028D2
:2009000039D0FFE7189812A904F00EFC002832D0FFE7199811A904F007FC00282BD0FFE704
:200920001398002827D4FFE713989B218900884221DCFFE712987D21C90088421BDBFFE7AF
:2009400012987D210901884215DCFFE71198002811D4FFE71198194988420CDCFFE71698B7
:200960000078002213A9895E129A119B1A9C009405F0F4F8ACE214A80078052800D092E086
:200980001598284905F0DCFD002800D18BE01698204905F0D5FD002846D1FFE716981E49EF
:2009A00005F0CEFD00287ED03EE0C046C63A2020A33A2020B8980000589B0000FFFFFF7FC1
:2009C00096980000F0382020C39C0000129D0000B33A2020A0382020489B0000E7980000CC
:2009E0003F9C0000AE3A2020D43920201B9D0000B83A2020C23A2020B73A2020603A202076
:200A0000AF9C0000643A2020003A20205C9A0000BB9C00002B9D00002D9D00002F9D000088
:200A2000CF9A0000AB9A0000179813A904F07CFB002838D0FFE7189812A904F075FB002825
:200A400031D0FFE7199811A904F06EFB00282AD0FFE71398502826DBFFE713984B21C900F5
:200A6000884220DCFFE712987D21890088421ADBFFE71298FD49884215DCFFE711980028F2
:200A800011D4FFE71198FA4988420CDCFFE716980078002213A9895E129A119B1A9C00947A
:200AA00005F0AEF813E214A8007804282BD1FFE71598F04905F044FD002824D0FFE7179897
:200AC00013A904F031FB00281DD0FFE7189812A904F02AFB002816D0FFE71298002812D40F
:200AE000FFE71298E24988420DDCFFE71698139901F01CFA002806D0FFE712981699139A57
:200B000006F078FCE2E114A8007803281BD1FFE71598D84905F014FD002814D0FFE7179802
:200B200013A904F001FB00280DD0FFE71698139901F0FCF9002806D0FFE7CF4807F0ACFB45
:200B400002F06AFAC1E114A80078042852D1FFE71598F14905F0F4FC00284BD0FFE7169891
:200B6000EA4905F0EDFC002807D1FFE71698E84905F0E6FC00283DD0FFE7179813A904F04E
:200B8000D3FA002836D0FFE7189812A904F0CCFA00282FD0FFE7139850282BDBFFE7139888
:200BA0004B21C900884225DCFFE712987D21890088421FDBFFE71298D64988421ADCFFE765
:200BC000E94900200A90087016980178022003220B924C290C9001D00B980C900A9C0C983B
:200BE00013A9095F129A1A9B01940124009402F037FE69E114A8007803284AD1FFE71598A4
:200C0000C64905F09DFC002807D1FFE71598C44905F096FC00283CD0FFE7169813A904F098
:200C200083FA002835D0FFE7179812A904F07CFA00282ED0FFE7139850282ADBFFE713988B
:200C40004B21C900884224DCFFE712987D21890088421EDBFFE71298AE49884219DCFFE7EF
:200C60001598AF4905F06CFC01460520042208920029099001D1089809900998002413A9F8
:200C8000095F129A1A9B01940124009402F0E8FD19E114A80078042800D081E01598A14944
:200CA00005F04EFC00287BD0FFE7169813A904F03BFA002874D0FFE7179812A904F034FA2B
:200CC00000286DD0FFE7189811A904F02DFA002866D0FFE71398502862DBFFE71398E1210D
:200CE000490088425CDCFFE71298012858DBFFE712980A2854DCFFE71198002850D4FFE70A
:200D00001198804988424BDCFFE711980E9090480078002817D0FFE78E4800680E9988424F
:200D200011D1FFE70E9805908B4801788B488C4A06920029079001D106980790059807991F
:200D400006F022FF2BE070480078002805D0FFE70E98844906F018FF20E0002113A8405E64
:200D600012A909781A9A01F051FF01467A4801700E99784A1160764A012111700E99029151
:200D800001787648764A03920029049001D1039804900298049906F0F7FEFFE7FFE791E0AA
:200DA00014A80078032837D1FFE715985D4905F0C7FB002830D0FFE7169813A904F0B4F9C3
:200DC000002829D0FFE7179812A904F0ADF9002822D0FFE7139850281EDBFFE71398E12159
:200DE0004900884218DCFFE71298012814DBFFE712980A2810DCFFE7002113A8405E12A97B
:200E000009781A9A01F002FF002804D1FFE74F4807F042FAFFE754E014A8007803284BD169
:200E2000FFE71598404905F08BFB002844D0FFE7169813A904F078F900283DD0FFE7179860
:200E400012A904F071F9002836D0FFE71398502832DBFFE713984B21C90088422CDCFFE7B7
:200E600012987D218900884226DB07E0983A0000FFFFFF7FA39C0000EA9A000012982549C6
:200E8000884219DCFFE720480078002814D1FFE71398274908801298264908602649012026
:200EA00008702649002008702549087025490870254807F0F1F903E01C4807F0EDF9FFE78F
:200EC000FFE7FFE7FFE7FFE7FFE7FFE7FFE7FFE7FFE7FFE7FFE7FFE7FFE7FFE7FFE7FFE7B2
:200EE000FFE7FFE7FFE7FFE7FFE7FFE7FFE7FFE7FFE7FFE7FFE7FFE7FFE7FFE7FFE71CB0AC
:200F000010BDC046FFFFFF7FB83A20202B9D00002D9D0000983A0000719C0000FF9C000044
:200F2000999C00009F9B0000CB9C000009970000483A2020BC392020C53A2020C43A2020C7
:200F4000C63A2020A23A20201396000092960000B23A2020E8392020B13A20201B9D0000F4
:200F6000AF9C00007B9C0000F0382020B0B5CAB0499007F0B5FC4890FB480078022816D0A4
:200F8000FFE7FE480078032811D0FFE7FB48007804280CD0FFE7F9480078052807D0FFE76F
:200FA000F6480078062802D0FFE700F0EDFC4898F3490968884202D1FFE700F0E5FC4898FB
:200FC000EF490860499800F017FD002802D0FFE700F0DAFCE9480078022809D1FFE7E94822
:200FE0000088E9490880E9490020088000F0A2FCE2480078032809D1FFE7E34900200880E6
:20100000E0480088E149088000F093FCDB480078052806D0FFE7D9480078062801D000F0E3
:2010200000FCD848008845A908804998D8490968401A4090D74801780020012923900DD186
:20104000FFE7D04800212191415E0120C929229001DB2198229022982390FFE723980121E4
:2010600008403FA908703EA923200880C3480078062809D1FFE7C8480078042804D1FFE736
:201080003EA919200880FFE7BC480078062819D1FFE7C1480078042814D1FFE7BF48008841
:2010A00045A90880BB48007801280AD1FFE7002145A8405E652804DBFFE745A9642008805D
:2010C000FFE710E04098B64988420BD8FFE70021AC48415E40984843B24906F043FE45A999
:2010E0000880FFE7FFE708F02FF901467F200140AD480170007841A903F0BEF8AB49088068
:201100004198AB4908703FA80078002879D0FFE79A480078062874D1FFE79F48007800289A
:201120006FD1FFE7A348007800286AD1FFE74098A149884265D8FFE741A80078002860D075
:20114000FFE700219948405E07F0BEF8042858DCFFE700219948405E07F0B6F8042850DC79
:20116000FFE707F09DFB1F9007F0AAFB01461F98401A3D9007F094FB209007F0A1FB01467A
:2011800020984018C10F401840103C903C9900228B48805E48438B4906F084F93B903D98E1
:2011A0003B99401A3A9088480068399040987C49884208D8FFE7399840000021834A06F014
:2011C000D7FF3990FFE739993A9848437D21C90006F068F940420E21C9430F2206F056FA69
:2011E000014638A801800022805E79491E918A5E911E921C09B212B206F048FA1E9908809B
:20120000FFE75E480078062800D005E162480078002800D07FE005F05DFE6E4908805D4839
:20122000007801282AD1FFE708F046F8002825D0FFE707F0AFFC014637A801800021405EEB
:2012400007F042F8FA280BDBFFE763480078FF2805D0FFE760490878401C0870FFE703E0A4
:201260005D4900200870FFE75B480078032804D3FFE75A4806F030FE86E303E05649002076
:201280000870FFE700225348805E5549895E884206DAFFE75349002008705349087039E0DF
:2012A00050480078072811D8FFE73F48007805F07FFA002805D0FFE74A490878401C0870E9
:2012C00003E0484900200870FFE722E03648007805F028FB00280BD0FFE743480078FF28F9
:2012E00005D0FFE740490878401C0870FFE703E03D4900200870FFE73B480078022807D38A
:20130000FFE7499804F074FB499800F075FB3BE3FFE7FFE77FE02048007804287AD1FFE7DC
:20132000499832490968401A36903698782812D3FFE71D48007805F03BFA00280BD0FFE797
:201340002B480078FF2805D0FFE729490878401C0870FFE703E0264900200870FFE72448D8
:20136000007803284BD301E0B83A2020499801F05FFD00283ED0FFE706E3C046B83A20202E
:20138000E4392020863A20205E3A20207E3A20200C3A2020473A2020C23A20208C3A202097
:2013A000DB050000DC050000B63A2020603A2020B73A2020C03A2020B80B00006C3A20204E
:2013C000743A202010270000343A202088130000523A2020503A2020AC3A2020EF9700005D
:2013E0004C3A2020A73A2020A83A20202C3A2020C93A2020EE48008845A9088009E0369810
:201400004009192804D3FFE7EA4806F065FDBBE2FFE7FFE7FFE7FFE741A80078002800D16C
:2014200048E1E5481C9000211B91405E06F04CFF1B9935AA19921080E0481A90405E06F0CA
:2014400043FF1B9902461C9834AB1A8033ABA0221A80008831AA108030AA08201080D84842
:2014600000682F90D74800682E9045A8415EFF225432012091421D9001DC1B981D901B9A3A
:201480001A991C981D9B2DAC237000880988401A42A918910880CC481790805E4000895E72
:2014A0004018032105F0FEFF179A189B1B9904461998148012881A80405E022805DCFFE754
:2014C00031A9002008802F902EE0002135A8405E042806DCFFE72F98C10F401840102F902F
:2014E00021E0002135A8405E0A281BDBFFE73FA80078002815D1FFE72DA80078002809D0A0
:20150000FFE72F9905204843C117890F40188010169003E02F9840001690FFE716982F908C
:20152000FFE7FFE7FFE7FFE7002235A8805E34A9895E884208DAFFE72E9903204843C10F9B
:20154000401840102E9008E02E9903204843C117890F401880102E90FFE7002135A8405E30
:20156000022803DCFFE700202E90FFE72DA8007800282ED0FFE7002135A8405E042812DCA9
:20158000FFE733A92D200880002135A8415E0A20052214920329159001DB14981590159875
:2015A00030A9088014E0002135A8405E0A2807DBFFE733A97D20088030A91220088006E0C6
:2015C00033A95A20088030A908200880FFE7FFE723E0002135A8405E042812DCFFE733A95D
:2015E0002D200880002135A8415E0A20052212920329139001DB12981390139830A9088080
:201600000AE0002135A8405E0A2804DBFFE730A912200880FFE7FFE7FFE73FA80078002881
:2016200017D0FFE7002233A8805E3EA9895E884204DDFFE73E9833A90880FFE7002130A88A
:20164000405E042804DBFFE730A903200880FFE7FFE72F990023119331A8C05E48432E9AD2
:2016600042A9C95E514340187D21C90005F01AFF119A33A98A5E514209B206F007F8119B99
:20168000014632A80180C05ECC491091CA5E30A9CB5ED11AD21809B212B205F0F7FF109AC1
:2016A000014611981180C4490988CC4A1180C549088038E0C3480088C349884205D8FFE78A
:2016C000C04908880A300880FFE7BE480088C0084B2813D3FFE7AD480078062804D1FFE7DE
:2016E000BD4806F0F9FB08E003F038FFB84900200870B84806F0D0FDFFE745E1B148008800
:2017000064280FD3FFE7AD4800210180AF48018045A8405E652804DBFFE745A9642008808F
:20172000FFE7FFE7FFE7A548008843A908800021AB48405E002816D0FFE7AA48006849992C
:20174000401A01280FDBFFE7002243A80F90805EA349895E40189F21C943A02205F096FF69
:201760000F99088005E09E49002008809D490860FFE73FA80078002810D0FFE7002243A837
:201780000E90805E8E49895E40183EA98A5E514209B205F07BFF0E990880FFE745991439EB
:2017A00044A801800021405E002813D50EE0C046863A202050980000603A20206A3A202053
:2017C000043A2020FC392020623A202044A900200880FFE700220B9243A80A90805E44A9B0
:2017E0008A5E514209B205F051FF0A9A0B99108045A80D90405E525E80184B22D2000C9249
:2018000005F044FF0A9B0B990C9A04460D98684D2C80405E5B5EC01A05F038FF65490880BE
:2018200086E05B4800882CA9088007F039F8089007F046F801460898401A2B9007F030F8AA
:20184000099007F03DF8014609984018C10F401840102A902A9900224E48805E48434E49D6
:2018600005F020FE29902B982999401A289049984A490968401A24902498494988420BD817
:20188000FFE700214248415E24984843454906F069FA2CA90880FFE700212CA8405EC20F43
:2018A0008018420826A80280405E3D2804DBFFE726A93C200880FFE73B4800682590249839
:2018C0003749884208D8FFE7259840000021374A06F04EFC2590FFE72599289848437D21D7
:2018E000C90005F0DFFD0022059226A98A5E514209B205F0CBFE059927AA049210802CA869
:201900000790405E525E801A4B22D200069205F0BDFE049B0599069A04460798244D2C80DE
:20192000405E5B5EC01805F0B1FE22490880FFE7FFE7FFE706F076FE47A90091088006F0C6
:2019400085FE0146009846AA01921180002202921749895E825E244802F060FB029A014698
:201960000198224B039319801249895E825E204802F054FB029A034603981E490B80805E17
:20198000895E04F0E1F9FFE74AB0B0BDB83A2020863A2020743A2020102700000C3A202068
:2019A000DB050000DC050000343A2020881300005E3A20207E3A2020603A20206C3A20208D
:2019C000523A2020683A20205FEA0000623A2020C63A2020C5970000669A00006A3A2020B4
:2019E000643A2020003A202080392020563A202094392020763A202010B590B00E9008A975
:201A00000020087007A9087006A90870FC48007806280AD1FFE7FB480078002805D0FFE796
:201A2000F8480078042804D1FFE70FA90020087027E20E98F4490968401A0D90F1480078B2
:201A4000012847D1FFE7F1490A88F14802800A88F0490A80F04A1388F04C23801288F04BFA
:201A60001A800022805E895E04F06EF90D9832282CD3FFE707F020FC002807D1FFE7E9487C
:201A800006F02AFA0FA901200870FAE107F04EFBFE49002005900880FD490880FD49012007
:201AA000087006F071FEFC49086006F07FFE01460598FB4A1160FB490880F8490870FA49C7
:201AC000022008700E98F9490860FFE70FA901200870D6E107F0F0FB002804D1FFE7F4492C
:201AE00000200870FFE706F04FFEF2490968401A0A9006F05BFEF0490968401A09900A98F7
:201B0000002804D5FFE70A9840420A90FFE70998002804D5FFE7099840420990FFE70A986E
:201B200009994018C10F40184008E449088007F00BFC7F210840E2490870E2480078002833
:201B400020D1FFE7DE48007806F01FFA00280BD1FFE7E0480078FF2805D0FFE7DD490878EF
:201B6000401C0870FFE703E0DA4900200870FFE7D8480078022804D3FFE7D24901200870F4
:201B8000FFE733E0CE48007806F0FFF907A90870CD480078012809D1FFE7C948007806A9FA
:201BA00002F06AFB069807A90870FFE70022C348805EC649895ECA0F89184910884210DB99
:201BC000FFE707A8007800280BD0FFE7C0480078FF2805D0FFE7BE490878401C0870FFE76C
:201BE00003E0BB4900200870FFE7FFE707F064FB002835D0FFE706F0CDFF01460CA80180F3
:201C00000021405E002805D5FFE70C9840420CA90880FFE7A6480078002811D0FFE70C98DB
:201C2000AD490988401A00B206F04EFBC82807DCFFE70C98A84908800C98A84908800EE0F1
:201C40000C98A5490988401A00B206F03DFBC92804DBFFE7964900200870FFE7FFE7FFE748
:201C60000E9892490968401A0D9099480078032833D3FFE78E480078002818D0FFE70021A6
:201C80009648405E0290904801787D208000039093480129049001D0039804900298049965
:201CA000884204DBFFE708A90120087014E08048007800280FD1FFE700228048805E8100E0
:201CC0008248825E03205043884204DCFFE708A901200870FFE7FFE7FFE70D98C008AF28D4
:201CE00007D3FFE7904806F0F7F80FA901200870C7E00D98DC285ED3FFE708A8007800285F
:201D00001AD1FFE76A480078002808D1FFE700226A48805E6D49895E88420DDAFFE764484F
:201D20000078002847D0FFE700226C48805E6D49895E88423FDBFFE70898724908705A4975
:201D4000042008700E98594908606F49002008706E4908806E4908806E4908805A48007810
:201D6000012808D1FFE76C4900200880684908806A490870FFE75F49002008805E49088055
:201D80005E4908805E49088006F01CF907F00AFA63480078401CC0B2624909788906090E1C
:201DA000884204DBFFE70E9801F042F8FFE70FA90120087065E03C480078022838D1FFE732
:201DC0000D98DC2834D3FFE73948007800280CD0FFE700214148405E42490988424A128800
:201DE000891A09B288421FDAFFE700213348405E36490988193909B2884219DB14E0C046CD
:201E0000B83A2020C23A20202C3A2020943A2020563A2020763A20208C3A20205E3A202002
:201E20007E3A2020219900001F4903200870FFE71D480078022805D1FFE700212C48405E11
:201E4000019004E000212948405E0190FFE701980BA908800B984142264801800B9A264968
:201E60000A800B9A5242254B1A800B9A244B1A800022805E895E03F067FF0FA90120087056
:201E8000FFE70FA8007810B010BDC046983A2020903A2020CD3A2020383A2020C83A202043
:201EA0003C3A2020963A2020C23A20202C3A2020CD3A2020383A20203C3A2020963A2020BB
:201EC000B63A2020CC3A2020473A20208A3A2020CA3A2020CB3A2020903A2020983A202022
:201EE0008A020000883A2020923A2020943A20208E3A2020563A2020763A20205E3A20209A
:201F00007E3A2020C83A2020C93A20206A3A2020623A2020683A20206C3A2020AC3A202096
:201F2000C03A2020C33A20204999000080B584B0029001916946012008700298FE4904F09E
:201F4000FFFA002811D0FFE70198002805D4FFE70198FA49884204DBFFE703A9002008706A
:201F6000F5E10198FC490860E0E10298FC4904F0E7FA002811D0FFE70198002805D4FFE761
:201F80000198EE49884204DBFFE703A900200870DDE10198F0494860C7E10298F14904F0F6
:201FA000CFFA002811D0FFE70198002805D4FFE70198E249884204DBFFE703A90020087052
:201FC000C5E10198E5490860AEE10298E64904F0B7FA002811D0FFE70198002805D4FFE7C0
:201FE0000198D649884204DBFFE703A900200870ADE10198FD49486095E10298DB4904F019
:202000009FFA002811D0FFE70198002805D4FFE70198F849884204DBFFE703A9002008700B
:2020200095E10198F24988607CE10298D04904F087FA002811D0FFE70198002805D4FFE77A
:202040000198EC49884204DBFFE703A9002008707DE10198E549886063E10298C54904F0F2
:202060006FFA002812D0FFE70198002806D4FFE70198FF21C431884204DBFFE703A900207D
:20208000087064E10198DA49888149E10298BA4904F056FA002812D0FFE70198002806D428
:2020A000FFE70198FF21C431884204DBFFE703A9002008704BE10198CC4988812FE102982C
:2020C000AE4904F03DFA002811D0FFE70198002805D4FFE70198C349884204DBFFE703A98F
:2020E0000020087033E10198BF49086016E10298A34904F025FA002812D0FFE701984F21A2
:20210000C943884204DBFFE70198512804DBFFE703A9002008701AE10198B1490880FCE017
:202120000298984904F00CFA002822D0FFE70198002805D4FFE70198A149884204DBFFE798
:2021400003A90020087002E10198A44908609E48007801280CD1FFE79C49002008809C49AE
:2021600008809C4909889C4A118069460870FFE7D2E00298844904F0E3F9002822D0FFE7F4
:202180000198002805D4FFE701988D49884204DBFFE703A900200870D9E0019889490860F1
:2021A0008948007801280CD1FFE78849002008808749088087490988874A1180694608702F
:2021C000FFE7A8E00298714904F0BAF9002813D0FFE70198AF218900884205DBFFE701988A
:2021E0007549884204DBFFE703A900200870AEE00198724908808DE00298654904F0A0F9A2
:20220000002819D0FFE7019864280DDBFFE701984B218900884207DCFFE70198002265494A
:20222000895E884204DAFFE703A9002008708EE001985F4908806CE00298564904F080F9BC
:20224000002817D0FFE7019850280BDBFFE70198FA2807DCFFE7019800225549895E88421E
:2022600004DDFFE703A90020087070E00198514908804DE00298484904F062F9002812D097
:20228000FFE70198322806DBFFE70198FF216031884204DBFFE703A90020087057E00198B1
:2022A0004249088033E002983C4904F049F9002810D0FFE70198502804DBFFE70198FB2823
:2022C00004DBFFE703A90020087040E00198364908801BE00298324904F032F9002810D0FE
:2022E000FFE70198322804DBFFE701988D2804DBFFE703A90020087029E00198294908804D
:2023000003E003A90020087021E0FFE7FFE7FFE7FFE7FFE7FFE7FFE7FFE7FFE7FFE7FFE7B3
:20232000FFE7FFE7FFE7FFE7FFE7FFE768460078002808D004E0C046F39C0000B90B0000D6
:2023400006F030FFFFE703A901200870FFE703A8007804B080BDC046803920209439202027
:20236000FB9C0000D39C00000B9D0000C79C0000A79C00005D9C0000679C00009E9C0000D3
:20238000449C0000759B0000D09B00008E9A0000A29A0000F39A0000F9990000B49A000011
:2023A000FC9A00008A3A20208C3A2020923A20208E3A2020943A20204D040000883A202008
:2023C000214E0000FC392020473A20206C3A2020623A2020603A20206A3A2020043A20205A
:2023E000743A202089130000343A20209439202080392020E903000080B5E4B07F208002C9
:202400006290619062980068B949884243D1FFE76298406803283ED1FFE77F2080024C90F2
:202420004C9922A8A82206F0ADFF2498A82810D1FFE74B98089022A804F040FE01460898D0
:20244000884206D1FFE722A804F0A8FC002804D1FFE763A90020087046E122A90591103143
:20246000B34807904822069206F08CFF0599069A07985831483006F085FF06990798259BF1
:20248000AA4A137012785143401803F053FA63A90120087028E1629800689549884239D14D
:2024A000FFE762984068022834D1FFE77F208002219021990BA8582206F064FF0D98582848
:2024C00010D1FFE7209804900BA804F0C7FD01460498884206D1FFE70BA801F007F9002848
:2024E00004D1FFE763A900200870FDE00BA803F0C3F98E49002008708D48039003F05CF91F
:20250000039908464830482206F03CFF63A901200870E9E0619800684D90619840684E9093
:20252000619880684F906198C0685090619800695190619840695290619880695390619855
:20254000C06954906198006A55906198406A56906198806A57906198C06A58906198006B64
:2025600059906198406B5A906198806B5B906198C06B5C906198006C5D906198406C5E9020
:202580006198806C5F906198C06C60904D985849884214D1FFE74E98012810D1FFE7599870
:2025A00002904DA805F0FEFB01460298884206D1FFE74DA801F07EFF002804D1FFE763A9EC
:2025C0000020087090E04F984A4A1060509850605198494908605298486053989060549834
:2025E000886055989081569888815798434908605898434908805A98401C002817D0FFE7D4
:202600004DA8818E0A91C08E09900A983D4988420CDCFFE709983B49884207DCFFE70A981A
:2026200039490860099839490860FFE7FFE75B98AF21890088423ADBFFE75B98344988420E
:2026400035DCFFE75C98642831DBFFE75C984B21890088422BDCFFE75D98502827DBFFE71C
:202660005D985C99884222DCFFE75E9832281EDBFFE75E98AF214900884218DCFFE75F98E9
:20268000502814DBFFE75F98FA2810DCFFE75B98204908805C98204908805D981F49088054
:2026A0005E981F4908805F981E490880FFE76098322808DBFFE760988C2804DCFFE76098E3
:2026C00019490880FFE71949002008701848019003F072F8019908464830482206F052FED2
:2026E00063A901200870FFE763A8007864B080BD314449508039202094392020343A2020B9
:20270000743A2020204E0000043A2020FC3920204C040000883A20208E3A2020943A202002
:20272000923A20208C3A20208A3A2020473A20209037202070B58EB00D9009A90020087071
:2027400094480078002801D1FFE721E10D9891498A68801A0C900D980969884200D2ECE01D
:202760000D9914318B48016140784C2804D1FFE705F058FF069003E005F068FF0690FFE7B5
:2027800006980BA90880834840784C2805D1FFE700218248405E059004E000217E48405E25
:2027A0000590FFE705980AA9088000210BA8405E05F08AFD77492422895E884208DDFFE756
:2027C00000210BA8405E05F07FFD72498884FFE77048007801283BD1FFE70C988008AF281B
:2027E00012D3FFE700210BA8405E05F06DFD0446E3176849C86A8A6A121958418A62C86248
:20280000888A401C8882FFE700210BA8405E05F05BFD6349884207DBFFE75E494822885C68
:20282000022318438854FFE700210BA8405E05F04BFDE121C900884209DBFFE7554A48233E
:20284000D15C01200143D15409A90870FFE773E0504A049290880B99411A08A80180918ACB
:20286000491C91820021405E05F02EFD04990446E317486B0A6B121958410A634863086AAA
:20288000C968884216D1FFE700210BA8405E039040480421415E092048430A2104F002FE4C
:2028A0000146039809B2884204DBFFE70C9839490862FFE700210AA8405EFF21F0318842FA
:2028C00005DBFFE73349088B401C0883FFE70C983049CA68032151438908884218D3FFE723
:2028E0002C490291C88A401CC88200230BA8C65EF517CA6B8C6BA4196A418C63CA63C45E00
:202900006443486C0A6C121958410A644864FFE700210BA8405E05F0D7FCE1218900884293
:2029200009DBFFE71B4A4823D15C01200143D15409A90870FFE7FFE7FFE70C981549C96837
:20294000884205D2FFE709A80078002820D0FFE710490091087807AA0192107011485022D0
:2029600006F010FD0099104A012010700020087002F0F4FD01980078012804D1FFE70948FF
:2029800002F054FE03E0074802F0F0FAFFE7FFE70EB070BDF0382020763A2020563A202006
:2029A00092090000A0382020B33A2020B0B588B0654AAF2041001160642050607320800023
:2029C000906020209081614A7D20830013605160FF21B63191601A2191815D4AC1001160A9
:2029E0005C4A322111805C4A5C4911605C49000108605C49E120800008805B49B9200880D0
:202A00005A498C2008805A4AB4211180594908805949622008805949002004900870584891
:202A2000039002F0C9FE039908464830482206F0A9FCFFF7E1FC07A9087002F08FFD0498CE
:202A400050490870504908705049086050490860504908605049086050490860504908802E
:202A60005049088050490870504908705049087050490870504908705049086050490880BE
:202A800050490880504908805049088050490880504908705049087050490880504908606E
:202AA000504A01211170504908705049087006A90870FFE706A80078022826D8FFE706A8C8
:202AC0000290007804F020F8029A05A90870059B107806210C4644434B480355059B1578DE
:202AE0000C466C4304196370059B15780C466C430419A37012785143411800208880FFE702
:202B00000698401C06A90870D4E7394900200860384901200870384805F0BEFB07A801785F
:202B20003648374A00920029019001D100980190019805F0B1FB05F0D1FC00F06DFA314883
:202B400005F0AAFB08B0B0BD8039202094392020343A2020743A2020043A20205E1A00001E
:202B6000FC392020883A20208E3A2020943A2020923A20208C3A20208A3A2020473A2020F1
:202B800090372020C63A2020A33A20200C3A2020DC392020EC392020D8392020CC392020FB
:202BA000803A20204E3A2020A23A2020AA3A2020C53A2020C43A2020C13A2020183A2020C9
:202BC000603A20206A3A2020623A20206C3A2020683A2020B73A2020B63A2020643A202054
:202BE000003A2020C33A2020C03A2020AC3A2020D0392020BE3A2020B49600009A970000C2
:202C00006C9700003E980000A839202080B586B004AB188003A80170029206F04DFB0028F2
:202C20000FD0FFE706F096FB00280AD0FFE703A80078002805D0FFE703A800780B2804D32D
:202C4000FFE705A90020087098E002F087FC03F0A7FE4C490620087004984B49088002983E
:202C60004A49086003A80178494848434949086005F036FE484908600298484908604849D9
:202C800001200870474900200870474908700299464A11600299464A11600399454A117087
:202CA000454908704549087045490870454908704549087045480078012808D1FFE706F013
:202CC000FBFA002803D0FFE706F030FAFFE740490020019008803F4908803F4A012111701A
:202CE0003E4908703E4908703E49087005F04CFD3D49086005F05AFD014601983B4A116089
:202D00003B4908803B49087005F03EFD3A49086005F04CFD01460198384A11603849088076
:202D2000384AE1214900118037490880374908803749088037490880374908803749088005
:202D4000374805F0A9FA019904A8405E02F0ACFE344805F0A1FA03A8007802F0A5FE32489E
:202D600005F09AFA31480078002803D1FFE706F069FAFFE705A901200870FFE705A8007866
:202D800006B080BDB83A2020863A20200C3A202060EA0000083A2020E4392020EC392020FA
:202DA000C63A2020A23A2020C23A20202C3A2020303A2020C33A2020C03A2020A73A202093
:202DC000A83A2020C93A2020AC3A2020473A2020983A2020903A2020CD3A2020CC3A2020FE
:202DE000CB3A2020CA3A2020383A20203C3A2020963A2020C83A2020C0392020C43920201A
:202E0000503A20204C3A2020603A20206A3A2020623A20206C3A2020683A2020523A2020F4
:202E20002B980000319D0000129D0000A33A202080B588B006905A48007800281AD0FFE720
:202E400000215848405E322814DBFFE700215548405E8C280EDCFFE700235349CA5E0320FA
:202E60005043504AD25E8018801C820F801880080880FFE74D4905910878401C08704C488E
:202E800005F00AFA0598007802F00EFE4948049005F002FA00214848405E02F005FE049830
:202EA00005F0FAF9069845490968401A02F0FCFD434805F0F1F9059800784249097889062E
:202EC000090E88422FDBFFE702F048FB4C490020029008704B4908704B4805F0DDF9029928
:202EE0003148405E02F0E0FD3548039005F0D4F9464805F0D1F92D48007802F0D5FD039881
:202F000005F0CAF901F04CFF002804D0FFE7414805F0C2F903E03E4805F0BEF9FFE707A9F7
:202F20000120087037E0284900200190087006982649086005F028FC2549086005F036FCBC
:202F400001460198234A11602349088023490870234908702349087023480088234908802C
:202F600023480078012810D1FFE7224900200880214908802149087006F09EF9002803D00F
:202F8000FFE706F0D3F8FFE7FFE706F00BF907A900200870FFE707A8007808B080BDC04674
:202FA000C83A2020963A20208A3A2020C03A2020259A0000319D0000983A2020303A202038
:202FC000129D0000C33A2020C23A20202C3A2020C0392020C4392020503A2020A73A2020C2
:202FE000A83A2020C93A2020603A20206A3A2020473A20206C3A2020623A2020AC3A202005
:20300000C63A2020A33A20203B9700005699000054970000DA97000080B586B0514805F03D
:203020003BF95148007802F03FFD504805F034F90320019002F038FD4D4805F02DF901983F
:2030400002F032FD4B4805F027F94B480290006802F02AFD494805F01FF90298406802F02F
:2030600023FD474805F018F946480490006802F01BFD454805F010F90498406802F014FD35
:20308000424805F009F90298806802F00DFD404805F002F90498806802F006FD3D4805F0C6
:2030A000FBF802980C210391405E02F0FDFC3A4805F0F2F803990498405E02F0F5FC3748A0
:2030C00005F0EAF83648006802F0EEFC354805F0E3F8002105913448405E02F0E5FC3348EB
:2030E00005F0DAF83248006802F0DEFC314805F0D3F83148006802F0D7FC304805F0CCF84B
:2031000005992F48405E02F0CFFC2E4805F0C4F805992D48405E02F0C7FC2C4805F0BCF895
:2031200005992B48405E02F0BFFC2A4805F0B4F805992948405E02F0B7FC284805F0ACF8C5
:2031400005992748405E02F0AFFC264805F0A4F805992548405E02F0A7FC244805F09CF8F5
:2031600006B080BDB0970000473A2020EE990000E3990000219C000080392020039C0000FC
:203180002D9C000094392020399C00001B9C00000F9C00008A9B0000AD9B0000609B0000BA
:2031A000343A2020DE9B0000743A2020D89A0000043A2020E19A0000FC3920206F99000012
:2031C000883A20200F9A00008E3A2020309A0000943A20203C990000923A2020C299000028
:2031E0008C3A2020CD9900008A3A2020129D000080B58CB00B90DC2003F02EFD002801D190
:20320000FFE7B4E005F00EFA0AA9088005F01EFA09A9088057480078002803D1FFE700209C
:20322000079005E00B9854490968401A0790FFE707980890514805F02FF8089802F034FCDC
:203240004F48059005F028F803F03AF905F024F8059805F021F8002106914A480090405ED3
:2032600002F022FC059805F017F8069946480290405E02F019FC059805F00EF806990AA850
:203280000190405E02F010FC059805F005F8069909A80390405E02F007FC059804F0FCFF70
:2032A00006993A48405E02F0FFFB059804F0F4FF06993748405E02F0F7FB059804F0ECFFC3
:2032C00000980199069A805E895E401A02F0ECFB059804F0E1FF02980399069A805E895E18
:2032E000401A02F0E1FB059804F0D6FF05F0D8FA049005F0E5FA01460498401A02F0D4FB13
:20330000059804F0C9FF06992248405E02F0CCFB059804F0C1FF2048007802F0C5FB059874
:2033200004F0BAFF1D48007802F0BEFB059804F0B3FF03F081FF02F0B7FB059804F0ACFFC2
:203340001748007802F0B0FB059804F0A5FF1548007802F0A9FB059804F09EFF0699124832
:20336000405E02F0A1FB114804F096FFFFE70CB080BDC046B83A20200C3A20208F9C000077
:20338000319D00005E3A20207E3A2020563A2020763A2020603A2020B63A2020B73A202094
:2033A000C03A2020C23A2020963A2020129D000080B588B007905E48007800280AD0FFE7CE
:2033C00007985C49884201D8FFE7AFE0584900200870FFE758480078002812D1FFE76049C0
:2033E0000120032200F0E2FC002803D1FFE704F059FA9BE0504901200870564900200870AC
:2034000094E0262004A90C2200F0D0FC002810D1FFE74F49002008704C480078032805D828
:20342000FFE74A490878401C0870FFE704F03AFA7CE004A8083005F001FA03900399084604
:2034400005F0BEFD00280ED1FFE703983B4903F07DFD002807D1FFE70398394903F094FDBC
:20346000002808D0FFE73949002008703849087004F018FA5AE0039802F05CFF02A90880F8
:203480003048006800282FD0FFE702982E490988401A00B203F082FF014601A801802B4938
:2034A000097832224A43323269460A800022805E895E884209DCFFE7002201A8805E694639
:2034C000895E494288420EDAFFE720480021017002A8405E02F078FD002803D1FFE704F063
:2034E000E1F923E0FFE7FFE70298174908801749002008701649087016490870164901207B
:20350000087010480068002805D1FFE70E48008812490880FFE70B480068401C002805D0D4
:20352000FFE708490868401C0860FFE708B080BDCF3A202087130000CE3A20200000D0C08A
:203540000000D040143A20209E3A2020C73A2020BD3A2020A53A2020BB3A2020A03A2020CF
:20356000443A202080B594B01390FFE703A8402100F07EFB002805D0FFE7139903A8FCF7E9
:203580009FFDF3E7139801F09DFA139802F0CCFC1398FDF7EBFC1398FFF7CCF8454800782D
:2035A00001280ED1FFE7139843490968401A00097D2806D3FFE701F0D1FF404804F06CFE07
:2035C000FFE73F48007800280ED0FFE713983D490968401A142807D3FFE71398394908608D
:2035E000139801F065FBFFE732480078022814D0FFE73048007803280FD0FFE72D48007836
:2036000004280AD0FFE72B480078052805D0FFE72848007806282AD1FFE713982A49096865
:20362000401A2A490968884221D3FFE724480090007802A90191087001F090FF0099244AF8
:20364000002010700870234804F026FE0198007800280BD0FFE7204804F01EFE1F4800886E
:2036600002F022FA1E4804F017FEFFE7FFE718480078002818D0FFE713981A490968401A5A
:20368000142811D3FFE713981649086016480078002804D0FFE7139801F098F903E013983F
:2036A000FFF7A6FDFFE7FFE7139803F0BFF814B080BDC046B83A2020DC392020F09600003C
:2036C000A23A2020D83920200C3A2020083A2020C63A2020AB990000B7990000803A2020A7
:2036E000129D0000EC392020A33A202080B59AB018901898C06806901898006907901898A4
:20370000406908901898806909901898C0690A901898006A0B901898406A0C901898806A7E
:203720000D901898C06A0E901898006B0F9004A800F0C0FE002804D1FFE719A90020087023
:2037400085E01898416B00200029039079D4FFE71898416B0020404A9142039071DCFFE7FA
:203760001898816B0020002903906AD4FFE71898816B0020384A9142039062DCFFE7189835
:20378000C16B0020AF2292009142039059DBFFE71898C16B0020314A9142039051DCFFE70A
:2037A0001898016C0020642903904ADBFFE71898016C00204B2292009142039041DCFFE7FC
:2037C0001898416C0020502903903ADBFFE71898416C026C00209142039032DCFFE7189870
:2037E000816C0020322903902BDBFFE71898816C0020AF2252009142039022DCFFE7189808
:20380000C16C0020502903901BDBFFE71898C16C0020FA29039014DCFFE71898016D0020AC
:20382000322903900DDBFFE71898016D0120002201928D29029001DB01980290029803905C
:20384000FFE703980121084019A90870FFE719A800781AB080BDC046204E00004C04000059
:2038600070B588B00C4605460D980C9907AE357006AD2C800592049303AA117002A90870CC
:2038800001F06CFE3749002008703749087003F087F805F011FD002803D0FFE705F046FC30
:2038A000FFE707983149087006983149088004983049086005983049086005F011F82F4980
:2038C000086004982E49086004982E49086003982D49087002982D4908702D490020019052
:2038E00008802C4908802C4908802C4908802C4908802C4908702C4908702C4908802C4900
:20390000086002A80078002808D0FFE72949002008802949088029490870FFE7284804F0EF
:20392000BBFC02F0CDFD04F0B7FC2648009004F0B3FC002106A8405E02F0B6F8009804F033
:20394000ABFC059802F0B0F81F4804F0A5FC03A80078002803D0FFE705F074FCFFE708B086
:2039600070BDC046C53A2020C43A2020B83A2020863A20200C3A2020083A2020E439202000
:20398000EC392020D8392020C63A2020A23A2020603A20206A3A2020623A20206C3A202095
:2039A000683A2020B73A2020B63A2020643A2020003A2020803A20204E3A2020AA3A202086
:2039C00093990000319D0000129D000080B584B0024603A8027002910078002828D1FFE75E
:2039E00044480078002822D1FFE74348007800281DD1FFE741480078002818D1FFE745483E
:203A00000078022813D3FFE7424901910878401E08703D49002008703F4804F03DFC01985A
:203A2000007802F041F83D4804F036FCFFE75EE003A80078012828D1FFE72E4800780028D3
:203A400022D1FFE72C48007800281DD1FFE72B480078002818D1FFE72E480078092813D8B9
:203A6000FFE72C4900910878401C0870264900200870294804F010FC0098007802F014F880
:203A8000264804F009FCFFE731E01A48007800280AD1FFE718480078002805D1FFE71748EA
:203AA0000078002803D0FFE703F098FB1FE01448007800280DD0FFE71149002008700E4920
:203AC0000120087002980F490860114804F0E4FB0CE00A490120087002980A4908600A4947
:203AE00000200870094804F0D7FBFFE7FFE704B080BDC046B83A2020C43A2020C13A2020A9
:203B0000C53A2020183A2020C03A20206A960000D2960000BE3A2020D8980000129D0000DB
:203B200080B58EB021200421039104F099FF0120029001034A480A9005F0AEF822200521A6
:203B400004F08EFF02990A98490305F0A5F802980399002207920192C30409930093430408
:203B600008930F20049003F0F1FC0399079A089B0998019200900E20059003F0E7FC04982E
:203B800004F052FF059804F04FFF1F200221069104F066FF0699202004F062FE352005F032
:203BA0009FF8362005F09CF8192005F099F8182005F096F8312005F093F80799089A099B5E
:203BC0000091322003F08AFD0799089A099B0091122003F083FD0799089A099B00911620BF
:203BE00003F07CFD0799089A099B0091232003F075FD0799089A099B0091242003F06EFD21
:203C00000799089A099B00911C2003F067FD0799089A099B00911D2003F060FD102005F071
:203C20005FF8112005F05CF80A9803210C9109060B9105F0E4F90A980B9905F02DF80C98CF
:203C4000010208480D9005F0DAF90D98064905F06BF80D98054905F01FF80EB080BDC04660
:203C600000000A4000200A40300040003003400080B588B0069005A801800698002805D0E1
:203C8000FFE705A80088012804D8FFE707A9002008707BE0FFE73F4800883F4909888842A3
:203CA00070D0FFE73B48009002883C49895C04AA019211700088802104F074FA009A0146A9
:203CC0000198118000780D2805D0FFE704A800780A2840D1FFE732480078002801D0FFE734
:203CE000D9E72F49012008702E480088002831D0FFE72C48018802A80180008805A90988F7
:203D0000884205DBFFE70598401E02A90880FFE703A900200880FFE703A8008802A9098856
:203D200088420CDAFFE703A802881F48805C06998854FFE70398401C03A90880ECE7069977
:203D400002A80288002088541649088007A9012008701BE015E0124900200870114800883F
:203D60003E2809D8FFE704980E490B880E4AD0540888401C088003E00A4900200880FFE7DC
:203D8000FFE788E707A900200870FFE707A8007808B080BD843A2020823A202020382020F2
:203DA000B43A2020663A20204039202080B58EB00CAB18700B910AA802700B9800280AD025
:203DC000FFE70AA80078002805D0FFE703F01EFD002804D1FFE70DA90020087079E004F064
:203DE0008FFD3E4805900CA90122069203F0C6F905983B4904F0A4FF0598069B002202924E
:203E00000192022107910091232102F0D9FB079802F04CFA002804D1FFE70DA900200870B1
:203E200057E00AA80378002004900290042001900220009029482321012202F0C1FB04984F
:203E400009A90870FFE709A800780AA90978884230DAFFE723480890FFE7204804F01CFEDC
:203E600000281AD0FFE71D4805F0DEF88007002806D5FFE704F044FD0DA90020087028E01F
:203E80000898411E0891002806D1FFE704F038FD0DA9002008701CE0DFE7104805F0D8F84F
:203EA0000B9909AA12788854FFE70998401C09A90870C8E7012002F0F9F9002804D1FFE7A1
:203EC0000DA90020087004E003F0A0FC0DA90870FFE70DA800780EB080BDC04600200F4070
:203EE000830400008813000080B596B049480F9004F032FF0F9805F0D3F80F9803F092FF3E
:203F00000F9804F099F90023149300930120420410920E20194604F077F9109A149B009331
:203F20000F20194604F070F93B4812900421119105F05BF812980821139105F056F81199FE
:203F4000129805F066F81298139905F062F80520800105F011FA149815A90870FFE715A894
:203F60000078082817D8FFE72B480C9004210D9104F086FEA0200E9005F0FEF90C980D99E6
:203F800005F047F80E9805F0F7F9FFE71598401C15A90870E3E7204803900821049104F0C6
:203FA0006FFEA02005F0E8F90398049905F031F80520800105F0E0F90022079201920120C5
:203FC000C10405910091430408930F2009900421069103F093FA05980699079A089B0192FC
:203FE00000900E200A9003F089FA099804F00EFD0A9804F00BFD07480B9004F001FF0B9834
:2040000004F0DAFE102005F0B7F903F09BF916B080BDC04600200F4000200A4010B58EB093
:204020000C900BA801800AA90A800021405E002806DCFFE70C99002008610DA9088079E0FF
:20404000002201920BA80390805E0AA9895E401A09900C980069099A0A215143401808909B
:2040600008983749374A04F083F808900C980168099848437D21C900029103F013FA0790CE
:204080000C984168089848432F4903F00BFA019B02990246039806920C9A0C24145F0494A5
:2040A0009268C05E504303F0FDF9014604984018079940180699401805900598FF21F631C9
:2040C000884204DBFFE7099800280CDCFFE70598002804D5FFE70998002804D4FFE708980F
:2040E0000C9908611DE00C98416800694843164903F0D8F906900C980C21415E00918168D1
:2041000000220BA8805E48437D21C90003F0CAF90146009840180799401806994018059089
:20412000FFE705987D218A00002103F0AFFA0DA90880FFE700210DA8405E0EB010BDC046EE
:20414000E05EF8FF20A1070040420F00B0B58EB005F014F805903B4800680D903A48006826
:204160000C90059805F000F80D98384A1168401A0B900C9836490B68C01A0A900D98106065
:204180000C9808600B98C117324A02920023049304F042FB049B07910690069807992E4A1A
:2041A000039204F0D7FF029A049B09900A98C11704F032FB039A049B079106900698079989
:2041C00004F0C8FF089009982449884203DBFFE723480990FFE708982049884203DBFFE76F
:2041E0001F480890FFE700201E4B0093195E099D032214466C430919CC17A40F0919890808
:20420000198019490191085E089B5A438018C217920F80188008088004F0B0FF009902462D
:20422000019805920988114A118000881049088010490868401C0860059804F095FF0EB0F8
:20424000B0BDC046F4392020203A2020F8392020243A2020A0D9080010270000C50900004F
:20426000C40900005A3A20207A3A20205C3A20207C3A2020283A202080B58AB0024608A8D4
:20428000027007910021069105AA117004AA117003AA117002AA1170079A117000780028E0
:2042A00005D0FFE705F056F8002804D1FFE709A9002008806BE001A900200870FFE701A8A7
:2042C000007807283BD8FFE708A8007801A9097804F08AFC00282CD0FFE701A801784A00FB
:2042E0002D498A5E0699891806910599491C05AA11700078022804D8FFE704A901200870AC
:20430000FFE701A80078052804D3FFE703A901200870FFE701A80078032805D0FFE701A8D1
:204320000078042804D1FFE702A901200870FFE7FFE7FFE70198401C01A90870BFE705A8BE
:204340000078002814D0FFE705A8007804280FD8FFE702A8007800280ED1FFE704A80078A2
:20436000002809D0FFE703A80078002804D0FFE709A9002008800AE0079901200870069836
:2043800005A9097803F08EF809A90880FFE7002109A8405E0AB080BDA898000080B588B041
:2043A0000790354803F078FF079801F07DFB3348049003F071FF02F083F803F06DFF04989D
:2043C00003F06AFF002103912D48405E01F06CFB049803F061FF03992A48405E01F064FB76
:2043E000049803F059FF04F01DF901F05DFB049803F052FF04F02AF901F056FB049803F0BB
:204400004BFF03992048405E01F04EFB049803F043FF03991D48405E01F046FB049803F045
:204420003BFF1B4801781B481B4A05920029069001D105980690069803F02EFF174803F033
:204440002BFF1748007801F02FFB164803F024FF04F076FE01461448144A01920029029015
:2044600001D101980290029803F016FF104803F013FF08B080BDC046189B0000319D0000C4
:204480005E3A20207E3A2020563A2020763A2020C53A2020EB9B00004E9C0000C89800007D
:2044A000BE3A2020BB9B0000769C0000DF9C0000129D000082B0009000988068404988429D
:2044C00040DCFFE70098C0683D4988423ADCFFE7009800693A49884234DCFFE70098406949
:2044E000374988422EDCFFE7009880697D21C900884227DCFFE70098C0697D21C9008842F5
:2045000020DCFFE70098006AE1214900884219DCFFE70098406AE1214900884212DCFFE79C
:204520000098806A274988420CDCFFE70098C06A4F21C943884205DBFFE70098C06A5128E8
:2045400004DBFFE701A90020087034E000988068002828D4FFE70098C068002823D4FFE7F1
:204560000098006900281ED4FFE700984069002819D4FFE700988069002814D4FFE70098EF
:20458000C06900280FD4FFE70098006A00280AD4FFE70098406A002805D4FFE70098806A68
:2045A000002804D5FFE701A90020087003E001A901200870FFE701A8007802B07047C04636
:2045C000B80B000088130000F0B5394A8218394BC0183A4D4C790B79002C22D0466F202B71
:2045E00002D00524E70100E0354F2E40002B00D188273E434667846F2C403C438467446BB5
:204600002D4E34404463846B3440846300244465846554688F26F6433440546094683440C2
:2046200094600C688979202B09D006467036002B15D1641E4460C46E2C40882715E0641EFF
:204640004460C46E2C401E4E3443C466046F2C40344304671B4D01246707064607E00527F0
:20466000FF0164084460C46E2C403C43C46634682C403C433460C46A0F4D2C40C462046B3D
:204680002C4004630024C4640465C46F8F25ED432C40C46714682C401460194302680A4B6D
:2046A0001340BD220A40D118891C0160F0BDC04684180000041800008888FDFF24493E006D
:2046C00001040000FFFFFFCF4000FFCF80B588B00020079006900590049003A9087003F001
:2046E000DDFF03F0FFFA02F0C3FB03F0E1F903F041F802F07BFA02F0F9FDFEF757F904F0C1
:20470000B1FD1520019003F065FE019803F0BAFE2C4804F0D5FB62B6FFE702F075FB04F0FF
:2047200025FE0699401A052806D3FFE704F01EFE069004F04DF8FFE703A80078002816D17A
:20474000FFE704F013FE2049884210D3FFE7FFF7CBFB03F00FF802F049FA04F007FE0590F9
:2047600003A901200870194803F096FDFFE704F0FDFD0499401A0A2806D3FFE704F0F6FD6A
:20478000049003F071FDFFE703A80078002811D0FFE704F0EBFD0599401A0A280AD3FFE763
:2047A00004F0E4FD059002A800F008FA0598FEF7FFFDFFE704F0DAFDFEF7D4FE04F04AFDB2
:2047C000ABE7C04600008740701700008497000080B588B006AB187005A8017004923948FD
:2047E00003900498002804D1FFE707A90020087064E003F031F8002807D1FFE73349062077
:20480000087007A90020087058E004F089F82E48029005A90122019202F0B0FC019B0298EB
:2048200006A90978002202F0B9FE02F04BFA002805D0FFE703F010F8002804D1FFE707A9D5
:20484000002008703AE006A801781F4801231A4602F0A4FEFFE71C4804F02CF900281BD08A
:20486000FFE7194804F0EAFB8007002806D5FFE704F056F807A9002008701FE0039800285C
:2048800006D1FFE704F04CF807A90020087015E00398401E0390DEE70B4804F0E3FB0499D3
:2048A000087002F00FFA002804D1FFE707A90020087003E007A901200870FFE707A8007821
:2048C00008B080BD8813000000200F40A93A2020B0B53A4A80184A6842600A78222A56D8E5
:2048E000930001A4E3589F46854900008F490000854900008F4900008F4900008F49000064
:204900008F4900008F4900008F4900008F4900008F4900008F4900008F4900008F490000D7
:204920008F4900008F490000754900008F490000754900008F4900008F4900008F490000EB
:204940008F4900008F4900008F4900008F4900008F4900008F4900008F4900008F49000097
:204960008F4900008F490000754900008F49000075490000036803242407A3430124640700
:204980001B1903E0036803242407A34303600B69C360CB68C46A0A4D25400A4C1C402B1950
:2049A000C3620368084C1C400460097A114302683F239A43194051180160B0BD0418000027
:2049C0008888FDFF777702007F00FFFF80B584B00390304803F060FC03982F490968401ABD
:2049E00001F062F82D48019003F056FC002102912B48405E01F058F8019803F04DFC0299AB
:204A00002848405E01F050F8019803F045FC03F009FE01F049F8019803F03EFC03F016FE89
:204A200001F042F8019803F037FC02991E48405E01F03AF8019803F02FFC1C48007801F046
:204A400033F8019803F028FC1948007801F02CF8019803F021FC02F0EFFB01F025F8019861
:204A600003F01AFC1348007801F01EF8019803F013FC1148007801F017F8019803F00CFC53
:204A800002990E48405E01F00FF80D4803F004FC04B080BDEB9C00000C3A2020319D00007B
:204AA0005E3A20207E3A2020603A2020B63A2020B73A2020C03A2020C23A2020963A202065
:204AC000129D000080B588B00790079837490968884201D1FFE766E0079834490A68801AA3
:204AE00005900798086005981A2803D3FFE719200590FFE706A900200870FFE706A8007878
:204B0000022850D8FFE706A8017806224A43284989180491007801F0F7FF014603A8017018
:204B2000007804990978884214D1FFE70498808805994018029002981E49884203D3FFE797
:204B40001D48019002E002980190FFE701980499888006E0039804990870049900208880D3
:204B6000FFE704988088192804D3FFE7039804994870FFE70498807800280BD1FFE70498BD
:204B80004078002806D0FFE706A800780799FEF71DFFFFE7049948788870FFE70698401C87
:204BA00006A90870AAE708B080BDC046D0392020A839202061EA000060EA000080B582B0DC
:204BC00001906946002008700198002801D1FFE763E0334800785D281BD1FFE73148007806
:204BE000002816D0FFE7684604F0D2FA00280CD0FFE76846007803F033F82B4800780199A0
:204C0000087001990120487047E0264900200870FFE703F057FD014621480170007800288D
:204C20000CD1FFE7042001F0C9FB1F480078019908701E480078019948702EE018480078D1
:204C40005D280CD0FFE7072001F0B8FB164800780199087015480078019948701DE0684688
:204C600004F096FA00280CD0FFE76846007802F0F7FF0D4800780199087001990120487066
:204C80000BE0052001F09AFB07480078019908700648007801994870FFE702B080BDC046B2
:204CA000AB3A2020AD3A2020BA3A2020B53A202080B586B005902F480078002806D0FFE772
:204CC0002D480088C0084B2801D3FFE750E02A48019000881621414328484018049003F01D
:204CE000A1FC03A9088003F0B1FC02A90880059823490968401A0021224A03F039FA0499EC
:204D0000088021490888049A508020480288049B9A80039A049BDA80029A049B1A811C4A26
:204D20001288049B5A811B4A1288049B9A810988039A891A049AD18100880299401A0499CB
:204D4000088203F0ADFD009003F0BAFD01460098401A1149114A02F099FC0499488202F024
:204D60006BFA0199049A90820888401C0880FFE706B080BDA23A2020803A202000002020E1
:204D80000C3A2020FFFF00005E3A20207E3A2020563A2020763A20200080FFFFFF7F000003
:204DA00080B5B6B035480290007848210491414333480390401800F0FFFC02980399049A2A
:204DC000304B0A9303230B93A8230C9300780D900AA80590103004F0D5FA0399049A059857
:204DE0005830483104F0CEFA05980021329102F065F93390EFF3108035903598089072B69E
:204E00002148069003F032F906987F21890207910122520200F0F6F906980799402203F02B
:204E200023FF014609A80170007803280DD1FFE70120400200907F20810213480AAA2A230F
:204E400001F0FEFA09A90870FFE70898002802D1FFE762B6FFE709A80078032804D0FFE7CC
:204E600034A90020087004E0FDF7C6FA34A90870FFE734A8007836B080BDC046473A2020AC
:204E8000903720203144495000D00C4080B582B00190304803F000FA0198008800F004FE71
:204EA0002D4803F0F9F901980221405E00F0FCFD2A48009003F0F0F901980421405E00F02B
:204EC000F3FD009803F0E8F901980621405E00F0EBFD009803F0E0F901980821405E00F08C
:204EE000E3FD009803F0D8F901980A21405E00F0DBFD009803F0D0F901980C21405E00F0A4
:204F0000D3FD009803F0C8F901980E21405E00F0CBFD009803F0C0F901981021405E00F0BB
:204F2000C3FD009803F0B8F901981221405E00F0BBFD0B4803F0B0F901981421405E00F018
:204F4000B3FD084803F0A8F9074803F0A5F902B080BDC0468F9C0000F19B0000319D000063
:204F6000309B00006E9B0000129D000080B584B00390A02001F070FE002801D1FFE759E07A
:204F80002D4803F089F90398C06900F08DFD2B48009003F081F9039841782948294A0192AE
:204FA0004C29029001D001980290029803F074F90398808A00F078FD009803F06DF903985E
:204FC000006B00F071FD009803F066F903982421405E00F069FD009803F05EF90398C08A83
:204FE00000F062FD009803F057F90398806B00F05BFD009803F050F90398006C00F054FD9D
:20500000009803F049F90398006A00F04DFD009803F042F90398008B00F046FD009803F0DA
:205020003BF903984821405C00F03EFD064803F033F9FFE704B080BDAB9C0000319D000018
:205040001E9D0000249D0000129D000080B586B005AB187004A801800392284800780128AF
:2050600003D0FFE700F07AFAFFE725490020087024490870214A01211170234908802349D4
:20508000088005A800784C2804D1FFE704981E49088010E005A80078522804D1FFE70498C3
:2050A0001A49088006E0049817490880049817490880FFE7FFE703981549086003981549F1
:2050C000086000221048805E1049895E00F03CFE114803F0E1F804F033F801460F48104A6A
:2050E00001920029029001D101980290029803F0D3F80C4803F0D0F806B080BDB83A2020D9
:20510000C53A2020C43A2020563A2020763A20200C3A2020DC3920202F990000769C00009D
:20512000DF9C0000129D000089B007900691002005900121049103A90870079800782D28E2
:2051400007D1FFE70020C04304900798401C079009E0079800782B2804D1FFE70798401C3F
:205160000790FFE7FFE7FFE7079801780020302902900DDBFFE70798017801200022009208
:205180003A29019001DB0098019001980290FFE70298C007002818D0FFE703A90120087069
:2051A00005981749884204DBFFE708A90020087022E005980A2141430798007840183038F5
:2051C00005900798401C0790CEE703A80078002805D0FFE707980078002804D0FFE708A943
:2051E0000020087008E00599049848430699086008A901200870FFE708A8007809B070479B
:2052000001C2EB0BF0B583B002920190304B314D00918C0A28680727384005262E60196848
:2052200089048A0F2860296839402E6018682960002A214608D028490840511C02F092FD0F
:205240000146204602F08EFD0198204A801801902A683A402E601E4803682A602A683A40F7
:205260002E6003682A60012293020298984207D0530298420CD10098C30B0BD1019803E0DE
:205280001F210C4001984030A24001689143016003B0F0BDFF290DD82B683B402E600C4C98
:2052A00024682B60A3049B0F019800D12039CC08001DE9E71302FF339942E9D2FF23DB43E5
:2052C000C918CC0801980830DEE7C046D01100001800C44100134040FF0F0000FCB4012706
:2052E000FF07794002E0FCB40127FF070C024D002D0E03D1002C52D1FCBC70473C43FF2D5C
:2053000050D0A408002900D56442020243001B0E04D1002A43D10800FCBC70473A43FF2B7C
:2053200041D09208002800D552425E1B04D5170022003C0076422B00192E06D527003741C6
:20534000D2191C27F71B7F42BC40002A27D002D55242012700E00027013B5200FCD5150021
:20536000802635400FD01500202635402C43803208D21500402635402C4304D101263602D5
:20538000B24300E05B1C5200023308DDFF2B0BD2500ADB051843FF073843FCBC70470020A9
:2053A000FCBC70470800C70FFF07FF20C0053843FCBC704780B586B003F0A8FF002804D1CA
:2053C000FFE7304802F068FF49E003F087FF05A90091088003F08EFF04A90191088003F073
:2053E00083FF03A9029108801E4802F055FF0098008800F059FB1C4802F04EFF0098008891
:2054000002F090FF00F050FB184802F045FF0198008800F049FB164802F03EFF0198008837
:2054200002F080FF00F040FB124802F035FF0298008800F039FB104802F02EFF0298008871
:2054400002F070FF00F030FB0C4802F025FF03F057FF00F029FB0A4802F01EFFFFE706B00C
:2054600080BDC04605990000389B0000BD9A00001A9A0000C69A00003B9A0000849A00001A
:20548000229700006298000080B588B00790069105A8027004A900200870FFE7079801785C
:2054A0000020002903900FD0FFE704A8017805A802780120002301939142029001DB01984D
:2054C000029002980390FFE70398C007002841D0FFE7FFE70798007802F0EAFF002804D0D2
:2054E000FFE70798401C0790F4E707980078002801D1FFE72EE00798069A04A90B789B004A
:20550000D0500498401C0870FFE70798017800200029009008D0FFE70798007802F0C8FF96
:20552000414248410090FFE70098C007002804D0FFE70798401C0790E7E707980078002809
:2055400007D0FFE70799002008700798401C0790FFE7A3E704A8007808B080BD80B51B49A2
:20556000002008801A4908801A4908801A4908801A4908701A4908601A4908801A49086066
:205580001A4908701A4908601A4908601A4908701A4908701A4908701A4908801A49088033
:2055A0001A4908701A4908701A4908701A4908701A4908801A4908701A4908801A490880E3
:2055C00003F0F0FD02F0FEFC80BDC046563A2020763A20205E3A20207E3A2020B83A2020FA
:2055E000083A2020643A2020003A2020C23A20202C3A2020303A2020A73A2020A83A202002
:20560000C93A2020983A2020903A2020CD3A2020CC3A2020CB3A2020CA3A2020963A202005
:20562000C83A2020503A2020523A202080B586B0059000200490642001F00EFB002801D166
:20564000FFE74BE00598808A002809D0FFE7059A906AD16A928A002303F07CFD0490FFE7B2
:205660001F4802F019FE0598C06900F01DFA1D48019002F011FE059841781B481B4A029244
:205680004C29039001D002980390039802F004FE05980221405E00F007FA019802F0FCFDA2
:2056A000049800F001FA019802F0F6FD0598808A00F0FAF9019802F0EFFD05982421405E64
:2056C00000F0F2F9019802F0E7FD05984821405C00F0EAF9064802F0DFFDFFE706B080BD16
:2056E000F79C0000319D00001E9D0000249D0000129D000080B584B0284802F0CDFD03F096
:20570000E7FD002804D0FFE7274802F0C5FD0EE003F0D2FD01462248224A02920029039083
:2057200001D102980390039802F0B6FDFFE703F0BDFD00F0B9F91D48019002F0ADFD03F070
:20574000AFFD00F0B1F9019802F0A6FD03F0A2FD00F0AAF9164802F09FFD03F0B3FD00F031
:20576000A3F9019802F098FD002002F099FC00F09BF9019802F090FD012002F091FC00F09A
:2057800093F9019802F088FD022002F089FC00F08BF9084802F080FD04B080BD589C0000BC
:2057A000EF9C0000A69B0000409B0000319D0000159C0000129D000081B00090224A10686F
:2057C0000099086050680099486020480168009B99604168009BD9609168009B19618168F6
:2057E000009B59610C21525E009B9A61405E0099C861174800680099086200211548405E9B
:20580000009A506214480068009A906213480068009AD0621248405E009A10631148405E61
:20582000009A50631048405E009A90630F48405E009AD0630E48405E009A10640D48405EE1
:205840000099486401B070478039202094392020343A2020743A2020043A2020FC39202006
:20586000883A20208E3A2020943A2020923A20208C3A20208A3A202081B000900098C06879
:20588000204A1060009800695060009840691E4908600098806948600098C06990600098FB
:2058A000006A88600098406A90810098806A88810098C06A154908600098006B1449088048
:2058C0000098406B134908600098806B124908600098C06B114908800098006C10490880F1
:2058E0000098406C0F4908800098806C0E4908800098C06C0D4908800098006D0C4908809D
:2059000001B070478039202094392020343A2020743A2020043A2020FC392020883A202088
:205920008E3A2020943A2020923A20208C3A20208A3A202081B0009000980068204A1060A0
:20594000009840685060009880681E4908600098C068486000980069906000984069886086
:205960000098806990810098C06988810098006A154908600098406A144908800098806A5A
:20598000134908600098C06A124908600098006B114908800098406B104908800098806B32
:2059A0000F4908800098C06B0E4908800098006C0D4908800098406C0C49088001B07047FA
:2059C0008039202094392020343A2020743A2020043A2020FC392020883A20208E3A202028
:2059E000943A2020923A20208C3A20208A3A202080B582B0019001F06DFA01461F48018004
:205A00000021415E03204843052101F04BFD4B218900E122920001F039FE69460880184870
:205A20000078002804D1FFE70098164908800DE000231449CA5E032050436A46D25E8018C9
:205A4000801C820F801880080880FFE70E490120087001980D49086001980D4908600D4997
:205A6000002008700C4908700C4908700C4908700C49088003F096FB02B080BD503A20200D
:205A8000C03A20204C3A2020C23A20202C3A2020303A2020A73A2020A83A2020C93A2020F4
:205AA000AC3A2020983A202080B58CB00B9007A9002008700B9800280AD5FFE72D2002F08B
:205AC000ABF80B98C04306900698401C069002E00B980690FFE7FFE706980A21049102F020
:205AE00041F9084604993022104307AA0592137808AAD054069802F035F9059906900798A2
:205B0000401C0870FFE706990020002903900DD0FFE707A801780120002201920C290290C8
:205B200001D30198029002980390FFE70398C0070028D1D1FFE7FFE707A8007800280AD032
:205B4000FFE70798411E07A80170017808A8405C02F062F8F0E70CB080BD704710B586B0AE
:205B6000089C05AC207004A801800392029320480078002814D0FFE705A80278029B1C48EF
:205B8000012101F0DBFE002804D0FFE7184800F0D1FD04E00298194902F01AF8FFE725E04A
:205BA00014480078002812D0FFE705A80278029B1148012101F0C2FE002808D0FFE70E48F5
:205BC000019000F0B7FD0198FFF730FD0EE005A80078002204A9895E039A029B089C009499
:205BE00001F034FC024800F0A5FDFFE706B010BDF0382020B33A2020A03820207B9C00007B
:205C000010B586B0089C05AC207004A801800392029320480078002814D0FFE705A8027854
:205C2000029B1C48022101F089FE002804D0FFE7184800F07FFD04E00298194901F0C8FF82
:205C4000FFE725E014480078002812D0FFE705A80278029B1148022101F070FE002808D0F6
:205C6000FFE70E48019000F065FD0198FFF77EF90EE005A80078002204A9895E039A029BFC
:205C8000089C009401F054F8024800F053FDFFE706B010BDF0382020B33A2020A0382020EF
:205CA0007B9C0000F0B58B4200D1824204D90B0002000021002040E0002B00D1002A0CD178
:205CC0000B00020000210020002B00D1002A01D0C943C04300F037F82FE01C0015000B0006
:205CE00002000CB4002126002F00FF19764102D2491C4029F9D100201E001700FF1976410D
:205D000002D2401C4028F9D10E1A21002800320002F034FE0C0005000CBC00200021A3425B
:205D200000D1AA4201D3521BA341404149416D08E7073D436408761EF1D5059F002F01D029
:205D40003A607B60F0BD7047B0B58CB002460BA802800AAA0292118000210491405E9B2163
:205D60008A0001921D49009101F040FC0099019A049B0446029809AD2C80C05E01F036FC88
:205D8000049908AA10800998154A10800898154A1080099A07A803900280089A06AB0593B3
:205DA0001A80405E00F038FE04990598405E00F06FFE03980499405E02F09DFA014604980E
:205DC00002F038F904990598405E02F094FA0146012002F02FF90CB0B0BDC04694FDFFFF08
:205DE000583A2020783A202080B588B01E48009002F082FF1D48019002F07EFF1C480290AE
:205E000003F03AF81B48039003F036F81A48049003F002F81948059003F076F81848069016
:205E200002F00AFF1748079003F086F8009802F03FFF019802F03CFF029803F011F8039841
:205E400003F00EF8049802F0C3FF059803F044F8069802F0E5FE079803F062F8102003F0AB
:205E60008BFA08B080BDC04600000A4000200A40004008400000874000200F4000201040C0
:205E8000002000400000084080B588B003F05CFA014607A80290017000787F21084006A99C
:205EA000039108701B4802F0F7F903F047FA014619481A4A04920029059001D104980590FA
:205EC000059802F0E9F903980078FFF7EDFD1448019002F0E1F903F025FAFFF7E5FD019822
:205EE00002F0DAF903F024FAFFF7DEFD019802F0D3F903F011FAFFF7D7FD019802F0CCF98C
:205F000002980078FFF7D0FD064802F0C5F908B080BDC046509B0000EF9C0000A69B0000FC
:205F2000319D0000129D000010B584B003901F480078002817D0FFE703981D490968401AB8
:205F400000097D280FD3FFE71849002008701C49095E1C4A1268039B01240194009004201A
:205F6000FDF77EFC1FE01348007800281AD0FFE703980F490968401A00097D2812D3FFE7B2
:205F80000C49002008700C480178039A4B208000FCF73CFE002804D1FFE7084802F07CF9F8
:205FA000FFE7FFE7FFE704B010BDC046C43A2020183A2020C13A2020BE3A2020419600008E
:205FC000483A2020BC39202080B584B002A90880029822490988401A00B201F0DFF901A919
:205FE00008801F48007800281CD0FFE7002101A8405E322816DCFFE7002101A8405E3121EC
:20600000C94388420EDBFFE702981449088014480078022805D8FFE711490878401C0870ED
:20602000FFE706E002980D4908800D4901200870FFE70B480078032807D3FFE70849002020
:20604000087003A90120087003E003A900200870FFE703A8007804B080BDC046723A202070
:20606000BD3A202080B582B01D4803F0A5F8092833D1FFE71A48002102F0AEF801A9088025
:2060800001981849088018480078002807D0FFE701A8008815490988884204DAFFE701987A
:2060A00012490880FFE710480078002807D0FFE701A800880E490988884204DDFFE701981F
:2060C0000B490880FFE70B490868401C086006490120087008490870FFE702B080BDC046EA
:2060E00000200040543A2020BC3A2020703A20206E3A2020403A2020A63A202080B584B027
:206100000390642000F0A8FD002801D1FFE72EE0184802F0C1F80398FFF7C6FC164802F037
:20612000BBF80220FFF7C0FC144802F0B5F803F007F801461248134A01920029029001D1CD
:2061400001980290029802F0A7F80F4802F0A4F803F01CF9FFF7A8FC0C4802F09DF803F094
:206160001DF9FFF7A1FC0A4802F096F8FFE704B080BDC046679B0000319D0000BB9B0000A1
:20618000769C0000DF9C0000189800007B990000129D000080B584B01E491F48039002F043
:2061A000DDFC03981D49FEF70FFA03980023019319461A4601F054FE019B0398009319468A
:2061C0001A4602F065FE019A0398114602F0B8FC019A0398114603F02DF8019B03980121D9
:2061E0000291009119461A4602F052FE0199029A039802F0A5FC0199029A039803F01AF840
:20620000039802F06BFF0398032102F071FF04B080BDC0460F9D000000400840109B000090
:20622000FCB40127FF0706004E4001D4002600E03E00020243001B0E30D03A43FF2B30D0BC
:206240000C024D002D0E29D03C43FF2D29D05B194240504042404C4061404C4000B501F0A4
:2062600077FE20BCAE464240504042404C4061404C4025001400002C01D46400013B8034FE
:2062800001D3013364087E3B08DDFF2B09D2BC43200ADB0518433043FCBC70470020FCBCC9
:2062A0007047FF20C0053043FCBC704780B586B004901E480390FFE70398411E03910028CD
:2062C0002AD0FFE704990920C00101900143184802F08AFD0199029002A8008808420DD024
:2062E000FFE702990920C0010140114802F028FD02F006FB05A90020087013E0029804991F
:20630000084208D0FFE70499094802F019FD05A90120087006E0CFE702F0F2FA05A90020F0
:206320000870FFE705A8007806B080BD8813000000200F4080B586B0049004981C49FFF7E7
:206340006FFF039003981B4900F01EFE002804D0FFE705A91848088025E00398C721090622
:2063600000F0F4FD002805D0FFE70120C00305A9088018E003980090002100F0FBFD0146CC
:206380003F200006BF22120601920029029001D10198029000980299FEF7A5FF01F02EFE6B
:2063A00005A90880FFE7002105A8405E06B080BD4D3D0F4400FEFF46FF7F000081B06946E4
:2063C0000870174900200870009816490870164800881649884205D8FFE713490888401CC4
:2063E0000880FFE712480078FF2805D0FFE710490878401C0870FFE70E480078002805D01D
:20640000FFE70B480078032808D3FFE70949002008700949087009490870FFE701B0704713
:20642000AD3A2020A93A20204A3A20205FEA0000A43A2020B53A2020BA3A2020B93A202051
:20644000F0B585B004900120002B32D00D46194601402ED116460A9801901120000204992F
:206460000F18154C029603930520786001263E602068400705D52068400702D52068400786
:20648000F6D404982946019AFEF7BCFE7E600B4878623D62029E3068386370687863049811
:2064A00002F08CFF039B9B1E03D0083608350128D8D105B0F0BDC046D0E30C40FF01000081
:2064C00082B017480078401E0090052822D80098810001A040588746F1640000F7640000CF
:2064E000FD64000003650000096500000F6500001148019011E00F4801900EE00C4801905B
:206500000BE00A48019008E00748019005E00548019002E009480190FFE7019802B0704776
:20652000B83A20209F9B0000999C0000FF9C0000C29B0000B49B0000BB9C0000629C00001E
:2065400085B003900291FFE70398017800200029019006D0FFE702980078411E8841019085
:20656000FFE70198C007002812D0FFE70398007802990978884204D0FFE704A900200870ED
:2065800019E00398401C03900298401C0290DBE70398017800200029009006D1FFE70298EA
:2065A0000078414248410090FFE700980121084004A90870FFE704A8007805B07047000044
:2065C000F0B589B01C4615460A46064610980F990E9B0896079206AA157005AD2C8004AC11
:2065E000237003AB0093197002A90191087008980E49401807994900127811430C4A01F02C
:20660000ADFF009B019A08980A49401805990904247809191B7819431278114301221143A0
:20662000054A01F09BFF09B0F0BDC04610120000FF070000141200000F00FF0F80B586B03E
:2066400004A9087003A90520087001F005F9002807D1FFE717490620087005A900200870B3
:2066600021E002F05DF91248029003A90122019200F084FD019B029804A90978002200F09C
:206680008DFF00F01FFB002805D0FFE701F0E4F8002804D1FFE705A90020087003E005A9FA
:2066A00001200870FFE705A8007806B080BDC04600200F40A93A202080B598B017901798D8
:2066C000006804901798406805901798806806901798C0680790179800690890179840692F
:2066E0000990179880690A901798C0690B901798006A0C901798406A0D901798806A0E907A
:206700001798C06A0F901798006B10901798406B11901798806B12901798C06B13901798E4
:20672000006C14901798406C159001A8FCF7DEFF18B080BD80B586B00590402000F08CFAF5
:20674000002801D1FFE724E0134801F0A5FD0598C069FFF7A9F9114801F09EFD059801780E
:206760000F48104A03920129049001D003980490049801F091FD059841780B480B4A019269
:206780004C29029001D001980290029801F084FDFFE706B080BDC046B79C0000319D0000EA
:2067A000189D0000159D0000DB9C0000CF9C000080B586B0014604A80170007803A901910B
:2067C000FDF75AFD0146019802AA11800078002820D0FFE7002102A8405E01F075FD0B28DC
:2067E00018DCFFE704A80078002102F0FDF9002810D1FFE704A80078012102F0F5F9002855
:2068000008D1FFE704A80078062102F0EDF9002804D0FFE705A90020087003E005A90120BC
:206820000870FFE705A8007806B080BD80B582B0019017480078002807D0FFE70198154937
:206840000968401A072801D8FFE71EE0019811490860114800881149098888420EDAFFE7C2
:206860000D4800900088162141430E484018FEF70DFB00990888401C088006E004490020E5
:206880000870074801F008FDFFE702B080BDC046AA3A2020CC3920204E3A2020803A202035
:2068A0008799000000002020F8B5451C00780023082B32D02F78C2070CD16A780F241440E4
:2068C000E41C122C0BD102242E57F4B2002E08D4EE1C0EE06D1C4A1C0F7011461AE0AE1CC2
:2068E00008E02E1DED7800957F252C40009DED012C1912343D0112095219094DAA420ED061
:20690000D243002C05D08D5C4F1C0D70641E3946F7E7354640085B1CCAE72846C5E7F8BDF7
:20692000FF0F000080B588B0014607A80290017000780021049102F057F901460298009101
