:20000000008020203D890000318900003189000000000000000000000000000000000000E6
:20002000000000000000000000000000318900000000000000000000318900003189000092
:2000400031890000996B000031890000318900003189000031890000318900003189000086
:200060000000000031890000318900000000000000000000318900005D69000031890000D2
:200080003189000031890000318900003189000031890000BD7E0000000000000000000083
:2000A00031890000318900000000000000000000318900000000000031890000318900009E
:2000C00010B59CB01B901A911B9807F098FD1B9815A9052204F0B0FE014614A80170007854
:2000E000002802D1FFE700F0D4FE14A8007801280CD1FFE71598FD4905F002FF002805D057
:20010000FFE7FB4807F070FC00F0C3FE14A8007802281CD1FFE71598F64905F0F1FE002879
:2001200015D0FFE7169813A904F040FD00280ED0FFE7139800280AD4FFE71398F749884221
:2001400005DCFFE7139805F073FC00F0A1FE14A8007801280BD1FFE71598F14905F0D0FE71
:20016000002804D0FFE707F01FFD00F090FE14A80078012821D1FFE71598EA4905F0C0FE44
:2001800000281AD0FFE7E84900200D90087004F087FF0D98E5490870E5490870E5490870F0
:2001A000E5490870E5490870E5490870E5490870E54807F019FC00F069FE14A800780128BA
:2001C0000CD1FFE71598E14905F09AFE002805D0FFE71A9803F0A4FE00F057FE14A8007855
:2001E00001280BD1FFE71598D94905F089FE002804D0FFE705F02EFB00F046FE14A8007861
:2002000001280BD1FFE71598D24905F079FE002804D0FFE704F0A8FF00F035FE14A80078EB
:2002200002281CD1FFE71598CB4905F069FE002815D0FFE7C9480078002810D1FFE716988B
:20024000C74905F05DFE002809D0FFE707F0ACFA002006F013FC02F0D7FB00F013FE14A814
:20026000007802281CD1FFE71598BB4905F048FE002815D0FFE7B9480078002810D1FFE7C2
:200280001698B84905F03CFE002809D0FFE707F08BFA012006F0F2FB02F0B6FB00F0F1FD98
:2002A00014A8007801280BD1FFE71598AE4905F027FE002804D0FFE702F0A6FB00F0E0FD1F
:2002C00014A80078022842D1FFE71598A74905F017FE00283BD0FFE7169813A904F066FC47
:2002E000002834D0FFE71398002830D4FFE713988A4988422BDCFFE798480078002826D183
:20030000FFE7139810909A48007800280CD0FFE7984800681099884206D1FFE71098964969
:20032000097806F0E1FD10E007F03EFA04F004FA9149087010988F4A10608D4A012010709C
:200340001098097806F0D0FDFFE700F098FD14A8007801281DD1FFE71598844905F0D0FDD9
:20036000002816D0FFE77D480078002811D1FFE707F01AFA04F0E0F9002804D0FFE77F48DB
:2003800007F032FB03E07E4807F02EFBFFE700F075FD14A8007801281DD1FFE71598794988
:2003A00005F0AEFD002816D0FFE76C480078002811D1FFE701F028FE002806D0FFE77248D8
:2003C00007F012FB02F020FB03E0704807F00CFBFFE700F052FD14A80078012811D1FFE729
:2003E00015986B4905F08CFD00280AD0FFE75B480078002805D1FFE71A9806F0CFFE00F0D2
:200400003BFD14A8007802281ED1FFE71598614905F076FD002817D0FFE716985E4905F073
:200420006FFD002810D0FFE74049012008704049002008701A9859490860594807F0D4FAFD
:2004400008F0EAF900F017FD14A8007802281CD1FFE715984F4905F053FD002815D0FFE70F
:200460001698504905F04CFD00280ED0FFE72F49002008702E49012008701A984749086041
:20048000494807F0B1FA00F0F5FC14A80078022818D1FFE715983F4905F032FD002811D0B9
:2004A000FFE71698414905F02BFD00280AD0FFE71E49002008701E4908703D4807F094FA31
:2004C00000F0D7FC14A80078022800D0B2E01598384905F015FD002800D1ABE0169813A976
:2004E00004F064FB002810D006E0C04638910000A6900000F89000001398002805D4FFE79C
:2005000013980649884204DDFFE72B4807F06CFA8EE005480078002860D04FE0FFFFFF7F4A
:200520002E9100006A9100004034202007362020E7352020E6352020ED352020063620203B
:2005400005362020023620207E8F0000989000007C900000B491000034900000FA352020EF
:20056000FE90000044900000C890000029910000F235202030352020F1352020A68F000060
:200580001C8F00003D910000748F0000118F000042910000AD900000F29100003C352020FB
:2005A0002E8E000056910000CF8D0000C4910000008E00002C900000BE8D00001398FD4961
:2005C000C96988420AD1FFE7FB4807F00DFA139804F048FFF94807F007FA28E0F84800783E
:2005E000002806D0FFE71398F649C969884205D0FFE71398F44906F01DFF17E0F1480078D4
:20060000012804D1FFE7EF4804F0E6FC0DE0ED480078022804D1FFE7EA4804F0E9F903E07F
:20062000EA4807F0E1F9FFE7FFE7FFE7FFE7FFE700F01EFC14A80078042800D085E01598ED
:20064000E34905F05DFC00287FD0FFE7169813A904F0ACFA002878D0FFE7179812A904F00B
:20066000A5FA002871D0FFE7189811A904F09EFA00286AD0FFE713988121C943884264DBEC
:20068000FFE71398822860DCFFE7129832285CDBFFE7129819210901884256DCFFE7119863
:2006A000002852D4FFE71198CA4988424DDCFFE711980F90C848007800280BD0FFE7C748A9
:2006C00000680F99884205D1FFE70F98C44906F069FE39E0C348007805280AD0FFE7C148E1
:2006E000007806282AD1FFE7BF480078002825D1FFE7BE480078002808D0FFE70021BC4867
:20070000405E07F089F9052805DBFFE70F98B94906F048FEBDE31398B74908801A981299BA
:200720004018B64908600F98AC490860AA49012008700F98AA4906F035FE04E00F98AD4926
:2007400006F030FEFFE7FFE791E314A80078032851D1FFE715989E4905F0D2FB00284AD036
:20076000FFE7169813A904F021FA002843D0FFE7179812A904F01AFA00283CD0FFE71398C2
:200780008121C943884236DBFFE71398822832DCFFE7129832282EDBFFE7129819210901C0
:2007A000884228DCFFE791480078002823D0FFE700218F48405E07F02FF904281BDCFFE775
:2007C0008848007805280AD0FFE786480078062811D1FFE78448007800280CD1FFE71398CE
:2007E000854908801A981299401884490860844807F0FAF83AE314A80078032838D1FFE799
:200800001598804905F07CFB002831D0FFE7179813A904F0CBF900282AD0FFE713980028E9
:2008200026D4FFE713989B218900884220DCFFE71698754905F064FB00280ED1FFE71698E1
:20084000724905F05DFB002807D1FFE71698704905F056FB00280BD0FFE7564800220270E2
:200860001698007813A9895E1A9A04F031F9FCE214A80078052855D1FFE71598654905F042
:200880003FFB00284ED0FFE716985F4905F038FB002807D1FFE716985C4905F031FB0028F2
:2008A00040D0FFE7179813A904F080F9002839D0FFE7189812A904F079F9002832D0FFE772
:2008C000199811A904F072F900282BD0FFE71398002827D4FFE713989B218900884221DCDA
:2008E000FFE712987D21C90088421BDBFFE712987D210901884215DCFFE71198002811D4B2
:20090000FFE71198334988420CDCFFE716980078002213A9895E129A119B1A9C009404F0B3
:2009200053FEA1E214A80078052800D089E01598394905F0E5FA002800D182E016983249C2
:2009400005F0DEFA002807D1FFE716982F4905F0D7FA002875D0FFE7179813A904F026F927
:2009600000286ED0FFE7189812A904F01FF9002867D0FFE7199811A904F018F9002860D0A7
:20098000FFE7139850285CDBFFE713984B21C900884256DCFFE712987D218900884250DBA9
:2009A000FFE712981D4988424BDCFFE71198002847D435E040342020C0910000E3910000F0
:2009C000F5352020F03320200C9000003D8E000065910000FFFFFF7FF03520202435202073
:2009E000E9910000FA35202003362020F9352020A8352020C8910000AC35202050352020CB
:200A0000888F000090910000FE910000FA910000FC910000C28F0000B08F0000983A000095
:200A20001198FE4988420CDCFFE716980078002213A9895E129A119B1A9C009404F016FE99
:200A400011E214A8007804282BD1FFE71598FE4905F056FA002824D0FFE7179813A904F0C7
:200A6000A5F800281DD0FFE7189812A904F09EF8002816D0FFE71298002812D4FFE71298AD
:200A8000E64988420DDCFFE71698139901F08CF8002806D0FFE712981699139A06F000F9E6
:200AA000E0E114A8007803281BD1FFE71598E64905F026FA002814D0FFE7179813A904F002
:200AC00075F800280DD0FFE71698139901F06CF8002806D0FFE7DD4806F086FF01F094FF07
:200AE000BFE114A80078042852D1FFE71598EF4905F006FA00284BD0FFE71698E84905F016
:200B0000FFF9002807D1FFE71698E64905F0F8F900283DD0FFE7179813A904F047F8002853
:200B200036D0FFE7189812A904F040F800282FD0FFE7139850282BDBFFE713984B21C90036
:200B4000884225DCFFE712987D21890088421FDBFFE71298D44988421ADCFFE7E7490020AC
:200B60000A90087016980178022003220B924C290C9001D00B980C900A9C0C9813A9095FC9
:200B8000129A1A9B01940124009402F031FC67E114A8007803284AD1FFE71598C44905F030
:200BA000AFF9002807D1FFE71598C24905F0A8F900283CD0FFE7169813A903F0F7FF0028C4
:200BC00035D0FFE7179812A903F0F0FF00282ED0FFE7139850282ADBFFE713984B21C900E4
:200BE000884224DCFFE712987D21890088421EDBFFE71298AC49884219DCFFE71598AD49E4
:200C000005F07EF901460520042208920029099001D1089809900998002413A9095F129ADA
:200C20001A9B01940124009402F0E2FB17E114A80078042800D081E015989F4905F060F976
:200C400000287BD0FFE7169813A903F0AFFF002874D0FFE7179812A903F0A8FF00286DD075
:200C6000FFE7189811A903F0A1FF002866D0FFE71398502862DBFFE71398E1214900884247
:200C80005CDCFFE71298012858DBFFE712980A2854DCFFE71198002850D4FFE711987E490D
:200CA00088424BDCFFE711980E908E480078002817D0FFE78C4800680E99884211D1FFE75E
:200CC0000E9805908948017889488A4A06920029079001D1069807900598079906F086FBD7
:200CE0002BE06E480078002805D0FFE70E98824906F07CFB20E0002113A8405E12A9097844
:200D00001A9A01F087FD0146784801700E99764A1160744A012111700E990291017874488A
:200D2000744A03920029049001D1039804900298049906F05BFBFFE7FFE78FE014A80078B0
:200D4000032837D1FFE715985B4905F0D9F8002830D0FFE7169813A903F028FF002829D0B0
:200D6000FFE7179812A903F021FF002822D0FFE7139850281EDBFFE71398E121490088424E
:200D800018DCFFE71298012814DBFFE712980A2810DCFFE7002113A8405E12A909781A9AB9
:200DA00001F038FD002804D1FFE74D4806F01CFEFFE752E014A80078032849D1FFE7159861
:200DC0003E4905F09DF8002842D0FFE7169813A903F0ECFE00283BD0FFE7179812A903F025
:200DE000E5FE002834D0FFE71398502830DBFFE713984B21C90088422ADCFFE712987D210C
:200E00008900884224DBFFE71298274988421FDCFFE72248007800281AD101E0FFFFFF7F83
:200E20001398284908801298274908602749012008702749002008702649087026490870AD
:200E4000264806F0D1FD07E094910000B98F00001B4806F0C9FDFFE7FFE7FFE7FFE7FFE76F
:200E6000FFE7FFE7FFE7FFE7FFE7FFE7FFE7FFE7FFE7FFE7FFE7FFE7FFE7FFE7FFE7FFE712
:200E8000FFE7FFE7FFE7FFE7FFE7FFE7FFE7FFE7FFE71CB010BDC046FFFFFF7FFA352020B2
:200EA000FE910000FA910000983A0000479100007C9100001091000067900000D891000060
:200EC000AA8C0000943520200C352020063620200536202007362020E63520209B8B00005D
:200EE0001A8C0000F435202038352020F3352020E9910000C89100005B910000403420205B
:200F0000B0B5BAB0399007F04FF83890FB480078022815D0FFE7F9480078032810D0FFE7D9
:200F2000F648007804280BD0FFE7F4480078052806D0FFE7F1480078062801D0FFE7A8E350
:200F40003898EF490968884201D1FFE7A1E33898EB490860399800F0D3FB002801D0FFE738
:200F600097E3E6480078022808D1FFE7E5480088E5490880E5490020088060E3DF48007845
:200F8000032808D1FFE7E04900200880DD480088DE49088052E3D9480078052805D0FFE784
:200FA000D6480078062800D0C0E2D648008835A908803998D6490968401A3090CF480078E5
:200FC00006280AD1FFE7D3480078042805D1FFE7D148008835A9088010E03098CF49884206
:200FE0000BD8FFE70021C748415E30984843CC4906F0AAFA35A90880FFE7FFE707F070FCC2
:2010000001467F200140C7480170007831A902F0F5FEC54908803198C4490870B748007897
:20102000062800D093E0BB48007800284DD1FFE705F030FC0146BE4801800022805EBD49A3
:20104000895E884206DAFFE7BB4900200870BB49087039E0B8480078072811D8FFE7B14879
:20106000007805F085F8002805D0FFE7B2490878401C087003E0B04900200870FFE722E0F8
:20108000A848007805F02EF900280BD0FFE7AB480078FF2805D0FFE7A8490878401C087051
:2010A000FFE703E0A54900200870FFE7A3480078022807D3FFE7399804F02EFA399800F000
:2010C0001FFBE6E2FFE7FFE740E09248007804283BD1FFE739989A490968401A2F902F98CD
:2010E000782812D3FFE78F48007805F041F800280BD0FFE793480078FF2805D0FFE7914910
:201100000878401C0870FFE703E08E4900200870FFE78C48007803280CD3FFE7399801F05F
:2011200013FF002801D0FFE7B3E27648008835A9088009E02F984009192804D3FFE78248BC
:2011400006F0BCFAA5E2FFE7FFE7FFE7FFE731A80078002800D156E173481B9000211A9111
:20116000405E06F059FC1A992EAA1892108077481990405E06F050FC1A9902461B982DABF3
:201180001A802CABA0221A8000882AAA108029AA082010806E48006828906E480068279060
:2011A00035A8415EFF225432012091421C9001DC1A981C901A9A19991B981C9B26AC2370FC
:2011C00000880988401A32A91791088062481690805E4000895E4018032105F0B9FD169A65
:2011E000179B1A9904461898148012881A80405E022805DCFFE72AA900200880289028E0FE
:2012000000212EA8405E042806DCFFE72898C10F4018401028901BE000212EA8405E0A2893
:2012200015DBFFE726A80078002809D0FFE7289905204843C117890F40188010159003E05A
:20124000289840001590FFE715982890FFE7FFE7FFE700222EA8805E2DA9895E884208DAAD
:20126000FFE7279903204843C10F40184010279008E0279903204843C117890F401880103D
:201280002790FFE700212EA8405E022803DCFFE700202790FFE726A8007800285ED0FFE7EE
:2012A00000212EA8405E042812DCFFE72CA92D20088000212EA8415E0A2005221392032937
:2012C000149001DB13981490149829A9088014E000212EA8405E0A2807DBFFE72CA97D2044
:2012E000088029A91220088006E02CA95A20088029A908200880FFE7FFE753E0FA3520202D
:2013000034352020CA352020A6352020C23520205C35202003362020D0352020DB05000024
:20132000DC050000F8352020A8352020F93520209C35202098352020EA352020EB352020F7
:201340007C3520200A362020AC8D0000B2352020543520204C352020AA35202000212EA81C
:20136000405E042812DCFFE72CA92D20088000212EA8415E0A20052211920329129001DBF1
:2013800011981290129829A908800AE000212EA8405E0A2804DBFFE729A912200880FFE716
:2013A000FFE7FFE72899002310932AA8C05E4843279A32A9C95E514340187D21C90005F054
:2013C000C7FC109A2CA98A5E514209B205F0B4FD109B01462BA80180C05EBD490F91CA5EBD
:2013E00029A9CB5ED11AD21809B212B205F0A4FD0F9A014610981180B2490988B94A1180BF
:20140000B149088038E0B0480088B049884205D8FFE7AD4908880A300880FFE7AA48008884
:20142000C0084B2813D3FFE79B480078062804D1FFE7AB4806F042F908E003F031FEA64944
:2014400000200870A54806F0CFFAFFE721E19E48008864280FD3FFE79D48002101809D4832
:20146000018035A8405E652804DBFFE735A964200880FFE7FFE7FFE79548008833A90880B9
:2014800000219948405E002816D0FFE7974800683999401A01280FDBFFE7002233A80E90B1
:2014A000805E9149895E40189F21C943A02205F043FD0E99088005E08B49002008808B490E
:2014C0000860FFE73599143934A801800021405E002804D5FFE734A900200880FFE7002213
:2014E0000B9233A80A90805E34A98A5E514209B205F022FD0A9A0B99108035A80D90405EE5
:20150000525E80184B22D2000C9205F015FD0A9B0B990C9A04460D98684D2C80405E5B5E09
:20152000C01A05F009FD6649088086E05B48008825A9088006F018FD089006F025FD0146B6
:201540000898401A249006F00FFD099006F01CFD014609984018C10F40184010239023990C
:2015600000224F48805E48434E4905F0F1FB229024982299401A219039984B490968401A6D
:201580001D901D98494988420BD8FFE700214348415E1D984843464905F0D6FF25A908808A
:2015A000FFE7002125A8405EC20F801842081FA80280405E3D2804DBFFE71FA93C20088049
:2015C000FFE73C4800681E901D983849884208D8FFE71E9840000021374A06F0A1F91E90EF
:2015E000FFE71E99219848437D21C90005F0B0FB002205921FA98A5E514209B205F09CFCBF
:20160000059920AA0492108025A80790405E525E801A4B22D200069205F08EFC049B05995D
:20162000069A04460798254D2C80405E5B5EC01805F082FC22490880FFE7FFE7FFE706F0C6
:2016400057FB37A90091088006F066FB0146009836AA01921180002202921849895E825E27
:20166000234802F09DFA029A01460198214B039319801349895E825E1F4802F091FA029ABC
:20168000034603981D490B80805E895E04F092F8FFE73AB0B0BDC046FA352020CA35202041
:2016A000B8352020102700005C352020DB050000DC0500008435202088130000A635202085
:2016C000C2352020A8352020B03520205FEA0000B4352020AA352020073620201F8D0000D7
:2016E0009C8F0000B2352020AC35202050352020D03420209E352020E4342020BA352020D4
:2017000010B58CB00A9004A900200870ED48007806280AD1FFE7F3480078002805D0FFE7B7
:20172000F0480078042804D1FFE70BA900200870FBE10A98EC490968401A0990FD480078F2
:20174000012847D1FFE7E0490A88E04802800A88DF490A80DF4A1388DF4C23801288DF4B63
:201760001A800022805E895E04F024F8099832282CD3FFE707F08AF8002807D1FFE7D84879
:2017800005F09CFF0BA901200870CEE106F0C0FFF449002003900880F1490880E74901207D
:2017A000087006F043FBE649086006F051FB01460398E44A1160E4490880F3490870DD4994
:2017C000022008700A98DC490860FFE70BA901200870AAE107F05AF8002804D1FFE7D74936
:2017E00000200870FFE706F021FBD5490968401A069006F02DFBD3490968401A05900698A2
:20180000002804D5FFE7069840420690FFE70598002804D5FFE7059840420590FFE7069889
:2018200005994018C10F40184008C749088007F057F87F210840C5490870C5480078002849
:2018400020D1FFE7C148007805F091FF00280BD1FFE7C2480078FF2805D0FFE7BF490878D5
:20186000401C0870FFE703E0BC4900200870FFE7BA480078022804D3FFE7B5490120087050
:20188000FFE721E00022B048805EB249895ECA0F89184910884212DBFFE7AC48007805F0B6
:2018A00066FF00280BD0FFE7AB480078FF2805D0FFE7A9490878401C0870FFE703E0A6498F
:2018C00000200870FFE7FFE706F0E0FF002835D0FFE706F08BFC014608A801800021405E08
:2018E000002805D5FFE70898404208A90880FFE792480078002811D0FFE70898984909886C
:20190000401A00B206F088F8C82807DCFFE70898934908800898934908800EE0089890491D
:201920000988401A00B206F077F8C92804DBFFE7824900200870FFE7FFE7FFE70A987E4971
:201940000968401A099084480078032827D3FFE77A48007800280CD0FFE700218148405E28
:201960007D218900884204DBFFE704A90120087014E07248007800280FD1FFE7002272487B
:20198000805E81007348825E03205043884204DCFFE704A901200870FFE7FFE7FFE709986E
:2019A000C008AF2807D3FFE77E4805F087FE0BA901200870B9E00998DC2851D3FFE704A847
:2019C000007800281AD1FFE75C480078002808D1FFE700225C48805E5E49895E88420DDAB0
:2019E000FFE75648007800283AD0FFE700225D48805E5D49895E884232DBFFE7049862499D
:201A000008704C49042008700A984B4908605F490020029008705E4908805E4908805E49A8
:201A200008805549088055490880554908805549088005F0B9FE06F0A7FE58480078401CCB
:201A4000C0B2574909788906090E884204DBFFE70A9801F079FAFFE70BA90120087064E041
:201A600034480078022823D1FFE70998DC281FD3FFE73248007800280CD0FFE70021394873
:201A8000405E39490988394A1288891A09B288420ADAFFE700212C48405E2E4909881939F9
:201AA00009B2884204DBFFE7224903200870FFE720480078022819D1FFE700212D48405EE2
:201AC000019018E0FA352020D83520209E352020BA352020D0352020A6352020C2352020E8
:201AE0005A8E0000033620207C35202000212048405E0190FFE7019807A908800798414203
:201B00001D480180079A1D490A80079A52421C4B1A80079A1B4B1A800022805E895E03F09D
:201B200049FE0BA901200870FFE70BA800780CB010BDC046033620207C3520200E36202083
:201B4000883520208C352020DA352020F83520200D362020CE3520200B3620200C36202002
:201B6000D4352020DC352020CC352020D6352020D8352020D23520209E352020BA35202069
:201B8000A6352020C2352020093620200A362020B2352020AA352020B03520200136202012
:201BA00004362020758E000080B584B0029001910298F24904F0A4F9002811D0FFE701982D
:201BC000002805D4FFE70198EA49884204DBFFE703A900200870C8E10198E7490860BEE106
:201BE0000298E74904F08CF9002811D0FFE70198002805D4FFE70198DE49884204DBFFE7E4
:201C000003A900200870B0E10198FC494860A5E10298DC4904F074F9002811D0FFE701983B
:201C2000002805D4FFE70198F649884204DBFFE703A90020087098E10198EF4908608CE1F3
:201C40000298D14904F05CF9002811D0FFE70198002805D4FFE70198EA49884204DBFFE7BD
:201C600003A90020087080E10198E349486073E10298C64904F044F9002811D0FFE701989C
:201C8000002805D4FFE70198DD49884204DBFFE703A90020087068E10198D84988605AE1A5
:201CA0000298BB4904F02CF9002811D0FFE70198002805D4FFE70198D149884204DBFFE7BC
:201CC00003A90020087050E10198CB49886041E10298B04904F014F9002812D0FFE70198BB
:201CE000002806D4FFE70198FF21C431884204DBFFE703A90020087037E10198BF498881B9
:201D000027E10298A44904F0FBF8002812D0FFE70198002806D4FFE70198FF21C431884264
:201D200004DBFFE703A9002008701EE10198B24988810DE10298994904F0E2F8002811D0BD
:201D4000FFE70198002805D4FFE70198A849884204DBFFE703A90020087006E10198A54952
:201D60000860F4E002988E4904F0CAF8002812D0FFE701984F21C943884204DBFFE70198D3
:201D8000512804DBFFE703A900200870EDE0019896490880DAE00298824904F0B1F8002810
:201DA00011D0FFE70198002805D4FFE701988C49884204DBFFE703A900200870D5E001984D
:201DC00089490860C1E00298774904F099F8002811D0FFE70198002805D4FFE70198804978
:201DE000884204DBFFE703A900200870BDE001987C490860A8E002986C4904F081F8002841
:201E000013D0FFE70198AF218900884205DBFFE701987149884204DBFFE703A90020087051
:201E2000A3E001986D4908808DE00298604904F067F8002819D0FFE7019864280DDBFFE75B
:201E400001984B218900884207DCFFE7019800226049895E884204DAFFE703A90020087044
:201E600083E001985A4908806CE00298514904F047F8002817D0FFE7019850280BDBFFE7B6
:201E80000198FA2807DCFFE7019800225049895E884204DDFFE703A90020087065E00198D0
:201EA0004C4908804DE00298434904F029F8002812D0FFE70198322806DBFFE70198FF213A
:201EC0006031884204DBFFE703A9002008704CE001983E49088033E00298384904F010F8A0
:201EE000002810D0FFE70198502804DBFFE70198FB2804DBFFE703A90020087035E00198AB
:201F0000314908801BE002982D4903F0F9FF002810D0FFE70198322804DBFFE701988D28D5
:201F200004DBFFE703A9002008701EE001982549088003E003A90020087016E0FFE7FFE722
:201F4000FFE7FFE7FFE7FFE7FFE7FFE7FFE7FFE7FFE7FFE7FFE7FFE7FFE7FFE7FFE706F011
:201F600013FC03A901200870FFE703A8007804B080BDC046B90B0000D034202078910000FC
:201F80008C910000CC910000A4910000DC910000809100006F910000159100001F910000BE
:201FA000519100006090000083900000928F0000DD8F0000E68F0000328F0000EF8F0000FB
:201FC000CB8F0000CE352020D0352020D6352020D2352020D83520204D040000CC352020AE
:201FE000214E00004C35202054352020B83520208913000084352020E4342020D03420208A
:20200000E9030000B90B000080B5E4B07F2080026290619062980068B949884243D1FFE71B
:202020006298406803283ED1FFE77F2080024C904C9922A8A82206F071FC2498A82810D198
:20204000FFE74B98089022A804F0E8FC01460898884206D1FFE722A804F080FB002804D1D9
:20206000FFE763A90020087046E122A905911031B34807904822069206F050FC0599069AF9
:2020800007985831483006F049FC06990798259BAA4A137012785143401803F085F963A9FD
:2020A0000120087028E1629800689549884239D1FFE762984068022834D1FFE77F208002AC
:2020C000219021990BA8582206F028FC0D98582810D1FFE7209804900BA804F06FFC0146BD
:2020E0000498884206D1FFE70BA801F0C7F8002804D1FFE763A900200870FDE00BA803F050
:20210000F5F88E49002008708D48039003F08EF8039908464830482206F000FC63A9012097
:202120000870E9E0619800684D90619840684E90619880684F906198C0685090619800697E
:2021400051906198406952906198806953906198C06954906198006A55906198406A56907E
:202160006198806A57906198C06A58906198006B59906198406B5A906198806B5B906198E7
:20218000C06B5C906198006C5D906198406C5E906198806C5F906198C06C60904D985849D4
:2021A000884214D1FFE74E98012810D1FFE7599802904DA805F0E8F901460298884206D1E4
:2021C000FFE74DA801F038FF002804D1FFE763A90020087090E04F984A4A10605098506082
:2021E0005198494908605298486053989060549888605598908156988881579843490860E3
:202200005898434908805A98401C002817D0FFE74DA8818E0A91C08E09900A983D498842FF
:202220000CDCFFE709983B49884207DCFFE70A9839490860099839490860FFE7FFE75B9842
:20224000AF21890088423ADBFFE75B983449884235DCFFE75C98642831DBFFE75C984B215D
:20226000890088422BDCFFE75D98502827DBFFE75D985C99884222DCFFE75E9832281EDBE8
:20228000FFE75E98AF214900884218DCFFE75F98502814DBFFE75F98FA2810DCFFE75B9883
:2022A000204908805C98204908805D981F4908805E981F4908805F981E490880FFE76098B9
:2022C000322808DBFFE760988C2804DCFFE7609819490880FFE719490020087018480190B6
:2022E00002F0A4FF019908464830482206F016FB63A901200870FFE763A8007864B080BD19
:2023000031444950D0342020E434202084352020B8352020204E0000543520204C352020F5
:202320004C040000CC352020D2352020D8352020D6352020D0352020CE352020933520209D
:20234000E032202070B58EB00D9009A90020087094480078002801D1FFE721E10D9891492C
:202360008A68801A0C900D980969884200D2ECE00D9914318B48016140784C2804D1FFE7AF
:2023800005F0B6FC069003E005F0C6FC0690FFE706980BA90880834840784C2805D1FFE75D
:2023A00000218248405E059004E000217E48405E0590FFE705980AA9088000210BA8405ED1
:2023C00005F02AFB77492422895E884208DDFFE700210BA8405E05F01FFB72498884FFE733
:2023E0007048007801283BD1FFE70C988008AF2812D3FFE700210BA8405E05F00DFB04460B
:20240000E3176849C86A8A6A121958418A62C862888A401C8882FFE700210BA8405E05F04C
:20242000FBFA6349884207DBFFE75E494822885C022318438854FFE700210BA8405E05F0CB
:20244000EBFAE121C900884209DBFFE7554A4823D15C01200143D15409A90870FFE773E014
:20246000504A049290880B99411A08A80180918A491C91820021405E05F0CEFA04990446EE
:20248000E317486B0A6B121958410A634863086AC968884216D1FFE700210BA8405E0390FF
:2024A00040480421415E092048430A2104F050FC0146039809B2884204DBFFE70C9839495F
:2024C0000862FFE700210AA8405EFF21F031884205DBFFE73349088B401C0883FFE70C98EA
:2024E0003049CA68032151438908884218D3FFE72C490291C88A401CC88200230BA8C65E53
:20250000F517CA6B8C6BA4196A418C63CA63C45E6443486C0A6C121958410A644864FFE748
:2025200000210BA8405E05F077FAE1218900884209DBFFE71B4A4823D15C01200143D1541D
:2025400009A90870FFE7FFE7FFE70C981549C968884205D2FFE709A80078002820D0FFE7BE
:2025600010490091087807AA019210701148502206F0D4F90099104A012010700020087073
:2025800002F08EFD01980078012804D1FFE7094802F022FD03E0074802F02AFAFFE7FFE753
:2025A0000EB070BD40342020BA3520209E35202092090000F0332020F5352020B0B588B035
:2025C000644AAF20410011606420506073208000906020209081604A7D2083001360516056
:2025E000FF21B63191601A2191815C4AC10011605B4A322111805B4A5B4911605B490001D6
:2026000008605B49E120800008805A49B920088059498C200880594AB42111805849088099
:2026200058496220088058490020049008705748039002F0FBFD039908464830482206F044
:202640006DF9FFF7E1FC07A9087002F029FD04984F4908704F4908704F4908604F49086045
:202660004F4908604F4908604F4908604F4908804F4908804F4908704F4908704F490870EA
:202680004F4908704F4908704F4908604F4908804F4908804F4908804F4908804F4908807A
:2026A0004F4908704F4908704F4908804F4908604F4A012111704F49087006A90870FFE781
:2026C00006A80078022826D8FFE706A80290007803F0FAFE029A05A90870059B1078062112
:2026E0000C4644434A480355059B15780C466C4304196370059B15780C466C430419A3709B
:2027000012785143411800208880FFE70698401C06A90870D4E738490020086037490120AE
:202720000870374805F060F907A801783548364A00920029019001D100980190019805F05A
:2027400053F905F031FA00F05FF9304805F04CF908B0B0BDD0342020E43420208435202059
:20276000B8352020543520205E1A00004C352020CC352020D2352020D8352020D63520200A
:20278000D0352020CE35202093352020E032202007362020E73520205C3520202C3520200C
:2027A0003C352020283520201C352020C43520209A352020E6352020ED35202006362020B9
:2027C000053620200236202068352020A8352020B2352020AA352020B4352020B035202078
:2027E000F9352020F8352020AC35202050352020043620200136202020352020FF3520201E
:202800003C8C0000098D0000DB8C00009A8D0000F834202080B586B004AB188003A8017092
:20282000029206F033F800280FD0FFE706F05EF800280AD0FFE703A80078002805D0FFE7BC
:2028400003A800780B2804D3FFE705A90020087086E002F025FC03F083FD43490620087009
:2028600004984249088002984149086003A801900178404848434049086005F095FB3F4957
:20288000086002983E4908603E48012101703E4A0020009010703D4A1070029A3C4B1A60D2
:2028A000029A3C4B1A60039A3B4B1A703B4A10703B4A10703B4A10703B4A10703B4A1080A5
:2028C0003B4A10803B4A11703B4908703B4908703B49087005F0AAFA3A49086005F0B8FABE
:2028E00001460098384A1160384908803849087005F09CFA3749086005F0AAFA0146009819
:20290000354A116035490880354AE121490011803449088034490880344908803449088052
:2029200034490880344805F05FF8009904A8405E02F098FD314805F057F80198007802F0A0
:2029400091FD2F4805F050F82E480078002803D1FFE705F061FFFFE705A901200870FFE7FD
:2029600005A8007806B080BDFA352020CA3520205C35202060EA0000583520203435202000
:202980003C35202007362020E6352020033620207C3520208035202004362020013620205E
:2029A000EA352020EB3520200A362020DC352020D43520200E3620200D3620200C362020B5
:2029C0000B362020883520208C352020DA3520200936202010352020143520209C3520208B
:2029E00098352020A8352020B2352020AA352020B4352020B0352020878D00000092000073
:202A0000E3910000E735202080B584B04E4804F0EBFF4E48007802F025FD4D4804F0E4FF7B
:202A2000032002F01FFD4B4804F0DEFF4A480090006802F017FD494804F0D6FF00984068D7
:202A400002F010FD464804F0CFFF46480290006802F008FD444804F0C7FF0298406802F02E
:202A600001FD424804F0C0FF0098806802F0FAFC3F4804F0B9FF0298806802F0F3FC3D4898
:202A800004F0B2FF00980C210191405E02F0EAFC394804F0A9FF01990298405E02F0E2FC05
:202AA000364804F0A1FF3648006802F0DBFC354804F09AFF002103913348405E02F0D2FCBD
:202AC000324804F091FF3248006802F0CBFC314804F08AFF3048006802F0C4FC2F4804F06A
:202AE00083FF03992E48405E02F0BCFC2D4804F07BFF03992C48405E02F0B4FC2B4804F060
:202B000073FF03992A48405E02F0ACFC294804F06BFF03992848405E02F0A4FC274804F08F
:202B200063FF03992648405E02F09CFC254804F05BFF03992448405E02F094FC234804F0BF
:202B400053FF04B080BDC046348D000093352020278F0000CE900000D0342020F290000089
:202B6000C2900000E4342020049100000A910000EC900000919000006E9000008A900000C6
:202B8000843520204B900000B8352020F88F000054352020D48F00004C352020B48E00007E
:202BA000CC3520203D8F0000D2352020538F0000D83520208F8E0000D6352020068F000095
:202BC000D0352020FB8E0000CE352020E391000080B58CB00B90DC2003F01EFD002801D160
:202BE000FFE7B5E005F084F80AA9088005F094F809A9088057480078002803D1FFE70020DA
:202C0000079005E00B9854490968401A0790FFE707980890514804F0E7FE089802F022FC57
:202C20004F48059004F0E0FE03F02AF904F0DCFE059804F0D9FE002106914A480090405ED2
:202C400002F010FC059804F0CFFE069946480290405E02F007FC059804F0C6FE06990AA820
:202C60000190405E02F0FEFB059804F0BDFE069909A80390405E02F0F5FB059804F0B4FE48
:202C800006993A48405E02F0EDFB059804F0ACFE06993748405E02F0E5FB059804F0A4FE9F
:202CA00000980199069A805E895E401A02F0DAFB059804F099FE02980399069A805E895E99
:202CC000401A02F0CFFB059804F08EFE05F04CF9049005F059F901460498401A02F0C2FBC0
:202CE000059804F081FE06992248405E02F0BAFB059804F079FE2048007802F0B3FB059851
:202D000004F072FE1D48007802F0ACFB059804F06BFE06991A48405E02F0A4FB059804F01E
:202D200063FE1848007802F09DFB059804F05CFE1548007802F096FB059804F055FE06990A
:202D40001248405E02F08EFB114804F04DFEFFE70CB080BDFA3520205C3520206091000058
:202D600000920000A6352020C23520209E352020BA352020A8352020F8352020F935202035
:202D8000DC3520200136202003362020DA352020E391000080B588B007905E4800780028E5
:202DA0000AD0FFE707985C49884201D8FFE7AFE0584900200870FFE758480078002812D1B5
:202DC000FFE760490120032200F0B2FD002803D1FFE704F0BDF99BE05049012008705649A7
:202DE0000020087094E0262004A90C2200F0A0FD002810D1FFE74F49002008704C480078EE
:202E0000032805D8FFE74A490878401C0870FFE704F09EF97CE004A8083005F073F8039039
:202E20000399084605F0BEFB00280ED1FFE703983B4903F06BFD002807D1FFE70398394990
:202E400003F082FD002808D0FFE73949002008703849087004F07CF95AE0039802F04AFF8E
:202E600002A908803048006800282FD0FFE702982E490988401A00B203F0E6FE014601A8BD
:202E800001802B49097832224A43323269460A800022805E895E884209DCFFE7002201A8F7
:202EA000805E6946895E494288420EDAFFE720480021017002A8405E02F06CFD002803D1E2
:202EC000FFE704F045F923E0FFE7FFE70298174908801749002008701649087016490870E3
:202EE00016490120087010480068002805D1FFE70E48008812490880FFE70B480068401C78
:202F0000002805D0FFE708490868401C0860FFE708B080BD10362020871300000F362020C9
:202F20000000D0C00000D04064352020E235202008362020FE352020E9352020FD35202000
:202F4000E43520209035202080B588B006904F48007800281AD0FFE700214D48405E32285B
:202F600014DBFFE700214A48405E8C280EDCFFE700234849CA5E03205043454AD25E8018BE
:202F8000801C820F801880080880FFE7424905910878401C0870414804F026FD059800784C
:202FA00002F060FA3E48049004F01EFD00213D48405E02F057FA049804F016FD06983A4951
:202FC0000968401A02F04EFA384804F00DFD05980078374909788906090E88422FDBFFE7F8
:202FE00002F05EF83D490020029008703C4908703C4804F0F9FC02992648405E02F032FAAA
:203000002A48039004F0F0FC374804F0EDFC2248007802F027FA039804F0E6FC01F08CFB91
:20302000002804D0FFE7324804F0DEFC03E02F4804F0DAFCFFE707A90120087022E01D49AB
:2030400000200190087006981B49086004F0EEFE1A49086004F0FCFE01460198184A116091
:2030600018490880184908701849087018490870184800881849088005F086FB019807A94C
:203080000870FFE707A8007808B080BD09362020DA352020CE35202001362020488F000057
:2030A00000920000DC35202080352020E391000004362020033620207C352020103520205B
:2030C000143520209C352020EA352020EB3520200A362020A8352020B23520200736202056
:2030E000E7352020918C0000688E0000C38C0000498D000080B594B01390FFE703A840212E
:2031000000F078FB002805D0FFE7139903A8FCF7D7FFF3E7139801F019FA139802F0EAFB3E
:203120001398FDF7EDFE1398FFF70CF94548007801280ED1FFE7139843490968401A000961
:203140007D2806D3FFE701F0ABFF404804F04CFCFFE73F48007800280ED0FFE713983D49AA
:203160000968401A142807D3FFE7139839490860139801F057FBFFE732480078022814D01F
:20318000FFE73048007803280FD0FFE72D48007804280AD0FFE72B480078052805D0FFE7BD
:2031A0002848007806282AD1FFE713982A490968401A2A490968884221D3FFE724480090AB
:2031C000007802A90191087001F06AFF0099244A002010700870234804F006FC01980078D7
:2031E00000280BD0FFE7204804F0FEFB1F48008802F038F91E4804F0F7FBFFE7FFE7184807
:203200000078002818D0FFE713981A490968401A142811D3FFE71398164908601648007819
:20322000002804D0FFE7139801F092F803E01398FFF7CEFCFFE7FFE7139802F0D7FF14B035
:2032400080BDC046FA3520202C352020788C0000E6352020283520205C3520205835202081
:2032600007362020E48E0000F08E0000C4352020E39100003C352020E735202080B59AB0A8
:2032800018901898C06806901898006907901898406908901898806909901898C0690A90D2
:2032A0001898006A0B901898406A0C901898806A0D901898C06A0E901898006B0F9004A84E
:2032C00000F0BAFE002804D1FFE719A90020087085E01898416B00200029039079D4FFE739
:2032E0001898416B0020404A9142039071DCFFE71898816B0020002903906AD4FFE71898E3
:20330000816B0020384A9142039062DCFFE71898C16B0020AF2292009142039059DBFFE7B6
:203320001898C16B0020314A9142039051DCFFE71898016C0020642903904ADBFFE7189885
:20334000016C00204B2292009142039041DCFFE71898416C0020502903903ADBFFE7189844
:20336000416C026C00209142039032DCFFE71898816C0020322903902BDBFFE71898816C84
:203380000020AF2252009142039022DCFFE71898C16C0020502903901BDBFFE71898C16CDE
:2033A0000020FA29039014DCFFE71898016D0020322903900DDBFFE71898016D0120002206
:2033C00001928D29029001DB0198029002980390FFE703980121084019A90870FFE719A812
:2033E00000781AB080BDC046204E00004C04000070B58AB00C4605460F980E9909AE3570E4
:2034000008AD2C800792069305AA117004A90391087001F045FE34490020029008703349D9
:20342000087002F09DFF09983149087008983149088006983049086007983049086004F05E
:20344000B3FD0299024603982D4B1A60069A2D4B1A60069A2C4B1A60059A2C4B1A70049AEB
:203460002B4B1A702B4A11802B4A11802B4A11802B4A11802B4A11802B4A11702B4A117042
:203480002B4A11802B4A11600078002808D0FFE72949002008802949088029490870FFE7FE
:2034A000284804F0A1FA02F0EBFC04F09DFA2648019004F099FA002108A8405E01F0D2FFF2
:2034C000019804F091FA079801F0CCFF1F4804F08BFA05A80078002803D0FFE705F09CF909
:2034E000FFE70AB070BDC0460636202005362020FA352020CA3520205C35202058352020B6
:20350000343520203C3520202835202007362020E6352020A8352020B2352020AA35202079
:20352000B4352020B0352020F9352020F8352020AC35202050352020C43520209A35202034
:20354000ED352020A88E000000920000E391000080B584B0024603A80270029100780028CC
:2035600028D1FFE744480078002822D1FFE74348007800281DD1FFE741480078002818D156
:20358000FFE745480078022813D3FFE7424901910878401E08703D49002008703F4804F03E
:2035A00023FA0198007801F05DFF3D4804F01CFAFFE75EE003A80078012828D1FFE72E483C
:2035C0000078002822D1FFE72C48007800281DD1FFE72B480078002818D1FFE72E480078BA
:2035E000092813D8FFE72C4900910878401C0870264900200870294804F0F6F90098007804
:2036000001F030FF264804F0EFF9FFE731E01A48007800280AD1FFE718480078002805D1B0
:20362000FFE717480078002803D0FFE703F086FA1FE01448007800280DD0FFE71149002041
:2036400008700E490120087002980F490860114804F0CAF90CE00A490120087002980A49D3
:2036600008600A4900200870094804F0BDF9FFE7FFE704B080BDC046FA352020053620204F
:2036800002362020063620206835202001362020F28B00005A8C0000FF3520201F8E00005E
:2036A000E391000080B58EB021200421039104F003FD0120029001034A480A9004F0F4FD6D
:2036C0002220052104F0F8FC02990A98490304F0EBFD02980399002207920192C30409934E
:2036E0000093430408930F20049003F085FB0399079A089B0998019200900E20059003F0C5
:203700007BFB049804F0BCFC059804F0B9FC1F200221069104F0D0FC0699202004F004FC19
:20372000352004F0E5FD362004F0E2FD192004F0DFFD182004F0DCFD312004F0D9FD07996C
:20374000089A099B0091322003F01EFC0799089A099B0091122003F017FC0799089A099B9E
:203760000091162003F010FC0799089A099B0091232003F009FC0799089A099B0091242016
:2037800003F002FC0799089A099B00911C2003F0FBFB0799089A099B00911D2003F0F4FB06
:2037A000102004F0A5FD112004F0A2FD0A9803210C9109060B9104F014FF0A980B9904F030
:2037C00073FD0C98010208480D9004F00AFF0D98064904F0B1FD0D98054904F065FD0EB04B
:2037E00080BDC04600000A4000200A40300040003003400080B588B0069005A80180069820
:20380000002805D0FFE705A80088012804D8FFE707A9002008707BE0FFE73F4800883F4985
:203820000988884270D0FFE73B48009002883C49895C04AA019211700088802104F08AF89F
:20384000009A01460198118000780D2805D0FFE704A800780A2840D1FFE73248007800288E
:2038600001D0FFE7D9E72F49012008702E480088002831D0FFE72C48018802A80180008803
:2038800005A90988884205DBFFE70598401E02A90880FFE703A900200880FFE703A80088D8
:2038A00002A9098888420CDAFFE703A802881F48805C06998854FFE70398401C03A9088032
:2038C000ECE7069902A80288002088541649088007A9012008701BE015E012490020087033
:2038E000114800883E2809D8FFE704980E490B880E4AD0540888401C088003E00A490020EE
:203900000880FFE7FFE788E707A900200870FFE707A8007808B080BDC8352020C635202022
:2039200070332020F6352020AE3520209034202080B58EB00CAB18700B910AA802700B98FD
:2039400000280AD0FFE70AA80078002805D0FFE703F0B2FB002804D1FFE70DA900200870A1
:2039600079E004F031FB3E4805900CA90122069203F0B4F805983B4904F0EAFC0598069B6B
:20398000002202920192022107910091232102F0F7FA079802F06AF9002804D1FFE70DA9DE
:2039A0000020087057E00AA80378002004900290042001900220009029482321012202F094
:2039C000DFFA049809A90870FFE709A800780AA90978884230DAFFE723480890FFE72048FA
:2039E00004F086FB00281AD0FFE71D4804F00EFE8007002806D5FFE704F0E6FA0DA90020DB
:203A0000087028E00898411E0891002806D1FFE704F0DAFA0DA9002008701CE0DFE7104879
:203A200004F008FE0B9909AA12788854FFE70998401C09A90870C8E7012002F017F90028C8
:203A400004D1FFE70DA90020087004E003F034FB0DA90870FFE70DA800780EB080BDC04615
:203A600000200F40830400008813000080B596B049480F9004F078FC0F9804F003FE0F985F
:203A800003F0C2FD0F9803F097FF0023149300930120420410920E20194603F075FF109A40
:203AA000149B00930F20194603F06EFF3B4812900421119104F08BFD12980821139104F003
:203AC00086FD1199129804F096FD1298139904F092FD0520800104F01BFF149815A9087019
:203AE000FFE715A80078082817D8FFE72B480C9004210D9104F0CCFBA0200E9004F008FFC0
:203B00000C980D9904F077FD0E9804F001FFFFE71598401C15A90870E3E720480390082146
:203B2000049104F0B5FBA02004F0F2FE0398049904F061FD0520800104F0EAFE00220792E1
:203B400001920120C10405910091430408930F2009900421069103F027F905980699079A6F
:203B6000089B019200900E200A9003F01DF9099804F078FA0A9804F075FA07480B9004F0C4
:203B800047FC0B9804F020FC102004F0C1FE03F02FF816B080BDC04600200F4000200A4050
:203BA00010B58EB00C900BA801800AA90A800021405E002806DCFFE70C99002008610DA962
:203BC000088079E0002201920BA80390805E0AA9895E401A09900C980069099A0A2151432F
:203BE0004018089008983749374A03F099FE08900C980168099848437D21C900029103F0EC
:203C0000A7F807900C984168089848432F4903F09FF8019B02990246039806920C9A0C246C
:203C2000145F04949268C05E504303F091F8014604984018079940180699401805900598F6
:203C4000FF21F631884204DBFFE7099800280CDCFFE70598002804D5FFE70998002804D4D2
:203C6000FFE708980C9908611DE00C98416800694843164903F06CF806900C980C21415EB6
:203C80000091816800220BA8805E48437D21C90003F05EF8014600984018079940180699EE
:203CA00040180590FFE705987D218A00002103F043F90DA90880FFE700210DA8405E0EB0C6
:203CC00010BDC046E05EF8FF20A1070040420F00B0B58EB004F044FD05903B4800680D908E
:203CE0003A4800680C90059804F030FD0D98384A1168401A0B900C9836490B68C01A0A90E1
:203D00000D9810600C9808600B98C117324A02920023049304F0E4F8049B07910690069802
:203D200007992E4A039204F007FD029A049B09900A98C11704F0D4F8039A049B0791069066
:203D40000698079904F0F8FC089009982449884203DBFFE723480990FFE70898204988424C
:203D600003DBFFE71F480890FFE700201E4B0093195E099D032214466C430919CC17A40F7B
:203D800009198908198019490191085E089B5A438018C217920F80188008088004F0E0FCB3
:203DA00000990246019805920988114A118000881049088010490868401C0860059804F0EE
:203DC000C5FC0EB0B0BDC04644352020703520204835202074352020A0D9080010270000F5
:203DE000C5090000C4090000A2352020BE352020A4352020C03520207835202080B58AB034
:203E0000024608A8027007910021069105AA117004AA117003AA117002AA1170079A11700C
:203E20000078002805D0FFE704F060FD002804D1FFE709A9002008806BE001A9002008700C
:203E4000FFE701A8007807283BD8FFE708A8007801A9097804F0F4F900282CD0FFE701A84C
:203E600001784A002D498A5E0699891806910599491C05AA11700078022804D8FFE704A906
:203E800001200870FFE701A80078052804D3FFE703A901200870FFE701A80078032805D04C
:203EA000FFE701A80078042804D1FFE702A901200870FFE7FFE7FFE70198401C01A9087007
:203EC000BFE705A80078002814D0FFE705A8007804280FD8FFE702A8007800280ED1FFE7F8
:203EE00004A80078002809D0FFE703A80078002804D0FFE709A9002008800AE007990120AD
:203F00000870069805A9097802F022FF09A90880FFE7002109A8405E0AB080BDE08D000055
:203F200080B588B00790354803F05EFD079801F099FA3348049003F057FD01F0A1FF03F0B5
:203F400053FD049803F050FD002103912D48405E01F088FA049803F047FD03992A48405E7B
:203F600001F080FA049803F03FFD03F0C1FE01F079FA049803F038FD03F0CEFE01F072FA15
:203F8000049803F031FD03992048405E01F06AFA049803F029FD03991D48405E01F062FACC
:203FA000049803F021FD1B4801781B481B4A05920029069001D105980690069803F014FDB3
:203FC000174803F011FD1748007801F04BFA164803F00AFD04F0A6FB01461448144A0192F3
:203FE0000029029001D101980290029803F0FCFC104803F0F9FC08B080BDC0462490000095
:2040000000920000A6352020C23520209E352020BA35202006362020D49000001A910000EF
:20402000F08D0000FF352020759000002491000098910000E391000082B0009000988068F6
:204040004049884240DCFFE70098C0683D4988423ADCFFE7009800693A49884234DCFFE7BB
:2040600000984069374988422EDCFFE7009880697D21C900884227DCFFE70098C0697D21CB
:20408000C900884220DCFFE70098006AE1214900884219DCFFE70098406AE1214900884262
:2040A00012DCFFE70098806A274988420CDCFFE70098C06A4F21C943884205DBFFE700983C
:2040C000C06A512804DBFFE701A90020087034E000988068002828D4FFE70098C0680028B0
:2040E00023D4FFE70098006900281ED4FFE700984069002819D4FFE700988069002814D415
:20410000FFE70098C06900280FD4FFE70098006A00280AD4FFE70098406A002805D4FFE7F0
:204120000098806A002804D5FFE701A90020087003E001A901200870FFE701A8007802B0F5
:204140007047C046B80B000088130000F0B5394A8218394BC0183A4D4C790B79002C22D038
:20416000466F202B02D00524E70100E0354F2E40002B00D188273E434667846F2C403C43D3
:204180008467446B2D4E34404463846B3440846300244465846554688F26F643344054601D
:2041A0009468344094600C688979202B09D006467036002B15D1641E4460C46E2C4088278B
:2041C00015E0641E4460C46E2C401E4E3443C466046F2C40344304671B4D01246707064611
:2041E00007E00527FF0164084460C46E2C403C43C46634682C403C433460C46A0F4D2C4044
:20420000C462046B2C4004630024C4640465C46F8F25ED432C40C46714682C40146019431B
:2042200002680A4B1340BD220A40D118891C0160F0BDC04684180000041800008888FDFFDD
:2042400024493E0001040000FFFFFFCF4000FFCF80B588B006AB187005A8017004923948F9
:2042600003900498002804D1FFE707A90020087064E002F047FF002807D1FFE733490620E0
:20428000087007A90020087058E003F0ADFE2E48029005A90122019202F020FC019B0298D8
:2042A00006A90978002202F0CFFD02F0EBF9002805D0FFE702F026FF002804D1FFE707A98B
:2042C000002008703AE006A801781F4801231A4602F0BAFDFFE71C4803F018FF00281BD00A
:2042E000FFE7194804F09CF98007002806D5FFE703F07AFE07A9002008701FE00398002809
:2043000006D1FFE703F070FE07A90020087015E00398401E0390DEE70B4804F095F904997F
:20432000087002F0AFF9002804D1FFE707A90020087003E007A901200870FFE707A8007807
:2043400008B080BD8813000000200F40EC35202080B584B00390314803F046FB0398304940
:204360000968401A01F07EF82E48019003F03CFB002102912C48405E01F074F8019803F02B
:2043800033FB02992948405E01F06CF8019803F02BFB03F0ADFC01F065F8019803F024FBA9
:2043A00003F0BAFC01F05EF8019803F01DFB02991F48405E01F056F8019803F015FB1D4889
:2043C000007801F04FF8019803F00EFB1A48007801F048F8019803F007FB02991748405E67
:2043E00001F040F8019803F0FFFA1548007801F039F8019803F0F8FA1248007801F032F8AD
:20440000019803F0F1FA02990F48405E01F02AF80E4803F0E9FA04B080BDC046B09100001E
:204420005C35202000920000A6352020C2352020A8352020F8352020F9352020DC3520207E
:204440000136202003362020DA352020E3910000B0B53A4A80184A6842600A78222A56D8D8
:20446000930001A4E3589F46054500000F450000054500000F4500000F4500000F45000000
:204480000F4500000F4500000F4500000F4500000F4500000F4500000F4500000F4500007C
:2044A0000F4500000F450000F54400000F450000F54400000F4500000F4500000F45000092
:2044C0000F4500000F4500000F4500000F4500000F4500000F4500000F4500000F4500003C
:2044E0000F4500000F450000F54400000F450000F5440000036803242407A343012464071B
:204500001B1903E0036803242407A34303600B69C360CB68C46A0A4D25400A4C1C402B19D4
:20452000C3620368084C1C400460097A114302683F239A43194051180160B0BD04180000AB
:204540008888FDFF777702007F00FFFF80B588B00790079837490968884201D1FFE766E086
:20456000079834490A68801A05900798086005981A2803D3FFE719200590FFE706A9002059
:204580000870FFE706A80078022850D8FFE706A8017806224A43284989180491007801F073
:2045A00093FF014603A80170007804990978884214D1FFE704988088059940180290029815
:2045C0001E49884203D3FFE71D48019002E002980190FFE701980499888006E003980499A9
:2045E0000870049900208880FFE704988088192804D3FFE7039804994870FFE7049880788C
:2046000000280BD1FFE704984078002806D0FFE706A800780799FEF79BFFFFE704994878E0
:204620008870FFE70698401C06A90870AAE708B080BDC04620352020F834202061EA0000A3
:2046400060EA000080B582B001906946002008700198002801D1FFE763E0334800785D289D
:204660001BD1FFE731480078002816D0FFE7684604F080F800280CD0FFE76846007802F067
:2046800021FF2B4800780199087001990120487047E0264900200870FFE703F065FB0146DC
:2046A00021480170007800280CD1FFE7042001F065FB1F480078019908701E4800780199DF
:2046C00048702EE0184800785D280CD0FFE7072001F054FB164800780199087015480078D1
:2046E000019948701DE0684604F044F800280CD0FFE76846007802F0E5FE0D480078019941
:2047000008700199012048700BE0052001F036FB074800780199087006480078019948708B
:20472000FFE702B080BDC046EE352020EF352020FC352020F735202080B5B6B03548029050
:20474000007848210491414333480390401800F06DFD02980399049A304B0A9303230B93EF
:20476000A8230C9300780D900AA80590103004F0D5F80399049A05985830483104F0CEF8E0
:2047800005980021329102F049F93390EFF3108035903598089072B62148069003F058F89B
:2047A00006987F21890207910122520200F06CFA06980799402203F05FFD014609A8017073
:2047C000007803280DD1FFE70120400200907F20810213480AAA2A2301F012FB09A90870D9
:2047E000FFE70898002802D1FFE762B6FFE709A80078032804D0FFE734A90020087004E0ED
:20480000FDF702FC34A90870FFE734A8007836B080BDC04693352020E03220203144495086
:2048200000D00C4080B586B005902D480078002806D0FFE72B480088C0084B2801D3FFE79B
:204840004CE02848019000881421414326484018049003F04DFA03A9088003F05DFA02A92D
:204860000880059821490968401A0021204A03F057F8049908801F490888049A50801E4820
:204880000288049B9A80039A049BDA80029A049B1A811A4A1288049B5A81194A1288049B55
:2048A0009A810988039A891A049AD18100880299401A0499088203F057FB009003F064FB51
:2048C00001460098401A0F490F4A02F035FB0199049A50820888401C0880FFE706B080BD75
:2048E000E6352020C4352020000020205C352020FFFF0000A6352020C23520209E352020B0
:20490000BA3520200080FFFFFF7F000080B586B0002005900490039002A9087003F0BCFA59
:2049200002F0F2FD01F084FF02F0F4FC02F078FB01F03CFEFDF742FE03F07EFF1520009047
:2049400003F0C4F8009803F003F9264803F0C0FD62B6FFE701F038FF03F0D4FF0499401A20
:20496000052806D3FFE703F0CDFF049003F082FAFFE702A80078002816D1FFE703F0C2FFD8
:204980001949884210D3FFE7FFF770F802F048FB01F00CFE03F0B6FF039002A90120087015
:2049A000124803F021F8FFE702A80078002811D0FFE703F0A7FF0399401A0A280AD3FFE716
:2049C00003F0A0FF039001A8FFF73CFE0398FEF7E1F9FFE703F096FFFEF78CFB03F024FF6F
:2049E000B8E7C0460000874070170000F38C000080B584B00390A02001F00EFE002801D192
:204A0000FFE759E02D4802F0EFFF0398C06900F029FD2B48009002F0E7FF039841782948A8
:204A2000294A01924C29029001D001980290029802F0DAFF0398808A00F014FD009802F0D8
:204A4000D3FF0398006B00F00DFD009802F0CCFF03982421405E00F005FD009802F0C4FF72
:204A60000398C08A00F0FEFC009802F0BDFF0398806B00F0F7FC009802F0B6FF0398006C72
:204A800000F0F0FC009802F0AFFF0398006A00F0E9FC009802F0A8FF0398008B00F0E2FC03
:204AA000009802F0A1FF03984821405C00F0DAFC064802F099FFFFE704B080BDD091000056
:204AC00000920000E6910000F5910000E391000080B586B005AB187004A8018003922848FE
:204AE0000078012803D0FFE700F0DAFAFFE725490020087024490870214A0121117023494D
:204B000008802349088005A800784C2804D1FFE704981E49088010E005A80078522804D1D6
:204B2000FFE704981A49088006E0049817490880049817490880FFE7FFE7039815490860ED
:204B400003981549086000221048805E1049895E00F030FE114802F047FF03F0E3FD014693
:204B60000F48104A01920029029001D101980290029802F039FF0C4802F036FF06B080BD07
:204B8000FA35202006362020053620209E352020BA3520205C3520202C352020828E0000EB
:204BA0002491000098910000E391000089B007900691002005900121049103A9087007980D
:204BC00000782D2807D1FFE70020C04304900798401C079009E0079800782B2804D1FFE7F3
:204BE0000798401C0790FFE7FFE7FFE7079801780020302902900DDBFFE707980178012047
:204C0000002200923A29019001DB0098019001980290FFE70298C007002818D0FFE703A9D3
:204C20000120087005981749884204DBFFE708A90020087022E005980A21414307980078A1
:204C40004018303805900798401C0790CEE703A80078002805D0FFE707980078002804D09F
:204C6000FFE708A90020087008E00599049848430699086008A901200870FFE708A80078F9
:204C800009B0704701C2EB0BF0B583B002920190304B314D00918C0A28680727384005266D
:204CA0002E60196889048A0F2860296839402E6018682960002A214608D028490840511C07
:204CC00002F042FC0146204602F03EFC0198204A801801902A683A402E601E4803682A60AA
:204CE0002A683A402E6003682A60012293020298984207D0530298420CD10098C30B0BD1D4
:204D0000019803E01F210C4001984030A24001689143016003B0F0BDFF290DD82B683B4087
:204D20002E600C4C24682B60A3049B0F019800D12039CC08001DE9E71302FF339942E9D2C4
:204D4000FF23DB43C918CC0801980830DEE7C046D01100001800C44100134040FF0F000023
:204D6000FCB40127FF07794002E0FCB40127FF070C024D002D0E03D1002C52D1FCBC7047B4
:204D80003C43FF2D50D0A408002900D56442020243001B0E04D1002A43D10800FCBC7047FE
:204DA0003A43FF2B41D09208002800D552425E1B04D5170022003C0076422B00192E06D544
:204DC00027003741D2191C27F71B7F42BC40002A27D002D55242012700E00027013B5200EE
:204DE000FCD51500802635400FD01500202635402C43803208D21500402635402C4304D1D4
:204E000001263602B24300E05B1C5200023308DDFF2B0BD2500ADB051843FF073843FCBCA6
:204E200070470020FCBC70470800C70FFF07FF20C0053843FCBC704780B588B007900691DF
:204E400005A8027004A900200870FFE7079801780020002903900FD0FFE704A8017805A87D
:204E600002780120002301939142029001DB0198029002980390FFE70398C007002841D0C6
:204E8000FFE7FFE70798007802F078FE002804D0FFE70798401C0790F4E707980078002839
:204EA00001D1FFE72EE00798069A04A90B789B00D0500498401C0870FFE707980178002074
:204EC0000029009008D0FFE70798007802F056FE414248410090FFE70098C007002804D021
:204EE000FFE70798401C0790E7E707980078002807D0FFE70799002008700798401C0790A6
:204F0000FFE7A3E704A8007808B080BD80B582B001902C4802F068FD0198008800F0A2FA98
:204F2000294802F061FD01980221405E00F09AFA2648009002F058FD01980421405E00F041
:204F400091FA009802F050FD01980621405E00F089FA009802F048FD01980821405E00F0FF
:204F600081FA009802F040FD01980A21405E00F079FA009802F038FD01980C21405E00F017
:204F800071FA009802F030FD01980E21405E00F069FA009802F028FD01981021405E00F02F
:204FA00061FA009802F020FD01981221405E00F059FA074802F018FD064802F015FD02B0E8
:204FC00080BDC04660910000E690000000920000108E0000E391000080B586B00590002063
:204FE0000490642001F018FB002801D1FFE74BE00598808A002809D0FFE7059A906AD16A28
:20500000928A002303F098FB0490FFE71F4802F0EBFC0598C06900F025FA1D48019002F054
:20502000E3FC059841781B481B4A02924C29039001D002980390039802F0D6FC05980221BA
:20504000405E00F00FFA019802F0CEFC049800F009FA019802F0C8FC0598808A00F002FAF3
:20506000019802F0C1FC05982421405E00F0FAF9019802F0B9FC05984821405C00F0F2F9C8
:20508000064802F0B1FCFFE706B080BDB891000000920000E6910000F5910000E3910000FE
:2050A00080B51A490020088019490880194908801949088019490870194908601949088064
:2050C000194908601949087019490860194908601949087019490870194908701949088020
:2050E0001949088019490870194908701949087019490870194908801949087019490880B0
:2051000003F042FB02F050FB80BDC0469E352020BA352020A6352020C2352020FA352020DC
:2051200058352020AC35202050352020033620207C35202080352020EA352020EB3520209E
:205140000A362020DC352020D43520200E3620200D3620200C3620200B362020DA352020DC
:20516000093620209C35202080B584B0284802F03BFC03F097FB002804D0FFE7274802F0D5
:2051800033FC0EE003F082FB01462248224A02920029039001D102980390039802F024FC69
:2051A000FFE703F06DFB00F05DF91D48019002F01BFC03F05FFB00F055F9019802F014FC43
:2051C00003F052FB00F04EF9164802F00DFC03F063FB00F047F9019802F006FC002002F0DF
:2051E00051FB00F03FF9019802F0FEFB012002F049FB00F037F9019802F0F6FB022002F0B0
:2052000041FB00F02FF9084802F0EEFB04B080BD4C910000BC9100009F9000003C900000F9
:2052200000920000DA900000E391000081B00090224A1068009908605068009948602048F7
:205240000168009B99604168009BD9609168009B19618168009B59610C21525E009B9A6115
:20526000405E0099C861174800680099086200211548405E009A506214480068009A90624C
:2052800013480068009AD0621248405E009A10631148405E009A50631048405E009A9063B3
:2052A0000F48405E009AD0630E48405E009A10640D48405E0099486401B07047D034202046
:2052C000E434202084352020B8352020543520204C352020CC352020D2352020D8352020F1
:2052E000D6352020D0352020CE35202081B000900098C068204A1060009800695060009837
:2053000040691E4908600098806948600098C06990600098006A88600098406A9081009866
:20532000806A88810098C06A154908600098006B144908800098406B134908600098806B80
:20534000124908600098C06B114908800098006C104908800098406C0F4908800098806C58
:205360000E4908800098C06C0D4908800098006D0C49088001B07047D0342020E4342020C6
:2053800084352020B8352020543520204C352020CC352020D2352020D8352020D63520203D
:2053A000D0352020CE35202081B0009000980068204A1060009840685060009880681E49F3
:2053C00008600098C06848600098006990600098406988600098806990810098C069888187
:2053E0000098006A154908600098406A144908800098806A134908600098C06A12490860F3
:205400000098006B114908800098406B104908800098806B0F4908800098C06B0E4908807E
:205420000098006C0D4908800098406C0C49088001B07047D0342020E4342020843520206C
:20544000B8352020543520204C352020CC352020D2352020D8352020D6352020D035202030
:20546000CE35202080B58CB00B9007A9002008700B9800280AD5FFE72D2001F0FFFF0B9826
:20548000C04306900698401C069002E00B980690FFE7FFE706980A21049102F055F8084611
:2054A00004993022104307AA0592137808AAD054069802F049F8059906900798401C087089
:2054C000FFE706990020002903900DD0FFE707A801780120002201920C29029001D3019876
:2054E000029002980390FFE70398C0070028D1D1FFE7FFE707A8007800280AD0FFE7079861
:20550000411E07A80170017808A8405C01F0B6FFF0E70CB080BD704780B582B0019001F031
:20552000B9F901461E4801800021415E03204843052101F00DFC4B218900E122920001F082
:20554000FBFC6946088017480078002804D1FFE70098154908800DE000231349CA5E03202E
:2055600050436A46D25E8018801C820F801880080880FFE70D490120087001980C49086020
:2055800001980C4908600C49002008700B4908700B4908700B49088003F0F6F802B080BD84
:2055A0009C3520200136202098352020033620207C35202080352020EA352020EB35202038
:2055C0000A362020DC35202010B586B0089C05AC207004A8018003920293204800780028BB
:2055E00014D0FFE705A80278029B1C48012101F0FBFD002804D0FFE7184800F07BFD04E020
:205600000298194901F016FFFFE725E014480078002812D0FFE705A80278029B114801219A
:2056200001F0E2FD002808D0FFE70E48019000F061FD0198FFF7D0FC0EE005A800780022EF
:2056400004A9895E039A029B089C009401F054FB024800F04FFDFFE706B010BD4034202061
:20566000F5352020F03320205B91000010B586B0089C05AC207004A80180039202932048D2
:205680000078002814D0FFE705A80278029B1C48022101F0A9FD002804D0FFE7184800F08C
:2056A00029FD04E00298194901F0C4FEFFE725E014480078002812D0FFE705A80278029BBE
:2056C0001148022101F090FD002808D0FFE70E48019000F00FFD0198FFF78AF90EE005A85A
:2056E0000078002204A9895E039A029B089C009400F0FEFF024800F0FDFCFFE706B010BD81
:2057000040342020F5352020F03320205B910000F0B58B4200D1824204D90B00020000210A
:20572000002040E0002B00D1002A0CD10B00020000210020002B00D1002A01D0C943C043D2
:2057400000F037F82FE01C0015000B0002000CB4002126002F00FF19764102D2491C402936
:20576000F9D100201E001700FF19764102D2401C4028F9D10E1A21002800320002F054FCF4
:205780000C0005000CBC00200021A34200D1AA4201D3521BA341404149416D08E7073D433A
:2057A0006408761EF1D5059F002F01D03A607B60F0BD7047B0B58CB002460BA802800AAAD4
:2057C0000292118000210491405E9B218A0001921D49009101F060FB0099019A049B044617
:2057E000029809AD2C80C05E01F056FB049908AA10800998154A10800898154A1080099AAC
:2058000007A803900280089A06AB05931A80405E00F0E2FD04990598405E00F019FE039858
:205820000499405E02F00FF90146049801F0F4FF04990598405E02F006F90146012001F04A
:20584000EBFF0CB0B0BDC04694FDFFFFA0352020BC35202080B588B003F042F8014607A8CA
:205860000290017000787F21084006A9039108701B4802F0B9F803F02DF8014619481A4AE0
:2058800004920029059001D104980590059802F0ABF803980078FFF7E5FD1448019002F0B5
:2058A000A3F803F00BF8FFF7DDFD019802F09CF803F00AF8FFF7D6FD019802F095F802F0A0
:2058C000F7FFFFF7CFFD019802F08EF802980078FFF7C8FD064802F087F808B080BDC04678
:2058E0001C900000BC9100009F90000000920000E391000010B584B003901F4800780028E7
:2059000017D0FFE703981D490968401A00097D280FD3FFE71849002008701C49095E1C4A4D
:205920001268039B0124019400900420FDF760FD1FE01348007800281AD0FFE703980F49D3
:205940000968401A00097D2812D3FFE70C49002008700C480178039A4B208000FCF75AFF75
:20596000002804D1FFE7084802F03EF8FFE7FFE7FFE704B010BDC04605362020683520203B
:2059800002362020FF352020C98B0000943520200C35202080B584B002A90880029822499C
:2059A0000988401A00B201F04FF901A908801F48007800281CD0FFE7002101A8405E322844
:2059C00016DCFFE7002101A8405E3121C94388420EDBFFE702981449088014480078022813
:2059E00005D8FFE711490878401C0870FFE706E002980D4908800D4901200870FFE70B48CA
:205A00000078032807D3FFE708490020087003A90120087003E003A900200870FFE703A83D
:205A2000007804B080BDC046B6352020FE35202080B584B00390642000F0EEFD002801D104
:205A4000FFE72EE0184801F0CFFF0398FFF70AFD164801F0C9FF0220FFF704FD144801F01E
:205A6000C3FF02F05FFE01461248134A01920029029001D101980290029801F0B5FF0F4836
:205A800001F0B2FF02F04EFFFFF7ECFC0C4801F0ABFF02F04FFFFFF7E5FC0A4801F0A4FF5B
:205AA000FFE704B080BDC046BB90000000920000759000002491000098910000748D000048
:205AC000D88E0000E391000080B584B01E491F48039002F06FFB03981D49FEF737FB039803
:205AE0000023019319461A4601F0ACFD019B0398009319461A4602F0D3FC019A03981146BF
:205B000002F04AFB019A0398114602F07DFE019B039801210291009119461A4602F0C0FC6A
:205B20000199029A039802F037FB0199029A039802F06AFE039802F0C3FD0398032102F047
:205B4000C9FD04B080BDC046E0910000004008400490000080B588B01A48019002F0D4FBDA
:205B60001948029002F0D0FB1848039002F08CFC1748049002F088FC1648059002F054FC6A
:205B80001548069002F0C8FC1448079002F0DCFC019802F095FB029802F092FB039802F0DE
:205BA00067FC049802F064FC059802F019FC069802F09AFC079802F0BBFC102002F0A8FEBA
:205BC00008B080BD00000A4000200A40004008400000874000200F400020104000000840A6
:205BE000FCB40127FF0706004E4001D4002600E03E00020243001B0E30D03A43FF2B30D003
:205C00000C024D002D0E29D03C43FF2D29D05B194240504042404C4061404C4000B501F0EA
:205C200089FD20BCAE464240504042404C4061404C4025001400002C01D46400013B803433
:205C400001D3013364087E3B08DDFF2B09D2BC43200ADB0518433043FCBC70470020FCBC0F
:205C60007047FF20C0053043FCBC704780B586B004901E480390FFE70398411E0391002813
:205C80002AD0FFE704990920C00101900143184802F0B2FB0199029002A8008808420DD044
:205CA000FFE702990920C0010140114802F050FB02F08AF905A90020087013E002980499BD
:205CC000084208D0FFE70499094802F041FB05A90120087006E0CFE702F076F905A900208E
:205CE0000870FFE705A8007806B080BD8813000000200F4080B586B0049004981C49FFF72E
:205D00006FFF039003981B4900F01EFE002804D0FFE705A91848088025E00398C721090668
:205D200000F0F4FD002805D0FFE70120C00305A9088018E003980090002100F0FBFD014612
:205D40003F200006BF22120601920029029001D10198029000980299FFF707F801F040FD44
:205D600005A90880FFE7002105A8405E06B080BD4D3D0F4400FEFF46FF7F000081B069462A
:205D80000870174900200870009816490870164800881649884205D8FFE713490888401C0A
:205DA0000880FFE712480078FF2805D0FFE710490878401C0870FFE70E480078002805D063
:205DC000FFE70B480078032808D3FFE70949002008700949087009490870FFE701B070475A
:205DE000EF352020EC352020963520205FEA0000E8352020F7352020FC352020FB352020E0
:205E0000F0B585B004900120002B32D00D46194601402ED116460A98019011200002049975
:205E20000F18154C029603930520786001263E602068400705D52068400702D520684007CC
:205E4000F6D404982946019AFEF71EFF7E600B4878623D62029E30683863706878630498F4
:205E600002F078FD039B9B1E03D0083608350128D8D105B0F0BDC046D0E30C40FF010000DD
:205E800082B017480078401E0090052822D80098810001A040588746B15E0000B75E0000A1
:205EA000BD5E0000C35E0000C95E0000CF5E00001148019011E00F4801900EE00C480190BC
:205EC0000BE00A48019008E00748019005E00548019002E009480190FFE7019802B07047BD
:205EE000FA35202067900000109100007C91000059900000529000009091000033910000DE
:205F000085B003900291FFE70398017800200029019006D0FFE702980078411E88410190CB
:205F2000FFE70198C007002812D0FFE70398007802990978884204D0FFE704A90020087033
:205F400019E00398401C03900298401C0290DBE70398017800200029009006D1FFE7029830
:205F60000078414248410090FFE700980121084004A90870FFE704A8007805B0704700008A
:205F8000F0B589B01C4615460A46064610980F990E9B0896079206AA157005AD2C8004AC57
:205FA000237003AB0093197002A90191087008980E49401807994900127811430C4A01F072
:205FC00033FE009B019A08980A49401805990904247809191B781943127811430122114362
:205FE000054A01F021FE09B0F0BDC04610120000FF070000141200000F00FF0F80B586B000
:2060000004A9087003A90520087001F07BF8002807D1FFE717490620087005A90020087084
:2060200021E001F0E1FF1248029003A90122019200F054FD019B029804A90978002200F089
:2060400003FF00F01FFB002805D0FFE701F05AF8002804D1FFE705A90020087003E005A954
:2060600001200870FFE705A8007806B080BDC04600200F40EC35202080B598B017901798E0
:20608000006804901798406805901798806806901798C06807901798006908901798406975
:2060A0000990179880690A901798C0690B901798006A0C901798406A0D901798806A0E90C0
:2060C0001798C06A0F901798006B10901798406B11901798806B12901798C06B139017982B
:2060E000006C14901798406C159001A8FDF7C6F818B080BD80B586B00590402000F08CFA5A
:20610000002801D1FFE724E0134801F06DFC0598C069FFF7A7F9114801F066FC05980178C8
:206120000F48104A03920129049001D003980490049801F059FC059841780B480B4A0192E8
:206140004C29029001D001980290029801F04CFCFFE706B080BDC0468891000000920000DF
:20616000EF910000EC9100009C910000A091000080B586B0014604A80170007803A901913F
:20618000FDF73CFE0146019802AA11800078002820D0FFE7002102A8405E01F03DFC0B2878
:2061A00018DCFFE704A80078002102F049F8002810D1FFE704A80078012102F041F8002805
:2061C00008D1FFE704A80078062102F039F8002804D0FFE705A90020087003E005A90120B8
:2061E0000870FFE705A8007806B080BD80B582B0019017480078002807D0FFE7019815497E
:206200000968401A072801D8FFE71EE0019811490860114800881149098888420EDAFFE708
:206220000D4800900088142141430E484018FEF76DFE00990888401C088006E004490020CA
:206240000870074801F0D0FBFFE702B080BDC046ED3520201C3520209A352020C4352020A5
:20626000CC8E000000002020F8B5451C00780023082B32D02F78C2070CD16A780F241440F0
:20628000E41C122C0BD102242E57F4B2002E08D4EE1C0EE06D1C4A1C0F7011461AE0AE1C08
:2062A00008E02E1DED7800957F252C40009DED012C1912343D0112095219094DAA420ED0A7
:2062C000D243002C05D08D5C4F1C0D70641E3946F7E7354640085B1CCAE72846C5E7F8BD3E
:2062E000FF0F000080B588B0014607A80290017000780021049101F0A3FF014602980091F7
:206300000078012101F09CFF009902460298891801910078022101F093FF0199024602980F
:20632000891803910078032101F08AFF0399024604988A1806A90A7009780329059009D3A9
:20634000FFE707A80078062101F07AFF414248410590FFE705980121084008B080BD00001C
:2063600080B582B002F0FCF901900F49002008600E4908600E4908600E4908600E49088042
:206380000E4908800E4908600E4908800E4908800E4908700E4908600E490860019802F0C9
:2063A000D5F902B080BDC046403520206C3520204435202070352020A4352020C035202098
:2063C00078352020A2352020BE35202000362020483520207435202080B588B0014607A807
:2063E00001800021405E01280DDBFFE70120059001061648069001F093FF059906984906A7
:2064000002F0DBF820E0002107A8405E00280DD5FFE70120039001060C48049002F0CDF8FF
:2064200003990498490601F07BFF0CE00120019001060648029002F0C0F8019902984906B8
:2064400002F0BBF8FFE7FFE708B080BD00000A4080B588B0014607A801800021405E0128C0
:206460000DDBFFE70120059041021648069001F057FF05990698090202F09FF820E0002129
:2064800007A8405E00280DD5FFE70120039041020C48049002F091F803990498090201F031
:2064A0003FFF0CE00120019041020648029002F084F801990298090202F07FF8FFE7FFE7FB
:2064C00008B080BD00200A4080B586B0014605A80170007800280BD1FFE70120C1050291B1
:2064E000144802F03DF801460298049103901AE005A8007801280BD1FFE701200102019150
:206500000D4802F02DF8014601980491039009E008484021009102F023F80146009804915B
:206520000390FFE7FFE70498039908404142484106B080BD00200A4000000A4010B584B0D0
:20654000089C079C069C03AC207002A8017001A8028068460380134900200870039A1249B0
:206560000A70029A4A70019A4A80009A8A80089A8A60069ACA60089A0A618882C882088300
:20658000079ACA61069A0A628884C862886248630863C8638863486408644822885404B0C5
:2065A00010BDC046F5352020403420200E49002008700E4908600E4908600E4908700E4957
:2065C00008700E4908800E4908700E4908800E4908800E4A012111700D4908700D49087040
:2065E000487088707047C046FD3520206435202018352020E935202008362020B63520204F
:20660000FE352020E2352020E4352020103620200F3620209035202085B004A9088016487F
:20662000008816490988884208DBFFE71248008812490988401A03A908800AE00F48018829
:206640000D480088401A01218902401803A90880FFE703990A48411A02A80180018804A83B
:2066600002880120002300939142019001DA00980190019805B07047DE352020E0352020A4
:20668000FF03000080B584B017480290FFE7174801F0C6FF019001A800788007002806D567
:2066A000FFE701F0A1FC03A90020087018E001A80078C007002801D1FFE70DE002980028B3
:2066C00006D1FFE701F090FC03A90020087007E00298401E0290DAE703A901200870FFE7DF
:2066E00003A8007804B080BD8813000000200F4070B58EB0044612980DA8049004700CACB0
:20670000059421800B920A93134A002106911170017802200790032208924C29099001D09F
:2067200008980990069C05990998095F0B9A129B01940094FCF75CFE0499059B0798069A93
:2067400009789B5E0B9C0A9D129E029601950094FFF7F4FE0EB070BDE735202080B584B067
:2067600002900298C068012806D8FFE70298A0214058002804D0FFE703A9002008701EE0C1
:2067800000200190FFE70198012814D8FFE70298019A4821514340181030FFF76DFC00287D
:2067A00004D1FFE703A90020087008E0FFE70198401C0190E7E703A901200870FFE703A8E2
:2067C000007804B080BD000080B582B0FFE7144801881448028800209142019007D0FFE7F7
:2067E000114801F08DFE012148400190FFE70198C007002811D0FFE70948009001880B4897
:20680000415C094801F0C2FE009800880121890201F0A0F800990880D9E702B080BDC046AD
:20682000E0352020DE35202000201040E02E202080B586B00120059001071448019001F0EB
:2068400049FC059801061248039001F043FC019805998903029101F0F7FB039805990903B4
:20686000049101F0F1FB0198029901F017FC0398049901F013FC059801F0FCF8059801F026
:206880003BF9FFF76DFD06B080BDC04600000A4000200A4080B584B001F0C8FA13490968CE
:2068A000401A039001F0D4FA11490968401A02900398002804D5FFE7039840420390FFE75D
:2068C0000298002804D5FFE7029840420290FFE7039802994018C10F401840100190019873
:2068E0000021044A00F028FB04B080BD1035202014352020FF7F000010B500F0FDFE0028C1
:2069000001D0002010BD012010BDC04610B500F0F3FE002801DB002010BD012010BDC0463A
:2069200010B500F0E9FE002801DD002010BD012010BDC04610B500F0A3FE002801DA00205B
