:200000000080202091AF000085AF000085AF00000000000000000000000000000000000078
:2000200000000000000000000000000085AF0000000000000000000085AF000085AF000024
:2000400085AF0000818E000085AF000085AF000085AF0000DD7B000085AF000085AF000001
:200060000000000085AF000085AF0000000000000000000085AF0000E98B000085AF00003C
:2000800085AF000085AF000085AF000085AF000085AF0000E1A300000000000000000000D8
:2000A00085AF000085AF0000000000000000000085AF00000000000085AF000085AF00003C
:2000C000B0B5FCB07B900AF001FA7A90FD480078022816D0FFE7FE480078032811D0FFE7A2
:2000E000FB48007804280CD0FFE7F9480078052807D0FFE7F6480078062802D0FFE701F027
:2001000019FA7A98F3490968884202D1FFE701F011FA7A98EF4908607B9802F09DF9002819
:2001200002D0FFE701F006FAE9480078022809D1FFE7E9480088E9490880E9490020088036
:2001400001F0C6F9E2480078032809D1FFE7E34900200880E0480088E149088001F0B7F98B
:20016000DB480078052806D0FFE7D9480078062801D001F024F9D848008877A908807B98F2
:20018000D8490968401A7290D74871904B20C00070A90880D5480178002001293C900DD1FB
:2001A000FFE7CD4800213A91415E0120C9293B9001DB3A983B903B983C90FFE73C9A0120E6
:2001C00002406FA90A7009780029399018D1FFE7C64801780020012938900ED1FFE7BC48A7
:2001E000017800200629389007D1FFE7C0480078801F414248413890FFE738983990FFE759
:200200003998012108406EA908706DA9232008806CA9372008806BA9032008806AA900204D
:200220000880AB48007806280CD1FFE7B0480078042807D1FFE76DA9192008806CA9322042
:20024000088026E0A2480078062821D1FFE7A848007806281CD1FFE76DA92D2008806CA93F
:20026000412008806BA9052008807B98A1490968401A000919280AD3FFE76DA93C20088005
:200280006CA94B2008806BA908200880FFE7FFE7FFE76FA8007800280ED0FFE78C48007819
:2002A000062809D1FFE794480078002804D1FFE77D20C0007190FFE78C48007801280FD180
:2002C000FFE78348007806280AD1FFE788480078062805D1FFE74B20000170A90880FFE7E1
:2002E0007B480078062819D1FFE781480078042814D1FFE78148008877A908807B48007859
:2003000001280AD1FFE7002177A8405E652804DBFFE777A964200880FFE729E06C4800787C
:20032000062813D1FFE77248007806280ED1FFE77248018877A801800021405E652804DB92
:20034000FFE777A964200880FFE710E07298719988420BD2FFE700215F48415E7298484318
:20036000719909F0F5FA77A90880FFE7FFE7FFE70AF0E0FD01467F200140614801700078A1
:2003800073A905F0A3FD5F49088073985E4908706FA80078002800D16EE34D48007806283E
:2003A00000D069E352480078002800D064E30AF079FD002858D0FFE70AF0E2F96AA90880BA
:2003C0007B9852490968401A64283ED3FFE76A984F490988401A69A9379108800021369152
:2003E0006AA8405E032108F053FE369A3799895E490040180E21C9430F2208F03DFF68A907
:20040000088073A80078002815D0FFE700213D48405E09F04FFD07280DDBFFE7002268A816
:20042000815E3848805E4843002804D5FFE768A900200880FFE76898364908806A983449E8
:2004400008807B9831490860FFE700223148805E314935918A5E911E921C09B212B208F0C4
:200460000BFF3599088005E02B490020088029490880FFE729480078002800D0E5E067A985
:20048000FF200870002134911E48405E09F012FD349966AA10806AA8405E09F00BFD65A9A7
:2004A000088073A80078002864D0FFE71C48006800285FD1FFE7002166A8405E0B2831DBC9
:2004C00002E0C0461F3B202067A90020087050E01F3B2020243A2020DE3A2020B63A202002
:2004E000D63A20204C3A2020DC050000873A2020293B2020D4392020273B2020E43A202013
:200500001D3B2020B83A20201E3B2020D83920209A3A20209C3A20209E3A2020083B202062
:20052000E4392020002165A8405E322820DBFFE7002166A8405E05281ADBFFE7002166A853
:20054000405E062814DCFFE7FD48007809F013FB00280DD0FFE700226AA8815EFC48805E15
:200560004843012804DBFFE767A901200870FFE7FFE7FFE767A80078FF2807D1FFE7F549FD
:2005800000200870F449FF20087019E067A80078F1490978884207D0FFE76798EE4908707F
:2005A000EC49012008700AE0EA480078022805D8FFE7E8490878401C0870FFE7FFE7FFE7B5
:2005C000E448007803283FD3FFE7E44901200870E049002031900870DF4AFF211170E04919
:2005E0000870E049087009F0C5FEDF49086009F0D3FE3199DD4A1060679ADD480270669AD3
:20060000DC4B1A80659ADC4B1A807B9ADB4B1A60DB4A1180DB4A11600178DB48DB4A3292D3
:200620000129339001D032983390339809F02AFC3198D749087009F029FFD649086009F083
:2006400035FFD5490860FFE7FFE7C4480078002800D1D4E109F08EFEC3490968401A649092
:2006600009F09AFEC1490968401A639073A80078002807D0FFE70021B548405E09F01AFCDE
:20068000309002E0C5483090FFE7309861A908800AF008FC002807D0FFE700216AA8405EF7
:2006A00009F008FC2F9002E0BC482F90FFE72F9860A908806498002804D5FFE7649840423A
:2006C0006490FFE76398002804D5FFE7639840426390FFE7649863994018C10F4018401040
:2006E0006290002177A8405E512804DBFFE777A950200880FFE773A8007800280FD0FFE76E
:20070000002261A8805E9B49895E884207DAFFE76198984908807B9898490860FFE79448F4
:200720000078012816D1FFE78548007809F023FA00280FD0FFE7002260A8805E8E49895E3D
:20074000884207DAFFE760988B4908807B988B490860FFE786480078002833D1FFE773A80C
:200760000078002818D0FFE77548007809F003FA002811D0FFE7002161A8405E06280BDC14
:20078000FFE778480078022805D8FFE775490878401C0870FFE703E0724900200870FFE73A
:2007A0007048007803280CD3FFE77149012008706C49002008706A490870734809F062FB3D
:2007C000FFE731E073A8007800280DD0FFE75C48007809F0D0F9002806D0FFE7002161A8B8
:2007E000405E0B280BDBFFE75E480078022805D8FFE75C490878401C0870FFE703E05949ED
:2008000000200870FFE75748007803280BD3FFE757490020087053490870514908705B4853
:2008200009F030FBFFE7FFE751480078012817D1FFE77B9851490968401A00094B2807D3F2
:20084000FFE76DA91E2008806CA92D20088006E06DA9142008806CA91E200880FFE716E07D
:200860007B9846490968401A00094B2807D3FFE76DA93C2008806CA94B20088006E06DA9D1
:200880002D2008806CA93C200880FFE7FFE73848007801281DD1FFE773A80078002818D026
:2008A000FFE72748007809F066F9002811D0FFE7002161A8405E02280BDCFFE7284800787D
:2008C000FF2805D0FFE726490878401C0870FFE703E0234900200870FFE7214800780A28AD
:2008E00022D3FFE71D49002008701D4908701D4908702B4908802B4908806A992A4A118063
:200900007B992A4A11607B99294A11602049087009F0BCFD1F49086009F0C8FD1E490860F6
:20092000244809F0AFFA69E00AF0BCFA002845D0FFE7002160A8405EFA283FDB02E0C046A2
:200940001D3B20201C4809F0BDF800F0F3FDC046B83A20200A3B20200D3B2020083B202045
:20096000093B20200C3B2020EC392020F03920200B3B2020A23A2020A43A2020E83920207D
:20098000BC3A2020403A202033B50000D0B50000103B2020043A2020083A2020FF7F0000F1
:2009A0009E3A20209C3A20209A3A2020D8392020E439202069B5000073B300007B98FD49AA
:2009C0000968401AFC49884216D3FFE76298FF212C3188420BDCFFE70AF064FA00280BD005
:2009E000FFE7002160A8405EC82805DBFFE7F34809F068F800F09EFDFFE7FFE7FFE7F0488B
:200A00000078002837D1FFE7EE480068002832D0FFE77B98EB490968401A5F905F9880081A
:200A20004A2823D8FFE7002177A8405E51281CDBFFE700212D9177A82E90415E50395F9854
:200A400048434B21890008F083FF2D9A03462E9850335EA90B80805E895E884204DDFFE75B
:200A60005E9877A90880FFE7FFE703E0D54900200860FFE7FFE71DE0D34900202C9008803A
:200A8000D2490880CE490870D1490870CD490860D0490870D0490870D04AFF211170D0491E
:200AA0000870D049D0480880D04908807B98C1490860FFE76FA80078002800D1FAE0CC4883
:200AC0000078062800D0F5E0CA480078002800D0F0E0C9480078002800D0EBE0B8480078B5
:200AE000002800D0E6E009F0D1FC5D9009F0DEFC5C9073A80178002000292B9057D0FFE721
:200B0000BE4800212A91405E09F0D4F901462A9804292B904BDCFFE7B94800212991405E17
:200B200009F0C8F90146299804292B903FDCFFE7A54800212891405E09F0BCF901462898F0
:200B400004292B9033DCFFE7A04800212791405E09F0B0F90146279804292B9027DCFFE7E0
:200B6000002126916AA8405E09F0A4F90146269814292B901BDCFFE7A2490020095E0029E2
:200B80002B9014D1FFE78F480168002000292B900DD1FFE79C480178002000292B9006D090
:200BA000FFE79A480078411E88412B90FFE72B98012108405BA90870002177A8405E50282D
:200BC00005DBFFE75BA8007800280AD1FFE79049002008705D988F4908605C988E49086012
:200BE00067E08B48007800280AD1FFE75D98894908605C988849086085490120087057E080
:200C00005D9884490968401A5A905C9882490968401A59905A9859994018C10F4018401036
:200C200058905898042842DBFFE758997B4800222492805E48437A4908F02AFA2499579035
:200C40005A98599A801A579A801A5690754800684000754A09F082F8249955907348405E12
:200C600023905599569848437D21C90008F010FA01462398401A2221C943232208F0FCFA13
:200C8000249A014654A80180805E694925918A5E911E921C09B212B208F0EEFA25990880A2
:200CA0005D985C4908605C985B490860FFE7FFE7FFE7FFE74E480078062800D02AE14D48EE
:200CC0000078002800D0E3E007F0FAFE594908805948007801283DD1FFE70AF0E3F8002895
:200CE00038D0FFE709F04CFD53A9088034480078002803D0FFE7FA20229002E0FA202290F1
:200D0000FFE7229852A9219108800021209153A8405E09F0CFF8209A2199895E88420BDBC8
:200D2000FFE746480078FF2805D0FFE743490878401C0870FFE703E0404900200870FFE735
:200D40003E480078032804D3FFE73D4808F0BAFEF0E303E0394900200870FFE70022354823
:200D6000805E3849895E884206DAFFE7364900200870364908708AE033480078072811D81A
:200D8000FFE73348007807F0CFFA002805D0FFE72D490878401C087003E02B49002008701E
:200DA000FFE773E02A48007807F0B5FB00285CD050E0C046E8392020DC0500003CB30000AE
:200DC000083B2020E43920209E3A20209C3A2020093B20200B3B20200A3B20200D3B2020EE
:200DE0000C3B2020A23A2020FF7F0000A43A20201F3B2020293B2020273B2020B83A2020A2
:200E0000C43A2020BC3A2020063B20200E3B2020103B2020043A2020083A2020CC3A202083
:200E200010270000743A202088130000A83A2020AA3A2020903A2020873A2020073B20201F
:200E4000AAB400008C3A2020FF3A2020003B20201D3B2020FD480078FF2805D0FFE7FB49BF
:200E60000878401C0870FFE703E0F84900200870FFE7F6480078022807D3FFE77B9803F0F0
:200E8000CDFC7B9801F0E8FA54E3FFE7FFE740E0EF48007804283BD1FFE77B98ED490968F9
:200EA000401A51905198782812D3FFE7EA48007807F03AFA00280BD0FFE7E8480078FF2816
:200EC00005D0FFE7E5490878401C0870FFE703E0E24900200870FFE7E048007803280CD3B9
:200EE000FFE77B9802F036FB002801D0FFE721E3DB48008877A9088009E051984009192844
:200F000004D3FFE7D74808F0DDFD13E3FFE7FFE7FFE7FFE773A80078002800D14AE1D248C4
:200F20001E9000211D91405E08F0C4FF1D9950AA1B921080CD481C90405E08F0BBFF1D9927
:200F400002461E984FAB1A804EABA0221A8000884CAA10804BAA08201080C54800684A90A0
:200F6000C4480068499077A8415EFF225432012091421F9001DC1D981F901D9A1C991E98B9
:200F80001F9B48AC237000880988401A74A91A910880B9481990805E4000895E4018032122
:200FA00008F076F8199A1A9B1D9904461B98148012881A80405E022805DCFFE74CA9002044
:200FC00008804A902EE0002150A8405E042806DCFFE74A98C10F401840104A9021E00021A0
:200FE00050A8405E0A281BDBFFE76EA80078002815D1FFE748A80078002809D0FFE74A9999
:2010000005204843C117890F40188010189003E04A9840001890FFE718984A90FFE7FFE737
:20102000FFE7FFE7002250A8805E4FA9895E884208DAFFE7499903204843C10F4018401073
:20104000499008E0499903204843C117890F401880104990FFE7002150A8405E022803DC68
:20106000FFE700204990FFE748A8007800282ED0FFE7002150A8405E042812DCFFE74EA989
:201080002D200880002150A8415E0A20052216920329179001DB1698179017984BA908809B
:2010A00014E0002150A8405E0A2807DBFFE74EA97D2008804BA91220088006E04EA95A206A
:2010C00008804BA908200880FFE7FFE723E0002150A8405E042812DCFFE74EA92D20088092
:2010E000002150A8415E0A20052214920329159001DB1498159015984BA908800AE000210F
:2011000050A8405E0A2804DBFFE74BA912200880FFE7FFE7FFE76EA80078002819D0FFE75D
:2011200000224EA8805E6DA9895E884204DDFFE76D984EA90880FFE700224BA8805E6BA9BA
:20114000895E884204DDFFE76B984BA90880FFE7FFE74A99002313934CA8C05E4843499AA0
:2011600074A9C95E514340187D21C90007F090FF139A4EA98A5E514209B208F07DF8139B5D
:2011800001464DA80180C05EFB491291CA5E4BA9CB5ED11AD21809B212B208F06DF8129AEB
:2011A000014613981180EF490988FB4A1180F449088039E0F2480088F249884205D8FFE7A5
:2011C000EF4908880A300880FFE7ED48008870A90988884213DBFFE7D7480078062804D100
:2011E000FFE7EC4808F06EFC08E003F027FCE74900200870E64808F045FEFFE79AE1E048BB
:20120000008864280FD3FFE7DB4800210180DE48018077A8405E652804DBFFE777A96420D3
:201220000880FFE7FFE7FFE7D348008875A908800021CF48405E00282FD0FFE7CD480068CB
:201240007B99401A012828DB18E0C046003B2020293B20206C3A20201D3B2020303B2020AE
:20126000DE3A20207BB50000B83A2020C23A2020443A20203C3A2020BA3A2020002275A891
:201280001190805EBA49895E40189F21C943A02207F0F2FF1199088005E0B549002008805A
:2012A000B4490860FFE76EA80078002853D0FFE70022B248805EAC49895E40186CA98A5EF9
:2012C000514209B207F0D8FF47A90880A7480078002830D0FFE7002175A8405E08F0EAFD4A
:2012E000052828DBFFE7002275A8815E47A8805E484300281FD5FFE70021109175A8405EE3
:2013000008F0D8FD1099021F46A80280405E102804DBFFE746A90F200880FFE7002247A88E
:201320000F90805E46A98A5E514209B207F0A4FF0F990880FFE7002275A80E90805E47A9B0
:20134000895E40186CA98A5E514209B207F094FF0E990880FFE77799143976A80180002147
:20136000405E002804D5FFE776A900200880FFE700220B9275A80A90805E76A98A5E51424D
:2013800009B207F079FF0A9A0B99108077A80D90405E525E80184B22D2000C9207F06CFF6A
:2013A0000A9B0B990C9A04460D986C4D2C80405E5B5EC01A07F060FF6949088086E05F481C
:2013C000008845A9088009F061F8089009F06EF801460898401A449009F058F8099009F0D6
:2013E00065F8014609984018C10F401840104390439900225248805E4843524907F048FE2C
:20140000429044984299401A41907B984E490968401A3D903D984D4988420BD8FFE70021B7
:201420004648415E3D984843494908F091FA45A90880FFE7002145A8405EC20F801842084F
:201440003FA80280405E3D2804DBFFE73FA93C200880FFE73F4800683E903D983B498842C9
:2014600008D8FFE73E98400000213B4A08F076FC3E90FFE73E99419848437D21C90007F033
:2014800007FE002205923FA98A5E514209B207F0F3FE059940AA0492108045A80790405EB8
:2014A000525E801A4B22D200069207F0E5FE049B0599069A04460798284D2C80405E5B5EF3
:2014C000C01807F0D9FE26490880FFE7FFE7FFE706F0AEF808F09CFE79A90191088008F05B
:2014E000ABFE0146019878AA03921180002202921A49895E825E294804F0BAFB029A01463E
:201500000398274B19801649895E825E254804F0AFFB254908807B9802F0BAFD002801D049
:20152000FFE707E000221E48805E1F49895E06F0C7F9FFE77CB0B0BD1F3B2020DE3A202002
:20154000CC3A2020102700004C3A2020DB050000DC050000743A202088130000B63A2020CE
:20156000D63A2020B83A20209E3A2020083B2020BC3A2020403A2020C43A2020AA3A2020FC
:20158000C03A20205FEA0000BA3A20202D3B202095B40000D2B70000C23A202080392020E5
:2015A000AE3A202094392020CE3A202010B59CB01B901A911B9808F0B2FD1B9815A9052255
:2015C00005F090FD014614A801700078002802D1FFE700F00AFF14A8007801280CD1FFE7A3
:2015E0001598FC4906F068FD002805D0FFE7FA4808F048FC00F0F9FE14A8007802281CD10B
:20160000FFE71598FC4906F057FD002815D0FFE7169813A905F0B6FB00280ED0FFE713980E
:2016200000280AD4FFE71398F449884205DCFFE7139806F01FFB00F0D7FE14A80078012868
:201640000BD1FFE71598EE4906F036FD002804D0FFE708F039FD00F0C6FE14A8007801289A
:2016600021D1FFE71598E74906F026FD00281AD0FFE7E54900200D90087003F0DFF90D98D1
:20168000E2490870E2490870E2490870E2490870E2490870E2490870E2490870E24808F0B3
:2016A000F1FB00F09FFE14A8007801280CD1FFE71598DE4906F000FD002805D0FFE71A9835
:2016C00004F096FC00F08DFE14A8007801280BD1FFE71598D64906F0EFFC002804D0FFE75B
:2016E00006F08EF900F07CFE14A8007801280BD1FFE71598CF4906F0DFFC002804D0FFE76C
:2017000005F0BEFD00F06BFE14A8007801280BD1FFE71598C84906F0CFFC002804D0FFE740
:2017200005F076FC00F05AFE14A80078022815D1FFE71598C04906F0BFFC00280ED0FFE77D
:201740001698BE4906F0B8FC002807D0FFE708F0DFF8BB4808F096FB00F03FFE14A8007889
:2017600002281CD1FFE71598B64906F0A5FC002815D0FFE7B4480078002810D1FFE7169825
:20178000B24906F099FC002809D0FFE708F010FA002007F0B9FA03F05DFA00F01DFE14A8FF
:2017A000007802281CD1FFE71598A64906F084FC002815D0FFE7A4480078002810D1FFE75C
:2017C0001698A34906F078FC002809D0FFE708F0EFF9012007F098FA03F03CFA00F0FBFD83
:2017E00014A8007801280BD1FFE71598994906F063FC002804D0FFE703F02CFA00F0EAFD14
:2018000014A80078022842D1FFE71598924906F053FC00283BD0FFE7169813A905F0B2FA80
:20182000002834D0FFE71398002830D4FFE71398724988422BDCFFE783480078002826D15A
:20184000FFE7139810908548007800280CD0FFE7834800681099884206D1FFE71098814953
:20186000097807F0E1FC10E008F0A2F905F04AF87C49087010987A4A1060784A01201070DD
:201880001098097807F0D0FCFFE700F0A2FD14A8007801281DD1FFE715986F4906F00CFC53
:2018A000002816D0FFE768480078002811D1FFE708F07EF905F026F8002804D0FFE76A4806
:2018C00008F0E0FA03E0694808F0DCFAFFE700F07FFD14A8007801281DD1FFE715986449F7
:2018E00006F0EAFB002816D0FFE757480078002811D1FFE702F024FA002806D0FFE75D4879
:2019000008F0C0FA03F0A6F903E05B4808F0BAFAFFE700F05CFD14A80078012811D1FFE7FD
:201920001598564906F0C8FB00280AD0FFE746480078002805D1FFE71A9807F0CFFD00F06B
:2019400045FD14A8007802281ED1FFE715984C4906F0B2FB002817D0FFE71698494906F002
:20196000ABFB002810D0FFE72849012008702849002008701A9844490860444808F082FA19
:2019800009F056FA00F021FD14A8007802281CD1FFE715983A4906F08FFB002815D0FFE71C
:2019A00016983B4906F088FB00280ED0FFE71749002008701649012008701A98324908600B
:2019C000344808F05FFA00F0FFFC14A8007802286ED103E0DBB90000C2B8000015982849A3
:2019E00006F06AFB002863D0FFE716982A4906F063FB00285CD051E082B90000FFFFFF7F9A
:201A0000A4B90000D6B90000F03820202D3B2020FB3A2020FA3A2020023B20202C3B2020BD
:201A20002B3B2020283B2020BEB70000F3B8000024B900005ABA000040B900005EB900003C
:201A40008DB50000ACB800001F3B20206AB90000D0B8000046B90000AEB90000173B2020A3
:201A6000203A2020163B2020B4B700007FB70000E5B90000E6B700003DB70000F4B90000BE
:201A80000FB900007FBA00002C3A20201EB600009AB90000AFB500000EBA0000FE490020E5
:201AA0000870FE490870FE4808F0ECF900F08BFC14A8007802285CD1FFE71598F94906F0FF
:201AC000FBFA002855D0FFE7169813A905F05AF9002809D0FFE71398002805D4FFE7139808
:201AE000F149884204DDFFE7F04808F0CBF93EE0EF480078002810D0FFE71398EC49C9695A
:201B000088420AD1FFE7EB4808F0BCF9139805F035FDE94808F0B6F928E0E84800780028D8
:201B200006D0FFE71398E649C969884205D0FFE71398E44907F042FE17E0E1480078012888
:201B400004D1FFE7DE4805F037FB0DE0DC480078022804D1FFE7DA4805F036F803E0DA48C5
:201B600008F090F9FFE7FFE7FFE7FFE7FFE700F029FC14A80078042800D085E01598D349F3
:201B800006F09AFA00287FD0FFE7169813A905F0F9F8002878D0FFE7179812A905F0F2F86F
:201BA000002871D0FFE7189811A905F0EBF800286AD0FFE713988121C943884264DBFFE704
:201BC0001398822860DCFFE7129832285CDBFFE7129819210901884256DCFFE711980028CC
:201BE00052D4FFE71198B04988424DDCFFE711980F90B748007800280BD0FFE7B548006851
:201C00000F99884205D1FFE70F98B34907F08EFD39E0B248007805280AD0FFE7AF4800788A
:201C200006282AD1FFE7AE480078002825D1FFE7AC480078002808D0FFE70021AA48405E20
:201C400008F038F9052805DBFFE70F98A74907F06DFDCAE31398A64908801A9812994018EC
:201C6000A44908600F989B4908609949012008700F98994907F05AFD04E00F989B4907F064
:201C800055FDFFE7FFE79CE314A80078032851D1FFE715988D4906F00FFA00284AD0FFE796
:201CA000169813A905F06EF8002843D0FFE7179812A905F067F800283CD0FFE71398812119
:201CC000C943884236DBFFE71398822832DCFFE7129832282EDBFFE7129819210901884243
:201CE00028DCFFE77F480078002823D0FFE700217D48405E08F0DEF804281BDCFFE77748A0
:201D0000007805280AD0FFE774480078062811D1FFE77348007800280CD1FFE713987449AE
:201D200008801A981299401872490860724808F0A9F845E314A80078032838D1FFE71598CD
:201D40006E4906F0B9F9002831D0FFE7179813A905F018F800282AD0FFE71398002826D4D0
:201D6000FFE713989B218900884220DCFFE71698634906F0A1F900280ED1FFE716986149B2
:201D800006F09AF9002807D1FFE716985E4906F093F900280BD0FFE7454800220270169845
:201DA000007813A9895E1A9A04F07EFF07E314A80078052855D1FFE71598544906F07CF9D7
:201DC00000284ED0FFE716984D4906F075F9002807D1FFE716984B4906F06EF9002840D072
:201DE000FFE7179813A904F0CDFF002839D0FFE7189812A904F0C6FF002832D0FFE71998D6
:201E000011A904F0BFFF00282BD0FFE71398002827D4FFE713989B218900884221DCFFE7FC
:201E200012987D21C90088421BDBFFE712987D210901884215DCFFE71198002811D4FFE75C
:201E40001198194988420CDCFFE716980078002213A9895E129A119B1A9C009405F03AFC27
:201E6000ACE214A80078052800D092E01598284906F022F9002800D18BE01698204906F091
:201E80001BF9002846D1FFE716981E4906F014F900287ED03EE0C0462D3B2020FB3A20203A
:201EA000F0B5000094B80000FFFFFF7F9EB50000F03820204ABA000070BA00001A3B202037
:201EC000A038202084B8000000B60000B8B90000153B2020143A202076BA00001F3B20209F
:201EE000293B20201E3B2020B83A202012BA0000BC3A2020403A2020AAB7000006BA000096
:201F000089BA00008BBA00008DBA0000F9B70000F0B70000179813A904F034FF002838D0D9
:201F2000FFE7189812A904F02DFF002831D0FFE7199811A904F026FF00282AD0FFE71398EA
:201F4000502826DBFFE713984B21C900884220DCFFE712987D21890088421ADBFFE7129876
:201F6000FD49884215DCFFE71198002811D4FFE71198FA4988420CDCFFE716980078002212
:201F800013A9895E129A119B1A9C009405F0F4FB13E214A8007804282BD1FFE71598F049FB
:201FA00006F08AF8002824D0FFE7179813A904F0E9FE00281DD0FFE7189812A904F0E2FE27
:201FC000002816D0FFE71298002812D4FFE71298E24988420DDCFFE71698139901F026F898
:201FE000002806D0FFE712981699139A06F0F8FFE2E114A8007803281BD1FFE71598D84948
:2020000006F05AF8002814D0FFE7179813A904F0B9FE00280DD0FFE71698139901F006F83C
:20202000002806D0FFE7CF4807F02CFF02F012FEC1E114A80078042852D1FFE71598F1498F
:2020400006F03AF800284BD0FFE71698EA4906F033F8002807D1FFE71698E84906F02CF84E
:2020600000283DD0FFE7179813A904F08BFE002836D0FFE7189812A904F084FE00282FD041
:20208000FFE7139850282BDBFFE713984B21C900884225DCFFE712987D21890088421FDB25
:2020A000FFE71298D64988421ADCFFE7E94900200A90087016980178022003220B924C29E7
:2020C0000C9001D00B980C900A9C0C9813A9095F129A1A9B01940124009403F0EBF969E116
:2020E00014A8007803284AD1FFE71598C64905F0E3FF002807D1FFE71598C44905F0DCFF7D
:2021000000283CD0FFE7169813A904F03BFE002835D0FFE7179812A904F034FE00282ED045
:20212000FFE7139850282ADBFFE713984B21C900884224DCFFE712987D21890088421EDB87
:20214000FFE71298AE49884219DCFFE71598AF4905F0B2FF0146052004220892002909901A
:2021600001D1089809900998002413A9095F129A1A9B01940124009403F09CF919E114A87E
:202180000078042800D081E01598A14905F094FF00287BD0FFE7169813A904F0F3FD00287C
:2021A00074D0FFE7179812A904F0ECFD00286DD0FFE7189811A904F0E5FD002866D0FFE7DF
:2021C0001398502862DBFFE71398E121490088425CDCFFE71298012858DBFFE712980A2813
:2021E00054DCFFE71198002850D4FFE71198804988424BDCFFE711980E90904800780028E6
:2022000017D0FFE78E4800680E99884211D1FFE70E9805908B4801788B488C4A0692002989
:20222000079001D1069807900598079907F0A2FA2BE070480078002805D0FFE70E9884499F
:2022400007F098FA20E0002113A8405E12A909781A9A01F0A1FB01467A4801700E99784A1B
:202260001160764A012111700E99029101787648764A03920029049001D10398049002986C
:20228000049907F077FAFFE7FFE791E014A80078032837D1FFE715985D4905F00DFF002833
:2022A00030D0FFE7169813A904F06CFD002829D0FFE7179812A904F065FD002822D0FFE7AA
:2022C000139850281EDBFFE71398E1214900884218DCFFE71298012814DBFFE712980A28DE
:2022E00010DCFFE7002113A8405E12A909781A9A01F052FB002804D1FFE74F4807F0C2FD34
:20230000FFE754E014A8007803284BD1FFE71598404905F0D1FE002844D0FFE7169813A9BC
:2023200004F030FD00283DD0FFE7179812A904F029FD002836D0FFE71398502832DBFFE7B3
:2023400013984B21C90088422CDCFFE712987D218900884226DB07E0983A0000FFFFFF7F14
:2023600036BA00002FB8000012982549884219DCFFE720480078002814D1FFE713982749DB
:2023800008801298264908602649012008702649002008702549087025490870254807F0F5
:2023A00071FD03E01C4807F06DFDFFE7FFE7FFE7FFE7FFE7FFE7FFE7FFE7FFE7FFE7FFE725
:2023C000FFE7FFE7FFE7FFE7FFE7FFE7FFE7FFE7FFE7FFE7FFE7FFE7FFE7FFE7FFE7FFE79D
:2023E000FFE7FFE7FFE7FFE7FFE71CB010BDC046FFFFFF7F1F3B202089BA00008BBA000022
:20240000983A0000E0B9000066BA0000CCB9000001B900003ABA0000C0B30000883A202089
:20242000BC3920202C3B20202B3B20202D3B2020FA3A202002B20000A4B20000193B202060
:20244000283A2020183B202076BA000012BA0000F9B90000F038202010B5A6B024901EA99B
:20246000002008701DA908701CA908701BA908801AA90870F748007806280AD1FFE7F648DE
:202480000078002805D0FFE7F3480078042805D1FFE725A90020087000F077FD2498EF4988
:2024A0000968401A2390EC480078012849D1FFE7EB490A88EB4802800A88EB490A80EB4AC9
:2024C0001388EB4C23801288EA4B1A800022805E895E05F0F5F9239832282DD3FFE708F061
:2024E000E1FC002808D1FFE7E34807F0EBFA25A90120087000F049FD08F00EFCDF4900202A
:2025000015900880DE490880DE490120087007F031FFDD49086007F03FFF01461598DB4A1C
:202520001160DB490880DB490870CB49022008702498CA490860FFE725A90120087000F0C0
:2025400024FD08F0AFFC002804D1FFE7CD4900200870FFE707F00EFFCB490968401A2090AD
:2025600007F01AFFC9490968401A1F902098002804D5FFE7209840422090FFE71F98002871
:2025800004D5FFE71F9840421F90FFE720981F994018C10F40184008BD49088008F0CAFC2A
:2025A0007F210840BC490870BC48007801280ED1FFE7B94800781CA903F088FC1BA908804B
:2025C0001B98B74908801C98B6490870FFE7B6480078002820D1FFE7AF48007807F0CBFA0F
:2025E00000280BD1FFE7B1480078FF2805D0FFE7AE490878401C0870FFE703E0AB49002076
:202600000870FFE7A9480078022804D3FFE7A64901200870FFE72EE09F48007807F0ABFA95
:202620001DA908709D480078012804D1FFE71DA900200870FFE700229548805E9C49895E2E
:20264000CA0F89184910884210DBFFE71DA8007800280BD0FFE797480078FF2805D0FFE7AD
:2026600094490878401C0870FFE703E0914900200870FFE7FFE708F015FC002835D0FFE706
:2026800008F07EF8014622A801800021405E002805D5FFE72298404222A90880FFE779485D
:2026A0000078002811D0FFE7229875490988401A00B207F0FFFBC82807DCFFE72298704981
:2026C000088022986D4908800EE022986C490988401A00B207F0EEFBC92804DBFFE7694938
:2026E00000200870FFE7FFE7FFE724985B490968401A239069480078012800D08AE2249868
:202700006D490968401A19905E48007800280FD0FFE700215948405E6849884208DBFFE7E0
:20272000674807F0CFF925A90120087000F02DFC1998C009192808D3FFE7624807F0C2F9D3
:2027400025A90120087000F020FC43480078022805D0FFE740480078032800D00EE11CA870
:202760000078002827D0FFE700211BA8405E0A2821DBFFE743480078002808D0FFE700213C
:202780003E48405EFF21F431884210DCFFE73D48007800280FD1FFE700223D48805E444937
:2027A000895ECA0F89184910884204DBFFE7464901200870FFE744480078002825D0FFE7BB
:2027C0001CA80078002820D1FFE72E480078002807D0FFE700212948405E3C49884210DC80
:2027E000FFE72848007800280FD1FFE700222848805E81002E48825E03205043884204DC76
:20280000FFE7334901200870FFE727480078002800D195E01CA80078002800D190E00021BC
:202820001BA8405E002800DD8AE016480078002869D0FFE711490020095E264A91421490E3
:202840005BDBFFE72248017801200029139051D142E0C0461F3B2020293B20206C3A20201E
:20286000EC3A2020AE3A2020CE3A2020E43A2020B63A2020D63A202049B60000F03A20203B
:20288000E83A2020343B2020783A20207C3A2020EE3A20202F3B20201D3B2020873A202094
:2028A000B83A20201E3B2020333B2020323B2020E23A2020313B2020703A20207F0400007D
:2028C000F2B300001FB30000113B202089020000123B2020EE020000F84800211191415E4B
:2028E000F74A01209142129001DC1198129012981390FFE713981490FFE71498012108405B
:202900001AA908701BE0EF4801780120002910900FD1FFE7EC4800220E92815EEB48825E39
:20292000012091420F9001DA0E980F900F981090FFE71098012108401AA90870FFE7FFE79E
:202940001AA8007800280BD0FFE7E1480078FF2805D0FFE7DE490878401C0870FFE703E08D
:20296000DB4900200870FFE7D9480078032804D3FFE71EA901200870FFE7FFE7D548007873
:20298000052800D0A0E007F043FC07F093FA18A9088007F051FC07F08DFA17A90880FD4967
:2029A00000200880FC490880FC490880FC49088007F0FEF82398782817D3FFE7002118A80F
:2029C000405E0F2811DCFFE7002117A8405E0F280BDCFFE7F3480078FF2805D0FFE7F149FE
:2029E0000878401C0870FFE703E0EE4900200870FFE7EC480078032859D3FFE705F0C6FF62
:202A000007F064FDE8490860E8480078002809D0FFE7E7480068E7490861E7480068E7493F
:202A2000086102E008F0B4F9FFE7E54900200D900870E449087007F029FDE349086007F010
:202A400035FD01460D98E14A1160E1490860E14908602499E04A11602499E04A1160E049BF
:202A600008801B99DF4A1180DF490880DF4908801CA80078002807D0FFE700211BA8405E5D
:202A800007F018FA0C9002E0D9480C90FFE70C98D84908802498D84908608E490620087005
:202AA0002498D649086025A9012008706DE223984008E12804D3FFE7D14807F003F8FFE763
:202AC00025A90120087060E282480078062800D09FE01CA80078002807D0FFE700211BA889
:202AE000405E07F0E7F90B9002E0C1480B90FFE70B9816A908801CA8007800280FD0FFE747
:202B0000002216A8805EBB49895E884207DAFFE71698B84908802498B7490860FFE71CA876
:202B20000078002825D0FFE7B648007807F023F800281ED0FFE7002116A8405E062818DCF7
:202B4000FFE7B1480078002808D0FFE700215B48405EAF21890088420BDBFFE7AB4800787C
:202B6000FF2805D0FFE7A9490878401C0870FFE703E0A64900200870FFE7A4480078052866
:202B800037D3FFE7A24901200A900870A14807F079F9A1480078401C04F0F0FCFD4808905B
:202BA00007F070F9002109914448405E04F0E6FC089807F067F90999FD48405E04F0DEFCB0
:202BC000089807F05FF9FB48007804F0D7FC089807F058F909991BA8405E04F0CFFCEE48A4
:202BE00007F050F9249800F0B5FC0A9825A90870CBE12398E949884207D3FFE7E84806F007
:202C000061FF25A901200870BFE125A900200870BBE1FFE7EA480078032827D3FFE7E34885
:202C2000007800280CD0FFE70021E648405E7D218900884204DBFFE71EA90120087014E03B
:202C4000DA48007800280FD1FFE70022D848805E8100DA48825E03205043884204DCFFE703
:202C60001EA901200870FFE7FFE7FFE7D2480078012800D0D2E02398DC2800D2CEE01EA800
:202C80000078002828D1FFE7C8480078002808D0FFE70022CB48805ECB49895E88421BDA7A
:202CA000FFE7C2480078002800D0B7E00022C048805EC249895E88420EDAAFE0F03A202078
:202CC0001F030000123B2020EE3A2020E23A2020133B2020293B2020BA480088CA4902911F
:202CE0000880B3480088C94903910880B1480078C749049108701B98C64907910880C6491C
:202D0000002006900870A74A052111702499A64A1160C2490880B7490880B7490880AE4935
:202D20000880AE490880AE490880AE49088006F03FFF08F02DF8BA4807F0A4F8AF48007839
:202D4000401C04F01BFCB748059007F09BF802980699405E04F012FC059807F093F803985B
:202D60000699405E04F00AFC059807F08BF80498007804F003FC059807F084F806990798B0
:202D8000405E04F0FBFBA84807F07CF825A901200870FAE0AE3A2020CE3A2020B63A20206F
:202DA000D63A2020053B2020243A20200F3B2020FC39202080392020003A20209439202026
:202DC000063B20200E3B2020CC392020D0392020E0392020F8392020DC392020F4392020CF
:202DE000C43A2020C23A2020BA3A2020C03A2020FF7F0000923A2020D43920206C3A20202E
:202E000058B300001D3B2020343B2020303B20202F3B20207FB60000273B20202398C008B1
:202E2000AF2807D3FFE7774806F04CFE25A901200870AAE02398DC2856D3FFE75E4800781F
:202E4000012851D0FFE71EA8007800281AD1FFE756480078002808D1FFE700225448805E72
:202E60005649895E88420DDAFFE75048007800283AD0FFE700225348805E5349895E884225
:202E800032DBFFE71E9858490870464904200870249845490860554900200190087054492F
:202EA000088054490880544908804B4908804B4908804B4908804B49088006F079FE07F06C
:202EC00067FF4E480078401CC0B24D4909788906090E884204DBFFE7249800F03BFBFFE79C
:202EE00025A90120087050E02E480078022823D1FFE72398DC281FD3FFE72C48007800289E
:202F00000CD0FFE700212F48405E2F4909882F4A1288891A09B288420ADAFFE7002124481E
:202F2000405E26490988193909B2884204DBFFE71C4903200870FFE71A480078022805D197
:202F4000FFE700212348405E009004E000212048405E0090FFE7009821A90880219841422A
:202F60001D480180219A1D490A80219A52421C4B1A80219A1B4B1A800022805E895E04F0DA
:202F80009FFC25A901200870FFE725A8007826B010BDC0468FBA000070BA00009808000048
:202FA00002B30000293B20206C3A2020343B2020EE3A20201D3B2020873A2020E23A2020C6
:202FC000313B2020F03A2020E03A2020EA3A2020EC3A2020E63A2020AE3A2020CE3A2020E7
:202FE000B63A2020D63A20202F3B2020303B2020C23A2020BA3A2020C03A2020273B2020B0
:203000002A3B20208CB60000983A2020963A2020043B2020943A2020053B2020C43A20205C
:203020002DB600008FBA000070BA000080B584B0029001916946012008700298FE4905F08F
:203040003BF8002811D0FFE70198002805D4FFE70198FA49884204DBFFE703A9002008701F
:2030600026E20198F649086016E20298F54905F023F8002811D0FFE70198002805D4FFE7B9
:203080000198EE49884204DBFFE703A9002008700EE20198EA494860FDE10298EA4905F089
:2030A0000BF8002811D0FFE70198002805D4FFE70198E249884204DBFFE703A90020087007
:2030C000F6E10198E1490860E4E10298FA4904F0F3FF002811D0FFE70198002805D4FFE7F7
:2030E0000198D649884204DBFFE703A900200870DEE10198D5494860CBE10298EF4904F0B5
:20310000DBFF002811D0FFE70198002805D4FFE70198CF49884204DBFFE703A900200870E2
:20312000C6E10198C6498860B2E10298E44904F0C3FF002811D0FFE70198002805D4FFE7D9
:203140000198C349884204DBFFE703A900200870AEE10198FD49886099E10298D94904F077
:20316000ABFF002812D0FFE70198002806D4FFE70198FF21C431884204DBFFE703A900202B
:20318000087095E10198F24988817FE10298CE4904F092FF002812D0FFE70198002806D443
:2031A000FFE70198FF21C431884204DBFFE703A9002008707CE10198E449888165E102989C
:2031C000C24904F079FF002811D0FFE70198002805D4FFE70198DB49884204DBFFE703A911
:2031E0000020087064E10198D74908604CE10298B74904F061FF002812D0FFE701984F21BD
:20320000C943884204DBFFE70198512804DBFFE703A9002008704BE10198C949088032E186
:203220000298AC4904F048FF00281FD0FFE7BB48007801280AD1FFE701982221C9438842B0
:2032400004DBFFE70198242804DBFFE703A9002008702DE10198B74908800198B64908806C
:20326000B64900200870694608700BE102989A4904F022FF002822D0FFE70198002805D478
:20328000FFE70198A349884204DBFFE703A9002008700DE10198A6490860A0480078012889
:2032A0000CD1FFE79E49002008809E4908809E4909889E4A118069460870FFE7E1E00298F4
:2032C000864904F0F9FE002822D0FFE70198002805D4FFE701988F49884204DBFFE703A908
:2032E00000200870E4E001988B4908608B48007801280CD1FFE78A49002008808949088091
:2033000089490988894A118069460870FFE7B7E00298734904F0D0FE002813D0FFE70198A0
:20332000AF218900884205DBFFE701987749884204DBFFE703A900200870B9E00198744989
:2033400008809CE00298674904F0B6FE002819D0FFE7019864280DDBFFE701984B218900FF
:20336000884207DCFFE7019800226749895E884204DAFFE703A90020087099E001986149DA
:2033800008807BE00298584904F096FE002817D0FFE7019850280BDBFFE70198FA2807DC17
:2033A000FFE7019800225749895E884204DDFFE703A9002008707BE00198534908805CE0BC
:2033C00002984A4904F078FE002812D0FFE70198322806DBFFE70198FF216031884204DBB9
:2033E000FFE703A90020087062E001984449088042E002983E4904F05FFE002810D0FFE731
:203400000198502804DBFFE70198FB2804DBFFE703A9002008704BE00198384908802AE03A
:203420000298344904F048FE00281FD0FFE70198322813DB0EE0C04656BA0000B90B000095
:203440008039202032BA000062BA000094392020E903000001988D2804DBFFE703A9002093
:20346000087025E001982449088003E003A9002008701DE0FFE7FFE7FFE7FFE7FFE7FFE7B9
:20348000FFE7FFE7FFE7FFE7FFE7FFE7FFE7FFE7FFE7FFE7FFE7FFE768460078002803D043
:2034A000FFE707F075FCFFE703A901200870FFE703A8007804B080BD2ABA000002BA0000F9
:2034C0001ABA0000C2B90000EFB900009FB90000A9B900002BB900001DB90000B4B8000015
:2034E000C8B7000014B8000002B8000069B700004AB8000038B80000E23A2020E43A2020FB
:20350000EA3A2020E63A2020EC3A20204D040000E03A2020214E00003C3A2020873A2020B0
:20352000C43A2020BA3A2020B83A2020C23A2020443A2020A83A2020AA3A2020103B20201C
:20354000CC3A202089130000743A2020943920208039202080B58CB00A90C848008809A940
:203560000880C7480078012832D1FFE70021C548405E01282CDBFFE7C248008809A908807C
:20358000C1480078002822D0FFE7C048007800281DD0FFE70021BE48405EAF218900884247
:2035A00015DBFFE70021BA48405EBA4988420EDCFFE70023B849CA5E03205043B44AD25EA7
:2035C0008018801C820F801880080880FFE7FFE7AD48007800281AD0FFE7002109A8405EDD
:2035E000322814DBFFE7002109A8405E8C280EDCFFE70023A949CA5E0320504309AAD25ED2
:203600008018801C820F801880080880FFE7A4490878401C08709A48007801281DD1FFE7BF
:20362000A04806F02FFC9E48007803F0A7FF9E48079006F027FC002108919748405E03F0CA
:203640009DFF079806F01EFC08999448405E03F095FF964806F016FCFFE7954806F012FCD0
:203660008F480690007803F089FF8F48059006F009FC00218648405E03F080FF059806F0F1
:2036800001FC0A988B490968401A03F077FF874806F0F8FB06980078874909788900C9B260
:2036A000884252DBFFE701F0C9F9B24900200870B149087072480078012815D1FFE7AF4857
:2036C00006F0E0FB002104917348405E03F056FFAB4806F0D7FB04997048405E03F04EFFD4
:2036E000724806F0CFFBFFE7A64806F0CBFB00216A48405E03F042FF6C48039006F0C2FB21
:20370000A14806F0BFFB6648007803F037FF039806F0B8FB5A480078012804D1FFE79D489A
:2037200006F0B0FB0DE003F0EDF8002804D0FFE7974806F0A7FB03E0944806F0A3FBFFE791
:20374000FFE70BA90120087094E05C490020029008700A985A49086006F00CFE594908603C
:2037600006F01AFE01460298574A11605749088057490870574908705749087057480088B1
:20378000574908803E480078012859D1FFE75549002001900880544908805449087054491C
:2037A000088054490880544908800A99534A11605349087053490870534908605349086056
:2037C000534908605349087053490870534AFF21117053490870534A53491180534A118073
:2037E0000A99534A11605349087006F04FFE5249086006F05BFE01460198504A11605049EB
:2038000008705049087006F041FE4F49086006F04DFE014601984D4A11604D4908604D492D
:2038200008600A984C4908600A984C49086007F039FB002803D0FFE707F06EFAFFE7FFE7AB
:203840000F48007801280ED1FFE745480078002809D0FFE7434800684349086143480068E4
:203860004349086102E007F093FAFFE70BA900200870FFE70BA800780CB080BDEE3A202049
:20388000873A2020963A20202F3B2020343B2020F03A20204C040000E03A2020E23A20204E
:2038A000273B2020EEB600008FBA000070BA000095B70000703A20202A3B2020293B2020D0
:2038C0006C3A2020C0392020C4392020903A2020FF3A2020003B2020303B2020B83A2020B1
:2038E000C23A2020C43A2020BA3A2020073B20209E3A20209C3A20209A3A2020D839202005
:20390000083B2020093B2020EC392020F0392020E43920200B3B20200A3B20200D3B2020E2
:203920000C3B2020A23A2020FF7F0000A43A2020E8392020103B2020043A2020083A20205C
:20394000063B20200E3B2020CC392020D0392020E0392020F8392020DC392020F439202043
:203960000F3B2020FC39202080392020003A2020943920202D3B2020FB3A20208DB300006B
:2039800074B70000D9B3000099B6000024B40000BFB4000081B2000080B588B006AB1880ED
:2039A00005A80170049207F07DFA00280FD0FFE707F0C6FA00280AD0FFE705A8007800280C
:2039C00005D0FFE705A800780B2804D3FFE707A90020087006E101F031F804F0D9FD834938
:2039E0000620087006988249088004988149086005A80178804848438049086006F066FD67
:203A00007F49086004987F4908607F49012008707E49002008707E49087004997D4A1160D6
:203A200004997D4A116005997C4A11707C4908707C4908707C4908707C4908707C4908709B
:203A40007C480078012808D1FFE707F02BFA002803D0FFE707F060F9FFE77749002003909C
:203A6000088076490880764A0121117075490870754908707549087006F07CFC74490860DF
:203A800006F08AFC01460398724A1160724908807249087006F06EFC7149086006F07CFC35
:203AA000014603986F4A11606F4908806F4AE121490011806E4908806E4908806E49088068
:203AC0006E4908806E4908805A480078012805D1FFE700216B48405E029002E000200290D1
:203AE000FFE702986849088068490020019008706749086067490860674908806749088093
:203B0000674908800499674A11606749087067490870674908606749086067490860674966
:203B2000087067490870674AFF21117066490870664A674900911180664A11800499664A5C
:203B40001160664908706649087006F09FFC6549086006F0ABFC009902460198624B1A60C1
:203B6000624A1060624A1060049A624B1A60049A614B1A60614A1060614A1060614A107023
:203B8000614A1070614A1070614A1070614A1070614A1080614A1080614A1070614A10809D
:203BA000614A118061490860614806F06BF9019906A8405E03F0E2FC5E4806F063F905A858
:203BC000007803F0DBFC5C4806F05CF95B480078002803D1FFE707F02BF9FFE707A90120E5
:203BE0000870FFE707A8007808B080BD1F3B2020DE3A20204C3A202060EA0000483A202087
:203C0000243A20202C3A20202D3B2020FA3A2020293B20206C3A2020703A20202A3B20202B
:203C2000273B2020FF3A2020003B2020303B2020073B2020873A2020F03A2020E83A2020F4
:203C4000343B2020333B2020323B2020313B2020783A20207C3A2020EE3A20202F3B2020B4
:203C6000C0392020C4392020903A20208C3A2020B83A2020C23A2020BA3A2020C43A2020DE
:203C8000C03A2020A83A2020AA3A2020103B2020043A2020083A20209E3A20209C3A2020EB
:203CA0009A3A2020D8392020083B2020093B2020EC392020F0392020E43920200B3B2020E7
:203CC0000A3B20200D3B20200C3B2020A23A2020FF7F0000A43A2020E8392020063B2020B6
:203CE0000E3B2020CC392020D0392020E0392020F8392020DC392020F4392020FC392020AC
:203D0000003A20200F3B2020113B2020123B2020133B2020053B2020983A2020963A202056
:203D2000043B2020943A2020923A2020D4392020E8B400008FBA000070BA0000FB3A202019
:203D400080B5E4B07F2080026290619062980068BD49884246D1FFE762984068032841D188
:203D6000FFE77F2080024C904C9922A8A82207F0FFF82498A82810D1FFE74B98089022A861
:203D800004F092FF01460898884206D1FFE722A804F084FB002804D1FFE763A9002008706C
:203DA0004DE122A905911031B84807904822069207F0DEF80599069A07985831483007F0F8
:203DC000D7F8069907984A9AAF4B1A80259BAD4A137012785143401803F072FB63A9012021
:203DE00008702CE162980068974988423BD1FFE762984068022836D1FFE77F2080022190B5
:203E000021990BA8582207F0B3F80D98582810D1FFE7209804900BA804F016FF0146049842
:203E2000884206D1FFE70BA801F08AFA002804D1FFE763A90020087001E10BA803F0E2FAE8
:203E4000904900200870904908809048039003F079FA039908464830482207F089F863A96F
:203E600001200870EBE0619800684D90619840684E90619880684F906198C0685090619867
:203E8000006951906198406952906198806953906198C06954906198006A55906198406A9E
:203EA00056906198806A57906198C06A58906198006B59906198406B5A906198806B5B909D
:203EC0006198C06B5C906198006C5D906198406C5E906198806C5F906198C06C60904D981F
:203EE0005949884214D1FFE74E98012810D1FFE7599802904DA805F04BFD01460298884255
:203F000006D1FFE74DA802F0FFF8002804D1FFE763A90020087092E04F984C4A1060509838
:203F2000506051984A4908605298486053989060549888605598908156988881579845493A
:203F400008605898444908805A98401C002817D0FFE74DA8818E0A91C08E09900A983F4901
:203F600088420CDCFFE709983C49884207DCFFE70A983B49086009983A490860FFE7FFE70A
:203F80005B98AF21890088423ADBFFE75B983649884235DCFFE75C98642831DBFFE75C9877
:203FA0004B21890088422BDCFFE75D98502827DBFFE75D985C99884222DCFFE75E98322818
:203FC0001EDBFFE75E98AF214900884218DCFFE75F98502814DBFFE75F98FA2810DCFFE720
:203FE0005B98224908805C98214908805D98214908805E98204908805F9820490880FFE759
:204000006098322808DBFFE760988C2804DCFFE760981B490880FFE71A49002008701A49EB
:2040200008801A48019003F08DF9019908464830482206F09DFF63A901200870FFE763A89A
:20404000007864B080BDC046314449508039202094392020743A2020CC3A2020204E0000DB
:20406000443A20203C3A20204C040000E03A2020E63A2020EC3A2020EA3A2020E43A20209A
:20408000E23A2020873A2020A83A20209037202080B588B006909548007801281AD1FFE748
:2040A00093480078062815D1FFE792480078002805D0FFE78F48007806280BD1FFE700211E
:2040C0008D48405EC92809DBFFE78A480078062804D0FFE707A90020087002E10022874864
:2040E000805E8749895E4018C10F4018400805A908808448007800286AD1FFE7002105A8D2
:20410000405E282864DBFFE77F48006800280BD1FFE706987C49086006987C49086006F0E7
:20412000B5F97B490860FFE706F0B0F978490968401A04900498002804D5FFE7049840425F
:204140000490FFE70498042807DBFFE76D49012008706D490020086039E006986A490968ED
:20416000401A642816D3FFE7069868490968401A32280FD3FFE7002166480290405E801CB3
:2041800050218C2205F078F80299088006985F490860FFE700226048805E5E49895E8842E4
:2041A00005DAFFE75B4800885B490880FFE7069855490968401A8008E12807D3FFE7574806
:2041C00005F080FC07A9012008708AE0FFE70AE0002105A8405E272804DCFFE74A490020B7
:2041E0000860FFE7FFE74E48007800286AD1FFE7002105A8405E282864DBFFE7494800685A
:2042000000280BD1FFE706984649086006984649086006F04BF945490860FFE706F046F93F
:2042200042490968401A03900398002804D5FFE7039840420390FFE70398042807DBFFE7EE
:2042400037490120087037490020086039E0069834490968401A642816D3FFE706983249CA
:204260000968401A32280FD3FFE7002130480190405E801C32218C2204F0FEFF01990880D9
:20428000069829490860FFE700222A48805E2849895E884205DAFFE725480088254908807C
:2042A000FFE706981F490968401A8008E12807D3FFE7214805F006FC07A90120087010E05D
:2042C000FFE70AE0002105A8405E272804DCFFE7144900200860FFE7FFE707A90020087094
:2042E000FFE707A8007808B080BDC046873A20201F3B2020293B2020DE3A2020B63A2020EF
:20430000D63A2020063B2020E0392020DC392020CC392020A03A2020AE3A202057B500008B
:204320000E3B2020F8392020F4392020D0392020A63A2020CE3A20200EB5000070B58EB03F
:204340000D9009A90020087094480078002801D1FFE721E10D9891498A68801A0C900D98F4
:204360000969884200D2ECE00D9914318B48016140784C2804D1FFE705F04AFF069003E0A5
:2043800005F05AFF0690FFE706980BA90880834840784C2805D1FFE700218248405E0590A8
:2043A00004E000217E48405E0590FFE705980AA9088000210BA8405E05F07CFD774924225B
:2043C000895E884208DDFFE700210BA8405E05F071FD72498884FFE77048007801283BD17A
:2043E000FFE70C988008AF2812D3FFE700210BA8405E05F05FFD0446E3176849C86A8A6A2B
:20440000121958418A62C862888A401C8882FFE700210BA8405E05F04DFD6349884207DB5B
:20442000FFE75E494822885C022318438854FFE700210BA8405E05F03DFDE121C900884229
:2044400009DBFFE7554A4823D15C01200143D15409A90870FFE773E0504A049290880B9982
:20446000411A08A80180918A491C91820021405E05F020FD04990446E317486B0A6B121918
:2044800058410A634863086AC968884216D1FFE700210BA8405E039040480421415E0920B7
:2044A00048430A2104F0F4FD0146039809B2884204DBFFE70C9839490862FFE700210AA8EC
:2044C000405EFF21F031884205DBFFE73349088B401C0883FFE70C983049CA68032151438A
:2044E0008908884218D3FFE72C490291C88A401CC88200230BA8C65EF517CA6B8C6BA419A1
:204500006A418C63CA63C45E6443486C0A6C121958410A644864FFE700210BA8405E05F0B6
:20452000C9FCE1218900884209DBFFE71B4A4823D15C01200143D15409A90870FFE7FFE71A
:20454000FFE70C981549C968884205D2FFE709A80078002820D0FFE710490091087807AA79
:20456000019210701148502206F002FD0099104A012010700020087000F060FA01980078E1
:20458000012804D1FFE7094802F016FE03E0074802F01AFBFFE7FFE70EB070BDF038202088
:2045A000CE3A2020AE3A202092090000A03820201A3B2020B0B588B0664AAF204100116075
:2045C0006420506073208000906020209081624A7D20830013605160FF21B63191601A2130
:2045E00091815E4AC10011605D4A322111805D4A5D4911605D49000108605D49E120800050
:2046000008805C49B92008805B498C2008805B4AB42111805A4908805A49622008805A49AE
:20462000002004900870594908805948039002F089FE039908464830482206F099FCFFF72A
:204640007FFB07A9087000F0F9F90498514908705149087051490860514908605149086010
:204660005149086051490860514908805149088051490870514908705149087051490870AA
:2046800051490870514908605149088051490880514908805149088051490880514908704A
:2046A000514908705149088051490860514A01211170514908705149087006A90870FFE755
:2046C00006A80078022826D8FFE706A80290007804F012F8029A05A90870059B10780621DF
:2046E0000C4644434C480355059B15780C466C4304196370059B15780C466C430419A37079
:2047000012785143411800208880FFE70698401C06A90870D4E73A4900200860394901208A
:204720000870394805F0AEFB07A801783748384A00920029019001D100980190019805F0E4
:20474000A1FB05F0C1FC00F085FA324805F09AFB08B0B0BD8039202094392020743A20207F
:20476000CC3A2020443A20205E1A00003C3A2020E03A2020E63A2020EC3A2020EA3A202083
:20478000E43A2020E23A2020873A2020A83A2020903720202D3B2020FB3A20204C3A202052
:2047A0001C3A20202C3A2020183A20200C3A2020D83A20208E3A2020FA3A2020023B20205A
:2047C0002C3B20202B3B2020283B2020583A2020B83A2020C23A2020BA3A2020C43A202037
:2047E000C03A20201E3B20201D3B2020BC3A2020403A20202A3B2020273B2020073B202095
:20480000103A2020253B2020C6B200006AB400003CB4000045B50000A839202080B586B062
:20482000059004F04DF90146534801800021415E03204843052104F02BFC4B218900E1229F
:20484000920004F019FD04A908804C48007800280ED1FFE704984A4908804A4800780128A4
:2048600005D1FFE74848008848490880FFE70DE000234349CA5E0320504304AAD25E801875
:20488000801C820F801880080880FFE740490120087005983F49086005983F4908603F4999
:2048A0000020039008703E4908703E4908703E4908703E4908803E4908803E4908703E492C
:2048C00008703E4908603E4908603E4908603E4908703E4908703E4AFF2111703D4908706E
:2048E0003D4A3E49029111803D4A118005993D4A11603D49087005F0C9FD3C49086005F03D
:20490000D5FD029902460398394B1A60394A1070394A1070394A1070394A1070394A10802A
:20492000394A1080394A1070394A1080394A11803949086013480078012816D1FFE7374808
:20494000006937490091374A019205F007FA0099019A354B18603548006905F0FFF9344957
:204960000860344901200870FFE733490020088006F00EFA06B080BD903A2020273B202012
:204980008C3A2020873A2020AA3A2020A83A2020293B20206C3A2020703A2020FF3A2020DD
:2049A000003B2020303B2020073B20209E3A20209C3A2020083B2020093B2020EC392020B5
:2049C000F0392020E43920200B3B20200A3B20200D3B20200C3B2020A23A2020FF7F00005D
:2049E000A43A2020E8392020103B2020043A2020083A2020113B2020123B2020133B202006
:204A0000053B2020983A2020963A2020043B2020943A2020923A2020D43920208039202015
:204A2000702FFCFF90D00300FC39202094392020003A20200F3B2020F03A202080B54449C7
:204A4000002008804349088043490880434908804349087043490860434908804349086072
:204A6000434908704349086043490860434908704349087043490870434908804349088016
:204A80004349087043490870434908704349087043490880434908704349088043490880C6
:204AA0004349087043490860434908604349088043490880434908804349086043490870D6
:204AC000434908704349086043490860434908604349087043490870434AFF211170434934
:204AE0000870434A43491180434A1180434A1060434A1070434A1070434A1060434A106065
:204B0000434A1060434A1060434A1060434A1060434A1060434A1060434A1070434A10708D
:204B2000434A1070434A1070434A1070434A1080434A1080434A1070434A1080434A1180CC
:204B40004349086006F024F905F032F880BDC046AE3A2020CE3A2020B63A2020D63A2020FC
:204B60001F3B2020483A2020BC3A2020403A2020293B20206C3A2020703A2020FF3A2020FC
:204B8000003B2020303B2020F03A2020E83A2020343B2020333B2020323B2020313B20206D
:204BA000EE3A20202F3B2020903A2020AA3A2020103B2020043A2020083A20209E3A202012
:204BC0009C3A20209A3A2020D8392020083B2020093B2020EC392020F0392020E439202028
:204BE0000B3B20200A3B20200D3B20200C3B2020A23A2020FF7F0000A43A2020E839202082
:204C0000063B20200E3B2020CC392020D0392020E0392020F8392020DC392020F439202070
:204C2000FC392020003A20200F3B2020113B2020123B2020133B2020053B2020983A2020C2
:204C4000963A2020043B2020943A2020923A2020D439202080B584B0554805F013F95548BA
:204C6000007802F08BFC544805F00CF9032002F085FC524805F006F9072002F07FFC50485D
:204C800005F000F94F480090006802F077FC4E4805F0F8F80098406802F070FC4B4805F091
:204CA000F1F84B480290006802F068FC494805F0E9F80298406802F061FC474805F0E2F8D2
:204CC0000098806802F05AFC444805F0DBF80298806802F053FC424805F0D4F800980C21E5
:204CE0000191405E02F04AFC3E4805F0CBF801990298405E02F042FC3B4805F0C3F83B4856
:204D0000006802F03BFC3A4805F0BCF8002103913848405E02F032FC374805F0B3F8039929
:204D20003648405E02F02AFC354805F0ABF83548006802F023FC344805F0A4F83348006844
:204D400002F01CFC324805F09DF803993148405E02F014FC304805F095F803992F48405EE5
:204D600002F00CFC2E4805F08DF803992D48405E02F004FC2C4805F085F803992B48405E15
:204D800002F0FCFB2A4805F07DF803992948405E02F0F4FB284805F075F803992748405E47
:204DA00002F0ECFB264805F06DF804B080BDC04680B40000873A202048B7000032B700003E
:204DC0007CB900008039202058B9000088B900009439202094B9000076B9000070B90000A1
:204DE000ECB8000008B90000BBB80000743A202039B90000CC3A20200BB80000A83A2020D0
:204E00001DB80000443A202026B800003C3A2020E2B60000E03A20208AB70000E63A2020D8
:204E200011B70000EC3A202065B60000EA3A202027B70000E43A202074B70000E23A202002
:204E400070BA000080B58CB00B90DC2003F0FCFC002801D1FFE7B4E005F0DAF90AA90880BE
:204E600005F0EAF909A9088057480078002803D1FFE70020079005E00B9854490968401A80
:204E80000790FFE707980890514804F0FBFF089802F074FB4F48059004F0F4FF03F0CCF80C
:204EA00004F0F0FF059804F0EDFF002106914A480090405E02F062FB059804F0E3FF0699B9
:204EC00046480290405E02F059FB059804F0DAFF06990AA80190405E02F050FB059804F016
:204EE000D1FF069909A80390405E02F047FB059804F0C8FF06993A48405E02F03FFB05984D
:204F000004F0C0FF06993748405E02F037FB059804F0B8FF00980199069A805E895E401AC5
:204F200002F02CFB059804F0ADFF02980399069A805E895E401A02F021FB059804F0A2FFE6
:204F400005F0A4FA049005F0B1FA01460498401A02F014FB059804F095FF06992248405E80
:204F600002F00CFB059804F08DFF2048007802F005FB059804F086FF1D48007802F0FEFA6C
:204F8000059804F07FFF03F04DFF02F0F7FA059804F078FF1748007802F0F0FA059804F094
:204FA00071FF1548007802F0E9FA059804F06AFF06991248405E02F0E1FA114804F062FFCB
:204FC000FFE70CB080BDC0461F3B20204C3A2020B3B900008FBA0000B63A2020D63A202057
:204FE000AE3A2020CE3A2020B83A20201D3B20201E3B2020273B2020293B2020EE3A202030
:2050000070BA000080B588B007905E48007800280AD0FFE707985C49884201D8FFE7AFE000
:20502000584900200870FFE758480078002812D1FFE760490120032200F0E2FC002803D18F
:20504000FFE704F025FA9BE050490120087056490020087094E0262004A90C2200F0D0FC22
:20506000002810D1FFE74F49002008704C480078032805D8FFE74A490878401C0870FFE74A
:2050800004F006FA7CE004A8083005F0CDF903900399084605F08AFD00280ED1FFE70398A0
:2050A0003B4903F049FD002807D1FFE70398394903F060FD002808D0FFE7394900200870E0
:2050C0003849087004F0E4F95AE0039802F0EEFE02A908803048006800282FD0FFE7029899
:2050E0002E490988401A00B203F04EFF014601A801802B49097832224A43323269460A8078
:205100000022805E895E884209DCFFE7002201A8805E6946895E494288420EDAFFE7204849
:205120000021017002A8405E02F00AFD002803D1FFE704F0ADF923E0FFE7FFE70298174957
:205140000880174900200870164908701649087016490120087010480068002805D1FFE785
:205160000E48008812490880FFE70B480068401C002805D0FFE708490868401C0860FFE723
:2051800008B080BD363B202087130000353B20200000D0C00000D040543A2020F63A202041
:2051A0002E3B2020243B2020FD3A2020223B2020F83A2020843A202080B594B01390FFE721
:2051C00003A8402100F07EFB002805D0FFE7139903A8FCF7EBF9F3E7139801F09DFA139891
:2051E00002F05EFC1398FAF76BFF1398FFF7A6F84548007801280ED1FFE713984349096883
:20520000401A00097D2806D3FFE7FFF717FC404804F038FEFFE73F48007800280ED0FFE73B
:2052200013983D490968401A142807D3FFE7139839490860139801F0DFFBFFE73248007893
:20524000022814D0FFE73048007803280FD0FFE72D48007804280AD0FFE72B480078052889
:2052600005D0FFE72848007806282AD1FFE713982A490968401A2A490968884221D3FFE70B
:2052800024480090007802A901910870FFF7D6FB0099244A002010700870234804F0F2FDB1
:2052A0000198007800280BD0FFE7204804F0EAFD1F48008802F062F91E4804F0E3FDFFE755
:2052C000FFE718480078002818D0FFE713981A490968401A142811D3FFE7139816490860C9
:2052E00016480078002804D0FFE7139801F098F903E01398FFF7A6FDFFE7FFE7139803F038
:2053000051F814B080BDC0461F3B20201C3A2020A7B30000FA3A2020183A20204C3A2020E7
:20532000483A20202D3B2020FAB6000006B70000D83A202070BA00002C3A2020FB3A2020FF
:2053400080B59AB018901898C0680690189800690790189840690890189880690990189835
:20536000C0690A901898006A0B901898406A0C901898806A0D901898C06A0E901898006BF5
:205380000F9004A800F0C0FE002804D1FFE719A90020087085E01898416B0020002903903A
:2053A00079D4FFE71898416B0020404A9142039071DCFFE71898816B0020002903906AD465
:2053C000FFE71898816B0020384A9142039062DCFFE71898C16B0020AF229200914203905A
:2053E00059DBFFE71898C16B0020314A9142039051DCFFE71898016C0020642903904ADB21
:20540000FFE71898016C00204B2292009142039041DCFFE71898416C0020502903903ADB63
:20542000FFE71898416C026C00209142039032DCFFE71898816C0020322903902BDBFFE7AA
:205440001898816C0020AF2252009142039022DCFFE71898C16C0020502903901BDBFFE73D
:205460001898C16C0020FA29039014DCFFE71898016D0020322903900DDBFFE71898016D8B
:205480000120002201928D29029001DB0198029002980390FFE703980121084019A9087095
:2054A000FFE719A800781AB080BDC046204E00004C04000070B588B00C4605460D980C99BE
:2054C00007AE357006AD2C800592049303AA117002A90870FFF7B2FA37490020087037495A
:2054E000087003F055F805F0DDFC002803D0FFE705F012FCFFE707983149087006983149B3
:20550000088004983049086005983049086004F0DDFF2F49086004982E49086004982E49CA
:20552000086003982D49087002982D4908702D490020019008802C4908802C4908802C49D4
:2055400008802C4908802C4908702C4908702C4908802C49086002A80078002808D0FFE70A
:205560002949002008802949088029490870FFE7284804F087FC02F05FFD04F083FC264831
:20558000009004F07FFC002106A8405E01F0F6FF009804F077FC059801F0F0FF1F4804F0E2
:2055A00071FC03A80078002803D0FFE705F040FCFFE708B070BDC0462C3B20202B3B20202B
:2055C0001F3B2020DE3A20204C3A2020483A2020243A20202C3A2020183A20202D3B2020D3
:2055E000FA3A2020B83A2020C23A2020BA3A2020C43A2020C03A20201E3B20201D3B2020EC
:20560000BC3A2020403A2020D83A20208E3A2020023B2020CAB600008FBA000070BA0000D0
:2056200080B584B0024603A8027002910078002828D1FFE744480078002822D1FFE74348FA
:20564000007800281DD1FFE741480078002818D1FFE745480078022813D3FFE742490191C6
:205660000878401E08703D49002008703F4804F009FC0198007801F081FF3D4804F002FC3D
:20568000FFE75EE003A80078012828D1FFE72E480078002822D1FFE72C48007800281DD1CA
:2056A000FFE72B480078002818D1FFE72E480078092813D8FFE72C4900910878401C0870D8
:2056C000264900200870294804F0DCFB0098007801F054FF264804F0D5FBFFE731E01A48A8
:2056E000007800280AD1FFE718480078002805D1FFE717480078002803D0FFE703F064FB83
:205700001FE01448007800280DD0FFE71149002008700E490120087002980F490860114836
:2057200004F0B0FB0CE00A490120087002980A4908600A4900200870094804F0A3FBFFE7E9
:20574000FFE704B080BDC0461F3B20202B3B2020283B20202C3B2020583A2020273B20206E
:2057600059B20000E4B20000253B20200FB6000070BA000080B58EB021200421039104F098
:2057800065FF0120029001034A480A9005F07AF82220052104F05AFF02990A98490305F028
:2057A00071F802980399002207920192C30409930093430408930F20049003F0BDFC039919
:2057C000079A089B0998019200900E20059003F0B3FC049804F01EFF059804F01BFF1F20C5
:2057E0000221069104F032FF0699202004F02EFE352005F06BF8362005F068F8192005F045
:2058000065F8182005F062F8312005F05FF80799089A099B0091322003F056FD0799089AB6
:20582000099B0091122003F04FFD0799089A099B0091162003F048FD0799089A099B009166
:20584000232003F041FD0799089A099B0091242003F03AFD0799089A099B00911C2003F049
:2058600033FD0799089A099B00911D2003F02CFD102005F02BF8112005F028F80A980321D4
:205880000C9109060B9105F0B0F90A980B9904F0F9FF0C98010208480D9005F0A6F90D9823
:2058A000064905F037F80D98054904F0EBFF0EB080BDC04600000A4000200A40300040007F
:2058C0003003400080B588B0069005A801800698002805D0FFE705A80088012804D8FFE783
:2058E00007A9002008707BE0FFE73F4800883F490988884270D0FFE73B48009002883C49E5
:20590000895C04AA019211700088802104F040FA009A01460198118000780D2805D0FFE716
:2059200004A800780A2840D1FFE732480078002801D0FFE7D9E72F49012008702E4800887A
:20594000002831D0FFE72C48018802A80180008805A90988884205DBFFE70598401E02A913
:205960000880FFE703A900200880FFE703A8008802A9098888420CDAFFE703A802881F48DE
:20598000805C06998854FFE70398401C03A90880ECE7069902A80288002088541649088016
:2059A00007A9012008701BE015E0124900200870114800883E2809D8FFE704980E490B8827
:2059C0000E4AD0540888401C088003E00A4900200880FFE7FFE788E707A900200870FFE790
:2059E00007A8007808B080BDDC3A2020DA3A2020203820201B3B2020BE3A202040392020C2
:205A000080B58EB00CAB18700B910AA802700B9800280AD0FFE70AA80078002805D0FFE77C
:205A200003F0EAFC002804D1FFE70DA90020087079E004F05BFD3E4805900CA9012206922C
:205A400003F092F905983B4904F070FF0598069B002202920192022107910091232102F03B
:205A60006BFB079802F0DEF9002804D1FFE70DA90020087057E00AA803780020049002907D
:205A8000042001900220009029482321012202F053FB049809A90870FFE709A800780AA9FF
:205AA0000978884230DAFFE723480890FFE7204804F0E8FD00281AD0FFE71D4805F0AAF88D
:205AC0008007002806D5FFE704F010FD0DA90020087028E00898411E0891002806D1FFE782
:205AE00004F004FD0DA9002008701CE0DFE7104805F0A4F80B9909AA12788854FFE7099874
:205B0000401C09A90870C8E7012002F08BF9002804D1FFE70DA90020087004E003F06CFC49
:205B20000DA90870FFE70DA800780EB080BDC04600200F40830400008813000080B596B017
:205B400049480F9004F0FEFE0F9805F09FF80F9803F05EFF0F9804F065F9002314930093A5
:205B60000120420410920E20194604F043F9109A149B00930F20194604F03CF93B48129097
:205B80000421119105F027F812980821139105F022F81199129805F032F81298139905F0E6
:205BA0002EF80520800105F0DDF9149815A90870FFE715A80078082817D8FFE72B480C903D
:205BC00004210D9104F052FEA0200E9005F0CAF90C980D9905F013F80E9805F0C3F9FFE721
:205BE0001598401C15A90870E3E7204803900821049104F03BFEA02005F0B4F9039804991C
:205C000004F0FDFF0520800105F0ACF90022079201920120C10405910091430408930F20E8
:205C200009900421069103F05FFA05980699079A089B019200900E200A9003F055FA099875
:205C400004F0DAFC0A9804F0D7FC07480B9004F0CDFE0B9804F0A6FE102005F083F903F099
:205C600067F916B080BDC04600200F4000200A4010B58EB00C900BA801800AA90A800021B1
:205C8000405E002806DCFFE70C99002008610DA9088079E0002201920BA80390805E0AA925
:205CA000895E401A09900C980069099A0A2151434018089008983749374A04F04FF8089037
:205CC0000C980168099848437D21C900029103F0DFF907900C984168089848432F4903F04C
:205CE000D7F9019B02990246039806920C9A0C24145F04949268C05E504303F0C9F901469A
:205D000004984018079940180699401805900598FF21F631884204DBFFE7099800280CDCE7
:205D2000FFE70598002804D5FFE70998002804D4FFE708980C9908611DE00C984168006911
:205D40004843164903F0A4F906900C980C21415E0091816800220BA8805E48437D21C900A4
:205D600003F096F901460098401807994018069940180590FFE705987D218A00002103F027
:205D80007BFA0DA90880FFE700210DA8405E0EB010BDC046E05EF8FF20A1070040420F00D7
:205DA000B0B58EB004F0E0FF05903B4800680D903A4800680C90059804F0CCFF0D98384A47
:205DC0001168401A0B900C9836490B68C01A0A900D9810600C9808600B98C117324A02929F
:205DE0000023049304F00EFB049B07910690069807992E4A039204F0A3FF029A049B09906A
:205E00000A98C11704F0FEFA039A049B079106900698079904F094FF08900998244988427D
:205E200003DBFFE723480990FFE708982049884203DBFFE71F480890FFE700201E4B00931C
:205E4000195E099D032214466C430919CC17A40F09198908198019490191085E089B5A4359
:205E60008018C217920F80188008088004F07CFF00990246019805920988114A11800088E3
:205E80001049088010490868401C0860059804F061FF0EB0B0BDC046343A2020603A2020EA
:205EA000383A2020643A2020A0D9080010270000C5090000C4090000B23A2020D23A202087
:205EC000B43A2020D43A2020683A202080B58AB0024608A8027007910021069105AA11700B
:205EE00004AA117003AA117002AA1170079A11700078002805D0FFE705F022F8002804D18F
:205F0000FFE709A9002008806BE001A900200870FFE701A8007807283BD8FFE708A800785D
:205F200001A9097804F056FC00282CD0FFE701A801784A002D498A5E0699891806910599A7
:205F4000491C05AA11700078022804D8FFE704A901200870FFE701A80078052804D3FFE711
:205F600003A901200870FFE701A80078032805D0FFE701A80078042804D1FFE702A901201B
:205F80000870FFE7FFE7FFE70198401C01A90870BFE705A80078002814D0FFE705A80078DE
:205FA00004280FD8FFE702A8007800280ED1FFE704A80078002809D0FFE703A80078002883
:205FC00004D0FFE709A9002008800AE0079901200870069805A9097803F05AF809A908803E
:205FE000FFE7002109A8405E0AB080BDC0B5000080B588B00790354803F044FF079801F098
:20600000BDFA3348049003F03DFF02F015F803F039FF049803F036FF002103912D48405ED5
:2060200001F0ACFA049803F02DFF03992A48405E01F0A4FA049803F025FF04F0E9F801F05A
:206040009DFA049803F01EFF04F0F6F801F096FA049803F017FF03992048405E01F08EFADA
:20606000049803F00FFF03991D48405E01F086FA049803F007FF1B4801781B481B4A0592A3
:206080000029069001D105980690069803F0FAFE174803F0F7FE1748007801F06FFA1648DD
:2060A00003F0F0FE04F042FE01461448144A01920029029001D101980290029803F0E2FE12
:2060C000104803F0DFFE08B080BDC0466CB800008FBA0000B63A2020D63A2020AE3A202088
:2060E000CE3A20202C3B20204CB90000C7B90000E0B50000253B2020FAB80000D1B90000BB
:206100000ABA000070BA000082B00090009880684049884240DCFFE70098C0683D498842EA
:206120003ADCFFE7009800693A49884234DCFFE700984069374988422EDCFFE70098806923
:206140007D21C900884227DCFFE70098C0697D21C900884220DCFFE70098006AE121490004
:20616000884219DCFFE70098406AE1214900884212DCFFE70098806A274988420CDCFFE7C5
:206180000098C06A4F21C943884205DBFFE70098C06A512804DBFFE701A90020087034E0DB
:2061A00000988068002828D4FFE70098C068002823D4FFE70098006900281ED4FFE70098F7
:2061C0004069002819D4FFE700988069002814D4FFE70098C06900280FD4FFE70098006AF0
:2061E00000280AD4FFE70098406A002805D4FFE70098806A002804D5FFE701A900200870DF
:2062000003E001A901200870FFE701A8007802B07047C046B80B000088130000F0B5394A5C
:206220008218394BC0183A4D4C790B79002C22D0466F202B02D00524E70100E0354F2E40C5
:20624000002B00D188273E434667846F2C403C438467446B2D4E34404463846B344084630D
:2062600000244465846554688F26F643344054609468344094600C688979202B09D006464C
:206280007036002B15D1641E4460C46E2C40882715E0641E4460C46E2C401E4E3443C4660E
:2062A000046F2C40344304671B4D01246707064607E00527FF0164084460C46E2C403C4396
:2062C000C46634682C403C433460C46A0F4D2C40C462046B2C4004630024C4640465C46F33
:2062E0008F25ED432C40C46714682C401460194302680A4B1340BD220A40D118891C016041
:20630000F0BDC04684180000041800008888FDFF24493E0001040000FFFFFFCF4000FFCF7C
:2063200080B588B00020079006900590049003A9087003F0A9FF03F0CBFA02F08FFB03F094
:20634000ADF903F00DF802F049FA02F0C5FDFEF731F904F07DFD1520019003F031FE0198A8
:2063600003F086FE2C4804F0A1FB62B6FFE702F041FB04F0F1FD0699401A052806D3FFE7AF
:2063800004F0EAFD069004F019F8FFE703A80078002816D1FFE704F0DFFD2049884210D3A3
:2063A000FFE7FFF7CBFB02F0DBFF02F017FA04F0D3FD059003A901200870194803F062FD1B
:2063C000FFE704F0C9FD0499401A0A2806D3FFE704F0C2FD049003F03DFDFFE703A80078B8
:2063E000002811D0FFE704F0B7FD0599401A0A280AD3FFE704F0B0FD059002A800F008FA47
:206400000598FEF7FFFDFFE704F0A6FDFEF7D4FE04F016FDABE7C0460000874070170000BD
:2064200054B4000080B588B006AB187005A801700492394803900498002804D1FFE707A9B7
:206440000020087064E002F0FDFF002807D1FFE733490620087007A90020087058E004F0FE
:2064600055F82E48029005A90122019202F07CFC019B029806A90978002202F085FE02F00A
:2064800019FA002805D0FFE702F0DCFF002804D1FFE707A9002008703AE006A801781F4866
:2064A00001231A4602F070FEFFE71C4804F0F8F800281BD0FFE7194804F0B6FB800700281C
:2064C00006D5FFE704F022F807A9002008701FE00398002806D1FFE704F018F807A9002052
:2064E000087015E00398401E0390DEE70B4804F0AFFB0499087002F0DDF9002804D1FFE72D
:2065000007A90020087003E007A901200870FFE707A8007808B080BD8813000000200F40FB
:20652000013B2020B0B53A4A80184A6842600A78222A56D8930001A4E3589F46D965000078
:20654000E3650000D9650000E3650000E3650000E3650000E3650000E3650000E365000005
:20656000E3650000E3650000E3650000E3650000E3650000E3650000E3650000C9650000F5
:20658000E3650000C9650000E3650000E3650000E3650000E3650000E3650000E3650000D5
:2065A000E3650000E3650000E3650000E3650000E3650000E3650000E3650000C9650000B5
:2065C000E3650000C9650000036803242407A343012464071B1903E0036803242407A34358
:2065E00003600B69C360CB68C46A0A4D25400A4C1C402B19C3620368084C1C400460097A67
:20660000114302683F239A43194051180160B0BD041800008888FDFF777702007F00FFFF58
:2066200080B584B00390304803F02CFC03982F490968401A00F0A2FF2D48019003F022FC45
:20664000002102912B48405E00F098FF019803F019FC02992848405E00F090FF019803F099
:2066600011FC03F0D5FD00F089FF019803F00AFC03F0E2FD00F082FF019803F003FC0299D5
:206680001E48405E00F07AFF019803F0FBFB1C48007800F073FF019803F0F4FB1948007879
:2066A00000F06CFF019803F0EDFB02F0BBFB00F065FF019803F0E6FB1348007800F05EFF82
:2066C000019803F0DFFB1148007800F057FF019803F0D8FB02990E48405E00F04FFF0D48BC
:2066E00003F0D0FB04B080BD42BA00004C3A20208FBA0000B63A2020D63A2020B83A20202E
:206700001D3B20201E3B2020273B2020293B2020EE3A202070BA000080B588B007900798CD
:2067200037490968884201D1FFE766E0079834490A68801A05900798086005981A2803D327
:20674000FFE719200590FFE706A900200870FFE706A80078022850D8FFE706A801780622C5
:206760004A43284989180491007801F0C5FF014603A80170007804990978884214D1FFE72A
:206780000498808805994018029002981E49884203D3FFE71D48019002E002980190FFE75D
:2067A00001980499888006E0039804990870049900208880FFE704988088192804D3FFE7B8
:2067C000039804994870FFE70498807800280BD1FFE704984078002806D0FFE706A8007807
:2067E0000799FEF71DFFFFE7049948788870FFE70698401C06A90870AAE708B080BDC0461A
:20680000103A2020A839202061EA000060EA000080B582B001906946002008700198002838
:2068200001D1FFE763E0334800785D281BD1FFE731480078002816D0FFE7684604F09EFAF4
:2068400000280CD0FFE76846007802F0FFFF2B4800780199087001990120487047E0264932
:2068600000200870FFE703F023FD014621480170007800280CD1FFE7042001F05BFB1F4831
:206880000078019908701E480078019948702EE0184800785D280CD0FFE7072001F04AFBB4
:2068A000164800780199087015480078019948701DE0684604F062FA00280CD0FFE7684636
:2068C000007802F0C3FF0D480078019908700199012048700BE0052001F02CFB074800784B
:2068E000019908700648007801994870FFE702B080BDC046033B2020143B2020213B2020EA
:206900001C3B202080B5B6B036480290007848210491414334480390401800F013FD02983A
:206920000399049A314B0A9303230B93A8230C9300780D900AA80590103004F019FB039996
