:20000000008020205DA5000051A5000051A500000000000000000000000000000000000032
:2000200000000000000000000000000051A50000000000000000000051A5000051A50000DE
:2000400051A50000D184000051A5000051A5000051A50000A971000051A5000051A500006D
:200060000000000051A5000051A50000000000000000000051A50000DD81000051A500004A
:2000800051A5000051A5000051A5000051A5000051A50000B5990000000000000000000044
:2000A00051A5000051A50000000000000000000051A500000000000051A5000051A5000072
:2000C00010B59CB01B901A911B9809F012FB1B9815A9052206F0F0FA014614A8017000789C
:2000E000002802D1FFE700F00AFF14A8007801280CD1FFE71598FC4907F00AFB002805D01B
:20010000FFE7FA4809F0A8F900F0F9FE14A8007802281CD1FFE71598FC4907F0F9FA002801
:2001200015D0FFE7169813A906F0AAF800280ED0FFE7139800280AD4FFE71398F4498842BD
:2001400005DCFFE7139807F07BF800F0D7FE14A8007801280BD1FFE71598EE4907F0D8FA32
:20016000002804D0FFE709F099FA00F0C6FE14A80078012821D1FFE71598E74907F0C8FA92
:2001800000281AD0FFE7E54900200D90087004F0E9FC0D98E2490870E2490870E24908709D
:2001A000E2490870E2490870E2490870E2490870E24809F051F900F09FFE14A8007801285C
:2001C0000CD1FFE71598DE4907F0A2FA002805D0FFE71A9805F002F900F08DFE14A80078C1
:2001E00001280BD1FFE71598D64907F091FA002804D0FFE706F09CFE00F07CFE14A80078B6
:2002000001280BD1FFE71598CF4907F081FA002804D0FFE706F01EFB00F06BFE14A800783E
:2002200001280BD1FFE71598C84907F071FA002804D0FFE706F0D6F900F05AFE14A8007890
:20024000022815D1FFE71598C04907F061FA00280ED0FFE71698BE4907F05AFA002807D0B5
:20026000FFE708F079FEBB4809F0F6F800F03FFE14A8007802281CD1FFE71598B64907F03E
:2002800047FA002815D0FFE7B4480078002810D1FFE71698B24907F03BFA002809D0FFE70B
:2002A00008F070FF002008F029F803F063FD00F01DFE14A8007802281CD1FFE71598A64973
:2002C00007F026FA002815D0FFE7A4480078002810D1FFE71698A34907F01AFA002809D01B
:2002E000FFE708F04FFF012008F008F803F042FD00F0FBFD14A8007801280BD1FFE71598D3
:20030000994907F005FA002804D0FFE703F032FD00F0EAFD14A80078022842D1FFE7159826
:20032000924907F0F5F900283BD0FFE7169813A905F0A6FF002834D0FFE71398002830D4F7
:20034000FFE71398724988422BDCFFE783480078002826D1FFE7139810908548007800289A
:200360000CD0FFE7834800681099884206D1FFE710988149097808F07FFA10E008F002FF0B
:2003800005F03EFD7C49087010987A4A1060784A012010701098097808F06EFAFFE700F052
:2003A000A2FD14A8007801281DD1FFE715986F4907F0AEF9002816D0FFE768480078002826
:2003C00011D1FFE708F0DEFE05F01AFD002804D0FFE76A4809F040F803E0694809F03CF8EF
:2003E000FFE700F07FFD14A8007801281DD1FFE71598644907F08CF9002816D0FFE7574811
:200400000078002811D1FFE702F0A8FD002806D0FFE75D4809F020F803F0ACFC03E05B4822
:2004200009F01AF8FFE700F05CFD14A80078012811D1FFE71598564907F06AF900280AD0B5
:20044000FFE746480078002805D1FFE71A9808F06DFB00F045FD14A8007802281ED1FFE755
:2004600015984C4907F054F9002817D0FFE71698494907F04DF9002810D0FFE72849012004
:2004800008702849002008701A9844490860444808F0E2FF09F0B8FF00F021FD14A80078DD
:2004A00002281CD1FFE715983A4907F031F9002815D0FFE716983B4907F02AF900280ED0A9
:2004C000FFE71749002008701649012008701A9832490860344808F0BFFF00F0FFFC14A8D8
:2004E000007802286ED103E0A3AF00008AAE00001598284907F00CF9002863D0FFE71698A5
:200500002A4907F005F900285CD051E04AAF0000FFFFFF7F6CAF00009EAF0000F0382020A9
:20052000E43A2020B93A2020B83A2020C03A2020E33A2020E23A2020DF3A202090AD00006F
:20054000C2AE0000F3AE000022B0000008AF000020AF000048AB000074AE0000D63A2020CD
:200560002CAF000098AE00000EAF000076AF0000CE3A2020EC392020CD3A202086AD000051
:2005800052AD0000ADAF0000AEAD000005AD0000BCAF0000DEAE000047B00000F839202094
:2005A000DAAB000062AF00006AAB0000D6AF0000FE4900200870FE490870FE4808F04CFFE4
:2005C00000F08BFC14A8007802285CD1FFE71598F94907F09DF8002855D0FFE7169813A91B
:2005E00005F04EFE002809D0FFE71398002805D4FFE71398F149884204DDFFE7F04808F09B
:200600002BFF3EE0EF480078002810D0FFE71398EC49C96988420AD1FFE7EB4808F01CFF12
:20062000139806F095FAE94808F016FF28E0E8480078002806D0FFE71398E649C9698842E2
:2006400005D0FFE71398E44908F0BAFB17E0E1480078012804D1FFE7DE4806F097F80DE046
:20066000DC480078022804D1FFE7DA4805F02AFD03E0DA4808F0F0FEFFE7FFE7FFE7FFE738
:20068000FFE700F029FC14A80078042800D085E01598D34907F03CF800287FD0FFE71698CB
:2006A00013A905F0EDFD002878D0FFE7179812A905F0E6FD002871D0FFE7189811A905F059
:2006C000DFFD00286AD0FFE713988121C943884264DBFFE71398822860DCFFE71298322833
:2006E0005CDBFFE7129819210901884256DCFFE71198002852D4FFE71198B04988424DDC9B
:20070000FFE711980F90B748007800280BD0FFE7B54800680F99884205D1FFE70F98B34915
:2007200008F006FB39E0B248007805280AD0FFE7AF48007806282AD1FFE7AE480078002834
:2007400025D1FFE7AC480078002808D0FFE70021AA48405E08F098FE052805DBFFE70F9892
:20076000A74908F0E5FACAE31398A64908801A9812994018A44908600F989B490860994904
:20078000012008700F98994908F0D2FA04E00F989B4908F0CDFAFFE7FFE79CE314A80078C6
:2007A000032851D1FFE715988D4906F0B1FF00284AD0FFE7169813A905F062FD002843D0BC
:2007C000FFE7179812A905F05BFD00283CD0FFE713988121C943884236DBFFE713988228F3
:2007E00032DCFFE7129832282EDBFFE7129819210901884228DCFFE77F480078002823D016
:20080000FFE700217D48405E08F03EFE04281BDCFFE77748007805280AD0FFE774480078D9
:20082000062811D1FFE77348007800280CD1FFE71398744908801A981299401872490860DC
:20084000724808F009FE45E314A80078032838D1FFE715986E4906F05BFF002831D0FFE7A6
:20086000179813A905F00CFD00282AD0FFE71398002826D4FFE713989B218900884220DC9E
:20088000FFE71698634906F043FF00280ED1FFE71698614906F03CFF002807D1FFE71698D6
:2008A0005E4906F035FF00280BD0FFE74548002202701698007813A9895E1A9A05F072FC7D
:2008C00007E314A80078052855D1FFE71598544906F01EFF00284ED0FFE716984D4906F0FE
:2008E00017FF002807D1FFE716984B4906F010FF002840D0FFE7179813A905F0C1FC002852
:2009000039D0FFE7189812A905F0BAFC002832D0FFE7199811A905F0B3FC00282BD0FFE7AA
:200920001398002827D4FFE713989B218900884221DCFFE712987D21C90088421BDBFFE7AF
:2009400012987D210901884215DCFFE71198002811D4FFE71198194988420CDCFFE71698B7
:200960000078002213A9895E129A119B1A9C009406F048F9ACE214A80078052800D092E030
:200980001598284906F0C4FE002800D18BE01698204906F0BDFE002846D1FFE716981E491B
:2009A00006F0B6FE00287ED03EE0C046E43A2020B93A20209CAB00005CAE0000FFFFFF7F95
:2009C00059AB0000F038202012B0000038B00000D13A2020A03820204CAE0000BCAB00003D
:2009E0007BAF0000CC3A2020E03920203EB00000D63A2020E03A2020D53A2020763A202057
:200A0000DAAF00007A3A20200C3A20207CAD0000CEAF000051B0000053B0000055B0000024
:200A2000C1AD0000B8AD0000179813A905F028FC002838D0FFE7189812A905F021FC0028A4
:200A400031D0FFE7199811A905F01AFC00282AD0FFE71398502826DBFFE713984B21C90047
:200A6000884220DCFFE712987D21890088421ADBFFE71298FD49884215DCFFE711980028F2
:200A800011D4FFE71198FA4988420CDCFFE716980078002213A9895E129A119B1A9C00947A
:200AA00006F002F913E214A8007804282BD1FFE71598F04906F02CFE002824D0FFE7179857
:200AC00013A905F0DDFB00281DD0FFE7189812A905F0D6FB002816D0FFE71298002812D4B5
:200AE000FFE71298E24988420DDCFFE71698139901F0AAFF002806D0FFE712981699139AC4
:200B000007F096FDE2E114A8007803281BD1FFE71598D84906F0FCFD002814D0FFE71798F9
:200B200013A905F0ADFB00280DD0FFE71698139901F08AFF002806D0FFE7CF4808F08CFC22
:200B400003F018F9C1E114A80078042852D1FFE71598F14906F0DCFD00284BD0FFE71698F9
:200B6000EA4906F0D5FD002807D1FFE71698E84906F0CEFD00283DD0FFE7179813A905F079
:200B80007FFB002836D0FFE7189812A905F078FB00282FD0FFE7139850282BDBFFE713982D
:200BA0004B21C900884225DCFFE712987D21890088421FDBFFE71298D64988421ADCFFE765
:200BC000E94900200A9008701698017803200B9002204C290C9001D00B980C900A9C0C983F
:200BE00013A9095F129A1A9B01940124009403F0B1FD69E114A8007803284AD1FFE715982A
:200C0000C64906F085FD002807D1FFE71598C44906F07EFD00283CD0FFE7169813A905F0C3
:200C20002FFB002835D0FFE7179812A905F028FB00282ED0FFE7139850282ADBFFE7139830
:200C40004B21C900884224DCFFE712987D21890088421EDBFFE71298AE49884219DCFFE7EF
:200C60001598AF4906F054FD01460420089005200029099001D1089809900998002413A912
:200C8000095F129A1A9B01940124009403F062FD19E114A80078042800D081E01598A149C9
:200CA00006F036FD00287BD0FFE7169813A905F0E7FA002874D0FFE7179812A905F0E0FAE7
:200CC00000286DD0FFE7189811A905F0D9FA002866D0FFE71398502862DBFFE71398E12160
:200CE000490088425CDCFFE71298012858DBFFE712980A2854DCFFE71198002850D4FFE70A
:200D00001198804988424BDCFFE711980E9090480078002817D0FFE78E4800680E9988424F
:200D200011D1FFE70E9805908B4801788B488C4A06920029079001D106980790059807991F
:200D400008F01AF82BE070480078002805D0FFE70E98844908F010F820E0002113A8405E7E
:200D600012A909781A9A02F043FC01467A4801700E99784A1160764A012111700E99029161
:200D800001787648764A03920029049001D1039804900298049907F0EFFFFFE7FFE791E0B0
:200DA00014A80078032837D1FFE715985D4906F0AFFC002830D0FFE7169813A905F060FA2B
:200DC000002829D0FFE7179812A905F059FA002822D0FFE7139850281EDBFFE71398E121AB
:200DE0004900884218DCFFE71298012814DBFFE712980A2810DCFFE7002113A8405E12A97B
:200E000009781A9A02F0F4FB002804D1FFE74F4808F022FBFFE754E014A8007803284BD198
:200E2000FFE71598404906F073FC002844D0FFE7169813A905F024FA00283DD0FFE71798C8
:200E400012A905F01DFA002836D0FFE71398502832DBFFE713984B21C90088422CDCFFE709
:200E600012987D218900884226DB07E0983A0000FFFFFF7FFEAF0000F7AD00001298254938
:200E8000884219DCFFE720480078002814D1FFE71398274908801298264908602649012026
:200EA00008702649002008702549087025490870254808F0D1FA03E01C4808F0CDFAFFE7CB
:200EC000FFE7FFE7FFE7FFE7FFE7FFE7FFE7FFE7FFE7FFE7FFE7FFE7FFE7FFE7FFE7FFE7B2
:200EE000FFE7FFE7FFE7FFE7FFE7FFE7FFE7FFE7FFE7FFE7FFE7FFE7FFE7FFE7FFE71CB0AC
:200F000010BDC046FFFFFF7FD63A202051B0000053B00000983A0000A8AF00002EB0000027
:200F200094AF0000D0AE000002B0000095A90000543A2020BC392020E33A2020E23A202044
:200F4000E43A2020B83A2020D2A7000074A80000D03A2020F4392020CF3A20203EB000007E
:200F6000DAAF0000C1AF0000F038202010B5A8B0269020A9002008701FA908701EA908705D
:200F80001DA908801CA908701BA90870FB48007806280AD1FFE7FA480078002805D0FFE743
:200FA000FC480078042805D1FFE727A90020087000F071FE2698F8490968401A2590F5480A
:200FC0000078012849D1FFE7F4490A88F44802800A88F4490A80F44A1388F44C2380128834
:200FE000F34B1A800022805E895E05F001FF259832282DD3FFE709F041FA002808D1FFE725
:20100000EC4808F065F827A90120087000F043FE09F06EF9E849002016900880E749088016
:20102000E7490120087008F08FFCE649086008F09DFC01461698E44A1160E4490880E449C6
:201040000870D449022008702698D3490860FFE727A90120087000F01EFE09F00FFA00289A
:2010600011D1FFE7DB480078012808D1FFE7DA4808F02EF827A90120087000F00CFED04969
:2010800000200870FFE708F05FFCCE490968401A229008F06BFCCC490968401A2190229841
:2010A000002804D5FFE7229840422290FFE72198002804D5FFE7219840422190FFE7229849
:2010C00021994018C10F40184008C049088009F01DFA7F210840C1490870BE4800780128DC
:2010E0000ED1FFE7BD4800781EA904F0E5F81DA908801D98BA4908801E98BA490870FFE771
:20110000B9480078002820D1FFE7B448007807F0FDFF00280BD1FFE7B4480078FF2805D096
:20112000FFE7B2490878401C0870FFE703E0AF4900200870FFE7AD480078022804D3FFE7E7
:20114000A94901200870FFE72BE0A448007807F0DDFF1FA908709F480078012801D1FFE75C
:20116000FFE700229948805EA149895ECA0F89184910884210DBFFE71FA8007800280BD027
:20118000FFE79C480078FF2805D0FFE799490878401C0870FFE703E0964900200870FFE7CF
:2011A000FFE709F06BF900282AD0FFE708F0D2FD24A9088082480078002811D0FFE72498DB
:2011C0007E490988401A00B208F05EF9C82807DCFFE72498794908802498774908800EE0AB
:2011E000249876490988401A00B208F04DF9C92804DBFFE7724900200870FFE7FFE7FFE7DE
:20120000269865490968401A259072480078012800D0B9E3269878490968401A1A90684877
:201220000078002808D1FFE7744807F051FF27A90120087000F02FFD00215F48405E08F069
:2012400023F96F49884208DBFFE76E4807F040FF27A90120087000F01EFD00225B48805E24
:2012600063498A5E03215143884208DDFFE7664807F02EFF27A90120087000F00CFD1A98A7
:20128000C009192808D3FFE7604807F021FF27A90120087000F0FFFC3E480078022805D073
:2012A000FFE73C480078032800D0BCE11EA80078002819D0FFE7494800784006800F002879
:2012C00012D0FFE700211DA8405E0A280CDBFFE700213948405EAF214900884204DBFFE7DB
:2012E0004B4901200870FFE749480078002821D0FFE71EA8007800281CD1FFE700212E4803
:20130000405EE1214900884214DBFFE741480078FF2805D0FFE73F490878401C0870FFE7A0
:201320003C480078022804D3FFE73B4901200870FFE709E038480078002804D1FFE7354985
:2013400000200870FFE7FFE727480078002800D18BE02F480078002800D186E02E480078A2
:20136000002800D181E01EA8007800287DD0FFE71A4800784007002877D003E0D63A2020B7
:20138000E03A202000211DA8405E0521C94388426BDC43E0E03A2020383A2020AA3A2020D9
:2013A0006C3A20208C3A2020A23A2020743A2020943A202013AC0000AE3A2020A63A202022
:2013C000EB3A2020443A2020483A2020AC3A2020E63A2020533A2020ACAB0000D43A202030
:2013E000763A2020D53A2020EA3A2020E93A2020A03A2020E83A20203C3A202058AA0000B3
:201400007F040000AEA900002BA900000EA90000C63A2020C73A2020C83A20200021FA4841
:20142000405EFA49884220DBFFE70021F648405EF749884219DCFFE70022F648805E81007F
:20144000F548825E0320504388420EDCFFE70022F048805EF0498A5E03215143884204DC64
:20146000FFE71CA901200870FFE7EC48007800282BD0FFE71EA80078002826D0FFE700212A
:20148000E148405E08F000F8AF21890088421CDBFFE700211DA8405E07F0F6FF0A2814DC03
:2014A000FFE7DF48007807F031FE00280DD0FFE70022D848805E4100D748805E884204DC8E
:2014C000FFE71CA901200870FFE7D4480078002821D0FFE71EA8007800281CD0FFE70021F6
:2014E0001DA8405E002816D4FFE7CD48007805F00DFE00280FD0FFE70022C648805E810088
:20150000C548825E03205043884204DCFFE71CA901200870FFE71CA8007800280BD0FFE72F
:20152000C0480078FF2805D0FFE7BE490878401C0870FFE703E0BB4900200870FFE7B948A2
:201540000078022804D3FFE720A901200870FFE700211491AC48405E07F096FF149A01460B
:20156000B148825E0120914215900FDAFFE7A94800221292815EA848825E0120914213902D
:2015800001DA1298139013981590FFE71599012001401BA801700078002843D0FFE720A848
:2015A000007800283ED1FFE7A0490020119008709F4A0421117026999E4A11609E4908706E
:2015C0009E4908809E4908809E4908809E4908809E4908809E4908809E49088007F0D2FD3C
:2015E00008F0B8FE9C4807F037FF9C480078401C05F0AEFA9A48109007F02EFF11998248BD
:20160000405E05F0A5FA109807F026FF11998148405E05F09DFA934807F01EFF27A9012057
:20162000087038E3FFE782480078052800D09FE008F0D8F807F028FF19A9088008F0E6F86D
:2016400007F022FF18A908807F49002008807F4908807F4908807F49088007F093FD259885
:20166000782817D3FFE7002119A8405E0F2811DCFFE7002118A8405E0F280BDCFFE77A482B
:201680000078FF2805D0FFE777490878401C0870FFE703E0744900200870FFE772480078A6
:2016A000032858D3FFE71EA8007800280DD0FFE75B4800784007002814D1FFE75848007858
:2016C00007F024FD00280DD1FFE725984008E12804D3FFE7654807F0FBFCFFE727A90120C9
:2016E0000870D8E206F07EFC08F0DAF96049086060480078002809D0FFE75F4800685F49AE
:2017000008615F4800685F49086102E008F022FEFFE75D4800210F9101801D98474A1080A3
:2017200047480180474801801DA8405E07F0ACFE01460F98554A11802699554A11605549FA
:2017400008803B490620087026983A49086027A9012008709FE225984008E12804D3FFE781
:201760004D4807F0B5FCFFE727A90120087092E22F480078062800D005E11EA80078002830
:2017800007D0FFE700211DA8405E07F07DFE0E9002E042480E90FFE70E9817A908801EA854
:2017A0000078002825D1FFE73A4800883C49884205D8FFE7374908880A300880FFE722496E
:2017C0000020088021490880214908802149088007F0D8FC08F0BEFD2E480088B42804D35C
:2017E000FFE7304807F074FCFFE727A90120087051E228480022028017A8805E2349895E9E
:20180000884258DA50E0C046AE3A2020EE0200004C040000AC3A2020A03A2020EA3A20208A
:20182000D43A2020C93A20209E3A2020E63A2020E03A2020383A2020E73A2020803A202038
:20184000783A20207E3A20206C3A20208C3A2020743A2020943A2020AAAC0000DE3A202008
:2018600057B0000038B00000C33A2020C7A90000F0392020C53A2020D039202080392020E2
:20188000D439202094392020823A20205E3A2020CC392020603A202047A90000FF7F00008D
:2018A0005FEA000096A800001798FD4908802698FC490860FFE7FC48007807F027FC0028D5
:2018C00011D0FFE7002117A8405E06280BDCFFE7F6480078FF2805D0FFE7F4490878401C17
:2018E0000870FFE703E0F14900200870FFE7EF480078052837D3FFE7ED4901200D900870B7
:20190000EC4807F0A9FDEC480078401C05F020F9EA480B9007F0A0FD00210C91F048405EEB
:2019200005F016F90B9807F097FD0C99E848405E05F00EF90B9807F08FFDE648007805F045
:2019400007F90B9807F088FD0C991DA8405E05F0FFF8FE4807F080FD269801F0A7FC0D98C3
:2019600027A9087097E12598F949884207D3FFE7F84807F0ADFB27A9012008708BE127A99A
:201980000020087087E1FFE7D4480078032827D3FFE7CE48007800280CD0FFE70021D04811
:2019A000405E7D218900884204DBFFE720A90120087014E0C548007800280FD1FFE70022E8
:2019C000C348805E8100C448825E03205043884204DCFFE720A901200870FFE7FFE7FFE757
:2019E000B948007801280ED1FFE7BE48017800200990012001290A9001D809980A900A98AD
:201A000020A90870FFE7B0480078012875D1FFE72598DC2871D3FFE720A8007800286CD04B
:201A2000FFE71EA80078002867D0FFE7A948007807F06CFB002860D0FFE7A9480088BA49BC
:201A400003910880A2480088B84904910880A1480078B749059108701D98B6490891088096
:201A6000B549002007900870B4490880944A052111702699934A1160B1490880A54908802A
:201A8000A54908809C4908809C4908809C4908809C49088007F076FB08F05CFCA94807F07C
:201AA000DBFC9E480078401C05F052F8A648069007F0D2FC03980799405E05F049F8069860
:201AC00007F0CAFC04980799405E05F041F8069807F0C2FC0598007805F03AF8069807F01D
:201AE000BBFC07990898405E05F032F8974807F0B3FC27A901200870CDE02598C008AF283B
:201B00000CD3FFE770480078012807D0FFE7854807F0DEFA27A901200870BCE02598DC2888
:201B200056D3FFE768480078012851D0FFE720A8007800281AD1FFE764480078002808D1E0
:201B4000FFE700226248805E6349895E88420DDAFFE75E48007800283AD0FFE700226048CB
:201B6000805E6149895E884232DBFFE72098664908705349042008702698524908606349B5
:201B8000002002900870624908806249088062490880594908805949088059490880594962
:201BA000088007F0EFFA08F0D5FB5C480078401CC0B25B4909788906090E884204DBFFE7B1
:201BC000269801F073FBFFE727A90120087062E03B480078022823D1FFE72598DC281FD3A5
:201BE000FFE73A48007800280CD0FFE700213C48405E3D4909883D4A1288891A09B2884278
:201C00000ADAFFE700213248405E33490988193909B2884204DBFFE7294903200870FFE725
:201C200027480078022805D1FFE700213148405E019004E000212E48405E0190FFE70198E5
:201C400023A908802048007801280DD1FFE71F480078002808D0FFE700212148405E04F082
:201C6000E9FB23A90880FFE72398414222480180239A22490A80239A5242214B1A80239A57
:201C8000204B1A800022805E895E05F0B1F827A901200870FFE727A8007828B010BDC04679
:201CA0005E3A2020CC392020D43A2020E73A2020E63A202048AC0000DE3A202057B00000A5
:201CC000E03A2020383A2020533A2020EB3A2020AC3A2020D43A2020A03A2020E83A2020D6
:201CE000AE3A2020C93A20209E3A2020A83A2020AA3A2020A43A20206C3A20208C3A202011
:201D0000743A2020943A2020E63A2020E73A2020803A2020783A20207E3A2020DE3A2020CA
:201D2000E13A202055AC0000663A2020643A2020C23A2020623A2020C33A2020603A20205A
:201D4000823A2020F7AB000057B0000038B0000098080000F1A80000B0B5DEB05D9007F0E6
:201D60009FFE5C90F7480078022816D0FFE7F5480078032811D0FFE7F248007804280CD0CC
:201D8000FFE7F0480078052807D0FFE7ED480078062802D0FFE700F021FE5C98EA49096889
:201DA000884202D1FFE700F019FE5C98E64908605D98FFF7DBF8002802D0FFE700F00EFE74
:201DC000E0480078022809D1FFE7E0480088E0490880E0490020088000F0D6FDD9480078EB
:201DE000032809D1FFE7DA4900200880D7480088D849088000F0C7FDD2480078052806D094
:201E0000FFE7D0480078062801D000F034FDCF48008859A908805D98CF490968401A549047
:201E2000CE4853904B20C00052A90880CC4801780020012930900DD1FFE7C44800212E91B4
:201E4000415E0120C9292F9001DB2E982F902F983090FFE730980121084051A90870C04897
:201E60000178002001292D900DD1FFE7B5480178002006292D9006D1FFE7BA4800784142E2
:201E800048412D90FFE72D980121084050A90870B3480178002001292C900ED1FFE7A94846
:201EA0000178002006292C9007D1FFE7AD480078801F414248412C90FFE72C9801210840F8
:201EC0004FA90870A6480178002001292B900ED1FFE79C480178002006292B9007D1FFE73C
:201EE000A0480078001F414248412B90FFE72B99012001404EAA117050A9097800292A90BA
:201F00000DD1FFE74FA80178012000292A9006D1FFE74EA80078411E88412A90FFE72A98D4
:201F2000012108404DA908704CA9232008804BA908804AA90C2008808248007806280CD199
:201F4000FFE788480078042807D1FFE74CA9192008804BA93220088026E07A480078062877
:201F600021D1FFE77F48007806281CD1FFE74CA92D2008804BA9412008804AA90520088002
:201F80005D9879490968401A000919280AD3FFE74CA93C2008804BA94B2008804AA90820D7
:201FA0000880FFE7FFE7FFE751A8007800280ED0FFE764480078062809D1FFE76B4800784D
:201FC000002804D1FFE77D20C0005390FFE76448007801280ED1FFE75A480078062809D1C4
:201FE000FFE760480078062804D1FFE752A9B420088014E05A48007801280FD1FFE7514805
:20200000007806280AD1FFE756480078002805D1FFE74B20C00052A90880FFE7FFE7494854
:202020000078062819D1FFE74E480078042814D1FFE74F48008859A908804948007801284A
:202040000AD1FFE7002159A8405E652804DBFFE759A964200880FFE729E03A480078062888
:2020600013D1FFE73F48007806280ED1FFE74048018859A801800021405E652804DBFFE700
:2020800059A964200880FFE710E05498539988420BD2FFE700212D48415E5498484353995F
:2020A00006F09AFF59A90880FFE7FFE7FFE708F02DFA01467F2001402E480170007855A9B2
:2020C00003F0FAF82C49088055982C49087050A8007800286FD0FFE755A8007800286AD0B0
:2020E000FFE7002128912448405E07F0CDF92899024649A829900280144A128848AB1A809F
:20210000405E400023302321642206F0DDFB2899024629984CAB1A804C9A4BAB1A80405E87
:20212000C10F401840100C300C21182206F0CCFB2899024629984AAB1A80405E092839DB8B
:202140001EE0C046D63A2020F03920209C3A2020743A2020943A2020183A2020DC0500003D
:20216000533A2020E03A2020CC392020DE3A2020A23A2020D43A2020763A2020D53A2020F2
:2021800000212791FB48425E49A8405E4000101A10305A2106F098FB279A48A9088059A80B
:2021A000805E895E884204DDFFE7489859A90880FFE7FFE7FFE7F0480078062800D039E1E5
:2021C000EE480078002800D09FE005F0A5FFEC490880EC480078012832D1FFE708F04EF987
:2021E00000282DD0FFE707F0B5FD014647A8018046AA2692E449118000212591405E07F0A2
:2022000043F9259A2699895E88420BDBFFE7DF480078FF2805D0FFE7DC490878401C08708D
:20222000FFE703E0D94900200870FFE7D7480078032804D3FFE7D64806F04AFFCEE303E0C5
:20224000D24900200870FFE70022CD48805ED149895E884206DAFFE7CF4900200870CF4977
:20226000087051E0CC480078072811D8FFE7CC48007805F085FB002805D0FFE7C6490878B8
:20228000401C087003E0C44900200870FFE73AE0C348007805F06BFC45A9087044A902208E
:2022A0000870B848007801280AD1FFE7BC48007803F0AAF945A9087044A903200870FFE75E
:2022C00045A8007800280BD0FFE7B4480078FF2805D0FFE7B1490878401C0870FFE703E043
:2022E000AE4900200870FFE7AC48007844A90978884207DBFFE75D9802F0B2F85D98FEF782
:2023000035FE6BE3FFE7FFE793E09C480078042800D08DE05D98A3490968401A43904398DE
:2023200078281ED3FFE797480078012807D1FFE79B48007804F0EAFE002807D111E09848E0
:20234000007805F01DFB00280BD0FFE796480078FF2805D0FFE794490878401C0870FFE7C0
:2023600003E0914900200870FFE78F4800782290844801780320239002200129249001D035
:202380002398249022982499884246D3FFE77D480078012835D1FFE784490120087084480A
:2023A0001F90008883490880834807F055F883480078401C04F0CCFB8148209007F04CF875
:2023C000002121917F48405E04F0C2FB209807F043F81F982199405E04F0BAFB209807F0C3
:2023E0003BF86F48007804F0B3FB209807F034F821997548405E04F0ABFB744807F02CF878
:20240000FFE75D9800F052FF002801D0FFE7E5E25848008859A9088009E0439840091928FA
:2024200004D3FFE76A4806F053FED7E2FFE7FFE7FFE7FFE755A80078002800D16DE162482F
:202440001D9000211C91405E07F01EF81C9942AA1A9210805F481B90405E07F015F81C99D0
:2024600002461D9841AB1A8040ABA0221A8000883EAA10803DAA08201080574800683C9020
:20248000564800683B9059A8415EFF225432012091421E9001DC1C981E901C9A1B991D9824
:2024A0001E9B3AAC237000880988401A56A9199108804B481890805E4000895E401803218A
:2024C00006F00EF9189A199B1C9904461A98148012881A80405E042809DCFFE73C99032093
:2024E0004843C117890F401880103C901BE0002142A8405E0A2815DBFFE73AA800780028FF
:2025000009D0FFE73C9905204843C117890F40188010179003E03C9840001790FFE7179845
:202520003C90FFE7FFE7002242A8805E41A9895E884204DAFFE73B9840003B9005E03B9824
:20254000C10F401840103B90FFE7002142A8405E022803DCFFE700203B90FFE73AA800788F
:20256000002867D0FFE7002142A8405E04284BDC38E0C0469C3A2020D63A2020E03A20203C
:202580005C3A2020533A2020FF7F0000C43A202099AA0000583A2020BD3A2020BE3A202058
:2025A000D43A2020383A2020E73A2020E63A2020AC3A2020643A202048AC0000DE3A20200A
:2025C00057B00000AE3A2020763A202038B0000036AB0000803A2020103A2020083A20200D
:2025E000783A202040A92D200880002142A8415E052015900A200329169001DB159816908C
:2026000016983DA9088014E0002142A8405E0A2807DBFFE740A97D2008803DA91220088059
:2026200006E040A95A2008803DA908200880FFE7FFE723E0002142A8405E042812DCFFE7BB
:2026400040A92D200880002142A8415E052013900A200329149001DB1398149014983DA993
:2026600008800AE0002142A8405E0A2804DBFFE73DA912200880FFE7FFE7FFE74DA8007889
:20268000002819D0FFE7002240A8805E4CA9895E884204DDFFE74C9840A90880FFE7002291
:2026A0003DA8805E4AA9895E884204DDFFE74A983DA90880FFE7FFE73C99002312933EA84D
:2026C000C05E48433B9A56A9C95E514340187D21C90006F005F8129A40A98A5E514209B245
:2026E00006F0F2F8129B01463FA80180C05ECF491191CA5E3DA9CB5ED11AD21809B212B23B
:2027000006F0E2F8119A014612981180BF490988C54A1180BE49088037E0BD480088BD494A
:20272000884205D8FFE7BA4908880A300880FFE7B748008852A90988884213DBFFE7A84830
:202740000078062804D1FFE7B64806F0C1FC08E002F008FAB14900200870B14806F07CFE90
:20276000FFE73BE1AA48008864280DD3FFE7AA480021018059A8405E652804DBFFE759A904
:2027800064200880FFE7FFE7FFE7A848008857A908800021A648405E002816D0FFE7A548ED
:2027A00000685D99401A01280FDBFFE7002257A81090805E9E49895E40189F21C943A02215
:2027C00006F082F81099088005E099490020088098490860FFE74DA8007800280DD0FFE762
:2027E000002257A80F90805E4BA98A5E514209B206F06AF80F990880FFE75998143858A965
:20280000088050A80078002804D0FFE74B9858A90880FFE7002158A8405E002804D5FFE7E6
:2028200058A900200880FFE700220C9257A80B90805E58A98A5E514209B206F045F80B9AC2
:202840000C99108059A80E90405E525E80184B22D2000D9206F038F80B9B0C990D9A04467E
:202860000E98684D2C80405E5B5EC01A06F02CF86549088086E05B48008839A9088007F0DE
:20288000EFF8099007F0FCF801460998401A389007F0E6F80A9007F0F3F801460A98401831
:2028A000C10F401840103790379900224E48805E48434E4905F014FF369038983699401A8A
:2028C00035905D984A490968401A31903198494988420BD8FFE700214248415E3198484393
:2028E000454906F079FB39A90880FFE7002139A8405EC20F8018420833A80280405E3D28DD
:2029000004DBFFE733A93C200880FFE73B480068329031983749884208D8FFE732984000BC
:202920000021374A06F004FD3290FFE73299359848437D21C90005F0D3FE0022069233A970
:202940008A5E514209B205F0BFFF069934AA0592108039A80890405E525E801A4B22D2004A
:20296000079205F0B1FF059B0699079A04460898244D2C80405E5B5EC01805F0A5FF2249FF
:202980000880FFE7FFE7FFE706F02CFF5BA90191088006F03BFF014601985AAA0292118085
:2029A000002203921749895E825E234802F056FB039A01460298214B049319801249895E2F
:2029C000825E1F4802F04AFB039A034604981D490B80805E895E04F00BFAFFE75EB0B0BDE7
:2029E000D63A20209C3A20208A3A202010270000183A2020DB050000DC050000403A202029
:202A000088130000743A2020943A2020763A20207E3A20205FEA0000783A2020E43A20209E
:202A2000C3AA000072AD0000803A2020823A20207A3A20200C3A2020803920206C3A2020BB
:202A4000943920208C3A202080B584B0029001916946012008700298FD4904F059FE00283B
:202A600011D0FFE70198002805D4FFE70198FD49884204DBFFE703A9002008701CE20198C6
:202A8000FB4908600CE20298FA4904F041FE002811D0FFE70198002805D4FFE70198F1494A
:202AA000884204DBFFE703A90020087004E20198EF494860F3E10298EF4904F029FE0028FB
:202AC00011D0FFE70198002805D4FFE70198E549884204DBFFE703A900200870ECE10198AF
:202AE000F7490860DAE10298F74904F011FE002811D0FFE70198002805D4FFE70198D9496C
:202B0000884204DBFFE703A900200870D4E10198EB494860C1E10298EC4904F0F9FD002835
:202B200011D0FFE70198002805D4FFE70198E549884204DBFFE703A900200870BCE101987E
:202B4000CB498860A8E10298E14904F0E1FD002811D0FFE70198002805D4FFE70198D94930
:202B6000884204DBFFE703A900200870A4E10198F84988608FE10298D64904F0C9FD002830
:202B800012D0FFE70198002806D4FFE70198FF21C431884204DBFFE703A9002008708BE1FF
:202BA0000198ED49888175E10298CB4904F0B0FD002812D0FFE70198002806D4FFE701988E
:202BC000FF21C431884204DBFFE703A90020087072E10198DF4988815BE10298BF4904F01E
:202BE00097FD002811D0FFE70198002805D4FFE70198D649884204DBFFE703A90020087047
:202C00005AE10198D249086042E10298B44904F07FFD002812D0FFE701984F21C943884264
:202C200004DBFFE70198512804DBFFE703A90020087041E10198C449088028E10298A949CF
:202C400004F066FD00281AD0FFE7B848007801280AD1FFE701982221C943884204DBFFE74C
:202C60000198242804DBFFE703A90020087023E10198B449088069460020087006E102987C
:202C8000994904F045FD002822D0FFE70198002805D4FFE70198A349884204DBFFE703A9DC
:202CA0000020087008E10198A54908609F48007801280CD1FFE79E49002008809D4908805C
:202CC0009D4909889D4A118069460870FFE7DCE00298864904F01CFD002822D0FFE701982D
:202CE000002805D4FFE701988E49884204DBFFE703A900200870DFE001988B4908608B4843
:202D0000007801280CD1FFE78949002008808949088089490988894A118069460870FFE7A7
:202D2000B2E00298724904F0F3FC002813D0FFE70198AF218900884205DBFFE701987749FD
:202D4000884204DBFFE703A900200870B4E001987349088097E00298664904F0D9FC00287E
:202D600019D0FFE7019864280DDBFFE701984B218900884207DCFFE7019800226649895E1F
:202D8000884204DAFFE703A90020087094E001986049088076E00298574904F0B9FC0028C2
:202DA00017D0FFE7019850280BDBFFE70198FA2807DCFFE7019800225649895E884204DDF9
:202DC000FFE703A90020087076E001985249088057E00298494904F09BFC002812D0FFE7D9
:202DE0000198322806DBFFE70198FF216031884204DBFFE703A9002008705DE00198444999
:202E000008803DE002983E4904F082FC002810D0FFE70198502804DBFFE70198FB2804DB1B
:202E2000FFE703A90020087046E001983749088025E00298334904F06BFC002814D0FFE739
:202E40000198322806DBFFE701988D2806DB01E01EB0000003A9002008702DE001982A497D
:202E600008800BE0B90B000003A90020087023E080392020FAAF00002AB00000FFE7FFE78C
:202E8000FFE7FFE7FFE7FFE7FFE7FFE7FFE7FFE7FFE7FFE7FFE7FFE7FFE7FFE7FFE7FFE7D2
:202EA00068460078002803D0FFE707F053FAFFE703A901200870FFE703A8007804B080BDA2
:202EC00094392020E9030000F2AF0000CAAF0000E2AF000085AF0000B7AF000067AF00009E
:202EE00071AF0000FAAE0000ECAE00007CAE00009AAD0000DCAD0000CAAD00003CAD000016
:202F000012AE000000AE0000A03A2020A23A2020A83A2020A43A2020AA3A20204D04000058
:202F20009E3A2020214E0000083A2020533A2020823A2020783A2020763A2020803A2020E3
:202F4000103A2020683A20208A3A202089130000403A2020943920208039202080B5E4B0DC
:202F60007F2080026290619062980068BD49884246D1FFE762984068032841D1FFE77F20BA
:202F800080024C904C9922A8A82207F0D7FA2498A82810D1FFE74B98089022A805F07EF98E
:202FA00001460898884206D1FFE722A804F0A2FD002804D1FFE763A9002008704DE122A9C6
:202FC00005911031B84807904822069207F0B6FA0599069A07985831483007F0AFFA0699BD
:202FE00007984A9AAF4B1A80259BAD4A137012785143401803F04EFD63A9012008702CE11A
:2030000062980068974988423BD1FFE762984068022836D1FFE77F208002219021990BA8BA
:20302000582207F08BFA0D98582810D1FFE7209804900BA805F002F901460498884206D13B
:20304000FFE70BA801F0CCFA002804D1FFE763A90020087001E10BA803F0BEFC904900205E
:203060000870904908809048039003F055FC039908464830482207F061FA63A90120087005
:20308000EBE0619800684D90619840684E90619880684F906198C0685090619800695190A4
:2030A0006198406952906198806953906198C06954906198006A55906198406A56906198F7
:2030C000806A57906198C06A58906198006B59906198406B5A906198806B5B906198C06B46
:2030E0005C906198006C5D906198406C5E906198806C5F906198C06C60904D9859498842C5
:2031000014D1FFE74E98012810D1FFE7599802904DA805F041FF01460298884206D1FFE7F9
:203120004DA802F0E7F9002804D1FFE763A90020087092E04F984C4A106050985060519861
:203140004A4908605298486053989060549888605598908156988881579845490860589869
:20316000444908805A98401C002817D0FFE74DA8818E0A91C08E09900A983F4988420CDC95
:20318000FFE709983C49884207DCFFE70A983B49086009983A490860FFE7FFE75B98AF21E7
:2031A000890088423ADBFFE75B983649884235DCFFE75C98642831DBFFE75C984B21890033
:2031C00088422BDCFFE75D98502827DBFFE75D985C99884222DCFFE75E9832281EDBFFE71C
:2031E0005E98AF214900884218DCFFE75F98502814DBFFE75F98FA2810DCFFE75B9822498F
:2032000008805C98214908805D98214908805E98204908805F9820490880FFE76098322852
:2032200008DBFFE760988C2804DCFFE760981B490880FFE71A49002008701A4908801A4841
:20324000019003F069FB019908464830482207F075F963A901200870FFE763A8007864B035
:2032600080BDC046314449508039202094392020403A20208A3A2020204E0000103A202041
:20328000083A20204C0400009E3A2020A43A2020AA3A2020A83A2020A23A2020A03A2020AA
:2032A000533A2020683A20209037202080B58AB00890A448008807A90880A3480078012819
:2032C00032D1FFE70021A148405E01282CDBFFE79E48008807A908809D480078002822D02A
:2032E000FFE79C48007800281DD0FFE700219A48405EAF218900884215DBFFE700219648F8
:20330000405E964988420EDCFFE700239449CA5E03205043904AD25E8018801C820F801851
:2033200080080880FFE7FFE78948007800281AD0FFE7002107A8405E322814DBFFE70021B2
:2033400007A8405E8C280EDCFFE700238549CA5E0320504307AAD25E8018801C820F80188F
:2033600080080880FFE780490878401C08707648007801281DD1FFE77C4806F06DF87A4826
:20338000007803F0E5FB7A48059006F065F8002106917348405E03F0DBFB059806F05CF877
:2033A00006997048405E03F0D3FB724806F054F8FFE7714806F050F86B480490007803F0CC
:2033C000C7FB6B48039006F047F800216248405E03F0BEFB039806F03FF808986749096812
:2033E000401A03F0B5FB634806F036F804980078634909788900C9B2884252DBFFE701F0EE
:20340000B1FB724900200870714908704E480078012815D1FFE76F4806F01EF80021029101
:203420004F48405E03F094FB6B4806F015F802994C48405E03F08CFB4E4806F00DF8FFE761
:20344000664806F009F800214648405E03F080FB4848019006F000F8614805F0FDFF4248D9
:20346000007803F075FB019805F0F6FF36480078012804D1FFE75D4805F0EEFF0DE002F0AE
:20348000BFFC002804D0FFE7574805F0E5FF03E0544805F0E1FFFFE7FFE709A901200870AC
:2034A0004BE0384900200090087008983649086006F04AFA3549086006F058FA014600986A
:2034C000334A11603349088033490870334908703349087033480088334908801A4800783D
:2034E000012810D1FFE7314900200880304908803049087006F0C2FF002803D0FFE706F03A
:20350000F7FEFFE7FFE71048007801280ED1FFE729480078002809D0FFE728480068284913
:203520000861284800682849086102E006F012FFFFE709A900200870FFE709A800780AB08E
:2035400080BDC046AC3A2020533A2020643A2020E63A2020EB3A2020AE3A20204C0400001A
:203560009E3A2020A03A2020DE3A2020B6AC000057B0000038B000001BAD00003C3A2020F2
:20358000E13A2020E03A2020383A2020C0392020C43920205C3A2020BD3A2020BE3A202009
:2035A000E73A2020763A2020803A2020823A2020783A2020C43A2020C53A2020D03920200C
:2035C00080392020D439202094392020E43A2020B93A202062A9000047AD0000E0A900007F
:2035E00021AC00002AAA0000AEAA000051A8000080B586B004AB188003A80170029206F081
:203600003DFF00280FD0FFE706F086FF00280AD0FFE703A80078002805D0FFE703A80078F5
:203620000B2804D3FFE705A900200870B7E001F099FA04F0D9FA5C490620087004985B49EF
:20364000088002985A49086003A80178594848435949086006F024FA58490860029858498B
:203660000860584901200870574900200870574908700299564A11600299564A1160039964
:20368000554A1170554908705549087055490870554908705549087055480078012808D185
:2036A000FFE706F0EBFE002803D0FFE706F020FEFFE750490020019008804F4908804F4ADF
:2036C000012111704E4908704E4908704E49087006F03AF94D49086006F048F901460198DC
:2036E0004B4A11604B4908804B49087006F02CF94A49086006F03AF901460198484A11607A
:2037000048490880484AE121490011804749088047490880474908804749088047490880AA
:20372000474908604749086047490870474908704749087047490870474908704749087069
:203740004749087047490880474908804749087047490880474A48491180484908604849D4
:203760000880484805F078FE019904A8405E03F0EFF9454805F070FE03A8007803F0E8F920
:20378000424805F069FE42480078002803D1FFE706F03AFEFFE705A901200870FFE705A871
:2037A000007806B080BDC046D63A20209C3A2020183A202060EA0000143A2020F03920205F
:2037C000F8392020E43A2020B83A2020E03A2020383A20203C3A2020E13A2020DE3A202073
:2037E000BD3A2020BE3A2020E73A2020C43A2020533A2020AE3A2020A63A2020EB3A202041
:20380000EA3A2020E93A2020E83A2020443A2020483A2020AC3A2020E63A2020C039202040
:20382000C43920205C3A2020583A2020763A2020803A2020783A2020823A20207E3A2020D3
:20384000D0392020D4392020C53A2020C63A2020C73A2020C83A2020C93A2020CA3A202049
:20386000C33A2020663A2020643A2020C23A2020623A20205E3A2020FF7F0000CC3920209A
:20388000603A2020ECAA000057B0000038B00000B93A202070B58EB00D9009A9002008704C
:2038A00094480078002801D1FFE721E10D9891498A68801A0C900D980969884200D2ECE0AC
:2038C0000D9914318B48016140784C2804D1FFE705F088FF069003E005F098FF0690FFE7E4
:2038E00006980BA90880834840784C2805D1FFE700218248405E059004E000217E48405EB4
:203900000590FFE705980AA9088000210BA8405E05F0BAFD77492422895E884208DDFFE7B4
:2039200000210BA8405E05F0AFFD72498884FFE77048007801283BD1FFE70C988008AF2879
:2039400012D3FFE700210BA8405E05F09DFD0446E3176849C86A8A6A121958418A62C862A6
:20396000888A401C8882FFE700210BA8405E05F08BFD6349884207DBFFE75E494822885CC7
:20398000022318438854FFE700210BA8405E05F07BFDE121C900884209DBFFE7554A48239D
:2039A000D15C01200143D15409A90870FFE773E0504A049290880B99411A08A80180918A5A
:2039C000491C91820021405E05F05EFD04990446E317486B0A6B121958410A634863086A09
:2039E000C968884216D1FFE700210BA8405E039040480421415E092048430A2104F070FE6D
:203A00000146039809B2884204DBFFE70C9839490862FFE700210AA8405EFF21F031884288
:203A200005DBFFE73349088B401C0883FFE70C983049CA68032151438908884218D3FFE7B1
:203A40002C490291C88A401CC88200230BA8C65EF517CA6B8C6BA4196A418C63CA63C45E8E
:203A60006443486C0A6C121958410A644864FFE700210BA8405E05F007FDE12189008842F1
:203A800009DBFFE71B4A4823D15C01200143D15409A90870FFE7FFE7FFE70C981549C968C6
:203AA000884205D2FFE709A80078002820D0FFE710490091087807AA01921070114850225F
:203AC00006F03CFD0099104A012010700020087001F048F801980078012804D1FFE7094814
:203AE00002F054FE03E0074802F0ECFAFFE7FFE70EB070BDF03820208C3A20206C3A20206D
:203B000092090000A0382020D13A2020B0B588B0664AAF2041001160642050607320800092
:203B2000906020209081624A7D20830013605160FF21B63191601A2191815E4AC100116035
:203B40005D4A322111805D4A5D4911605D49000108605D49E120800008805C49B920088058
:203B60005B498C2008805B4AB42111805A4908805A49622008805A49002004900870594919
:203B800008805948039002F0C7FE039908464830482206F0D3FCFFF7E1F907A9087000F039
:203BA000E1FF0498514908705149087051490860514908605149086051490860514908605B
:203BC000514908805149088051490870514908705149087051490870514908705149086045
:203BE0005149088051490880514908805149088051490880514908705149087051490880D5
:203C000051490860514A01211170514908705149087006A90870FFE706A80078022826D8E5
:203C2000FFE706A80290007804F092F8029A05A90870059B107806210C4644434C48035592
:203C4000059B15780C466C4304196370059B15780C466C430419A370127851434118002051
:203C60008880FFE70698401C06A90870D4E73A4900200860394901200870394805F0ECFBF7
:203C800007A801783748384A00920029019001D100980190019805F0DFFB05F0FFFC00F06C
:203CA00069F8324805F0D8FB08B0B0BD8039202094392020403A20208A3A2020103A2020EE
:203CC0005E1A0000083A20209E3A2020A43A2020AA3A2020A83A2020A23A2020A03A202038
:203CE000533A2020683A202090372020E43A2020B93A2020183A2020E8392020F839202019
:203D0000E4392020D8392020963A20205A3A2020B83A2020C03A2020E33A2020E23A2020EC
:203D2000DF3A2020243A2020763A2020803A2020783A2020823A20207E3A2020D53A20206D
:203D4000D43A20207A3A20200C3A2020E13A2020DE3A2020C43A2020DC392020DC3A2020FF
:203D6000B5A800006EAA000012AA000024AB0000A839202080B584B0554805F06DFB554822
:203D8000007802F0E5FE544805F066FB032002F0DFFE524805F060FB132002F0D9FE504874
:203DA00005F05AFB4F480090006802F0D1FE4E4805F052FB0098406802F0CAFE4B4805F00F
:203DC0004BFB4B480290006802F0C2FE494805F043FB0298406802F0BBFE474805F03CFBF2
:203DE0000098806802F0B4FE444805F035FB0298806802F0ADFE424805F02EFB00980C2162
:203E00000191405E02F0A4FE3E4805F025FB01990298405E02F09CFE3B4805F01DFB3B48D2
:203E2000006802F095FE3A4805F016FB002103913848405E02F08CFE374805F00DFB0399A6
:203E40003648405E02F084FE354805F005FB3548006802F07DFE344805F0FEFA33480068C2
:203E600002F076FE324805F0F7FA03993148405E02F06EFE304805F0EFFA03992F48405E64
:203E800002F066FE2E4805F0E7FA03992D48405E02F05EFE2C4805F0DFFA03992B48405E94
:203EA00002F056FE2A4805F0D7FA03992948405E02F04EFE284805F0CFFA03992748405EC4
:203EC00002F046FE264805F0C7FA04B080BDC04684AA0000533A202010AD0000FAAC000033
:203EE00044AF0000803920201AAF000050AF0000943920205CAF00003EAF000038AF000022
:203F0000BBAE0000D7AE000083AE0000403A202001AF00008A3A2020D3AD0000683A2020B2
:203F2000E5AD0000103A2020EEAD0000083A20209EAC00009E3A20205DAD0000A43A2020BE
:203F4000D9AC0000AA3A20202EAC0000A83A2020EFAC0000A23A202047AD0000A03A2020F7
:203F600038B0000080B58CB00B90DC2003F098FF002801D1FFE7B4E005F034FC0AA90880F3
:203F800005F044FC09A9088057480078002803D1FFE70020079005E00B9854490968401A12
:203FA0000790FFE707980890514805F055FA089802F0CEFD4F48059005F04EFA03F068FB54
:203FC00005F04AFA059805F047FA002106914A480090405E02F0BCFD059805F03DFA06994A
:203FE00046480290405E02F0B3FD059805F034FA06990AA80190405E02F0AAFD059805F0F6
:204000002BFA069909A80390405E02F0A1FD059805F022FA06993A48405E02F099FD0598D8
:2040200005F01AFA06993748405E02F091FD059805F012FA00980199069A805E895E401AAC
:2040400002F086FD059805F007FA02980399069A805E895E401A02F07BFD059805F0FCF972
:2040600005F0FEFC049005F00BFD01460498401A02F06EFD059805F0EFF906992248405E05
:2040800002F066FD059805F0E7F92048007802F05FFD059805F0E0F91D48007802F058FD9C
:2040A000059805F0D9F904F0B7F902F051FD059805F0D2F91748007802F04AFD059805F0B9
:2040C000CBF91548007802F043FD059805F0C4F906991248405E02F03BFD114805F0BCF902
:2040E000FFE70CB080BDC046D63A2020183A20208FAF000057B00000743A2020943A2020B8
:204100006C3A20208C3A2020763A2020D43A2020D53A2020DE3A2020E03A2020AC3A20204E
:2041200038B0000080B588B007905E48007800280AD0FFE707985C49884201D8FFE7AFE031
:20414000584900200870FFE758480078002812D1FFE760490120032200F048FE002803D116
:20416000FFE704F0BDFC9BE050490120087056490020087094E0262004A90C2200F036FE0F
:20418000002810D1FFE74F49002008704C480078032805D8FFE74A490878401C0870FFE739
:2041A00004F09EFC7CE004A8083005F027FC03900399084603F011F900280ED1FFE7039817
:2041C0003B4904F060F9002807D1FFE70398394904F074F9002808D0FFE7394900200870AA
:2041E0003849087004F07CFC5AE0039803F08AF902A908803048006800282FD0FFE7029855
:204200002E490988401A00B204F0E6F9014601A801802B49097832224A43323269460A80D3
:204220000022805E895E884209DCFFE7002201A8805E6946895E494288420EDAFFE7204838
:204240000021017002A8405E02F012FF002803D1FFE704F045FC23E0FFE7FFE702981749A1
:204260000880174900200870164908701649087016490120087010480068002805D1FFE774
:204280000E48008812490880FFE70B480068401C002805D0FFE708490868401C0860FFE712
:2042A00008B080BDED3A202087130000EC3A20200000D0C00000D040203A2020B43A20203A
:2042C000E53A2020DB3A2020BB3A2020D93A2020B63A2020503A202080B594B01390FFE7A6
:2042E00003A8402100F0E4FC002805D0FFE7139903A8FBF7E5FEF3E7139801F08BFC13982B
:2043000002F066FE1398FDF727FD1398FFF7C2FA4548007801280ED1FFE71398434909688C
:20432000401A00097D2806D3FFE700F01BFC404805F092F8FFE73F48007800280ED0FFE7D7
:2043400013983D490968401A142807D3FFE7139839490860139801F0CDFDFFE73248007892
:20436000022814D0FFE73048007803280FD0FFE72D48007804280AD0FFE72B480078052878
:2043800005D0FFE72848007806282AD1FFE713982A490968401A2A490968884221D3FFE7FA
:2043A00024480090007802A90191087000F0DAFB0099244A002010700870234805F04CF84C
:2043C0000198007800280BD0FFE7204805F044F81F48008802F0BCFB1E4805F03DF8FFE73C
:2043E000FFE718480078002818D0FFE713981A490968401A142811D3FFE7139816490860B8
:2044000016480078002804D0FFE7139801F086FB03E01398FFF7A6FDFFE7FFE7139803F036
:20442000EDFA14B080BDC046D63A2020E83920207CA90000B83A2020E4392020183A202097
:20444000143A2020E43A2020C2AC0000CEAC0000963A202038B00000F8392020B93A2020EC
:2044600080B586B0059003F057FE01463B4801800021415E03204843052104F031F94B218B
:204480008900E122920004F01FFA04A9088034480078002804D1FFE70498324908800DE059
:2044A00000233049CA5E0320504304AAD25E8018801C820F801880080880FFE72A490120BD
:2044C000087005982949086005982949086029490020039008702849087028490870284996
:2044E000087028490870284908702849087028490870284908702849087028490880284964
:2045000008802849087028490880284A28491180284908602849088028480078012816D1F3
:20452000FFE72748006927490191274A029204F0FFFE0199029A254B18602548006904F0DD
:20454000F7FE24490860244901200870FFE723490020088005F0FEFE06B080BD5C3A2020D7
:20456000DE3A2020583A2020E03A2020383A20203C3A2020BD3A2020BE3A2020E73A20207F
:20458000C43A2020C63A2020C73A2020C83A2020C93A2020CA3A2020C33A2020663A202076
:2045A000643A2020C23A2020623A20205E3A2020FF7F0000CC392020603A2020533A2020C3
:2045C00080392020702FFCFF90D00300D039202094392020D4392020C53A2020AE3A2020DB
:2045E00080B59AB018901898C06806901898006907901898406908901898806909901898A3
:20460000C0690A901898006A0B901898406A0C901898806A0D901898C06A0E901898006B62
:204620000F9004A800F066FF002804D1FFE719A90020087085E01898416B00200029039000
:2046400079D4FFE71898416B0020404A9142039071DCFFE71898816B0020002903906AD4D2
:20466000FFE71898816B0020384A9142039062DCFFE71898C16B0020AF22920091420390C7
:2046800059DBFFE71898C16B0020314A9142039051DCFFE71898016C0020642903904ADB8E
:2046A000FFE71898016C00204B2292009142039041DCFFE71898416C0020502903903ADBD1
:2046C000FFE71898416C026C00209142039032DCFFE71898816C0020322903902BDBFFE718
:2046E0001898816C0020AF2252009142039022DCFFE71898C16C0020502903901BDBFFE7AB
:204700001898C16C0020FA29039014DCFFE71898016D0020322903900DDBFFE71898016DF8
:204720000020019001208D29029001DB0198029002980390FFE703980121084019A9087006
:20474000FFE719A800781AB080BDC046204E00004C04000070B588B00C4605460D980C992B
:2047600007AE357006AD2C800592049303AA117002A9087000F0F6F937490020087037498A
:20478000087003F031FA05F079FE002803D0FFE705F0AEFDFFE70798314908700698314907
:2047A000088004983049086005983049086005F077F92F49086004982E49086004982E49A3
:2047C000086003982D49087002982D4908702D490020019008802C4908802C4908802C4942
:2047E00008802C4908802C4908702C4908702C4908802C49086002A80078002808D0FFE778
:204800002949002008802949088029490870FFE7284804F021FE02F03BFF04F01DFE264888
:20482000009004F019FE002106A8405E02F090F9009804F011FE059802F08AF91F4804F0ED
:204840000BFE03A80078002803D0FFE705F0DCFDFFE708B070BDC046E33A2020E23A2020F3
:20486000D63A20209C3A2020183A2020143A2020F0392020F8392020E4392020E43A20201D
:20488000B83A2020763A2020803A2020783A2020823A20207E3A2020D53A2020D43A202079
:2048A0007A3A20200C3A2020963A20205A3A2020C03A202086AC000057B0000038B000003F
:2048C00080B584B0024603A8027002910078002828D1FFE744480078002822D1FFE7434868
:2048E000007800281DD1FFE741480078002818D1FFE745480078022813D3FFE74249019134
:204900000878401E08703D49002008703F4804F0A3FD0198007802F01BF93D4804F09CFDDF
:20492000FFE75EE003A80078012828D1FFE72E480078002822D1FFE72C48007800281DD137
:20494000FFE72B480078002818D1FFE72E480078092813D8FFE72C4900910878401C087045
:20496000264900200870294804F076FD0098007802F0EEF8264804F06FFDFFE731E01A4849
:20498000007800280AD1FFE718480078002805D1FFE717480078002803D0FFE703F00EFD44
:2049A0001FE01448007800280DD0FFE71149002008700E490120087002980F4908601148A4
:2049C00004F04AFD0CE00A490120087002980A4908600A4900200870094804F03DFDFFE71F
:2049E000FFE704B080BDC046D63A2020E23A2020DF3A2020E33A2020243A2020DE3A202082
:204A000029A80000D3A80000DC3A2020CBAB000038B0000080B58EB021200421039105F034
:204A2000FFF80120029001034A480A9005F022FA2220052105F0F4F802990A98490305F0C4
:204A400019FA02980399002207920192C30409930093430408930F20049003F095FE039902
:204A6000079A089B0998019200900E20059003F08BFE049805F0B8F8059805F0B5F81F2030
:204A80000221069105F0CCF80699202004F0C8FF352005F013FA362005F010FA192005F02F
:204AA0000DFA182005F00AFA312005F007FA0799089A099B0091322003F02EFF0799089A4C
:204AC000099B0091122003F027FF0799089A099B0091162003F020FF0799089A099B009120
:204AE000232003F019FF0799089A099B0091242003F012FF0799089A099B00911C2003F003
:204B00000BFF0799089A099B00911D2003F004FF102005F0D3F9112005F0D0F90A9803213B
:204B20000C9109060B9105F04CFB0A980B9905F0A1F90C98010208480D9005F042FB0D98B1
:204B4000064905F0DFF90D98054905F093F90EB080BDC04600000A4000200A4030004000A0
:204B60003003400080B52A49002008802949088029490880294908802949087029490860C0
:204B80002949088029490860294908702949086029490860294908702949087029490870E5
:204BA000294908802949088029490870294908702949087029490870294908802949087075
:204BC000294908802949086029490860294908702949087029490870294908702949087095
:204BE000294908702949087029490880294908802949087029490880294A2A4911802A491F
:204C000008602A49088005F0A5FB04F0BBFA80BD6C3A20208C3A2020743A2020943A2020CE
:204C2000D63A2020143A20207A3A20200C3A2020E03A2020383A20203C3A2020BD3A202023
:204C4000BE3A2020E73A2020AE3A2020A63A2020EB3A2020EA3A2020E93A2020E83A2020E5
:204C6000AC3A2020E63A20205C3A2020D0392020D4392020C53A2020C63A2020C73A202082
:204C8000C83A2020C93A2020CA3A2020C33A2020663A2020643A2020C23A2020623A202038
:204CA0005E3A2020FF7F0000CC392020603A202080B588B0069005A801800698002805D0B3
:204CC000FFE705A80088012804D8FFE707A9002008707BE0FFE73F4800883F490988884253
:204CE00070D0FFE73B48009002883C49895C04AA019211700088802104F034FB009A014698
:204D00000198118000780D2805D0FFE704A800780A2840D1FFE732480078002801D0FFE7E3
:204D2000D9E72F49012008702E480088002831D0FFE72C48018802A80180008805A90988A6
:204D4000884205DBFFE70598401E02A90880FFE703A900200880FFE703A8008802A9098806
:204D600088420CDAFFE703A802881F48805C06998854FFE70398401C03A90880ECE7069927
:204D800002A80288002088541649088007A9012008701BE015E012490020087011480088EF
:204DA0003E2809D8FFE704980E490B880E4AD0540888401C088003E00A4900200880FFE78C
:204DC000FFE788E707A900200870FFE707A8007808B080BD9A3A2020983A20202038202076
:204DE000D23A20207C3A20204039202080B58EB00CAB18700B910AA802700B9800280AD0A1
:204E0000FFE70AA80078002805D0FFE703F01CFE002804D1FFE70DA90020087079E004F014
:204E20004FFE3E4805900CA90122069203F096FA05983B4905F072F80598069B00220292A3
:204E40000192022107910091232102F0A1FC079802F014FB002804D1FFE70DA900200870CF
:204E600057E00AA80378002004900290042001900220009029482321012202F089FC049836
:204E800009A90870FFE709A800780AA90978884230DAFFE723480890FFE7204804F0DCFECC
:204EA00000281AD0FFE71D4805F0A0F98007002806D5FFE704F004FE0DA90020087028E04B
:204EC0000898411E0891002806D1FFE704F0F8FD0DA9002008701CE0DFE7104805F09AF97C
:204EE0000B9909AA12788854FFE70998401C09A90870C8E7012002F0C1FA002804D1FFE788
:204F00000DA90020087004E003F09EFD0DA90870FFE70DA800780EB080BDC04600200F4020
:204F2000830400008813000080B596B049480F9005F000F80F9805F095F90F9804F08CF86E
:204F40000F9804F059FA0023149300930120420410920E20194604F037FA109A149B00935F
:204F60000F20194604F030FA3B4812900421119105F01DF912980821139105F018F9119967
:204F8000129805F028F91298139905F024F90520800105F0CDFA149815A90870FFE715A802
:204FA0000078082817D8FFE72B480C9004210D9104F054FFA0200E9005F0BAFA0C980D990A
:204FC00005F009F90E9805F0B3FAFFE71598401C15A90870E3E7204803900821049104F0F6
:204FE0003DFFA02005F0A4FA0398049905F0F3F80520800105F09CFA00220792019201206A
:20500000C10405910091430408930F2009900421069103F091FB05980699079A089B0192AC
:2050200000900E200A9003F087FB099804F0CEFD0A9804F0CBFD07480B9004F0CFFF0B9896
:2050400004F0A8FF102005F073FA03F099FA16B080BDC04600200F4000200A4010B58EB0B8
:205060000C900BA801800AA90A800021405E002806DCFFE70C99002008610DA9088079E0AF
:20508000002201920BA80390805E0AA9895E401A09900C980069099A0A215143401808904B
:2050A00008983749374A04F043F908900C980168099848437D21C900029103F011FB0790BE
:2050C0000C984168089848432F4903F009FB019B02990246039806920C9A0C24145F049456
:2050E0009268C05E504303F0FBFA014604984018079940180699401805900598FF21F6317A
:20510000884204DBFFE7099800280CDCFFE70598002804D5FFE70998002804D4FFE70898BE
:205120000C9908611DE00C98416800694843164903F0D6FA06900C980C21415E0091816881
:2051400000220BA8805E48437D21C90003F0C8FA014600984018079940180699401805903A
:20516000FFE705987D218A00002103F0ADFB0DA90880FFE700210DA8405E0EB010BDC0469F
:20518000E05EF8FF20A1070040420F00B0B58EB005F0CCF805903B4800680D903A4800681E
:2051A0000C90059805F0B8F80D98384A1168401A0B900C9836490B68C01A0A900D9810605D
:2051C0000C9808600B98C117324A02920023049304F002FC049B07910690069807992E4A09
:2051E000039205F0C1F8029A049B09900A98C11704F0F2FB039A049B079106900698079995
:2052000005F0B2F8089009982449884203DBFFE723480990FFE708982049884203DBFFE73A
:205220001F480890FFE700201E4B0093195E099D032214466C430919CC17A40F09198908B7
:20524000198019490191085E089B5A438018C217920F80188008088005F068F8009902462B
:20526000019805920988114A118000881049088010490868401C0860059805F04DF80EB0F6
:20528000B0BDC046003A20202C3A2020043A2020303A2020A0D9080010270000C5090000CD
:2052A000C4090000703A2020903A2020723A2020923A2020343A202080B58AB0024608A820
:2052C000027007910021069105AA117004AA117003AA117002AA1170079A11700078002890
:2052E00005D0FFE705F018F9002804D1FFE709A9002008806BE001A900200870FFE701A894
:20530000007807283BD8FFE708A8007801A9097804F04AFD00282CD0FFE701A801784A00E9
:205320002D498A5E0699891806910599491C05AA11700078022804D8FFE704A9012008705B
:20534000FFE701A80078052804D3FFE703A901200870FFE701A80078032805D0FFE701A881
:205360000078042804D1FFE702A901200870FFE7FFE7FFE70198401C01A90870BFE705A86E
:205380000078002814D0FFE705A8007804280FD8FFE702A8007800280ED1FFE704A8007852
:2053A000002809D0FFE703A80078002804D0FFE709A9002008800AE00799012008700698E6
:2053C00005A9097803F08CF909A90880FFE7002109A8405E0AB080BD7CAB000080B588B00B
:2053E0000790354804F038F8079801F0B1FB3348049004F031F802F04BF904F02DF8049822
:2054000004F02AF8002103912D48405E01F0A0FB049804F021F803992A48405E01F098FB49
:20542000049804F019F804F0DDF901F091FB049804F012F804F0EAF901F08AFB049804F00D
:205440000BF803992048405E01F082FB049804F003F803991D48405E01F07AFB049803F01A
:20546000FBFF1B4801781B481B4A05920029069001D105980690069803F0EEFF174803F063
:20548000EBFF1748007801F063FB164803F0E4FF04F038FF01461448144A0192002902904E
:2054A00001D101980290029803F0D6FF104803F0D3FF08B080BDC04634AE000057B000008C
:2054C000743A2020943A20206C3A20208C3A2020E33A202014AF00008AAF00008CAB000054
:2054E000DC3A2020C9AE000099AF0000D2AF000038B0000082B00090009880684049884299
:2055000040DCFFE70098C0683D4988423ADCFFE7009800693A49884234DCFFE700984069F8
:20552000374988422EDCFFE7009880697D21C900884227DCFFE70098C0697D21C9008842A4
:2055400020DCFFE70098006AE1214900884219DCFFE70098406AE1214900884212DCFFE74C
:205560000098806A274988420CDCFFE70098C06A4F21C943884205DBFFE70098C06A512898
:2055800004DBFFE701A90020087034E000988068002828D4FFE70098C068002823D4FFE7A1
:2055A0000098006900281ED4FFE700984069002819D4FFE700988069002814D4FFE700989F
:2055C000C06900280FD4FFE70098006A00280AD4FFE70098406A002805D4FFE70098806A18
:2055E000002804D5FFE701A90020087003E001A901200870FFE701A8007802B07047C046E6
:20560000B80B00008813000080B594B0014613A80C900170007800210F9104F0C5FB014670
:205620000C98019100780121079104F0BDFB019902460C988918029100780221099104F073
:20564000B3FB029902460C9889180391007803210B9104F0A9FB039902460C988918049152
:205660000078042104F0A0FB049902460C98891805910078052104F097FB059902460C9890
:20568000891806910078062104F08EFB069A0F9903460C98D21812AB0E931A70007804F043
:2056A00083FB079902460C980892007804F07CFB089A099903460C98D2180A92007804F040
:2056C00073FB0A9A0B9903460C98D2180D92007804F06AFB0D9A0E9903460F98D21811ABE9
:2056E0001A7009780529109010D3FFE711A8017800200329109009D3FFE713A800780621CE
:2057000004F052FB414248411090FFE710980121084014B080BD7047F0B5394A8218394BA6
:20572000C0183A4D4C790B79002C22D0466F202B02D00524E70100E0354F2E40002B00D1F2
:2057400088273E434667846F2C403C438467446B2D4E34404463846B344084630024446547
:20576000846554688F26F643344054609468344094600C688979202B09D006467036002B53
:2057800015D1641E4460C46E2C40882715E0641E4460C46E2C401E4E3443C466046F2C400B
:2057A000344304671B4D01246707064607E00527FF0164084460C46E2C403C43C4663468BA
:2057C0002C403C433460C46A0F4D2C40C462046B2C4004630024C4640465C46F8F25ED4320
:2057E0002C40C46714682C401460194302680A4B1340BD220A40D118891C0160F0BDC0467D
:2058000084180000041800008888FDFF24493E0001040000FFFFFFCF4000FFCF80B588B0CD
:205820000020079006900590049003A9087004F015F803F071FB02F03DFC03F031FA03F032
:20584000B7F802F0F7FA02F06FFEFEF75FF904F0EBFD1520019003F09DFE019803F0F2FE5E
:205860002C4804F01BFC62B6FFE702F0EFFB04F059FE0699401A052806D3FFE704F052FE5B
:20588000069004F085F8FFE703A80078002816D1FFE704F047FE2049884210D3FFE7FFF7D8
:2058A00043FB03F085F802F0C5FA04F03BFE059003A901200870194803F0CEFDFFE704F089
:2058C00031FE0499401A0A2806D3FFE704F02AFE049003F0A9FDFFE703A80078002811D056
:2058E000FFE704F01FFE0599401A0A280AD3FFE704F018FE059002A800F008FA0598FEF7F7
:2059000011FCFFE704F00EFEFEF7E6FC04F084FDABE7C046000087407017000042AA000076
:2059200080B588B006AB187005A801700492394803900498002804D1FFE707A90020087032
:2059400064E003F0A7F8002807D1FFE733490620087007A90020087058E004F0C1F82E48CE
:20596000029005A90122019202F0F8FC019B029806A90978002202F02FFF02F0C7FA0028C8
:2059800005D0FFE703F086F8002804D1FFE707A9002008703AE006A801781F4801231A4684
:2059A00002F01AFFFFE71C4804F064F900281BD0FFE7194804F024FC8007002806D5FFE763
:2059C00004F08EF807A9002008701FE00398002806D1FFE704F084F807A90020087015E0D9
:2059E0000398401E0390DEE70B4804F01DFC0499087002F08BFA002804D1FFE707A90020B7
:205A0000087003E007A901200870FFE707A8007808B080BD8813000000200F40BF3A20209D
:205A2000B0B53A4A80184A6842600A78222A56D8930001A4E3589F46D55A0000DF5A0000D5
:205A4000D55A0000DF5A0000DF5A0000DF5A0000DF5A0000DF5A0000DF5A0000DF5A000088
:205A6000DF5A0000DF5A0000DF5A0000DF5A0000DF5A0000DF5A0000C55A0000DF5A000078
:205A8000C55A0000DF5A0000DF5A0000DF5A0000DF5A0000DF5A0000DF5A0000DF5A000058
:205AA000DF5A0000DF5A0000DF5A0000DF5A0000DF5A0000DF5A0000C55A0000DF5A000038
:205AC000C55A0000036803242407A343012464071B1903E0036803242407A34303600B69E3
:205AE000C360CB68C46A0A4D25400A4C1C402B19C3620368084C1C400460097A114302688B
:205B00003F239A43194051180160B0BD041800008888FDFF777702007F00FFFF80B584B0B8
:205B20000390304803F098FC03982F490968401A01F00EF82D48019003F08EFC00210291C7
:205B40002B48405E01F004F8019803F085FC02992848405E00F0FCFF019803F07DFC03F0AE
:205B600041FE00F0F5FF019803F076FC03F04EFE00F0EEFF019803F06FFC02991E48405E52
:205B800000F0E6FF019803F067FC1C48007800F0DFFF019803F060FC1948007800F0D8FF0F
:205BA000019803F059FC02F037FC00F0D1FF019803F052FC1348007800F0CAFF019803F02D
:205BC0004BFC1148007800F0C3FF019803F044FC02990E48405E00F0BBFF0D4803F03CFC76
:205BE00004B080BD0AB00000183A202057B00000743A2020943A2020763A2020D43A202027
:205C0000D53A2020DE3A2020E03A2020AC3A202038B0000080B588B00790079837490968E1
:205C2000884201D1FFE766E0079834490A68801A05900798086005981A2803D3FFE7192004
:205C40000590FFE706A900200870FFE706A80078022850D8FFE706A8017806224A432849F1
:205C600089180491007802F073F8014603A80170007804990978884214D1FFE704988088E7
:205C800005994018029002981E49884203D3FFE71D48019002E002980190FFE701980499D6
:205CA000888006E0039804990870049900208880FFE704988088192804D3FFE703980499C1
:205CC0004870FFE70498807800280BD1FFE704984078002806D0FFE706A800780799FEF7B5
:205CE000EFFDFFE7049948788870FFE70698401C06A90870AAE708B080BDC046DC39202095
:205D0000A839202061EA000060EA000080B582B001906946002008700198002801D1FFE715
:205D200063E0334800785D281BD1FFE731480078002816D0FFE7684604F002FB00280CD04E
:205D4000FFE76846007803F083F82B4800780199087001990120487047E02649002008702B
:205D6000FFE703F08FFD014621480170007800280CD1FFE7042001F009FC1F4800780199A7
:205D800008701E480078019948702EE0184800785D280CD0FFE7072001F0F8FB164800784D
:205DA0000199087015480078019948701DE0684604F0C6FA00280CD0FFE76846007803F048
:205DC00047F80D480078019908700199012048700BE0052001F0DAFB074800780199087083
:205DE0000648007801994870FFE702B080BDC046C13A2020CB3A2020D83A2020D33A202091
:205E000080B5B6B036480290007848210491414334480390401800F07FFD02980399049A36
:205E2000314B0A9303230B93A8230C9300780D900AA80590103004F081FB0399049A059838
:205E40005830483104F07AFB059800222749895E329102F023FA3390EFF310803590359829
:205E6000089072B62248069003F0E0F906987F21890207910122520200F070FA0698079926
:205E8000402203F0DFFF014609A80170007803280DD1FFE70120400200907F20810214488E
:205EA0000AAA2A2301F0B4FB09A90870FFE70898002802D1FFE762B6FFE709A8007803285E
:205EC00004D0FFE734A90020087004E0FDF746F834A90870FFE734A8007836B080BDC046C5
:205EE000533A20209037202031444950683A202000D00C4080B586B005902F4800780028AB
:205F000006D0FFE72D480088C0084B2801D3FFE750E02A4801900088162141432848401895
:205F2000049003F05FFC03A9088003F06FFC02A90880059823490968401A0021224A03F066
:205F4000F7F90499088021490888049A508020480288049B9A80039A049BDA80029A049B48
:205F60001A811C4A1288049B5A811B4A1288049B9A810988039A891A049AD181008802996F
:205F8000401A0499088203F06BFD009003F078FD01460098401A1149114A02F095FC04991F
:205FA000488202F039FA0199049A90820888401C0880FFE706B080BDB83A2020963A202019
:205FC00000002020183A2020FFFF0000743A2020943A20206C3A20208C3A20200080FFFF8B
:205FE000FF7F000080B582B00190304803F034FA0198008800F0ACFD2D4803F02DFA0198B0
:206000000221405E00F0A4FD2A48009003F024FA01980421405E00F09BFD009803F01CFA96
:2060200001980621405E00F093FD009803F014FA01980821405E00F08BFD009803F00CFA80
:2060400001980A21405E00F083FD009803F004FA01980C21405E00F07BFD009803F0FCF999
:2060600001980E21405E00F073FD009803F0F4F901981021405E00F06BFD009803F0ECF9B2
:2060800001981221405E00F063FD0B4803F0E4F901981421405E00F05BFD084803F0DCF957
:2060A000074803F0D9F902B080BDC0468FAF000032AF000057B0000044AE00009FAE000072
:2060C00038B0000080B584B00390A02001F0E8FE002801D1FFE759E02D4803F0BDF9039873
:2060E000C06900F035FD2B48009003F0B5F9039841782948294A01924C29029001D0019875
:206100000290029803F0A8F90398808A00F020FD009803F0A1F90398006B00F019FD009844
:2061200003F09AF903982421405E00F011FD009803F092F90398C08A00F00AFD009803F0E0
:206140008BF90398806B00F003FD009803F084F90398006C00F0FCFC009803F07DF90398B2
:20616000006A00F0F5FC009803F076F90398008B00F0EEFC009803F06FF903984821405C47
:2061800000F0E6FC064803F067F9FFE704B080BD26B0000057B000004AB000003BB00000F3
:2061A00038B0000080B586B005AB187004A80180039228480078012803D0FFE7FEF7D2FC05
:2061C000FFE725490020087024490870214A01211170234908802349088005A800784C285F
:2061E00004D1FFE704981E49088010E005A80078522804D1FFE704981A49088006E0049806
:2062000017490880049817490880FFE7FFE703981549086003981549086000221048805E2C
:206220001049895E00F0E4FD114803F015F904F069F801460F48104A01920029029001D186
:2062400001980290029803F007F90C4803F004F906B080BDD63A2020E33A2020E23A202046
:206260006C3A20208C3A2020183A2020E83920203BAC000099AF0000D2AF000038B00000A7
:2062800089B007900691002005900121049103A90870079800782D2807D1FFE70020C043BA
:2062A00004900798401C079009E0079800782B2804D1FFE70798401C0790FFE7FFE7FFE766
:2062C000079801780020302902900DDBFFE7079801780020009001203A29019001DB00987C
:2062E000019001980290FFE70298C007002818D0FFE703A90120087005981749884204DBBA
:20630000FFE708A90020087022E005980A214143079800784018303805900798401C079002
:20632000CEE703A80078002805D0FFE707980078002804D0FFE708A90020087008E00599DA
:20634000049848430699086008A901200870FFE708A8007809B0704701C2EB0BF0B583B0B6
:2063600002920190304B314D00918C0A28680727384005262E60196889048A0F2860296829
:2063800039402E6018682960002A214608D028490840511C02F020FE0146204602F01CFE95
:2063A0000198204A801801902A683A402E601E4803682A602A683A402E6003682A6001220A
:2063C00093020298984207D0530298420CD10098C30B0BD1019803E01F210C40019840307E
:2063E000A24001689143016003B0F0BDFF290DD82B683B402E600C4C24682B60A3049B0F54
:20640000019800D12039CC08001DE9E71302FF339942E9D2FF23DB43C918CC080198083055
:20642000DEE7C046D01100001800C44100134040FF0F000080B58CB00AA90591088000218F
:2064400003912F48405E50210291DC2202F03CFA0299039A09AB18802A48805E8C2202F0F5
:2064600033FA039A08A908804B21880007AB049318802548805EFA38C9001922520102F07E
:2064800023FA03990246059806AB1A80405E02F0FBFF039A0499034605980380805E895E21
:2064A000884204DCFFE709980BA9088023E000220AA8805E06A9895E884204DBFFE70898F5
:2064C0000BA9088017E0002308A8C15E019109A8C05E421A06A8C15E0AA8C05E081A504388
:2064E00007AAD25E891A02F0FBF80146019840180BA90880FFE700210BA8405E0CB080BD6E
:20650000A43A2020AA3A20209E3A2020FCB40127FF07794002E0FCB40127FF070C024D006F
:206520002D0E03D1002C52D1FCBC70473C43FF2D50D0A408002900D56442020243001B0E03
:2065400004D1002A43D10800FCBC70473A43FF2B41D09208002800D552425E1B04D5170065
:2065600022003C0076422B00192E06D527003741D2191C27F71B7F42BC40002A27D002D524
:206580005242012700E00027013B5200FCD51500802635400FD01500202635402C438032D9
:2065A00008D21500402635402C4304D101263602B24300E05B1C5200023308DDFF2B0BD2AF
:2065C000500ADB051843FF073843FCBC70470020FCBC70470800C70FFF07FF20C005384364
:2065E000FCBC704780B586B003F072FF002804D1FFE7304802F030FF49E003F051FF05A9C7
:206600000091088003F058FF04A90191088003F04DFF03A9029108801E4802F01DFF00983E
:20662000008800F095FA1C4802F016FF0098008802F058FF00F08CFA184802F00DFF019812
:20664000008800F085FA164802F006FF0198008802F048FF00F07CFA124802F0FDFE02984D
:20666000008800F075FA104802F0F6FE0298008802F038FF00F06CFA0C4802F0EDFE03F030
:2066800021FF00F065FA0A4802F0E6FEFFE706B080BDC046E9AB00003CAE000009AE00004F
:2066A000E4AC00001BAE000031AD0000A4AD0000F9A9000012AB000080B588B00790069158
:2066C00005A8027004A900200870FFE7079801780020002903900FD0FFE704A8017805A8E5
:2066E00002780020019001209142029001DB0198029002980390FFE70398C007002841D034
:20670000FFE7FFE70798007802F0B2FF002804D0FFE70798401C0790F4E707980078002865
:2067200001D1FFE72EE00798069A04A90B789B00D0500498401C0870FFE7079801780020DB
:206740000029009008D0FFE70798007802F090FF414248410090FFE70098C007002804D04D
:20676000FFE70798401C0790E7E707980078002807D0FFE70799002008700798401C07900D
:20678000FFE7A3E704A8007808B080BD80B586B0059000200490642001F082FB002801D1D0
:2067A000FFE74BE00598808A002809D0FFE7059A906AD16A928A002303F0D6FD0490FFE7E7
:2067C0001F4802F049FE0598C06900F0C1F91D48019002F041FE059841781B481B4A0292D0
:2067E0004C29039001D002980390039802F034FE05980221405E00F0ABF9019802F02CFE2D
:20680000049800F0A5F9019802F026FE0598808A00F09EF9019802F01FFE05982421405E49
:2068200000F096F9019802F017FE05984821405C00F08EF9064802F00FFEFFE706B080BDFA
:20684000EEAF000057B000004AB000003BB0000038B0000080B584B0284802F0FDFD03F00F
:2068600019FE002804D0FFE7274802F0F5FD0EE003F004FE01462248224A0292002903907C
:2068800001D102980390039802F0E6FDFFE703F0EFFD00F05DF91D48019002F0DDFD03F0C9
:2068A000E1FD00F055F9019802F0D6FD03F0D4FD00F04EF9164802F0CFFD03F0E5FD00F082
:2068C00047F9019802F0C8FD002002F0C9FC00F03FF9019802F0C0FD012002F0C1FC00F021
:2068E00037F9019802F0B8FD022002F0B9FC00F02FF9084802F0B0FD04B080BD80AF000038
:206900000EB0000091AE00006CAE000057B0000056AF000038B0000081B00090224A1068C7
:206920000099086050680099486020480168009B99604168009BD9609168009B1961816884
