:2000000000802020BDA60000B1A60000B1A60000000000000000000000000000000000000F
:20002000000000000000000000000000B1A600000000000000000000B1A60000B1A60000BB
:20004000B1A6000031860000B1A60000B1A60000B1A6000009730000B1A60000B1A6000063
:2000600000000000B1A60000B1A600000000000000000000B1A600003D830000B1A6000064
:20008000B1A60000B1A60000B1A60000B1A60000B1A60000159B00000000000000000000FD
:2000A000B1A60000B1A600000000000000000000B1A6000000000000B1A60000B1A600008D
:2000C00010B59CB01B901A911B9809F0C2FB1B9815A9052206F0A0FB014614A8017000783B
:2000E000002802D1FFE700F00AFF14A8007801280CD1FFE71598FC4907F0BAFB002805D06B
:20010000FFE7FA4809F058FA00F0F9FE14A8007802281CD1FFE71598FC4907F0A9FB00289F
:2001200015D0FFE7169813A906F05AF900280ED0FFE7139800280AD4FFE71398F44988420C
:2001400005DCFFE7139807F02BF900F0D7FE14A8007801280BD1FFE71598EE4907F088FBD0
:20016000002804D0FFE709F049FB00F0C6FE14A80078012821D1FFE71598E74907F078FB30
:2001800000281AD0FFE7E54900200D90087004F00BFD0D98E2490870E2490870E24908707A
:2001A000E2490870E2490870E2490870E2490870E24809F001FA00F09FFE14A800780128AB
:2001C0000CD1FFE71598DE4907F052FB002805D0FFE71A9805F0B2F900F08DFE14A8007860
:2001E00001280BD1FFE71598D64907F041FB002804D0FFE706F04CFF00F07CFE14A8007854
:2002000001280BD1FFE71598CF4907F031FB002804D0FFE706F0CEFB00F06BFE14A80078DD
:2002200001280BD1FFE71598C84907F021FB002804D0FFE706F086FA00F05AFE14A800782E
:20024000022815D1FFE71598C04907F011FB00280ED0FFE71698BE4907F00AFB002807D053
:20026000FFE708F029FFBB4809F0A6F900F03FFE14A8007802281CD1FFE71598B64907F0DC
:20028000F7FA002815D0FFE7B4480078002810D1FFE71698B24907F0EBFA002809D0FFE7AB
:2002A00009F020F8002008F0D9F803F085FD00F01DFE14A8007802281CD1FFE71598A649F7
:2002C00007F0D6FA002815D0FFE7A4480078002810D1FFE71698A34907F0CAFA002809D0BB
:2002E000FFE708F0FFFF012008F0B8F803F064FD00F0FBFD14A8007801280BD1FFE7159851
:20030000994907F0B5FA002804D0FFE703F054FD00F0EAFD14A80078022842D1FFE7159854
:20032000924907F0A5FA00283BD0FFE7169813A906F056F8002834D0FFE71398002830D49C
:20034000FFE71398724988422BDCFFE783480078002826D1FFE7139810908548007800289A
:200360000CD0FFE7834800681099884206D1FFE710988149097808F02FFB10E008F0B2FFAA
:2003800005F0EEFD7C49087010987A4A1060784A012010701098097808F01EFBFFE700F0F1
:2003A000A2FD14A8007801281DD1FFE715986F4907F05EFA002816D0FFE768480078002875
:2003C00011D1FFE708F08EFF05F0CAFD002804D0FFE76A4809F0F0F803E0694809F0ECF82E
:2003E000FFE700F07FFD14A8007801281DD1FFE71598644907F03CFA002816D0FFE7574860
:200400000078002811D1FFE702F0CAFD002806D0FFE75D4809F0D0F803F0CEFC03E05B482E
:2004200009F0CAF8FFE700F05CFD14A80078012811D1FFE71598564907F01AFA00280AD054
:20044000FFE746480078002805D1FFE71A9808F01DFC00F045FD14A8007802281ED1FFE7A4
:2004600015984C4907F004FA002817D0FFE71698494907F0FDF9002810D0FFE728490120A3
:2004800008702849002008701A9844490860444809F092F80AF068F800F021FD14A8007889
:2004A00002281CD1FFE715983A4907F0E1F9002815D0FFE716983B4907F0DAF900280ED049
:2004C000FFE71749002008701649012008701A9832490860344809F06FF800F0FFFC14A82E
:2004E000007802286ED103E003B10000EAAF00001598284907F0BCF9002863D0FFE7169832
:200500002A4907F0B5F900285CD051E0AAB00000FFFFFF7FCCB00000FEB00000F0382020D6
:20052000E43A2020B93A2020B83A2020C03A2020E33A2020E23A2020DF3A2020F0AE00000E
:2005400022B0000053B0000082B1000068B0000080B00000A8AC0000D4AF0000D63A202024
:200560008CB00000F8AF00006EB00000D6B00000CE3A2020EC392020CD3A2020E6AE00006C
:20058000B2AE00000DB100000EAF000065AE00001CB100003EB00000A7B10000F8392020E9
:2005A0003AAD0000C2B00000CAAC000036B10000FE4900200870FE490870FE4808F0FCFFAE
:2005C00000F08BFC14A8007802285CD1FFE71598F94907F04DF9002855D0FFE7169813A96A
:2005E00005F0FEFE002809D0FFE71398002805D4FFE71398F149884204DDFFE7F04808F0EB
:20060000DBFF3EE0EF480078002810D0FFE71398EC49C96988420AD1FFE7EB4808F0CCFFB2
:20062000139806F045FBE94808F0C6FF28E0E8480078002806D0FFE71398E649C969884281
:2006400005D0FFE71398E44908F06AFC17E0E1480078012804D1FFE7DE4806F047F90DE0E4
:20066000DC480078022804D1FFE7DA4805F0DAFD03E0DA4808F0A0FFFFE7FFE7FFE7FFE7D7
:20068000FFE700F029FC14A80078042800D085E01598D34907F0ECF800287FD0FFE716981B
:2006A00013A905F09DFE002878D0FFE7179812A905F096FE002871D0FFE7189811A905F0F7
:2006C0008FFE00286AD0FFE713988121C943884264DBFFE71398822860DCFFE71298322882
:2006E0005CDBFFE7129819210901884256DCFFE71198002852D4FFE71198B04988424DDC9B
:20070000FFE711980F90B748007800280BD0FFE7B54800680F99884205D1FFE70F98B34915
:2007200008F0B6FB39E0B248007805280AD0FFE7AF48007806282AD1FFE7AE480078002884
:2007400025D1FFE7AC480078002808D0FFE70021AA48405E08F048FF052805DBFFE70F98E1
:20076000A74908F095FBCAE31398A64908801A9812994018A44908600F989B490860994953
:20078000012008700F98994908F082FB04E00F989B4908F07DFBFFE7FFE79CE314A8007864
:2007A000032851D1FFE715988D4907F061F800284AD0FFE7169813A905F012FE002843D061
:2007C000FFE7179812A905F00BFE00283CD0FFE713988121C943884236DBFFE71398822842
:2007E00032DCFFE7129832282EDBFFE7129819210901884228DCFFE77F480078002823D016
:20080000FFE700217D48405E08F0EEFE04281BDCFFE77748007805280AD0FFE77448007829
:20082000062811D1FFE77348007800280CD1FFE71398744908801A981299401872490860DC
:20084000724808F0B9FE45E314A80078032838D1FFE715986E4907F00BF8002831D0FFE74C
:20086000179813A905F0BCFD00282AD0FFE71398002826D4FFE713989B218900884220DCEE
:20088000FFE71698634906F0F3FF00280ED1FFE71698614906F0ECFF002807D1FFE7169876
:2008A0005E4906F0E5FF00280BD0FFE74548002202701698007813A9895E1A9A05F022FD1C
:2008C00007E314A80078052855D1FFE71598544906F0CEFF00284ED0FFE716984D4906F04E
:2008E000C7FF002807D1FFE716984B4906F0C0FF002840D0FFE7179813A905F071FD002841
:2009000039D0FFE7189812A905F06AFD002832D0FFE7199811A905F063FD00282BD0FFE748
:200920001398002827D4FFE713989B218900884221DCFFE712987D21C90088421BDBFFE7AF
:2009400012987D210901884215DCFFE71198002811D4FFE71198194988420CDCFFE71698B7
:200960000078002213A9895E129A119B1A9C009406F0F8F9ACE214A80078052800D092E080
:200980001598284906F074FF002800D18BE01698204906F06DFF002846D1FFE716981E49B9
:2009A00006F066FF00287ED03EE0C046E43A2020B93A2020FCAC0000BCAF0000FFFFFF7F22
:2009C000B9AC0000F038202072B1000098B10000D13A2020A0382020ACAF00001CAD000057
:2009E000DBB00000CC3A2020E03920209EB10000D63A2020E03A2020D53A2020763A202095
:200A00003AB100007A3A20200C3A2020DCAE00002EB10000B1B10000B3B10000B5B10000DC
:200A200021AF000018AF0000179813A905F0D8FC002838D0FFE7189812A905F0D1FC002880
:200A400031D0FFE7199811A905F0CAFC00282AD0FFE71398502826DBFFE713984B21C90097
:200A6000884220DCFFE712987D21890088421ADBFFE71298FD49884215DCFFE711980028F2
:200A800011D4FFE71198FA4988420CDCFFE716980078002213A9895E129A119B1A9C00947A
:200AA00006F0B2F913E214A8007804282BD1FFE71598F04906F0DCFE002824D0FFE71798F7
:200AC00013A905F08DFC00281DD0FFE7189812A905F086FC002816D0FFE71298002812D453
:200AE000FFE71298E24988420DDCFFE71698139901F0CCFF002806D0FFE712981699139AA2
:200B000007F046FEE2E114A8007803281BD1FFE71598D84906F0ACFE002814D0FFE7179897
:200B200013A905F05DFC00280DD0FFE71698139901F0ACFF002806D0FFE7CF4808F03CFD9E
:200B400003F03AF9C1E114A80078042852D1FFE71598F14906F08CFE00284BD0FFE7169826
:200B6000EA4906F085FE002807D1FFE71698E84906F07EFE00283DD0FFE7179813A905F017
:200B80002FFC002836D0FFE7189812A905F028FC00282FD0FFE7139850282BDBFFE71398CB
:200BA0004B21C900884225DCFFE712987D21890088421FDBFFE71298D64988421ADCFFE765
:200BC000E94900200A9008701698017803200B9002204C290C9001D00B980C900A9C0C983F
:200BE00013A9095F129A1A9B01940124009403F0D3FD69E114A8007803284AD1FFE7159808
:200C0000C64906F035FE002807D1FFE71598C44906F02EFE00283CD0FFE7169813A905F061
:200C2000DFFB002835D0FFE7179812A905F0D8FB00282ED0FFE7139850282ADBFFE71398D0
:200C40004B21C900884224DCFFE712987D21890088421EDBFFE71298AE49884219DCFFE7EF
:200C60001598AF4906F004FE01460420089005200029099001D1089809900998002413A961
:200C8000095F129A1A9B01940124009403F084FD19E114A80078042800D081E01598A149A7
:200CA00006F0E6FD00287BD0FFE7169813A905F097FB002874D0FFE7179812A905F090FBD5
:200CC00000286DD0FFE7189811A905F089FB002866D0FFE71398502862DBFFE71398E121AF
:200CE000490088425CDCFFE71298012858DBFFE712980A2854DCFFE71198002850D4FFE70A
:200D00001198804988424BDCFFE711980E9090480078002817D0FFE78E4800680E9988424F
:200D200011D1FFE70E9805908B4801788B488C4A06920029079001D106980790059807991F
:200D400008F0CAF82BE070480078002805D0FFE70E98844908F0C0F820E0002113A8405E1E
:200D600012A909781A9A02F065FC01467A4801700E99784A1160764A012111700E9902913F
:200D800001787648764A03920029049001D1039804900298049908F09FF8FFE7FFE791E006
:200DA00014A80078032837D1FFE715985D4906F05FFD002830D0FFE7169813A905F010FBC9
:200DC000002829D0FFE7179812A905F009FB002822D0FFE7139850281EDBFFE71398E121FA
:200DE0004900884218DCFFE71298012814DBFFE712980A2810DCFFE7002113A8405E12A97B
:200E000009781A9A02F016FC002804D1FFE74F4808F0D2FBFFE754E014A8007803284BD1C5
:200E2000FFE71598404906F023FD002844D0FFE7169813A905F0D4FA00283DD0FFE7179867
:200E400012A905F0CDFA002836D0FFE71398502832DBFFE713984B21C90088422CDCFFE759
:200E600012987D218900884226DB07E0983A0000FFFFFF7F5EB1000057AF00001298254974
:200E8000884219DCFFE720480078002814D1FFE71398274908801298264908602649012026
:200EA00008702649002008702549087025490870254808F081FB03E01C4808F07DFBFFE769
:200EC000FFE7FFE7FFE7FFE7FFE7FFE7FFE7FFE7FFE7FFE7FFE7FFE7FFE7FFE7FFE7FFE7B2
:200EE000FFE7FFE7FFE7FFE7FFE7FFE7FFE7FFE7FFE7FFE7FFE7FFE7FFE7FFE7FFE71CB0AC
:200F000010BDC046FFFFFF7FD63A2020B1B10000B3B10000983A000008B100008EB10000A2
:200F2000F4B0000030B0000062B10000F5AA0000543A2020BC392020E33A2020E23A2020BF
:200F4000E43A2020B83A202032A90000D4A90000D03A2020F4392020CF3A20209EB100005A
:200F60003AB1000021B10000F038202010B5AAB0289022A90020087021A9087020A908708F
:200F80001FA908801EA908701DA90870FB48007806280AD1FFE7FA480078002805D0FFE73D
:200FA000FC480078042805D1FFE729A90020087000F098FE2898F8490968401A2790F548DD
:200FC0000078012849D1FFE7F4490A88F44802800A88F4490A80F44A1388F44C2380128834
:200FE000F34B1A800022805E895E05F0B1FF279832282DD3FFE709F0F1FA002808D1FFE7C3
:20100000EC4808F015F929A90120087000F06AFE09F01EFAE849002018900880E749088089
:20102000E7490120087008F03FFDE649086008F04DFD01461898E44A1160E4490880E44962
:201040000870D449022008702898D3490860FFE729A90120087000F045FE09F0BFFA0028BF
:2010600011D1FFE7DB480078012808D1FFE7DA4808F0DEF829A90120087000F033FED04990
:2010800000200870FFE708F00FFDCE490968401A249008F01BFDCC490968401A23902498D9
:2010A000002804D5FFE7249840422490FFE72398002804D5FFE7239840422390FFE724983D
:2010C00023994018C10F40184008C049088009F0CDFA7F210840C1490870BE48007801282A
:2010E0000ED1FFE7BD48007820A904F007F91FA908801F98BA4908802098BA490870FFE746
:20110000B9480078002820D1FFE7B448007808F0ADF800280BD1FFE7B4480078FF2805D0EC
:20112000FFE7B2490878401C0870FFE703E0AF4900200870FFE7AD480078022804D3FFE7E7
:20114000A94901200870FFE72BE0A448007808F08DF821A908709F480078012801D1FFE7B0
:20116000FFE700229948805EA149895ECA0F89184910884210DBFFE721A8007800280BD025
:20118000FFE79C480078FF2805D0FFE799490878401C0870FFE703E0964900200870FFE7CF
:2011A000FFE709F01BFA00282AD0FFE708F082FE26A9088082480078002811D0FFE7269875
:2011C0007E490988401A00B208F00EFAC82807DCFFE72698794908802698774908800EE0F6
:2011E000269876490988401A00B208F0FDF9C92804DBFFE7724900200870FFE7FFE7FFE72C
:20120000289865490968401A279072480078012800D0CBE3289878490968401A1C9068485D
:201220000078002808D1FFE7744808F001F829A90120087000F056FD00215F48405E08F096
:20124000D3F96F49884208DBFFE76E4807F0F0FF29A90120087000F045FD00225B48805E9B
:2012600063498A5E03215143884208DDFFE7664807F0DEFF29A90120087000F033FD1C98CC
:20128000C009192808D3FFE7604807F0D1FF29A90120087000F026FD3E480078022805D099
:2012A000FFE73C480078032800D0BCE120A80078002819D0FFE7494800784006800F002877
:2012C00012D0FFE700211FA8405E0A280CDBFFE700213948405EAF214900884204DBFFE7D9
:2012E0004B4901200870FFE749480078002821D0FFE720A8007800281CD1FFE700212E4801
:20130000405EE1214900884214DBFFE741480078FF2805D0FFE73F490878401C0870FFE7A0
:201320003C480078022804D3FFE73B4901200870FFE709E038480078002804D1FFE7354985
:2013400000200870FFE7FFE727480078002800D18BE02F480078002800D186E02E480078A2
:20136000002800D181E020A8007800287DD0FFE71A4800784007002877D003E0D63A2020B5
:20138000E03A202000211FA8405E0521C94388426BDC43E0E03A2020383A2020AA3A2020D7
:2013A0006C3A20208C3A2020A23A2020743A2020943A202073AD0000AE3A2020A63A2020C1
:2013C000EB3A2020443A2020483A2020AC3A2020E63A2020533A20200CAD0000D43A2020CE
:2013E000763A2020D53A2020EA3A2020E93A2020A03A2020E83A20203C3A2020B8AB000052
:201400007F0400000EAB00008BAA00006EAA0000C63A2020C73A2020C83A20200021FD481A
:20142000405EFD49884220DBFFE70021F948405EFA49884219DCFFE70022F948805E810073
:20144000F848825E0320504388420EDCFFE70022F348805EF3498A5E03215143884204DC5B
:20146000FFE71EA901200870FFE7EF48007800282BD0FFE720A80078002826D0FFE7002123
:20148000E448405E08F0B0F8AF21890088421CDBFFE700211FA8405E08F0A6F80A2814DCA4
:2014A000FFE7E248007807F0E1FE00280DD0FFE70022DB48805E4100DA48805E884204DCD5
:2014C000FFE71EA901200870FFE7D7480078002821D0FFE720A8007800281CD0FFE70021EF
:2014E0001FA8405E002816D4FFE7D048007805F0BDFE00280FD0FFE70022C948805E8100D0
:20150000C848825E03205043884204DCFFE71EA901200870FFE71EA8007800280BD0FFE728
:20152000C3480078FF2805D0FFE7C1490878401C0870FFE703E0BE4900200870FFE7BC4896
:201540000078022804D3FFE722A901200870FFE700211691AF48405E08F046F8169A014658
:20156000B448825E0120914217900FDAFFE7AC4800221492815EAB48825E0120914215901E
:2015800001DA1498159015981790FFE71799012001401DA801700078002843D0FFE722A83A
:2015A000007800283ED1FFE7A349002013900870A24A042111702899A14A1160A14908705E
:2015C000A1490880A1490880A1490880A1490880A1490880A1490880A149088007F082FE76
:2015E00008F068FF9F4807F0E7FF9F480078401C05F05EFB9D48129007F0DEFF13998548EB
:20160000405E05F055FB129807F0D6FF13998448405E05F04DFB964807F0CEFF29A9012089
:2016200008705FE3FFE785480078052800D0B0E008F088F907F0D8FF1BA9088008F096F91E
:2016400007F0D2FF1AA90880824900200880824908808249088082490880279827280CD819
:20166000FFE77C482D2101807B49824A0A800022805E895E05F06CFC02E007F033FEFFE7A3
:201680002798782817D3FFE700211BA8405E0F2811DCFFE700211AA8405E0F280BDCFFE70A
:2016A00075480078FF2805D0FFE773490878401C0870FFE703E0704900200870FFE76E484D
:2016C0000078032858D3FFE720A8007800280DD0FFE7564800784007002814D1FFE7534840
:2016E000007807F0C3FD00280DD1FFE727984008E12804D3FFE7614807F09AFDFFE729A913
:2017000001200870EEE206F01DFD08F079FA5C4908605C480078002809D0FFE75A480068CB
:201720005A4908615A4800685A49086102E008F0C1FEFFE758480021119101801F98424AE1
:20174000108042480180424801801FA8405E07F04BFF01461198514A11802899504A116055
:201760005049088035490620087028983449086029A901200870B5E227984008E12804D39E
:20178000FFE7494807F054FDFFE729A901200870A8E22A480078062800D006E120A80078A0
:2017A000002807D0FFE700211FA8405E07F01CFF109002E03D481090FFE7109819A908802D
:2017C00020A80078002877D1FFE7364800883849884205D8FFE7334908880A300880FFE7AB
:2017E0001C49002008801C4908801C4908801C49088007F077FD08F05DFE2A480088B42881
:2018000004D3FFE72B4807F013FDFFE729A90120087067E2AE3A2020EE0200004C0400008F
:20182000AC3A2020A03A2020EA3A2020D43A2020C93A20209E3A2020E63A2020E03A2020A1
:20184000383A2020E73A2020803A2020783A20207E3A20206C3A20208C3A2020743A2020B7
:20186000943A20200AAE0000DE3A2020B7B1000098B10000D3FF0000C33A202027AB0000B8
:20188000F0392020C53A2020D039202080392020D439202094392020823A20205E3A202030
:2018A000CC392020603A2020A7AA0000FF7F00005FEA0000F6A90000F0480022028019A8B5
:2018C000805EEF49895E884207DAFFE71998EC4908802898EB490860FFE7EB48007807F028
:2018E000C5FC002811D0FFE7002119A8405E06280BDCFFE7FD480078FF2805D0FFE7FB49DA
:201900000878401C0870FFE703E0F84900200870FFE7F6480078052837D3FFE7F4490120BA
:201920000F900870F34807F047FEF3480078401C05F0BEF9F1480D9007F03EFE00210E9195
:20194000FA48405E05F0B4F90D9807F035FE0E99F248405E05F0ACF90D9807F02DFEF0481E
:20196000007805F0A5F90D9807F026FE0E991FA8405E05F09DF9E24807F01EFE289801F017
:20198000B7FC0F9829A90870ACE12798DD49884207D3FFE7DC4807F04BFC29A901200870DA
:2019A000A0E129A9002008709CE1FFE7DE480078032827D3FFE7D848007800280CD0FFE7AE
:2019C0000021DA48405E7D218900884204DBFFE722A90120087014E0CF48007800280FD181
:2019E000FFE70022CD48805E8100CE48825E03205043884204DCFFE722A901200870FFE7E5
:201A0000FFE7FFE7C348007801280ED1FFE7C848017800200B90012001290C9001D80B98E2
:201A20000C900C9822A90870FFE7BA480078012875D1FFE72798DC2871D3FFE722A800783F
:201A400000286CD0FFE720A80078002867D0FFE7B348007807F00AFC002860D0FFE7B3480E
:201A60000088C44905910880AC480088C24906910880AB480078C149079108701F98C049C8
:201A80000A910880BF49002009900870BE4908809E4A0521117028999D4A1160BB49088027
:201AA000AF490880AF490880A6490880A6490880A6490880A649088007F014FC08F0FAFC55
:201AC000B34807F079FDA8480078401C05F0F0F8B048089007F070FD05980999405E05F037
:201AE000E7F8089807F068FD06980999405E05F0DFF8089807F060FD0798007805F0D8F891
:201B0000089807F059FD09990A98405E05F0D0F8A14807F051FD29A901200870E2E027981F
:201B2000C008AF280CD3FFE77A480078012807D0FFE78F4807F07CFB29A901200870D1E0C0
:201B40002798DC2856D3FFE772480078012851D0FFE722A8007800281AD1FFE76E480078E8
:201B6000002808D1FFE700226C48805E6D49895E88420DDAFFE76848007800283AD0FFE756
:201B800000226A48805E6B49895E884232DBFFE72298704908705D490420087028985C49A9
:201BA00008606D490020049008706C4908806C4908806C4908806349088063490880634910
:201BC00008806349088007F08DFB08F073FC66480078401CC0B2654909788906090E8842D0
:201BE00004DBFFE7289801F083FBFFE729A90120087077E045480078022823D1FFE7279881
:201C0000DC281FD3FFE74448007800280CD0FFE700214648405E47490988474A1288891ABE
:201C200009B288420ADAFFE700213C48405E3D490988193909B2884204DBFFE733490320C0
:201C40000870FFE731480078022805D1FFE700213B48405E039004E000213848405E0390C4
:201C6000FFE7039825A908802A480078012822D1FFE72948007800281DD007E0603A2020E2
:201C80005E3A2020CC392020D43A2020002101912648405E04F07EFC019B014625A802906A
:201CA0000180C05E1D49C95E1E4AD25E03F0B8FB02990880FFE72598414222480180259AC7
:201CC00021490A80259A5242204B1A80259A204B1A800022805E895E05F03AF929A90120F2
:201CE0000870FFE729A800782AB010BDE73A2020E63A2020A8AD0000DE3A2020B7B10000C0
:201D000098B100009808000051AA0000E03A2020383A2020533A2020EB3A2020AC3A20207B
:201D2000D43A2020A03A2020E83A2020AE3A2020C93A20209E3A2020A83A2020AA3A202010
:201D4000A43A20206C3A20208C3A2020743A2020943A2020E63A2020E73A2020803A2020C2
:201D6000783A20207E3A2020DE3A2020E13A2020B5AD0000663A2020643A2020C23A20206A
:201D8000623A2020C33A2020603A2020823A202057AD0000B7B1000098B10000B0B5DEB0AC
:201DA0005D9007F02DFF5C90F7480078022816D0FFE7F5480078032811D0FFE7F248007821
:201DC00004280CD0FFE7F0480078052807D0FFE7ED480078062802D0FFE700F021FE5C98E5
:201DE000EA490968884202D1FFE700F019FE5C98E64908605D98FFF7B9F8002802D0FFE7AE
:201E000000F00EFEE0480078022809D1FFE7E0480088E0490880E0490020088000F0D6FD47
:201E2000D9480078032809D1FFE7DA4900200880D7480088D849088000F0C7FDD2480078BD
:201E4000052806D0FFE7D0480078062801D000F034FDCF48008859A908805D98CF49096842
:201E6000401A5490CE4853904B20C00052A90880CC4801780020012930900DD1FFE7C44816
:201E800000212E91415E0120C9292F9001DB2E982F902F983090FFE730980121084051A9F7
:201EA0000870C0480178002001292D900DD1FFE7B5480178002006292D9006D1FFE7BA481D
:201EC0000078414248412D90FFE72D980121084050A90870B3480178002001292C900ED1E2
:201EE000FFE7A9480178002006292C9007D1FFE7AD480078801F414248412C90FFE72C984B
:201F0000012108404FA90870A6480178002001292B900ED1FFE79C480178002006292B904F
:201F200007D1FFE7A0480078001F414248412B90FFE72B99012001404EAA117050A909789E
:201F400000292A900DD1FFE74FA80178012000292A9006D1FFE74EA80078411E88412A9059
:201F6000FFE72A98012108404DA908704CA9232008804BA908804AA90C20088082480078BC
:201F800006280CD1FFE788480078042807D1FFE74CA9192008804BA93220088026E07A48D2
:201FA0000078062821D1FFE77F48007806281CD1FFE74CA92D2008804BA9412008804AA9C9
:201FC000052008805D9879490968401A000919280AD3FFE74CA93C2008804BA94B20088005
:201FE0004AA908200880FFE7FFE7FFE751A8007800280ED0FFE764480078062809D1FFE71D
:202000006B480078002804D1FFE77D20C0005390FFE76448007801280ED1FFE75A48007860
:20202000062809D1FFE760480078062804D1FFE752A9B420088014E05A48007801280FD13B
:20204000FFE75148007806280AD1FFE756480078002805D1FFE74B20C00052A90880FFE70C
:20206000FFE749480078062819D1FFE74E480078042814D1FFE74F48008859A90880494834
:20208000007801280AD1FFE7002159A8405E652804DBFFE759A964200880FFE729E03A484D
:2020A0000078062813D1FFE73F48007806280ED1FFE74048018859A801800021405E6528DF
:2020C00004DBFFE759A964200880FFE710E05498539988420BD2FFE700212D48415E5498D1
:2020E0004843539907F028F859A90880FFE7FFE7FFE708F0BBFA01467F2001402E4801705B
:20210000007855A903F0FAF82C49088055982C49087050A8007800286FD0FFE755A800785B
:2021200000286AD0FFE7002128912448405E07F05BFA2899024649A829900280144A1288FA
:2021400048AB1A80405E400023302321642206F06BFC2899024629984CAB1A804C9A4BAB63
:202160001A80405EC10F401840100C300C21182206F05AFC2899024629984AAB1A80405EC9
:20218000092839DB1EE0C046D63A2020F03920209C3A2020743A2020943A2020183A202099
:2021A000DC050000533A2020E03A2020CC392020DE3A2020A23A2020D43A2020763A202020
:2021C000D53A202000212791FB48425E49A8405E4000101A10305A2106F026FC279A48A976
:2021E000088059A8805E895E884204DDFFE7489859A90880FFE7FFE7FFE7F0480078062806
:2022000000D039E1EE480078002800D09FE006F033F8EC490880EC480078012832D1FFE713
:2022200008F0DCF900282DD0FFE707F043FE014647A8018046AA2692E4491180002125919A
:20224000405E07F0D1F9259A2699895E88420BDBFFE7DF480078FF2805D0FFE7DC490878FE
:20226000401C0870FFE703E0D94900200870FFE7D7480078032804D3FFE7D64806F0D8FFB7
:20228000CEE303E0D24900200870FFE70022CD48805ED149895E884206DAFFE7CF49002033
:2022A0000870CF49087051E0CC480078072811D8FFE7CC48007805F013FC002805D0FFE7E8
:2022C000C6490878401C087003E0C44900200870FFE73AE0C348007805F0F9FC45A9087040
:2022E00044A902200870B848007801280AD1FFE7BC48007803F038FA45A9087044A90320DE
:202300000870FFE745A8007800280BD0FFE7B4480078FF2805D0FFE7B1490878401C08706D
:20232000FFE703E0AE4900200870FFE7AC48007844A90978884207DBFFE75D9802F0B2F862
:202340005D98FEF713FE6BE3FFE7FFE793E09C480078042800D08DE05D98A3490968401A84
:202360004390439878281ED3FFE797480078012807D1FFE79B48007804F078FF002807D134
:2023800011E09848007805F0ABFB00280BD0FFE796480078FF2805D0FFE794490878401C7F
:2023A0000870FFE703E0914900200870FFE78F48007822908448017803202390022001291C
:2023C000249001D02398249022982499884246D3FFE77D480078012835D1FFE78449012089
:2023E000087084481F90008883490880834807F0E3F883480078401C04F05AFC814820900F
:2024000007F0DAF8002121917F48405E04F050FC209807F0D1F81F982199405E04F048FCBC
:20242000209807F0C9F86F48007804F041FC209807F0C2F821997548405E04F039FC744869
:2024400007F0BAF8FFE75D9800F052FF002801D0FFE7E5E25848008859A9088009E043989B
:202460004009192804D3FFE76A4806F0E1FED7E2FFE7FFE7FFE7FFE755A80078002800D1CF
:202480006DE162481D9000211C91405E07F0ACF81C9942AA1A9210805F481B90405E07F0CC
:2024A000A3F81C9902461D9841AB1A8040ABA0221A8000883EAA10803DAA082010805748C4
:2024C00000683C90564800683B9059A8415EFF225432012091421E9001DC1C981E901C9A19
:2024E0001B991D981E9B3AAC237000880988401A56A9199108804B481890805E4000895E5D
:202500004018032106F09CF9189A199B1C9904461A98148012881A80405E042809DCFFE740
:202520003C9903204843C117890F401880103C901BE0002142A8405E0A2815DBFFE73AA866
:202540000078002809D0FFE73C9905204843C117890F40188010179003E03C9840001790FA
:20256000FFE717983C90FFE7FFE7002242A8805E41A9895E884204DAFFE73B9840003B9007
:2025800005E03B98C10F401840103B90FFE7002142A8405E022803DCFFE700203B90FFE7F1
:2025A0003AA80078002867D0FFE7002142A8405E04284BDC38E0C0469C3A2020D63A2020FC
:2025C000E03A20205C3A2020533A2020FF7F0000C43A2020F9AB0000583A2020BD3A202095
:2025E000BE3A2020D43A2020383A2020E73A2020E63A2020AC3A2020643A2020A8AD000089
:20260000DE3A2020B7B10000AE3A2020763A202098B1000096AC0000803A2020103A2020D3
:20262000083A2020783A202040A92D200880002142A8415E052015900A200329169001DB1C
:202640001598169016983DA9088014E0002142A8405E0A2807DBFFE740A97D2008803DA980
:202660001220088006E040A95A2008803DA908200880FFE7FFE723E0002142A8405E042895
:2026800012DCFFE740A92D200880002142A8415E052013900A200329149001DB1398149011
:2026A00014983DA908800AE0002142A8405E0A2804DBFFE73DA912200880FFE7FFE7FFE724
:2026C0004DA80078002819D0FFE7002240A8805E4CA9895E884204DDFFE74C9840A90880EC
:2026E000FFE700223DA8805E4AA9895E884204DDFFE74A983DA90880FFE7FFE73C99002390
:2027000012933EA8C05E48433B9A56A9C95E514340187D21C90006F093F8129A40A98A5E39
:20272000514209B206F080F9129B01463FA80180C05ECF491191CA5E3DA9CB5ED11AD2189C
:2027400009B212B206F070F9119A014612981180BF490988C54A1180BE49088037E0BD488A
:202760000088BD49884205D8FFE7BA4908880A300880FFE7B748008852A90988884213DB38
:20278000FFE7A8480078062804D1FFE7B64806F04FFD08E002F008FAB14900200870B1485B
:2027A00006F00AFFFFE73BE1AA48008864280DD3FFE7AA480021018059A8405E652804DBAD
:2027C000FFE759A964200880FFE7FFE7FFE7A848008857A908800021A648405E002816D098
:2027E000FFE7A54800685D99401A01280FDBFFE7002257A81090805E9E49895E40189F21D0
:20280000C943A02206F010F91099088005E099490020088098490860FFE74DA80078002887
:202820000DD0FFE7002257A80F90805E4BA98A5E514209B206F0F8F80F990880FFE7599820
:20284000143858A9088050A80078002804D0FFE74B9858A90880FFE7002158A8405E002818
:2028600004D5FFE758A900200880FFE700220C9257A80B90805E58A98A5E514209B206F0A5
:20288000D3F80B9A0C99108059A80E90405E525E80184B22D2000D9206F0C6F80B9B0C9931
:2028A0000D9A04460E98684D2C80405E5B5EC01A06F0BAF86549088086E05B48008839A99E
:2028C000088007F07DF9099007F08AF901460998401A389007F074F90A9007F081F9014630
:2028E0000A984018C10F401840103790379900224E48805E48434E4905F0A2FF36903898EB
:202900003699401A35905D984A490968401A31903198494988420BD8FFE700214248415E7D
:2029200031984843454906F007FC39A90880FFE7002139A8405EC20F8018420833A80280BC
:20294000405E3D2804DBFFE733A93C200880FFE73B480068329031983749884208D8FFE783
:20296000329840000021374A06F092FD3290FFE73299359848437D21C90005F061FF00227D
:20298000069233A98A5E514209B206F04DF8069934AA0592108039A80890405E525E801A4D
:2029A0004B22D200079206F03FF8059B0699079A04460898244D2C80405E5B5EC01806F006
:2029C00033F822490880FFE7FFE7FFE706F0BAFF5BA90191088006F0C9FF014601985AAAB8
:2029E00002921180002203921749895E825E234802F056FB039A01460298214B049319800C
:202A00001249895E825E1F4802F04AFB039A034604981D490B80805E895E04F099FAFFE751
:202A20005EB0B0BDD63A20209C3A20208A3A202010270000183A2020DB050000DC05000027
:202A4000403A202088130000743A2020943A2020763A20207E3A20205FEA0000783A202002
:202A6000E43A202023AC0000D2AE0000803A2020823A20207A3A20200C3A20208039202040
:202A80006C3A2020943920208C3A202080B584B0029001916946012008700298FD4904F094
:202AA000E7FE002811D0FFE70198002805D4FFE70198FD49884204DBFFE703A90020087010
:202AC0001CE20198FB4908600CE20298FA4904F0CFFE002811D0FFE70198002805D4FFE7B8
:202AE0000198F149884204DBFFE703A90020087004E20198EF494860F3E10298EF4904F037
:202B0000B7FE002811D0FFE70198002805D4FFE70198E549884204DBFFE703A900200870F7
:202B2000ECE10198F7490860DAE10298F74904F09FFE002811D0FFE70198002805D4FFE7F2
:202B40000198D949884204DBFFE703A900200870D4E10198EB494860C1E10298EC4904F058
:202B600087FE002811D0FFE70198002805D4FFE70198E549884204DBFFE703A900200870C7
:202B8000BCE10198CB498860A8E10298E14904F06FFE002811D0FFE70198002805D4FFE7E6
:202BA0000198D949884204DBFFE703A900200870A4E10198F84988608FE10298D64904F023
:202BC00057FE002812D0FFE70198002806D4FFE70198FF21C431884204DBFFE703A9002026
:202BE00008708BE10198ED49888175E10298CB4904F03EFE002812D0FFE70198002806D45A
:202C0000FFE70198FF21C431884204DBFFE703A90020087072E10198DF4988815BE102985A
:202C2000BF4904F025FE002811D0FFE70198002805D4FFE70198D649884204DBFFE703A913
:202C4000002008705AE10198D249086042E10298B44904F00DFE002812D0FFE701984F21D3
:202C6000C943884204DBFFE70198512804DBFFE703A90020087041E10198C449088028E145
:202C80000298A94904F0F4FD00281AD0FFE7B848007801280AD1FFE701982221C9438842B7
:202CA00004DBFFE70198242804DBFFE703A90020087023E10198B4490880694600200870F8
:202CC00006E10298994904F0D3FD002822D0FFE70198002805D4FFE70198A349884204DB1F
:202CE000FFE703A90020087008E10198A54908609F48007801280CD1FFE79E4900200880F8
:202D00009D4908809D4909889D4A118069460870FFE7DCE00298864904F0AAFD002822D06F
:202D2000FFE70198002805D4FFE701988E49884204DBFFE703A900200870DFE001988B49BE
:202D400008608B48007801280CD1FFE78949002008808949088089490988894A118069468A
:202D60000870FFE7B2E00298724904F081FD002813D0FFE70198AF218900884205DBFFE729
:202D800001987749884204DBFFE703A900200870B4E001987349088097E00298664904F0E2
:202DA00067FD002819D0FFE7019864280DDBFFE701984B218900884207DCFFE701980022E9
:202DC0006649895E884204DAFFE703A90020087094E001986049088076E00298574904F0C9
:202DE00047FD002817D0FFE7019850280BDBFFE70198FA2807DCFFE7019800225649895EF8
:202E0000884204DDFFE703A90020087076E001985249088057E00298494904F029FD002826
:202E200012D0FFE70198322806DBFFE70198FF216031884204DBFFE703A9002008705DE0B6
:202E40000198444908803DE002983E4904F010FD002810D0FFE70198502804DBFFE7019828
:202E6000FB2804DBFFE703A90020087046E001983749088025E00298334904F0F9FC002833
:202E800014D0FFE70198322806DBFFE701988D2806DB01E07EB1000003A9002008702DE01E
:202EA00001982A4908800BE0B90B000003A90020087023E0803920205AB100008AB1000049
:202EC000FFE7FFE7FFE7FFE7FFE7FFE7FFE7FFE7FFE7FFE7FFE7FFE7FFE7FFE7FFE7FFE792
:202EE000FFE7FFE768460078002803D0FFE707F0E1FAFFE703A901200870FFE703A80078F9
:202F000004B080BD94392020E903000052B100002AB1000042B10000E5B0000017B1000099
:202F2000C7B00000D1B000005AB000004CB00000DCAF0000FAAE00003CAF00002AAF00009C
:202F40009CAE000072AF000060AF0000A03A2020A23A2020A83A2020A43A2020AA3A20205D
:202F60004D0400009E3A2020214E0000083A2020533A2020823A2020783A2020763A20204C
:202F8000803A2020103A2020683A20208A3A202089130000403A202094392020803920206B
:202FA00080B5E4B07F2080026290619062980068BD49884246D1FFE762984068032841D136
:202FC000FFE77F2080024C904C9922A8A82207F065FB2498A82810D1FFE74B98089022A8A6
:202FE00005F00CFA01460898884206D1FFE722A804F030FE002804D1FFE763A900200870F5
:203000004DE122A905911031B84807904822069207F044FB0599069A07985831483007F03C
:203020003DFB069907984A9AAF4B1A80259BAD4A137012785143401803F0DCFD63A90120F9
:2030400008702CE162980068974988423BD1FFE762984068022836D1FFE77F208002219062
:2030600021990BA8582207F019FB0D98582810D1FFE7209804900BA805F090F90146049812
:20308000884206D1FFE70BA801F0CCFA002804D1FFE763A90020087001E10BA803F04CFDE7
:2030A000904900200870904908809048039003F0E3FC039908464830482207F0EFFA63A949
:2030C00001200870EBE0619800684D90619840684E90619880684F906198C0685090619815
:2030E000006951906198406952906198806953906198C06954906198006A55906198406A4C
:2031000056906198806A57906198C06A58906198006B59906198406B5A906198806B5B904A
:203120006198C06B5C906198006C5D906198406C5E906198806C5F906198C06C60904D98CC
:203140005949884214D1FFE74E98012810D1FFE7599802904DA805F0CFFF0146029888427C
:2031600006D1FFE74DA802F075FA002804D1FFE763A90020087092E04F984C4A106050986E
:20318000506051984A490860529848605398906054988860559890815698888157984549E8
:2031A00008605898444908805A98401C002817D0FFE74DA8818E0A91C08E09900A983F49AF
:2031C00088420CDCFFE709983C49884207DCFFE70A983B49086009983A490860FFE7FFE7B8
:2031E0005B98AF21890088423ADBFFE75B983649884235DCFFE75C98642831DBFFE75C9825
:203200004B21890088422BDCFFE75D98502827DBFFE75D985C99884222DCFFE75E983228C5
:203220001EDBFFE75E98AF214900884218DCFFE75F98502814DBFFE75F98FA2810DCFFE7CD
:203240005B98224908805C98214908805D98214908805E98204908805F9820490880FFE706
:203260006098322808DBFFE760988C2804DCFFE760981B490880FFE71A49002008701A4999
:2032800008801A48019003F0F7FB019908464830482207F003FA63A901200870FFE763A87A
:2032A000007864B080BDC046314449508039202094392020403A20208A3A2020204E0000FF
:2032C000103A2020083A20204C0400009E3A2020A43A2020AA3A2020A83A2020A23A2020FA
:2032E000A03A2020533A2020683A20209037202080B58AB00890A448008807A90880A34860
:203300000078012832D1FFE70021A148405E01282CDBFFE79E48008807A908809D48007862
:20332000002822D0FFE79C48007800281DD0FFE700219A48405EAF218900884215DBFFE79C
:2033400000219648405E964988420EDCFFE700239449CA5E03205043904AD25E8018801C3B
:20336000820F801880080880FFE7FFE78948007800281AD0FFE7002107A8405E322814DB50
:20338000FFE7002107A8405E8C280EDCFFE700238549CA5E0320504307AAD25E8018801C71
:2033A000820F801880080880FFE780490878401C08707648007801281DD1FFE77C4806F0E4
:2033C000FBF87A48007803F073FC7A48059006F0F3F8002106917348405E03F069FC059820
:2033E00006F0EAF806997048405E03F061FC724806F0E2F8FFE7714806F0DEF86B48049074
:20340000007803F055FC6B48039006F0D5F800216248405E03F04CFC039806F0CDF808984D
:2034200067490968401A03F043FC634806F0C4F804980078634909788900C9B2884252DB46
:20344000FFE701F0B1FB724900200870714908704E480078012815D1FFE76F4806F0ACF810
:20346000002102914F48405E03F022FC6B4806F0A3F802994C48405E03F01AFC4E4806F0AC
:203480009BF8FFE7664806F097F800214648405E03F00EFC4848019006F08EF8614806F0FA
:2034A0008BF84248007803F003FC019806F084F836480078012804D1FFE75D4806F07CF8A1
:2034C0000DE002F04DFD002804D0FFE7574806F073F803E0544806F06FF8FFE7FFE709A987
:2034E000012008704BE0384900200090087008983649086006F0D8FA3549086006F0E6FA54
:2035000001460098334A1160334908803349087033490870334908703348008833490880F7
:203520001A480078012810D1FFE7314900200880304908803049087007F050F8002803D073
:20354000FFE706F085FFFFE7FFE71048007801280ED1FFE729480078002809D0FFE7284841
:20356000006828490861284800682849086102E006F0A0FFFFE709A900200870FFE709A819
:2035800000780AB080BDC046AC3A2020533A2020643A2020E63A2020EB3A2020AE3A2020F8
:2035A0004C0400009E3A2020A03A2020DE3A202016AE0000B7B1000098B100007BAE000093
:2035C0003C3A2020E13A2020E03A2020383A2020C0392020C43920205C3A2020BD3A20204B
:2035E000BE3A2020E73A2020763A2020803A2020823A2020783A2020C43A2020C53A2020DD
:20360000D039202080392020D439202094392020E43A2020B93A2020C2AA0000A7AE0000BC
:2036200040AB000081AD00008AAB00000EAC0000B1A9000080B586B004AB188003A801705A
:20364000029206F0CBFF00280FD0FFE707F014F800280AD0FFE703A80078002805D0FFE738
:2036600003A800780B2804D3FFE705A900200870B7E001F099FA04F067FB5C49062008703D
:2036800004985B49088002985A49086003A80178594848435949086006F0B2FA58490860B8
:2036A000029858490860584901200870574900200870574908700299564A11600299564AF6
:2036C00011600399554A11705549087055490870554908705549087055490870554800783A
:2036E000012808D1FFE706F079FF002803D0FFE706F0AEFEFFE750490020019008804F49A1
:2037000008804F4A012111704E4908704E4908704E49087006F0C8F94D49086006F0D6F93E
:20372000014601984B4A11604B4908804B49087006F0BAF94A49086006F0C8F90146019840
:20374000484A116048490880484AE12149001180474908804749088047490880474908807F
:20376000474908804749086047490860474908704749087047490870474908704749087019
:20378000474908704749087047490880474908804749087047490880474A48491180484985
:2037A000086048490880484805F006FF019904A8405E03F07DFA454805F0FEFE03A800780F
:2037C00003F076FA424805F0F7FE42480078002803D1FFE706F0C8FEFFE705A90120087045
:2037E000FFE705A8007806B080BDC046D63A20209C3A2020183A202060EA0000143A2020F5
:20380000F0392020F8392020E43A2020B83A2020E03A2020383A20203C3A2020E13A202021
:20382000DE3A2020BD3A2020BE3A2020E73A2020C43A2020533A2020AE3A2020A63A20200D
:20384000EB3A2020EA3A2020E93A2020E83A2020443A2020483A2020AC3A2020E63A2020D4
:20386000C0392020C43920205C3A2020583A2020763A2020803A2020783A2020823A202052
:203880007E3A2020D0392020D4392020C53A2020C63A2020C73A2020C83A2020C93A202055
:2038A000CA3A2020C33A2020663A2020643A2020C23A2020623A20205E3A2020FF7F00005B
:2038C000CC392020603A20204CAC0000B7B1000098B10000B93A202070B58EB00D9009A93B
:2038E0000020087094480078002801D1FFE721E10D9891498A68801A0C900D980969884272
:2039000000D2ECE00D9914318B48016140784C2804D1FFE706F016F8069003E006F026F871
:203920000690FFE706980BA90880834840784C2805D1FFE700218248405E059004E000215B
:203940007E48405E0590FFE705980AA9088000210BA8405E05F048FE77492422895E88424C
:2039600008DDFFE700210BA8405E05F03DFE72498884FFE77048007801283BD1FFE70C983E
:203980008008AF2812D3FFE700210BA8405E05F02BFE0446E3176849C86A8A6A121958418E
:2039A0008A62C862888A401C8882FFE700210BA8405E05F019FE6349884207DBFFE75E4930
:2039C0004822885C022318438854FFE700210BA8405E05F009FEE121C900884209DBFFE78A
:2039E000554A4823D15C01200143D15409A90870FFE773E0504A049290880B99411A08A8AC
:203A00000180918A491C91820021405E05F0ECFD04990446E317486B0A6B121958410A63BB
:203A20004863086AC968884216D1FFE700210BA8405E039040480421415E092048430A2171
:203A400004F0FEFE0146039809B2884204DBFFE70C9839490862FFE700210AA8405EFF2143
:203A6000F031884205DBFFE73349088B401C0883FFE70C983049CA68032151438908884257
:203A800018D3FFE72C490291C88A401CC88200230BA8C65EF517CA6B8C6BA4196A418C63CC
:203AA000CA63C45E6443486C0A6C121958410A644864FFE700210BA8405E05F095FDE12127
:203AC0008900884209DBFFE71B4A4823D15C01200143D15409A90870FFE7FFE7FFE70C98C2
:203AE0001549C968884205D2FFE709A80078002820D0FFE710490091087807AA019210705B
:203B00001148502206F0CAFD0099104A012010700020087001F048F801980078012804D1B1
:203B2000FFE7094802F0E2FE03E0074802F07AFBFFE7FFE70EB070BDF03820208C3A2020BE
:203B40006C3A202092090000A0382020D13A2020B0B588B0664AAF2041001160642050607F
:203B600073208000906020209081624A7D20830013605160FF21B63191601A2191815E4A14
:203B8000C10011605D4A322111805D4A5D4911605D49000108605D49E120800008805C4947
:203BA000B92008805B498C2008805B4AB42111805A4908805A49622008805A490020049092
:203BC0000870594908805948039002F055FF039908464830482206F061FDFFF7E1F907A929
:203BE000087000F0E1FF0498514908705149087051490860514908605149086051490860B5
:203C0000514908605149088051490880514908705149087051490870514908705149087004
:203C20005149086051490880514908805149088051490880514908805149087051490870B4
:203C40005149088051490860514A01211170514908705149087006A90870FFE706A80078AB
:203C6000022826D8FFE706A80290007804F020F9029A05A90870059B107806210C46444387
:203C80004C480355059B15780C466C4304196370059B15780C466C430419A370127851439E
:203CA000411800208880FFE70698401C06A90870D4E73A490020086039490120087039481A
:203CC00005F07AFC07A801783748384A00920029019001D100980190019805F06DFC05F01D
:203CE0008DFD00F069F8324805F066FC08B0B0BD8039202094392020403A20208A3A20202F
:203D0000103A20205E1A0000083A20209E3A2020A43A2020AA3A2020A83A2020A23A202087
:203D2000A03A2020533A2020683A202090372020E43A2020B93A2020183A2020E83920202F
:203D4000F8392020E4392020D8392020963A20205A3A2020B83A2020C03A2020E33A202097
:203D6000E23A2020DF3A2020243A2020763A2020803A2020783A2020823A20207E3A202020
:203D8000D53A2020D43A20207A3A20200C3A2020E13A2020DE3A2020C43A2020DC392020C6
:203DA000DC3A202015AA0000CEAB000072AB000084AC0000A839202080B584B0554805F00C
:203DC000FBFB5548007802F073FF544805F0F4FB032002F06DFF524805F0EEFB162002F0D3
:203DE00067FF504805F0E8FB4F480090006802F05FFF4E4805F0E0FB0098406802F058FF1F
:203E00004B4805F0D9FB4B480290006802F050FF494805F0D1FB0298406802F049FF47481B
:203E200005F0CAFB0098806802F042FF444805F0C3FB0298806802F03BFF424805F0BCFBF2
:203E400000980C210191405E02F032FF3E4805F0B3FB01990298405E02F02AFF3B4805F0BC
:203E6000ABFB3B48006802F023FF3A4805F0A4FB002103913848405E02F01AFF374805F035
:203E80009BFB03993648405E02F012FF354805F093FB3548006802F00BFF344805F08CFBF8
:203EA0003348006802F004FF324805F085FB03993148405E02F0FCFE304805F07DFB03991B
:203EC0002F48405E02F0F4FE2E4805F075FB03992D48405E02F0ECFE2C4805F06DFB039916
:203EE0002B48405E02F0E4FE2A4805F065FB03992948405E02F0DCFE284805F05DFB039946
:203F00002748405E02F0D4FE264805F055FB04B080BDC046E4AB0000533A202070AE0000AC
:203F20005AAE0000A4B00000803920207AB00000B0B0000094392020BCB000009EB00000DB
:203F400098B000001BB0000037B00000E3AF0000403A202061B000008A3A202033AF000024
:203F6000683A202045AF0000103A20204EAF0000083A2020FEAD00009E3A2020BDAE000034
:203F8000A43A202039AE0000AA3A20208EAD0000A83A20204FAE0000A23A2020A7AE00002D
:203FA000A03A202098B1000080B58CB00B90DC2004F026F8002801D1FFE7B4E005F0C2FC5D
:203FC0000AA9088005F0D2FC09A9088057480078002803D1FFE70020079005E00B985449D4
:203FE0000968401A0790FFE707980890514805F0E3FA089802F05CFE4F48059005F0DCFAF4
:2040000003F0F6FB05F0D8FA059805F0D5FA002106914A480090405E02F04AFE059805F050
:20402000CBFA069946480290405E02F041FE059805F0C2FA06990AA80190405E02F038FE37
:20404000059805F0B9FA069909A80390405E02F02FFE059805F0B0FA06993A48405E02F08E
:2040600027FE059805F0A8FA06993748405E02F01FFE059805F0A0FA00980199069A805E40
:20408000895E401A02F014FE059805F095FA02980399069A805E895E401A02F009FE05982F
:2040A00005F08AFA05F08CFD049005F099FD01460498401A02F0FCFD059805F07DFA06991A
:2040C0002248405E02F0F4FD059805F075FA2048007802F0EDFD059805F06EFA1D48007861
:2040E00002F0E6FD059805F067FA04F045FA02F0DFFD059805F060FA1748007802F0D8FD6D
:20410000059805F059FA1548007802F0D1FD059805F052FA06991248405E02F0C9FD11489F
:2041200005F04AFAFFE70CB080BDC046D63A2020183A2020EFB00000B7B10000743A20208A
:20414000943A20206C3A20208C3A2020763A2020D43A2020D53A2020DE3A2020E03A202026
:20416000AC3A202098B1000080B588B007905E48007800280AD0FFE707985C49884201D8DF
:20418000FFE7AFE0584900200870FFE758480078002812D1FFE760490120032200F048FE5D
:2041A000002803D1FFE704F04BFD9BE050490120087056490020087094E0262004A90C2268
:2041C00000F036FE002810D1FFE74F49002008704C480078032805D8FFE74A490878401C33
:2041E0000870FFE704F02CFD7CE004A8083005F0B5FC03900399084603F09FF900280ED14F
:20420000FFE703983B4904F0EEF9002807D1FFE70398394904F002FA002808D0FFE7394963
:20422000002008703849087004F00AFD5AE0039803F018FA02A908803048006800282FD0DE
:20424000FFE702982E490988401A00B204F074FA014601A801802B49097832224A433232BD
:2042600069460A800022805E895E884209DCFFE7002201A8805E6946895E494288420EDA0D
:20428000FFE720480021017002A8405E02F0A0FF002803D1FFE704F0D3FC23E0FFE7FFE7F1
:2042A0000298174908801749002008701649087016490870164901200870104800680028F6
:2042C00005D1FFE70E48008812490880FFE70B480068401C002805D0FFE708490868401C64
:2042E0000860FFE708B080BDED3A202087130000EC3A20200000D0C00000D040203A2020DA
:20430000B43A2020E53A2020DB3A2020BB3A2020D93A2020B63A2020503A202080B594B0C0
:204320001390FFE703A8402100F0E4FC002805D0FFE7139903A8FBF7C3FEF3E7139801F0B5
:2043400019FD139802F0F4FE1398FDF727FD1398FFF7C2FA4548007801280ED1FFE71398FA
:2043600043490968401A00097D2806D3FFE700F01BFC404805F020F9FFE73F4800780028CF
:204380000ED0FFE713983D490968401A142807D3FFE7139839490860139801F05BFEFFE7F1
:2043A00032480078022814D0FFE73048007803280FD0FFE72D48007804280AD0FFE72B48EB
:2043C0000078052805D0FFE72848007806282AD1FFE713982A490968401A2A4909688842EF
:2043E00021D3FFE724480090007802A90191087000F0DAFB0099244A00201070087023486B
:2044000005F0DAF80198007800280BD0FFE7204805F0D2F81F48008802F04AFC1E4805F032
:20442000CBF8FFE7FFE718480078002818D0FFE713981A490968401A142811D3FFE7139895
:204440001649086016480078002804D0FFE7139801F014FC03E01398FFF7A6FDFFE7FFE73E
:20446000139803F07BFB14B080BDC046D63A2020E8392020DCAA0000B83A2020E43920205B
:20448000183A2020143A2020E43A202022AE00002EAE0000963A202098B10000F839202028
:2044A000B93A202080B586B0059003F0E5FE01463B4801800021415E03204843052104F020
:2044C000BFF94B218900E122920004F0ADFA04A9088034480078002804D1FFE704983249DC
:2044E00008800DE000233049CA5E0320504304AAD25E8018801C820F801880080880FFE79C
:204500002A49012008700598294908600598294908602949002003900870284908702849AA
:20452000087028490870284908702849087028490870284908702849087028490870284933
:204540000880284908802849087028490880284A28491180284908602849088028480078CA
:20456000012816D1FFE72748006927490191274A029204F08DFF0199029A254B186025485B
:20458000006904F085FF24490860244901200870FFE723490020088005F08CFF06B080BDF2
:2045A0005C3A2020DE3A2020583A2020E03A2020383A20203C3A2020BD3A2020BE3A2020CA
:2045C000E73A2020C43A2020C63A2020C73A2020C83A2020C93A2020CA3A2020C33A2020B5
:2045E000663A2020643A2020C23A2020623A20205E3A2020FF7F0000CC392020603A202070
:20460000533A202080392020702FFCFF90D00300D039202094392020D4392020C53A2020F5
:20462000AE3A202080B59AB018901898C06806901898006907901898406908901898806983
:2046400009901898C0690A901898006A0B901898406A0C901898806A0D901898C06A0E90F4
:204660001898006B0F9004A800F0F4FF002804D1FFE719A90020087085E01898416B0020D3
:204680000029039079D4FFE71898416B0020404A9142039071DCFFE71898816B00200029A7
:2046A00003906AD4FFE71898816B0020384A9142039062DCFFE71898C16B0020AF2292001C
:2046C0009142039059DBFFE71898C16B0020314A9142039051DCFFE71898016C00206429A0
:2046E00003904ADBFFE71898016C00204B2292009142039041DCFFE71898416C0020502981
:2047000003903ADBFFE71898416C026C00209142039032DCFFE71898816C0020322903901B
:204720002BDBFFE71898816C0020AF2252009142039022DCFFE71898C16C0020502903905A
:204740001BDBFFE71898C16C0020FA29039014DCFFE71898016D0020322903900DDBFFE7FA
:204760001898016D0020019001208D29029001DB0198029002980390FFE7039801210840E2
:2047800019A90870FFE719A800781AB080BDC046204E00004C04000070B588B00C460546FB
:2047A0000D980C9907AE357006AD2C800592049303AA117002A9087000F0F6F937490020F8
:2047C00008703749087003F0BFFA05F007FF002803D0FFE705F03CFEFFE70798314908703B
:2047E00006983149088004983049086005983049086005F005FA2F49086004982E490860CF
:2048000004982E49086003982D49087002982D4908702D490020019008802C4908802C49EB
:2048200008802C4908802C4908802C4908702C4908702C4908802C49086002A800780028F8
:2048400008D0FFE72949002008802949088029490870FFE7284804F0AFFE02F0C9FF04F0F7
:20486000ABFE2648009004F0A7FE002106A8405E02F01EFA009804F09FFE059802F018FAB7
:204880001F4804F099FE03A80078002803D0FFE705F06AFEFFE708B070BDC046E33A202097
:2048A000E23A2020D63A20209C3A2020183A2020143A2020F0392020F8392020E4392020DF
:2048C000E43A2020B83A2020763A2020803A2020783A2020823A20207E3A2020D53A202029
:2048E000D43A20207A3A20200C3A2020963A20205A3A2020C03A2020E6AD0000B7B10000D7
:2049000098B1000080B584B0024603A8027002910078002828D1FFE744480078002822D14F
:20492000FFE74348007800281DD1FFE741480078002818D1FFE745480078022813D3FFE79F
:20494000424901910878401E08703D49002008703F4804F031FE0198007802F0A9F93D48F2
:2049600004F02AFEFFE75EE003A80078012828D1FFE72E480078002822D1FFE72C480078F1
:2049800000281DD1FFE72B480078002818D1FFE72E480078092813D8FFE72C4900910878C3
:2049A000401C0870264900200870294804F004FE0098007802F07CF9264804F0FDFDFFE7FC
:2049C00031E01A48007800280AD1FFE718480078002805D1FFE717480078002803D0FFE78F
:2049E00003F09CFD1FE01448007800280DD0FFE71149002008700E490120087002980F4999
:204A00000860114804F0D8FD0CE00A490120087002980A4908600A4900200870094804F0AF
:204A2000CBFDFFE7FFE704B080BDC046D63A2020E23A2020DF3A2020E33A2020243A2020EB
:204A4000DE3A202089A9000033AA0000DC3A20202BAD000098B1000080B58EB0212004219F
:204A6000039105F08DF90120029001034A480A9005F0B0FA2220052105F082F902990A9890
:204A8000490305F0A7FA02980399002207920192C30409930093430408930F20049003F022
:204AA00023FF0399079A089B0998019200900E20059003F019FF049805F046F9059805F000
:204AC00043F91F200221069105F05AF90699202005F056F8352005F0A1FA362005F09EFA6F
:204AE000192005F09BFA182005F098FA312005F095FA0799089A099B0091322003F0BCFFE8
:204B00000799089A099B0091122003F0B5FF0799089A099B0091162003F0AEFF0799089AB6
:204B2000099B0091232003F0A7FF0799089A099B0091242003F0A0FF0799089A099B0091A0
:204B40001C2003F099FF0799089A099B00911D2003F092FF102005F061FA112005F05EFA58
:204B60000A9803210C9109060B9105F0DAFB0A980B9905F02FFA0C98010208480D9005F070
:204B8000D0FB0D98064905F06DFA0D98054905F021FA0EB080BDC04600000A4000200A4042
:204BA000300040003003400080B52A490020088029490880294908802949088029490870EA
:204BC0002949086029490880294908602949087029490860294908602949087029490870B5
:204BE000294908702949088029490880294908702949087029490870294908702949088035
:204C0000294908702949088029490860294908602949087029490870294908702949087054
:204C200029490870294908702949087029490880294908802949087029490880294A2A49F8
:204C400011802A4908602A49088005F033FC04F049FB80BD6C3A20208C3A2020743A20207A
:204C6000943A2020D63A2020143A20207A3A20200C3A2020E03A2020383A20203C3A20200C
:204C8000BD3A2020BE3A2020E73A2020AE3A2020A63A2020EB3A2020EA3A2020E93A2020D0
:204CA000E83A2020AC3A2020E63A20205C3A2020D0392020D4392020C53A2020C63A202021
:204CC000C73A2020C83A2020C93A2020CA3A2020C33A2020663A2020643A2020C23A202093
:204CE000623A20205E3A2020FF7F0000CC392020603A202080B588B0069005A80180069894
:204D0000002805D0FFE705A80088012804D8FFE707A9002008707BE0FFE73F4800883F4970
:204D20000988884270D0FFE73B48009002883C49895C04AA019211700088802104F0C2FB4F
:204D4000009A01460198118000780D2805D0FFE704A800780A2840D1FFE732480078002879
:204D600001D0FFE7D9E72F49012008702E480088002831D0FFE72C48018802A801800088EE
:204D800005A90988884205DBFFE70598401E02A90880FFE703A900200880FFE703A80088C3
:204DA00002A9098888420CDAFFE703A802881F48805C06998854FFE70398401C03A908801D
:204DC000ECE7069902A80288002088541649088007A9012008701BE015E01249002008701E
:204DE000114800883E2809D8FFE704980E490B880E4AD0540888401C088003E00A490020D9
:204E00000880FFE7FFE788E707A900200870FFE707A8007808B080BD9A3A2020983A20205F
:204E200020382020D23A20207C3A20204039202080B58EB00CAB18700B910AA802700B98CA
:204E400000280AD0FFE70AA80078002805D0FFE703F0AAFE002804D1FFE70DA90020087091
:204E600079E004F0DDFE3E4805900CA90122069203F024FB05983B4905F000F90598069B20
:204E8000002202920192022107910091232102F02FFD079802F0A2FB002804D1FFE70DA954
:204EA0000020087057E00AA80378002004900290042001900220009029482321012202F07F
:204EC00017FD049809A90870FFE709A800780AA90978884230DAFFE723480890FFE72048AA
:204EE00004F06AFF00281AD0FFE71D4805F02EFA8007002806D5FFE704F092FE0DA9002011
:204F0000087028E00898411E0891002806D1FFE704F086FE0DA9002008701CE0DFE71048B4
:204F200005F028FA0B9909AA12788854FFE70998401C09A90870C8E7012002F04FFB00285C
:204F400004D1FFE70DA90020087004E003F02CFE0DA90870FFE70DA800780EB080BDC04605
:204F600000200F40830400008813000080B596B049480F9005F08EF80F9805F023FA0F981A
:204F800004F01AF90F9804F0E7FA0023149300930120420410920E20194604F0C5FA109A3E
:204FA000149B00930F20194604F0BEFA3B4812900421119105F0ABF912980821139105F084
:204FC000A6F91199129805F0B6F91298139905F0B2F90520800105F05BFB149815A9087071
:204FE000FFE715A80078082817D8FFE72B480C9004210D9104F0E2FFA0200E9005F048FB54
:205000000C980D9905F097F90E9805F041FBFFE71598401C15A90870E3E7204803900821D7
:20502000049104F0CBFFA02005F032FB0398049905F081F90520800105F02AFB0022079219
:2050400001920120C10405910091430408930F2009900421069103F01FFC05980699079A5F
:20506000089B019200900E200A9003F015FC099804F05CFE0A9804F059FE07480B9005F0E3
:205080005DF80B9805F036F8102005F001FB03F027FB16B080BDC04600200F4000200A40DD
:2050A00010B58EB00C900BA801800AA90A800021405E002806DCFFE70C99002008610DA94D
:2050C000088079E0002201920BA80390805E0AA9895E401A09900C980069099A0A2151431A
:2050E0004018089008983749374A04F0D1F908900C980168099848437D21C900029103F0A3
:205100009FFB07900C984168089848432F4903F097FB019B02990246039806920C9A0C2461
:20512000145F04949268C05E504303F089FB014604984018079940180699401805900598E6
:20514000FF21F631884204DBFFE7099800280CDCFFE70598002804D5FFE70998002804D4BD
:20516000FFE708980C9908611DE00C98416800694843164903F064FB06900C980C21415EA6
:205180000091816800220BA8805E48437D21C90003F056FB014600984018079940180699DE
:2051A00040180590FFE705987D218A00002103F03BFC0DA90880FFE700210DA8405E0EB0B6
:2051C00010BDC046E05EF8FF20A1070040420F00B0B58EB005F05AF905903B4800680D9066
:2051E0003A4800680C90059805F046F90D98384A1168401A0B900C9836490B68C01A0A90B9
:205200000D9810600C9808600B98C117324A02920023049304F090FC049B0791069006983D
:2052200007992E4A039205F04FF9029A049B09900A98C11704F080FC039A049B079106905C
:205240000698079905F040F9089009982449884203DBFFE723480990FFE7089820498842F1
:2052600003DBFFE71F480890FFE700201E4B0093195E099D032214466C430919CC17A40F66
:2052800009198908198019490191085E089B5A438018C217920F80188008088005F0F6F88B
:2052A00000990246019805920988114A118000881049088010490868401C0860059805F0D8
:2052C000DBF80EB0B0BDC046003A20202C3A2020043A2020303A2020A0D9080010270000CA
:2052E000C5090000C4090000703A2020903A2020723A2020923A2020343A202080B58AB00A
:20530000024608A8027007910021069105AA117004AA117003AA117002AA1170079A1170F7
:205320000078002805D0FFE705F0A6F9002804D1FFE709A9002008806BE001A900200870B4
:20534000FFE701A8007807283BD8FFE708A8007801A9097804F0D8FD00282CD0FFE701A84F
:2053600001784A002D498A5E0699891806910599491C05AA11700078022804D8FFE704A9F1
:2053800001200870FFE701A80078052804D3FFE703A901200870FFE701A80078032805D037
:2053A000FFE701A80078042804D1FFE702A901200870FFE7FFE7FFE70198401C01A90870F2
:2053C000BFE705A80078002814D0FFE705A8007804280FD8FFE702A8007800280ED1FFE7E3
:2053E00004A80078002809D0FFE703A80078002804D0FFE709A9002008800AE00799012098
:205400000870069805A9097803F01AFA09A90880FFE7002109A8405E0AB080BDDCAC000031
:2054200080B592B010AB18800FA8059001800EA8028000210691425ED30FD21852100D9278
:20544000425E03205043820F801880100C903A48405E50218C2203F0E7FA069902460BA8F4
:205460000280415E3C20079046205A29089001DC0798089005980699089A0AAB1A80405EB8
:205480000D99884206DDFFE700210EA8405E002804DCFFE7109811A9088047E000210FA887
:2054A000405E0C99884216DBFFE7002210A8805E0AA9895E884205DAFFE7002110A8405EB0
:2054C000049004E000210AA8405E0490FFE7049811A908802AE0002202920BA8805E0390A7
:2054E0000AA9895E411A0FA8805E0D9A801A48430C99891A03F0A4F9029A01460398401AA6
:2055000009A9088010A8805E895E884205DAFFE7002110A8405E019004E0002109A8405EE9
:205520000190FFE7019811A90880FFE7002111A8405E12B080BDC046AA3A202080B588B025
:205540000790354804F038F8079801F0B1FB3348049004F031F802F04BF904F02DF80498C0
:2055600004F02AF8002103912D48405E01F0A0FB049804F021F803992A48405E01F098FBE8
:20558000049804F019F804F0DDF901F091FB049804F012F804F0EAF901F08AFB049804F0AC
:2055A0000BF803992048405E01F082FB049804F003F803991D48405E01F07AFB049803F0B9
:2055C000FBFF1B4801781B481B4A05920029069001D105980690069803F0EEFF174803F002
:2055E000EBFF1748007801F063FB164803F0E4FF04F038FF01461448144A019200290290ED
:2056000001D101980290029803F0D6FF104803F0D3FF08B080BDC04694AF0000B7B1000068
:20562000743A2020943A20206C3A20208C3A2020E33A202074B00000EAB00000ECAC0000CF
:20564000DC3A202029B00000F9B0000032B1000098B1000082B000900098806840498842B1
:2056600040DCFFE70098C0683D4988423ADCFFE7009800693A49884234DCFFE70098406997
:20568000374988422EDCFFE7009880697D21C900884227DCFFE70098C0697D21C900884243
:2056A00020DCFFE70098006AE1214900884219DCFFE70098406AE1214900884212DCFFE7EB
:2056C0000098806A274988420CDCFFE70098C06A4F21C943884205DBFFE70098C06A512837
:2056E00004DBFFE701A90020087034E000988068002828D4FFE70098C068002823D4FFE740
:205700000098006900281ED4FFE700984069002819D4FFE700988069002814D4FFE700983D
:20572000C06900280FD4FFE70098006A00280AD4FFE70098406A002805D4FFE70098806AB6
:20574000002804D5FFE701A90020087003E001A901200870FFE701A8007802B07047C04684
:20576000B80B00008813000080B594B0014613A80C900170007800210F9104F0C5FB01460F
:205780000C98019100780121079104F0BDFB019902460C988918029100780221099104F012
:2057A000B3FB029902460C9889180391007803210B9104F0A9FB039902460C9889180491F1
:2057C0000078042104F0A0FB049902460C98891805910078052104F097FB059902460C982F
:2057E000891806910078062104F08EFB069A0F9903460C98D21812AB0E931A70007804F0E2
:2058000083FB079902460C980892007804F07CFB089A099903460C98D2180A92007804F0DE
:2058200073FB0A9A0B9903460C98D2180D92007804F06AFB0D9A0E9903460F98D21811AB87
:205840001A7009780529109010D3FFE711A8017800200329109009D3FFE713A8007806216C
:2058600004F052FB414248411090FFE710980121084014B080BD7047F0B5394A8218394B45
:20588000C0183A4D4C790B79002C22D0466F202B02D00524E70100E0354F2E40002B00D191
:2058A00088273E434667846F2C403C438467446B2D4E34404463846B3440846300244465E6
:2058C000846554688F26F643344054609468344094600C688979202B09D006467036002BF2
:2058E00015D1641E4460C46E2C40882715E0641E4460C46E2C401E4E3443C466046F2C40AA
:20590000344304671B4D01246707064607E00527FF0164084460C46E2C403C43C466346858
:205920002C403C433460C46A0F4D2C40C462046B2C4004630024C4640465C46F8F25ED43BE
:205940002C40C46714682C401460194302680A4B1340BD220A40D118891C0160F0BDC0461B
:2059600084180000041800008888FDFF24493E0001040000FFFFFFCF4000FFCF80B588B06C
:205980000020079006900590049003A9087004F015F803F071FB02F03DFC03F031FA03F0D1
:2059A000B7F802F0F7FA02F06FFEFEF7D1F804F0EBFD1520019003F09DFE019803F0F2FE8C
:2059C0002C4804F01BFC62B6FFE702F0EFFB04F059FE0699401A052806D3FFE704F052FEFA
:2059E000069004F085F8FFE703A80078002816D1FFE704F047FE2049884210D3FFE7FFF777
:205A0000B5FA03F085F802F0C5FA04F03BFE059003A901200870194803F0CEFDFFE704F0B6
:205A200031FE0499401A0A2806D3FFE704F02AFE049003F0A9FDFFE703A80078002811D0F4
:205A4000FFE704F01FFE0599401A0A280AD3FFE704F018FE059002A800F008FA0598FEF795
:205A600083FBFFE704F00EFEFEF758FC04F084FDABE7C0460000874070170000A2AB0000D1
:205A800080B588B006AB187005A801700492394803900498002804D1FFE707A900200870D1
:205AA00064E003F0A7F8002807D1FFE733490620087007A90020087058E004F0C1F82E486D
:205AC000029005A90122019202F0F8FC019B029806A90978002202F02FFF02F0C7FA002867
:205AE00005D0FFE703F086F8002804D1FFE707A9002008703AE006A801781F4801231A4623
:205B000002F01AFFFFE71C4804F064F900281BD0FFE7194804F024FC8007002806D5FFE701
:205B200004F08EF807A9002008701FE00398002806D1FFE704F084F807A90020087015E077
:205B40000398401E0390DEE70B4804F01DFC0499087002F08BFA002804D1FFE707A9002055
:205B6000087003E007A901200870FFE707A8007808B080BD8813000000200F40BF3A20203C
:205B8000B0B53A4A80184A6842600A78222A56D8930001A4E3589F46355C00003F5C0000B0
:205BA000355C00003F5C00003F5C00003F5C00003F5C00003F5C00003F5C00003F5C000017
:205BC0003F5C00003F5C00003F5C00003F5C00003F5C00003F5C0000255C00003F5C000007
:205BE000255C00003F5C00003F5C00003F5C00003F5C00003F5C00003F5C00003F5C0000E7
:205C00003F5C00003F5C00003F5C00003F5C00003F5C00003F5C0000255C00003F5C0000C6
:205C2000255C0000036803242407A343012464071B1903E0036803242407A34303600B691F
:205C4000C360CB68C46A0A4D25400A4C1C402B19C3620368084C1C400460097A1143026829
:205C60003F239A43194051180160B0BD041800008888FDFF777702007F00FFFF80B584B057
:205C80000390304803F098FC03982F490968401A01F00EF82D48019003F08EFC0021029166
:205CA0002B48405E01F004F8019803F085FC02992848405E00F0FCFF019803F07DFC03F04D
:205CC00041FE00F0F5FF019803F076FC03F04EFE00F0EEFF019803F06FFC02991E48405EF1
:205CE00000F0E6FF019803F067FC1C48007800F0DFFF019803F060FC1948007800F0D8FFAE
:205D0000019803F059FC02F037FC00F0D1FF019803F052FC1348007800F0CAFF019803F0CB
:205D20004BFC1148007800F0C3FF019803F044FC02990E48405E00F0BBFF0D4803F03CFC14
:205D400004B080BD6AB10000183A2020B7B10000743A2020943A2020763A2020D43A202003
:205D6000D53A2020DE3A2020E03A2020AC3A202098B1000080B588B007900798374909681F
:205D8000884201D1FFE766E0079834490A68801A05900798086005981A2803D3FFE71920A3
:205DA0000590FFE706A900200870FFE706A80078022850D8FFE706A8017806224A43284990
:205DC00089180491007802F073F8014603A80170007804990978884214D1FFE70498808886
:205DE00005994018029002981E49884203D3FFE71D48019002E002980190FFE70198049975
:205E0000888006E0039804990870049900208880FFE704988088192804D3FFE7039804995F
:205E20004870FFE70498807800280BD1FFE704984078002806D0FFE706A800780799FEF753
:205E400061FDFFE7049948788870FFE70698401C06A90870AAE708B080BDC046DC392020C1
:205E6000A839202061EA000060EA000080B582B001906946002008700198002801D1FFE7B4
:205E800063E0334800785D281BD1FFE731480078002816D0FFE7684604F002FB00280CD0ED
:205EA000FFE76846007803F083F82B4800780199087001990120487047E0264900200870CA
:205EC000FFE703F08FFD014621480170007800280CD1FFE7042001F009FC1F480078019946
:205EE00008701E480078019948702EE0184800785D280CD0FFE7072001F0F8FB16480078EC
:205F00000199087015480078019948701DE0684604F0C6FA00280CD0FFE76846007803F0E6
:205F200047F80D480078019908700199012048700BE0052001F0DAFB074800780199087021
:205F40000648007801994870FFE702B080BDC046C13A2020CB3A2020D83A2020D33A20202F
:205F600080B5B6B036480290007848210491414334480390401800F07FFD02980399049AD5
:205F8000314B0A9303230B93A8230C9300780D900AA80590103004F081FB0399049A0598D7
:205FA0005830483104F07AFB059800222749895E329102F023FA3390EFF3108035903598C8
:205FC000089072B62248069003F0E0F906987F21890207910122520200F070FA06980799C5
:205FE000402203F0DFFF014609A80170007803280DD1FFE70120400200907F20810214482D
:206000000AAA2A2301F0B4FB09A90870FFE70898002802D1FFE762B6FFE709A800780328FC
:2060200004D0FFE734A90020087004E0FCF7B8FF34A90870FFE734A8007836B080BDC046EB
:20604000533A20209037202031444950683A202000D00C4080B586B005902F480078002849
:2060600006D0FFE72D480088C0084B2801D3FFE750E02A4801900088162141432848401834
:20608000049003F05FFC03A9088003F06FFC02A90880059823490968401A0021224A03F005
:2060A000F7F90499088021490888049A508020480288049B9A80039A049BDA80029A049BE7
:2060C0001A811C4A1288049B5A811B4A1288049B9A810988039A891A049AD181008802990E
:2060E000401A0499088203F06BFD009003F078FD01460098401A1149114A02F095FC0499BE
:20610000488202F039FA0199049A90820888401C0880FFE706B080BDB83A2020963A2020B7
:2061200000002020183A2020FFFF0000743A2020943A20206C3A20208C3A20200080FFFF29
:20614000FF7F000080B582B00190304803F034FA0198008800F0ACFD2D4803F02DFA01984E
:206160000221405E00F0A4FD2A48009003F024FA01980421405E00F09BFD009803F01CFA35
:2061800001980621405E00F093FD009803F014FA01980821405E00F08BFD009803F00CFA1F
:2061A00001980A21405E00F083FD009803F004FA01980C21405E00F07BFD009803F0FCF938
:2061C00001980E21405E00F073FD009803F0F4F901981021405E00F06BFD009803F0ECF951
:2061E00001981221405E00F063FD0B4803F0E4F901981421405E00F05BFD084803F0DCF9F6
:20620000074803F0D9F902B080BDC046EFB0000092B00000B7B10000A4AF0000FFAF00002B
:2062200098B1000080B584B00390A02001F0E8FE002801D1FFE759E02D4803F0BDF90398B0
:20624000C06900F035FD2B48009003F0B5F9039841782948294A01924C29029001D0019813
:206260000290029803F0A8F90398808A00F020FD009803F0A1F90398006B00F019FD0098E3
:2062800003F09AF903982421405E00F011FD009803F092F90398C08A00F00AFD009803F07F
:2062A0008BF90398806B00F003FD009803F084F90398006C00F0FCFC009803F07DF9039851
:2062C000006A00F0F5FC009803F076F90398008B00F0EEFC009803F06FF903984821405CE6
:2062E00000F0E6FC064803F067F9FFE704B080BD86B10000B7B10000AAB100009BB100000E
:2063000098B1000080B586B005AB187004A80180039228480078012803D0FFE7FEF744FCD0
:20632000FFE725490020087024490870214A01211170234908802349088005A800784C28FD
:2063400004D1FFE704981E49088010E005A80078522804D1FFE704981A49088006E00498A4
:2063600017490880049817490880FFE7FFE703981549086003981549086000221048805ECB
:206380001049895E00F0E4FD114803F015F904F069F801460F48104A01920029029001D125
:2063A00001980290029803F007F90C4803F004F906B080BDD63A2020E33A2020E23A2020E5
:2063C0006C3A20208C3A2020183A2020E83920209BAD0000F9B0000032B1000098B10000C1
:2063E00089B007900691002005900121049103A90870079800782D2807D1FFE70020C04359
:2064000004900798401C079009E0079800782B2804D1FFE70798401C0790FFE7FFE7FFE704
:20642000079801780020302902900DDBFFE7079801780020009001203A29019001DB00981A
:20644000019001980290FFE70298C007002818D0FFE703A90120087005981749884204DB58
:20646000FFE708A90020087022E005980A214143079800784018303805900798401C0790A1
:20648000CEE703A80078002805D0FFE707980078002804D0FFE708A90020087008E0059979
:2064A000049848430699086008A901200870FFE708A8007809B0704701C2EB0BF0B583B055
:2064C00002920190304B314D00918C0A28680727384005262E60196889048A0F28602968C8
:2064E00039402E6018682960002A214608D028490840511C02F020FE0146204602F01CFE34
:206500000198204A801801902A683A402E601E4803682A602A683A402E6003682A600122A8
:2065200093020298984207D0530298420CD10098C30B0BD1019803E01F210C40019840301C
:20654000A24001689143016003B0F0BDFF290DD82B683B402E600C4C24682B60A3049B0FF2
:20656000019800D12039CC08001DE9E71302FF339942E9D2FF23DB43C918CC0801980830F4
:20658000DEE7C046D01100001800C44100134040FF0F000080B58CB00AA90591088000212E
:2065A00003912F48405E50210291DC2202F03CFA0299039A09AB18802A48805E8C2202F094
:2065C00033FA039A08A908804B21880007AB049318802548805EFA38C9001922520102F01D
:2065E00023FA03990246059806AB1A80405E02F0FBFF039A0499034605980380805E895EC0
:20660000884204DCFFE709980BA9088023E000220AA8805E06A9895E884204DBFFE7089893
:206620000BA9088017E0002308A8C15E019109A8C05E421A06A8C15E0AA8C05E081A504326
:2066400007AAD25E891A02F0FBF80146019840180BA90880FFE700210BA8405E0CB080BD0C
:20666000A43A2020AA3A20209E3A2020FCB40127FF07794002E0FCB40127FF070C024D000E
:206680002D0E03D1002C52D1FCBC70473C43FF2D50D0A408002900D56442020243001B0EA2
:2066A00004D1002A43D10800FCBC70473A43FF2B41D09208002800D552425E1B04D5170004
:2066C00022003C0076422B00192E06D527003741D2191C27F71B7F42BC40002A27D002D5C3
:2066E0005242012700E00027013B5200FCD51500802635400FD01500202635402C43803278
:2067000008D21500402635402C4304D101263602B24300E05B1C5200023308DDFF2B0BD24D
:20672000500ADB051843FF073843FCBC70470020FCBC70470800C70FFF07FF20C005384302
:20674000FCBC704780B586B003F072FF002804D1FFE7304802F030FF49E003F051FF05A965
:206760000091088003F058FF04A90191088003F04DFF03A9029108801E4802F01DFF0098DD
:20678000008800F095FA1C4802F016FF0098008802F058FF00F08CFA184802F00DFF0198B1
:2067A000008800F085FA164802F006FF0198008802F048FF00F07CFA124802F0FDFE0298EC
:2067C000008800F075FA104802F0F6FE0298008802F038FF00F06CFA0C4802F0EDFE03F0CF
:2067E00021FF00F065FA0A4802F0E6FEFFE706B080BDC04649AD00009CAF000069AF0000CA
:2068000044AE00007BAF000091AE000004AF000059AB000072AC000080B588B007900691AD
:2068200005A8027004A900200870FFE7079801780020002903900FD0FFE704A8017805A883
:2068400002780020019001209142029001DB0198029002980390FFE70398C007002841D0D2
:20686000FFE7FFE70798007802F0B2FF002804D0FFE70798401C0790F4E707980078002804
:2068800001D1FFE72EE00798069A04A90B789B00D0500498401C0870FFE70798017800207A
:2068A0000029009008D0FFE70798007802F090FF414248410090FFE70098C007002804D0EC
:2068C000FFE70798401C0790E7E707980078002807D0FFE70799002008700798401C0790AC
:2068E000FFE7A3E704A8007808B080BD80B586B0059000200490642001F082FB002801D16F
:20690000FFE74BE00598808A002809D0FFE7059A906AD16A928A002303F0D6FD0490FFE785
:206920001F4802F049FE0598C06900F0C1F91D48019002F041FE059841781B481B4A02926E
