:20000000008020203184000025840000258400000000000000000000000000000000000019
:200020000000000000000000000000002584000000000000000000002584000025840000C5
:2000400025840000B5660000258400002584000025840000258400002584000025840000E6
:2000600000000000258400002584000000000000000000002584000039650000258400003E
:200080002584000025840000258400002584000025840000B17900000000000000000000E9
:2000A0002584000025840000000000000000000025840000000000002584000025840000F3
:2000C00010B59CB01B901A911B9807F026FB1B9815A9052204F0D0FD014614A801700078A9
:2000E000002802D1FFE700F087FE14A8007801280CD1FFE71598FE4905F064FD002805D043
:20010000FFE7FC4807F0FEF900F076FE14A8007802281CD1FFE71598F74905F053FD0028D8
:2001200015D0FFE7169813A904F060FC00280ED0FFE7139800280AD4FFE71398F749884202
:2001400005DCFFE7139805F0D5FA00F054FE14A8007801280BD1FFE71598F14905F032FDFD
:20016000002804D0FFE707F0ADFA00F043FE14A80078012821D1FFE71598EA4905F022FDA5
:2001800000281AD0FFE7E84900200D90087004F0A7FE0D98E5490870E5490870E5490870D1
:2001A000E5490870E5490870E5490870E5490870E54807F0A7F900F01CFE14A8007801287C
:2001C0000CD1FFE71598E14905F0FCFC002805D0FFE71A9803F03AFE00F00AFE14A80078AC
:2001E00001280BD1FFE71598D94905F0EBFC002804D0FFE705F090F900F0F9FD14A80078EF
:2002000001280BD1FFE71598D24905F0DBFC002804D0FFE704F0C8FE00F0E8FD14A80078BA
:2002200001280BD1FFE71598CB4905F0CBFC002804D0FFE702F086FD00F0D7FD14A8007807
:20024000022842D1FFE71598C44905F0BBFC00283BD0FFE7169813A904F0C8FB002834D0AF
:20026000FFE71398002830D4FFE71398AB4988422BDCFFE7BA480078002826D1FFE713985B
:200280001090B848007800280CD0FFE7B64800681099884206D1FFE71098B449097806F0AA
:2002A000B1FB10E007F00EF803F0D8FAAF4908701098AD4A1060AB4A0120107010980978A2
:2002C00006F0A0FBFFE700F08FFD14A8007801281DD1FFE71598A14905F074FC002816D0F0
:2002E000FFE79F480078002811D1FFE706F0EAFF03F0B4FA002804D0FFE79D4807F002F990
:2003000003E09C4807F0FEF8FFE700F06CFD14A8007801281DD1FFE71598974905F052FCE9
:20032000002816D0FFE78E480078002811D1FFE701F028FF002806D0FFE7904807F0E2F8E6
:2003400002F000FD03E08E4807F0DCF8FFE700F049FD14A80078012811D1FFE7159889496A
:2003600005F030FC00280AD0FFE77D480078002805D1FFE71A9806F09FFC00F032FD14A835
:20038000007802281ED1FFE715987F4905F01AFC002817D0FFE716987C4905F013FC0028D2
:2003A00010D0FFE76149012008706149002008701A9877490860774807F0A4F807F0A6FF2A
:2003C00000F00EFD14A8007802281CD1FFE715986D4905F0F7FB002815D0FFE716986E494F
:2003E00005F0F0FB00280ED0FFE75049002008704F49012008701A9865490860674807F061
:2004000081F800F0ECFC14A80078022818D1FFE715985D4905F0D6FB002811D0FFE71698A8
:200420005F4905F0CFFB00280AD0FFE73F49002008703F4908705B4807F064F800F0CEFC9D
:2004400014A80078022863D1FFE71598564905F0B9FB00285CD0FFE7169813A904F0C6FAD7
:20046000002809D0FFE71398002805D4FFE713982A49884204DDFFE74C4807F043F845E069
:2004800029480078002810D0FFE713982649C96988420AD1FFE7464807F034F8139804F05E
:2004A00043FE444807F02EF82FE043480078002806D0FFE713984149C969884205D0FFE770
:2004C00013983F4906F044FD1EE03C480078012804D1FFE7394804F09FFC14E037480078D9
:2004E00002280BD1FFE7354804F0A2F90AE0C046BD8B0000F78A0000738B0000314807F0DD
:2005000001F8FFE7FFE7FFE7FFE7FFE700F065FC14A80078042857D0DCE0C046FFFFFF7F4E
:20052000038C0000FE8B0000B03320207635202056352020033520205C3520207535202097
:200540007435202071352020468A00004B8B0000058B0000518C0000918B0000E08B000032
:200560006935202061352020A0342020603520205A8A0000128A0000A98B0000508A000050
:20058000DB890000088C00001A8B0000888C0000AC342020E6880000D68B000093880000A0
:2005A000658C0000D6880000E88A0000A4880000758C0000828C0000643520206033202093
:2005C000E08A0000138900001598FD4905F0FAFA00287FD0FFE7169813A904F007FA002855
:2005E00078D0FFE7179812A904F000FA002871D0FFE7189811A904F0F9F900286AD0FFE78E
:2006000013988121C943884264DBFFE71398822860DCFFE7129832285CDBFFE71298192116
:200620000901884256DCFFE71198002852D4FFE71198E44988424DDCFFE711980F90E248D0
:20064000007800280BD0FFE7E04800680F99884205D1FFE70F98DE4906F032FC39E0DD484B
:20066000007805280AD0FFE7DA48007806282AD1FFE7D9480078002825D1FFE7D748007838
:20068000002808D0FFE70021D548405E06F052FF052805DBFFE70F98D24906F011FCABE30B
:2006A0001398D14908801A9812994018CF4908600F98C6490860C449012008700F98C44940
:2006C00006F0FEFB04E00F98C64906F0F9FBFFE7FFE781E314A80078032851D1FFE7159863
:2006E000B74905F06FFA00284AD0FFE7169813A904F07CF9002843D0FFE7179812A904F022
:2007000075F900283CD0FFE713988121C943884236DBFFE71398822832DCFFE712983228EA
:200720002EDBFFE7129819210901884228DCFFE7AA480078002823D0FFE70021A848405E0E
:2007400006F0F8FE04281BDCFFE7A248007805280AD0FFE79F480078062811D1FFE79E481A
:20076000007800280CD1FFE713989F4908801A98129940189D4908609D4806F0C3FE2AE34F
:2007800014A80078032838D1FFE71598994905F019FA002831D0FFE7179813A904F026F9E7
:2007A00000282AD0FFE71398002826D4FFE713989B218900884220DCFFE716988E4905F068
:2007C00001FA00280ED1FFE716988C4905F0FAF9002807D1FFE71698894905F0F3F9002857
:2007E0000BD0FFE78748002202701698007813A9895E1A9A04F08CF8ECE214A800780528B1
:2008000055D1FFE71598804905F0DCF900284ED0FFE71698784905F0D5F9002807D1FFE748
:200820001698764905F0CEF9002840D0FFE7179813A904F0DBF8002839D0FFE7189812A9BD
:2008400004F0D4F8002832D0FFE7199811A904F0CDF800282BD0FFE71398002827D4FFE7E7
:2008600013989B218900884221DCFFE712987D21C90088421BDBFFE712987D210901884208
:2008800015DCFFE71198002811D4FFE711984D4988420CDCFFE716980078002213A9895E23
:2008A000129A119B1A9C009404F0F0FC91E214A80078052854D1FFE71598544905F082F91D
:2008C00000284DD0FFE716984B4905F07BF9002807D1FFE71698494905F074F900283FD083
:2008E000FFE7179813A904F081F8002838D0FFE7189812A904F07AF8002831D0FFE7199893
:2009000011A904F073F800282AD0FFE71398502826DBFFE713984B21C900884220DCFFE720
:2009200012987D21890088421ADBFFE712983849884215DCFFE71198002811D4FFE7119830
:20094000204988420CDCFFE716980078002213A9895E129A119B1A9C009404F0E9FC37E217
:2009600014A80078042857D1FFE71598294905F029F9002850D0FFE7179813A904F036F818
:20098000002849D0FFE7189812A904F02FF8002842D0FFE7129800283ED4FFE712980949C4
:2009A000884239DCFFE71698139900F05FFE002832D0FFE712981699139A05F0FFFE06E2DB
:2009C000EA8B0000FFFFFF7F5F352020943420207F8C00006935202072352020683520209D
:2009E000183520204D8C00001C352020C03420203C8A0000718C0000988C0000968C0000C3
:200A00009A8C0000B0332020A48A0000898A0000983A0000298C000014A8007803281BD17A
:200A2000FFE71598FB4905F0CDF8002814D0FFE7179813A903F0DAFF00280DD0FFE7169863
:200A4000139900F013FE002806D0FFE7EB4806F059FD02F077F9B9E114A80078042852D107
:200A6000FFE71598EC4905F0ADF800284BD0FFE71698E54905F0A6F8002807D1FFE71698E8
:200A8000E24905F09FF800283DD0FFE7179813A903F0ACFF002836D0FFE7189812A903F009
:200AA000A5FF00282FD0FFE7139850282BDBFFE713984B21C900884225DCFFE712987D219D
:200AC000890088421FDBFFE71298D14988421ADCFFE7E54900200A900870169801780220D0
:200AE00003220B924C290C9001D00B980C900A9C0C9813A9095F129A1A9B019401240094F6
:200B000002F06EFB61E114A8007803284AD1FFE71598C24905F056F8002807D1FFE715984A
:200B2000BF4905F04FF800283CD0FFE7169813A903F05CFF002835D0FFE7179812A903F02F
:200B400055FF00282ED0FFE7139850282ADBFFE713984B21C900884224DCFFE712987D214F
:200B6000890088421EDBFFE71298A949884219DCFFE71598AA4905F025F8014605200422BE
:200B800008920029099001D1089809900998002413A9095F129A1A9B01940124009402F064
:200BA0001FFB11E114A80078042800D081E015989C4905F007F800287BD0FFE7169813A94F
:200BC00003F014FF002874D0FFE7179812A903F00DFF00286DD0FFE7189811A903F006FFA7
:200BE000002866D0FFE71398502862DBFFE71398E121490088425CDCFFE71298012858DB87
:200C0000FFE712980A2854DCFFE71198002850D4FFE711987A4988424BDCFFE711980E9097
:200C20008B480078002817D0FFE78A4800680E99884211D1FFE70E980590874801788748AF
:200C4000874A06920029079001D1069807900598079906F059F92BE06A480078002805D0AD
:200C6000FFE70E987F4906F04FF920E0002113A8405E12A909781A9A01F0D8FC01467648AE
:200C800001700E99734A1160714A012111700E99029101787148724A03920029049001D164
:200CA000039804900298049906F02EF9FFE7FFE789E014A80078032837D1FFE715985949E0
:200CC00004F080FF002830D0FFE7169813A903F08DFE002829D0FFE7179812A903F086FEC3
:200CE000002822D0FFE7139850281EDBFFE71398E1214900884218DCFFE71298012814DB96
:200D0000FFE712980A2810DCFFE7002113A8405E12A909781A9A01F089FC002804D1FFE77C
:200D20004A4806F0EFFBFFE74CE014A80078032843D1FFE715983C4904F044FF00283CD039
:200D4000FFE7169813A903F051FE002835D0FFE7179812A903F04AFE00282ED0FFE7139892
:200D600050282ADBFFE713984B21C900884224DCFFE712987D21890088421EDBFFE712985C
:200D80002349884219DCFFE71E480078002814D1FFE71398264908801298264908602649DF
:200DA000012008702549002008702549087025490870254806F0A6FB03E01C4806F0A2FBEA
:200DC000FFE7FFE7FFE7FFE7FFE7FFE7FFE7FFE7FFE7FFE7FFE7FFE7FFE7FFE7FFE7FFE7B3
:200DE000FFE7FFE7FFE7FFE7FFE7FFE7FFE7FFE7FFE7FFE7FFE7FFE71CB010BD808A000088
:200E0000FFFFFF7F69352020988C0000968C0000983A0000298C0000C78B0000218C0000AC
:200E2000B88B0000FE8A00000D8C000083870000043520207C342020753520207435202008
:200E4000763520200335202074860000F386000063352020A8342020623520207F8C0000E6
:200E60004D8C0000D18B0000B0332020B0B5BAB0399006F013FE3890FB480078022815D0E9
:200E8000FFE7F9480078032810D0FFE7F648007804280BD0FFE7F4480078052806D0FFE782
:200EA000F1480078062801D0FFE7A8E33898EF490968884201D1FFE7A1E33898EB49086026
:200EC000399800F003FE002801D0FFE797E3E6480078022808D1FFE7E5480088E5490880FD
:200EE000E5490020088060E3DF480078032808D1FFE7E04900200880DD480088DE49088023
:200F000052E3D9480078052805D0FFE7D6480078062800D0C0E2D648008835A90880399808
:200F2000D6490968401A3090CF48007806280AD1FFE7D3480078042805D1FFE7D14800886D
:200F400035A9088010E03098CF4988420BD8FFE70021C748415E30984843CC4906F082F821
:200F600035A90880FFE7FFE707F034FA01467F200140C7480170007831A902F0D5FEC5494E
:200F800008803198C4490870B7480078062800D093E0BB48007800284DD1FFE705F068FA95
:200FA0000146BE4801800022805EBD49895E884206DAFFE7BB4900200870BB49087039E0B5
:200FC000B8480078072811D8FFE7B148007804F0F3FE002805D0FFE7B2490878401C087013
:200FE00003E0B04900200870FFE722E0A848007804F09CFF00280BD0FFE7AB480078FF2823
:2010000005D0FFE7A8490878401C0870FFE703E0A54900200870FFE7A3480078022807D334
:20102000FFE7399804F0DAF8399800F04FFDE6E2FFE7FFE740E09248007804283BD1FFE702
:2010400039989A490968401A2F902F98782812D3FFE78F48007804F0AFFE00280BD0FFE747
:2010600093480078FF2805D0FFE791490878401C0870FFE703E08E4900200870FFE78C481B
:20108000007803280CD3FFE7399801F085FD002801D0FFE7B3E27648008835A9088009E09B
:2010A0002F984009192804D3FFE7824806F094F8A5E2FFE7FFE7FFE7FFE731A8007800283E
:2010C00000D156E173481B9000211A91405E06F031FA1A992EAA1892108077481990405E4C
:2010E00006F028FA1A9902461B982DAB1A802CABA0221A8000882AAA108029AA082010800E
:201100006E48006828906E480068279035A8415EFF225432012091421C9001DC1A981C9026
:201120001A9A19991B981C9B26AC237000880988401A32A91791088062481690805E40008E
:20114000895E4018032105F091FB169A179B1A9904461898148012881A80405E022805DC2B
:20116000FFE72AA900200880289028E000212EA8405E042806DCFFE72898C10F401840108D
:2011800028901BE000212EA8405E0A2815DBFFE726A80078002809D0FFE728990520484361
:2011A000C117890F40188010159003E0289840001590FFE715982890FFE7FFE7FFE700228B
:2011C0002EA8805E2DA9895E884208DAFFE7279903204843C10F40184010279008E02799C7
:2011E00003204843C117890F401880102790FFE700212EA8405E022803DCFFE700202790F1
:20120000FFE726A8007800285ED0FFE700212EA8405E042812DCFFE72CA92D200880002106
:201220002EA8415E0A20052213920329149001DB13981490149829A9088014E000212EA857
:20124000405E0A2807DBFFE72CA97D20088029A91220088006E02CA95A20088029A90820B9
:201260000880FFE7FFE753E069352020A43420203A3520201635202032352020CC342020D0
:201280007235202040352020DB050000DC0500006735202018352020683520200C3520202A
:2012A00008352020593520205A352020EC342020793520207088000022352020C4342020FF
:2012C000BC3420201A35202000212EA8405E042812DCFFE72CA92D20088000212EA8415E7A
:2012E0000A20052211920329129001DB11981290129829A908800AE000212EA8405E0A2850
:2013000004DBFFE729A912200880FFE7FFE7FFE72899002310932AA8C05E4843279A32A92C
:20132000C95E514340187D21C90005F09FFA109A2CA98A5E514209B205F08CFB109B014682
:201340002BA80180C05EBD490F91CA5E29A9CB5ED11AD21809B212B205F07CFB0F9A0146A2
:2013600010981180B2490988B94A1180B149088038E0B0480088B049884205D8FFE7AD497E
:2013800008880A300880FFE7AA480088C0084B2813D3FFE79B480078062804D1FFE7AB485D
:2013A00005F01AFF08E003F09BFDA64900200870A54806F0A7F8FFE721E19E4800886428C1
:2013C0000FD3FFE79D48002101809D48018035A8405E652804DBFFE735A964200880FFE7BB
:2013E000FFE7FFE79548008833A9088000219948405E002816D0FFE7974800683999401A51
:2014000001280FDBFFE7002233A80E90805E9149895E40189F21C943A02205F01BFB0E9901
:20142000088005E08B49002008808B490860FFE73599143934A801800021405E002804D569
:20144000FFE734A900200880FFE700220B9233A80A90805E34A98A5E514209B205F0FAFA2D
:201460000A9A0B99108035A80D90405E525E80184B22D2000C9205F0EDFA0A9B0B990C9A8C
:2014800004460D98684D2C80405E5B5EC01A05F0E1FA6649088086E05B48008825A90880DD
:2014A00006F0DCFA089006F0E9FA01460898401A249006F0D3FA099006F0E0FA01460998E6
:2014C0004018C10F401840102390239900224F48805E48434E4905F0C9F922902498229934
:2014E000401A219039984B490968401A1D901D98494988420BD8FFE700214348415E1D982A
:201500004843464905F0AEFD25A90880FFE7002125A8405EC20F801842081FA80280405EAF
:201520003D2804DBFFE71FA93C200880FFE73C4800681E901D983849884208D8FFE71E98D9
:2015400040000021374A05F079FF1E90FFE71E99219848437D21C90005F088F90022059217
:201560001FA98A5E514209B205F074FA059920AA0492108025A80790405E525E801A4B22C3
:20158000D200069205F066FA049B0599069A04460798254D2C80405E5B5EC01805F05AFA30
:2015A00022490880FFE7FFE7FFE706F02FF937A90091088006F03EF90146009836AA0192F0
:2015C0001180002202921849895E825E234802F07DFA029A01460198214B03931980134955
:2015E000895E825E1F4802F071FA029A034603981D490B80805E895E03F03EFFFFE73AB02A
:20160000B0BDC046693520203A3520202835202010270000CC342020DB050000DC050000F5
:20162000F434202088130000163520203235202018352020203520205FEA00002435202071
:201640001A35202076352020F8870000648A0000223520201C352020C03420204034202093
:201660000E352020543420202A35202080B584B0029001910298F24904F0A4FA002811D083
:20168000FFE70198002805D4FFE70198EA49884204DBFFE703A900200870C8E10198E749D3
:2016A0000860BEE10298E74904F08CFA002811D0FFE70198002805D4FFE70198DE498842E6
:2016C00004DBFFE703A900200870B0E10198FC494860A5E10298DC4904F074FA002811D03A
:2016E000FFE70198002805D4FFE70198F649884204DBFFE703A90020087098E10198EF498F
:2017000008608CE10298D14904F05CFA002811D0FFE70198002805D4FFE70198EA498842F1
:2017200004DBFFE703A90020087080E10198E349486073E10298C64904F044FA002811D09A
:20174000FFE70198002805D4FFE70198DD49884204DBFFE703A90020087068E10198D8498E
:2017600088605AE10298BB4904F02CFA002811D0FFE70198002805D4FFE70198D1498842A2
:2017800004DBFFE703A90020087050E10198CB49886041E10298B04904F014FA002812D0B9
:2017A000FFE70198002806D4FFE70198FF21C431884204DBFFE703A90020087037E1019890
:2017C000BF49888127E10298A44904F0FBF9002812D0FFE70198002806D4FFE70198FF2157
:2017E000C431884204DBFFE703A9002008701EE10198B24988810DE10298994904F0E2F94C
:20180000002811D0FFE70198002805D4FFE70198A849884204DBFFE703A90020087006E115
:201820000198A5490860F4E002988E4904F0CAF9002812D0FFE701984F21C943884204DB0F
:20184000FFE70198512804DBFFE703A900200870EDE0019896490880DAE00298824904F0A7
:20186000B1F9002811D0FFE70198002805D4FFE701988C49884204DBFFE703A9002008700E
:20188000D5E0019889490860C1E00298774904F099F9002811D0FFE70198002805D4FFE7D0
:2018A00001988049884204DBFFE703A900200870BDE001987C490860A8E002986C4904F0C5
:2018C00081F9002813D0FFE70198AF218900884205DBFFE701987149884204DBFFE703A98D
:2018E00000200870A3E001986D4908808DE00298604904F067F9002819D0FFE701986428D6
:201900000DDBFFE701984B218900884207DCFFE7019800226049895E884204DAFFE703A953
:201920000020087083E001985A4908806CE00298514904F047F9002817D0FFE7019850282E
:201940000BDBFFE70198FA2807DCFFE7019800225049895E884204DDFFE703A90020087027
:2019600065E001984C4908804DE00298434904F029F9002812D0FFE70198322806DBFFE759
:201980000198FF216031884204DBFFE703A9002008704CE001983E49088033E00298384928
:2019A00004F010F9002810D0FFE70198502804DBFFE70198FB2804DBFFE703A900200870A1
:2019C00035E00198314908801BE002982D4904F0F9F8002810D0FFE70198322804DBFFE7C1
:2019E00001988D2804DBFFE703A9002008701EE001982549088003E003A90020087016E0E6
:201A0000FFE7FFE7FFE7FFE7FFE7FFE7FFE7FFE7FFE7FFE7FFE7FFE7FFE7FFE7FFE7FFE766
:201A2000FFE706F02BFC03A901200870FFE703A8007804B080BDC046B90B000040342020E6
:201A4000618C00005D8C0000158C0000358C0000318C0000258C0000DB8B0000AE8B000041
:201A6000C28B0000F98B0000138B0000608B0000328A0000B68A00006E8A0000D0890000BF
:201A80009B8A0000928A00003E352020403520204635202042352020483520204D0400001D
:201AA0003C352020214E0000BC342020C43420202835202089130000F43420205434202035
:201AC00040342020E9030000B90B000010B58CB00A90EE48007806280AD1FFE7EC480078BE
:201AE000002805D0FFE7EA480078042804D1FFE70BA900200870C4E10A98E6490968401AE5
:201B00000990E3480078012847D1FFE7EF490A88F04802800A88F0490A80FA4A1388EF4C6F
:201B200023801288EE4B1A800022805E895E03F0A3FC099832282CD3FFE706F021FC002801
:201B400007D1FFE7F04805F047FB0BA90120087097E106F057FBDA49002004900880D749CC
:201B60000880CD490120087005F0DAFECB49086005F0E8FE01460498C94A1160C949088009
:201B8000D8490870C249022008700A98C1490860FFE70BA90120087073E106F0F1FB002862
:201BA00004D1FFE7BC4900200870FFE705F0B8FEBA490968401A069005F0C4FEB8490968AF
:201BC000401A05900698002804D5FFE7069840420690FFE70598002804D5FFE70598404252
:201BE0000590FFE7069805994018C10F40184008AC49088006F0EEFB7F210840AA490870B7
:201C0000AA480078002820D1FFE7A748007805F03CFB00280BD1FFE7A7480078FF2805D07B
:201C2000FFE7A5490878401C0870FFE703E0A24900200870FFE7A0480078022804D3FFE703
:201C40009A4901200870FFE721E000229548805E9749895ECA0F89184910884212DBFFE70D
:201C60009148007805F011FB00280BD0FFE791480078FF2805D0FFE78E490878401C0870CB
:201C8000FFE703E08B4900200870FFE7FFE706F077FB002835D0FFE706F022F8014608A8C1
:201CA00001800021405E002805D5FFE70898404208A90880FFE778480078002811D0FFE794
:201CC00008987E490988401A00B205F033FCC82807DCFFE708987949088008987849088050
:201CE0000EE0089875490988401A00B205F022FCC92804DBFFE7684900200870FFE7FFE71D
:201D0000FFE70A9863490968401A09900998C008AF2807D3FFE77A4805F05EFA0BA9012047
:201D20000870AEE00998DC285AD3FFE76148007802281AD8FFE758480078002808D1FFE7C3
:201D400000225848805E5A49895E88420DDAFFE751480078002843D0FFE700225848805EF0
:201D60005849895E88423BDBFFE7524801780120002202920229039001D8029803900298CD
:201D80000399584A1170424A042111700A99414A11605549087055490880554908805549B3
:201DA00008804C4908804C4908804C4908804C49088005F087FA06F061FA4F480078401CF5
:201DC000C0B24E4909788906090E884204DBFFE70A9800F0E1FEFFE70BA90120087050E070
:201DE0002B480078022823D1FFE70998DC281FD3FFE72948007800280CD0FFE7002130480B
:201E0000405E30490988304A1288891A09B288420ADAFFE700212348405E25490988193999
:201E200009B2884204DBFFE7194903200870FFE717480078022805D1FFE700212448405E8D
:201E4000019004E000212148405E0190FFE7019807A90880079841421E480180079A1E498C
:201E60000A80079A52421D4B1A80079A1C4B1A800022805E895E03F0FFFA0BA901200870DF
:201E8000FFE70BA800780CB010BDC0466935202072352020EC3420207D352020F83420201F
:201EA000FC3420204A352020673520207C3520203E3520207A3520207B35202044352020DB
:201EC0004C3520203C3520204635202048352020423520200E3520202A35202016352020B4
:201EE000323520207835202079352020223520201A352020203520207035202073352020D8
:201F000065890000403520202289000070B58EB00D9009A90020087094480078002801D1DB
:201F2000FFE721E10D9891498A68801A0C900D980969884200D2ECE00D9914318B48016173
:201F400040784C2804D1FFE705F060FC069003E005F070FC0690FFE706980BA9088083484E
:201F600040784C2805D1FFE700218248405E059004E000217E48405E0590FFE705980AA927
:201F8000088000210BA8405E05F0D4FA77492422895E884208DDFFE700210BA8405E05F09B
:201FA000C9FA72498884FFE77048007801283BD1FFE70C988008AF2812D3FFE700210BA8C4
:201FC000405E05F0B7FA0446E3176849C86A8A6A121958418A62C862888A401C8882FFE76A
:201FE00000210BA8405E05F0A5FA6349884207DBFFE75E494822885C022318438854FFE766
:2020000000210BA8405E05F095FAE121C900884209DBFFE7554A4823D15C01200143D154AA
:2020200009A90870FFE773E0504A049290880B99411A08A80180918A491C91820021405E73
:2020400005F078FA04990446E317486B0A6B121958410A634863086AC968884216D1FFE7FA
:2020600000210BA8405E039040480421415E092048430A2104F0FAFB0146039809B28842E0
:2020800004DBFFE70C9839490862FFE700210AA8405EFF21F031884205DBFFE73349088BB4
:2020A000401C0883FFE70C983049CA68032151438908884218D3FFE72C490291C88A401C6A
:2020C000C88200230BA8C65EF517CA6B8C6BA4196A418C63CA63C45E6443486C0A6C1219E2
:2020E00058410A644864FFE700210BA8405E05F021FAE1218900884209DBFFE71B4A4823D6
:20210000D15C01200143D15409A90870FFE7FFE7FFE70C981549C968884205D2FFE709A8C1
:202120000078002820D0FFE710490091087807AA019210701148502206F06AF90099104AE4
:20214000012010700020087002F0CAFE01980078012804D1FFE7094802F05EFE03E00748C6
:2021600002F066FBFFE7FFE70EB070BDB03320202A3520200E3520209209000060332020A2
:202180006435202080B5B2B07F20800230902F9030980068884988422CD1FFE73098406811
:2021A000022827D1FFE77F2080021A901A9904A8582206F02DF90698582810D1FFE71998C1
:2021C000019004A804F0E8F901460198884206D1FFE704A800F04AFF002804D1FFE731A9E4
:2021E00000200870E3E004A802F040FF31A901200870DCE02F9800681B902F9840681C9083
:202200002F9880681D902F98C0681E902F9800691F902F98406920902F98806921902F989E
:20222000C06922902F98006A23902F98406A24902F98806A25902F98C06A26902F98006B7B
:2022400027902F98406B28902F98806B29902F98C06B2A902F98006C2B902F98406C2C9069
:202260002F98806C2D902F98C06C2E901B985249884214D1FFE71C98012810D1FFE72798F7
:2022800000901BA804F00EFF01460098884206D1FFE71BA801F066FE002804D1FFE731A9AF
:2022A0000020087083E01D98444A10601E9850601F9843490860209848602198906022989C
:2022C0008860239890812498888125983D49086026983D4908802898401C002817D0FFE7FD
:2022E0001BA8818E0391C08E02900398374988420CDCFFE702983549884207DCFFE703989F
:2023000033490860029833490860FFE7FFE72998AF21890088423ADBFFE729982E498842AE
:2023200035DCFFE72A98642831DBFFE72A984B21890088422BDCFFE72B98502827DBFFE7D5
:202340002B982A99884222DCFFE72C9832281EDBFFE72C98AF214900884218DCFFE72D9806
:20236000502814DBFFE72D98FA2810DCFFE729981A4908802A981A4908802B981949088051
:202380002C98194908802D9818490880FFE72E98322808DBFFE72E988C2804DCFFE72E980C
:2023A00013490880FFE731A901200870FFE731A8007832B080BDC0463144495040342020C2
:2023C00054342020F434202028352020204E0000C4342020BC3420204C0400003C35202059
:2023E000423520204835202046352020403520203E352020B0B588B05E4AAF204100116080
:2024000064205060732080009060202090815A4A7D20830013605160FF21B63191601A2119
:202420009181564AC1001160554A32211180554A554911605549000108605549E120800061
:2024400008805449B920088053498C200880534AB421118052490880524962200880FFF765
:2024600091FE07A9087002F03BFD4F490020049008704E4908704E4908604E4908604E4913
:2024800008604E4908604E4908604E4908804E4908804E4908704E4908704E4908704E49D4
:2024A00008704E4908704E4908604E4908804E4908804E4908804E4908804E4908804E4964
:2024C00008704E4908704E4908804E4908604E4A012111704D49087006A90870FFE706A853
:2024E0000078022826D8FFE706A80390007803F00FFE039A05A90870059B107806210C4639
:20250000444349480355059B15780C466C4304196370059B15780C466C430419A370127845
:202520005143411800208880FFE70698401C06A90870D4E7364900200860364901200870A5
:20254000354804F0DFFF07A801783448344A01920029029001D101980290029804F0D2FF60
:2025600005F0B0F800F0EEFB2E4804F0CBFF08B0B0BDC0464034202054342020F4342020A2
:2025800028352020C43420205E1A0000BC3420203C352020423520204835202046352020DE
:2025A000403520203E3520207635202056352020CC3420209C342020AC3420209834202081
:2025C0008C342020343520200A352020033520205C352020753520207435202071352020D1
:2025E000D834202018352020223520201A35202024352020203520206835202067352020F5
:202600001C352020C03420207335202070352020903420206E35202015870000E28700003C
:20262000B48700005E8800006834202080B586B004AB188003A80170029205F0A1FE00287F
:202640000FD0FFE705F0CCFE00280AD0FFE703A80078002805D0FFE703A800780B2804D3DB
:20266000FFE705A90020087086E002F039FC03F09BFC4349062008700498424908800298A4
:202680004149086003A801900178404848434049086005F003FA3F49086002983E49086024
:2026A0003E48012101703E4A0020009010703D4A1070029A3C4B1A60029A3C4B1A60039A6B
:2026C0003B4B1A703B4A10703B4A10703B4A10703B4A10703B4A10803B4A10803B4A1170A6
:2026E0003B4908703B4908703B49087005F018F93A49086005F026F901460098384A11600F
:20270000384908803849087005F00AF93749086005F018F901460098354A116035490880FC
:20272000354AE121490011803449088034490880344908803449088034490880344804F0B5
:20274000E1FE009904A8405E02F0EEFC314804F0D9FE0198007802F0E7FC2F4804F0D2FE76
:202760002E480078002803D1FFE705F0CFFDFFE705A901200870FFE705A8007806B080BD9D
:20278000693520203A352020CC34202060EA0000C8342020A4342020AC34202076352020C3
:2027A0000335202072352020EC342020F03420207335202070352020593520205A3520208C
:2027C000793520204C352020443520207D3520207C3520207B3520207A352020F834202063
:2027E000FC3420204A3520207835202080342020843420200C352020083520201835202046
:20280000223520201A3520202435202020352020388800009C8C0000828C000056352020A3
:2028200080B58CB00B90DC2003F01AFD002801D1FFE7B5E004F0EAFF0AA9088004F0FAFF0C
:2028400009A9088057480078002803D1FFE70020079005E00B9854490968401A0790FFE721
:2028600007980890514804F04DFE089802F05CFC4F48059004F046FE03F064F904F042FE77
:20288000059804F03FFE002106914A480090405E02F04AFC059804F035FE06994648029037
:2028A000405E02F041FC059804F02CFE06990AA80190405E02F038FC059804F023FE069999
:2028C00009A80390405E02F02FFC059804F01AFE06993A48405E02F027FC059804F012FEDB
:2028E00006993748405E02F01FFC059804F00AFE00980199069A805E895E401A02F014FC83
:20290000059804F0FFFD02980399069A805E895E401A02F009FC059804F0F4FD05F09EF831
:20292000049005F0ABF801460498401A02F0FCFB059804F0E7FD06992248405E02F0F4FB48
:20294000059804F0DFFD2048007802F0EDFB059804F0D8FD1D48007802F0E6FB059804F0A9
:20296000D1FD06991A48405E02F0DEFB059804F0C9FD1848007802F0D7FB059804F0C2FDDC
:202980001548007802F0D0FB059804F0BBFD06991248405E02F0C8FB114804F0B3FDFFE72D
:2029A0000CB080BD69352020CC342020F48B00009C8C000016352020323520200E352020A4
:2029C0002A3520201835202067352020683520204C35202070352020723520204A352020C6
:2029E000828C000080B588B007905E48007800280AD0FFE707985C49884201D8FFE7AFE063
:202A0000584900200870FFE758480078002812D1FFE760490120032200F082FE002803D133
:202A2000FFE704F023F99BE050490120087056490020087094E0262004A90C2200F070FEC9
:202A4000002810D1FFE74F49002008704C480078032805D8FFE74A490878401C0870FFE790
:202A600004F004F97CE004A8083004F0C5FF03900399084605F010FB00280ED1FFE7039868
:202A80003B4903F031FD002807D1FFE70398394903F048FD002808D0FFE739490020087056
:202AA0003849087004F0E2F85AE0039802F084FF02A908803048006800282FD0FFE702984B
:202AC0002E490988401A00B203F04CFE014601A801802B49097832224A43323269460A80C1
:202AE0000022805E895E884209DCFFE7002201A8805E6946895E494288420EDAFFE7204890
:202B00000021017002A8405E02F0A6FD002803D1FFE704F0ABF823E0FFE7FFE70298174904
:202B20000880174900200870164908701649087016490120087010480068002805D1FFE7CB
:202B40000E48008812490880FFE70B480068401C002805D0FFE708490868401C0860FFE769
:202B600008B080BD7F352020871300007E3520200000D0C00000D040D43420205235202030
:202B8000773520206D352020583520206C352020543520200035202080B588B006904F48E1
:202BA000007800281AD0FFE700214D48405E322814DBFFE700214A48405E8C280EDCFFE74D
:202BC00000234849CA5E03205043454AD25E8018801C820F801880080880FFE74249059130
:202BE0000878401C0870414804F08CFC0598007802F09AFA3E48049004F084FC00213D48AD
:202C0000405E02F091FA049804F07CFC06983A490968401A02F088FA384804F073FC0598B1
:202C20000078374909788906090E88422FDBFFE702F056F93D490020029008703C490870CD
:202C40003C4804F05FFC02992648405E02F06CFA2A48039004F056FC374804F053FC22482B
:202C6000007802F061FA039804F04CFC00F0F6FD002804D0FFE7324804F044FC03E02F48EB
:202C800004F040FCFFE707A90120087022E01D4900200190087006981B49086004F040FEA8
:202CA0001A49086004F04EFE01460198184A116018490880184908701849087018490870E2
:202CC000184800881849088005F0D8FA019807A90870FFE707A8007808B080BD78352020AC
:202CE0004A3520203E35202070352020078A00009C8C00004C352020F0342020828C000091
:202D00007335202072352020EC34202080342020843420200C352020593520205A3520207A
:202D2000793520201835202022352020763520205635202051870000588900009C870000EF
:202D40000D88000080B584B0474804F0DBFB47480090006802F0E8F9454804F0D3FB0098DB
:202D6000406802F0E1F9434804F0CCFB42480290006802F0D9F9414804F0C4FB02984068D3
:202D800002F0D2F93E4804F0BDFB0098806802F0CBF93C4804F0B6FB0298806802F0C4F9B4
:202DA000394804F0AFFB00980C210191405E02F0BBF9364804F0A6FB01990298405E02F082
:202DC000B3F9334804F09EFB3248006802F0ACF9314804F097FB002103913048405E02F00A
:202DE000A3F92F4804F08EFB2E48006802F09CF92D4804F087FB2D48006802F095F92C4822
:202E000004F080FB03992B48405E02F08DF92A4804F078FB03992948405E02F085F92848BA
:202E200004F070FB03992748405E02F07DF9264804F068FB03992548405E02F075F92448EA
:202E400004F060FB03992348405E02F06DF9224804F058FB03992148405E02F065F920481A
:202E600004F050FB04B080BD8288000040342020858B00007F8B000054342020978B000060
:202E8000798B0000A38B0000598B0000448B0000368B0000F4342020218B000028352020DB
:202EA000AD8A0000C4342020778A0000BC342020A28900003C352020E68900004235202070
:202EC000F1890000483520204B89000046352020FC890000403520201D8A00003E35202098
:202EE000828C000080B594B01390FFE703A8402100F078FB002805D0FFE7139903A8FDF725
:202F0000DFF8F3E7139801F0B7FA139802F054FB1398FDF7ABFF1398FEF7F8FF45480078E2
:202F200001280ED1FFE7139843490968401A00097D2806D3FFE701F0D3FF404804F0E2FA19
:202F4000FFE73F48007800280ED0FFE713983D490968401A142807D3FFE713983949086013
:202F6000139801F07FFBFFE732480078022814D0FFE73048007803280FD0FFE72D480078A2
:202F800004280AD0FFE72B480078052805D0FFE72848007806282AD1FFE713982A490968EC
:202FA000401A2A490968884221D3FFE724480090007802A90191087001F092FF0099244A7D
:202FC000002010700870234804F09CFA0198007800280BD0FFE7204804F094FA1F48008811
:202FE00002F0A2F81E4804F08DFAFFE7FFE718480078002818D0FFE713981A490968401AF1
:20300000142811D3FFE713981649086016480078002804D0FFE7139801F030F903E013982D
:20302000FFF7FEFBFFE7FFE7139802F003FF14B080BDC046693520209C3420206A87000050
:203040000335202098342020CC342020C834202076352020AE890000BA8900003435202062
:20306000828C0000AC3420205635202080B59AB018901898C0680690189800690790189862
:20308000406908901898806909901898C0690A901898006A0B901898406A0C901898806A05
:2030A0000D901898C06A0E901898006B0F9004A800F058FF002804D1FFE719A90020087011
:2030C00085E01898416B00200029039079D4FFE71898416B0020404A9142039071DCFFE781
:2030E0001898816B0020002903906AD4FFE71898816B0020384A9142039062DCFFE71898BC
:20310000C16B0020AF2292009142039059DBFFE71898C16B0020314A9142039051DCFFE790
:203120001898016C0020642903904ADBFFE71898016C00204B2292009142039041DCFFE782
:203140001898416C0020502903903ADBFFE71898416C026C00209142039032DCFFE71898F6
:20316000816C0020322903902BDBFFE71898816C0020AF2252009142039022DCFFE718988E
:20318000C16C0020502903901BDBFFE71898C16C0020FA29039014DCFFE71898016D002033
:2031A000322903900DDBFFE71898016D0120002201928D29029001DB0198029002980390E3
:2031C000FFE703980121084019A90870FFE719A800781AB080BDC046204E00004C040000E0
:2031E00070B58AB00C4605460F980E9909AE357008AD2C800792069305AA117004A9039125
:20320000087001F06DFE34490020029008703349087002F0C9FE09983149087008983149D9
:20322000088006983049086007983049086004F035FC0299024603982D4B1A60069A2D4B5A
:203240001A60069A2C4B1A60059A2C4B1A70049A2B4B1A702B4A11802B4A11802B4A118013
:203260002B4A11802B4A11802B4A11702B4A11702B4A11802B4A11600078002808D0FFE70C
:203280002949002008802949088029490870FFE7284804F037F902F055FC04F033F92648E5
:2032A000019004F02FF9002108A8405E01F03CFF019804F027F9079801F036FF1F4804F0F9
:2032C00021F905A80078002803D0FFE705F01EF8FFE70AB070BDC04675352020743520201D
:2032E000693520203A352020CC342020C8342020A4342020AC342020983420207635202096
:203300000335202018352020223520201A352020243520202035202068352020673520209B
:203320001C352020C0342020343520200A3520205C3520208A8900009C8C0000828C000086
:2033400080B584B0024603A8027002910078002828D1FFE744480078002822D1FFE74348FD
:20336000007800281DD1FFE741480078002818D1FFE745480078022813D3FFE742490191C9
:203380000878401E08703D49002008703F4804F0B9F80198007801F0C7FE3D4804F0B2F8A3
:2033A000FFE75EE003A80078012828D1FFE72E480078002822D1FFE72C48007800281DD1CD
:2033C000FFE72B480078002818D1FFE72E480078092813D8FFE72C4900910878401C0870DB
:2033E000264900200870294804F08CF80098007801F09AFE264804F085F8FFE731E01A480C
:20340000007800280AD1FFE718480078002805D1FFE717480078002803D0FFE703F01CF9CF
:203420001FE01448007800280DD0FFE71149002008700E490120087002980F490860114839
:2034400004F060F80CE00A490120087002980A4908600A4900200870094804F053F8FFE792
:20346000FFE704B080BDC04669352020743520207135202075352020D834202070352020A7
:20348000CB860000338700006E35202004890000828C000080B58EB021200421039104F042
:2034A00085FB0120029001034A480A9004F076FC2220052104F07AFB02990A98490304F0F5
:2034C0006DFC02980399002207920192C30409930093430408930F20049003F01BFA0399C0
:2034E000079A089B0998019200900E20059003F011FA049804F03EFB059804F03BFB1F2034
:203500000221069104F052FB0699202004F086FA352004F067FC362004F064FC192004F0DA
:2035200061FC182004F05EFC312004F05BFC0799089A099B0091322003F0B4FA0799089A60
:20354000099B0091122003F0ADFA0799089A099B0091162003F0A6FA0799089A099B0091B3
:20356000232003F09FFA0799089A099B0091242003F098FA0799089A099B00911C2003F096
:2035800091FA0799089A099B00911D2003F08AFA102004F027FC112004F024FC0A98032123
:2035A0000C9109060B9104F096FD0A980B9904F0F5FB0C98010208480D9004F08CFD0D985C
:2035C000064904F033FC0D98054904F0E7FB0EB080BDC04600000A4000200A40300040008B
:2035E0003003400080B588B0069005A801800698002805D0FFE705A80088012804D8FFE786
:2036000007A9002008707BE0FFE73F4800883F490988884270D0FFE73B48009002883C49E7
:20362000895C04AA019211700088802103F020FF009A01460198118000780D2805D0FFE735
:2036400004A800780A2840D1FFE732480078002801D0FFE7D9E72F49012008702E4800887D
:20366000002831D0FFE72C48018802A80180008805A90988884205DBFFE70598401E02A916
:203680000880FFE703A900200880FFE703A8008802A9098888420CDAFFE703A802881F48E1
:2036A000805C06998854FFE70398401C03A90880ECE7069902A80288002088541649088019
:2036C00007A9012008701BE015E0124900200870114800883E2809D8FFE704980E490B882A
:2036E0000E4AD0540888401C088003E00A4900200880FFE7FFE788E707A900200870FFE793
:2037000007A8007808B080BD3835202036352020E0322020653520201E3520200034202002
:2037200080B58EB00CAB18700B910AA802700B9800280AD0FFE70AA80078002805D0FFE77F
:2037400003F048FA002804D1FFE70DA90020087079E004F0B3F93E4805900CA9012206927F
:2037600002F04AFF05983B4904F06CFB0598069B002202920192022107910091232102F089
:2037800061FA079802F0D4F8002804D1FFE70DA90020087057E00AA8037800200490029096
:2037A000042001900220009029482321012202F049FA049809A90870FFE709A800780AA90D
:2037C0000978884230DAFFE723480890FFE7204804F008FA00281AD0FFE71D4804F090FC8A
:2037E0008007002806D5FFE704F068F90DA90020087028E00898411E0891002806D1FFE731
:2038000004F05CF90DA9002008701CE0DFE7104804F08AFC0B9909AA12788854FFE7099839
:20382000401C09A90870C8E7012002F081F8002804D1FFE70DA90020087004E003F0CAF9FC
:203840000DA90870FFE70DA800780EB080BDC04600200F40830400008813000080B59EB012
:203860003F48069002200790582008903D4A1068099050680A903C4801680B9141680C91A9
:2038800091680D9181680E910C21525E0F92405E109036480068119000213548405E1290E8
:2038A0003448006813903448006814903348405E15903348405E16903248405E1790324843
:2038C000405E18903148405E19903148405E1A9006A802F061FE1B90EFF310801D901D98A3
:2038E000049072B62B48029003F040FD02987F21890203910122520201F0E6F80298039902
:20390000402204F033FA014605A80170007803280DD1FFE70120400200907F2081021D48DE
:2039200006AA162302F0CEF805A90870FFE70498002802D1FFE762B6FFE705A8007803280F
:2039400004D0FFE71CA90020087004E0FEF71AFC1CA90870FFE71CA800781EB080BDC046F1
:20396000314449504034202054342020F434202028352020C4342020BC3420203C3520209F
:20398000423520204835202046352020403520203E35202000D00C4080B596B049480F90C9
:2039A00004F05CFA0F9804F0E7FB0F9803F0BAFB0F9803F08FFD0023149300930120420407
:2039C00010920E20194603F06DFD109A149B00930F20194603F066FD3B481290042111919F
:2039E00004F06FFB12980821139104F06AFB1199129804F07AFB1298139904F076FB0520FC
:203A0000800104F0FFFC149815A90870FFE715A80078082817D8FFE72B480C9004210D9162
:203A200004F0B0F9A0200E9004F0ECFC0C980D9904F05BFB0E9804F0E5FCFFE71598401CB1
:203A400015A90870E3E7204803900821049104F099F9A02004F0D6FC0398049904F045FB35
:203A60000520800104F0CEFC0022079201920120C10405910091430408930F2009900421B8
:203A8000069102F01FFF05980699079A089B019200900E200A9002F015FF099804F05CF825
:203AA0000A9804F059F807480B9004F02BFA0B9804F004FA102004F0A5FC02F027FE16B0E5
:203AC00080BDC04600200F4000200A4010B58EB00C900BA801800AA90A800021405E0028D3
:203AE00006DCFFE70C99002008610DA9088079E0002201920BA80390805E0AA9895E401A6C
:203B000009900C980069099A0A2151434018089008983749374A03F091FC08900C980168E7
:203B2000099848437D21C900029102F09FFE07900C984168089848432F4902F097FE019B26
:203B400002990246039806920C9A0C24145F04949268C05E504302F089FE0146049840180F
:203B6000079940180699401805900598FF21F631884204DBFFE7099800280CDCFFE705981A
:203B8000002804D5FFE70998002804D4FFE708980C9908611DE00C9841680069484316496C
:203BA00002F064FE06900C980C21415E0091816800220BA8805E48437D21C90002F056FE46
:203BC00001460098401807994018069940180590FFE705987D218A00002102F03BFF0DA97C
:203BE0000880FFE700210DA8405E0EB010BDC046E05EF8FF20A1070040420F00B0B58EB021
:203C000004F028FB05903B4800680D903A4800680C90059804F014FB0D98384A1168401A50
:203C20000B900C9836490B68C01A0A900D9810600C9808600B98C117324A02920023049379
:203C400003F0C8FE049B07910690069807992E4A039204F0EBFA029A049B09900A98C1176C
:203C600003F0B8FE039A049B079106900698079904F0DCFA089009982449884203DBFFE7F5
:203C800023480990FFE708982049884203DBFFE71F480890FFE700201E4B0093195E099D85
:203CA000032214466C430919CC17A40F09198908198019490191085E089B5A438018C217C7
:203CC000920F80188008088004F0C4FA00990246019805920988114A1180008810490880F2
:203CE00010490868401C0860059804F0A9FA0EB0B0BDC046B4342020E0342020B83420202A
:203D0000E4342020A0D9080010270000C5090000C4090000123520202E3520201435202045
:203D200030352020E834202080B58AB0024608A8027007910021069105AA117004AA1170FA
:203D400003AA117002AA1170079A11700078002805D0FFE704F044FB002804D1FFE709A9C3
:203D6000002008806BE001A900200870FFE701A8007807283BD8FFE708A8007801A909788C
:203D800003F0D8FF00282CD0FFE701A801784A002D498A5E0699891806910599491C05AAFC
:203DA00011700078022804D8FFE704A901200870FFE701A80078052804D3FFE703A901201A
:203DC0000870FFE701A80078032805D0FFE701A80078042804D1FFE702A901200870FFE74C
:203DE000FFE7FFE70198401C01A90870BFE705A80078002814D0FFE705A8007804280FD8EB
:203E0000FFE702A8007800280ED1FFE704A80078002809D0FFE703A80078002804D0FFE79D
:203E200009A9002008800AE0079901200870069805A9097802F01AFD09A90880FFE70021EE
:203E400009A8405E0AB080BDB688000080B588B00790354803F056FB079801F065F93348B0
:203E6000049003F04FFB01F06DFE03F04BFB049803F048FB002103912D48405E01F054F904
:203E8000049803F03FFB03992A48405E01F04CF9049803F037FB03F0B9FC01F045F9049843
:203EA00003F030FB03F0C6FC01F03EF9049803F029FB03992048405E01F036F9049803F003
:203EC00021FB03991D48405E01F02EF9049803F019FB1B4801781B481B4A05920029069072
:203EE00001D105980690069803F00CFB174803F009FB1748007801F017F9164803F002FBA9
:203F000004F08AF901461448144A01920029029001D101980290029803F0F4FA104803F018
:203F2000F1FA08B080BDC046D88A00009C8C000016352020323520200E3520202A352020BD
:203F4000753520206D8B0000CC8B0000C68800006E352020528B0000E58B0000398C0000E5
:203F6000828C000082B00090009880684049884240DCFFE70098C0683D4988423ADCFFE790
:203F8000009800693A49884234DCFFE700984069374988422EDCFFE7009880697D21C9007A
:203FA000884227DCFFE70098C0697D21C900884220DCFFE70098006AE1214900884219DC6E
:203FC000FFE70098406AE1214900884212DCFFE70098806A274988420CDCFFE70098C06A84
:203FE0004F21C943884205DBFFE70098C06A512804DBFFE701A90020087034E000988068DF
:20400000002828D4FFE70098C068002823D4FFE70098006900281ED4FFE700984069002867
:2040200019D4FFE700988069002814D4FFE70098C06900280FD4FFE70098006A00280AD47C
:20404000FFE70098406A002805D4FFE70098806A002804D5FFE701A90020087003E001A919
:2040600001200870FFE701A8007802B07047C046B80B000088130000F0B5394A8218394B8D
:20408000C0183A4D4C790B79002C22D0466F202B02D00524E70100E0354F2E40002B00D1A9
:2040A00088273E434667846F2C403C438467446B2D4E34404463846B3440846300244465FE
:2040C000846554688F26F643344054609468344094600C688979202B09D006467036002B0A
:2040E00015D1641E4460C46E2C40882715E0641E4460C46E2C401E4E3443C466046F2C40C2
:20410000344304671B4D01246707064607E00527FF0164084460C46E2C403C43C466346870
:204120002C403C433460C46A0F4D2C40C462046B2C4004630024C4640465C46F8F25ED43D6
:204140002C40C46714682C401460194302680A4B1340BD220A40D118891C0160F0BDC04633
:2041600084180000041800008888FDFF24493E0001040000FFFFFFCF4000FFCF80B588B084
:2041800006AB187005A801700492394803900498002804D1FFE707A90020087064E002F021
:2041A0003FFD002807D1FFE733490620087007A90020087058E003F091FC2E48029005A90D
:2041C0000122019202F018FA019B029806A90978002202F0C7FB02F079F8002805D0FFE7A3
:2041E00002F01EFD002804D1FFE707A9002008703AE006A801781F4801231A4602F0B2FBBC
:20420000FFE71C4803F0FCFC00281BD0FFE7194803F080FF8007002806D5FFE703F05EFCE0
:2042200007A9002008701FE00398002806D1FFE703F054FC07A90020087015E00398401E3E
:204240000390DEE70B4803F079FF0499087002F03DF8002804D1FFE707A90020087003E0FE
:2042600007A901200870FFE707A8007808B080BD8813000000200F405B35202080B584B0B0
:204280000390314803F03EF9039830490968401A00F04AFF2E48019003F034F900210291F5
:2042A0002C48405E00F040FF019803F02BF902992948405E00F038FF019803F023F903F0A1
:2042C000A5FA00F031FF019803F01CF903F0B2FA00F02AFF019803F015F902991F48405E8C
:2042E00000F022FF019803F00DF91D48007800F01BFF019803F006F91A48007800F014FFCC
:20430000019803F0FFF802991748405E00F00CFF019803F0F7F81548007800F005FF0198AA
:2043200003F0F0F81248007800F0FEFE019803F0E9F802990F48405E00F0F6FE0E4803F0BA
:20434000E1F804B080BDC046498C0000CC3420209C8C000016352020323520201835202091
:2043600067352020683520204C35202070352020723520204A352020828C0000B0B53A4A41
:2043800080184A6842600A78222A56D8930001A4E3589F46314400003B4400003144000074
:2043A0003B4400003B4400003B4400003B4400003B4400003B4400003B4400003B44000005
:2043C0003B4400003B4400003B4400003B4400003B440000214400003B4400002144000019
:2043E0003B4400003B4400003B4400003B4400003B4400003B4400003B4400003B440000C5
:204400003B4400003B4400003B4400003B4400003B440000214400003B44000021440000D8
:20442000036803242407A343012464071B1903E0036803242407A34303600B69C360CB6862
:20444000C46A0A4D25400A4C1C402B19C3620368084C1C400460097A114302683F239A4358
:20446000194051180160B0BD041800008888FDFF777702007F00FFFF80B588B00790079874
:2044800037490968884201D1FFE766E0079834490A68801A05900798086005981A2803D3EA
:2044A000FFE719200590FFE706A900200870FFE706A80078022850D8FFE706A80178062288
:2044C0004A43284989180491007801F021FE014603A80170007804990978884214D1FFE792
:2044E0000498808805994018029002981E49884203D3FFE71D48019002E002980190FFE720
:2045000001980499888006E0039804990870049900208880FFE704988088192804D3FFE77A
:20452000039804994870FFE70498807800280BD1FFE704984078002806D0FFE706A80078C9
:204540000799FEF7FDFEFFE7049948788870FFE70698401C06A90870AAE708B080BDC046FD
:20456000903420206834202061EA000060EA000080B582B0019069460020087001980028C6
:2045800001D1FFE763E0334800785D281BD1FFE731480078002816D0FFE7684603F064FEEE
:2045A00000280CD0FFE76846007802F019FD2B4800780199087001990120487047E02649DD
:2045C00000200870FFE703F05DF9014621480170007800280CD1FFE7042001F031FA1F48E9
:2045E0000078019908701E480078019948702EE0184800785D280CD0FFE7072001F020FAA2
:20460000164800780199087015480078019948701DE0684603F028FE00280CD0FFE768462F
:20462000007802F0DDFC0D480078019908700199012048700BE0052001F002FA0748007821
:20464000019908700648007801994870FFE702B080BDC0465D3520205E3520206B352020D0
:204660006635202080B586B005902D480078002806D0FFE72B480088C0084B2801D3FFE79E
:204680004CE02848019000881421414326484018049003F0BBF803A9088003F0CBF802A917
:2046A0000880059821490968401A0021204A02F0C5FE049908801F490888049A50801E486F
:2046C0000288049B9A80039A049BDA80029A049B1A811A4A1288049B5A81194A1288049B17
:2046E0009A810988039A891A049AD18100880299401A0499088203F0B1F9009003F0BEF963
:2047000001460098401A0F490F4A02F0A3F90199049A50820888401C0880FFE706B080BDCA
:20472000033520203435202000002020CC342020FFFF000016352020323520200E35202025
:204740002A3520200080FFFFFF7F000080B586B0002005900490039002A9087003F016F952
:2047600002F060FC01F052FE02F062FB02F0E6F901F040FDFDF73EFE03F0D8FD152000909F
:2047800002F032FF009802F071FF264803F01AFC62B6FFE701F006FE03F02EFE0499401A7C
:2047A000052806D3FFE703F027FE049003F0DCF8FFE702A80078002816D1FFE703F01CFE90
:2047C0001949884210D3FFE7FFF7E6F802F0B6F901F010FD03F010FE039002A90120087099
:2047E000124802F08FFEFFE702A80078002811D0FFE703F001FE0399401A0A280AD3FFE70C
:2048000003F0FAFD039001A8FFF7B2FE0398FEF7E9F8FFE703F0F0FDFEF764FB03F07EFDD3
:20482000B8E7C0460000874070170000CC87000080B584B00390A02001F012FD002801D17C
:20484000FFE759E02D4802F05DFE0398C06900F06BFC2B48009002F055FE0398417829484F
:20486000294A01924C29029001D001980290029802F048FE0398808A00F056FC009802F0EC
:2048800041FE0398006B00F04FFC009802F03AFE03982421405E00F047FC009802F032FE6B
:2048A0000398C08A00F040FC009802F02BFE0398806B00F039FC009802F024FE0398006CD6
:2048C00000F032FC009802F01DFE0398006A00F02BFC009802F016FE0398008B00F024FC25
:2048E000009802F00FFE03984821405C00F01CFC064802F007FEFFE704B080BD6D8C000064
:204900009C8C00008B8C0000918C0000828C000080B586B005AB187004A801800392284858
:204920000078012803D0FFE700F0DAFAFFE725490020087024490870214A0121117023490E
:2049400008802349088005A800784C2804D1FFE704981E49088010E005A80078522804D198
:20496000FFE704981A49088006E0049817490880049817490880FFE7FFE7039815490860AF
:2049800003981549086000221048805E1049895E00F072FD114802F0B5FD03F03DFC01464F
:2049A0000F48104A01920029029001D101980290029802F0A7FD0C4802F0A4FD06B080BDF1
:2049C0006935202075352020743520200E3520202A352020CC3420209C3420203E890000ED
:2049E000E58B0000398C0000828C000089B007900691002005900121049103A908700798DE
:204A000000782D2807D1FFE70020C04304900798401C079009E0079800782B2804D1FFE7B4
:204A20000798401C0790FFE7FFE7FFE7079801780020302902900DDBFFE707980178012008
:204A4000002200923A29019001DB0098019001980290FFE70298C007002818D0FFE703A995
:204A60000120087005981749884204DBFFE708A90020087022E005980A2141430798007863
:204A80004018303805900798401C0790CEE703A80078002805D0FFE707980078002804D061
:204AA000FFE708A90020087008E00599049848430699086008A901200870FFE708A80078BB
:204AC00009B0704701C2EB0BF0B583B002920190304B314D00918C0A28680727384005262F
:204AE0002E60196889048A0F2860296839402E6018682960002A214608D028490840511CC9
:204B000002F0B0FA0146204602F0ACFA0198204A801801902A683A402E601E4803682A6093
:204B20002A683A402E6003682A60012293020298984207D0530298420CD10098C30B0BD195
:204B4000019803E01F210C4001984030A24001689143016003B0F0BDFF290DD82B683B4049
:204B60002E600C4C24682B60A3049B0F019800D12039CC08001DE9E71302FF339942E9D286
:204B8000FF23DB43C918CC0801980830DEE7C046D01100001800C44100134040FF0F0000E5
:204BA000FCB40127FF07794002E0FCB40127FF070C024D002D0E03D1002C52D1FCBC704776
:204BC0003C43FF2D50D0A408002900D56442020243001B0E04D1002A43D10800FCBC7047C0
:204BE0003A43FF2B41D09208002800D552425E1B04D5170022003C0076422B00192E06D506
:204C000027003741D2191C27F71B7F42BC40002A27D002D55242012700E00027013B5200AF
:204C2000FCD51500802635400FD01500202635402C43803208D21500402635402C4304D195
:204C400001263602B24300E05B1C5200023308DDFF2B0BD2500ADB051843FF073843FCBC68
:204C600070470020FCBC70470800C70FFF07FF20C0053843FCBC704780B588B007900691A1
:204C800005A8027004A900200870FFE7079801780020002903900FD0FFE704A8017805A83F
:204CA00002780120002301939142029001DB0198029002980390FFE70398C007002841D088
:204CC000FFE7FFE70798007802F0E6FC002804D0FFE70798401C0790F4E70798007800288F
:204CE00001D1FFE72EE00798069A04A90B789B00D0500498401C0870FFE707980178002036
:204D00000029009008D0FFE70798007802F0C4FC414248410090FFE70098C007002804D076
:204D2000FFE70798401C0790E7E707980078002807D0FFE70799002008700798401C079067
:204D4000FFE7A3E704A8007808B080BD80B582B001902C4802F0D6FB0198008800F0E4F9AD
:204D6000294802F0CFFB01980221405E00F0DCF92648009002F0C6FB01980421405E00F0EA
:204D8000D3F9009802F0BEFB01980621405E00F0CBF9009802F0B6FB01980821405E00F067
:204DA000C3F9009802F0AEFB01980A21405E00F0BBF9009802F0A6FB01980C21405E00F07F
:204DC000B3F9009802F09EFB01980E21405E00F0ABF9009802F096FB01981021405E00F097
:204DE000A3F9009802F08EFB01981221405E00F09BF9074802F086FB064802F083FB02B0E4
:204E000080BDC046F48B0000678B00009C8C0000F5880000828C000080B586B0059000200B
:204E20000490642001F01CFA002801D1FFE74BE00598808A002809D0FFE7059A906AD16AE6
:204E4000928A002303F0F2F90490FFE71F4802F059FB0598C06900F067F91D48019002F010
:204E600051FB059841781B481B4A02924C29039001D002980390039802F044FB05980221A2
:204E8000405E00F051F9019802F03CFB049800F04BF9019802F036FB0598808A00F044F918
:204EA000019802F02FFB05982421405E00F03CF9019802F027FB05984821405C00F034F92C
:204EC000064802F01FFBFFE706B080BD1D8C00009C8C00008B8C0000918C0000828C00008C
:204EE00080B51A490020088019490880194908801949088019490870194908601949088026
:204F00001949086019490870194908601949086019490870194908701949087019490880E1
:204F2000194908801949087019490870194908701949087019490880194908701949088071
:204F400003F09CF902F0BEF980BDC0460E3520202A352020163520203235202069352020AB
:204F6000C83420201C352020C034202072352020EC342020F0342020593520205A352020E8
:204F8000793520204C352020443520207D3520207C3520207B3520207A3520204A35202028
:204FA000783520200C35202080B584B0284802F0A9FA03F0F1F9002804D0FFE7274802F0F5
:204FC000A1FA0EE003F0DCF901462248224A02920029039001D102980390039802F092FAFB
:204FE000FFE703F0C7F900F09FF81D48019002F089FA03F0B9F900F097F8019802F082FAFB
:2050000003F0ACF900F090F8164802F07BFA03F0BDF900F089F8019802F074FA002002F096
:20502000BFF900F081F8019802F06CFA012002F0B7F900F079F8019802F064FA022002F03D
:20504000AFF900F071F8084802F05CFA04B080BDB38B00002D8C0000F08A0000D08A0000FB
:205060009C8C00008B8B0000828C000081B000900098C068204A1060009800695060009840
:2050800040691E4908600098806948600098C06990600098006A88600098406A90810098E9
:2050A000806A88810098C06A154908600098006B144908800098406B134908600098806B03
:2050C000124908600098C06B114908800098006C104908800098406C0F4908800098806CDB
:2050E0000E4908800098C06C0D4908800098006D0C49088001B07047403420205434202069
:20510000F434202028352020C4342020BC3420203C35202042352020483520204635202042
:20512000403520203E35202080B58CB00B9007A9002008700B9800280AD5FFE72D2001F0E5
:205140002BFF0B98C04306900698401C069002E00B980690FFE7FFE706980A21049101F023
:2051600081FF084604993022104307AA0592137808AAD054069801F075FF059906900798A0
:20518000401C0870FFE706990020002903900DD0FFE707A801780120002201920C29029052
:2051A00001D30198029002980390FFE70398C0070028D1D1FFE7FFE707A8007800280AD0BC
:2051C000FFE70798411E07A80170017808A8405C01F0E2FEF0E70CB080BD704780B582B047
:2051E000019001F045F901461E4801800021415E03204843052101F039FB4B218900E12210
:20520000920001F027FC6946088017480078002804D1FFE70098154908800DE0002313490D
:20522000CA5E032050436A46D25E8018801C820F801880080880FFE70D49012008700198D5
:205240000C49086001980C4908600C49002008700B4908700B4908700B49088003F00EF8E1
:2052600002B080BD0C352020703520200835202072352020EC342020F034202059352020E3
:205280005A352020793520204C35202010B586B0089C05AC207004A80180039202932048F1
:2052A0000078002814D0FFE705A80278029B1C48012101F027FD002804D0FFE7184800F0F3
:2052C0003DFD04E00298194901F042FEFFE725E014480078002812D0FFE705A80278029B10
:2052E0001148012101F00EFD002808D0FFE70E48019000F023FD0198FFF78EFD0EE005A8A5
:205300000078002204A9895E039A029B089C009401F080FA024800F011FDFFE706B010BDD1
:20532000B03320206435202060332020D18B000010B586B0089C05AC207004A801800392A0
:20534000029320480078002814D0FFE705A80278029B1C48022101F0D5FC002804D0FFE7F7
:20536000184800F0EBFC04E00298194901F0F0FDFFE725E014480078002812D0FFE705A8DC
:205380000278029B1148022101F0BCFC002808D0FFE70E48019000F0D1FC0198FFF748FA76
:2053A0000EE005A80078002204A9895E039A029B089C009400F0C0FF024800F0BFFCFFE728
:2053C00006B010BDB03320206435202060332020D18B0000F0B58B4200D1824204D90B0030
:2053E00002000021002040E0002B00D1002A0CD10B00020000210020002B00D1002A01D002
:20540000C943C04300F037F82FE01C0015000B0002000CB4002126002F00FF19764102D238
:20542000491C4029F9D100201E001700FF19764102D2401C4028F9D10E1A210028003200AB
:2054400002F06CFB0C0005000CBC00200021A34200D1AA4201D3521BA341404149416D0892
:20546000E7073D436408761EF1D5059F002F01D03A607B60F0BD7047B0B58CB002460BA8DF
:2054800002800AAA0292118000210491405E9B218A0001921D49009101F08CFA0099019AE2
:2054A000049B0446029809AD2C80C05E01F082FA049908AA10800998154A10800898154A0E
:2054C0001080099A07A803900280089A06AB05931A80405E00F0A4FD04990598405E00F059
:2054E000DBFD03980499405E02F03BF80146049801F020FF04990598405E02F032F80146AB
:20550000012001F017FF0CB0B0BDC04694FDFFFF103520202C35202080B588B002F05AFFC7
:20552000014607A80290017000787F21084006A9039108701B4801F0E5FF02F045FF0146A2
:2055400019481A4A04920029059001D104980590059801F0D7FF03980078FFF7E5FD144884
:20556000019001F0CFFF02F023FFFFF7DDFD019801F0C8FF02F022FFFFF7D6FD019801F040
:20558000C1FF02F00FFFFFF7CFFD019801F0BAFF02980078FFF7C8FD064801F0B3FF08B0D0
:2055A00080BDC046C88A00002D8C0000F08A00009C8C0000828C000010B584B003901F48FA
:2055C0000078002817D0FFE703981D490968401A00097D280FD3FFE71849002008701C49BE
:2055E000095E1C4A1268039B0124019400900420FDF7F6FD1FE01348007800281AD0FFE7A7
:2056000003980F490968401A00097D2812D3FFE70C49002008700C480178039A4B20800011
:20562000FDF704F8002804D1FFE7084801F06AFFFFE7FFE7FFE704B010BDC04674352020CB
:20564000D8342020713520206E352020A2860000043520207C34202080B584B002A9088008
:20566000029822490988401A00B201F07BF801A908801F48007800281CD0FFE7002101A84F
:20568000405E322816DCFFE7002101A8405E3121C94388420EDBFFE7029814490880144800
:2056A0000078022805D8FFE711490878401C0870FFE706E002980D4908800D4901200870A4
:2056C000FFE70B480078032807D3FFE708490020087003A90120087003E003A900200870D9
:2056E000FFE703A8007804B080BDC046263520206D35202080B584B00390642000F0B0FD10
:20570000002801D1FFE72EE0184801F0FBFE0398FFF70AFD164801F0F5FE0220FFF704FD5E
:20572000144801F0EFFE02F077FD01461248134A01920029029001D101980290029801F0F5
:20574000E1FE0F4801F0DEFE02F066FEFFF7ECFC0C4801F0D7FE02F067FEFFF7E5FC0A4878
:2057600001F0D0FEFFE704B080BDC046288B00009C8C0000528B0000E58B0000398C0000A0
:205780004B8800007E890000828C000080B584B01E491F48039002F087FA03981D49FEF7EE
:2057A0006BFC03980023019319461A4601F0D8FC019B0398009319461A4602F0EBFB019AB0
:2057C0000398114602F062FA019A0398114602F095FD019B039801210291009119461A463C
:2057E00002F0D8FB0199029A039802F04FFA0199029A039802F082FD039802F0DBFC039897
:20580000032102F0E1FC04B080BDC0467C8C000000400840C08A000080B588B01A48019064
:2058200002F0ECFA1948029002F0E8FA1848039002F0A4FB1748049002F0A0FB16480590D2
:2058400002F06CFB1548069002F0E0FB1448079002F0F4FB019802F0ADFA029802F0AAFAF9
:20586000039802F07FFB049802F07CFB059802F031FB069802F0B2FB079802F0D3FB102095
:2058800002F0C0FD08B080BD00000A4000200A40004008400000874000200F400020104082
:2058A00000000840FCB40127FF0706004E4001D4002600E03E00020243001B0E30D03A4328
:2058C000FF2B30D00C024D002D0E29D03C43FF2D29D05B194240504042404C4061404C40AA
:2058E00000B501F0B5FC20BCAE464240504042404C4061404C4025001400002C01D4640096
:20590000013B803401D3013364087E3B08DDFF2B09D2BC43200ADB0518433043FCBC70473A
:205920000020FCBC7047FF20C0053043FCBC704780B586B004901E480390FFE70398411E3A
:20594000039100282AD0FFE704990920C00101900143184802F0CAFA0199029002A80088DB
:2059600008420DD0FFE702990920C0010140114802F068FA02F0A2F805A90020087013E0E2
:2059800002980499084208D0FFE70499094802F059FA05A90120087006E0CFE702F08EF83A
:2059A00005A900200870FFE705A8007806B080BD8813000000200F4080B586B004900498FE
:2059C0001C49FFF76FFF039003981B4900F0AAFD002804D0FFE705A91848088025E00398BD
:2059E000C721090600F080FD002805D0FFE70120C00305A9088018E003980090002100F012
:205A000087FD01463F200006BF22120601920029029001D10198029000980299FFF7C5F82C
:205A200001F06CFC05A90880FFE7002105A8405E06B080BD4D3D0F4400FEFF46FF7F0000F4
:205A400081B069460870174900200870009816490870164800881649884205D8FFE7134959
:205A60000888401C0880FFE712480078FF2805D0FFE710490878401C0870FFE70E480078B7
:205A8000002805D0FFE70B480078032808D3FFE70949002008700949087009490870FFE708
:205AA00001B070475E3520205B352020063520205FEA000057352020663520206B35202090
:205AC0006A352020F0B585B004900120002B32D00D46194601402ED116460A980190112079
:205AE000000204990F18154C029603930520786001263E602068400705D52068400702D540
:205B000020684007F6D404982946019AFEF7DCFF7E600B4878623D62029E30683863706821
:205B20007863049802F090FC039B9B1E03D0083608350128D8D105B0F0BDC046D0E30C4092
:205B4000FF01000082B017480078401E0090052822D80098810001A040588746755B000038
:205B60007B5B0000815B0000875B00008D5B0000935B00001148019011E00F4801900EE00A
:205B80000C4801900BE00A48019008E00748019005E00548019002E009480190FFE7019884
:205BA00002B0704769352020FE8A0000B88B0000218C00002F8B00003D8B0000718C0000A7
:205BC000EF8B000085B003900291FFE70398017800200029019006D0FFE702980078411EEF
:205BE00088410190FFE70198C007002812D0FFE70398007802990978884204D0FFE704A9B5
:205C00000020087019E00398401C03900298401C0290DBE70398017800200029009006D15B
:205C2000FFE702980078414248410090FFE700980121084004A90870FFE704A8007805B004
:205C400070470000F0B589B01C4615460A46064610980F990E9B0896079206AA157005AD3F
:205C60002C8004AC237003AB0093197002A90191087008980E4940180799490012781143A0
:205C80000C4A01F05FFD009B019A08980A49401805990904247809191B78194312781143AA
:205CA00001221143054A01F04DFD09B0F0BDC04610120000FF070000141200000F00FF0F0C
:205CC00080B586B004A9087003A90520087000F0A7FF002807D1FFE717490620087005A9C3
:205CE0000020087021E001F0F9FE1248029003A90122019200F080FC019B029804A9097805
:205D0000002200F02FFE00F0E1FA002805D0FFE700F086FF002804D1FFE705A900200870F8
:205D200003E005A901200870FFE705A8007806B080BDC04600200F405B35202080B586B08B
:205D40000590402000F08CFA002801D1FFE724E0134801F0D7FB0598C069FFF7E5F91148E3
:205D600001F0D0FB059801780F48104A03920129049001D003980490049801F0C3FB059865
:205D800041780B480B4A01924C29029001D001980290029801F0B6FBFFE706B080BDC046F1
:205DA000118C00009C8C00008E8C0000858C0000698C0000598C000080B586B0014604A8BB
:205DC0000170007803A90191FDF7AEFF0146019802AA11800078002820D0FFE7002102A89D
:205DE000405E01F0A7FB0B2818DCFFE704A80078002101F09FFF002810D1FFE704A800787E
:205E0000012101F097FF002808D1FFE704A80078062101F08FFF002804D0FFE705A9002078
:205E2000087003E005A901200870FFE705A8007806B080BD80B582B00190174800780028CB
:205E400007D0FFE7019815490968401A072801D8FFE71EE001981149086011480088114941
:205E6000098888420EDAFFE70D4800900088142141430E484018FEF769FF00990888401C43
:205E8000088006E0044900200870074801F03AFBFFE702B080BDC0465C3520208C3420208E
:205EA0000A352020343520207289000000002020F8B5451C00780023082B32D02F78C20731
:205EC0000CD16A780F241440E41C122C0BD102242E57F4B2002E08D4EE1C0EE06D1C4A1C20
:205EE0000F7011461AE0AE1C08E02E1DED7800957F252C40009DED012C1912343D0112095C
:205F00005219094DAA420ED0D243002C05D08D5C4F1C0D70641E3946F7E7354640085B1CF6
:205F2000CAE72846C5E7F8BDFF0F000080B588B0014607A80290017000780021049101F04E
:205F4000F9FE0146029800910078012101F0F2FE009902460298891801910078022101F023
:205F6000E9FE019902460298891803910078032101F0E0FE0399024604988A1806A90A70D3
:205F800009780329059009D3FFE707A80078062101F0D0FE414248410590FFE705980121AA
:205FA000084008B080BD000080B582B002F052F901900F49002008600E4908600E49086011
:205FC0000E4908600E4908800E4908800E4908600E4908800E4908800E4908700E49086039
:205FE0000E490860019802F02BF902B080BDC046B0342020DC342020B4342020E03420204E
:206000001435202030352020E8342020123520202E3520206F352020B8342020E434202064
:2060200080B588B0014607A801800021405E01280DDBFFE70120059001061648069001F024
:20604000E9FE05990698490602F031F820E0002107A8405E00280DD5FFE70120039001069A
:206060000C48049002F023F803990498490601F0D1FE0CE00120019001060648029002F06D
:2060800016F801990298490602F011F8FFE7FFE708B080BD00000A4080B588B0014607A806
:2060A00001800021405E01280DDBFFE70120059041021648069001F0ADFE059906980902D9
:2060C00001F0F5FF20E0002107A8405E00280DD5FFE70120039041020C48049001F0E7FFC7
:2060E00003990498090201F095FE0CE00120019041020648029001F0DAFF0199029809020F
:2061000001F0D5FFFFE7FFE708B080BD00200A4080B586B0014605A80170007800280BD143
:20612000FFE70120C1050291144801F093FF01460298049103901AE005A8007801280BD1F3
:20614000FFE70120010201910D4801F083FF014601980491039009E008484021009101F0B7
:2061600079FF0146009804910390FFE7FFE70498039908404142484106B080BD00200A40EB
:2061800000000A4010B584B0089C079C069C03AC207002A8017001A80280684603801349C1
:2061A00000200870039A12490A70029A4A70019A4A80009A8A80089A8A60069ACA60089A7E
:2061C0000A618882C8820883079ACA61069A0A628884C862886248630863C86388634864A5
:2061E00008644822885404B010BDC04664352020B03320200E49002008700E4908600E4965
:2062000008600E4908700E4908700E4908800E4908700E4908800E4908800E4A0121117011
:206220000D4908700D490870487088707047C0466C352020D4342020883420205835202063
:2062400077352020263520206D35202052352020543520207F3520207E35202000352020E9
:2062600085B004A908801648008816490988884208DBFFE71248008812490988401A03A977
:2062800008800AE00F4801880D480088401A01218902401803A90880FFE703990A48411A0D
:2062A00002A80180018804A802880120002300939142019001DA00980190019805B07047B0
:2062C0004E35202050352020FF03000080B584B017480290FFE7174801F01CFF019001A84F
:2062E00000788007002806D5FFE701F0F7FB03A90020087018E001A80078C007002801D1B5
:20630000FFE70DE00298002806D1FFE701F0E6FB03A90020087007E00298401E0290DAE7E3
:2063200003A901200870FFE703A8007804B080BD8813000000200F4070B58EB004461298BD
:206340000DA8049004700CAC059421800B920A93134A002106911170017802200790032267
:2063600008924C29099001D008980990069C05990998095F0B9A129B01940094FCF730FF85
:206380000499059B0798069A09789B5E0B9C0A9D129E029601950094FFF7F4FE0EB070BD74
:2063A0005635202080B582B0FFE7144801881448028800209142019007D0FFE7114801F06F
:2063C00019FE012148400190FFE70198C007002811D0FFE70948009001880B48415C09488B
:2063E00001F04EFE009800880121890201F040F800990880D9E702B080BDC04650352020CF
:206400004E35202000201040E02E202080B586B00120059001071448019001F0D5FB059887
:2064200001061248039001F0CFFB019805998903029101F083FB039805990903049101F01D
:206440007DFB0198029901F0A3FB0398049901F09FFB059801F09CF8059801F0DBF8FFF7C5
:20646000A3FD06B080BDC04600000A4000200A4080B584B001F054FA13490968401A03906D
:2064800001F060FA11490968401A02900398002804D5FFE7039840420390FFE70298002820
:2064A00004D5FFE7029840420290FFE7039802994018C10F40184010019001980021044AEA
:2064C00000F0C8FA04B080BD8034202084342020FF7F000010B500F09DFE002801D0002046
:2064E00010BD012010BDC04610B500F093FE002801DB002010BD012010BDC04610B500F0FB
:2065000089FE002801DD002010BD012010BDC04610B500F043FE002801DA002010BD012006
:2065200010BDC04610B500F039FE002801DC002010BD012010BD000080B582B0124801F00A
:20654000B0FE0B281CD1FFE70F4801F047FE694608700E480088802100F08AFF014601A8EB
:20656000018000880A490988884208D0FFE7009806490B88074AD05401980880FFE700E0D0
:20658000FFE702B080BDC046002010403635202038352020E032202086B00590059804900A
:2065A000162003901248029000200190FFE7019815281AD8FFE70198152803D1FFE7002031
:2065C000009005E004980199890040580090FFE70099029848400290029906484843029026
:2065E000FFE70198401C0190E1E7029806B07047C59D1C8193010001F0B581B0002A22D0DA
:2066000091235B01C3180F200402901E0090561E0020DF6927421BD00F5C1F60864210D05A
:20662000DF69274211D00F187D781D60009D854207D0DD6925420AD0BD781D60C01C82421B
:20664000E7D1104604E0002002E0401C00E0801C80B201B0F0BD000080B582B00C49002002
:2066600001900870FEF73CFC01980A4908700A4908700A4908700A4908700A4908700A4901
:2066800008700A4908700A4800F03CFF02B080BDB0332020763520205635202003352020FA
:2066A0005C352020753520207435202071352020C589000080B584B001200190810311480A
:2066C00001F084FB01460198039101030E4801F07DFB02900398002807D0FFE70399094814
:2066E00001F02CFA01F00AFBFFE70298002807D0FFE70299044801F021FA01F00DFBFFE756
:2067000004B080BD00000A4000200A4080B582B012491348019001F0F0F801980321490245
:2067200001F0D8F8019801F0A5FB019801F02EFD01981F2101F0FEFB01980021009101F0BA
:2067400051F80099019801F039F8019801F0AAFB019801F09BFB02B080BDC04622880000AE
:2067600000200F4081B069460880FFE700216846405E0F49884206DBFFE700980E494018BF
:2067800069460880F2E7FFE700216846405E0949884207DCFFE70098E12109014018694606
:2067A0000880F1E700216846405E01B07047C04609070000F7F8FFFFF0F1FFFF80B584B059
:2067C0000390029101925020FFF74AFD002801D1FFE716E00C4800F095FE0398FEF7A4FC76
:2067E0000A48009000F08EFE029800F08BFE009800F088FE0198FEF797FC054800F082FE3C
:20680000FFE704B080BDC046418C00009C8C0000828C0000B0B58AB00C4601460E9809A809
:206820000390017008A904910C8007920693007800220592895E0E9AFEF76AF80399049801
:20684000059B084A1370084A13700978C25E0798069C0E9D0295019400900120FFF792FC00
:206860000AB0B0BD76352020563520201CB5002922D04C08002900D5494242105440002864
:2068800000D5404200230A00904201D95200FBE790425B41904200D3801A914201D25208E7
:2068A000F6E71900002C00D54042640000D549420200080011001CBD01000020FEF78DFC08
:2068C0001CBD000010B584B0079C069C039002910192009302990198014300980143069863
:2068E0000143079A012003071A401143074A1143039A9300064A9950079BC0060340039886
:20690000810088581843885004B010BD800004000480424010B584B0079C069C0390029174
:20692000019200930299019801430098014306980143079A012003071A401143074A1143DC
