:200000000080202021AB000015AB000015AB000000000000000000000000000000000000D4
:2000200000000000000000000000000015AB0000000000000000000015AB000015AB000080
:2000400015AB0000118A000015AB000015AB000015AB00006D77000015AB000015AB0000A1
:200060000000000015AB000015AB0000000000000000000015AB00007987000015AB000080
:2000800015AB000015AB000015AB000015AB000015AB0000719F0000000000000000000090
:2000A00015AB000015AB0000000000000000000015AB00000000000015AB000015AB000080
:2000C000B0B5F2B0719009F0C9FF7090F6480078022816D0FFE7F4480078032811D0FFE705
:2000E000F148007804280CD0FFE7EF480078052807D0FFE7EC480078062802D0FFE701F045
:200100004EF87098E9490968884202D1FFE701F046F87098E5490860719801F0D3FF0028AA
:2001200002D0FFE701F03BF8DF480078022809D1FFE7DF480088DF490880DF49002008802B
:2001400000F0FBFFD8480078032809D1FFE7D94900200880D6480088D749088000F0ECFF3F
:20016000D1480078052806D0FFE7CF480078062801D000F059FFCE4800886DA908807198EA
:20018000CE490968401A6890CD4867904B20C00066A90880CB4801780020012937900DD13C
:2001A000FFE7C34800213591415E0120C929369001DB3598369036983790FFE7379A012013
:2001C000024065A90A7009780029349018D1FFE7BC4801780020012933900ED1FFE7B248CF
:2001E000017800200629339007D1FFE7B6480078801F414248413390FFE733983490FFE777
:2002000034980121084064A9087063A92320088062A93720088061A90320088060A9002084
:200220000880A148007806280CD1FFE7A6480078042807D1FFE763A91920088062A932206A
:20024000088026E098480078062821D1FFE79E48007806281CD1FFE763A92D20088062A967
:200260004120088061A905200880719897490968401A000919280AD3FFE763A93C2008802D
:2002800062A94B20088061A908200880FFE7FFE7FFE765A8007800280ED0FFE78248007841
:2002A000062809D1FFE78A480078002804D1FFE77D20C0006790FFE78248007801280FD19E
:2002C000FFE77948007806280AD1FFE77E480078062805D1FFE74B20000166A90880FFE7FF
:2002E00071480078062819D1FFE777480078042814D1FFE7774800886DA90880714800788B
:2003000001280AD1FFE700216DA8405E652804DBFFE76DA964200880FFE729E0624800789A
:20032000062813D1FFE76848007806280ED1FFE7684801886DA801800021405E652804DBB0
:20034000FFE76DA964200880FFE710E06898679988420BD2FFE700215548415E689848434A
:20036000679909F0BDF86DA90880FFE7FFE7FFE70AF0A8FB01467F20014057480170007833
:2003800069A905F06BFB5549088069985449087065A80078002800D1B6E14348007806286E
:2003A00000D0B1E148480078002800D0ACE10AF041FB002858D0FFE709F0AAFF60A90880AF
:2003C000719848490968401A64283ED3FFE7609845490988401A5FA932910880002131918E
:2003E00060A8405E032108F01BFC319A3299895E490040180E21C9430F2208F005FD5EA999
:20040000088069A80078002815D0FFE700213348405E09F017FB07280DDBFFE700225EA86E
:20042000815E2E48805E4843002804D5FFE75EA900200880FFE75E982C49088060982A4924
:200440000880719827490860FFE700222748805E274930918A5E911E921C09B212B208F0F1
:20046000D3FC3099088005E02149002008801F490880FFE71F480078002862D1FFE769A85E
:20048000007800285DD0FFE700211448405E09F0D9FA0A2830DCFFE7002160A8405E09F0DE
:2004A000D1FA32284DDB27E0173B2020243A2020DA3A2020B23A2020D23A20204C3A202026
:2004C000DC050000873A2020213B2020D43920201F3B2020E03A2020153B2020B43A20209F
:2004E000163B2020D83920209A3A20209C3A20209E3A2020043B2020E74901200870E74960
:2005000000202F9008707198E549086009F0FAFCE449086009F008FD01462F98E24A1160B8
:20052000E2490860E2490880E2490860E249087009F074FDE149086009F080FDE04908603C
:20054000FFE7D5480078002800D1A0E009F0DAFCD4490968401A5D9009F0E6FCD24909689C
:20056000401A5C905D98002804D5FFE75D9840425D90FFE75C98002804D5FFE75C984042BE
:200580005C90FFE75D985C994018C10F401840105B9000216DA8405E512804DBFFE76DA9BC
:2005A00050200880FFE763A92D20088062A93C2008800AF03FFA002830D0FFE769A80078C3
:2005C00000282BD0FFE70021BE48405E09F03AFA062823DCFFE7002160A8405E09F032FA21
:2005E00028281BDCFFE70021B748405E09F02AFA052813DCFFE70021B448405E09F022FA21
:2006000005280BDCFFE7A5480078FF2805D0FFE7A2490878401C0870FFE703E09F49002089
:200620000870FFE79D4800780A281DD3FFE79A490020087099490870A3490880A34908803A
:200640006099A34A11807199A24A11607199974A11609949087009F0E1FC9849086009F0EE
:20066000EDFC9749086011E071988D490968401A9949884204D8FFE75B98C82805DBFFE797
:20068000964808F0E7FF00F08AFDFFE7FFE782480078002837D1FFE784480068002832D0A5
:2006A000FFE7719881490968401A5A905A9880084A2823D8FFE700216DA8405E51281CDBBB
:2006C000FFE700212D916DA82E90415E50395A9848434B21890008F003FF2D9A03462E9818
:2006E000503359A90B80805E895E884204DDFFE759986DA90880FFE7FFE703E06B49002082
:200700000860FFE7FFE70BE06F49002008806F490880614908706149087064490860FFE7DB
:2007200065A80078002800D12BE16D480078062800D026E16B480078002800D021E16A4826
:200740000078002800D01CE153480078002800D017E109F063FC589009F070FC579069A88C
:200760000178002000292C9057D0FFE7554800212B91405E09F066F901462B9804292C908B
:200780004BDCFFE7594800212A91405E09F05AF901462A9804292C903FDCFFE74A4800213F
:2007A0002991405E09F04EF90146299804292C9033DCFFE7454800212891405E09F042F982
:2007C0000146289804292C9027DCFFE70021279160A8405E09F036F90146279814292C909A
:2007E0001BDCFFE732490020095E00292C9014D1FFE72E480168002000292C900DD1FFE7C2
:200800003B480178002000292C9006D0FFE739480078411E88412C90FFE72C98012108402A
:2008200056A9087000216DA8405E502805DBFFE756A8007800280AD1FFE71F4900200870D0
:2008400058981E49086057981D49086098E01A48007800280AD1FFE7589818490860579839
:200860001749086014490120087088E0589813490968401A5590579811490968401A54905E
:20088000559854994018C10F4018401053905398042873DB30E0C046043B2020053B202051
:2008A000EC392020E8392020F0392020E4392020B83A2020403A2020083B2020043A2020BF
:2008C000083A2020B43A20209E3A20209C3A20209A3A2020D8392020C30900007EAF0000DC
:2008E000173B2020213B20201F3B2020C03A2020023B2020063B20205399FB4800222592F0
:20090000805E4843F94908F08BF9259952905598549A801A529A801A5190F548006840004F
:20092000F44A08F0E3FF25995090F348405E24905099519848437D21C90008F071F9014607
:200940002498401A2221C943232208F05DFA259A01464FA80180805EE84926918A5E911EC3
:20096000921C09B212B208F04FFA269908805898E34908605798E3490860FFE7FFE7FFE709
:20098000FFE7E1480078062800D0D9E0DF480078002800D092E007F05BFEDD490880DD48ED
:2009A000007801283DD1FFE70AF044F8002838D0FFE709F0ADFC4EA921910880D6480178EC
:2009C0007820FA2222920029239001D022982390219823994DAA2092118000211F91405E77
:2009E00009F030F81F9A2099895E88420BDBFFE7CA480078FF2805D0FFE7C8490878401C8E
:200A00000870FFE703E0C54900200870FFE7C3480078032804D3FFE7C14808F01BFEBEE3E3
:200A200003E0BE4900200870FFE70022B848805EBC49895E884206DAFFE7BB490020087036
:200A4000BA49087039E0B8480078072811D8FFE7B748007807F030FA002805D0FFE7B24916
:200A60000878401C087003E0AF4900200870FFE722E0AF48007807F016FB00280BD0FFE767
:200A8000AA480078FF2805D0FFE7A8490878401C0870FFE703E0A54900200870FFE7A348A5
:200AA0000078022807D3FFE7719803F0ADFD719801F008FB73E3FFE7FFE740E0934800789C
:200AC00004283BD1FFE771989A490968401A4C904C98782812D3FFE79548007807F0ECF9E5
:200AE00000280BD0FFE794480078FF2805D0FFE791490878401C0870FFE703E08E490020E9
:200B00000870FFE78C48007803280CD3FFE7719802F056FB002801D0FFE740E38748008896
:200B20006DA9088009E04C984009192804D3FFE7834808F08FFD32E3FFE7FFE7FFE7FFE707
:200B400069A80078002800D182E17E481D9000211C91405E08F076FF1C994BAA1A9210807E
:200B600079481B90405E08F06DFF1C9902461D984AAB1A8049ABA0221A80008847AA10806D
:200B800046AA082010807148006845907048006844906DA8415EFF225432012091421E90C6
:200BA00001DC1C981E901C9A1B991D981E9B43AC237000880988401A6AA919910880654837
:200BC0001890805E4000895E4018032108F028F8189A199B1C9904461A98148012881A80F5
:200BE000405E022805DCFFE747A90020088045902EE000214BA8405E042806DCFFE7459868
:200C0000C10F40184010459021E000214BA8405E0A281BDBFFE764A80078002815D1FFE74E
:200C200043A80078002809D0FFE7459905204843C117890F40188010179003E045984000DD
:200C40001790FFE717984590FFE7FFE7FFE7FFE700224BA8805E4AA9895E884208DAFFE78C
:200C6000449903204843C10F40184010449008E0449903204843C117890F401880104490FE
:200C8000FFE700214BA8405E022803DCFFE700204490FFE743A80078002866D0FFE700212B
:200CA0004BA8405E042812DCFFE749A92D20088000214BA8415E0A2005221592032916905F
:200CC00001DB15981690169846A908804CE000214BA8405E0A283FDBFFE749A97D20088099
:200CE00046A9122008803EE0C83A202010270000743A202088130000A43A2020A63A2020ED
:200D0000043A2020083A2020173B2020213B2020903A2020873A20201F3B2020033B202082
:200D200007B000008C3A2020FB3A2020FC3A2020153B20206C3A2020283B2020DA3A20209E
:200D4000CBB00000B43A2020BE3A2020443A20203C3A2020B63A202049A95A20088046A92B
:200D600008200880FFE7FFE723E000214BA8405E042812DCFFE749A92D20088000214BA867
:200D8000415E0A20052213920329149001DB13981490149846A908800AE000214BA8405E04
:200DA0000A2804DBFFE746A912200880FFE7FFE7FFE764A80078002819D0FFE7002249A853
:200DC000805E63A9895E884204DDFFE7639849A90880FFE7002246A8805E61A9895E8842AD
:200DE00004DDFFE7619846A90880FFE7FFE745990023129347A8C05E4843449A6AA9C95E9A
:200E0000514340187D21C90007F00AFF129A49A98A5E514209B207F0F7FF129B014648A8DA
:200E20000180C05EEF491191CA5E46A9CB5ED11AD21809B212B207F0E7FF119A014612982C
:200E40001180E3490988EF4A1180E849088039E0E6480088E649884205D8FFE7E34908887A
:200E60000A300880FFE7E148008866A90988884213DBFFE7CB480078062804D1FFE7E0483F
:200E800008F0E8FB08E003F0B3FCDB4900200870DA4808F0BFFDFFE781E1D44800886428E3
:200EA0000FD3FFE7CF4800210180D24801806DA8405E652804DBFFE76DA964200880FFE709
:200EC000FFE7FFE7C74800886BA908800021C348405E002816D0FFE7C14800687199401A80
:200EE00001280FDBFFE700226BA81090805EBB49895E40189F21C943A02207F085FF109951
:200F0000088005E0B54900200880B5490860FFE764A80078002853D0FFE70022B248805EC3
:200F2000AC49895E401862A98A5E514209B207F06BFF42A90880A8480078002830D0FFE7F2
:200F400000216BA8405E08F07DFD052828DBFFE700226BA8815E42A8805E484300281FD5B4
:200F6000FFE700210F916BA8405E08F06BFD0F99021F41A80280405E102804DBFFE741A900
:200F80000F200880FFE7002242A80E90805E41A98A5E514209B207F037FF0E990880FFE7CA
:200FA00000226BA80D90805E42A9895E401862A98A5E514209B207F027FF0D990880FFE7E5
:200FC0006D9914396CA801800021405E002804D5FFE76CA900200880FFE700220A926BA80F
:200FE0000990805E6CA98A5E514209B207F00CFF099A0A9910806DA80C90405E525E8018C0
:201000004B22D2000B9207F0FFFE099B0A990B9A04460C986C4D2C80405E5B5EC01A07F099
:20102000F3FE6A49088086E05F48008840A9088008F0F4FF079009F001F801460798401ACA
:201040003F9008F0EBFF089008F0F8FF014608984018C10F401840103E903E99002253483F
:20106000805E4843524907F0DBFD3D903F983D99401A3C9071984F490968401A38903898F9
:201080004D4988420BD8FFE700214748415E389848434A4908F024FA40A90880FFE700215C
:2010A00040A8405EC20F801842083AA80280405E3D2804DBFFE73AA93C200880FFE7404896
:2010C0000068399038983C49884208D8FFE73998400000213B4A08F009FC3990FFE73999C5
:2010E0003C9848437D21C90007F09AFD002204923AA98A5E514209B207F086FE04993BAACE
:201100000392108040A80690405E525E801A4B22D200059207F078FE039B0499059A0446DD
:201120000698294D2C80405E5B5EC01807F06CFE26490880FFE7FFE7FFE706F041F808F08F
:201140002FFE6FA90091088008F03EFE014600986EAA02921180002201921B49895E825E01
:20116000294804F04DFB019A01460298274B19801649895E825E264804F042FB2549088080
:20118000719802F083FD002801D0FFE707E000221E48805E1F49895E06F05AF9FFE772B008
:2011A000B0BDC046173B2020DA3A2020C83A2020102700004C3A2020DB050000DC050000D6
:2011C000743A202088130000B23A2020D23A2020B43A20209E3A2020043B2020B83A202017
:2011E000403A2020C03A2020A63A2020BC3A20205FEA0000B63A2020253B202031B00000AB
:20120000EAB20000BE3A202080392020AA3A202094392020CA3A202010B59CB01B901A9125
:201220001B9808F044FD1B9815A9052205F022FD014614A801700078002802D1FFE700F059
:201240000AFF14A8007801280CD1FFE71598FC4906F0FAFC002805D0FFE7FA4808F0DAFB95
:2012600000F0F9FE14A8007802281CD1FFE71598FC4906F0E9FC002815D0FFE7169813A92C
:2012800005F048FB00280ED0FFE7139800280AD4FFE71398F449884205DCFFE7139806F079
:2012A000B1FA00F0D7FE14A8007801280BD1FFE71598EE4906F0C8FC002804D0FFE708F027
:2012C000CBFC00F0C6FE14A80078012821D1FFE71598E74906F0B8FC00281AD0FFE7E549B1
:2012E00000200D90087003F083FA0D98E2490870E2490870E2490870E2490870E249087075
:20130000E2490870E2490870E24808F083FB00F09FFE14A8007801280CD1FFE71598DE4966
:2013200006F092FC002805D0FFE71A9804F028FC00F08DFE14A8007801280BD1FFE7159835
:20134000D64906F081FC002804D0FFE706F020F900F07CFE14A8007801280BD1FFE71598D4
:20136000CF4906F071FC002804D0FFE705F050FD00F06BFE14A8007801280BD1FFE71598A9
:20138000C84906F061FC002804D0FFE705F008FC00F05AFE14A80078022815D1FFE71598EF
:2013A000C04906F051FC00280ED0FFE71698BE4906F04AFC002807D0FFE708F071F8BB48BB
:2013C00008F028FB00F03FFE14A8007802281CD1FFE71598B64906F037FC002815D0FFE7CC
:2013E000B4480078002810D1FFE71698B24906F02BFC002809D0FFE708F0A2F9002007F033
:201400004BFA03F009F800F01DFE14A8007802281CD1FFE71598A64906F016FC002815D0A6
:20142000FFE7A4480078002810D1FFE71698A34906F00AFC002809D0FFE708F081F9012063
:2014400007F02AFA02F0E8FF00F0FBFD14A8007801280BD1FFE71598994906F0F5FB0028F4
:2014600004D0FFE702F0D8FF00F0EAFD14A80078022842D1FFE71598924906F0E5FB002835
:201480003BD0FFE7169813A905F044FA002834D0FFE71398002830D4FFE7139872498842BF
:2014A0002BDCFFE783480078002826D1FFE7139810908548007800280CD0FFE7834800684A
:2014C0001099884206D1FFE710988149097807F073FC10E008F034F904F0DCFF7C49087062
:2014E00010987A4A1060784A012010701098097807F062FCFFE700F0A2FD14A8007801285D
:201500001DD1FFE715986F4906F09EFB002816D0FFE768480078002811D1FFE708F010F9F6
:2015200004F0B8FF002804D0FFE76A4808F072FA03E0694808F06EFAFFE700F07FFD14A806
:20154000007801281DD1FFE71598644906F07CFB002816D0FFE757480078002811D1FFE754
:2015600002F0ECF9002806D0FFE75D4808F052FA02F052FF03E05B4808F04CFAFFE700F0EA
:201580005CFD14A80078012811D1FFE71598564906F05AFB00280AD0FFE746480078002820
:2015A00005D1FFE71A9807F061FD00F045FD14A8007802281ED1FFE715984C4906F044FB8C
:2015C000002817D0FFE71698494906F03DFB002810D0FFE7284901200870284900200870A7
:2015E0001A9844490860444808F014FA09F0E8F900F021FD14A8007802281CD1FFE71598EC
:201600003A4906F021FB002815D0FFE716983B4906F01AFB00280ED0FFE717490020087021
:201620001649012008701A9832490860344808F0F1F900F0FFFC14A8007802286ED103E054
:201640001BB5000002B400001598284906F0FCFA002863D0FFE716982A4906F0F5FA00288B
:201660005CD051E0C2B40000FFFFFF7FE4B4000016B50000F0382020253B2020F73A20203F
:20168000F63A2020FE3A2020243B2020233B2020203B202008B300003AB400006BB40000C2
:2016A0009AB5000080B4000098B40000DDB00000ECB30000173B2020A4B4000010B4000081
:2016C00086B40000F3B400000F3B2020203A20200E3B2020FEB20000CAB2000025B5000076
:2016E00026B3000088B2000034B5000056B40000BFB500002C3A20205EB10000DAB400002D
:20170000FFB000004EB50000FE4900200870FE490870FE4808F07EF900F08BFC14A8007819
:2017200002285CD1FFE71598F94906F08DFA002855D0FFE7169813A905F0ECF8002809D089
:20174000FFE71398002805D4FFE71398F149884204DDFFE7F04808F05DF93EE0EF48007848
:20176000002810D0FFE71398EC49C96988420AD1FFE7EB4808F04EF9139805F0C7FCE948D8
:2017800008F048F928E0E8480078002806D0FFE71398E649C969884205D0FFE71398E44913
:2017A00007F0D4FD17E0E1480078012804D1FFE7DE4805F0C9FA0DE0DC480078022804D17F
:2017C000FFE7DA4804F0C8FF03E0DA4808F022F9FFE7FFE7FFE7FFE7FFE700F029FC14A8DF
:2017E0000078042800D085E01598D34906F02CFA00287FD0FFE7169813A905F08BF80028C4
:2018000078D0FFE7179812A905F084F8002871D0FFE7189811A905F07DF800286AD0FFE754
:2018200013988121C943884264DBFFE71398822860DCFFE7129832285CDBFFE712981921E4
:201840000901884256DCFFE71198002852D4FFE71198B04988424DDCFFE711980F90B748FD
:20186000007800280BD0FFE7B54800680F99884205D1FFE70F98B34907F020FD39E0B248AA
:20188000007805280AD0FFE7AF48007806282AD1FFE7AE480078002825D1FFE7AC48007887
:2018A000002808D0FFE70021AA48405E08F0CAF8052805DBFFE70F98A74907F0FFFCCAE3AE
:2018C0001398A64908801A9812994018A44908600F989B4908609949012008700F989949E5
:2018E00007F0ECFC04E00F989B4907F0E7FCFFE7FFE79CE314A80078032851D1FFE7159861
:201900008D4906F0A1F900284AD0FFE7169813A905F000F8002843D0FFE7179812A904F063
:20192000F9FF00283CD0FFE713988121C943884236DBFFE71398822832DCFFE7129832282E
:201940002EDBFFE7129819210901884228DCFFE77F480078002823D0FFE700217D48405E32
:2019600008F070F804281BDCFFE77748007805280AD0FFE774480078062811D1FFE77348F5
:20198000007800280CD1FFE71398744908801A981299401872490860724808F03BF845E30F
:2019A00014A80078032838D1FFE715986E4906F04BF9002831D0FFE7179813A904F0AAFF24
:2019C00000282AD0FFE71398002826D4FFE713989B218900884220DCFFE71698634906F060
:2019E00033F900280ED1FFE71698614906F02CF9002807D1FFE716985E4906F025F90028E4
:201A00000BD0FFE74548002202701698007813A9895E1A9A04F010FF07E314A80078052819
:201A200055D1FFE71598544906F00EF900284ED0FFE716984D4906F007F9002807D1FFE707
:201A400016984B4906F000F9002840D0FFE7179813A904F05FFF002839D0FFE7189812A9F8
:201A600004F058FF002832D0FFE7199811A904F051FF00282BD0FFE71398002827D4FFE79F
:201A800013989B218900884221DCFFE712987D21C90088421BDBFFE712987D2109018842D6
:201AA00015DCFFE71198002811D4FFE71198194988420CDCFFE716980078002213A9895E25
:201AC000129A119B1A9C009405F0CCFBACE214A80078052800D092E01598284906F0B4F8B7
:201AE000002800D18BE01698204906F0ADF8002846D1FFE716981E4906F0A6F800287ED08C
:201B00003EE0C046253B2020F73A202030B10000D4B30000FFFFFF7FEEB00000F0382020A6
:201B200086B50000B0B50000123B2020A0382020BCB3000040B10000F8B400000D3B2020CC
:201B4000143A2020B6B50000173B2020213B2020163B2020B43A202052B50000B83A202066
:201B6000403A2020F4B2000046B50000C7B50000C9B50000CBB5000039B3000030B30000C1
:201B8000179813A904F0C6FE002838D0FFE7189812A904F0BFFE002831D0FFE7199811A976
:201BA00004F0B8FE00282AD0FFE71398502826DBFFE713984B21C900884220DCFFE7129833
:201BC0007D21890088421ADBFFE71298FD49884215DCFFE71198002811D4FFE71198FA4920
:201BE00088420CDCFFE716980078002213A9895E129A119B1A9C009405F086FB13E214A899
:201C0000007804282BD1FFE71598F04906F01CF8002824D0FFE7179813A904F07BFE00284C
:201C20001DD0FFE7189812A904F074FE002816D0FFE71298002812D4FFE71298E2498842CF
:201C40000DDCFFE71698139901F026F8002806D0FFE712981699139A06F08AFFE2E114A864
:201C6000007803281BD1FFE71598D84905F0ECFF002814D0FFE7179813A904F04BFE00287F
:201C80000DD0FFE71698139901F006F8002806D0FFE7CF4807F0BEFE02F0BEFBC1E114A881
:201CA0000078042852D1FFE71598F14905F0CCFF00284BD0FFE71698EA4905F0C5FF0028E5
:201CC00007D1FFE71698E84905F0BEFF00283DD0FFE7179813A904F01DFE002836D0FFE70C
:201CE000189812A904F016FE00282FD0FFE7139850282BDBFFE713984B21C900884225DCAA
:201D0000FFE712987D21890088421FDBFFE71298D64988421ADCFFE7E94900200A9008708F
:201D200016980178022003220B924C290C9001D00B980C900A9C0C9813A9095F129A1A9BA8
:201D400001940124009403F07DF969E114A8007803284AD1FFE71598C64905F075FF0028D5
:201D600007D1FFE71598C44905F06EFF00283CD0FFE7169813A904F0CDFD002835D0FFE734
:201D8000179812A904F0C6FD00282ED0FFE7139850282ADBFFE713984B21C900884224DC5E
:201DA000FFE712987D21890088421EDBFFE71298AE49884219DCFFE71598AF4905F044FFA0
:201DC00001460520042208920029099001D1089809900998002413A9095F129A1A9B01942B
:201DE0000124009403F02EF919E114A80078042800D081E01598A14905F026FF00287BD061
:201E0000FFE7169813A904F085FD002874D0FFE7179812A904F07EFD00286DD0FFE71898D6
:201E200011A904F077FD002866D0FFE71398502862DBFFE71398E121490088425CDCFFE718
:201E40001298012858DBFFE712980A2854DCFFE71198002850D4FFE71198804988424BDC66
:201E6000FFE711980E9090480078002817D0FFE78E4800680E99884211D1FFE70E9805903E
:201E80008B4801788B488C4A06920029079001D1069807900598079907F034FA2BE07048C9
:201EA0000078002805D0FFE70E98844907F02AFA20E0002113A8405E12A909781A9A01F0DE
:201EC00085FB01467A4801700E99784A1160764A012111700E99029101787648764A039205
:201EE0000029049001D1039804900298049907F009FAFFE7FFE791E014A80078032837D14F
:201F0000FFE715985D4905F09FFE002830D0FFE7169813A904F0FEFC002829D0FFE71798DA
:201F200012A904F0F7FC002822D0FFE7139850281EDBFFE71398E1214900884218DCFFE763
:201F40001298012814DBFFE712980A2810DCFFE7002113A8405E12A909781A9A01F036FB9F
:201F6000002804D1FFE74F4807F054FDFFE754E014A8007803284BD1FFE71598404905F0F9
:201F800063FE002844D0FFE7169813A904F0C2FC00283DD0FFE7179812A904F0BBFC00284A
:201FA00036D0FFE71398502832DBFFE713984B21C90088422CDCFFE712987D2189008842EC
:201FC00026DB07E0983A0000FFFFFF7F76B500006FB3000012982549884219DCFFE7204859
:201FE0000078002814D1FFE713982749088012982649086026490120087026490020087043
:202000002549087025490870254807F003FD03E01C4807F0FFFCFFE7FFE7FFE7FFE7FFE7D9
:20202000FFE7FFE7FFE7FFE7FFE7FFE7FFE7FFE7FFE7FFE7FFE7FFE7FFE7FFE7FFE7FFE740
:20204000FFE7FFE7FFE7FFE7FFE7FFE7FFE7FFE7FFE7FFE7FFE71CB010BDC046FFFFFF7F83
:20206000173B2020C7B50000C9B50000983A000020B50000A6B500000CB5000048B4000015
:202080007AB500001AAF0000883A2020BC392020243B2020233B2020253B2020F63A2020C4
:2020A00092AD000034AE0000113B2020283A2020103B2020B6B5000052B5000039B50000E6
:2020C000F038202010B5A6B024901EA9002008701DA908701CA908701BA908801AA9087068
:2020E000F748007806280AD1FFE7F6480078002805D0FFE7F3480078042805D1FFE725A938
:202100000020087000F077FD2498EF490968401A2390EC480078012849D1FFE7EB490A88B6
:20212000EB4802800A88EB490A80EB4A1388EB4C23801288EA4B1A800022805E895E05F0AB
:2021400087F9239832282DD3FFE708F073FC002808D1FFE7E34807F07DFA25A901200870B6
:2021600000F049FD08F0A0FBDF49002015900880DE490880DE490120087007F0C3FEDD49D4
:20218000086007F0D1FE01461598DB4A1160DB490880DB490870CB49022008702498CA49C2
:2021A0000860FFE725A90120087000F024FD08F041FC002804D1FFE7CD4900200870FFE7AD
:2021C00007F0A0FECB490968401A209007F0ACFEC9490968401A1F902098002804D5FFE70F
:2021E000209840422090FFE71F98002804D5FFE71F9840421F90FFE720981F994018C10F0B
:2022000040184008BD49088008F05CFC7F210840BC490870BC48007801280ED1FFE7B94870
:2022200000781CA903F01AFC1BA908801B98B74908801C98B6490870FFE7B6480078002822
:2022400020D1FFE7AF48007807F05DFA00280BD1FFE7B1480078FF2805D0FFE7AE49087836
:20226000401C0870FFE703E0AB4900200870FFE7A9480078022804D3FFE7A6490120087077
:20228000FFE72EE09F48007807F03DFA1DA908709D480078012804D1FFE71DA900200870E0
:2022A000FFE700229548805E9C49895ECA0F89184910884210DBFFE71DA8007800280BD0E1
:2022C000FFE797480078FF2805D0FFE794490878401C0870FFE703E0914900200870FFE78D
:2022E000FFE708F0A7FB002835D0FFE708F010F8014622A801800021405E002805D5FFE712
:202300002298404222A90880FFE779480078002811D0FFE7229875490988401A00B207F014
:2023200091FBC82807DCFFE722987049088022986D4908800EE022986C490988401A00B26B
:2023400007F080FBC92804DBFFE7694900200870FFE7FFE7FFE724985B490968401A23907B
:2023600069480078012800D08AE224986D490968401A19905E48007800280FD0FFE70021BD
:202380005948405E6849884208DBFFE7674807F061F925A90120087000F02DFC1998C009C0
:2023A000192808D3FFE7624807F054F925A90120087000F020FC43480078022805D0FFE7D2
:2023C00040480078032800D00EE11CA80078002827D0FFE700211BA8405E0A2821DBFFE73C
:2023E00043480078002808D0FFE700213E48405EFF21F431884210DCFFE73D4800780028A9
:202400000FD1FFE700223D48805E4449895ECA0F89184910884204DBFFE746490120087073
:20242000FFE744480078002825D0FFE71CA80078002820D1FFE72E480078002807D0FFE7A1
:2024400000212948405E3C49884210DCFFE72848007800280FD1FFE700222848805E810064
:202460002E48825E03205043884204DCFFE7334901200870FFE727480078002800D195E070
:202480001CA80078002800D190E000211BA8405E002800DD8AE016480078002869D0FFE789
:2024A00011490020095E264A914214905BDBFFE72248017801200029139051D142E0C0461E
:2024C000173B2020213B20206C3A2020E83A2020AA3A2020CA3A2020E03A2020B23A202098
:2024E000D23A202089B10000EC3A2020E43A20202C3B2020783A20207C3A2020EA3A20209F
:20250000273B2020153B2020873A2020B43A2020163B20202B3B20202A3B2020DE3A202026
:20252000293B2020703A20207F04000065AF000092AE0000093B2020890200000A3B2020A2
:20254000EE020000F84800211191415EF74A01209142129001DC1198129012981390FFE7B7
:2025600013981490FFE71498012108401AA908701BE0EF4801780120002910900FD1FFE77A
:20258000EC4800220E92815EEB48825E012091420F9001DA0E980F900F981090FFE71098CB
:2025A000012108401AA90870FFE7FFE71AA8007800280BD0FFE7E1480078FF2805D0FFE704
:2025C000DE490878401C0870FFE703E0DB4900200870FFE7D9480078032804D3FFE71EA9CD
:2025E00001200870FFE7FFE7D5480078052800D0A0E007F0D5FB07F025FA18A9088007F047
:20260000E3FB07F01FFA17A90880FD4900200880FC490880FC490880FC49088007F090F8B0
:202620002398782817D3FFE7002118A8405E0F2811DCFFE7002117A8405E0F280BDCFFE764
:20264000F3480078FF2805D0FFE7F1490878401C0870FFE703E0EE4900200870FFE7EC48A5
:202660000078032859D3FFE705F058FF07F0F6FCE8490860E8480078002809D0FFE7E74819
:202680000068E7490861E7480068E749086102E008F046F9FFE7E54900200D900870E4497A
:2026A000087007F0BBFCE349086007F0C7FC01460D98E14A1160E1490860E149086024993D
:2026C000E04A11602499E04A1160E04908801B99DF4A1180DF490880DF4908801CA800784C
:2026E000002807D0FFE700211BA8405E07F0AAF90C9002E0D9480C90FFE70C98D84908806B
:202700002498D84908608E49062008702498D649086025A9012008706DE223984008E128FA
:2027200004D3FFE7D14806F095FFFFE725A90120087060E282480078062800D09FE01CA827
:202740000078002807D0FFE700211BA8405E07F079F90B9002E0C1480B90FFE70B9816A9C8
:2027600008801CA8007800280FD0FFE7002216A8805EBB49895E884207DAFFE71698B849BF
:2027800008802498B7490860FFE71CA80078002825D0FFE7B648007806F0B5FF00281ED032
:2027A000FFE7002116A8405E062818DCFFE7B1480078002808D0FFE700215B48405EAF2125
:2027C000890088420BDBFFE7AB480078FF2805D0FFE7A9490878401C0870FFE703E0A6498F
:2027E00000200870FFE7A4480078052837D3FFE7A24901200A900870A14807F00BF9A148EF
:202800000078401C04F082FCFD48089007F002F9002109914448405E04F078FC089807F0BF
:20282000F9F80999FD48405E04F070FC089807F0F1F8FB48007804F069FC089807F0EAF8B5
:2028400009991BA8405E04F061FCEE4807F0E2F8249800F0B5FC0A9825A90870CBE1239871
:20286000E949884207D3FFE7E84806F0F3FE25A901200870BFE125A900200870BBE1FFE796
:20288000EA480078032827D3FFE7E348007800280CD0FFE70021E648405E7D218900884218
:2028A00004DBFFE71EA90120087014E0DA48007800280FD1FFE70022D848805E8100DA48B4
:2028C000825E03205043884204DCFFE71EA901200870FFE7FFE7FFE7D2480078012800D035
:2028E000D2E02398DC2800D2CEE01EA80078002828D1FFE7C8480078002808D0FFE7002212
:20290000CB48805ECB49895E88421BDAFFE7C2480078002800D0B7E00022C048805EC24902
:20292000895E88420EDAAFE0EC3A20201F0300000A3B2020EA3A2020DE3A20200B3B202020
:20294000213B2020BA480088CA4902910880B3480088C94903910880B1480078C74904915C
:2029600008701B98C64907910880C649002006900870A74A052111702499A64A1160C249FF
:202980000880B7490880B7490880AE490880AE490880AE490880AE49088006F0D1FE07F0E7
:2029A000BFFFBA4807F036F8AF480078401C04F0ADFBB748059007F02DF802980699405E44
:2029C00004F0A4FB059807F025F803980699405E04F09CFB059807F01DF80498007804F09F
:2029E00095FB059807F016F806990798405E04F08DFBA84807F00EF825A901200870FAE01F
:202A0000AA3A2020CA3A2020B23A2020D23A2020013B2020243A2020073B2020FC392020C5
:202A200080392020003A202094392020023B2020063B2020CC392020D0392020E039202031
:202A4000F8392020DC392020F4392020C03A2020BE3A2020B63A2020BC3A2020FF7F0000ED
:202A6000923A2020D43920206C3A2020CCAE0000153B20202C3B2020283B2020273B202021
:202A8000BFB100001F3B20202398C008AF2807D3FFE7774806F0DEFD25A901200870AAE091
:202AA0002398DC2856D3FFE75E480078012851D0FFE71EA8007800281AD1FFE756480078AD
:202AC000002808D1FFE700225448805E5649895E88420DDAFFE75048007800283AD0FFE72E
:202AE00000225348805E5349895E884232DBFFE71E985849087046490420087024984549B7
:202B0000086055490020019008705449088054490880544908804B4908804B4908804B494B
:202B200008804B49088006F00BFE07F0F9FE4E480078401CC0B24D4909788906090E8842A1
:202B400004DBFFE7249800F03BFBFFE725A90120087050E02E480078022823D1FFE72398A4
:202B6000DC281FD3FFE72C48007800280CD0FFE700212F48405E2F4909882F4A1288891AAE
:202B800009B288420ADAFFE700212448405E26490988193909B2884204DBFFE71C49032097
:202BA0000870FFE71A480078022805D1FFE700212348405E009004E000212048405E0090A2
:202BC000FFE7009821A90880219841421D480180219A1D490A80219A52421C4B1A80219A4D
:202BE0001B4B1A800022805E895E04F031FC25A901200870FFE725A8007826B010BDC04692
:202C0000CDB50000B0B5000098080000AFAE0000213B20206C3A20202C3B2020EA3A202043
:202C2000153B2020873A2020DE3A2020293B2020EC3A2020DC3A2020E63A2020E83A202089
:202C4000E23A2020AA3A2020CA3A2020B23A2020D23A2020273B2020283B2020BE3A2020BB
:202C6000B63A2020BC3A20201F3B2020223B2020CCB10000983A2020963A2020003B20209D
:202C8000943A2020013B2020C03A202097B10000CDB50000B0B5000080B584B002900191B4
:202CA0006946012008700298FE4904F0CDFF002811D0FFE70198002805D4FFE70198FA49E0
:202CC000884204DBFFE703A90020087026E20198F649086016E20298F54904F0B5FF002839
:202CE00011D0FFE70198002805D4FFE70198EE49884204DBFFE703A9002008700EE2019861
:202D0000EA494860FDE10298EA4904F09DFF002811D0FFE70198002805D4FFE70198E2496A
:202D2000884204DBFFE703A900200870F6E10198E1490860E4E10298FA4904F085FF00287C
:202D400011D0FFE70198002805D4FFE70198D649884204DBFFE703A900200870DEE1019849
:202D6000D5494860CBE10298EF4904F06DFF002811D0FFE70198002805D4FFE70198CF498F
:202D8000884204DBFFE703A900200870C6E10198C6498860B2E10298E44904F055FF00285F
:202DA00011D0FFE70198002805D4FFE70198C349884204DBFFE703A900200870AEE101982C
:202DC000FD49886099E10298D94904F03DFF002812D0FFE70198002806D4FFE70198FF2135
:202DE000C431884204DBFFE703A90020087095E10198F24988817FE10298CE4904F024FF90
:202E0000002812D0FFE70198002806D4FFE70198FF21C431884204DBFFE703A900200870C0
:202E20007CE10198E449888165E10298C24904F00BFF002811D0FFE70198002805D4FFE70E
:202E40000198DB49884204DBFFE703A90020087064E10198D74908604CE10298B74904F0C1
:202E6000F3FE002812D0FFE701984F21C943884204DBFFE70198512804DBFFE703A900202A
:202E800008704BE10198C949088032E10298AC4904F0DAFE00281FD0FFE7BB48007801284C
:202EA0000AD1FFE701982221C943884204DBFFE70198242804DBFFE703A9002008702DE1DE
:202EC0000198B74908800198B6490880B64900200870694608700BE102989A4904F0B4FEE4
:202EE000002822D0FFE70198002805D4FFE70198A349884204DBFFE703A9002008700DE10C
:202F00000198A6490860A048007801280CD1FFE79E49002008809E4908809E4909889E4A17
:202F2000118069460870FFE7E1E00298864904F08BFE002822D0FFE70198002805D4FFE7CC
:202F400001988F49884204DBFFE703A900200870E4E001988B4908608B48007801280CD143
:202F6000FFE78A49002008808949088089490988894A118069460870FFE7B7E002987349D5
:202F800004F062FE002813D0FFE70198AF218900884205DBFFE701987749884204DBFFE782
:202FA00003A900200870B9E00198744908809CE00298674904F048FE002819D0FFE70198C6
:202FC00064280DDBFFE701984B218900884207DCFFE7019800226749895E884204DAFFE796
:202FE00003A90020087099E00198614908807BE00298584904F028FE002817D0FFE701980B
:2030000050280BDBFFE70198FA2807DCFFE7019800225749895E884204DDFFE703A9002049
:2030200008707BE00198534908805CE002984A4904F00AFE002812D0FFE70198322806DBD7
:20304000FFE70198FF216031884204DBFFE703A90020087062E001984449088042E00298C1
:203060003E4904F0F1FD002810D0FFE70198502804DBFFE70198FB2804DBFFE703A90020D6
:2030800008704BE00198384908802AE00298344904F0DAFD00281FD0FFE70198322813DB21
:2030A0000EE0C04692B50000B90B00008039202072B50000A2B5000094392020E9030000A1
:2030C00001988D2804DBFFE703A90020087025E001982449088003E003A9002008701DE0E2
:2030E000FFE7FFE7FFE7FFE7FFE7FFE7FFE7FFE7FFE7FFE7FFE7FFE7FFE7FFE7FFE7FFE770
:20310000FFE7FFE768460078002803D0FFE707F007FCFFE703A901200870FFE703A80078AE
:2031200004B080BD6AB5000042B500005AB5000002B500002FB50000DFB40000E9B40000AE
:2031400072B4000064B40000F4B3000012B3000054B3000042B30000B4B200008AB3000026
:2031600078B30000DE3A2020E03A2020E63A2020E23A2020E83A20204D040000DC3A2020AD
:20318000214E00003C3A2020873A2020C03A2020B63A2020B43A2020BE3A2020443A20207B
:2031A000A43A2020A63A2020083B2020C83A202089130000743A202094392020803920207C
:2031C00080B58CB00A90C148008809A90880C0480078012832D1FFE70021BE48405E012899
:2031E0002CDBFFE7BB48008809A90880BA480078002822D0FFE7B948007800281DD0FFE72F
:203200000021B748405EAF218900884215DBFFE70021B348405EB34988420EDCFFE7002384
:20322000B149CA5E03205043AD4AD25E8018801C820F801880080880FFE7FFE7A6480078F0
:2032400000281AD0FFE7002109A8405E322814DBFFE7002109A8405E8C280EDCFFE70023C0
:20326000A249CA5E0320504309AAD25E8018801C820F801880080880FFE79D490878401C8D
:2032800008709348007801281DD1FFE7994806F0C1FB9748007803F039FF9748079006F0E5
:2032A000B9FB002108919048405E03F02FFF079806F0B0FB08998D48405E03F027FF8F48C5
:2032C00006F0A8FBFFE78E4806F0A4FB88480690007803F01BFF8848059006F09BFB002107
:2032E0007F48405E03F012FF059806F093FB0A9884490968401A03F009FF804806F08AFBCC
:2033000006980078804909788900C9B2884252DBFFE701F06DFAA44900200870A34908702B
:203320006B480078012815D1FFE7A14806F072FB002104916C48405E03F0E8FE9D4806F065
:2033400069FB04996948405E03F0E0FE6B4806F061FBFFE7984806F05DFB00216348405EC9
:2033600003F0D4FE6548039006F054FB934806F051FB5F48007803F0C9FE039806F04AFB37
:2033800053480078012804D1FFE78F4806F042FB0DE003F07FF8002804D0FFE7894806F02C
:2033A00039FB03E0864806F035FBFFE7FFE70BA90120087085E055490020029008700A981A
:2033C0005349086006F09EFD5249086006F0ACFD01460298504A1160504908805049087098
:2033E000504908705049087050480088504908803748007801284AD1FFE74E490020019001
:2034000008804D4908804D4908704D4908804D4908804D4908800A994C4A11604C490870E7
:203420004C4908704C4908604C4908604C4908604C4908604C49087006F0F0FD4B4908609F
:2034400006F0FCFD01460198494A1160494908704949087006F0E2FD4849086006F0EEFDD6
:2034600001460198464A116046490860464908600A98464908600A984549086007F0DAFA81
:20348000002803D0FFE707F00FFAFFE7FFE71048007801280ED1FFE73E480078002809D0C2
:2034A000FFE73D4800683D4908613D4800683D49086102E007F034FAFFE70BA90020087035
:2034C000FFE70BA800780CB080BDC046EA3A2020873A2020963A2020273B20202C3B20201E
:2034E000EC3A20204C040000DC3A2020DE3A20201F3B202016B20000CDB50000B0B500001F
:2035000067B20000703A2020223B2020213B20206C3A2020C0392020C4392020903A202009
:20352000FB3A2020FC3A2020283B2020B43A2020BE3A2020C03A2020B63A2020033B2020AF
:203540009E3A20209C3A20209A3A2020D8392020043B2020053B2020EC392020E839202013
:20356000F0392020E4392020083B2020043A2020083A2020023B2020063B2020CC392020BF
:20358000D0392020E0392020F8392020DC392020F4392020073B2020FC3920208039202066
:2035A000003A202094392020253B2020F73A2020E7AE0000BFB200004CAF0000D9B10000E8
:2035C000AEAF00001CB0000011AE000080B588B006AB188005A80170049207F02BFA002855
:2035E0000FD0FFE707F074FA00280AD0FFE705A80078002805D0FFE705A800780B2804D382
:20360000FFE707A900200870F6E001F0F1F804F087FD7B490620087006987A49088004986D
:203620007949086005A80178784848437849086006F014FD77490860049877490860774913
:2036400001200870764900200870764908700499754A11600499754A11600599744A1170CC
:20366000744908707449087074490870744908707449087074480078012808D1FFE707F02E
:20368000D9F9002803D0FFE707F00EF9FFE76F490020039008806E4908806E4A0121117006
:2036A0006D4908706D4908706D49087006F02AFC6C49086006F038FC014603986A4A116016
:2036C0006A4908806A49087006F01CFC6949086006F02AFC01460398674A11606749088004
:2036E000674AE1214900118066490880664908806649088066490880664908805248007818
:20370000012805D1FFE700216348405E029002E000200290FFE702986049088060490020BA
:20372000019008705F4908605F4908605F4908805F4908805F49088004995F4A11605F4971
:2037400008705F4908705F4908605F4908605F4908605F4908605F4908705F49087006F05B
:203760005DFC5E49086006F069FC014601985C4A11605C4908605C49086004995B4A1160C2
:2037800004995B4A11605B4908605B4908605B4908705B4908705B4908705B4908705B494A
:2037A00008705B4908805B4908805B4908705B4908805B4A5B4911805B4908605B4806F072
:2037C00029F9019906A8405E03F0A0FC584806F021F905A8007803F099FC564806F01AF94E
:2037E00055480078002803D1FFE707F0E9F8FFE707A901200870FFE707A8007808B080BDC9
:20380000173B2020DA3A20204C3A202060EA0000483A2020243A20202C3A2020253B20200C
:20382000F63A2020213B20206C3A2020703A2020223B20201F3B2020FB3A2020FC3A20208A
:20384000283B2020033B2020873A2020EC3A2020E43A20202C3B20202B3B20202A3B202090
:20386000293B2020783A20207C3A2020EA3A2020273B2020C0392020C4392020903A202036
:203880008C3A2020B43A2020BE3A2020B63A2020C03A2020BC3A2020A43A2020A63A2020DE
:2038A000083B2020043A2020083A20209E3A20209C3A20209A3A2020D8392020043B202073
:2038C000053B2020EC392020E8392020F0392020E4392020023B2020063B2020CC39202099
:2038E000D0392020E0392020F8392020DC392020F4392020FC392020003A2020073B202082
:20390000093B20200A3B20200B3B2020013B2020983A2020963A2020003B2020943A2020F1
:20392000923A2020FF7F0000D43920206FB00000CDB50000B0B50000F73A202080B5E4B070
:203940007F2080026290619062980068BD49884246D1FFE762984068032841D1FFE77F20D0
:2039600080024C904C9922A8A82207F0C9F82498A82810D1FFE74B98089022A804F05CFFD1
:2039800001460898884206D1FFE722A804F04EFB002804D1FFE763A9002008704DE122A932
:2039A00005911031B84807904822069207F0A8F80599069A07985831483007F0A1F80699F3
:2039C00007984A9AAF4B1A80259BAD4A137012785143401803F03CFB63A9012008702CE144
:2039E00062980068974988423BD1FFE762984068022836D1FFE77F208002219021990BA8D1
:203A0000582207F07DF80D98582810D1FFE7209804900BA804F0E0FE01460498884206D17F
:203A2000FFE70BA801F054FA002804D1FFE763A90020087001E10BA803F0ACFA9049002000
:203A40000870904908809048039003F043FA039908464830482207F053F863A9012008703F
:203A6000EBE0619800684D90619840684E90619880684F906198C0685090619800695190BA
:203A80006198406952906198806953906198C06954906198006A55906198406A569061980D
:203AA000806A57906198C06A58906198006B59906198406B5A906198806B5B906198C06B5C
:203AC0005C906198006C5D906198406C5E906198806C5F906198C06C60904D9859498842DB
:203AE00014D1FFE74E98012810D1FFE7599802904DA805F015FD01460298884206D1FFE73E
:203B00004DA802F0C9F8002804D1FFE763A90020087092E04F984C4A106050985060519896
:203B20004A490860529848605398906054988860559890815698888157984549086058987F
:203B4000444908805A98401C002817D0FFE74DA8818E0A91C08E09900A983F4988420CDCAB
:203B6000FFE709983C49884207DCFFE70A983B49086009983A490860FFE7FFE75B98AF21FD
:203B8000890088423ADBFFE75B983649884235DCFFE75C98642831DBFFE75C984B21890049
:203BA00088422BDCFFE75D98502827DBFFE75D985C99884222DCFFE75E9832281EDBFFE732
:203BC0005E98AF214900884218DCFFE75F98502814DBFFE75F98FA2810DCFFE75B982249A5
:203BE00008805C98214908805D98214908805E98204908805F9820490880FFE76098322869
:203C000008DBFFE760988C2804DCFFE760981B490880FFE71A49002008701A4908801A4857
:203C2000019003F057F9019908464830482206F067FF63A901200870FFE763A8007864B068
:203C400080BDC046314449508039202094392020743A2020C83A2020204E0000443A2020B1
:203C60003C3A20204C040000DC3A2020E23A2020E83A2020E63A2020E03A2020DE3A202018
:203C8000873A2020A43A20209037202080B588B006909548007801281AD1FFE79348007859
:203CA000062815D1FFE792480078002805D0FFE78F48007806280BD1FFE700218D48405E02
:203CC000C92809DBFFE78A480078062804D0FFE707A90020087002E100228748805E87492D
:203CE000895E4018C10F4018400805A908808448007800286AD1FFE7002105A8405E282896
:203D000064DBFFE77F48006800280BD1FFE706987C49086006987C49086006F07FF97B499D
:203D20000860FFE706F07AF978490968401A04900498002804D5FFE7049840420490FFE791
:203D40000498042807DBFFE76D49012008706D490020086039E006986A490968401A642885
:203D600016D3FFE7069868490968401A32280FD3FFE7002166480290405E801C50218C227E
:203D800005F042F80299088006985F490860FFE700226048805E5E49895E884205DAFFE778
:203DA0005B4800885B490880FFE7069855490968401A8008E12807D3FFE7574805F04AFC94
:203DC00007A9012008708AE0FFE70AE0002105A8405E272804DCFFE74A4900200860FFE7DE
:203DE000FFE74E48007800286AD1FFE7002105A8405E282864DBFFE74948006800280BD1A8
:203E0000FFE706984649086006984649086006F015F945490860FFE706F010F942490968B7
:203E2000401A03900398002804D5FFE7039840420390FFE70398042807DBFFE7374901204D
:203E4000087037490020086039E0069834490968401A642816D3FFE7069832490968401AA4
:203E600032280FD3FFE7002130480190405E801C32218C2204F0C8FF0199088006982949CE
:203E80000860FFE700222A48805E2849895E884205DAFFE72548008825490880FFE706980C
:203EA0001F490968401A8008E12807D3FFE7214805F0D0FB07A90120087010E0FFE70AE04C
:203EC000002105A8405E272804DCFFE7144900200860FFE7FFE707A900200870FFE707A8D3
:203EE000007808B080BDC046873A2020173B2020213B2020DA3A2020B23A2020D23A202054
:203F0000023B2020E0392020DC392020CC392020A03A2020AA3A2020B9B00000063B202009
:203F2000F8392020F4392020D0392020A23A2020CA3A20205CB0000070B58EB00D9009A93C
:203F40000020087094480078002801D1FFE721E10D9891498A68801A0C900D98096988420B
:203F600000D2ECE00D9914318B48016140784C2804D1FFE705F014FF069003E005F024FF03
:203F80000690FFE706980BA90880834840784C2805D1FFE700218248405E059004E00021F5
:203FA0007E48405E0590FFE705980AA9088000210BA8405E05F046FD77492422895E8842E9
:203FC00008DDFFE700210BA8405E05F03BFD72498884FFE77048007801283BD1FFE70C98DB
:203FE0008008AF2812D3FFE700210BA8405E05F029FD0446E3176849C86A8A6A121958412B
:204000008A62C862888A401C8882FFE700210BA8405E05F017FD6349884207DBFFE75E49CC
:204020004822885C022318438854FFE700210BA8405E05F007FDE121C900884209DBFFE726
:20404000554A4823D15C01200143D15409A90870FFE773E0504A049290880B99411A08A845
:204060000180918A491C91820021405E05F0EAFC04990446E317486B0A6B121958410A6358
:204080004863086AC968884216D1FFE700210BA8405E039040480421415E092048430A210B
:2040A00004F0BEFD0146039809B2884204DBFFE70C9839490862FFE700210AA8405EFF211E
:2040C000F031884205DBFFE73349088B401C0883FFE70C983049CA680321514389088842F1
:2040E00018D3FFE72C490291C88A401CC88200230BA8C65EF517CA6B8C6BA4196A418C6366
:20410000CA63C45E6443486C0A6C121958410A644864FFE700210BA8405E05F093FCE121C3
:204120008900884209DBFFE71B4A4823D15C01200143D15409A90870FFE7FFE7FFE70C985B
:204140001549C968884205D2FFE709A80078002820D0FFE710490091087807AA01921070F4
:204160001148502206F0CCFC0099104A012010700020087000F03CFB01980078012804D154
:20418000FFE7094802F0E0FD03E0074802F0E4FAFFE7FFE70EB070BDF0382020CA3A2020B4
:2041A000AA3A202092090000A0382020123B2020B0B588B0664AAF20410011606420506099
:2041C00073208000906020209081624A7D20830013605160FF21B63191601A2191815E4AAE
:2041E000C10011605D4A322111805D4A5D4911605D49000108605D49E120800008805C49E1
:20420000B92008805B498C2008805B4AB42111805A4908805A49622008805A49002004902B
:204220000870594908805948039002F053FE039908464830482206F063FCFFF77FFB07A924
:20424000087000F0D5FA04985149087051490870514908605149086051490860514908605F
:2042600051490860514908805149088051490870514908705149087051490870514908709E
:2042800051490860514908805149088051490880514908805149088051490870514908704E
:2042A0005149088051490860514A01211170514908705149087006A90870FFE706A8007845
:2042C000022826D8FFE706A80290007803F0DCFF029A05A90870059B107806210C46444360
:2042E0004C480355059B15780C466C4304196370059B15780C466C430419A3701278514338
:20430000411800208880FFE70698401C06A90870D4E73A49002008603949012008703948B3
:2043200005F078FB07A801783748384A00920029019001D100980190019805F06BFB05F0BC
:204340008BFC00F069F8324805F064FB08B0B0BD8039202094392020743A2020C83A20205C
:20436000443A20205E1A00003C3A2020DC3A2020E23A2020E83A2020E63A2020E03A202083
:20438000DE3A2020873A2020A43A202090372020253B2020F73A20204C3A20201C3A202032
:2043A0002C3A2020183A20200C3A2020D43A20208E3A2020F63A2020FE3A2020243B202062
:2043C000233B2020203B2020583A2020B43A2020BE3A2020B63A2020C03A2020BC3A2020CC
:2043E000163B2020153B2020B83A2020403A2020223B20201F3B2020033B2020103A202071
:204400001D3B202056AE0000DCAF000096AF0000A7B00000A839202080B584B0554805F0BD
:20442000F9FA5548007802F071FE544805F0F2FA032002F06BFE524805F0ECFA062002F08B
:2044400065FE504805F0E6FA4F480090006802F05DFE4E4805F0DEFA0098406802F056FEC7
:204460004B4805F0D7FA4B480290006802F04EFE494805F0CFFA0298406802F047FE4748C1
:2044800005F0C8FA0098806802F040FE444805F0C1FA0298806802F039FE424805F0BAFA9B
:2044A00000980C210191405E02F030FE3E4805F0B1FA01990298405E02F028FE3B4805F05F
:2044C000A9FA3B48006802F021FE3A4805F0A2FA002103913848405E02F018FE374805F0DB
:2044E00099FA03993648405E02F010FE354805F091FA3548006802F009FE344805F08AFAA1
:204500003348006802F002FE324805F083FA03993148405E02F0FAFD304805F07BFA0399C0
:204520002F48405E02F0F2FD2E4805F073FA03992D48405E02F0EAFD2C4805F06BFA0399BB
:204540002B48405E02F0E2FD2A4805F063FA03992948405E02F0DAFD284805F05BFA0399EB
:204560002748405E02F0D2FD264805F053FA04B080BDC046F2AF0000873A202093B20000DF
:204580007DB20000BCB400008039202092B40000C8B4000094392020D4B40000B6B40000C2
:2045A000B0B4000033B400004FB40000FBB30000743A202079B40000C83A20204BB30000A4
:2045C000A43A20205DB30000443A202066B300003C3A20202EB20000DC3A2020D5B2000063
:2045E000E23A202051B20000E83A2020A5B10000E63A202072B20000E03A2020BFB2000055
:20460000DE3A2020B0B5000080B586B0059004F01FF801464B4801800021415E0320484309
:20462000052104F0FDFA4B218900E122920004F0EBFB04A908804448007800280ED1FFE7DF
:2046400004984249088042480078012805D1FFE74048008840490880FFE70DE000233B4929
:20466000CA5E0320504304AAD25E8018801C820F801880080880FFE7384901200870059874
:2046800037490860059837490860374900200390087036490870364908703649087036499E
:2046A000088036490880364908703649087036490860364908603649086036490860364962
:2046C000087005F0ABFC3549086005F0B7FC01460398334A11603349087033490870334904
:2046E00008703349087033490880334908803349087033490880334A3349118033490860E0
:2047000013480078012816D1FFE73148006931490191314A029205F0E9F80199029A2F4B4D
:2047200018602F48006905F0E1F82E4908602E4901200870FFE72D490020088006F0F0F882
:2047400006B080BD903A20201F3B20208C3A2020873A2020A63A2020A43A2020213B2020E1
:204760006C3A2020703A2020FB3A2020FC3A2020283B2020033B20209E3A20209C3A20202F
:20478000043B2020053B2020EC392020E8392020F0392020E4392020083B2020043A20208D
:2047A000083A2020093B20200A3B20200B3B2020013B2020983A2020963A2020003B2020CF
:2047C000943A2020923A2020FF7F0000D439202080392020702FFCFF90D00300FC39202089
:2047E00094392020003A2020073B2020EC3A202080B53D49002008803C4908803C490880CD
:204800003C4908803C4908703C4908603C4908803C4908603C4908703C4908603C490860D0
:204820003C4908703C4908703C4908703C4908803C4908803C4908703C4908703C49087070
:204840003C4908703C4908803C4908703C4908803C4908803C4908703C4908603C49086060
:204860003C4908803C4908803C4908803C4908603C4908703C4908703C4908603C49086050
:204880003C4908603C4908603C4908703C4908703C4908603C4908603C4908603C49086090
:2048A0003C4908603C4908603C4908603C4908603C4908703C4908703C4908703C49087050
:2048C0003C4908703C4908803C4908803C4908703C4908803C4A3D4911803D49086006F036
:2048E0001FF804F02DFF80BDAA3A2020CA3A2020B23A2020D23A2020173B2020483A202010
:20490000B83A2020403A2020213B20206C3A2020703A2020FB3A2020FC3A2020283B2020B1
:20492000EC3A2020E43A20202C3B20202B3B20202A3B2020293B2020EA3A2020273B202017
:20494000903A2020A63A2020083B2020043A2020083A20209E3A20209C3A20209A3A202068
:20496000D8392020043B2020053B2020EC392020E8392020F0392020E4392020023B2020DE
:20498000063B2020CC392020D0392020E0392020F8392020DC392020F4392020FC39202007
:2049A000003A2020073B2020093B20200A3B20200B3B2020013B2020983A2020963A2020CE
:2049C000003B2020943A2020923A2020FF7F0000D439202080B58CB00B90DC2003F0FCFC84
:2049E000002801D1FFE7B4E005F0DAF90AA9088005F0EAF909A9088057480078002803D11B
:204A0000FFE70020079005E00B9854490968401A0790FFE707980890514804F0FBFF08982E
:204A200002F074FB4F48059004F0F4FF03F0CCF804F0F0FF059804F0EDFF002106914A48A1
:204A40000090405E02F062FB059804F0E3FF069946480290405E02F059FB059804F0DAFF59
:204A600006990AA80190405E02F050FB059804F0D1FF069909A80390405E02F047FB0598C6
:204A800004F0C8FF06993A48405E02F03FFB059804F0C0FF06993748405E02F037FB0598A3
:204AA00004F0B8FF00980199069A805E895E401A02F02CFB059804F0ADFF02980399069A2E
:204AC000805E895E401A02F021FB059804F0A2FF05F0A4FA049005F0B1FA01460498401A73
:204AE00002F014FB059804F095FF06992248405E02F00CFB059804F08DFF2048007802F001
:204B000005FB059804F086FF1D48007802F0FEFA059804F07FFF03F04DFF02F0F7FA0598EA
:204B200004F078FF1748007802F0F0FA059804F071FF1548007802F0E9FA059804F06AFFB2
:204B400006991248405E02F0E1FA114804F062FFFFE70CB080BDC046173B20204C3A202006
:204B6000EEB40000CDB50000B23A2020D23A2020AA3A2020CA3A2020B43A2020153B202073
:204B8000163B20201F3B2020213B2020EA3A2020B0B5000080B588B007905E48007800283B
:204BA0000AD0FFE707985C49884201D8FFE7AFE0584900200870FFE758480078002812D197
:204BC000FFE760490120032200F0E2FC002803D1FFE704F025FA9BE05049012008705649F1
:204BE0000020087094E0262004A90C2200F0D0FC002810D1FFE74F49002008704C480078A1
:204C0000032805D8FFE74A490878401C0870FFE704F006FA7CE004A8083005F0CDF9039057
:204C20000399084605F08AFD00280ED1FFE703983B4903F049FD002807D1FFE703983949C6
:204C400003F060FD002808D0FFE73949002008703849087004F0E4F95AE0039802F0EEFE87
:204C600002A908803048006800282FD0FFE702982E490988401A00B203F04EFF014601A836
:204C800001802B49097832224A43323269460A800022805E895E884209DCFFE7002201A8D9
:204CA000805E6946895E494288420EDAFFE720480021017002A8405E02F00AFD002803D126
:204CC000FFE704F0ADF923E0FFE7FFE702981749088017490020087016490870164908705D
:204CE00016490120087010480068002805D1FFE70E48008812490880FFE70B480068401C5A
:204D0000002805D0FFE708490868401C0860FFE708B080BD2E3B2020871300002D3B202065
:204D20000000D0C00000D040543A2020F23A2020263B20201C3B2020F93A20201A3B202059
:204D4000F43A2020843A202080B594B01390FFE703A8402100F07EFB002805D0FFE71399E1
:204D600003A8FCF759FAF3E7139801F09DFA139802F05EFC1398FBF7A3F91398FFF7DCF890
:204D80004548007801280ED1FFE7139843490968401A00097D2806D3FFE7FFF729FD40480D
:204DA00004F038FEFFE73F48007800280ED0FFE713983D490968401A142807D3FFE7139855
:204DC00039490860139801F0DFFBFFE732480078022814D0FFE73048007803280FD0FFE7C7
:204DE0002D48007804280AD0FFE72B480078052805D0FFE72848007806282AD1FFE7139865
:204E00002A490968401A2A490968884221D3FFE724480090007802A901910870FFF7E8FCC9
:204E20000099244A002010700870234804F0F2FD0198007800280BD0FFE7204804F0EAFDC8
:204E40001F48008802F062F91E4804F0E3FDFFE7FFE718480078002818D0FFE713981A4934
:204E60000968401A142811D3FFE713981649086016480078002804D0FFE7139801F098F90A
:204E800003E01398FFF7A6FDFFE7FFE7139803F051F814B080BDC046173B20201C3A202009
:204EA00001AF0000F63A2020183A20204C3A2020483A2020253B20203AB2000046B2000034
:204EC000D43A2020B0B500002C3A2020F73A202080B59AB018901898C0680690189800695A
:204EE00007901898406908901898806909901898C0690A901898006A0B901898406A0C90DA
:204F00001898806A0D901898C06A0E901898006B0F9004A800F0C0FE002804D1FFE719A929
:204F20000020087085E01898416B00200029039079D4FFE71898416B0020404A914203909D
:204F400071DCFFE71898816B0020002903906AD4FFE71898816B0020384A9142039062DCA0
:204F6000FFE71898C16B0020AF2292009142039059DBFFE71898C16B0020314A914203908F
:204F800051DCFFE71898016C0020642903904ADBFFE71898016C00204B22920091420390F4
:204FA00041DCFFE71898416C0020502903903ADBFFE71898416C026C00209142039032DC0B
:204FC000FFE71898816C0020322903902BDBFFE71898816C0020AF2252009142039022DC10
:204FE000FFE71898C16C0020502903901BDBFFE71898C16C0020FA29039014DCFFE71898AD
:20500000016D0020322903900DDBFFE71898016D0120002201928D29029001DB0198029003
:2050200002980390FFE703980121084019A90870FFE719A800781AB080BDC046204E000084
:205040004C04000070B588B00C4605460D980C9907AE357006AD2C800592049303AA1170A7
:2050600002A90870FFF7C4FB3749002008703749087003F055F805F0DDFC002803D0FFE759
:2050800005F012FCFFE707983149087006983149088004983049086005983049086004F007
:2050A000DDFF2F49086004982E49086004982E49086003982D49087002982D4908702D49B7
:2050C0000020019008802C4908802C4908802C4908802C4908802C4908702C4908702C4954
:2050E00008802C49086002A80078002808D0FFE72949002008802949088029490870FFE75F
:20510000284804F087FC02F05FFD04F083FC2648009004F07FFC002106A8405E01F0F6FF27
:20512000009804F077FC059801F0F0FF1F4804F071FC03A80078002803D0FFE705F040FCF6
:20514000FFE708B070BDC046243B2020233B2020173B2020DA3A20204C3A2020483A2020D3
:20516000243A20202C3A2020183A2020253B2020F63A2020B43A2020BE3A2020B63A2020B3
:20518000C03A2020BC3A2020163B2020153B2020B83A2020403A2020D43A20208E3A20203C
:2051A000FE3A20200AB20000CDB50000B0B5000080B584B0024603A80270029100780028D3
:2051C00028D1FFE744480078002822D1FFE74348007800281DD1FFE741480078002818D1DA
:2051E000FFE745480078022813D3FFE7424901910878401E08703D49002008703F4804F0C2
:2052000009FC0198007801F081FF3D4804F002FCFFE75EE003A80078012828D1FFE72E48CB
:205220000078002822D1FFE72C48007800281DD1FFE72B480078002818D1FFE72E4800783D
:20524000092813D8FFE72C4900910878401C0870264900200870294804F0DCFB009800789F
:2052600001F054FF264804F0D5FBFFE731E01A48007800280AD1FFE718480078002805D128
:20528000FFE717480078002803D0FFE703F064FB1FE01448007800280DD0FFE711490020E6
:2052A00008700E490120087002980F490860114804F0B0FB0CE00A490120087002980A496F
:2052C00008600A4900200870094804F0A3FBFFE7FFE704B080BDC046173B2020233B2020A5
:2052E000203B2020243B2020583A20201F3B2020E9AD000074AE00001D3B20204FB10000B8
:20530000B0B5000080B58EB021200421039104F065FF0120029001034A480A9005F07AF819
:205320002220052104F05AFF02990A98490305F071F802980399002207920192C3040993EA
:205340000093430408930F20049003F0BDFC0399079A089B0998019200900E20059003F00F
:20536000B3FC049804F01EFF059804F01BFF1F200221069104F032FF0699202004F02EFE09
:20538000352005F06BF8362005F068F8192005F065F8182005F062F8312005F05FF8079966
:2053A000089A099B0091322003F056FD0799089A099B0091122003F04FFD0799089A099BB0
:2053C0000091162003F048FD0799089A099B0091232003F041FD0799089A099B0091242028
:2053E00003F03AFD0799089A099B00911C2003F033FD0799089A099B00911D2003F02CFDDD
:20540000102005F02BF8112005F028F80A9803210C9109060B9105F0B0F90A980B9904F018
:20542000F9FF0C98010208480D9005F0A6F90D98064905F037F80D98054904F0EBFF0EB0A5
:2054400080BDC04600000A4000200A40300040003003400080B588B0069005A801800698A3
:20546000002805D0FFE705A80088012804D8FFE707A9002008707BE0FFE73F4800883F4909
:205480000988884270D0FFE73B48009002883C49895C04AA019211700088802104F040FA6B
:2054A000009A01460198118000780D2805D0FFE704A800780A2840D1FFE732480078002812
:2054C00001D0FFE7D9E72F49012008702E480088002831D0FFE72C48018802A80180008887
:2054E00005A90988884205DBFFE70598401E02A90880FFE703A900200880FFE703A800885C
:2055000002A9098888420CDAFFE703A802881F48805C06998854FFE70398401C03A90880B5
:20552000ECE7069902A80288002088541649088007A9012008701BE015E0124900200870B6
:20554000114800883E2809D8FFE704980E490B880E4AD0540888401C088003E00A49002071
:205560000880FFE7FFE788E707A900200870FFE707A8007808B080BDD83A2020D63A20207C
:2055800020382020133B2020BA3A20204039202080B58EB00CAB18700B910AA802700B98E3
:2055A00000280AD0FFE70AA80078002805D0FFE703F0EAFC002804D1FFE70DA900200870EC
:2055C00079E004F05BFD3E4805900CA90122069203F092F905983B4904F070FF0598069B5B
:2055E000002202920192022107910091232102F06BFB079802F0DEF9002804D1FFE70DA979
:205600000020087057E00AA80378002004900290042001900220009029482321012202F017
:2056200053FB049809A90870FFE709A800780AA90978884230DAFFE723480890FFE7204808
:2056400004F0E8FD00281AD0FFE71D4805F0AAF88007002806D5FFE704F010FD0DA9002036
:20566000087028E00898411E0891002806D1FFE704F004FD0DA9002008701CE0DFE71048D0
:2056800005F0A4F80B9909AA12788854FFE70998401C09A90870C8E7012002F08BF9002841
:2056A00004D1FFE70DA90020087004E003F06CFC0DA90870FFE70DA800780EB080BDC04660
:2056C00000200F40830400008813000080B596B049480F9004F0FEFE0F9805F09FF80F98C4
:2056E00003F05EFF0F9804F065F90023149300930120420410920E20194604F043F9109A94
:20570000149B00930F20194604F03CF93B4812900421119105F027F812980821139105F024
:2057200022F81199129805F032F81298139905F02EF80520800105F0DDF9149815A9087018
:20574000FFE715A80078082817D8FFE72B480C9004210D9104F052FEA0200E9005F0CAF9FD
:205760000C980D9905F013F80E9805F0C3F9FFE71598401C15A90870E3E720480390082175
:20578000049104F03BFEA02005F0B4F90398049904F0FDFF0520800105F0ACF900220792C2
:2057A00001920120C10405910091430408930F2009900421069103F05FFA05980699079ABA
:2057C000089B019200900E200A9003F055FA099804F0DAFC0A9804F0D7FC07480B9004F047
:2057E000CDFE0B9804F0A6FE102005F083F903F067F916B080BDC04600200F4000200A40CD
:2058000010B58EB00C900BA801800AA90A800021405E002806DCFFE70C99002008610DA9E5
:20582000088079E0002201920BA80390805E0AA9895E401A09900C980069099A0A215143B2
:205840004018089008983749374A04F04FF808900C980168099848437D21C900029103F0BE
:20586000DFF907900C984168089848432F4903F0D7F9019B02990246039806920C9A0C247E
:20588000145F04949268C05E504303F0C9F901460498401807994018069940180590059841
:2058A000FF21F631884204DBFFE7099800280CDCFFE70598002804D5FFE70998002804D456
:2058C000FFE708980C9908611DE00C98416800694843164903F0A4F906900C980C21415E01
:2058E0000091816800220BA8805E48437D21C90003F096F901460098401807994018069939
:2059000040180590FFE705987D218A00002103F07BFA0DA90880FFE700210DA8405E0EB010
:2059200010BDC046E05EF8FF20A1070040420F00B0B58EB004F0E0FF05903B4800680D9073
:205940003A4800680C90059804F0CCFF0D98384A1168401A0B900C9836490B68C01A0A90C6
:205960000D9810600C9808600B98C117324A02920023049304F00EFB049B07910690069859
:2059800007992E4A039204F0A3FF029A049B09900A98C11704F0FEFA039A049B0791069020
:2059A0000698079904F094FF089009982449884203DBFFE723480990FFE708982049884231
:2059C00003DBFFE71F480890FFE700201E4B0093195E099D032214466C430919CC17A40FFF
:2059E00009198908198019490191085E089B5A438018C217920F80188008088004F07CFF98
:205A000000990246019805920988114A118000881049088010490868401C0860059804F071
:205A200061FF0EB0B0BDC046343A2020603A2020383A2020643A2020A0D908001027000005
:205A4000C5090000C4090000AE3A2020CE3A2020B03A2020D03A2020683A202080B58AB076
:205A6000024608A8027007910021069105AA117004AA117003AA117002AA1170079A117090
:205A80000078002805D0FFE705F022F8002804D1FFE709A9002008806BE001A900200870D2
:205AA000FFE701A8007807283BD8FFE708A8007801A9097804F056FC00282CD0FFE701A86B
:205AC00001784A002D498A5E0699891806910599491C05AA11700078022804D8FFE704A98A
:205AE00001200870FFE701A80078052804D3FFE703A901200870FFE701A80078032805D0D0
:205B0000FFE701A80078042804D1FFE702A901200870FFE7FFE7FFE70198401C01A908708A
:205B2000BFE705A80078002814D0FFE705A8007804280FD8FFE702A8007800280ED1FFE77B
:205B400004A80078002809D0FFE703A80078002804D0FFE709A9002008800AE00799012030
:205B60000870069805A9097803F05AF809A90880FFE7002109A8405E0AB080BD10B1000053
:205B800080B588B00790354803F044FF079801F0BDFA3348049003F03DFF02F015F803F0D7
:205BA00039FF049803F036FF002103912D48405E01F0ACFA049803F02DFF03992A48405E23
:205BC00001F0A4FA049803F025FF04F0E9F801F09DFA049803F01EFF04F0F6F801F096FA17
:205BE000049803F017FF03992048405E01F08EFA049803F00FFF03991D48405E01F086FA38
:205C0000049803F007FF1B4801781B481B4A05920029069001D105980690069803F0FAFE67
:205C2000174803F0F7FE1748007801F06FFA164803F0F0FE04F042FE01461448144A0192E5
:205C40000029029001D101980290029803F0E2FE104803F0DFFE08B080BDC046ACB300009D
:205C6000CDB50000B23A2020D23A2020AA3A2020CA3A2020243B20208CB4000007B5000027
:205C800020B100001D3B202041B4000011B500004AB50000B0B5000082B00090009880683A
:205CA0004049884240DCFFE70098C0683D4988423ADCFFE7009800693A49884234DCFFE73F
:205CC00000984069374988422EDCFFE7009880697D21C900884227DCFFE70098C0697D214F
:205CE000C900884220DCFFE70098006AE1214900884219DCFFE70098406AE12149008842E6
:205D000012DCFFE70098806A274988420CDCFFE70098C06A4F21C943884205DBFFE70098BF
:205D2000C06A512804DBFFE701A90020087034E000988068002828D4FFE70098C068002833
:205D400023D4FFE70098006900281ED4FFE700984069002819D4FFE700988069002814D498
:205D6000FFE70098C06900280FD4FFE70098006A00280AD4FFE70098406A002805D4FFE774
:205D80000098806A002804D5FFE701A90020087003E001A901200870FFE701A8007802B079
:205DA0007047C046B80B000088130000F0B5394A8218394BC0183A4D4C790B79002C22D0BC
:205DC000466F202B02D00524E70100E0354F2E40002B00D188273E434667846F2C403C4357
:205DE0008467446B2D4E34404463846B3440846300244465846554688F26F64334405460A1
:205E00009468344094600C688979202B09D006467036002B15D1641E4460C46E2C4088270E
:205E200015E0641E4460C46E2C401E4E3443C466046F2C40344304671B4D01246707064694
:205E400007E00527FF0164084460C46E2C403C43C46634682C403C433460C46A0F4D2C40C7
:205E6000C462046B2C4004630024C4640465C46F8F25ED432C40C46714682C40146019439F
:205E800002680A4B1340BD220A40D118891C0160F0BDC04684180000041800008888FDFF61
:205EA00024493E0001040000FFFFFFCF4000FFCF80B588B00020079006900590049003A9C9
:205EC000087003F0A9FF03F0CBFA02F08FFB03F0ADF903F00DF802F049FA02F0C5FDFEF70C
:205EE00067F904F07DFD1520019003F031FE019803F086FE2C4804F0A1FB62B6FFE702F0E8
:205F000041FB04F0F1FD0699401A052806D3FFE704F0EAFD069004F019F8FFE703A80078FF
:205F2000002816D1FFE704F0DFFD2049884210D3FFE7FFF7CBFB02F0DBFF02F017FA04F021
:205F4000D3FD059003A901200870194803F062FDFFE704F0C9FD0499401A0A2806D3FFE75C
:205F600004F0C2FD049003F03DFDFFE703A80078002811D0FFE704F0B7FD0599401A0A28E3
:205F80000AD3FFE704F0B0FD059002A800F008FA0598FEF7FFFDFFE704F0A6FDFEF7D4FE9A
:205FA00004F016FDABE7C0460000874070170000C6AF000080B588B006AB187005A80170BB
:205FC0000492394803900498002804D1FFE707A90020087064E002F0FDFF002807D1FFE738
:205FE00033490620087007A90020087058E004F055F82E48029005A90122019202F07CFCF0
:20600000019B029806A90978002202F085FE02F019FA002805D0FFE702F0DCFF002804D1D1
:20602000FFE707A9002008703AE006A801781F4801231A4602F070FEFFE71C4804F0F8F878
:2060400000281BD0FFE7194804F0B6FB8007002806D5FFE704F022F807A9002008701FE07C
:206060000398002806D1FFE704F018F807A90020087015E00398401E0390DEE70B4804F0C7
:20608000AFFB0499087002F0DDF9002804D1FFE707A90020087003E007A901200870FFE73C
:2060A00007A8007808B080BD8813000000200F40FD3A2020B0B53A4A80184A6842600A78EC
:2060C000222A56D8930001A4E3589F466961000073610000696100007361000073610000DE
:2060E000736100007361000073610000736100007361000073610000736100007361000000
:20610000736100007361000073610000596100007361000059610000736100007361000013
:206120007361000073610000736100007361000073610000736100007361000073610000BF
:20614000736100007361000073610000596100007361000059610000036803242407A343D8
:20616000012464071B1903E0036803242407A34303600B69C360CB68C46A0A4D25400A4C68
:206180001C402B19C3620368084C1C400460097A114302683F239A43194051180160B0BDAB
:2061A000041800008888FDFF777702007F00FFFF80B584B00390304803F02CFC03982F49A8
:2061C0000968401A00F0A2FF2D48019003F022FC002102912B48405E00F098FF019803F074
:2061E00019FC02992848405E00F090FF019803F011FC03F0D5FD00F089FF019803F00AFCFA
:2062000003F0E2FD00F082FF019803F003FC02991E48405E00F07AFF019803F0FBFB1C48C2
:20622000007800F073FF019803F0F4FB1948007800F06CFF019803F0EDFB02F0BBFB00F0C9
:2062400065FF019803F0E6FB1348007800F05EFF019803F0DFFB1148007800F057FF019837
:2062600003F0D8FB02990E48405E00F04FFF0D4803F0D0FB04B080BD96B500004C3A202076
:20628000CDB50000B23A2020D23A2020B43A2020153B2020163B20201F3B2020213B20207F
:2062A000EA3A2020B0B5000080B588B00790079837490968884201D1FFE766E0079834499D
:2062C0000A68801A05900798086005981A2803D3FFE719200590FFE706A900200870FFE79A
:2062E00006A80078022850D8FFE706A8017806224A43284989180491007801F0C5FF014649
:2063000003A80170007804990978884214D1FFE70498808805994018029002981E4988423F
:2063200003D3FFE71D48019002E002980190FFE701980499888006E0039804990870049947
:2063400000208880FFE704988088192804D3FFE7039804994870FFE70498807800280BD11F
:20636000FFE704984078002806D0FFE706A800780799FEF71DFFFFE7049948788870FFE707
:206380000698401C06A90870AAE708B080BDC046103A2020A839202061EA000060EA000010
:2063A00080B582B001906946002008700198002801D1FFE763E0334800785D281BD1FFE798
:2063C00031480078002816D0FFE7684604F09EFA00280CD0FFE76846007802F0FFFF2B482B
:2063E00000780199087001990120487047E0264900200870FFE703F023FD01462148017058
:20640000007800280CD1FFE7042001F05BFB1F480078019908701E480078019948702EE07F
:20642000184800785D280CD0FFE7072001F04AFB16480078019908701548007801994870D1
:206440001DE0684604F062FA00280CD0FFE76846007802F0C3FF0D48007801990870019904
:20646000012048700BE0052001F02CFB07480078019908700648007801994870FFE702B092
:2064800080BDC046FF3A20200C3B2020193B2020143B202080B5B6B036480290007848210A
:2064A0000491414334480390401800F013FD02980399049A314B0A9303230B93A8230C9341
:2064C00000780D900AA80590103004F019FB0399049A05985830483104F012FB0598002280
:2064E0002749895E329102F0A7F93390EFF3108035903598089072B62248069003F074F909
:2065000006987F21890207910122520200F070FA06980799402203F065FF014609A80170E9
:20652000007803280DD1FFE70120400200907F20810214480AAA2A2301F006FB09A9087066
:20654000FFE70898002802D1FFE762B6FFE709A80078032804D0FFE734A90020087004E06F
:20656000FDF7ECF934A90870FFE734A8007836B080BDC046873A2020903720203144495074
:20658000A43A202000D00C4080B586B005902F480078002806D0FFE72D480088C0084B28B6
:2065A00001D3FFE750E02A48019000881621414328484018049003F0F3FB03A9088003F047
:2065C00003FC02A90880059823490968401A0021224A03F08BF90499088021490888049AF4
:2065E000508020480288049B9A80039A049BDA80029A049B1A811C4A1288049B5A811B4AD5
:206600001288049B9A810988039A891A049AD18100880299401A0499088203F0FFFC009043
:2066200003F00CFD01460098401A1149114A02F0EBFB0499488202F0BDF90199049A90823F
:206640000888401C0880FFE706B080BDF63A2020D43A2020000020204C3A2020FFFF00002B
:20666000B23A2020D23A2020AA3A2020CA3A20200080FFFFFF7F000080B582B001903048CE
:2066800003F0C8F90198008800F040FD2D4803F0C1F901980221405E00F038FD2A48009055
:2066A00003F0B8F901980421405E00F02FFD009803F0B0F901980621405E00F027FD009880
:2066C00003F0A8F901980821405E00F01FFD009803F0A0F901980A21405E00F017FD009898
:2066E00003F098F901980C21405E00F00FFD009803F090F901980E21405E00F007FD0098B0
:2067000003F088F901981021405E00F0FFFC009803F080F901981221405E00F0F7FC0B480E
:2067200003F078F901981421405E00F0EFFC084803F070F9074803F06DF902B080BDC04665
:20674000EEB40000AAB40000CDB50000C4B300001EB40000B0B5000080B584B00390A0204D
:2067600001F03AFE002801D1FFE759E02D4803F051F90398C06900F0C9FC2B48009003F0B6
:2067800049F9039841782948294A01924C29029001D001980290029803F03CF90398808A82
:2067A00000F0B4FC009803F035F90398006B00F0ADFC009803F02EF903982421405E00F0C1
:2067C000A5FC009803F026F90398C08A00F09EFC009803F01FF90398806B00F097FC0098BB
:2067E00003F018F90398006C00F090FC009803F011F90398006A00F089FC009803F00AF975
:206800000398008B00F082FC009803F003F903984821405C00F07AFC064803F0FBF8FFE73D
:2068200004B080BD9EB50000CDB50000C2B50000B3B50000B0B5000080B586B005AB1870AB
:2068400004A80180039228480078012803D0FFE7FDF7CEFFFFE7254900200870244908701A
:20686000214A01211170234908802349088005A800784C2804D1FFE704981E49088010E053
:2068800005A80078522804D1FFE704981A49088006E0049817490880049817490880FFE743
:2068A000FFE703981549086003981549086000221048805E1049895E00F0CAFD114803F095
:2068C000A9F803F0FBFF01460F48104A01920029029001D101980290029803F09BF80C4873
:2068E00003F098F806B080BD173B2020243B2020233B2020AA3A2020CA3A20204C3A202025
:206900001C3A2020B2B1000011B500004AB50000B0B5000089B00790069100200590012116
:20692000049103A90870079800782D2807D1FFE70020C04304900798401C079009E00798A3
