:200000000080202009AD0000FDAC0000FDAC00000000000000000000000000000000000018
:20002000000000000000000000000000FDAC00000000000000000000FDAC0000FDAC0000C5
:20004000FDAC0000F98B0000FDAC0000FDAC0000FDAC000055790000FDAC0000FDAC000058
:2000600000000000FDAC0000FDAC00000000000000000000FDAC000061890000FDAC0000F2
:20008000FDAC0000FDAC0000FDAC0000FDAC0000FDAC000059A10000000000000000000019
:2000A000FDAC0000FDAC00000000000000000000FDAC000000000000FDAC0000FDAC0000F3
:2000C000B0B5FFB08FB08D900AF0BCF88C90FB480078022816D0FFE7F8480078032811D071
:2000E000FFE7FD48007804280CD0FFE7FA480078052807D0FFE7F8480078062802D0FFE72D
:2001000001F0F3F88C98F5490968884202D1FFE701F0EBF88C98F149086009F035FF8BA9B2
:20012000088009F045FF8AA908808D9802F06AF8002802D0FFE701F0D8F8E7480078022854
:2001400009D1FFE7E6480088E6490880E6490020088001F0A0F8E0480078032809D1FFE787
:20016000E04900200880DE480088DF49088001F091F8D9480078052806D0FFE7D6480078BE
:20018000062801D000F0FEFFD548008889A908808D98D6490968401A8490D54883904B2056
:2001A000C00082A90880D3480178002001294C900DD1FFE7CA4800214A91415E0120C9298E
:2001C0004B9001DB4A984B904B984C90FFE74C980121084081A90870C64801780020012945
:2001E00049900DD1FFE7BC48017800200629499006D1FFE7C0480078414248414990FFE7B5
:2002000049980121084080A90870BA4801780020012948900ED1FFE7AF48017800200629D1
:20022000489007D1FFE7B4480078801F414248414890FFE74898012108407FA90870AD486C
:2002400001780020012947900ED1FFE7A248017800200629479007D1FFE7A7480078001F72
:20026000414248414790FFE74799012001407EAA117080A90978002946900DD1FFE77FA836
:20028000017801200029469006D1FFE77EA80078411E88414690FFE74698012108407DA918
:2002A00008707CA9502008807BA908807AA9142008808948007806280BD1FFE78E48007897
:2002C000042806D1FFE77CA9A02008807BA9088026E081480078062821D1FFE78648007889
:2002E00006281CD1FFE77CA92D2008807BA9412008807AA9052008808D9880490968401A6D
:20030000000919280AD3FFE77CA93C2008807BA94B2008807AA908200880FFE7FFE7FFE72B
:2003200081A8007800280ED0FFE76B480078062809D1FFE772480078002804D1FFE74B2097
:20034000C0008390FFE76B48007801280ED1FFE761480078062809D1FFE767480078062867
:2003600004D1FFE782A9B420088014E06148007801280FD1FFE75848007806280AD1FFE730
:200380005D480078002805D1FFE74B20C00082A90880FFE7FFE750480078062819D1FFE7A4
:2003A00055480078042814D1FFE75648008889A908805048007801280AD1FFE7002189A805
:2003C000405EC92804DBFFE789A9C8200880FFE729E041480078062813D1FFE74648007839
:2003E00006280ED1FFE74748018889A801800021405E652804DBFFE789A964200880FFE70B
:2004000010E08498839988420BD2FFE700213448415E84984843839909F056F989A9088026
:20042000FFE7FFE7FFE70AF041FC01467F20014035480170007885A905F012FB3349088012
:2004400085983349087080A8007800282BD0FFE785A80078002826D0FFE7002144912B48D0
:20046000405E09F0E3FB4499024679A845900280405E800050305021A02208F0B9FD44990E
:20048000024645987CAB1A807C9A7BAB1A80405EC10F40184010143014211C2208F0A8FD36
:2004A0007AA90880FFE70C480078062800D06EE111480078002803D0D2E0C046E43A2020B0
:2004C00078A90820087008F0B7F91249088009480078012824D11FE0E43A2020F039202023
:2004E000A83A2020783A2020A03A20201C3A2020DC050000573A2020EE3A2020CC392020D9
:20050000EC3A2020AE3A2020E13A20207C3A2020E23A2020603A202078A904200870FFE723
:20052000F6480078012833D1FFE70AF077FB00282ED0FFE709F0E0FF014677A8018076AA9B
:200540004392EF49118000214291405E09F06EFB429A4399895E88420BDBFFE7E94800782B
:20056000FF2805D0FFE7E7490878401C0870FFE703E0E44900200870FFE7E24800780328D4
:2005800005D3FFE7E04809F059F900F0AEFE03E0DC4900200870FFE70022DC48805EDC49BF
:2005A000895E884206DAFFE7DA4900200870DA49087054E0D748007878A90978884211DA4C
:2005C000FFE7D648007807F06BFD002805D0FFE7D0490878401C087003E0CE49002008705E
:2005E000FFE73BE0CD48007807F051FE75A9087074A902200870C148007801280AD1FFE76F
:20060000C648007804F0CAFF75A9087074A902200870FFE775A8007800280BD0FFE7BE48E0
:200620000078FF2805D0FFE7BB490878401C0870FFE703E0B84900200870FFE7B64800784A
:2006400074A90978884208DBFFE78D9804F0F8FA8D9801F0D7FD00F048FEFFE7FFE795E0FD
:20066000AF480078042800D08FE08D98AD490968401A7390739878281ED3FFE79F480078D6
:20068000012807D1FFE7A548007807F015F9002807D111E0A148007807F002FD00280BD0BE
:2006A000FFE7A1480078FF2805D0FFE79E490878401C0870FFE703E09B4900200870FFE7AB
:2006C000994800783F908D4801780220032240920129419001D0409841903F98419988429B
:2006E00047D3FFE785480078012835D1FFE78F49012008708E483C9000888E4908808E48D0
:2007000009F07CFA8D480078401C06F0F7FD8C483D9009F073FA00213E918A48405E06F07A
:20072000EDFD3D9809F06AFA3C983E99405E06F0E5FD3D9809F062FA7848007806F0DEFD49
:200740003D9809F05BFA3E997F48405E06F0D6FD7E4809F053FAFFE78D9802F009FF002838
:2007600002D0FFE700F0C1FD7948008889A908800AE073984009192805D3FFE7754809F01D
:200780005DF800F0B2FDFFE7FFE7FFE7FFE785A80078002800D1F4E371A9A02008806EA9DF
:2007A000082008806C4800686D906C4800686C906B480178012000293B9006D0FFE76948AA
:2007C0000088411E88413B90FFE73B99012001406BAA389211700022399289A9895EFF22FB
:2007E000543291423A9001DC39983A9038983A996AAA1170007800280AD0FFE7002152480B
:20080000405EC000584908605549012008700EE055490A680320504300234B4AD25ED200CC
:200820008018C217920F801880100860FFE74E48006800280AD4FFE74B480068001DC11756
:20084000490F4018C0086FA9088009E046480068001FC117490F4018C0086FA90880FFE7AC
:20086000002135916FA8405E09F0E0F9359A72A908806F983D490988401A86A936910880A2
:200880003B483790805E4000895E4018032108F0BBFA36990246379802800088088080A840
:2008A0000078002800D1DAE0002189A8405E012800DAD4E00021339172A8425E0C20504308
:2008C000329086A83490405E09F0B0F93299339A03463498DB00C91869916FA9895E805EE4
:2008E0004843012804DBFFE7699850306990FFE76998FF21C431884240DB3BE0573A202038
:20090000FF7F0000D03A202041B20000603A20205C3A2020C93A2020CA3A2020E13A20208A
:20092000EE3A20203C3A2020F53A2020F43A2020B83A2020683A2020F0B30000EC3A20209F
:20094000FFB70000BA3A20207C3A2020E0B70000A83A2020DEB20000143A20200C3A20205A
:20096000E03A2020843A2020083A2020863A20207E3A2020E12040006990FFE769987D21E6
:20098000C900081A68900022319289A8825E6898504308F039FA319967AA108066AA8220A3
:2009A0001080FA48405EB52806DBFFE7F7480088463866A90880FFE780A80078002817D0B2
:2009C000FFE700213091F148415E5A204843642108F01AFA309A65A9088066A8805E895EAE
:2009E000884204DAFFE7659866A90880FFE7FFE7002267A8805E66A9895E884204DAFFE776
:200A0000669867A90880FFE7002289A8805E67A9895E884204DDFFE7679889A90880FFE702
:200A20000021DB48405E002804DCFFE78998D849088013E0002289A82E90805ED4492F915D
:200A40008A5E511F0A3209B212B208F0D1FA2E9902462F98028000880880FFE7FFE700216B
:200A60002C9189A8415EFF225432012091422D9001DC2C982D902C992D986AAA107072A8FB
:200A8000405E042808DCFFE76D99092048430A2108F0BAF96D902DE0002172A8415E282006
:200AA00048437D21C900401864906498B949884204DBFFE7E120C0006490FFE76D996498CE
:200AC00048437D21C90008F09FF96D9080A8007800280ED0FFE7002172A8405E062808DC20
:200AE000FFE76D9946204843642108F08DF96D90FFE7FFE7A84800686C90002172A8405E20
:200B00000A2809DBFFE76C9905204843C117890F401880106C900FE0002172A8405E0228DE
:200B200009DCFFE76C9903204843C117890F401880106C90FFE7FFE780A8007800282FD050
:200B4000FFE700212B919548405E09F06FF82B9963AA1080924800686D9072A8405E042873
:200B600009DCFFE76D9903204843C117890F401880106D90FFE7002272A8805E63A9895EAE
:200B8000884205DAFFE78448006840006C9006E081480068C10F401840106C90FFE7FFE7FF
:200BA0006AA8007800282ED0FFE7002172A8405E042812DCFFE771A92D200880002172A89C
:200BC000415E0A200522299203292A9001DB29982A902A986EA9088014E0002172A8405EFF
:200BE0000A2807DBFFE771A97D2008806EA91220088006E071A95A2008806EA90820088022
:200C0000FFE7FFE723E0002172A8405E042812DCFFE771A92D200880002172A8415E0A2039
:200C2000052227920329289001DB2798289028986EA908800AE0002172A8405E0A2804DB6A
:200C4000FFE76EA912200880FFE7FFE7FFE77DA80078002819D0FFE7002271A8805E7CA959
:200C6000895E884204DDFFE77C9871A90880FFE700226EA8805E7AA9895E884204DDFFE7AF
:200C80007A986EA90880FFE7FFE78B988A99401A62A9088061A9002008806BA8007800283F
:200CA00004D0FFE762983F4908800CE000233D49CA5E0320504362AAD25E8018820F801800
:200CC00080080880FFE780A80078002876D0FFE709F0A4FF002871D0FFE709F00DFC60A934
:200CE00008806BA80078002805D1FFE72E48007800280AD1FFE760982C4908802C4900209C
:200D000008802949012008703AE0609827490988411A5FA801800021405E1E49884206DB79
:200D2000FFE75F98234940185FA90880FFE700215FA8405E2049884207DCFFE75F98E121E1
:200D4000090140185FA90880FFE7002125915FA82690405E1321C943142208F049F9259B19
:200D6000269A10801249CC5E03206043D25E8018820F80188008088060980C490880FFE71C
:200D80000B48008861A908801EE0C046A83A20207A3A2020090700000C3A2020863A202036
:200DA000143A20208C3A2020E33A2020883A20208E3A2020F0F1FFFFF7F8FFFFEE49002015
:200DC0000870EE490880FFE76D9A002124916FA8405E50436C9B86AA525E5A438018239002
:200DE000E748415EE120400048437D21C900229108F00AF8229902462398801A08F004F8F9
:200E0000249A61A98A5E0621514340185E905E98002803D4FFE75E98219003E05E98404244
:200E20002190FFE721985D9080A8007800286CD0FFE7002189A8405E012866DBFFE70C201F
:200E40005C9020205B90002172A8405E0A280EDBFFE700226FA8815E86A8805E48430128C9
:200E600005DBFFE714205C902D205B90FFE700211E9189A82090415E5C98484364211F916A
:200E800007F0C2FF1E9A1F99034620985A93825E5B98504307F0B8FF59905A98132803DC33
:200EA000FFE714205A90FFE759985A99884204DCFFE75A98401C5990FFE75D985A99884205
:200EC00022DDFFE75D985A99401A58905A991D915998431A589A10465843891807F094FF06
:200EE00001461D98401857905E98002804D5FFE7579840421C9002E057981C90FFE71C98A6
:200F00005E9057985D90FFE7FFE7002171A8405E012813DBFFE75D98002271A9895E884284
:200F20000CDDFFE75E9A002171A8415E084650435D9A891807F068FF5E90FFE75E9800224E
:200F40001B9271A98A5E514209B208F051F81B9B014670A80180C05EF3491A91CA5E6EA979
:200F6000CB5ED11AD21809B212B208F041F81A9A01461B9811806F99F04A1180E7490880F9
:200F800084E0E6480088E649884205D8FFE7E34908880A300880FFE780A80078002848D037
:200FA000FFE700211991D348415E2D204843642107F02AFF1999024656A80280405E4F28BA
:200FC00004DCFFE756A950200880FFE7002289A8805E56A9895E884204DDFFE7569889A9A6
:200FE0000880FFE78998CF4908800021CE481490405E1590C948018816910320072217926E
:201000000B29189001D3179818901699159A1898504311900420082212920B29139001D3EA
:20102000129813901198139907F0EEFE14990880FFE7BA48008882A90988884213DBFFE72C
:20104000AB480078062804D1FFE7BB4808F0F6FB08E004F0C1F8B64900200870B54808F02F
:20106000CDFDFFE741E1AD48008864280DD3FFE7AE480021018089A8405E652804DBFFE716
:2010800089A964200880FFE7FFE7FFE7A648008887A908800021AA48405E002816D0FFE78D
:2010A000A84800688D99401A01280FDBFFE7002287A81090805EA249895E40189F21C9439A
:2010C000A02207F095FF1099088005E09C49002008809C490860FFE77DA8007800280DD04B
:2010E000FFE7002287A80F90805E7BA98A5E514209B207F07DFF0F990880FFE789981438EC
:2011000088A9088080A80078002804D0FFE77B9888A90880FFE7002188A8405E002804D5F2
:20112000FFE788A900200880FFE700220C9287A80B90805E88A98A5E514209B207F058FFED
:201140000B9A0C99108089A80E90405E525E80184B22D2000D9207F04BFF0B9B0C990D9AEF
:2011600004460E986B4D2C80405E5B5EC01A07F03FFF694908808CE0E33A20208E3A2020AA
:201180008C3A20205B48008855A9088009F03AF8099009F047F801460998401A549009F07D
:2011A00031F80A9009F03EF801460A984018C10F401840105390539900224F48805E484393
:2011C0004E4907F021FE529054985299401A51908D984B490968401A4D904D9849498842CC
:2011E0000BD8FFE700214348415E4D984843464908F06AFA55A90880FFE7002155A8405E58
:20120000C20F801842084FA80280405E3D2804DBFFE74FA93C200880FFE73C4800684E904E
:201220004D983849884208D8FFE74E9840000021374A08F04FFC4E90FFE74E99519848438E
:201240007D21C90007F0E0FD002206924FA98A5E514209B207F0CCFE069950AA05921080EA
:2012600055A80890405E525E801A4B22D200079207F0BEFE059B0699079A04460898254D2A
:201280002C80405E5B5EC01807F0B2FE22490880FFE7FFE7FFE708F077FE8BA9019108806C
:2012A00008F086FE014601988AAA02921180002203921849895E825E234804F0A3FA039A01
:2012C00001460298214B049319801349895E825E1F4804F097FA039A034604981D490B800F
:2012E000805E895E06F05AF9FFE77FB00FB0B0BDE43A2020A83A2020963A202010270000D8
:201300001C3A2020DB050000DC050000443A202088130000783A2020A03A2020843A202013
:201320005FEA00007A3A20208A3A20207E3A2020F23A20206BB200001AB50000863A20201C
:20134000803A2020103A202080392020703A202094392020983A202010B59CB01B901A91A0
:201360001B9808F098FD1B9815A9052205F07AFD014614A801700078002802D1FFE700F06C
:201380000AFF14A8007801280CD1FFE71598FC4906F04EFD002805D0FFE7FA4808F02EFCAA
:2013A00000F0F9FE14A8007802281CD1FFE71598FC4906F03DFD002815D0FFE7169813A996
:2013C00005F034FB00280ED0FFE7139800280AD4FFE71398F449884205DCFFE7139806F04C
:2013E00005FB00F0D7FE14A8007801280BD1FFE71598EE4906F01CFD002804D0FFE708F03C
:201400001FFD00F0C6FE14A80078012821D1FFE71598E74906F00CFD00281AD0FFE7E549C5
:2014200000200D90087003F0D7FE0D98E2490870E2490870E2490870E2490870E2490870DB
:20144000E2490870E2490870E24808F0D7FB00F09FFE14A8007801280CD1FFE71598DE49D1
:2014600006F0E6FC002805D0FFE71A9804F08AFB00F08DFE14A8007801280BD1FFE715983F
:20148000D64906F0D5FC002804D0FFE706F026F900F07CFE14A8007801280BD1FFE7159839
:2014A000CF4906F0C5FC002804D0FFE705F0A8FD00F06BFE14A8007801280BD1FFE71598BC
:2014C000C84906F0B5FC002804D0FFE705F060FC00F05AFE14A80078022815D1FFE7159802
:2014E000C04906F0A5FC00280ED0FFE71698BE4906F09EFC002807D0FFE708F0C5F8BB487E
:2015000008F07CFB00F03FFE14A8007802281CD1FFE71598B64906F08BFC002815D0FFE7E2
:20152000B4480078002810D1FFE71698B24906F07FFC002809D0FFE708F0F6F9002007F049
:201540009FFA02F045FF00F01DFE14A8007802281CD1FFE71598A64906F06AFC002815D07B
:20156000FFE7A4480078002810D1FFE71698A34906F05EFC002809D0FFE708F0D5F901207A
:2015800007F07EFA02F024FF00F0FBFD14A8007801280BD1FFE71598994906F049FC0028CE
:2015A00004D0FFE702F014FF00F0EAFD14A80078022842D1FFE71598924906F039FC002863
:2015C0003BD0FFE7169813A905F030FA002834D0FFE71398002830D4FFE713987249884292
:2015E0002BDCFFE783480078002826D1FFE7139810908548007800280CD0FFE78348006809
:201600001099884206D1FFE710988149097807F0C7FC10E008F088F904F0C8FF7C4908708C
:2016200010987A4A1060784A012010701098097807F0B6FCFFE700F0A2FD14A800780128C7
:201640001DD1FFE715986F4906F0F2FB002816D0FFE768480078002811D1FFE708F064F90D
:2016600004F0A4FF002804D0FFE76A4808F0C6FA03E0694808F0C2FAFFE700F07FFD14A831
:20168000007801281DD1FFE71598644906F0D0FB002816D0FFE757480078002811D1FFE7BF
:2016A00002F014F9002806D0FFE75D4808F0A6FA02F08EFE03E05B4808F0A0FAFFE700F09E
:2016C0005CFD14A80078012811D1FFE71598564906F0AEFB00280AD0FFE74648007800288B
:2016E00005D1FFE71A9807F0B5FD00F045FD14A8007802281ED1FFE715984C4906F098FBA3
:20170000002817D0FFE71698494906F091FB002810D0FFE728490120087028490020087011
:201720001A9844490860444808F068FA09F03CFA00F021FD14A8007802281CD1FFE7159801
:201740003A4906F075FB002815D0FFE716983B4906F06EFB00280ED0FFE717490020087038
:201760001649012008701A9832490860344808F045FA00F0FFFC14A8007802286ED103E0BE
:201780004BB7000032B600001598284906F050FB002863D0FFE716982A4906F049FB00283C
:2017A0005CD051E0F2B60000FFFFFF7F14B7000046B70000F0382020F23A2020C53A2020CD
:2017C000C43A2020CC3A2020F13A2020F03A2020ED3A202038B500006AB600009BB60000EB
:2017E000CAB70000B0B60000C8B60000F0B200001CB60000E43A2020D4B6000040B6000032
:20180000B6B600001EB70000DA3A2020EC392020D93A20202EB50000FAB4000055B70000DE
:2018200056B50000ADB4000064B7000086B60000EFB70000F839202082B300000AB70000D8
:2018400012B300007EB70000FE4900200870FE490870FE4808F0D2F900F08BFC14A800783C
:2018600002285CD1FFE71598F94906F0E1FA002855D0FFE7169813A905F0D8F8002809D008
:20188000FFE71398002805D4FFE71398F149884204DDFFE7F04808F0B1F93EE0EF480078B3
:2018A000002810D0FFE71398EC49C96988420AD1FFE7EB4808F0A2F9139805F01FFDE948EA
:2018C00008F09CF928E0E8480078002806D0FFE71398E649C969884205D0FFE71398E4497E
:2018E00007F028FE17E0E1480078012804D1FFE7DE4805F021FB0DE0DC480078022804D190
:20190000FFE7DA4804F0B4FF03E0DA4808F076F9FFE7FFE7FFE7FFE7FFE700F029FC14A85D
:201920000078042800D085E01598D34906F080FA00287FD0FFE7169813A905F077F8002842
:2019400078D0FFE7179812A905F070F8002871D0FFE7189811A905F069F800286AD0FFE73B
:2019600013988121C943884264DBFFE71398822860DCFFE7129832285CDBFFE712981921A3
:201980000901884256DCFFE71198002852D4FFE71198B04988424DDCFFE711980F90B748BC
:2019A000007800280BD0FFE7B54800680F99884205D1FFE70F98B34907F074FD39E0B24815
:2019C000007805280AD0FFE7AF48007806282AD1FFE7AE480078002825D1FFE7AC48007846
:2019E000002808D0FFE70021AA48405E08F01EF9052805DBFFE70F98A74907F053FDCAE3C3
:201A00001398A64908801A9812994018A44908600F989B4908609949012008700F989949A3
:201A200007F040FD04E00F989B4907F03BFDFFE7FFE79CE314A80078032851D1FFE7159875
:201A40008D4906F0F5F900284AD0FFE7169813A904F0ECFF002843D0FFE7179812A904F0DC
:201A6000E5FF00283CD0FFE713988121C943884236DBFFE71398822832DCFFE71298322801
:201A80002EDBFFE7129819210901884228DCFFE77F480078002823D0FFE700217D48405EF1
:201AA00008F0C4F804281BDCFFE77748007805280AD0FFE774480078062811D1FFE7734860
:201AC000007800280CD1FFE71398744908801A981299401872490860724808F08FF845E37A
:201AE00014A80078032838D1FFE715986E4906F09FF9002831D0FFE7179813A904F096FFA3
:201B000000282AD0FFE71398002826D4FFE713989B218900884220DCFFE71698634906F01E
:201B200087F900280ED1FFE71698614906F080F9002807D1FFE716985E4906F079F90028A6
:201B40000BD0FFE74548002202701698007813A9895E1A9A04F0FCFE07E314A800780528ED
:201B600055D1FFE71598544906F062F900284ED0FFE716984D4906F05BF9002807D1FFE71E
:201B800016984B4906F054F9002840D0FFE7179813A904F04BFF002839D0FFE7189812A977
:201BA00004F044FF002832D0FFE7199811A904F03DFF00282BD0FFE71398002827D4FFE786
:201BC00013989B218900884221DCFFE712987D21C90088421BDBFFE712987D210901884295
:201BE00015DCFFE71198002811D4FFE71198194988420CDCFFE716980078002213A9895EE4
:201C0000129A119B1A9C009405F0D2FBACE214A80078052800D092E01598284906F008F91A
:201C2000002800D18BE01698204906F001F9002846D1FFE716981E4906F0FAF800287ED0A1
:201C40003EE0C046F23A2020C53A202044B3000004B60000FFFFFF7F01B30000F03820206C
:201C6000BAB70000E0B70000DD3A2020A0382020F4B5000064B3000023B70000D83A202001
:201C8000E0392020E6B70000E43A2020EE3A2020E23A20207C3A202082B70000803A202003
:201CA000103A202024B5000076B70000F9B70000FBB70000FDB7000069B5000060B500004B
:201CC000179813A904F0B2FE002838D0FFE7189812A904F0ABFE002831D0FFE7199811A95D
:201CE00004F0A4FE00282AD0FFE71398502826DBFFE713984B21C900884220DCFFE7129806
:201D00007D21890088421ADBFFE71298FD49884215DCFFE71198002811D4FFE71198FA49DE
:201D200088420CDCFFE716980078002213A9895E129A119B1A9C009405F08CFB13E214A851
:201D4000007804282BD1FFE71598F04906F070F8002824D0FFE7179813A904F067FE0028CB
:201D60001DD0FFE7189812A904F060FE002816D0FFE71298002812D4FFE71298E2498842A2
:201D80000DDCFFE71698139901F05CF9002806D0FFE712981699139A06F0DEFFE2E114A898
:201DA000007803281BD1FFE71598D84906F040F8002814D0FFE7179813A904F037FE002804
:201DC0000DD0FFE71698139901F03CF9002806D0FFE7CF4807F012FF02F0FAFAC1E114A879
:201DE0000078042852D1FFE71598F14906F020F800284BD0FFE71698EA4906F019F8002808
:201E000007D1FFE71698E84906F012F800283DD0FFE7179813A904F009FE002836D0FFE790
:201E2000189812A904F002FE00282FD0FFE7139850282BDBFFE713984B21C900884225DC7C
:201E4000FFE712987D21890088421FDBFFE71298D64988421ADCFFE7E94900200A9008704E
:201E600016980178022003220B924C290C9001D00B980C900A9C0C9813A9095F129A1A9B67
:201E800001940124009402F019FE69E114A8007803284AD1FFE71598C64905F0C9FF0028A0
:201EA00007D1FFE71598C44905F0C2FF00283CD0FFE7169813A904F0B9FD002835D0FFE7B3
:201EC000179812A904F0B2FD00282ED0FFE7139850282ADBFFE713984B21C900884224DC31
:201EE000FFE712987D21890088421EDBFFE71298AE49884219DCFFE71598AF4905F098FF0B
:201F000001460520042208920029099001D1089809900998002413A9095F129A1A9B0194E9
:201F20000124009402F0CAFD19E114A80078042800D081E01598A14905F07AFF00287BD02C
:201F4000FFE7169813A904F071FD002874D0FFE7179812A904F06AFD00286DD0FFE71898BD
:201F600011A904F063FD002866D0FFE71398502862DBFFE71398E121490088425CDCFFE7EB
:201F80001298012858DBFFE712980A2854DCFFE71198002850D4FFE71198804988424BDC25
:201FA000FFE711980E9090480078002817D0FFE78E4800680E99884211D1FFE70E980590FD
:201FC0008B4801788B488C4A06920029079001D1069807900598079907F088FA2BE0704834
:201FE0000078002805D0FFE70E98844907F07EFA20E0002113A8405E12A909781A9A01F049
:202000000DFE01467A4801700E99784A1160764A012111700E99029101787648764A039238
:202020000029049001D1039804900298049907F05DFAFFE7FFE791E014A80078032837D1B9
:20204000FFE715985D4905F0F3FE002830D0FFE7169813A904F0EAFC002829D0FFE7179859
:2020600012A904F0E3FC002822D0FFE7139850281EDBFFE71398E1214900884218DCFFE736
:202080001298012814DBFFE712980A2810DCFFE7002113A8405E12A909781A9A01F0BEFDD4
:2020A000002804D1FFE74F4807F0A8FDFFE754E014A8007803284BD1FFE71598404905F064
:2020C000B7FE002844D0FFE7169813A904F0AEFC00283DD0FFE7179812A904F0A7FC0028DD
:2020E00036D0FFE71398502832DBFFE713984B21C90088422CDCFFE712987D2189008842AB
:2021000026DB07E0983A0000FFFFFF7FA6B700009FB5000012982549884219DCFFE72048B3
:202120000078002814D1FFE713982749088012982649086026490120087026490020087001
:202140002549087025490870254807F057FD03E01C4807F053FDFFE7FFE7FFE7FFE7FFE7EF
:20216000FFE7FFE7FFE7FFE7FFE7FFE7FFE7FFE7FFE7FFE7FFE7FFE7FFE7FFE7FFE7FFE7FF
:20218000FFE7FFE7FFE7FFE7FFE7FFE7FFE7FFE7FFE7FFE7FFE71CB010BDC046FFFFFF7F42
:2021A000E43A2020F9B70000FBB70000983A000050B70000D6B700003CB7000078B60000D8
:2021C000AAB700003DB10000583A2020BC392020F13A2020F03A2020F23A2020C43A20202A
:2021E0007AAF00001CB00000DC3A2020F4392020DB3A2020E6B7000082B7000069B70000DC
:20220000F038202010B5AAB0289022A90020087021A9087020A908701FA908801EA908700A
:202220001DA90870FB48007806280AD1FFE7FA480078002805D0FFE7FC480078042805D15B
:20224000FFE729A90020087000F09CFE2898F8490968401A2790F5480078012849D1FFE743
:20226000F4490A88F44802800A88F4490A80F44A1388F44C23801288F34B1A800022805E4A
:20228000895E05F08BF9279832282DD3FFE708F0C5FC002808D1FFE7EC4807F0CFFA29A979
:2022A0000120087000F06EFE08F0F2FBE849002018900880E7490880E7490120087007F04B
:2022C00015FFE649086007F023FF01461898E44A1160E4490880E4490870D4490220087093
:2022E0002898D3490860FFE729A90120087000F049FE08F093FC002811D1FFE7DB48007800
:20230000012808D1FFE7DA4807F098FA29A90120087000F037FED04900200870FFE707F00C
:20232000E5FECE490968401A249007F0F1FECC490968401A23902498002804D5FFE724984C
:2023400040422490FFE72398002804D5FFE7239840422390FFE7249823994018C10F4018F1
:202360004008C049088008F0A1FC7F210840C1490870BE48007801280ED1FFE7BD4800789C
:2023800020A903F06DFB1FA908801F98BA4908802098BA490870FFE7B9480078002820D1DC
:2023A000FFE7B448007807F0A2FA00280BD1FFE7B4480078FF2805D0FFE7B2490878401C19
:2023C0000870FFE703E0AF4900200870FFE7AD480078022804D3FFE7A94901200870FFE781
:2023E0002BE0A448007807F082FA21A908709F480078012801D1FFE7FFE700229948805EB2
:20240000A149895ECA0F89184910884210DBFFE721A8007800280BD0FFE79C480078FF28D0
:2024200005D0FFE799490878401C0870FFE703E0964900200870FFE7FFE708F0EFFB002895
:202440002AD0FFE708F058F826A9088082480078002811D0FFE726987E490988401A00B2AA
:2024600007F0E4FBC82807DCFFE72698794908802698774908800EE0269876490988401A69
:2024800000B207F0D3FBC92804DBFFE7724900200870FFE7FFE7FFE7289865490968401AD1
:2024A000279072480078012800D0C1E3289878490968401A1C9068480078002808D1FFE78F
:2024C000744807F0BBF929A90120087000F05AFD00215F48405E07F0A9FB6F49884208DB7D
:2024E000FFE76E4807F0AAF929A90120087000F049FD00225B48805E63498A5E0321514316
:20250000884208DDFFE7664807F098F929A90120087000F037FD1C98C009192808D3FFE7E2
:20252000604807F08BF929A90120087000F02AFD3E480078022805D0FFE73C4800780328EC
:2025400000D0B2E120A80078002819D0FFE7494800784006800F002812D0FFE700211FA82B
:20256000405E0A280CDBFFE700213948405EAF214900884204DBFFE74B4901200870FFE7C3
:2025800049480078002821D0FFE720A8007800281CD1FFE700212E48405EE12149008842AE
:2025A00014DBFFE741480078FF2805D0FFE73F490878401C0870FFE73C480078022804D3A4
:2025C000FFE73B4901200870FFE709E038480078002804D1FFE7354900200870FFE7FFE76C
:2025E00027480078002800D18BE02F480078002800D186E02E480078002800D181E020A832
:20260000007800287DD0FFE71A4800784007002877D003E0E43A2020EE3A202000211FA8C6
:20262000405E0521C94388426BDC43E0EE3A20203C3A2020B63A2020703A2020983A20204C
:20264000AE3A2020783A2020A03A2020BBB30000BA3A2020B23A2020F93A2020483A202043
:202660004C3A2020B83A2020F43A2020573A202054B30000E13A20207C3A2020E23A20206F
:20268000F83A2020F73A2020AC3A2020F63A2020403A202000B200007F04000056B10000CB
:2026A000D3B00000B6B00000D23A2020D33A2020D43A20200021FD48405EFD49884220DB3B
:2026C000FFE70021F948405EFA49884219DCFFE70022F948805E8100F848825E0320504394
:2026E00088420EDCFFE70022F348805EF3498A5E03215143884204DCFFE71EA90120087039
:20270000FFE7EF480078002821D0FFE720A8007800281CD0FFE700211FA8405E07F086FAEE
:202720000A2814DCFFE7E748007807F0E0F800280DD0FFE70022E048805E4100DF48805EC2
:20274000884204DCFFE71EA901200870FFE7DC480078002821D0FFE720A8007800281CD0B4
:20276000FFE700211FA8405E002816D4FFE7D548007805F0A1F800280FD0FFE70022CE48AD
:20278000805E8100CD48825E03205043884204DCFFE71EA901200870FFE71EA800780028F3
:2027A0000BD0FFE7C8480078FF2805D0FFE7C6490878401C0870FFE703E0C349002008701E
:2027C000FFE7C1480078022804D3FFE722A901200870FFE700211691B448405E07F026FAE8
:2027E000169A0146B948825E0120914217900FDAFFE7B14800221492815EB048825E0120FE
:202800009142159001DA1498159015981790FFE71799012001401DA801700078002843D0DF
:20282000FFE722A8007800283ED1FFE7A849002013900870A74A042111702899A64A11606E
:20284000A6490870A6490880A6490880A6490880A6490880A6490880A6490880A6490880D0
:2028600007F062F808F050F9A44807F0C7F9A4480078401C04F042FDA248129007F0BEF9F6
:2028800013998A48405E04F039FD129807F0B6F913998948405E04F031FD9B4807F0AEF9E4
:2028A00029A9012008706DE3FFE78A480078052800D0B0E007F068FB07F0B8F91BA9088052
:2028C00007F076FB07F0B2F91AA90880874900200880874908808749088087490880279864
:2028E00027280CD8FFE781482D2101808049874A0A800022805E895E04F050FE02E007F001
:2029000013F8FFE72798782817D3FFE700211BA8405E0F2811DCFFE700211AA8405E0F2853
:202920000BDCFFE77A480078FF2805D0FFE778490878401C0870FFE703E07549002008707A
:20294000FFE773480078032858D3FFE720A8007800280DD0FFE75B4800786721084214D125
:20296000FFE75848007806F0C2FF00280DD1FFE727984008E12804D3FFE7664806F05EFFE8
:20298000FFE729A901200870FCE205F0BBFE07F059FC6149086061480078002809D0FFE7F4
:2029A0005F4800685F4908615F4800685F49086102E008F0A9F8FFE75D480021119101808D
:2029C0001F98474A108047480180474801801FA8405E07F02BF901461198564A118028999D
:2029E000554A1160554908803A490620087028983949086029A901200870C3E227984008BF
:202A0000E12804D3FFE74E4806F018FFFFE729A901200870B6E22F480078062800D006E190
:202A200020A80078002807D0FFE700211FA8405E07F0FCF8109002E042481090FFE71098C6
:202A400019A9088020A80078002825D1FFE73B4800883D49884205D8FFE7384908880A307F
:202A60000880FFE721490020088021490880214908802149088006F057FF08F045F82F4808
:202A80000088B42804D3FFE7304806F0D7FEFFE729A90120087075E228480022028019A855
:202AA000805E2449895E884259DA51E0BA3A2020EE0200004C040000B83A2020AC3A2020EA
:202AC000F83A2020E13A2020D53A2020AA3A2020F43A2020EE3A20203C3A2020F53A2020BB
:202AE000863A20207E3A2020843A2020703A2020983A2020783A2020A03A202052B40000D2
:202B0000EC3A2020FFB70000E0B70000D3FF0000CF3A20206FB10000F0392020D13A202013
:202B2000D039202080392020D4392020943920208A3A2020623A2020CC392020643A2020F6
:202B4000EFB00000FF7F00005FEA00003EB000001998F14908802898F0490860FFE7F0482F
:202B6000007806F0C4FE002811D0FFE7002119A8405E06280BDCFFE7EA480078FF2805D015
:202B8000FFE7E8490878401C0870FFE703E0E54900200870FFE7E3480078052837D3FFE795
:202BA000FA4901200F900870F94807F027F8F9480078401C04F0A2FBF7480D9007F01EF8B4
:202BC00000210E91D848405E04F098FB0D9807F015F80E99F848405E04F090FB0D9807F0A7
:202BE0000DF8F648007804F089FB0D9807F006F80E991FA8405E04F081FBE84806F0FEFF69
:202C0000289800F0B5FC0F9829A90870BAE12798E349884207D3FFE7E24806F00FFE29A953
:202C200001200870AEE129A900200870AAE1FFE7E4480078032827D3FFE7DE48007800281C
:202C40000CD0FFE70021E048405E7D218900884204DBFFE722A90120087014E0D548007828
:202C600000280FD1FFE70022D348805E8100D448825E03205043884204DCFFE722A901209C
:202C80000870FFE7FFE7FFE7C948007801280ED1FFE7CE480178012000220B9201290C905E
:202CA00001D80B980C900C9822A90870FFE7C048007801287BD1FFE72798DC2877D3FFE761
:202CC00022A80078002872D0FFE720A8007800286DD0FFE7B948007806F009FE002866D003
:202CE000FFE7B9480088CD4905910880B2480088CB4906910880B1480078CA4907910870E8
:202D00001F98C9490A910880C849002009900870C7490880A44A052111702899A34A116039
:202D2000C4490880B5490860B5490870B5490880B5490880B5490880A9490880A94908809C
:202D4000A9490880A949088006F0EEFD07F0DCFEB94806F053FFAE480078401C04F0CEFAFE
:202D6000B648089006F04AFF05980999405E04F0C5FA089806F042FF06980999405E04F045
:202D8000BDFA089806F03AFF0798007804F0B6FA089806F033FF09990A98405E04F0AEFAAC
:202DA000A74806F02BFF29A901200870EAE02798C008AF280CD3FFE77D480078012807D06F
:202DC000FFE7954806F03AFD29A901200870D9E02798DC285CD3FFE775480078012857D082
:202DE000FFE722A8007800281AD1FFE771480078002808D1FFE700226F48805E7049895E43
:202E000088420DDAFFE76B480078002840D0FFE700226D48805E6E49895E884238DBFFE7BC
:202E200022987349087060490420087028985F49086070490020049008706F4908806F49B2
:202E400008606F4908706F4908806F4908806F4908806349088063490880634908806349D2
:202E6000088006F061FD07F04FFE69480078401CC0B2684909788906090E884204DBFFE7D4
:202E8000289800F075FBFFE729A90120087079E045480078022823D1FFE72798DC281FD3AA
:202EA000FFE74448007800280CD0FFE700214648405E47490988474A1288891A09B288427D
:202EC0000ADAFFE700213C48405E3D490988193909B2884204DBFFE7334903200870FFE735
:202EE00031480078022805D1FFE700213B48405E039004E000213848405E0390FFE70398EF
:202F000025A908802A480078012824D1FFE72948007800281FD009E0623A2020CC39202063
:202F2000E13A2020F53A2020BA3A2020002101912548405E03F054FE019B014625A802904E
:202F40000180C05E1C49C95E1D4AD25E02F030FF02990880FFE72598414221480180259A9C
:202F600020490A80259A52421F4B1A80259A1F4B1A800022805E895E04F010FB29A901206B
:202F80000870FFE729A800782AB010BDF43A2020F0B30000EC3A2020FFB70000E0B700001F
:202FA0009808000099B00000EE3A20203C3A2020573A2020F93A2020B83A2020E13A202039
:202FC000AC3A2020F63A2020BA3A2020D53A2020AA3A2020B43A2020B63A2020B03A20202C
:202FE000703A2020983A2020783A2020A03A2020F43A2020F53A2020863A2020083A20206A
:20300000E03A20207E3A20207A3A2020843A2020EC3A2020EF3A2020FDB300006A3A202009
:20302000683A2020CE3A2020663A2020CF3A2020643A20208A3A20209FB30000FFB7000053
:20304000E0B7000080B584B0029001916946012008700298FD4904F0EBFE002811D0FFE758
:203060000198002805D4FFE70198F949884204DBFFE703A90020087024E20198F5490860DD
:2030800014E20298F44904F0D3FE002811D0FFE70198002805D4FFE70198ED49884204DBB7
:2030A000FFE703A9002008700CE20198E9494860FBE10298E94904F0BBFE002811D0FFE741
:2030C0000198002805D4FFE70198E149884204DBFFE703A900200870F4E10198FB490860C0
:2030E000E2E10298FB4904F0A3FE002811D0FFE70198002805D4FFE70198D549884204DBCB
:20310000FFE703A900200870DCE10198EF494860C9E10298F04904F08BFE002811D0FFE766
:203120000198002805D4FFE70198E949884204DBFFE703A900200870C4E10198C54988603D
:20314000B0E10298E54904F073FE002811D0FFE70198002805D4FFE70198DD49884204DBDA
:20316000FFE703A900200870ACE10198D749886097E10298DA4904F05BFE002812D0FFE785
:203180000198002806D4FFE70198FF21C431884204DBFFE703A90020087093E10198F349E4
:2031A00088817DE10298CF4904F042FE002812D0FFE70198002806D4FFE70198FF21C431A3
:2031C000884204DBFFE703A9002008707AE10198E549888163E10298C34904F029FE0028C4
:2031E00011D0FFE70198002805D4FFE70198DC49884204DBFFE703A90020087062E101981B
:20320000D84908604AE10298B84904F011FE002812D0FFE701984F21C943884204DBFFE7C8
:203220000198512804DBFFE703A90020087049E10198CA49088030E10298AD4904F0F8FD8B
:2032400000281AD0FFE7BC48007801280AD1FFE701982221C943884204DBFFE701982428B4
:2032600004DBFFE703A9002008702BE10198BA4908806946002008700EE102989D4904F06B
:20328000D7FD002826D0FFE70198002805D4FFE70198A749884204DBFFE703A9002008707A
:2032A00010E10198AB490860A3480078012810D1FFE7A24900200880A1490870A14908806E
:2032C000A1490880A1490988A14A118069460870FFE7E0E00298884904F0AAFD002826D094
:2032E000FFE70198002805D4FFE701989049884204DBFFE703A900200870E3E001988D49F1
:2033000008608D480078012810D1FFE78B49002008808B4908708B4908808B4908808B49B4
:2033200009888B4A118069460870FFE7B2E00298724904F07DFD002813D0FFE70198AF21DA
:203340008900884205DBFFE701987749884204DBFFE703A900200870B4E0019873490880B7
:2033600097E00298664904F063FD002819D0FFE7019864280DDBFFE701984B2189008842F7
:2033800007DCFFE7019800226649895E884204DAFFE703A90020087094E001986049088003
:2033A00076E00298574904F043FD002817D0FFE7019850280BDBFFE70198FA2807DCFFE7F3
:2033C000019800225649895E884204DDFFE703A90020087076E001985249088057E00298F4
:2033E000494904F025FD002812D0FFE70198322806DBFFE70198FF216031884204DBFFE7A2
:2034000003A9002008705DE00198444908803DE002983E4904F00CFD002810D0FFE70198BB
:20342000502804DBFFE70198FB2804DBFFE703A90020087046E001983749088025E0029824
:20344000334904F0F5FC00281AD009E0C6B70000B90B000080392020A2B70000D2B70000F4
:203460000198322804DBFFE701988D2804DBFFE703A90020087025E001982649088003E0C5
:2034800003A9002008701DE0FFE7FFE7FFE7FFE7FFE7FFE7FFE7FFE7FFE7FFE7FFE7FFE723
:2034A000FFE7FFE7FFE7FFE7FFE7FFE768460078002803D0FFE707F027FBFFE703A90120D5
:2034C0000870FFE703A8007804B080BD94392020E90300009AB7000072B700008AB70000C6
:2034E0002DB700005FB700000FB7000019B70000A2B6000094B6000024B6000042B50000C9
:2035000084B5000072B50000E4B40000BAB50000A8B50000AC3A2020AE3A2020B43A20206B
:20352000B03A2020B63A20204D040000AA3A2020214E00000C3A2020573A20208A3A2020F2
:20354000E03A20207E3A20207A3A20207C3A2020863A2020143A20206C3A2020963A2020AB
:2035600089130000443A2020943920208039202080B58AB00890A748008807A90880A64847
:203580000078012832D1FFE70021A448405E01282CDBFFE7A148008807A90880A0480078D7
:2035A000002822D0FFE79F48007800281DD0FFE700219D48405EAF218900884215DBFFE714
:2035C00000219948405E994988420EDCFFE700239749CA5E03205043934AD25E8018801CAD
:2035E000820F801880080880FFE7FFE78C48007800281AD0FFE7002107A8405E322814DBCB
:20360000FFE7002107A8405E8C280EDCFFE700238849CA5E0320504307AAD25E8018801CEB
:20362000820F801880080880FFE783490878401C08707948007801281DD1FFE77F4806F058
:20364000DDFA7D48007803F059FE7D48059006F0D5FA002106917648405E03F04FFE0598FC
:2036600006F0CCFA06997348405E03F047FE754806F0C4FAFFE7744806F0C0FA6E48049051
:20368000007803F03BFE6E48039006F0B7FA00216548405E03F032FE039806F0AFFA08982D
:2036A0006A490968401A03F029FE664806F0A6FA04980078664909788900C9B2884252DBEF
:2036C000FFE701F089FD7849002008707749087051480078012815D1FFE7754806F08EFABB
:2036E000002102915248405E03F008FE714806F085FA02994F48405E03F000FE514806F067
:203700007DFAFFE76C4806F079FA00214948405E03F0F4FD4B48019006F070FA674806F0D2
:203720006DFA4548007803F0E9FD019806F066FA39480078012804D1FFE7634806F05EFA7F
:203740000DE002F033FF002804D0FFE75D4806F055FA03E05A4806F051FAFFE7FFE709A948
:203760000120087051E03B4900200090087008983949086006F0BAFC3849086006F0C8FCFA
:2037800001460098364A116036490880364908703649087036490870364800883649088060
:2037A0001D480078012816D1FFE73449002008803349086033490870334908803349088031
:2037C0003349087007F02AFA002803D0FFE707F05FF9FFE7FFE71048007801280ED1FFE720
:2037E0002C480078002809D0FFE72B4800682B4908612B4800682B49086102E007F084F930
:20380000FFE709A900200870FFE709A800780AB080BDC046B83A2020573A2020683A202087
:20382000F43A2020F93A2020BA3A20204C040000AA3A2020AC3A2020EC3A20205EB4000061
:20384000FFB70000E0B70000C3B40000403A2020EF3A2020EE3A20203C3A2020C03920202A
:20386000C4392020603A2020C93A2020CA3A2020F53A20207C3A2020863A20208A3A202041
:20388000083A2020E03A20207E3A20207A3A2020D03A2020D13A2020D03920208039202089
:2038A000D439202094392020F23A2020C53A20200AB10000EFB4000088B10000C9B30000F0
:2038C000D2B1000056B20000F9AF000080B5E4B07F2080026290619062980068BD498842B6
:2038E00046D1FFE762984068032841D1FFE77F2080024C904C9922A8A82207F0F5F92498EF
:20390000A82810D1FFE74B98089022A805F088F801460898884206D1FFE722A804F07AFCB4
:20392000002804D1FFE763A9002008704DE122A905911031B84807904822069207F0D4F9D3
:203940000599069A07985831483007F0CDF9069907984A9AAF4B1A80259BAD4A1370127852
:203960005143401803F06CFC63A9012008702CE162980068974988423BD1FFE762984068AE
:20398000022836D1FFE77F208002219021990BA8582207F0A9F90D98582810D1FFE720981A
:2039A00004900BA805F00CF801460498884206D1FFE70BA801F004FA002804D1FFE763A9CC
:2039C0000020087001E10BA803F0DCFB904900200870904908809048039003F073FB0399B6
:2039E00008464830482207F07FF963A901200870EBE0619800684D90619840684E90619802
:203A000080684F906198C06850906198006951906198406952906198806953906198C06930
:203A200054906198006A55906198406A56906198806A57906198C06A58906198006B5990AF
:203A40006198406B5A906198806B5B906198C06B5C906198006C5D906198406C5E9061981B
:203A6000806C5F906198C06C60904D985949884214D1FFE74E98012810D1FFE759980290E1
:203A80004DA805F041FE01460298884206D1FFE74DA802F003F9002804D1FFE763A90020A3
:203AA000087092E04F984C4A10605098506051984A49086052984860539890605498886072
:203AC00055989081569888815798454908605898444908805A98401C002817D0FFE74DA8CF
:203AE000818E0A91C08E09900A983F4988420CDCFFE709983C49884207DCFFE70A983B4994
:203B0000086009983A490860FFE7FFE75B98AF21890088423ADBFFE75B983649884235DC87
:203B2000FFE75C98642831DBFFE75C984B21890088422BDCFFE75D98502827DBFFE75D9843
:203B40005C99884222DCFFE75E9832281EDBFFE75E98AF214900884218DCFFE75F98502871
:203B600014DBFFE75F98FA2810DCFFE75B98224908805C98214908805D98214908805E98DC
:203B8000204908805F9820490880FFE76098322808DBFFE760988C2804DCFFE760981B497D
:203BA0000880FFE71A49002008701A4908801A48019003F087FA019908464830482207F089
:203BC00093F863A901200870FFE763A8007864B080BDC046314449508039202094392020E1
:203BE000443A2020963A2020204E0000143A20200C3A20204C040000AA3A2020B03A2020D7
:203C0000B63A2020B43A2020AE3A2020AC3A2020573A20206C3A20209037202080B586B0CF
:203C200004AB188003A80170029206F0F7FF00280FD0FFE707F040F800280AD0FFE703A8F2
:203C40000078002805D0FFE703A800780B2804D3FFE705A900200870BDE001F0BDFA04F077
:203C600053FB5F490620087004985E49088002985D49086003A801785C4848435C490860DD
:203C800006F0E0FA5B49086002985B4908605B49012008705A49002008705A490870029974
:203CA000594A11600299594A11600399584A1170584908705849087058490870584908701E
:203CC0005849087058480078012808D1FFE706F0A5FF002803D0FFE706F0DAFEFFE7534900
:203CE00000200190088052490880524A0121117051490870514908705149087006F0F6F90E
:203D00005049086006F004FA014601984E4A11604E4908804E49087006F0E8F94D490860C2
:203D200006F0F6F9014601984B4A11604B4908804B4AE121490011804A4908804A490880F5
:203D40004A4908604A4908704A4908804A4908804A4908804A4908804A4908604A490860FB
:203D60004A4908704A4908704A4908704A4908704A4908704A4908704A4908704A490880DB
:203D80004A4908804A4908704A4908804A4A4B4911804B4908604B4908804B4805F02EFF5C
:203DA000019904A8405E03F0A9FA484805F026FF03A8007803F0A2FA454805F01FFF454800
:203DC0000078002803D1FFE706F0EEFEFFE705A901200870FFE705A8007806B080BDC04676
:203DE000E43A2020A83A20201C3A202060EA0000183A2020F0392020F8392020F23A20208B
:203E0000C43A2020EE3A20203C3A2020403A2020EF3A2020EC3A2020C93A2020CA3A202036
:203E2000F53A2020D03A2020573A2020BA3A2020B23A2020F93A2020F83A2020F73A202042
:203E4000F63A2020483A20204C3A2020B83A2020F43A2020C0392020C4392020603A20207A
:203E60005C3A20207C3A2020863A2020083A2020E03A20207E3A20208A3A20207A3A2020AA
:203E8000843A2020D0392020D4392020D13A2020D23A2020D33A2020D43A2020D53A20200D
:203EA000D63A2020CF3A20206A3A2020683A2020CE3A2020663A2020623A2020FF7F000021
:203EC000CC392020643A202094B20000FFB70000E0B70000C53A2020B0B588B0694AAF20CE
:203EE000410011606420506073208000906020209081654A7D20830013605160FF21B6318E
:203F000091601A219181614AC1001160604A32211180604A60491160604900010860604979
:203F2000E120800008805F49B92008805E498C2008805E4AB42111805D4908805D49622030
:203F400008805D490020049008705C4908805C48039003F0B7F8039908464830482206F03F
:203F6000C3FEFFF7B3FC07A9087001F035F9049854490870544908705449086054490860C4
:203F8000544908605449086054490860544908805449088054490870544908705449087089
:203FA000544908705449087054490860544908805449088054490860544908705449088049
:203FC00054490880544908805449088054490870544908705449088054490860544A01215E
:203FE0001170544908705449087006A90870FFE706A80078022826D8FFE706A8029000781D
:2040000004F036FA029A05A90870059B107806210C4644434F480355059B15780C466C4375
:2040200004196370059B15780C466C430419A37012785143411800208880FFE70698401CB3
:2040400006A90870D4E73D49002008603C49012008703C4805F0D2FD07A801783A483B4ADB
:2040600000920029019001D100980190019805F0C5FD05F0E5FE00F0ABF9354805F0BEFD10
:2040800008B0B0BD8039202094392020443A2020963A2020143A20205E1A00000C3A20209B
:2040A000AA3A2020B03A2020B63A2020B43A2020AE3A2020AC3A2020573A20206C3A20204F
:2040C00090372020F23A2020C53A20201C3A2020E8392020F8392020E4392020D839202018
:2040E000A23A20205E3A2020C43A2020CC3A2020F13A2020F03A2020ED3A2020283A20206A
:204100007C3A2020863A2020083A2020E03A20207E3A20208A3A20207A3A2020843A2020DF
:20412000E23A2020E13A2020803A2020103A2020EF3A2020EC3A2020D03A2020DC392020D6
:20414000EA3A20205DB0000016B20000BAB10000CCB20000A839202070B58EB00D9009A96A
:204160000020087094480078002801D1FFE721E10D9891498A68801A0C900D9809698842E9
:2041800000D2ECE00D9914318B48016140784C2804D1FFE705F0F8FE069003E005F008FF1A
:2041A0000690FFE706980BA90880834840784C2805D1FFE700218248405E059004E00021D3
:2041C0007E48405E0590FFE705980AA9088000210BA8405E05F02AFD77492422895E8842E3
:2041E00008DDFFE700210BA8405E05F01FFD72498884FFE77048007801283BD1FFE70C98D5
:204200008008AF2812D3FFE700210BA8405E05F00DFD0446E3176849C86A8A6A1219584124
:204220008A62C862888A401C8882FFE700210BA8405E05F0FBFC6349884207DBFFE75E49C7
:204240004822885C022318438854FFE700210BA8405E05F0EBFCE121C900884209DBFFE721
:20426000554A4823D15C01200143D15409A90870FFE773E0504A049290880B99411A08A823
:204280000180918A491C91820021405E05F0CEFC04990446E317486B0A6B121958410A6352
:2042A0004863086AC968884216D1FFE700210BA8405E039040480421415E092048430A21E9
:2042C00004F0A2FD0146039809B2884204DBFFE70C9839490862FFE700210AA8405EFF2118
:2042E000F031884205DBFFE73349088B401C0883FFE70C983049CA680321514389088842CF
:2043000018D3FFE72C490291C88A401CC88200230BA8C65EF517CA6B8C6BA4196A418C6343
:20432000CA63C45E6443486C0A6C121958410A644864FFE700210BA8405E05F077FCE121BD
:204340008900884209DBFFE71B4A4823D15C01200143D15409A90870FFE7FFE7FFE70C9839
:204360001549C968884205D2FFE709A80078002820D0FFE710490091087807AA01921070D2
:204380001148502206F0B0FC0099104A012010700020087000F020FF01980078012804D166
:2043A000FFE7094802F0C8FD03E0074802F060FAFFE7FFE70EB070BDF0382020983A202060
:2043C000703A202092090000A0382020DD3A202080B584B0554805F011FC5548007802F0DA
:2043E0008DFF544805F00AFC032002F087FF524805F004FC262002F081FF504805F0FEFB32
:204400004F480090006802F079FF4E4805F0F6FB0098406802F072FF4B4805F0EFFB4B487F
:204420000290006802F06AFF494805F0E7FB0298406802F063FF474805F0E0FB009880684A
:2044400002F05CFF444805F0D9FB0298806802F055FF424805F0D2FB00980C210191405EB1
:2044600002F04CFF3E4805F0C9FB01990298405E02F044FF3B4805F0C1FB3B48006802F0A8
:204480003DFF3A4805F0BAFB002103913848405E02F034FF374805F0B1FB03993648405EE4
:2044A00002F02CFF354805F0A9FB3548006802F025FF344805F0A2FB3348006802F01EFFCE
:2044C000324805F09BFB03993148405E02F016FF304805F093FB03992F48405E02F00EFF72
:2044E0002E4805F08BFB03992D48405E02F006FF2C4805F083FB03992B48405E02F0FEFEA3
:204500002A4805F07BFB03992948405E02F0F6FE284805F073FB03992748405E02F0EEFED3
:20452000264805F06BFB04B080BDC0462CB20000573A2020B8B40000A2B40000ECB60000A8
:2045400080392020C2B60000F8B600009439202004B70000E6B60000E0B6000063B6000029
:204560007FB600002BB60000443A2020A9B60000963A20207BB500006C3A20208DB50000A0
:20458000143A202096B500000C3A202046B40000AA3A202005B50000B03A202081B4000085
:2045A000B63A2020D6B30000B43A202097B40000AE3A2020EFB40000AC3A2020E0B7000041
:2045C00080B58CB00B90DC2003F0FAFF002801D1FFE7B4E005F0D8FC0AA9088005F0E8FC96
:2045E00009A9088057480078002803D1FFE70020079005E00B9854490968401A0790FFE764
:2046000007980890514805F0F9FA089802F076FE4F48059005F0F2FA03F0CAFB05F0EEFA3A
:20462000059805F0EBFA002106914A480090405E02F064FE059805F0E1FA0699464802900B
:20464000405E02F05BFE059805F0D8FA06990AA80190405E02F052FE059805F0CFFA069951
:2046600009A80390405E02F049FE059805F0C6FA06993A48405E02F041FE059805F0BEFA93
:2046800006993748405E02F039FE059805F0B6FA00980199069A805E895E401A02F02EFEE4
:2046A000059805F0ABFA02980399069A805E895E401A02F023FE059805F0A0FA05F0A2FDFB
:2046C000049005F0AFFD01460498401A02F016FE059805F093FA06992248405E02F00EFE9E
:2046E000059805F08BFA2048007802F007FE059805F084FA1D48007802F000FE059805F05D
:204700007DFA04F04BFA02F0F9FD059805F076FA1748007802F0F2FD059805F06FFA1548EF
:20472000007802F0EBFD059805F068FA06991248405E02F0E3FD114805F060FAFFE70CB080
:2047400080BDC046E43A20201C3A202037B70000FFB70000783A2020A03A2020703A202088
:20476000983A20207C3A2020E13A2020E23A2020EC3A2020EE3A2020B83A2020E0B70000E3
:2047800080B588B007905E48007800280AD0FFE707985C49884201D8FFE7AFE058490020F2
:2047A0000870FFE758480078002812D1FFE760490120032200F054FE002803D1FFE704F08B
:2047C00023FD9BE050490120087056490020087094E0262004A90C2200F042FE002810D107
:2047E000FFE74F49002008704C480078032805D8FFE74A490878401C0870FFE704F004FDE7
:204800007CE004A8083005F0CBFC03900399084606F088F800280ED1FFE703983B4904F0A9
:2048200047F8002807D1FFE70398394904F05EF8002808D0FFE739490020087038490870F3
:2048400004F0E2FC5AE0039803F0ECF902A908803048006800282FD0FFE702982E49098817
:20486000401A00B204F04CFA014601A801802B49097832224A43323269460A800022805E0E
:20488000895E884209DCFFE7002201A8805E6946895E494288420EDAFFE720480021017040
:2048A00002A8405E02F0BAFF002803D1FFE704F0ABFC23E0FFE7FFE70298174908801749D7
:2048C00000200870164908701649087016490120087010480068002805D1FFE70E48008818
:2048E00012490880FFE70B480068401C002805D0FFE708490868401C0860FFE708B080BD95
:20490000FB3A202087130000FA3A20200000D0C00000D040243A2020C03A2020F33A20202F
:20492000E93A2020C73A2020E73A2020C23A2020543A202080B594B01390FFE703A840215A
:2049400000F0F0FC002805D0FFE7139903A8FCF703FDF3E7139801F033FD139802F00EFFFE
:204960001398FBF7ADFB1398FFF7F6FB4548007801280ED1FFE7139843490968401A000962
:204980007D2806D3FFE700F027FC404805F036F9FFE73F48007800280ED0FFE713983D49F2
:2049A0000968401A142807D3FFE7139839490860139801F075FEFFE732480078022814D0A6
:2049C000FFE73048007803280FD0FFE72D48007804280AD0FFE72B480078052805D0FFE765
:2049E0002848007806282AD1FFE713982A490968401A2A490968884221D3FFE72448009053
:204A0000007802A90191087000F0E6FB0099244A002010700870234805F0F0F80198007820
:204A200000280BD0FFE7204805F0E8F81F48008802F064FC1E4805F0E1F8FFE7FFE71848AF
:204A40000078002818D0FFE713981A490968401A142811D3FFE713981649086016480078C1
:204A6000002804D0FFE7139801F02EFC03E01398FFF7A6FDFFE7FFE7139803F04FFB14B0EF
:204A800080BDC046E43A2020E839202024B10000C43A2020E43920201C3A2020183A20207C
:204AA000F23A20206AB4000076B40000A23A2020E0B70000F8392020C53A202070B588B082
:204AC0000C4605460D980C9907AE357006AD2C800592049303AA117002A9087000F07CFB50
:204AE0003A49002008703A49087003F00DFC06F095F8002803D0FFE705F0CAFFFFE70798FD
:204B00003449087006983449088004983349086005983349086005F095FB324908600498F8
:204B20003149086004983149086003983049087002983049087030490020019008802F49D4
:204B400008802F4908602F4908702F4908802F4908802F4908802F4908802F4908702F4995
:204B600008702F4908802F49086002A80078002808D0FFE72C49002008802C4908802C4946
:204B80000870FFE72B4805F039F803F011F905F035F82948009005F031F8002106A8405E73
:204BA00002F0ACFB009805F029F8059802F0A6FB224805F023F803A80078002803D0FFE700
:204BC00005F0F2FFFFE708B070BDC046F13A2020F03A2020E43A2020A83A20201C3A202033
:204BE000183A2020F0392020F8392020E4392020F23A2020C43A20207C3A2020863A20204C
:204C0000083A2020E03A20207E3A20208A3A20207A3A2020843A2020E23A2020E13A202013
:204C2000803A2020103A2020A23A20205E3A2020CC3A20202EB40000FFB70000E0B7000087
:204C400080B586B0059003F0F7FD01463B4801800021415E03204843052104F0D5F84B2161
:204C60008900E122920004F0C3F904A9088034480078002804D1FFE70498324908800DE0CE
:204C800000233049CA5E0320504304AAD25E8018801C820F801880080880FFE72A490120D5
:204CA0000870059829490860059829490860294900200390087028490870284908702849AE
:204CC00008702849087028490870284908702849087028490870284908702849088028497C
:204CE00008802849087028490880284A28491180284908602849088028480078012816D10C
:204D0000FFE72748006927490191274A029204F0E1FE0199029A254B18602548006904F013
:204D2000D9FE24490860244901200870FFE723490020088005F0E8FE06B080BD603A20201F
:204D4000EC3A20205C3A2020EE3A20203C3A2020403A2020C93A2020CA3A2020F53A202049
:204D6000D03A2020D23A2020D33A2020D43A2020D53A2020D63A2020CF3A20206A3A202036
:204D8000683A2020CE3A2020663A2020623A2020FF7F0000CC392020643A2020573A2020BB
:204DA00080392020702FFCFF90D00300D039202094392020D4392020D13A2020BA3A2020DB
:204DC00080B59AB018901898C06806901898006907901898406908901898806909901898BB
:204DE000C0690A901898006A0B901898406A0C901898806A0D901898C06A0E901898006B7B
:204E00000F9004A800F04AFF002804D1FFE719A90020087085E01898416B00200029039034
:204E200079D4FFE71898416B0020404A9142039071DCFFE71898816B0020002903906AD4EA
:204E4000FFE71898816B0020384A9142039062DCFFE71898C16B0020AF22920091420390DF
:204E600059DBFFE71898C16B0020314A9142039051DCFFE71898016C0020642903904ADBA6
:204E8000FFE71898016C00204B2292009142039041DCFFE71898416C0020502903903ADBE9
:204EA000FFE71898416C026C00209142039032DCFFE71898816C0020322903902BDBFFE730
:204EC0001898816C0020AF2252009142039022DCFFE71898C16C0020502903901BDBFFE7C3
:204EE0001898C16C0020FA29039014DCFFE71898016D0020322903900DDBFFE71898016D11
:204F00000120002201928D29029001DB0198029002980390FFE703980121084019A908701A
:204F2000FFE719A800781AB080BDC046204E00004C04000080B584B0024603A80270029126
:204F40000078002828D1FFE744480078002822D1FFE74348007800281DD1FFE741480078CD
:204F6000002818D1FFE745480078022813D3FFE7424901910878401E08703D4900200870AE
:204F80003F4804F03BFE0198007802F0B7F93D4804F034FEFFE75EE003A80078012828D196
:204FA000FFE72E480078002822D1FFE72C48007800281DD1FFE72B480078002818D1FFE752
:204FC0002E480078092813D8FFE72C4900910878401C0870264900200870294804F00EFE0F
:204FE0000098007802F08AF9264804F007FEFFE731E01A48007800280AD1FFE71848007833
:20500000002805D1FFE717480078002803D0FFE703F096FD1FE01448007800280DD0FFE7B0
:205020001149002008700E490120087002980F490860114804F0E2FD0CE00A490120087030
:2050400002980A4908600A4900200870094804F0D5FDFFE7FFE704B080BDC046E43A2020D8
:20506000F03A2020ED3A2020F13A2020283A2020EC3A2020D1AF00007BB00000EA3A2020DD
:2050800073B30000E0B7000080B58EB021200421039105F097F90120029001034A480A907E
:2050A00005F0ACFA2220052105F08CF902990A98490305F0A3FA02980399002207920192D4
:2050C000C30409930093430408930F20049003F0EFFE0399079A089B0998019200900E2083
:2050E000059003F0E5FE049805F050F9059805F04DF91F200221069105F064F90699202069
:2051000005F060F8352005F09DFA362005F09AFA192005F097FA182005F094FA312005F0C2
:2051200091FA0799089A099B0091322003F088FF0799089A099B0091122003F081FF0799E5
:20514000089A099B0091162003F07AFF0799089A099B0091232003F073FF0799089A099BD1
:205160000091242003F06CFF0799089A099B00911C2003F065FF0799089A099B00911D203E
:2051800003F05EFF102005F05DFA112005F05AFA0A9803210C9109060B9105F0E2FB0A9847
:2051A0000B9905F02BFA0C98010208480D9005F0D8FB0D98064905F069FA0D98054905F0A1
:2051C0001DFA0EB080BDC04600000A4000200A40300040003003400080B52A4900200880D0
:2051E00029490880294908802949088029490870294908602949088029490860294908703F
:2052000029490860294908602949087029490870294908702949088029490880294908703E
:2052200029490870294908702949087029490880294908702949088029490860294908601E
:205240002949087029490870294908702949087029490870294908702949087029490880EE
:20526000294908802949087029490880294A2A4911802A4908602A49088005F045FC04F0D9
:2052800053FB80BD703A2020983A2020783A2020A03A2020E43A2020183A2020803A202091
:2052A000103A2020EE3A20203C3A2020403A2020C93A2020CA3A2020F53A2020BA3A202062
:2052C000B23A2020F93A2020F83A2020F73A2020F63A2020B83A2020F43A2020603A202062
:2052E000D0392020D4392020D13A2020D23A2020D33A2020D43A2020D53A2020D63A202047
:20530000CF3A20206A3A2020683A2020CE3A2020663A2020623A2020FF7F0000CC392020B7
:20532000643A202080B588B0069005A801800698002805D0FFE705A80088012804D8FFE7BD
:2053400007A9002008707BE0FFE73F4800883F490988884270D0FFE73B48009002883C498A
:20536000895C04AA019211700088802104F0CCFB009A01460198118000780D2805D0FFE72F
:2053800004A800780A2840D1FFE732480078002801D0FFE7D9E72F49012008702E48008820
:2053A000002831D0FFE72C48018802A80180008805A90988884205DBFFE70598401E02A9B9
:2053C0000880FFE703A900200880FFE703A8008802A9098888420CDAFFE703A802881F4884
:2053E000805C06998854FFE70398401C03A90880ECE7069902A802880020885416490880BC
:2054000007A9012008701BE015E0124900200870114800883E2809D8FFE704980E490B88CC
:205420000E4AD0540888401C088003E00A4900200880FFE7FFE788E707A900200870FFE735
:2054400007A8007808B080BDA63A2020A43A202020382020DE3A2020823A2020403920204D
:2054600080B58EB00CAB18700B910AA802700B9800280AD0FFE70AA80078002805D0FFE722
:2054800003F076FE002804D1FFE70DA90020087079E004F0E7FE3E4805900CA901220692B7
:2054A00003F01EFB05983B4905F0FCF80598069B002202920192022107910091232102F0CD
:2054C000F7FC079802F06AFB002804D1FFE70DA90020087057E00AA8037800200490029008
:2054E000042001900220009029482321012202F0DFFC049809A90870FFE709A800780AA918
:205500000978884230DAFFE723480890FFE7204804F074FF00281AD0FFE71D4805F036FA16
:205520008007002806D5FFE704F09CFE0DA90020087028E00898411E0891002806D1FFE79A
:2055400004F090FE0DA9002008701CE0DFE7104805F030FA0B9909AA12788854FFE70998FE
:20556000401C09A90870C8E7012002F017FB002804D1FFE70DA90020087004E003F0F8FDD4
:205580000DA90870FFE70DA800780EB080BDC04600200F40830400008813000080B594B0BF
:2055A000014613A80E90017000780021089104F0CDFF01460E98029100780121099104F040
:2055C000C5FF029902460E9889180391007802210B9104F0BBFF039902460E9889180491A4
:2055E000007803210D9104F0B1FF049902460E98891805910078042104F0A8FF05990246ED
:205600000E98891806910078052104F09FFF069902460E98891807910078062104F096FF8E
:20562000079A089903460E98D21812AB10931A70007804F08BFF099902460E980A920078CB
:2056400004F084FF0A9A0B9903460E98D2180C92007804F07BFF0C9A0D9903460E98D21809
:205660000F92007804F072FF0F9902461098891811AA11700078032813D8FFE713480178EF
:205680000020002901901CD0FFE713A800780D2807D0FFE713A8017800200729019010D143
:2056A000FFE711A8017800200329019009D3FFE713A80078062104F049FF41424841019000
:2056C000FFE701980121084014B080BDEC3A202080B596B049480F9004F0F0FF0F9805F050
:2056E00091F90F9804F050F80F9804F057FA0023149300930120420410920E20194604F06A
:2057000035FA109A149B00930F20194604F02EFA3B4812900421119105F019F912980821FE
:20572000139105F014F91199129805F024F91298139905F020F90520800105F0CFFA1498E9
:2057400015A90870FFE715A80078082817D8FFE72B480C9004210D9104F044FFA0200E908C
:2057600005F0BCFA0C980D9905F005F90E9805F0B5FAFFE71598401C15A90870E3E72048A0
:2057800003900821049104F02DFFA02005F0A6FA0398049905F0EFF80520800105F09EFAFC
:2057A0000022079201920120C10405910091430408930F2009900421069103F051FB05984C
:2057C0000699079A089B019200900E200A9003F047FB099804F0CCFD0A9804F0C9FD0748BD
:2057E0000B9004F0BFFF0B9804F098FF102005F075FA03F059FA16B080BDC04600200F40DC
:2058000000200A4010B58EB00C900BA801800AA90A800021405E002806DCFFE70C9900209A
:2058200008610DA9088079E0002201920BA80390805E0AA9895E401A09900C980069099A52
:205840000A2151434018089008983749374A04F041F908900C980168099848437D21C90092
:20586000029103F0D1FA07900C984168089848432F4903F0C9FA019B0299024603980692E8
:205880000C9A0C24145F04949268C05E504303F0BBFA0146049840180799401806994018AA
:2058A00005900598FF21F631884204DBFFE7099800280CDCFFE70598002804D5FFE7099824
:2058C000002804D4FFE708980C9908611DE00C98416800694843164903F096FA06900C98DA
:2058E0000C21415E0091816800220BA8805E48437D21C90003F088FA014600984018079971
:205900004018069940180590FFE705987D218A00002103F06DFB0DA90880FFE700210DA882
:20592000405E0EB010BDC046E05EF8FF20A1070040420F00B0B58EB005F0D2F805903B4830
:2059400000680D903A4800680C90059805F0BEF80D98384A1168401A0B900C9836490B6849
:20596000C01A0A900D9810600C9808600B98C117324A02920023049304F000FC049B079126
:205980000690069807992E4A039205F095F8029A049B09900A98C11704F0F0FB039A049B3B
:2059A000079106900698079905F086F8089009982449884203DBFFE723480990FFE708984A
:2059C0002049884203DBFFE71F480890FFE700201E4B0093195E099D032214466C43091962
:2059E000CC17A40F09198908198019490191085E089B5A438018C217920F80188008088071
:205A000005F06EF800990246019805920988114A118000881049088010490868401C0860A7
:205A2000059805F053F80EB0B0BDC046003A2020303A2020043A2020343A2020A0D9080087
:205A400010270000C5090000C4090000743A20209C3A2020763A20209E3A2020383A2020B6
:205A600080B58AB0024608A8027007910021069105AA117004AA117003AA117002AA117043
:205A8000079A11700078002805D0FFE705F014F9002804D1FFE709A9002008806BE001A955
:205AA00000200870FFE701A8007807283BD8FFE708A8007801A9097804F048FD00282CD06F
:205AC000FFE701A801784A002D498A5E0699891806910599491C05AA11700078022804D88E
:205AE000FFE704A901200870FFE701A80078052804D3FFE703A901200870FFE701A800783D
:205B0000032805D0FFE701A80078042804D1FFE702A901200870FFE7FFE7FFE70198401CAC
:205B200001A90870BFE705A80078002814D0FFE705A8007804280FD8FFE702A8007800281E
:205B40000ED1FFE704A80078002809D0FFE703A80078002804D0FFE709A9002008800AE02C
:205B6000079901200870069805A9097803F04CF909A90880FFE7002109A8405E0AB080BD60
:205B800024B3000080B588B00790354804F036F8079801F0B3FB3348049004F02FF802F031
:205BA00007F904F02BF8049804F028F8002103912D48405E01F0A2FB049804F01FF8039985
:205BC0002A48405E01F09AFB049804F017F804F0DBF901F093FB049804F010F804F0E8F9DC
:205BE00001F08CFB049804F009F803992048405E01F084FB049804F001F803991D48405E62
:205C000001F07CFB049803F0F9FF1B4801781B481B4A05920029069001D1059806900698F8
:205C200003F0ECFF174803F0E9FF1748007801F065FB164803F0E2FF04F034FF0146144828
:205C4000144A01920029029001D101980290029803F0D4FF104803F0D1FF08B080BDC04625
:205C6000DCB50000FFB70000783A2020A03A2020703A2020983A2020F13A2020BCB60000F8
:205C800032B7000034B30000EA3A202071B6000041B700007AB70000E0B7000082B0009027
:205CA000009880684049884240DCFFE70098C0683D4988423ADCFFE7009800693A498842B5
:205CC00034DCFFE700984069374988422EDCFFE7009880697D21C900884227DCFFE7009820
:205CE000C0697D21C900884220DCFFE70098006AE1214900884219DCFFE70098406AE12132
:205D00004900884212DCFFE70098806A274988420CDCFFE70098C06A4F21C943884205DB2A
:205D2000FFE70098C06A512804DBFFE701A90020087034E000988068002828D4FFE7009805
:205D4000C068002823D4FFE70098006900281ED4FFE700984069002819D4FFE70098806958
:205D6000002814D4FFE70098C06900280FD4FFE70098006A00280AD4FFE70098406A002823
:205D800005D4FFE70098806A002804D5FFE701A90020087003E001A901200870FFE701A8E4
:205DA000007802B07047C046B80B00008813000080B590B00EAB18800DA8069001800CA858
:205DC000028000210591425ED30FD21852100B92425E03205043820F801880100A903848F6
:205DE000405E50218C2203F003F90599024609A80280405E0A386421782203F0F9F805995D
:205E00000246069808AB1A80405E0B99884206DDFFE700210CA8405E002804DCFFE70E9873
:205E20000FA9088047E000210DA8405E0A99884216DBFFE700220EA8805E08A9895E88422B
:205E400005DAFFE700210EA8405E049004E0002108A8405E0490FFE704980FA908802AE0C1
:205E60000022029209A8805E039008A9895E411A0DA8805E0B9A801A48430A99891A02F0C2
:205E8000C3FF029A01460398401A07A908800EA8805E895E884205DAFFE700210EA8405EB1
:205EA000019004E0002107A8405E0190FFE701980FA90880FFE700210FA8405E10B080BD56
:205EC000B63A2020F0B5394A8218394BC0183A4D4C790B79002C22D0466F202B02D005248B
:205EE000E70100E0354F2E40002B00D188273E434667846F2C403C438467446B2D4E3440A8
:205F00004463846B3440846300244465846554688F26F643344054609468344094600C6830
:205F20008979202B09D006467036002B15D1641E4460C46E2C40882715E0641E4460C46E78
:205F40002C401E4E3443C466046F2C40344304671B4D01246707064607E00527FF01640841
:205F60004460C46E2C403C43C46634682C403C433460C46A0F4D2C40C462046B2C400463BD
:205F80000024C4640465C46F8F25ED432C40C46714682C401460194302680A4B1340BD22F5
:205FA0000A40D118891C0160F0BDC04684180000041800008888FDFF24493E000104000081
:205FC000FFFFFFCF4000FFCF80B588B00020079006900590049003A9087004F011F803F0F0
:205FE00033FB02F0F7FB03F015FA03F075F802F0B1FA02F02DFEFDF76FFF04F0E5FD152006
:20600000019003F099FE019803F0EEFE2C4804F009FC62B6FFE702F0A9FB04F059FE069902
:20602000401A052806D3FFE704F052FE069004F081F8FFE703A80078002816D1FFE704F0E1
:2060400047FE2049884210D3FFE7FFF741FB03F043F802F07FFA04F03BFE059003A90120A5
:206060000870194803F0CAFDFFE704F031FE0499401A0A2806D3FFE704F02AFE049003F0F9
:20608000A5FDFFE703A80078002811D0FFE704F01FFE0599401A0A280AD3FFE704F018FE5E
:2060A000059002A800F008FA0598FEF769FBFFE704F00EFEFEF73EFC04F07EFDABE7C0469D
:2060C0000000874070170000EAB1000080B588B006AB187005A801700492394803900498CD
:2060E000002804D1FFE707A90020087064E003F065F8002807D1FFE733490620087007A931
:206100000020087058E004F0BDF82E48029005A90122019202F0E4FC019B029806A9097862
:20612000002202F0EDFE02F081FA002805D0FFE703F044F8002804D1FFE707A900200870B6
:206140003AE006A801781F4801231A4602F0D8FEFFE71C4804F060F900281BD0FFE719485A
:2061600004F01EFC8007002806D5FFE704F08AF807A9002008701FE00398002806D1FFE764
:2061800004F080F807A90020087015E00398401E0390DEE70B4804F017FC0499087002F0A4
:2061A00045FA002804D1FFE707A90020087003E007A901200870FFE707A8007808B080BD47
:2061C0008813000000200F40CB3A2020B0B53A4A80184A6842600A78222A56D8930001A467
:2061E000E3589F46816200008B620000816200008B6200008B6200008B6200008B62000018
:206200008B6200008B6200008B6200008B6200008B6200008B6200008B6200008B62000016
:206220008B620000716200008B620000716200008B6200008B6200008B6200008B6200002A
:206240008B6200008B6200008B6200008B6200008B6200008B6200008B6200008B620000D6
:206260008B620000716200008B62000071620000036803242407A343012464071B1903E054
:20628000036803242407A34303600B69C360CB68C46A0A4D25400A4C1C402B19C3620368BE
:2062A000084C1C400460097A114302683F239A43194051180160B0BD041800008888FDFF92
:2062C000777702007F00FFFF80B584B00390304803F094FC03982F490968401A01F00EF885
:2062E0002D48019003F08AFC002102912B48405E01F004F8019803F081FC02992848405EBB
:2063000000F0FCFF019803F079FC03F03DFE00F0F5FF019803F072FC03F04AFE00F0EEFF6D
:20632000019803F06BFC02991E48405E00F0E6FF019803F063FC1C48007800F0DFFF0198C8
:2063400003F05CFC1948007800F0D8FF019803F055FC02F023FC00F0D1FF019803F04EFCCE
:206360001348007800F0CAFF019803F047FC1148007800F0C3FF019803F040FC02990E4886
:20638000405E00F0BBFF0D4803F038FC04B080BDB2B700001C3A2020FFB70000783A2020A1
:2063A000A03A20207C3A2020E13A2020E23A2020EC3A2020EE3A2020B83A2020E0B700007F
:2063C00080B588B00790079837490968884201D1FFE766E0079834490A68801A0590079805
:2063E000086005981A2803D3FFE719200590FFE706A900200870FFE706A80078022850D841
:20640000FFE706A8017806224A43284989180491007802F02DF8014603A80170007804990C
:206420000978884214D1FFE70498808805994018029002981E49884203D3FFE71D4801909D
:2064400002E002980190FFE701980499888006E0039804990870049900208880FFE704982E
:206460008088192804D3FFE7039804994870FFE70498807800280BD1FFE704984078002846
:2064800006D0FFE706A800780799FEF753FDFFE7049948788870FFE70698401C06A90870F3
:2064A000AAE708B080BDC046DC392020A839202061EA000060EA000080B582B0019069469E
:2064C000002008700198002801D1FFE763E0334800785D281BD1FFE731480078002816D01F
:2064E000FFE7684604F006FB00280CD0FFE76846007803F067F82B4800780199087001991A
:206500000120487047E0264900200870FFE703F08BFD014621480170007800280CD1FFE78F
:20652000042001F0C3FB1F480078019908701E480078019948702EE0184800785D280CD020
:20654000FFE7072001F0B2FB164800780199087015480078019948701DE0684604F0CAFA1E
:2065600000280CD0FFE76846007803F02BF80D480078019908700199012048700BE0052093
:2065800001F094FB07480078019908700648007801994870FFE702B080BDC046CD3A202068
:2065A000D73A2020E63A2020DF3A202080B5B6B0364802900078482104914143344803901D
:2065C000401800F07FFD02980399049A314B0A9303230B93A8230C9300780D900AA8059080
:2065E000103004F081FB0399049A05985830483104F07AFB059800222749895E329102F0DF
:206600000FFA3390EFF3108035903598089072B62248069003F0DCF906987F2189020791C1
:206620000122520200F070FA06980799402203F0CDFF014609A80170007803280DD1FFE75A
:206640000120400200907F20810214480AAA2A2301F06EFB09A90870FFE70898002802D1C3
:20666000FFE762B6FFE709A80078032804D0FFE734A90020087004E0FDF728F934A9087065
:20668000FFE734A8007836B080BDC046573A202090372020314449506C3A202000D00C40AF
:2066A00080B586B005902F480078002806D0FFE72D480088C0084B2801D3FFE750E02A4873
:2066C000019000881621414328484018049003F05BFC03A9088003F06BFC02A908800598E2
:2066E00023490968401A0021224A03F0F3F90499088021490888049A508020480288049BD9
:206700009A80039A049BDA80029A049B1A811C4A1288049B5A811B4A1288049B9A8109882F
:20672000039A891A049AD18100880299401A0499088203F067FD009003F074FD014600985B
:20674000401A1149114A02F053FC0499488202F025FA0199049A90820888401C0880FFE7CD
:2067600006B080BDC43A2020A23A2020000020201C3A2020FFFF0000783A2020A03A2020EC
:20678000703A2020983A20200080FFFFFF7F000080B582B00190304803F030FA0198008853
:2067A00000F0ACFD2D4803F029FA01980221405E00F0A4FD2A48009003F020FA01980421FD
:2067C000405E00F09BFD009803F018FA01980621405E00F093FD009803F010FA01980821C1
:2067E000405E00F08BFD009803F008FA01980A21405E00F083FD009803F000FA01980C21D9
:20680000405E00F07BFD009803F0F8F901980E21405E00F073FD009803F0F0F901981021F2
:20682000405E00F06BFD009803F0E8F901981221405E00F063FD0B4803F0E0F9019814214F
:20684000405E00F05BFD084803F0D8F9074803F0D5F902B080BDC04637B70000DAB60000BB
:20686000FFB70000ECB5000047B60000E0B7000080B584B00390A02001F0A2FE002801D1E6
:20688000FFE759E02D4803F0B9F90398C06900F035FD2B48009003F0B1F903984178294874
:2068A000294A01924C29029001D001980290029803F0A4F90398808A00F020FD009803F068
:2068C0009DF90398006B00F019FD009803F096F903982421405E00F011FD009803F08EF96E
:2068E0000398C08A00F00AFD009803F087F90398806B00F003FD009803F080F90398006C30
:2069000000F0FCFC009803F079F90398006A00F0F5FC009803F072F90398008B00F0EEFCB6
:20692000009803F06BF903984821405C00F0E6FC064803F063F9FFE704B080BDCEB70000FD
